{
  "contractName": "SchnoodleV5Base",
  "abi": [
    {
      "anonymous": false,
      "inputs": [
        {
          "indexed": true,
          "internalType": "address",
          "name": "owner",
          "type": "address"
        },
        {
          "indexed": true,
          "internalType": "address",
          "name": "spender",
          "type": "address"
        },
        {
          "indexed": false,
          "internalType": "uint256",
          "name": "value",
          "type": "uint256"
        }
      ],
      "name": "Approval",
      "type": "event"
    },
    {
      "anonymous": false,
      "inputs": [
        {
          "indexed": true,
          "internalType": "address",
          "name": "operator",
          "type": "address"
        },
        {
          "indexed": true,
          "internalType": "address",
          "name": "tokenHolder",
          "type": "address"
        }
      ],
      "name": "AuthorizedOperator",
      "type": "event"
    },
    {
      "anonymous": false,
      "inputs": [
        {
          "indexed": true,
          "internalType": "address",
          "name": "operator",
          "type": "address"
        },
        {
          "indexed": true,
          "internalType": "address",
          "name": "from",
          "type": "address"
        },
        {
          "indexed": false,
          "internalType": "uint256",
          "name": "amount",
          "type": "uint256"
        },
        {
          "indexed": false,
          "internalType": "bytes",
          "name": "data",
          "type": "bytes"
        },
        {
          "indexed": false,
          "internalType": "bytes",
          "name": "operatorData",
          "type": "bytes"
        }
      ],
      "name": "Burned",
      "type": "event"
    },
    {
      "anonymous": false,
      "inputs": [
        {
          "indexed": true,
          "internalType": "address",
          "name": "account",
          "type": "address"
        },
        {
          "indexed": false,
          "internalType": "uint256",
          "name": "percent",
          "type": "uint256"
        }
      ],
      "name": "EleemosynaryChanged",
      "type": "event"
    },
    {
      "anonymous": false,
      "inputs": [
        {
          "indexed": false,
          "internalType": "uint256",
          "name": "percent",
          "type": "uint256"
        }
      ],
      "name": "FeePercentChanged",
      "type": "event"
    },
    {
      "anonymous": false,
      "inputs": [
        {
          "indexed": true,
          "internalType": "address",
          "name": "operator",
          "type": "address"
        },
        {
          "indexed": true,
          "internalType": "address",
          "name": "to",
          "type": "address"
        },
        {
          "indexed": false,
          "internalType": "uint256",
          "name": "amount",
          "type": "uint256"
        },
        {
          "indexed": false,
          "internalType": "bytes",
          "name": "data",
          "type": "bytes"
        },
        {
          "indexed": false,
          "internalType": "bytes",
          "name": "operatorData",
          "type": "bytes"
        }
      ],
      "name": "Minted",
      "type": "event"
    },
    {
      "anonymous": false,
      "inputs": [
        {
          "indexed": true,
          "internalType": "address",
          "name": "previousOwner",
          "type": "address"
        },
        {
          "indexed": true,
          "internalType": "address",
          "name": "newOwner",
          "type": "address"
        }
      ],
      "name": "OwnershipTransferred",
      "type": "event"
    },
    {
      "anonymous": false,
      "inputs": [
        {
          "indexed": true,
          "internalType": "address",
          "name": "operator",
          "type": "address"
        },
        {
          "indexed": true,
          "internalType": "address",
          "name": "tokenHolder",
          "type": "address"
        }
      ],
      "name": "RevokedOperator",
      "type": "event"
    },
    {
      "anonymous": false,
      "inputs": [
        {
          "indexed": true,
          "internalType": "address",
          "name": "operator",
          "type": "address"
        },
        {
          "indexed": true,
          "internalType": "address",
          "name": "from",
          "type": "address"
        },
        {
          "indexed": true,
          "internalType": "address",
          "name": "to",
          "type": "address"
        },
        {
          "indexed": false,
          "internalType": "uint256",
          "name": "amount",
          "type": "uint256"
        },
        {
          "indexed": false,
          "internalType": "bytes",
          "name": "data",
          "type": "bytes"
        },
        {
          "indexed": false,
          "internalType": "bytes",
          "name": "operatorData",
          "type": "bytes"
        }
      ],
      "name": "Sent",
      "type": "event"
    },
    {
      "anonymous": false,
      "inputs": [
        {
          "indexed": true,
          "internalType": "address",
          "name": "from",
          "type": "address"
        },
        {
          "indexed": true,
          "internalType": "address",
          "name": "to",
          "type": "address"
        },
        {
          "indexed": false,
          "internalType": "uint256",
          "name": "value",
          "type": "uint256"
        }
      ],
      "name": "Transfer",
      "type": "event"
    },
    {
      "inputs": [
        {
          "internalType": "address",
          "name": "operator",
          "type": "address"
        }
      ],
      "name": "authorizeOperator",
      "outputs": [],
      "stateMutability": "nonpayable",
      "type": "function"
    },
    {
      "inputs": [
        {
          "internalType": "uint256",
          "name": "amount",
          "type": "uint256"
        },
        {
          "internalType": "bytes",
          "name": "data",
          "type": "bytes"
        }
      ],
      "name": "burn",
      "outputs": [],
      "stateMutability": "nonpayable",
      "type": "function"
    },
    {
      "inputs": [],
      "name": "decimals",
      "outputs": [
        {
          "internalType": "uint8",
          "name": "",
          "type": "uint8"
        }
      ],
      "stateMutability": "pure",
      "type": "function"
    },
    {
      "inputs": [],
      "name": "defaultOperators",
      "outputs": [
        {
          "internalType": "address[]",
          "name": "",
          "type": "address[]"
        }
      ],
      "stateMutability": "view",
      "type": "function"
    },
    {
      "inputs": [],
      "name": "granularity",
      "outputs": [
        {
          "internalType": "uint256",
          "name": "",
          "type": "uint256"
        }
      ],
      "stateMutability": "view",
      "type": "function"
    },
    {
      "inputs": [
        {
          "internalType": "string",
          "name": "name",
          "type": "string"
        },
        {
          "internalType": "string",
          "name": "symbol",
          "type": "string"
        },
        {
          "internalType": "address[]",
          "name": "defaultOperators",
          "type": "address[]"
        },
        {
          "internalType": "uint256",
          "name": "initialSupply",
          "type": "uint256"
        },
        {
          "internalType": "address",
          "name": "owner",
          "type": "address"
        }
      ],
      "name": "initialize",
      "outputs": [],
      "stateMutability": "nonpayable",
      "type": "function"
    },
    {
      "inputs": [
        {
          "internalType": "address",
          "name": "operator",
          "type": "address"
        },
        {
          "internalType": "address",
          "name": "tokenHolder",
          "type": "address"
        }
      ],
      "name": "isOperatorFor",
      "outputs": [
        {
          "internalType": "bool",
          "name": "",
          "type": "bool"
        }
      ],
      "stateMutability": "view",
      "type": "function"
    },
    {
      "inputs": [],
      "name": "name",
      "outputs": [
        {
          "internalType": "string",
          "name": "",
          "type": "string"
        }
      ],
      "stateMutability": "view",
      "type": "function"
    },
    {
      "inputs": [
        {
          "internalType": "address",
          "name": "account",
          "type": "address"
        },
        {
          "internalType": "uint256",
          "name": "amount",
          "type": "uint256"
        },
        {
          "internalType": "bytes",
          "name": "data",
          "type": "bytes"
        },
        {
          "internalType": "bytes",
          "name": "operatorData",
          "type": "bytes"
        }
      ],
      "name": "operatorBurn",
      "outputs": [],
      "stateMutability": "nonpayable",
      "type": "function"
    },
    {
      "inputs": [
        {
          "internalType": "address",
          "name": "sender",
          "type": "address"
        },
        {
          "internalType": "address",
          "name": "recipient",
          "type": "address"
        },
        {
          "internalType": "uint256",
          "name": "amount",
          "type": "uint256"
        },
        {
          "internalType": "bytes",
          "name": "data",
          "type": "bytes"
        },
        {
          "internalType": "bytes",
          "name": "operatorData",
          "type": "bytes"
        }
      ],
      "name": "operatorSend",
      "outputs": [],
      "stateMutability": "nonpayable",
      "type": "function"
    },
    {
      "inputs": [],
      "name": "owner",
      "outputs": [
        {
          "internalType": "address",
          "name": "",
          "type": "address"
        }
      ],
      "stateMutability": "view",
      "type": "function"
    },
    {
      "inputs": [],
      "name": "renounceOwnership",
      "outputs": [],
      "stateMutability": "nonpayable",
      "type": "function"
    },
    {
      "inputs": [
        {
          "internalType": "address",
          "name": "operator",
          "type": "address"
        }
      ],
      "name": "revokeOperator",
      "outputs": [],
      "stateMutability": "nonpayable",
      "type": "function"
    },
    {
      "inputs": [
        {
          "internalType": "address",
          "name": "recipient",
          "type": "address"
        },
        {
          "internalType": "uint256",
          "name": "amount",
          "type": "uint256"
        },
        {
          "internalType": "bytes",
          "name": "data",
          "type": "bytes"
        }
      ],
      "name": "send",
      "outputs": [],
      "stateMutability": "nonpayable",
      "type": "function"
    },
    {
      "inputs": [],
      "name": "symbol",
      "outputs": [
        {
          "internalType": "string",
          "name": "",
          "type": "string"
        }
      ],
      "stateMutability": "view",
      "type": "function"
    },
    {
      "inputs": [
        {
          "internalType": "address",
          "name": "newOwner",
          "type": "address"
        }
      ],
      "name": "transferOwnership",
      "outputs": [],
      "stateMutability": "nonpayable",
      "type": "function"
    },
    {
      "inputs": [],
      "name": "totalSupply",
      "outputs": [
        {
          "internalType": "uint256",
          "name": "",
          "type": "uint256"
        }
      ],
      "stateMutability": "view",
      "type": "function"
    },
    {
      "inputs": [
        {
          "internalType": "address",
          "name": "account",
          "type": "address"
        }
      ],
      "name": "balanceOf",
      "outputs": [
        {
          "internalType": "uint256",
          "name": "",
          "type": "uint256"
        }
      ],
      "stateMutability": "view",
      "type": "function"
    },
    {
      "inputs": [
        {
          "internalType": "address",
          "name": "recipient",
          "type": "address"
        },
        {
          "internalType": "uint256",
          "name": "amount",
          "type": "uint256"
        }
      ],
      "name": "transfer",
      "outputs": [
        {
          "internalType": "bool",
          "name": "",
          "type": "bool"
        }
      ],
      "stateMutability": "nonpayable",
      "type": "function"
    },
    {
      "inputs": [
        {
          "internalType": "address",
          "name": "holder",
          "type": "address"
        },
        {
          "internalType": "address",
          "name": "spender",
          "type": "address"
        }
      ],
      "name": "allowance",
      "outputs": [
        {
          "internalType": "uint256",
          "name": "",
          "type": "uint256"
        }
      ],
      "stateMutability": "view",
      "type": "function"
    },
    {
      "inputs": [
        {
          "internalType": "address",
          "name": "spender",
          "type": "address"
        },
        {
          "internalType": "uint256",
          "name": "value",
          "type": "uint256"
        }
      ],
      "name": "approve",
      "outputs": [
        {
          "internalType": "bool",
          "name": "",
          "type": "bool"
        }
      ],
      "stateMutability": "nonpayable",
      "type": "function"
    },
    {
      "inputs": [
        {
          "internalType": "address",
          "name": "sender",
          "type": "address"
        },
        {
          "internalType": "address",
          "name": "recipient",
          "type": "address"
        },
        {
          "internalType": "uint256",
          "name": "amount",
          "type": "uint256"
        }
      ],
      "name": "transferFrom",
      "outputs": [
        {
          "internalType": "bool",
          "name": "",
          "type": "bool"
        }
      ],
      "stateMutability": "nonpayable",
      "type": "function"
    },
    {
      "inputs": [
        {
          "internalType": "uint256",
          "name": "percent",
          "type": "uint256"
        }
      ],
      "name": "changeFeePercent",
      "outputs": [],
      "stateMutability": "nonpayable",
      "type": "function"
    },
    {
      "inputs": [
        {
          "internalType": "address",
          "name": "account",
          "type": "address"
        },
        {
          "internalType": "uint256",
          "name": "percent",
          "type": "uint256"
        }
      ],
      "name": "changeEleemosynary",
      "outputs": [],
      "stateMutability": "nonpayable",
      "type": "function"
    },
    {
      "inputs": [],
      "name": "feePercent",
      "outputs": [
        {
          "internalType": "uint256",
          "name": "",
          "type": "uint256"
        }
      ],
      "stateMutability": "view",
      "type": "function"
    },
    {
      "inputs": [],
      "name": "eleemosynary",
      "outputs": [
        {
          "internalType": "address",
          "name": "",
          "type": "address"
        },
        {
          "internalType": "uint256",
          "name": "",
          "type": "uint256"
        }
      ],
      "stateMutability": "view",
      "type": "function"
    }
  ],
  "bytecode": "0x608060405234801561001057600080fd5b5061276f806100206000396000f3fe608060405234801561001057600080fd5b506004361061018e5760003560e01c80637fd6f15c116100de578063d95b637111610097578063f2fde38b11610071578063f2fde38b1461034d578063fad8b32a14610360578063fc673c4f14610373578063fe9d93031461038657600080fd5b8063d95b6371146102f1578063dd62ed3e14610304578063f1de360b1461031757600080fd5b80637fd6f15c1461028d5780638da5cb5b14610295578063959b8c3f146102b057806395d89b41146102c35780639bd9bbc6146102cb578063a9059cbb146102de57600080fd5b8063313ce5671161014b57806362ad1b831161012557806362ad1b831461024c57806370a082311461025f578063715018a614610272578063768f950a1461027a57600080fd5b8063313ce5671461022357806334eddf3e14610232578063556f0dc71461024557600080fd5b806306e485381461019357806306fdde03146101b1578063095ea7b3146101c657806318160ddd146101e957806323b872dd146101fb5780632f5d14671461020e575b600080fd5b61019b610399565b6040516101a89190611f3d565b60405180910390f35b6101b96103fb565b6040516101a89190611fd7565b6101d96101d436600461200f565b610484565b60405190151581526020016101a8565b60c9545b6040519081526020016101a8565b6101d961020936600461203b565b61049f565b61022161021c36600461200f565b61050e565b005b604051601281526020016101a8565b61022161024036600461207c565b61059b565b60016101ed565b61022161025a36600461214c565b610600565b6101ed61026d3660046121df565b61063c565b6102216106d8565b6102216102883660046121fc565b61070e565b60ca546101ed565b6097546040516001600160a01b0390911681526020016101a8565b6102216102be3660046121df565b61078c565b6101b96108aa565b6102216102d936600461230f565b6108b9565b6101d96102ec36600461200f565b6108dc565b6101d96102ff366004612368565b610949565b6101ed610312366004612368565b6109ea565b61032e60cb5460cc546001600160a01b0390911691565b604080516001600160a01b0390931683526020830191909152016101a8565b61022161035b3660046121df565b610a1b565b61022161036e3660046121df565b610ab6565b6102216103813660046123a1565b610bd2565b610221610394366004612421565b610c0a565b606060378054806020026020016040519081016040528092919081815260200182805480156103f157602002820191906000526020600020905b81546001600160a01b031681526001909101906020018083116103d3575b5050505050905090565b60606035805461040a90612468565b80601f016020809104026020016040519081016040528092919081815260200182805461043690612468565b80156103f15780601f10610458576101008083540402835291602001916103f1565b820191906000526020600020905b81548152906001019060200180831161046657509395945050505050565b60006104988361049384610c29565b610c43565b9392505050565b6000806104ab83610c29565b905060006104ba868684610c5b565b9050846001600160a01b0316866001600160a01b031660008051602061271a833981519152866040516104ef91815260200190565b60405180910390a3610505858584610e1b610e31565b95945050505050565b6097546001600160a01b031633146105415760405162461bcd60e51b8152600401610538906124a3565b60405180910390fd5b60cb80546001600160a01b0319166001600160a01b03841690811790915560cc8290556040518281527f14771002f2414c27e60fe966b41bcb8004589b44c52a1f73016757cc92bf5ada9060200160405180910390a25050565b6097546001600160a01b031633146105c55760405162461bcd60e51b8152600401610538906124a3565b60ca8190556040518181527f91955c12515f4eb8f1ff79df82d1933ff11b6d3b9a3019c6568840616ec36a749060200160405180910390a150565b61060a3386610949565b6106265760405162461bcd60e51b8152600401610538906124d8565b61063585858585856001610e5c565b5050505050565b6001600160a01b0381166000908152603360205260408120546034548111156106cf576040805162461bcd60e51b81526020600482015260248101919091527f5363686e6f6f646c653a207265666c65637465642062616c616e6365206d757360448201527f74206265206c657373207468616e20746f74616c207265666c656374696f6e736064820152608401610538565b61049881610ec9565b6097546001600160a01b031633146107025760405162461bcd60e51b8152600401610538906124a3565b61070c6000610edd565b565b600054610100900460ff1680610727575060005460ff16155b6107435760405162461bcd60e51b815260040161053890612524565b600054610100900460ff16158015610765576000805461ffff19166101011790555b6107728686868686610f2f565b8015610784576000805461ff00191690555b505050505050565b336001600160a01b03821614156107f15760405162461bcd60e51b8152602060048201526024808201527f4552433737373a20617574686f72697a696e672073656c66206173206f70657260448201526330ba37b960e11b6064820152608401610538565b6001600160a01b03811660009081526038602052604090205460ff161561084257336000908152603a602090815260408083206001600160a01b03851684529091529020805460ff19169055610871565b3360009081526039602090815260408083206001600160a01b03851684529091529020805460ff191660011790555b60405133906001600160a01b038316907ff4caeb2d6ca8932a215a353d0703c326ec2d81fc68170f320eb2ab49e9df61f990600090a350565b60606036805461040a90612468565b6108d733848484604051806020016040528060008152506001610e5c565b505050565b6000806108e883610c29565b905060006108f68583610fa6565b90506001600160a01b038516336001600160a01b031660008051602061271a8339815191528660405161092b91815260200190565b60405180910390a3610941858584610e1b610e31565b949350505050565b6000816001600160a01b0316836001600160a01b031614806109b457506001600160a01b03831660009081526038602052604090205460ff1680156109b457506001600160a01b038083166000908152603a602090815260408083209387168352929052205460ff16155b806104985750506001600160a01b0390811660009081526039602090815260408083209490931682529290925290205460ff1690565b6001600160a01b038083166000908152603b6020908152604080832093851683529290529081205461049890610ec9565b6097546001600160a01b03163314610a455760405162461bcd60e51b8152600401610538906124a3565b6001600160a01b038116610aaa5760405162461bcd60e51b815260206004820152602660248201527f4f776e61626c653a206e6577206f776e657220697320746865207a65726f206160448201526564647265737360d01b6064820152608401610538565b610ab381610edd565b50565b6001600160a01b038116331415610b195760405162461bcd60e51b815260206004820152602160248201527f4552433737373a207265766f6b696e672073656c66206173206f70657261746f6044820152603960f91b6064820152608401610538565b6001600160a01b03811660009081526038602052604090205460ff1615610b6d57336000908152603a602090815260408083206001600160a01b03851684529091529020805460ff19166001179055610b99565b3360009081526039602090815260408083206001600160a01b03851684529091529020805460ff191690555b60405133906001600160a01b038316907f50546e66e5f44d728365dc3908c63bc5cfeeab470722c1677e3073a6ac294aa190600090a350565b610bdc3385610949565b610bf85760405162461bcd60e51b8152600401610538906124d8565b610c0484848484611059565b50505050565b610c2533838360405180602001604052806000815250611059565b5050565b6000610c3361108a565b610c3d9083612588565b92915050565b600033610c518185856110a7565b5060019392505050565b60006001600160a01b038316610c835760405162461bcd60e51b8152600401610538906125a7565b6001600160a01b038416610ce85760405162461bcd60e51b815260206004820152602660248201527f4552433737373a207472616e736665722066726f6d20746865207a65726f206160448201526564647265737360d01b6064820152608401610538565b6000339050610d198186868660405180602001604052806000815250604051806020016040528060008152506111cf565b610d45818686866040518060200160405280600081525060405180602001604052806000815250611305565b6001600160a01b038086166000908152603b602090815260408083209385168352929052205483811015610dcd5760405162461bcd60e51b815260206004820152602960248201527f4552433737373a207472616e7366657220616d6f756e74206578636565647320604482015268616c6c6f77616e636560b81b6064820152608401610538565b610de18683610ddc87856125eb565b6110a7565b610e0f8287878760405180602001604052806000815250604051806020016040528060008152506000611459565b50600195945050505050565b610e268333836110a7565b610c04838383610c5b565b610e3c84848461162d565b60cb5460cc54610c049186916001600160a01b03909116908690856116bc565b6000610e6785610c29565b9050610e77878783878787611747565b856001600160a01b0316876001600160a01b031660008051602061271a83398151915287604051610eaa91815260200190565b60405180910390a3610ec086868361182a610e31565b50505050505050565b6000610ed361108a565b610c3d9083612602565b609780546001600160a01b038381166001600160a01b0319831681179093556040519116919082907f8be0079c531659141344cd1fd0a4f28419497f9722a3daafe3b4186f6b6457e090600090a35050565b600054610100900460ff1680610f48575060005460ff16155b610f645760405162461bcd60e51b815260040161053890612524565b600054610100900460ff16158015610f86576000805461ffff19166101011790555b610f8e611857565b610f998686866118c2565b6107728686868686611af7565b60006001600160a01b038316610fce5760405162461bcd60e51b8152600401610538906125a7565b6000339050610fff8182868660405180602001604052806000815250604051806020016040528060008152506111cf565b61102b818286866040518060200160405280600081525060405180602001604052806000815250611305565b610c518182868660405180602001604052806000815250604051806020016040528060008152506000611459565b61106d8461106685610c29565b8484611b78565b8260c9600082825461107f91906125eb565b909155505050505050565b600061109560c95490565b6034546110a29190612602565b905090565b6001600160a01b03831661110b5760405162461bcd60e51b815260206004820152602560248201527f4552433737373a20617070726f76652066726f6d20746865207a65726f206164604482015264647265737360d81b6064820152608401610538565b6001600160a01b03821661116d5760405162461bcd60e51b815260206004820152602360248201527f4552433737373a20617070726f766520746f20746865207a65726f206164647260448201526265737360e81b6064820152608401610538565b6001600160a01b038381166000818152603b602090815260408083209487168084529482529182902085905590518481527f8c5be1e5ebec7d5bd14f71427d1e84f3dd0314c0f7b2291e5b200ac8c7c3b92591015b60405180910390a3505050565b60405163555ddc6560e11b81526001600160a01b03861660048201527f29ddb589b1fb5fc7cf394961c1adf5f8c6454761adf795e67fe149f658abe8956024820152600090731820a4b7618bde71dce8cdc73aab6c95905fad249063aabbb8ca9060440160206040518083038186803b15801561124b57600080fd5b505afa15801561125f573d6000803e3d6000fd5b505050506040513d601f19601f820116820180604052508101906112839190612624565b90506001600160a01b03811615610ec057604051633ad5cbc160e11b81526001600160a01b038216906375ab9782906112ca908a908a908a908a908a908a90600401612641565b600060405180830381600087803b1580156112e457600080fd5b505af11580156112f8573d6000803e3d6000fd5b5050505050505050505050565b6001600160a01b0385166000908152603360205260409020548381101561137e5760405162461bcd60e51b815260206004820152602760248201527f4552433737373a207472616e7366657220616d6f756e7420657863656564732060448201526662616c616e636560c81b6064820152608401610538565b6001600160a01b038087166000908152603360205260408082208785039055918716815290812080548692906113b590849061269b565b92505081905550846001600160a01b0316866001600160a01b0316886001600160a01b03167f06b541ddaa720db2b10a4d0cdac39b8d360425fc073085fac19bc8261467798787878760405161140d939291906126b3565b60405180910390a4846001600160a01b0316866001600160a01b031660008051602061271a8339815191528660405161144891815260200190565b60405180910390a350505050505050565b60405163555ddc6560e11b81526001600160a01b03861660048201527fb281fc8c12954d22544db45de3159a39272895b169a852b314f9cc762e44c53b6024820152600090731820a4b7618bde71dce8cdc73aab6c95905fad249063aabbb8ca9060440160206040518083038186803b1580156114d557600080fd5b505afa1580156114e9573d6000803e3d6000fd5b505050506040513d601f19601f8201168201806040525081019061150d9190612624565b90506001600160a01b03811615611589576040516223de2960e01b81526001600160a01b038216906223de2990611552908b908b908b908b908b908b90600401612641565b600060405180830381600087803b15801561156c57600080fd5b505af1158015611580573d6000803e3d6000fd5b50505050611623565b8115611623576001600160a01b0386163b156116235760405162461bcd60e51b815260206004820152604d60248201527f4552433737373a20746f6b656e20726563697069656e7420636f6e747261637460448201527f20686173206e6f20696d706c656d656e74657220666f7220455243373737546f60648201526c1ad95b9cd49958da5c1a595b9d609a1b608482015260a401610538565b5050505050505050565b6116708360ca546064846116419190612602565b61164b9190612588565b6040518060200160405280600081525060405180602001604052806000815250611b78565b60006001600160a01b0316836001600160a01b031660008051602061271a833981519152606460ca54866116a49190612588565b6116ae9190612602565b6040519081526020016111c2565b6001600160a01b0384161561063557600060646116d98486612588565b6116e39190612602565b905060006116f082610c29565b90506117018787838663ffffffff16565b856001600160a01b0316876001600160a01b031660008051602061271a8339815191528460405161173491815260200190565b60405180910390a3610ec086838361162d565b6001600160a01b0386166117a85760405162461bcd60e51b815260206004820152602260248201527f4552433737373a2073656e642066726f6d20746865207a65726f206164647265604482015261737360f01b6064820152608401610538565b6001600160a01b0385166117fe5760405162461bcd60e51b815260206004820181905260248201527f4552433737373a2073656e6420746f20746865207a65726f20616464726573736044820152606401610538565b3361180d8188888888886111cf565b61181b818888888888611305565b610ec081888888888888611459565b6108d783838360405180602001604052806000815250604051806020016040528060008152506001611747565b600054610100900460ff1680611870575060005460ff16155b61188c5760405162461bcd60e51b815260040161053890612524565b600054610100900460ff161580156118ae576000805461ffff19166101011790555b8015610ab3576000805461ff001916905550565b600054610100900460ff16806118db575060005460ff16155b6118f75760405162461bcd60e51b815260040161053890612524565b600054610100900460ff16158015611919576000805461ffff19166101011790555b835161192c906035906020870190611e4f565b508251611940906036906020860190611e4f565b508151611954906037906020850190611ed3565b5060005b82518110156119bd57600160386000858481518110611979576119796126e8565b6020908102919091018101516001600160a01b03168252810191909152604001600020805460ff1916911515919091179055806119b5816126fe565b915050611958565b506040516329965a1d60e01b815230600482018190527fac7fbab5f54a3ca8194167523c6753bfeb96a445279294b6125b68cce217705460248301526044820152731820a4b7618bde71dce8cdc73aab6c95905fad24906329965a1d90606401600060405180830381600087803b158015611a3757600080fd5b505af1158015611a4b573d6000803e3d6000fd5b50506040516329965a1d60e01b815230600482018190527faea199e31a596269b42cdafd93407f14436db6e4cad65417994c2eb37381e05a60248301526044820152731820a4b7618bde71dce8cdc73aab6c95905fad2492506329965a1d9150606401600060405180830381600087803b158015611ac857600080fd5b505af1158015611adc573d6000803e3d6000fd5b505050508015610c04576000805461ff001916905550505050565b600054610100900460ff1680611b10575060005460ff16155b611b2c5760405162461bcd60e51b815260040161053890612524565b600054610100900460ff16158015611b4e576000805461ffff19166101011790555b61077282846040518060200160405280600081525060405180602001604052806000815250611d1b565b6001600160a01b038416611bd95760405162461bcd60e51b815260206004820152602260248201527f4552433737373a206275726e2066726f6d20746865207a65726f206164647265604482015261737360f01b6064820152608401610538565b33611be9818660008787876111cf565b6001600160a01b03851660009081526033602052604090205484811015611c5e5760405162461bcd60e51b815260206004820152602360248201527f4552433737373a206275726e20616d6f756e7420657863656564732062616c616044820152626e636560e81b6064820152608401610538565b6001600160a01b0386166000908152603360205260408120868303905560348054879290611c8d9084906125eb565b92505081905550856001600160a01b0316826001600160a01b03167fa78a9be3a7b862d26933ad85fb11d80ef66b8f972d7cbba06621d583943a4098878787604051611cdb939291906126b3565b60405180910390a36040518581526000906001600160a01b0388169060008051602061271a833981519152906020015b60405180910390a3505050505050565b610c048484848460016001600160a01b038516611d7a5760405162461bcd60e51b815260206004820181905260248201527f4552433737373a206d696e7420746f20746865207a65726f20616464726573736044820152606401610538565b60003390508460346000828254611d91919061269b565b90915550506001600160a01b03861660009081526033602052604081208054879290611dbe90849061269b565b90915550611dd490508160008888888888611459565b856001600160a01b0316816001600160a01b03167f2fe5be0146f74c5bce36c0b80911af6c7d86ff27e89d5cfa61fc681327954e5d878787604051611e1b939291906126b3565b60405180910390a36040518581526001600160a01b0387169060009060008051602061271a83398151915290602001611d0b565b828054611e5b90612468565b90600052602060002090601f016020900481019282611e7d5760008555611ec3565b82601f10611e9657805160ff1916838001178555611ec3565b82800160010185558215611ec3579182015b82811115611ec3578251825591602001919060010190611ea8565b50611ecf929150611f28565b5090565b828054828255906000526020600020908101928215611ec3579160200282015b82811115611ec357825182546001600160a01b0319166001600160a01b03909116178255602090920191600190910190611ef3565b5b80821115611ecf5760008155600101611f29565b6020808252825182820181905260009190848201906040850190845b81811015611f7e5783516001600160a01b031683529284019291840191600101611f59565b50909695505050505050565b6000815180845260005b81811015611fb057602081850181015186830182015201611f94565b81811115611fc2576000602083870101525b50601f01601f19169290920160200192915050565b6020815260006104986020830184611f8a565b6001600160a01b0381168114610ab357600080fd5b803561200a81611fea565b919050565b6000806040838503121561202257600080fd5b823561202d81611fea565b946020939093013593505050565b60008060006060848603121561205057600080fd5b833561205b81611fea565b9250602084013561206b81611fea565b929592945050506040919091013590565b60006020828403121561208e57600080fd5b5035919050565b634e487b7160e01b600052604160045260246000fd5b604051601f8201601f1916810167ffffffffffffffff811182821017156120d4576120d4612095565b604052919050565b600082601f8301126120ed57600080fd5b813567ffffffffffffffff81111561210757612107612095565b61211a601f8201601f19166020016120ab565b81815284602083860101111561212f57600080fd5b816020850160208301376000918101602001919091529392505050565b600080600080600060a0868803121561216457600080fd5b853561216f81611fea565b9450602086013561217f81611fea565b935060408601359250606086013567ffffffffffffffff808211156121a357600080fd5b6121af89838a016120dc565b935060808801359150808211156121c557600080fd5b506121d2888289016120dc565b9150509295509295909350565b6000602082840312156121f157600080fd5b813561049881611fea565b600080600080600060a0868803121561221457600080fd5b853567ffffffffffffffff8082111561222c57600080fd5b61223889838a016120dc565b965060209150818801358181111561224f57600080fd5b61225b8a828b016120dc565b96505060408801358181111561227057600080fd5b8801601f81018a1361228157600080fd5b80358281111561229357612293612095565b8060051b92506122a48484016120ab565b818152928201840192848101908c8511156122be57600080fd5b928501925b848410156122e857833592506122d883611fea565b82825292850192908501906122c3565b97505050506060880135935061230391505060808701611fff565b90509295509295909350565b60008060006060848603121561232457600080fd5b833561232f81611fea565b925060208401359150604084013567ffffffffffffffff81111561235257600080fd5b61235e868287016120dc565b9150509250925092565b6000806040838503121561237b57600080fd5b823561238681611fea565b9150602083013561239681611fea565b809150509250929050565b600080600080608085870312156123b757600080fd5b84356123c281611fea565b935060208501359250604085013567ffffffffffffffff808211156123e657600080fd5b6123f2888389016120dc565b9350606087013591508082111561240857600080fd5b50612415878288016120dc565b91505092959194509250565b6000806040838503121561243457600080fd5b82359150602083013567ffffffffffffffff81111561245257600080fd5b61245e858286016120dc565b9150509250929050565b600181811c9082168061247c57607f821691505b6020821081141561249d57634e487b7160e01b600052602260045260246000fd5b50919050565b6020808252818101527f4f776e61626c653a2063616c6c6572206973206e6f7420746865206f776e6572604082015260600190565b6020808252602c908201527f4552433737373a2063616c6c6572206973206e6f7420616e206f70657261746f60408201526b39103337b9103437b63232b960a11b606082015260800190565b6020808252602e908201527f496e697469616c697a61626c653a20636f6e747261637420697320616c72656160408201526d191e481a5b9a5d1a585b1a5e995960921b606082015260800190565b634e487b7160e01b600052601160045260246000fd5b60008160001904831182151516156125a2576125a2612572565b500290565b60208082526024908201527f4552433737373a207472616e7366657220746f20746865207a65726f206164646040820152637265737360e01b606082015260800190565b6000828210156125fd576125fd612572565b500390565b60008261261f57634e487b7160e01b600052601260045260246000fd5b500490565b60006020828403121561263657600080fd5b815161049881611fea565b6001600160a01b0387811682528681166020830152851660408201526060810184905260c06080820181905260009061267c90830185611f8a565b82810360a084015261268e8185611f8a565b9998505050505050505050565b600082198211156126ae576126ae612572565b500190565b8381526060602082015260006126cc6060830185611f8a565b82810360408401526126de8185611f8a565b9695505050505050565b634e487b7160e01b600052603260045260246000fd5b600060001982141561271257612712612572565b506001019056feddf252ad1be2c89b69c2b068fc378daa952ba7f163c4a11628f55a4df523b3efa26469706673582212206913eb9d3e88e85eb45b7412b2388fa0dd3b27a5f6cd442313f84c63b871714d64736f6c63430008090033",
  "immutableReferences": {},
  "source": "// contracts/imports/SchnoodleV5Base.sol\r\n// SPDX-License-Identifier: MIT\r\npragma solidity ^0.8.0;\r\n\r\nimport \"@openzeppelin/contracts-upgradeable/proxy/utils/Initializable.sol\";\r\nimport \"@openzeppelin/contracts-upgradeable/token/ERC777/presets/ERC777PresetFixedSupplyUpgradeable.sol\";\r\nimport \"@openzeppelin/contracts-upgradeable/access/OwnableUpgradeable.sol\";\r\n\r\ncontract SchnoodleV5Base is ERC777PresetFixedSupplyUpgradeable, OwnableUpgradeable {\r\n    uint256 private constant MAX = ~uint256(0);\r\n    uint256 private _totalSupply;\r\n    uint256 private _feePercent;\r\n    address private _eleemosynary;\r\n    uint256 private _donationPercent;\r\n\r\n    function __SchnoodleV5Base_init(uint256 initialTokens, address serviceAccount) internal initializer {\r\n        _totalSupply = initialTokens * 10 ** decimals();\r\n        __ERC777PresetFixedSupply_init(\"Schnoodle\", \"SNOOD\", new address[](0), MAX - (MAX % totalSupply()), serviceAccount);\r\n        __Ownable_init_unchained();\r\n    }\r\n\r\n    function totalSupply() public view virtual override returns (uint256) {\r\n        return _totalSupply;\r\n    }\r\n\r\n    function balanceOf(address account) public view override returns (uint256) {\r\n        uint256 reflectedBalance = super.balanceOf(account);\r\n        require(reflectedBalance <= super.totalSupply(), \"Schnoodle: reflected balance must be less than total reflections\");\r\n        return _getStandardAmount(reflectedBalance);\r\n    }\r\n\r\n    function transfer(address recipient, uint256 amount) public virtual override returns (bool) {\r\n        uint256 reflectedAmount = _getReflectedAmount(amount);\r\n        bool result = super.transfer(recipient, reflectedAmount);\r\n        emit Transfer(_msgSender(), recipient, amount);\r\n        payFeeAndDonate(recipient, amount, reflectedAmount, _transferFromReflected);\r\n        return result;\r\n    }\r\n\r\n    function allowance(address holder, address spender) public view virtual override returns (uint256) {\r\n        return _getStandardAmount(super.allowance(holder, spender));\r\n    }\r\n\r\n    function approve(address spender, uint256 value) public virtual override returns (bool) {\r\n        return super.approve(spender, _getReflectedAmount(value));\r\n    }\r\n\r\n    function transferFrom(address sender, address recipient, uint256 amount) public virtual override returns (bool) {\r\n        uint256 reflectedAmount = _getReflectedAmount(amount);\r\n        bool result = super.transferFrom(sender, recipient, reflectedAmount);\r\n        emit Transfer(sender, recipient, amount);\r\n        payFeeAndDonate(recipient, amount, reflectedAmount, _transferFromReflected);\r\n        return result;\r\n    }\r\n\r\n    function _send(address from, address to, uint256 amount, bytes memory userData, bytes memory operatorData, bool requireReceptionAck) internal virtual override {\r\n        uint256 reflectedAmount = _getReflectedAmount(amount);\r\n        super._send(from, to, reflectedAmount, userData, operatorData, requireReceptionAck);\r\n        emit Transfer(from, to, amount);\r\n        payFeeAndDonate(to, amount, reflectedAmount, _sendReflected);\r\n    }\r\n\r\n    function _transferFromReflected(address from, address to, uint256 reflectedAmount) internal {\r\n        _approve(from, _msgSender(), reflectedAmount);\r\n        super.transferFrom(from, to, reflectedAmount);\r\n    }\r\n\r\n    function _sendReflected(address from, address to, uint256 reflectedAmount) internal {\r\n        super._send(from, to, reflectedAmount, \"\", \"\", true);\r\n    }\r\n\r\n    function payFeeAndDonate(address recipient, uint256 amount, uint256 reflectedAmount, function(address, address, uint256) internal transferCallback) internal virtual {\r\n        _payFee(recipient, amount, reflectedAmount);\r\n        _transferTax(recipient, _eleemosynary, amount, _donationPercent, transferCallback);\r\n    }\r\n\r\n    function _transferTax(address from, address to, uint256 amount, uint256 percent, function(address, address, uint256) internal transferCallback) internal {\r\n        // Ignore tax if not enabled\r\n        if (to != address(0)) {\r\n            uint256 taxAmount = amount * percent / 100;\r\n            uint256 reflectedDonationAmount = _getReflectedAmount(taxAmount);\r\n            transferCallback(from, to, reflectedDonationAmount);\r\n            emit Transfer(from, to, taxAmount);\r\n            _payFee(to, taxAmount, reflectedDonationAmount);\r\n        }\r\n    }\r\n\r\n    function _payFee(address recipient, uint256 amount, uint256 reflectedAmount) private {\r\n        super._burn(recipient, reflectedAmount / 100 * _feePercent, \"\", \"\");\r\n        emit Transfer(recipient, address(0), amount * _feePercent / 100);\r\n    }\r\n\r\n    function changeFeePercent(uint256 percent) public onlyOwner {\r\n        _feePercent = percent;\r\n        emit FeePercentChanged(percent);\r\n    }\r\n\r\n    function changeEleemosynary(address account, uint256 percent) public onlyOwner {\r\n        _eleemosynary = account;\r\n        _donationPercent = percent;\r\n        emit EleemosynaryChanged(account, percent);\r\n    }\r\n\r\n    function feePercent() public view returns(uint256) {\r\n        return _feePercent;\r\n    }\r\n\r\n    function eleemosynary() public view returns(address, uint256) {\r\n        return (_eleemosynary, _donationPercent);\r\n    }\r\n\r\n    function _burn(address account, uint256 amount, bytes memory data, bytes memory operatorData) internal virtual override {\r\n        super._burn(account, _getReflectedAmount(amount), data, operatorData);\r\n        _totalSupply -= amount;\r\n    }\r\n\r\n    function _getReflectedAmount(uint256 amount) internal view returns(uint256) {\r\n        return amount * _getRate();\r\n    }\r\n\r\n    function _getStandardAmount(uint256 reflectedAmount) internal view returns(uint256) {\r\n        return reflectedAmount / _getRate();\r\n    }\r\n\r\n    function _getRate() private view returns(uint256) {\r\n        return super.totalSupply() / totalSupply();\r\n    }\r\n\r\n    event FeePercentChanged(uint256 percent);\r\n\r\n    event EleemosynaryChanged(address indexed account, uint256 percent);\r\n}\r\n",
  "sourcePath": "C:\\Users\\micro\\OneDrive - X-treem Software\\Development\\Projects\\Blockchain\\Schnoodle\\contracts\\imports\\SchnoodleV5Base.sol",
  "compiler": {
    "name": "solc",
    "version": "0.8.9+commit.e5eed63a.Emscripten.clang"
  },
  "schemaVersion": "3.4.3",
  "updatedAt": "2021-10-16T22:52:37.961Z",
  "devdoc": {
    "kind": "dev",
    "methods": {
      "allowance(address,address)": {
        "details": "See {IERC20-allowance}. Note that operator and allowance concepts are orthogonal: operators may not have allowance, and accounts with allowance may not be operators themselves."
      },
      "approve(address,uint256)": {
        "details": "See {IERC20-approve}. Note that accounts cannot have allowance issued by their operators."
      },
      "authorizeOperator(address)": {
        "details": "See {IERC777-authorizeOperator}."
      },
      "burn(uint256,bytes)": {
        "details": "See {IERC777-burn}. Also emits a {IERC20-Transfer} event for ERC20 compatibility."
      },
      "decimals()": {
        "details": "See {ERC20-decimals}. Always returns 18, as per the [ERC777 EIP](https://eips.ethereum.org/EIPS/eip-777#backward-compatibility)."
      },
      "defaultOperators()": {
        "details": "See {IERC777-defaultOperators}."
      },
      "granularity()": {
        "details": "See {IERC777-granularity}. This implementation always returns `1`."
      },
      "isOperatorFor(address,address)": {
        "details": "See {IERC777-isOperatorFor}."
      },
      "name()": {
        "details": "See {IERC777-name}."
      },
      "operatorBurn(address,uint256,bytes,bytes)": {
        "details": "See {IERC777-operatorBurn}. Emits {Burned} and {IERC20-Transfer} events."
      },
      "operatorSend(address,address,uint256,bytes,bytes)": {
        "details": "See {IERC777-operatorSend}. Emits {Sent} and {IERC20-Transfer} events."
      },
      "owner()": {
        "details": "Returns the address of the current owner."
      },
      "renounceOwnership()": {
        "details": "Leaves the contract without owner. It will not be possible to call `onlyOwner` functions anymore. Can only be called by the current owner. NOTE: Renouncing ownership will leave the contract without an owner, thereby removing any functionality that is only available to the owner."
      },
      "revokeOperator(address)": {
        "details": "See {IERC777-revokeOperator}."
      },
      "send(address,uint256,bytes)": {
        "details": "See {IERC777-send}. Also emits a {IERC20-Transfer} event for ERC20 compatibility."
      },
      "symbol()": {
        "details": "See {IERC777-symbol}."
      },
      "totalSupply()": {
        "details": "See {IERC777-totalSupply}."
      },
      "transfer(address,uint256)": {
        "details": "See {IERC20-transfer}. Unlike `send`, `recipient` is _not_ required to implement the {IERC777Recipient} interface if it is a contract. Also emits a {Sent} event."
      },
      "transferOwnership(address)": {
        "details": "Transfers ownership of the contract to a new account (`newOwner`). Can only be called by the current owner."
      }
    },
    "version": 1
  },
  "userdoc": {
    "kind": "user",
    "methods": {},
    "version": 1
  }
}