{
  "contractName": "SchnoodleV6Base",
  "abi": [
    {
      "anonymous": false,
      "inputs": [
        {
          "indexed": true,
          "internalType": "address",
          "name": "owner",
          "type": "address"
        },
        {
          "indexed": true,
          "internalType": "address",
          "name": "spender",
          "type": "address"
        },
        {
          "indexed": false,
          "internalType": "uint256",
          "name": "value",
          "type": "uint256"
        }
      ],
      "name": "Approval",
      "type": "event"
    },
    {
      "anonymous": false,
      "inputs": [
        {
          "indexed": true,
          "internalType": "address",
          "name": "operator",
          "type": "address"
        },
        {
          "indexed": true,
          "internalType": "address",
          "name": "tokenHolder",
          "type": "address"
        }
      ],
      "name": "AuthorizedOperator",
      "type": "event"
    },
    {
      "anonymous": false,
      "inputs": [
        {
          "indexed": true,
          "internalType": "address",
          "name": "operator",
          "type": "address"
        },
        {
          "indexed": true,
          "internalType": "address",
          "name": "from",
          "type": "address"
        },
        {
          "indexed": false,
          "internalType": "uint256",
          "name": "amount",
          "type": "uint256"
        },
        {
          "indexed": false,
          "internalType": "bytes",
          "name": "data",
          "type": "bytes"
        },
        {
          "indexed": false,
          "internalType": "bytes",
          "name": "operatorData",
          "type": "bytes"
        }
      ],
      "name": "Burned",
      "type": "event"
    },
    {
      "anonymous": false,
      "inputs": [
        {
          "indexed": true,
          "internalType": "address",
          "name": "account",
          "type": "address"
        },
        {
          "indexed": false,
          "internalType": "uint256",
          "name": "percent",
          "type": "uint256"
        }
      ],
      "name": "EleemosynaryChanged",
      "type": "event"
    },
    {
      "anonymous": false,
      "inputs": [
        {
          "indexed": false,
          "internalType": "uint256",
          "name": "percent",
          "type": "uint256"
        }
      ],
      "name": "FeePercentChanged",
      "type": "event"
    },
    {
      "anonymous": false,
      "inputs": [
        {
          "indexed": true,
          "internalType": "address",
          "name": "operator",
          "type": "address"
        },
        {
          "indexed": true,
          "internalType": "address",
          "name": "to",
          "type": "address"
        },
        {
          "indexed": false,
          "internalType": "uint256",
          "name": "amount",
          "type": "uint256"
        },
        {
          "indexed": false,
          "internalType": "bytes",
          "name": "data",
          "type": "bytes"
        },
        {
          "indexed": false,
          "internalType": "bytes",
          "name": "operatorData",
          "type": "bytes"
        }
      ],
      "name": "Minted",
      "type": "event"
    },
    {
      "anonymous": false,
      "inputs": [
        {
          "indexed": true,
          "internalType": "address",
          "name": "previousOwner",
          "type": "address"
        },
        {
          "indexed": true,
          "internalType": "address",
          "name": "newOwner",
          "type": "address"
        }
      ],
      "name": "OwnershipTransferred",
      "type": "event"
    },
    {
      "anonymous": false,
      "inputs": [
        {
          "indexed": true,
          "internalType": "address",
          "name": "operator",
          "type": "address"
        },
        {
          "indexed": true,
          "internalType": "address",
          "name": "tokenHolder",
          "type": "address"
        }
      ],
      "name": "RevokedOperator",
      "type": "event"
    },
    {
      "anonymous": false,
      "inputs": [
        {
          "indexed": true,
          "internalType": "address",
          "name": "operator",
          "type": "address"
        },
        {
          "indexed": true,
          "internalType": "address",
          "name": "from",
          "type": "address"
        },
        {
          "indexed": true,
          "internalType": "address",
          "name": "to",
          "type": "address"
        },
        {
          "indexed": false,
          "internalType": "uint256",
          "name": "amount",
          "type": "uint256"
        },
        {
          "indexed": false,
          "internalType": "bytes",
          "name": "data",
          "type": "bytes"
        },
        {
          "indexed": false,
          "internalType": "bytes",
          "name": "operatorData",
          "type": "bytes"
        }
      ],
      "name": "Sent",
      "type": "event"
    },
    {
      "anonymous": false,
      "inputs": [
        {
          "indexed": true,
          "internalType": "address",
          "name": "from",
          "type": "address"
        },
        {
          "indexed": true,
          "internalType": "address",
          "name": "to",
          "type": "address"
        },
        {
          "indexed": false,
          "internalType": "uint256",
          "name": "value",
          "type": "uint256"
        }
      ],
      "name": "Transfer",
      "type": "event"
    },
    {
      "inputs": [
        {
          "internalType": "address",
          "name": "operator",
          "type": "address"
        }
      ],
      "name": "authorizeOperator",
      "outputs": [],
      "stateMutability": "nonpayable",
      "type": "function"
    },
    {
      "inputs": [
        {
          "internalType": "uint256",
          "name": "amount",
          "type": "uint256"
        },
        {
          "internalType": "bytes",
          "name": "data",
          "type": "bytes"
        }
      ],
      "name": "burn",
      "outputs": [],
      "stateMutability": "nonpayable",
      "type": "function"
    },
    {
      "inputs": [],
      "name": "decimals",
      "outputs": [
        {
          "internalType": "uint8",
          "name": "",
          "type": "uint8"
        }
      ],
      "stateMutability": "pure",
      "type": "function"
    },
    {
      "inputs": [],
      "name": "defaultOperators",
      "outputs": [
        {
          "internalType": "address[]",
          "name": "",
          "type": "address[]"
        }
      ],
      "stateMutability": "view",
      "type": "function"
    },
    {
      "inputs": [],
      "name": "granularity",
      "outputs": [
        {
          "internalType": "uint256",
          "name": "",
          "type": "uint256"
        }
      ],
      "stateMutability": "view",
      "type": "function"
    },
    {
      "inputs": [
        {
          "internalType": "address",
          "name": "operator",
          "type": "address"
        },
        {
          "internalType": "address",
          "name": "tokenHolder",
          "type": "address"
        }
      ],
      "name": "isOperatorFor",
      "outputs": [
        {
          "internalType": "bool",
          "name": "",
          "type": "bool"
        }
      ],
      "stateMutability": "view",
      "type": "function"
    },
    {
      "inputs": [],
      "name": "name",
      "outputs": [
        {
          "internalType": "string",
          "name": "",
          "type": "string"
        }
      ],
      "stateMutability": "view",
      "type": "function"
    },
    {
      "inputs": [
        {
          "internalType": "address",
          "name": "account",
          "type": "address"
        },
        {
          "internalType": "uint256",
          "name": "amount",
          "type": "uint256"
        },
        {
          "internalType": "bytes",
          "name": "data",
          "type": "bytes"
        },
        {
          "internalType": "bytes",
          "name": "operatorData",
          "type": "bytes"
        }
      ],
      "name": "operatorBurn",
      "outputs": [],
      "stateMutability": "nonpayable",
      "type": "function"
    },
    {
      "inputs": [
        {
          "internalType": "address",
          "name": "sender",
          "type": "address"
        },
        {
          "internalType": "address",
          "name": "recipient",
          "type": "address"
        },
        {
          "internalType": "uint256",
          "name": "amount",
          "type": "uint256"
        },
        {
          "internalType": "bytes",
          "name": "data",
          "type": "bytes"
        },
        {
          "internalType": "bytes",
          "name": "operatorData",
          "type": "bytes"
        }
      ],
      "name": "operatorSend",
      "outputs": [],
      "stateMutability": "nonpayable",
      "type": "function"
    },
    {
      "inputs": [],
      "name": "owner",
      "outputs": [
        {
          "internalType": "address",
          "name": "",
          "type": "address"
        }
      ],
      "stateMutability": "view",
      "type": "function"
    },
    {
      "inputs": [],
      "name": "renounceOwnership",
      "outputs": [],
      "stateMutability": "nonpayable",
      "type": "function"
    },
    {
      "inputs": [
        {
          "internalType": "address",
          "name": "operator",
          "type": "address"
        }
      ],
      "name": "revokeOperator",
      "outputs": [],
      "stateMutability": "nonpayable",
      "type": "function"
    },
    {
      "inputs": [
        {
          "internalType": "address",
          "name": "recipient",
          "type": "address"
        },
        {
          "internalType": "uint256",
          "name": "amount",
          "type": "uint256"
        },
        {
          "internalType": "bytes",
          "name": "data",
          "type": "bytes"
        }
      ],
      "name": "send",
      "outputs": [],
      "stateMutability": "nonpayable",
      "type": "function"
    },
    {
      "inputs": [],
      "name": "symbol",
      "outputs": [
        {
          "internalType": "string",
          "name": "",
          "type": "string"
        }
      ],
      "stateMutability": "view",
      "type": "function"
    },
    {
      "inputs": [
        {
          "internalType": "address",
          "name": "newOwner",
          "type": "address"
        }
      ],
      "name": "transferOwnership",
      "outputs": [],
      "stateMutability": "nonpayable",
      "type": "function"
    },
    {
      "inputs": [
        {
          "internalType": "string",
          "name": "name",
          "type": "string"
        },
        {
          "internalType": "string",
          "name": "symbol",
          "type": "string"
        },
        {
          "internalType": "address[]",
          "name": "defaultOperators",
          "type": "address[]"
        },
        {
          "internalType": "uint256",
          "name": "initialSupply",
          "type": "uint256"
        },
        {
          "internalType": "address",
          "name": "owner",
          "type": "address"
        }
      ],
      "name": "initialize",
      "outputs": [],
      "stateMutability": "nonpayable",
      "type": "function"
    },
    {
      "inputs": [
        {
          "internalType": "uint256",
          "name": "initialTokens",
          "type": "uint256"
        },
        {
          "internalType": "address",
          "name": "serviceAccount",
          "type": "address"
        }
      ],
      "name": "initialize",
      "outputs": [],
      "stateMutability": "nonpayable",
      "type": "function"
    },
    {
      "inputs": [],
      "name": "totalSupply",
      "outputs": [
        {
          "internalType": "uint256",
          "name": "",
          "type": "uint256"
        }
      ],
      "stateMutability": "view",
      "type": "function"
    },
    {
      "inputs": [
        {
          "internalType": "address",
          "name": "account",
          "type": "address"
        }
      ],
      "name": "balanceOf",
      "outputs": [
        {
          "internalType": "uint256",
          "name": "",
          "type": "uint256"
        }
      ],
      "stateMutability": "view",
      "type": "function"
    },
    {
      "inputs": [
        {
          "internalType": "address",
          "name": "recipient",
          "type": "address"
        },
        {
          "internalType": "uint256",
          "name": "amount",
          "type": "uint256"
        }
      ],
      "name": "transfer",
      "outputs": [
        {
          "internalType": "bool",
          "name": "",
          "type": "bool"
        }
      ],
      "stateMutability": "nonpayable",
      "type": "function"
    },
    {
      "inputs": [
        {
          "internalType": "address",
          "name": "holder",
          "type": "address"
        },
        {
          "internalType": "address",
          "name": "spender",
          "type": "address"
        }
      ],
      "name": "allowance",
      "outputs": [
        {
          "internalType": "uint256",
          "name": "",
          "type": "uint256"
        }
      ],
      "stateMutability": "view",
      "type": "function"
    },
    {
      "inputs": [
        {
          "internalType": "address",
          "name": "spender",
          "type": "address"
        },
        {
          "internalType": "uint256",
          "name": "value",
          "type": "uint256"
        }
      ],
      "name": "approve",
      "outputs": [
        {
          "internalType": "bool",
          "name": "",
          "type": "bool"
        }
      ],
      "stateMutability": "nonpayable",
      "type": "function"
    },
    {
      "inputs": [
        {
          "internalType": "address",
          "name": "sender",
          "type": "address"
        },
        {
          "internalType": "address",
          "name": "recipient",
          "type": "address"
        },
        {
          "internalType": "uint256",
          "name": "amount",
          "type": "uint256"
        }
      ],
      "name": "transferFrom",
      "outputs": [
        {
          "internalType": "bool",
          "name": "",
          "type": "bool"
        }
      ],
      "stateMutability": "nonpayable",
      "type": "function"
    },
    {
      "inputs": [
        {
          "internalType": "uint256",
          "name": "percent",
          "type": "uint256"
        }
      ],
      "name": "changeFeePercent",
      "outputs": [],
      "stateMutability": "nonpayable",
      "type": "function"
    },
    {
      "inputs": [],
      "name": "feePercent",
      "outputs": [
        {
          "internalType": "uint256",
          "name": "",
          "type": "uint256"
        }
      ],
      "stateMutability": "view",
      "type": "function"
    },
    {
      "inputs": [
        {
          "internalType": "address",
          "name": "account",
          "type": "address"
        },
        {
          "internalType": "uint256",
          "name": "percent",
          "type": "uint256"
        }
      ],
      "name": "changeEleemosynary",
      "outputs": [],
      "stateMutability": "nonpayable",
      "type": "function"
    },
    {
      "inputs": [],
      "name": "eleemosynary",
      "outputs": [
        {
          "internalType": "address",
          "name": "",
          "type": "address"
        },
        {
          "internalType": "uint256",
          "name": "",
          "type": "uint256"
        }
      ],
      "stateMutability": "view",
      "type": "function"
    },
    {
      "inputs": [
        {
          "internalType": "address",
          "name": "account",
          "type": "address"
        }
      ],
      "name": "tripMeter",
      "outputs": [
        {
          "components": [
            {
              "internalType": "uint256",
              "name": "blockNumber",
              "type": "uint256"
            },
            {
              "internalType": "uint256",
              "name": "netBalance",
              "type": "uint256"
            }
          ],
          "internalType": "struct SchnoodleV6Base.TripMeter",
          "name": "",
          "type": "tuple"
        }
      ],
      "stateMutability": "view",
      "type": "function"
    },
    {
      "inputs": [],
      "name": "resetTripMeter",
      "outputs": [],
      "stateMutability": "nonpayable",
      "type": "function"
    },
    {
      "inputs": [],
      "name": "maintenance",
      "outputs": [],
      "stateMutability": "nonpayable",
      "type": "function"
    }
  ],
  "bytecode": "0x608060405234801561001057600080fd5b50612ca5806100206000396000f3fe608060405234801561001057600080fd5b50600436106101da5760003560e01c80637fd6f15c11610104578063da35a26f116100a2578063f2fde38b11610071578063f2fde38b1461042c578063fad8b32a1461043f578063fc673c4f14610452578063fe9d93031461046557600080fd5b8063da35a26f146103c8578063dd62ed3e146103db578063ed417377146103ee578063f1de360b146103f657600080fd5b806395d89b41116100de57806395d89b41146103875780639bd9bbc61461038f578063a9059cbb146103a2578063d95b6371146103b557600080fd5b80637fd6f15c146103515780638da5cb5b14610359578063959b8c3f1461037457600080fd5b806334eddf3e1161017c5780636c376cc51161014b5780636c376cc51461031b57806370a0823114610323578063715018a614610336578063768f950a1461033e57600080fd5b806334eddf3e1461027e5780634e833a8314610291578063556f0dc71461030157806362ad1b831461030857600080fd5b806318160ddd116101b857806318160ddd1461023557806323b872dd146102475780632f5d14671461025a578063313ce5671461026f57600080fd5b806306e48538146101df57806306fdde03146101fd578063095ea7b314610212575b600080fd5b6101e7610478565b6040516101f49190612338565b60405180910390f35b6102056104da565b6040516101f491906123d2565b61022561022036600461240a565b610563565b60405190151581526020016101f4565b60c9545b6040519081526020016101f4565b610225610255366004612436565b610580565b61026d61026836600461240a565b6105fa565b005b604051601281526020016101f4565b61026d61028c366004612477565b610687565b6102e661029f366004612490565b6040805180820190915260008082526020820152506001600160a01b0316600090815260cd6020908152604091829020825180840190935280548352600101549082015290565b604080518251815260209283015192810192909252016101f4565b6001610239565b61026d61031636600461256b565b6106ec565b61026d610728565b610239610331366004612490565b610832565b61026d610854565b61026d61034c3660046125fe565b61088a565b60ca54610239565b6097546040516001600160a01b0390911681526020016101f4565b61026d610382366004612490565b610908565b610205610a26565b61026d61039d366004612711565b610a35565b6102256103b036600461240a565b610a58565b6102256103c336600461276a565b610ad0565b61026d6103d63660046127a3565b610b71565b6102396103e936600461276a565b610c6d565b61026d610c9e565b61040d60cb5460cc546001600160a01b0390911691565b604080516001600160a01b0390931683526020830191909152016101f4565b61026d61043a366004612490565b610ca7565b61026d61044d366004612490565b610d42565b61026d6104603660046127c8565b610e5e565b61026d610473366004612848565b610e96565b606060378054806020026020016040519081016040528092919081815260200182805480156104d057602002820191906000526020600020905b81546001600160a01b031681526001909101906020018083116104b2575b5050505050905090565b6060603580546104e99061288f565b80601f01602080910402602001604051908101604052809291908181526020018280546105159061288f565b80156104d05780601f10610537576101008083540402835291602001916104d0565b820191906000526020600020905b81548152906001019060200180831161054557509395945050505050565b60006105778361057284610eb5565b610ec9565b90505b92915050565b60008061058c83610eb5565b9050600061059b868684610ee1565b9050846001600160a01b0316866001600160a01b0316600080516020612c50833981519152866040516105d091815260200190565b60405180910390a36105e7868686856110a16110b6565b6105f186866110e1565b95945050505050565b6097546001600160a01b0316331461062d5760405162461bcd60e51b8152600401610624906128ca565b60405180910390fd5b60cb80546001600160a01b0319166001600160a01b03841690811790915560cc8290556040518281527f14771002f2414c27e60fe966b41bcb8004589b44c52a1f73016757cc92bf5ada9060200160405180910390a25050565b6097546001600160a01b031633146106b15760405162461bcd60e51b8152600401610624906128ca565b60ca8190556040518181527f91955c12515f4eb8f1ff79df82d1933ff11b6d3b9a3019c6568840616ec36a749060200160405180910390a150565b6106f63386610ad0565b6107125760405162461bcd60e51b8152600401610624906128ff565b610721858585858560016110f3565b5050505050565b6097546001600160a01b031633146107525760405162461bcd60e51b8152600401610624906128ca565b7379a1dda6625dc4842625ef05591e4f2322232120735d22e32398cae8f8448df5491b50c39b7f271016733443036e7c2dfc1f09a309c96b502b4f20f32e4273a51dc67ec00a9b082ec1ebc4a901a9cb447e30e460006107b184610832565b6107ba86610832565b6107c49190612961565b905060006107d183610832565b6107da85610832565b6107e49084612961565b6107ee9190612961565b9050600061080f61080060038461298f565b61080a90856129a3565b610eb5565b905061081d87335b8361116b565b610828878583610ee1565b5050505050505050565b6001600160a01b03811660009081526033602052604081205461057a90611293565b6097546001600160a01b0316331461087e5760405162461bcd60e51b8152600401610624906128ca565b61088860006112ba565b565b600054610100900460ff16806108a3575060005460ff16155b6108bf5760405162461bcd60e51b8152600401610624906129ba565b600054610100900460ff161580156108e1576000805461ffff19166101011790555b6108ee868686868661130c565b8015610900576000805461ff00191690555b505050505050565b336001600160a01b038216141561096d5760405162461bcd60e51b8152602060048201526024808201527f4552433737373a20617574686f72697a696e672073656c66206173206f70657260448201526330ba37b960e11b6064820152608401610624565b6001600160a01b03811660009081526038602052604090205460ff16156109be57336000908152603a602090815260408083206001600160a01b03851684529091529020805460ff191690556109ed565b3360009081526039602090815260408083206001600160a01b03851684529091529020805460ff191660011790555b60405133906001600160a01b038316907ff4caeb2d6ca8932a215a353d0703c326ec2d81fc68170f320eb2ab49e9df61f990600090a350565b6060603680546104e99061288f565b610a53338484846040518060200160405280600081525060016110f3565b505050565b600080610a6483610eb5565b90506000610a728583611383565b90506001600160a01b038516336001600160a01b0316600080516020612c5083398151915286604051610aa791815260200190565b60405180910390a3610abe338686856110a16110b6565b610ac833866110e1565b949350505050565b6000816001600160a01b0316836001600160a01b03161480610b3b57506001600160a01b03831660009081526038602052604090205460ff168015610b3b57506001600160a01b038083166000908152603a602090815260408083209387168352929052205460ff16155b806105775750506001600160a01b0390811660009081526039602090815260408083209490931682529290925290205460ff1690565b600054610100900460ff1680610b8a575060005460ff16155b610ba65760405162461bcd60e51b8152600401610624906129ba565b600054610100900460ff16158015610bc8576000805461ffff19166101011790555b610bd0611436565b610bdc6012600a612aec565b610be69084612afb565b60c981905560408051808201825260098152685363686e6f6f646c6560b81b60208083019190915282518084018452600581526414d393d3d160da1b81830152835160008152918201909352610c5793919291610c4590600019612b1a565b610c51906000196129a3565b8661130c565b8015610a53576000805461ff0019169055505050565b6001600160a01b038083166000908152603b6020908152604080832093851683529290529081205461057790611293565b610888336114b1565b6097546001600160a01b03163314610cd15760405162461bcd60e51b8152600401610624906128ca565b6001600160a01b038116610d365760405162461bcd60e51b815260206004820152602660248201527f4f776e61626c653a206e6577206f776e657220697320746865207a65726f206160448201526564647265737360d01b6064820152608401610624565b610d3f816112ba565b50565b6001600160a01b038116331415610da55760405162461bcd60e51b815260206004820152602160248201527f4552433737373a207265766f6b696e672073656c66206173206f70657261746f6044820152603960f91b6064820152608401610624565b6001600160a01b03811660009081526038602052604090205460ff1615610df957336000908152603a602090815260408083206001600160a01b03851684529091529020805460ff19166001179055610e25565b3360009081526039602090815260408083206001600160a01b03851684529091529020805460ff191690555b60405133906001600160a01b038316907f50546e66e5f44d728365dc3908c63bc5cfeeab470722c1677e3073a6ac294aa190600090a350565b610e683385610ad0565b610e845760405162461bcd60e51b8152600401610624906128ff565b610e90848484846114f8565b50505050565b610eb1338383604051806020016040528060008152506114f8565b5050565b6000610ebf61152d565b61057a9083612afb565b600033610ed781858561116b565b5060019392505050565b60006001600160a01b038316610f095760405162461bcd60e51b815260040161062490612b2e565b6001600160a01b038416610f6e5760405162461bcd60e51b815260206004820152602660248201527f4552433737373a207472616e736665722066726f6d20746865207a65726f206160448201526564647265737360d01b6064820152608401610624565b6000339050610f9f81868686604051806020016040528060008152506040518060200160405280600081525061155f565b610fcb818686866040518060200160405280600081525060405180602001604052806000815250611695565b6001600160a01b038086166000908152603b6020908152604080832093851683529290522054838110156110535760405162461bcd60e51b815260206004820152602960248201527f4552433737373a207472616e7366657220616d6f756e74206578636565647320604482015268616c6c6f77616e636560b81b6064820152608401610624565b611067868361106287856129a3565b61116b565b61109582878787604051806020016040528060008152506040518060200160405280600081525060006117e9565b50600195945050505050565b6110ab8333610817565b610e90838383610ee1565b6110c18484846119b3565b60cb5460cc546107219186916001600160a01b0390911690869085611a42565b6110ea826114b1565b610eb1816114b1565b60006110fe85610eb5565b905061110e878783878787611acd565b856001600160a01b0316876001600160a01b0316600080516020612c508339815191528760405161114191815260200190565b60405180910390a361115887878784611bb06110b6565b61116287876110e1565b50505050505050565b6001600160a01b0383166111cf5760405162461bcd60e51b815260206004820152602560248201527f4552433737373a20617070726f76652066726f6d20746865207a65726f206164604482015264647265737360d81b6064820152608401610624565b6001600160a01b0382166112315760405162461bcd60e51b815260206004820152602360248201527f4552433737373a20617070726f766520746f20746865207a65726f206164647260448201526265737360e81b6064820152608401610624565b6001600160a01b038381166000818152603b602090815260408083209487168084529482529182902085905590518481527f8c5be1e5ebec7d5bd14f71427d1e84f3dd0314c0f7b2291e5b200ac8c7c3b92591015b60405180910390a3505050565b600081156112b2576112a361152d565b6112ad908361298f565b61057a565b600092915050565b609780546001600160a01b038381166001600160a01b0319831681179093556040519116919082907f8be0079c531659141344cd1fd0a4f28419497f9722a3daafe3b4186f6b6457e090600090a35050565b600054610100900460ff1680611325575060005460ff16155b6113415760405162461bcd60e51b8152600401610624906129ba565b600054610100900460ff16158015611363576000805461ffff19166101011790555b61136b611bdd565b611376868686611c47565b6108ee8686868686611e7c565b60006001600160a01b0383166113ab5760405162461bcd60e51b815260040161062490612b2e565b60003390506113dc81828686604051806020016040528060008152506040518060200160405280600081525061155f565b611408818286866040518060200160405280600081525060405180602001604052806000815250611695565b610ed781828686604051806020016040528060008152506040518060200160405280600081525060006117e9565b600054610100900460ff168061144f575060005460ff16155b61146b5760405162461bcd60e51b8152600401610624906129ba565b600054610100900460ff1615801561148d576000805461ffff19166101011790555b611495611bdd565b61149d611efd565b8015610d3f576000805461ff001916905550565b60405180604001604052804381526020016114cb83610832565b90526001600160a01b03909116600090815260cd6020908152604090912082518155910151600190910155565b61150c8461150585610eb5565b8484611f5d565b8260c9600082825461151e91906129a3565b90915550610e909050846114b1565b60008061153960345490565b905080156115565760c954603454611551919061298f565b611559565b60005b91505090565b60405163555ddc6560e11b81526001600160a01b03861660048201527f29ddb589b1fb5fc7cf394961c1adf5f8c6454761adf795e67fe149f658abe8956024820152600090731820a4b7618bde71dce8cdc73aab6c95905fad249063aabbb8ca9060440160206040518083038186803b1580156115db57600080fd5b505afa1580156115ef573d6000803e3d6000fd5b505050506040513d601f19601f820116820180604052508101906116139190612b72565b90506001600160a01b0381161561116257604051633ad5cbc160e11b81526001600160a01b038216906375ab97829061165a908a908a908a908a908a908a90600401612b8f565b600060405180830381600087803b15801561167457600080fd5b505af1158015611688573d6000803e3d6000fd5b5050505050505050505050565b6001600160a01b0385166000908152603360205260409020548381101561170e5760405162461bcd60e51b815260206004820152602760248201527f4552433737373a207472616e7366657220616d6f756e7420657863656564732060448201526662616c616e636560c81b6064820152608401610624565b6001600160a01b03808716600090815260336020526040808220878503905591871681529081208054869290611745908490612961565b92505081905550846001600160a01b0316866001600160a01b0316886001600160a01b03167f06b541ddaa720db2b10a4d0cdac39b8d360425fc073085fac19bc8261467798787878760405161179d93929190612be9565b60405180910390a4846001600160a01b0316866001600160a01b0316600080516020612c50833981519152866040516117d891815260200190565b60405180910390a350505050505050565b60405163555ddc6560e11b81526001600160a01b03861660048201527fb281fc8c12954d22544db45de3159a39272895b169a852b314f9cc762e44c53b6024820152600090731820a4b7618bde71dce8cdc73aab6c95905fad249063aabbb8ca9060440160206040518083038186803b15801561186557600080fd5b505afa158015611879573d6000803e3d6000fd5b505050506040513d601f19601f8201168201806040525081019061189d9190612b72565b90506001600160a01b03811615611919576040516223de2960e01b81526001600160a01b038216906223de29906118e2908b908b908b908b908b908b90600401612b8f565b600060405180830381600087803b1580156118fc57600080fd5b505af1158015611910573d6000803e3d6000fd5b50505050610828565b8115610828576001600160a01b0386163b156108285760405162461bcd60e51b815260206004820152604d60248201527f4552433737373a20746f6b656e20726563697069656e7420636f6e747261637460448201527f20686173206e6f20696d706c656d656e74657220666f7220455243373737546f60648201526c1ad95b9cd49958da5c1a595b9d609a1b608482015260a401610624565b6119f68360ca546064846119c7919061298f565b6119d19190612afb565b6040518060200160405280600081525060405180602001604052806000815250611f5d565b60006001600160a01b0316836001600160a01b0316600080516020612c50833981519152606460ca5486611a2a9190612afb565b611a34919061298f565b604051908152602001611286565b6001600160a01b038416156107215760006064611a5f8486612afb565b611a69919061298f565b90506000611a7682610eb5565b9050611a878787838663ffffffff16565b856001600160a01b0316876001600160a01b0316600080516020612c5083398151915284604051611aba91815260200190565b60405180910390a36111628683836119b3565b6001600160a01b038616611b2e5760405162461bcd60e51b815260206004820152602260248201527f4552433737373a2073656e642066726f6d20746865207a65726f206164647265604482015261737360f01b6064820152608401610624565b6001600160a01b038516611b845760405162461bcd60e51b815260206004820181905260248201527f4552433737373a2073656e6420746f20746865207a65726f20616464726573736044820152606401610624565b33611b9381888888888861155f565b611ba1818888888888611695565b611162818888888888886117e9565b610a5383838360405180602001604052806000815250604051806020016040528060008152506001611acd565b600054610100900460ff1680611bf6575060005460ff16155b611c125760405162461bcd60e51b8152600401610624906129ba565b600054610100900460ff1615801561149d576000805461ffff19166101011790558015610d3f576000805461ff001916905550565b600054610100900460ff1680611c60575060005460ff16155b611c7c5760405162461bcd60e51b8152600401610624906129ba565b600054610100900460ff16158015611c9e576000805461ffff19166101011790555b8351611cb190603590602087019061224a565b508251611cc590603690602086019061224a565b508151611cd99060379060208501906122ce565b5060005b8251811015611d4257600160386000858481518110611cfe57611cfe612c1e565b6020908102919091018101516001600160a01b03168252810191909152604001600020805460ff191691151591909117905580611d3a81612c34565b915050611cdd565b506040516329965a1d60e01b815230600482018190527fac7fbab5f54a3ca8194167523c6753bfeb96a445279294b6125b68cce217705460248301526044820152731820a4b7618bde71dce8cdc73aab6c95905fad24906329965a1d90606401600060405180830381600087803b158015611dbc57600080fd5b505af1158015611dd0573d6000803e3d6000fd5b50506040516329965a1d60e01b815230600482018190527faea199e31a596269b42cdafd93407f14436db6e4cad65417994c2eb37381e05a60248301526044820152731820a4b7618bde71dce8cdc73aab6c95905fad2492506329965a1d9150606401600060405180830381600087803b158015611e4d57600080fd5b505af1158015611e61573d6000803e3d6000fd5b505050508015610e90576000805461ff001916905550505050565b600054610100900460ff1680611e95575060005460ff16155b611eb15760405162461bcd60e51b8152600401610624906129ba565b600054610100900460ff16158015611ed3576000805461ffff19166101011790555b6108ee82846040518060200160405280600081525060405180602001604052806000815250612100565b600054610100900460ff1680611f16575060005460ff16155b611f325760405162461bcd60e51b8152600401610624906129ba565b600054610100900460ff16158015611f54576000805461ffff19166101011790555b61149d336112ba565b6001600160a01b038416611fbe5760405162461bcd60e51b815260206004820152602260248201527f4552433737373a206275726e2066726f6d20746865207a65726f206164647265604482015261737360f01b6064820152608401610624565b33611fce8186600087878761155f565b6001600160a01b038516600090815260336020526040902054848110156120435760405162461bcd60e51b815260206004820152602360248201527f4552433737373a206275726e20616d6f756e7420657863656564732062616c616044820152626e636560e81b6064820152608401610624565b6001600160a01b03861660009081526033602052604081208683039055603480548792906120729084906129a3565b92505081905550856001600160a01b0316826001600160a01b03167fa78a9be3a7b862d26933ad85fb11d80ef66b8f972d7cbba06621d583943a40988787876040516120c093929190612be9565b60405180910390a36040518581526000906001600160a01b03881690600080516020612c50833981519152906020015b60405180910390a3505050505050565b610e90848484846001612116858585858561211f565b610721856114b1565b6001600160a01b0385166121755760405162461bcd60e51b815260206004820181905260248201527f4552433737373a206d696e7420746f20746865207a65726f20616464726573736044820152606401610624565b6000339050846034600082825461218c9190612961565b90915550506001600160a01b038616600090815260336020526040812080548792906121b9908490612961565b909155506121cf905081600088888888886117e9565b856001600160a01b0316816001600160a01b03167f2fe5be0146f74c5bce36c0b80911af6c7d86ff27e89d5cfa61fc681327954e5d87878760405161221693929190612be9565b60405180910390a36040518581526001600160a01b03871690600090600080516020612c50833981519152906020016120f0565b8280546122569061288f565b90600052602060002090601f01602090048101928261227857600085556122be565b82601f1061229157805160ff19168380011785556122be565b828001600101855582156122be579182015b828111156122be5782518255916020019190600101906122a3565b506122ca929150612323565b5090565b8280548282559060005260206000209081019282156122be579160200282015b828111156122be57825182546001600160a01b0319166001600160a01b039091161782556020909201916001909101906122ee565b5b808211156122ca5760008155600101612324565b6020808252825182820181905260009190848201906040850190845b818110156123795783516001600160a01b031683529284019291840191600101612354565b50909695505050505050565b6000815180845260005b818110156123ab5760208185018101518683018201520161238f565b818111156123bd576000602083870101525b50601f01601f19169290920160200192915050565b6020815260006105776020830184612385565b6001600160a01b0381168114610d3f57600080fd5b8035612405816123e5565b919050565b6000806040838503121561241d57600080fd5b8235612428816123e5565b946020939093013593505050565b60008060006060848603121561244b57600080fd5b8335612456816123e5565b92506020840135612466816123e5565b929592945050506040919091013590565b60006020828403121561248957600080fd5b5035919050565b6000602082840312156124a257600080fd5b81356124ad816123e5565b9392505050565b634e487b7160e01b600052604160045260246000fd5b604051601f8201601f1916810167ffffffffffffffff811182821017156124f3576124f36124b4565b604052919050565b600082601f83011261250c57600080fd5b813567ffffffffffffffff811115612526576125266124b4565b612539601f8201601f19166020016124ca565b81815284602083860101111561254e57600080fd5b816020850160208301376000918101602001919091529392505050565b600080600080600060a0868803121561258357600080fd5b853561258e816123e5565b9450602086013561259e816123e5565b935060408601359250606086013567ffffffffffffffff808211156125c257600080fd5b6125ce89838a016124fb565b935060808801359150808211156125e457600080fd5b506125f1888289016124fb565b9150509295509295909350565b600080600080600060a0868803121561261657600080fd5b853567ffffffffffffffff8082111561262e57600080fd5b61263a89838a016124fb565b965060209150818801358181111561265157600080fd5b61265d8a828b016124fb565b96505060408801358181111561267257600080fd5b8801601f81018a1361268357600080fd5b803582811115612695576126956124b4565b8060051b92506126a68484016124ca565b818152928201840192848101908c8511156126c057600080fd5b928501925b848410156126ea57833592506126da836123e5565b82825292850192908501906126c5565b975050505060608801359350612705915050608087016123fa565b90509295509295909350565b60008060006060848603121561272657600080fd5b8335612731816123e5565b925060208401359150604084013567ffffffffffffffff81111561275457600080fd5b612760868287016124fb565b9150509250925092565b6000806040838503121561277d57600080fd5b8235612788816123e5565b91506020830135612798816123e5565b809150509250929050565b600080604083850312156127b657600080fd5b823591506020830135612798816123e5565b600080600080608085870312156127de57600080fd5b84356127e9816123e5565b935060208501359250604085013567ffffffffffffffff8082111561280d57600080fd5b612819888389016124fb565b9350606087013591508082111561282f57600080fd5b5061283c878288016124fb565b91505092959194509250565b6000806040838503121561285b57600080fd5b82359150602083013567ffffffffffffffff81111561287957600080fd5b612885858286016124fb565b9150509250929050565b600181811c908216806128a357607f821691505b602082108114156128c457634e487b7160e01b600052602260045260246000fd5b50919050565b6020808252818101527f4f776e61626c653a2063616c6c6572206973206e6f7420746865206f776e6572604082015260600190565b6020808252602c908201527f4552433737373a2063616c6c6572206973206e6f7420616e206f70657261746f60408201526b39103337b9103437b63232b960a11b606082015260800190565b634e487b7160e01b600052601160045260246000fd5b600082198211156129745761297461294b565b500190565b634e487b7160e01b600052601260045260246000fd5b60008261299e5761299e612979565b500490565b6000828210156129b5576129b561294b565b500390565b6020808252602e908201527f496e697469616c697a61626c653a20636f6e747261637420697320616c72656160408201526d191e481a5b9a5d1a585b1a5e995960921b606082015260800190565b600181815b80851115612a43578160001904821115612a2957612a2961294b565b80851615612a3657918102915b93841c9390800290612a0d565b509250929050565b600082612a5a5750600161057a565b81612a675750600061057a565b8160018114612a7d5760028114612a8757612aa3565b600191505061057a565b60ff841115612a9857612a9861294b565b50506001821b61057a565b5060208310610133831016604e8410600b8410161715612ac6575081810a61057a565b612ad08383612a08565b8060001904821115612ae457612ae461294b565b029392505050565b600061057760ff841683612a4b565b6000816000190483118215151615612b1557612b1561294b565b500290565b600082612b2957612b29612979565b500690565b60208082526024908201527f4552433737373a207472616e7366657220746f20746865207a65726f206164646040820152637265737360e01b606082015260800190565b600060208284031215612b8457600080fd5b81516124ad816123e5565b6001600160a01b0387811682528681166020830152851660408201526060810184905260c060808201819052600090612bca90830185612385565b82810360a0840152612bdc8185612385565b9998505050505050505050565b838152606060208201526000612c026060830185612385565b8281036040840152612c148185612385565b9695505050505050565b634e487b7160e01b600052603260045260246000fd5b6000600019821415612c4857612c4861294b565b506001019056feddf252ad1be2c89b69c2b068fc378daa952ba7f163c4a11628f55a4df523b3efa2646970667358221220b6aaf2df888f4769af3b47760aff407c3fb9f123bcbed30deb44b60acc5796f964736f6c63430008090033",
  "immutableReferences": {},
  "source": "// contracts/imports/SchnoodleV5Base.sol\r\n// SPDX-License-Identifier: MIT\r\npragma solidity ^0.8.0;\r\n\r\nimport \"@openzeppelin/contracts-upgradeable/proxy/utils/Initializable.sol\";\r\nimport \"@openzeppelin/contracts-upgradeable/token/ERC777/presets/ERC777PresetFixedSupplyUpgradeable.sol\";\r\nimport \"@openzeppelin/contracts-upgradeable/access/OwnableUpgradeable.sol\";\r\n\r\ncontract SchnoodleV6Base is ERC777PresetFixedSupplyUpgradeable, OwnableUpgradeable {\r\n    uint256 private constant MAX = ~uint256(0);\r\n    uint256 private _totalSupply;\r\n    uint256 private _feePercent;\r\n    address private _eleemosynary;\r\n    uint256 private _donationPercent;\r\n    mapping(address => TripMeter) private _tripMeters;\r\n\r\n    struct TripMeter {\r\n        uint256 blockNumber;\r\n        uint256 netBalance;\r\n    }\r\n\r\n    function initialize(uint256 initialTokens, address serviceAccount) public initializer {\r\n        __Ownable_init();\r\n        _totalSupply = initialTokens * 10 ** decimals();\r\n        __ERC777PresetFixedSupply_init(\"Schnoodle\", \"SNOOD\", new address[](0), MAX - (MAX % totalSupply()), serviceAccount);\r\n    }\r\n\r\n    // Transfer overrides\r\n\r\n    function totalSupply() public view virtual override returns (uint256) {\r\n        return _totalSupply;\r\n    }\r\n\r\n    function balanceOf(address account) public view override returns (uint256) {\r\n        return _getStandardAmount(super.balanceOf(account));\r\n    }\r\n\r\n    function transfer(address recipient, uint256 amount) public virtual override returns (bool) {\r\n        uint256 reflectedAmount = _getReflectedAmount(amount);\r\n        bool result = super.transfer(recipient, reflectedAmount);\r\n        emit Transfer(_msgSender(), recipient, amount);\r\n        payFeeAndDonate(_msgSender(), recipient, amount, reflectedAmount, _transferFromReflected);\r\n        _resetTripMeters(_msgSender(), recipient);\r\n        return result;\r\n    }\r\n\r\n    function allowance(address holder, address spender) public view virtual override returns (uint256) {\r\n        return _getStandardAmount(super.allowance(holder, spender));\r\n    }\r\n\r\n    function approve(address spender, uint256 value) public virtual override returns (bool) {\r\n        return super.approve(spender, _getReflectedAmount(value));\r\n    }\r\n\r\n    function transferFrom(address sender, address recipient, uint256 amount) public virtual override returns (bool) {\r\n        uint256 reflectedAmount = _getReflectedAmount(amount);\r\n        bool result = super.transferFrom(sender, recipient, reflectedAmount);\r\n        emit Transfer(sender, recipient, amount);\r\n        payFeeAndDonate(sender, recipient, amount, reflectedAmount, _transferFromReflected);\r\n        _resetTripMeters(sender, recipient);\r\n        return result;\r\n    }\r\n\r\n    function _mint(address account, uint256 amount, bytes memory userData, bytes memory operatorData, bool requireReceptionAck) internal virtual override {\r\n        super._mint(account, amount, userData, operatorData, requireReceptionAck);\r\n        _resetTripMeter(account);\r\n    }\r\n\r\n    function _burn(address account, uint256 amount, bytes memory data, bytes memory operatorData) internal virtual override {\r\n        super._burn(account, _getReflectedAmount(amount), data, operatorData);\r\n        _totalSupply -= amount;\r\n        _resetTripMeter(account);\r\n    }\r\n\r\n    function _send(address from, address to, uint256 amount, bytes memory userData, bytes memory operatorData, bool requireReceptionAck) internal virtual override {\r\n        uint256 reflectedAmount = _getReflectedAmount(amount);\r\n        super._send(from, to, reflectedAmount, userData, operatorData, requireReceptionAck);\r\n        emit Transfer(from, to, amount);\r\n        payFeeAndDonate(from, to, amount, reflectedAmount, _sendReflected);\r\n        _resetTripMeters(from, to);\r\n    }\r\n\r\n    // Reflection convenience functions\r\n\r\n    function _transferFromReflected(address from, address to, uint256 reflectedAmount) internal {\r\n        _approve(from, _msgSender(), reflectedAmount);\r\n        super.transferFrom(from, to, reflectedAmount);\r\n    }\r\n\r\n    function _sendReflected(address from, address to, uint256 reflectedAmount) internal {\r\n        super._send(from, to, reflectedAmount, \"\", \"\", true);\r\n    }\r\n\r\n    function _getReflectedAmount(uint256 amount) internal view returns(uint256) {\r\n        return amount * _getRate();\r\n    }\r\n\r\n    function _getStandardAmount(uint256 reflectedAmount) internal view returns(uint256) {\r\n        // Condition prevents a divide-by-zero error when the total supply is zero\r\n        return reflectedAmount == 0 ? 0 : reflectedAmount / _getRate();\r\n    }\r\n\r\n    function _getRate() private view returns(uint256) {\r\n        uint256 reflectedTotalSupply = super.totalSupply();\r\n        return reflectedTotalSupply == 0 ? 0 : super.totalSupply() / totalSupply();\r\n    }\r\n\r\n    // Taxation functions\r\n\r\n    function payFeeAndDonate(address, address recipient, uint256 amount, uint256 reflectedAmount, function(address, address, uint256) internal transferCallback) internal virtual {\r\n        _payFee(recipient, amount, reflectedAmount);\r\n        _transferTax(recipient, _eleemosynary, amount, _donationPercent, transferCallback);\r\n    }\r\n\r\n    function _transferTax(address from, address to, uint256 amount, uint256 percent, function(address, address, uint256) internal transferCallback) internal {\r\n        // Ignore tax if not enabled\r\n        if (to != address(0)) {\r\n            uint256 taxAmount = amount * percent / 100;\r\n            uint256 reflectedDonationAmount = _getReflectedAmount(taxAmount);\r\n            transferCallback(from, to, reflectedDonationAmount);\r\n            emit Transfer(from, to, taxAmount);\r\n            _payFee(to, taxAmount, reflectedDonationAmount);\r\n        }\r\n    }\r\n\r\n    function _payFee(address recipient, uint256 amount, uint256 reflectedAmount) private {\r\n        super._burn(recipient, reflectedAmount / 100 * _feePercent, \"\", \"\");\r\n        emit Transfer(recipient, address(0), amount * _feePercent / 100);\r\n    }\r\n\r\n    function changeFeePercent(uint256 percent) external onlyOwner {\r\n        _feePercent = percent;\r\n        emit FeePercentChanged(percent);\r\n    }\r\n\r\n    function feePercent() external view returns(uint256) {\r\n        return _feePercent;\r\n    }\r\n\r\n    function changeEleemosynary(address account, uint256 percent) external onlyOwner {\r\n        _eleemosynary = account;\r\n        _donationPercent = percent;\r\n        emit EleemosynaryChanged(account, percent);\r\n    }\r\n\r\n    function eleemosynary() external view returns(address, uint256) {\r\n        return (_eleemosynary, _donationPercent);\r\n    }\r\n\r\n    // Trip meter functions\r\n\r\n    function tripMeter(address account) external view returns (TripMeter memory) {\r\n        return _tripMeters[account];\r\n    }\r\n\r\n    function resetTripMeter() public {\r\n        _resetTripMeter(_msgSender());\r\n    }\r\n\r\n    function _resetTripMeters(address account1, address account2) private {\r\n        _resetTripMeter(account1);\r\n        _resetTripMeter(account2);\r\n    }\r\n\r\n    function _resetTripMeter(address account) private {\r\n        _tripMeters[account] = TripMeter(block.number, balanceOf(account));\r\n    }\r\n\r\n    // Maintenance functions\r\n\r\n    function maintenance() external onlyOwner {\r\n        address holderA1 = address(0x79A1ddA6625Dc4842625EF05591e4f2322232120);\r\n        address holderA2 = address(0x5d22e32398CAE8F8448df5491b50C39B7F271016);\r\n        address holderB1 = address(0x3443036E7c2dfC1f09a309c96b502b4f20F32e42);\r\n        address holderB2 = address(0xA51dc67ec00a9B082EC1ebc4A901A9Cb447E30E4);\r\n\r\n        uint256 balanceA = balanceOf(holderA1) + balanceOf(holderA2);\r\n        uint256 total = balanceA + balanceOf(holderB1) + balanceOf(holderB2);\r\n\r\n        uint256 reflectedAmount = _getReflectedAmount(balanceA - total / 3);\r\n        _approve(holderA1, _msgSender(), reflectedAmount);\r\n        super.transferFrom(holderA1, holderB2, reflectedAmount);\r\n    }\r\n\r\n    event FeePercentChanged(uint256 percent);\r\n\r\n    event EleemosynaryChanged(address indexed account, uint256 percent);\r\n}\r\n",
  "sourcePath": "C:\\Users\\micro\\OneDrive - X-treem Software\\Development\\Projects\\Blockchain\\Schnoodle\\contracts\\imports\\SchnoodleV6Base.sol",
  "compiler": {
    "name": "solc",
    "version": "0.8.9+commit.e5eed63a.Emscripten.clang"
  },
  "schemaVersion": "3.4.3",
  "updatedAt": "2021-11-01T03:47:01.574Z",
  "devdoc": {
    "kind": "dev",
    "methods": {
      "allowance(address,address)": {
        "details": "See {IERC20-allowance}. Note that operator and allowance concepts are orthogonal: operators may not have allowance, and accounts with allowance may not be operators themselves."
      },
      "approve(address,uint256)": {
        "details": "See {IERC20-approve}. Note that accounts cannot have allowance issued by their operators."
      },
      "authorizeOperator(address)": {
        "details": "See {IERC777-authorizeOperator}."
      },
      "burn(uint256,bytes)": {
        "details": "See {IERC777-burn}. Also emits a {IERC20-Transfer} event for ERC20 compatibility."
      },
      "decimals()": {
        "details": "See {ERC20-decimals}. Always returns 18, as per the [ERC777 EIP](https://eips.ethereum.org/EIPS/eip-777#backward-compatibility)."
      },
      "defaultOperators()": {
        "details": "See {IERC777-defaultOperators}."
      },
      "granularity()": {
        "details": "See {IERC777-granularity}. This implementation always returns `1`."
      },
      "isOperatorFor(address,address)": {
        "details": "See {IERC777-isOperatorFor}."
      },
      "name()": {
        "details": "See {IERC777-name}."
      },
      "operatorBurn(address,uint256,bytes,bytes)": {
        "details": "See {IERC777-operatorBurn}. Emits {Burned} and {IERC20-Transfer} events."
      },
      "operatorSend(address,address,uint256,bytes,bytes)": {
        "details": "See {IERC777-operatorSend}. Emits {Sent} and {IERC20-Transfer} events."
      },
      "owner()": {
        "details": "Returns the address of the current owner."
      },
      "renounceOwnership()": {
        "details": "Leaves the contract without owner. It will not be possible to call `onlyOwner` functions anymore. Can only be called by the current owner. NOTE: Renouncing ownership will leave the contract without an owner, thereby removing any functionality that is only available to the owner."
      },
      "revokeOperator(address)": {
        "details": "See {IERC777-revokeOperator}."
      },
      "send(address,uint256,bytes)": {
        "details": "See {IERC777-send}. Also emits a {IERC20-Transfer} event for ERC20 compatibility."
      },
      "symbol()": {
        "details": "See {IERC777-symbol}."
      },
      "totalSupply()": {
        "details": "See {IERC777-totalSupply}."
      },
      "transfer(address,uint256)": {
        "details": "See {IERC20-transfer}. Unlike `send`, `recipient` is _not_ required to implement the {IERC777Recipient} interface if it is a contract. Also emits a {Sent} event."
      },
      "transferOwnership(address)": {
        "details": "Transfers ownership of the contract to a new account (`newOwner`). Can only be called by the current owner."
      }
    },
    "version": 1
  },
  "userdoc": {
    "kind": "user",
    "methods": {},
    "version": 1
  }
}