{
  "contractName": "SchnoodleV6",
  "abi": [
    {
      "anonymous": false,
      "inputs": [
        {
          "indexed": true,
          "internalType": "address",
          "name": "owner",
          "type": "address"
        },
        {
          "indexed": true,
          "internalType": "address",
          "name": "spender",
          "type": "address"
        },
        {
          "indexed": false,
          "internalType": "uint256",
          "name": "value",
          "type": "uint256"
        }
      ],
      "name": "Approval",
      "type": "event"
    },
    {
      "anonymous": false,
      "inputs": [
        {
          "indexed": true,
          "internalType": "address",
          "name": "operator",
          "type": "address"
        },
        {
          "indexed": true,
          "internalType": "address",
          "name": "tokenHolder",
          "type": "address"
        }
      ],
      "name": "AuthorizedOperator",
      "type": "event"
    },
    {
      "anonymous": false,
      "inputs": [
        {
          "indexed": true,
          "internalType": "address",
          "name": "operator",
          "type": "address"
        },
        {
          "indexed": true,
          "internalType": "address",
          "name": "from",
          "type": "address"
        },
        {
          "indexed": false,
          "internalType": "uint256",
          "name": "amount",
          "type": "uint256"
        },
        {
          "indexed": false,
          "internalType": "bytes",
          "name": "data",
          "type": "bytes"
        },
        {
          "indexed": false,
          "internalType": "bytes",
          "name": "operatorData",
          "type": "bytes"
        }
      ],
      "name": "Burned",
      "type": "event"
    },
    {
      "anonymous": false,
      "inputs": [
        {
          "indexed": true,
          "internalType": "address",
          "name": "account",
          "type": "address"
        },
        {
          "indexed": false,
          "internalType": "uint256",
          "name": "percent",
          "type": "uint256"
        }
      ],
      "name": "EleemosynaryChanged",
      "type": "event"
    },
    {
      "anonymous": false,
      "inputs": [
        {
          "indexed": false,
          "internalType": "uint256",
          "name": "percent",
          "type": "uint256"
        }
      ],
      "name": "FeePercentChanged",
      "type": "event"
    },
    {
      "anonymous": false,
      "inputs": [
        {
          "indexed": true,
          "internalType": "address",
          "name": "operator",
          "type": "address"
        },
        {
          "indexed": true,
          "internalType": "address",
          "name": "to",
          "type": "address"
        },
        {
          "indexed": false,
          "internalType": "uint256",
          "name": "amount",
          "type": "uint256"
        },
        {
          "indexed": false,
          "internalType": "bytes",
          "name": "data",
          "type": "bytes"
        },
        {
          "indexed": false,
          "internalType": "bytes",
          "name": "operatorData",
          "type": "bytes"
        }
      ],
      "name": "Minted",
      "type": "event"
    },
    {
      "anonymous": false,
      "inputs": [
        {
          "indexed": true,
          "internalType": "address",
          "name": "previousOwner",
          "type": "address"
        },
        {
          "indexed": true,
          "internalType": "address",
          "name": "newOwner",
          "type": "address"
        }
      ],
      "name": "OwnershipTransferred",
      "type": "event"
    },
    {
      "anonymous": false,
      "inputs": [
        {
          "indexed": true,
          "internalType": "address",
          "name": "operator",
          "type": "address"
        },
        {
          "indexed": true,
          "internalType": "address",
          "name": "tokenHolder",
          "type": "address"
        }
      ],
      "name": "RevokedOperator",
      "type": "event"
    },
    {
      "anonymous": false,
      "inputs": [
        {
          "indexed": true,
          "internalType": "bytes32",
          "name": "role",
          "type": "bytes32"
        },
        {
          "indexed": true,
          "internalType": "bytes32",
          "name": "previousAdminRole",
          "type": "bytes32"
        },
        {
          "indexed": true,
          "internalType": "bytes32",
          "name": "newAdminRole",
          "type": "bytes32"
        }
      ],
      "name": "RoleAdminChanged",
      "type": "event"
    },
    {
      "anonymous": false,
      "inputs": [
        {
          "indexed": true,
          "internalType": "bytes32",
          "name": "role",
          "type": "bytes32"
        },
        {
          "indexed": true,
          "internalType": "address",
          "name": "account",
          "type": "address"
        },
        {
          "indexed": true,
          "internalType": "address",
          "name": "sender",
          "type": "address"
        }
      ],
      "name": "RoleGranted",
      "type": "event"
    },
    {
      "anonymous": false,
      "inputs": [
        {
          "indexed": true,
          "internalType": "bytes32",
          "name": "role",
          "type": "bytes32"
        },
        {
          "indexed": true,
          "internalType": "address",
          "name": "account",
          "type": "address"
        },
        {
          "indexed": true,
          "internalType": "address",
          "name": "sender",
          "type": "address"
        }
      ],
      "name": "RoleRevoked",
      "type": "event"
    },
    {
      "anonymous": false,
      "inputs": [
        {
          "indexed": true,
          "internalType": "address",
          "name": "operator",
          "type": "address"
        },
        {
          "indexed": true,
          "internalType": "address",
          "name": "from",
          "type": "address"
        },
        {
          "indexed": true,
          "internalType": "address",
          "name": "to",
          "type": "address"
        },
        {
          "indexed": false,
          "internalType": "uint256",
          "name": "amount",
          "type": "uint256"
        },
        {
          "indexed": false,
          "internalType": "bytes",
          "name": "data",
          "type": "bytes"
        },
        {
          "indexed": false,
          "internalType": "bytes",
          "name": "operatorData",
          "type": "bytes"
        }
      ],
      "name": "Sent",
      "type": "event"
    },
    {
      "anonymous": false,
      "inputs": [
        {
          "indexed": false,
          "internalType": "uint256",
          "name": "percent",
          "type": "uint256"
        }
      ],
      "name": "StakingPercentChanged",
      "type": "event"
    },
    {
      "anonymous": false,
      "inputs": [
        {
          "indexed": true,
          "internalType": "address",
          "name": "from",
          "type": "address"
        },
        {
          "indexed": true,
          "internalType": "address",
          "name": "to",
          "type": "address"
        },
        {
          "indexed": false,
          "internalType": "uint256",
          "name": "value",
          "type": "uint256"
        }
      ],
      "name": "Transfer",
      "type": "event"
    },
    {
      "inputs": [],
      "name": "DEFAULT_ADMIN_ROLE",
      "outputs": [
        {
          "internalType": "bytes32",
          "name": "",
          "type": "bytes32"
        }
      ],
      "stateMutability": "view",
      "type": "function"
    },
    {
      "inputs": [],
      "name": "FEE_EXEMPT",
      "outputs": [
        {
          "internalType": "bytes32",
          "name": "",
          "type": "bytes32"
        }
      ],
      "stateMutability": "view",
      "type": "function"
    },
    {
      "inputs": [],
      "name": "NO_TRANSFER",
      "outputs": [
        {
          "internalType": "bytes32",
          "name": "",
          "type": "bytes32"
        }
      ],
      "stateMutability": "view",
      "type": "function"
    },
    {
      "inputs": [],
      "name": "STAKING_CONTRACT",
      "outputs": [
        {
          "internalType": "bytes32",
          "name": "",
          "type": "bytes32"
        }
      ],
      "stateMutability": "view",
      "type": "function"
    },
    {
      "inputs": [
        {
          "internalType": "address",
          "name": "holder",
          "type": "address"
        },
        {
          "internalType": "address",
          "name": "spender",
          "type": "address"
        }
      ],
      "name": "allowance",
      "outputs": [
        {
          "internalType": "uint256",
          "name": "",
          "type": "uint256"
        }
      ],
      "stateMutability": "view",
      "type": "function"
    },
    {
      "inputs": [
        {
          "internalType": "address",
          "name": "spender",
          "type": "address"
        },
        {
          "internalType": "uint256",
          "name": "value",
          "type": "uint256"
        }
      ],
      "name": "approve",
      "outputs": [
        {
          "internalType": "bool",
          "name": "",
          "type": "bool"
        }
      ],
      "stateMutability": "nonpayable",
      "type": "function"
    },
    {
      "inputs": [
        {
          "internalType": "address",
          "name": "operator",
          "type": "address"
        }
      ],
      "name": "authorizeOperator",
      "outputs": [],
      "stateMutability": "nonpayable",
      "type": "function"
    },
    {
      "inputs": [
        {
          "internalType": "address",
          "name": "account",
          "type": "address"
        }
      ],
      "name": "balanceOf",
      "outputs": [
        {
          "internalType": "uint256",
          "name": "",
          "type": "uint256"
        }
      ],
      "stateMutability": "view",
      "type": "function"
    },
    {
      "inputs": [
        {
          "internalType": "uint256",
          "name": "amount",
          "type": "uint256"
        },
        {
          "internalType": "bytes",
          "name": "data",
          "type": "bytes"
        }
      ],
      "name": "burn",
      "outputs": [],
      "stateMutability": "nonpayable",
      "type": "function"
    },
    {
      "inputs": [
        {
          "internalType": "address",
          "name": "account",
          "type": "address"
        },
        {
          "internalType": "uint256",
          "name": "percent",
          "type": "uint256"
        }
      ],
      "name": "changeEleemosynary",
      "outputs": [],
      "stateMutability": "nonpayable",
      "type": "function"
    },
    {
      "inputs": [
        {
          "internalType": "uint256",
          "name": "percent",
          "type": "uint256"
        }
      ],
      "name": "changeFeePercent",
      "outputs": [],
      "stateMutability": "nonpayable",
      "type": "function"
    },
    {
      "inputs": [],
      "name": "decimals",
      "outputs": [
        {
          "internalType": "uint8",
          "name": "",
          "type": "uint8"
        }
      ],
      "stateMutability": "pure",
      "type": "function"
    },
    {
      "inputs": [],
      "name": "defaultOperators",
      "outputs": [
        {
          "internalType": "address[]",
          "name": "",
          "type": "address[]"
        }
      ],
      "stateMutability": "view",
      "type": "function"
    },
    {
      "inputs": [],
      "name": "eleemosynary",
      "outputs": [
        {
          "internalType": "address",
          "name": "",
          "type": "address"
        },
        {
          "internalType": "uint256",
          "name": "",
          "type": "uint256"
        }
      ],
      "stateMutability": "view",
      "type": "function"
    },
    {
      "inputs": [],
      "name": "feePercent",
      "outputs": [
        {
          "internalType": "uint256",
          "name": "",
          "type": "uint256"
        }
      ],
      "stateMutability": "view",
      "type": "function"
    },
    {
      "inputs": [
        {
          "internalType": "bytes32",
          "name": "role",
          "type": "bytes32"
        }
      ],
      "name": "getRoleAdmin",
      "outputs": [
        {
          "internalType": "bytes32",
          "name": "",
          "type": "bytes32"
        }
      ],
      "stateMutability": "view",
      "type": "function"
    },
    {
      "inputs": [
        {
          "internalType": "bytes32",
          "name": "role",
          "type": "bytes32"
        },
        {
          "internalType": "address",
          "name": "account",
          "type": "address"
        }
      ],
      "name": "grantRole",
      "outputs": [],
      "stateMutability": "nonpayable",
      "type": "function"
    },
    {
      "inputs": [],
      "name": "granularity",
      "outputs": [
        {
          "internalType": "uint256",
          "name": "",
          "type": "uint256"
        }
      ],
      "stateMutability": "view",
      "type": "function"
    },
    {
      "inputs": [
        {
          "internalType": "bytes32",
          "name": "role",
          "type": "bytes32"
        },
        {
          "internalType": "address",
          "name": "account",
          "type": "address"
        }
      ],
      "name": "hasRole",
      "outputs": [
        {
          "internalType": "bool",
          "name": "",
          "type": "bool"
        }
      ],
      "stateMutability": "view",
      "type": "function"
    },
    {
      "inputs": [
        {
          "internalType": "string",
          "name": "name",
          "type": "string"
        },
        {
          "internalType": "string",
          "name": "symbol",
          "type": "string"
        },
        {
          "internalType": "address[]",
          "name": "defaultOperators",
          "type": "address[]"
        },
        {
          "internalType": "uint256",
          "name": "initialSupply",
          "type": "uint256"
        },
        {
          "internalType": "address",
          "name": "owner",
          "type": "address"
        }
      ],
      "name": "initialize",
      "outputs": [],
      "stateMutability": "nonpayable",
      "type": "function"
    },
    {
      "inputs": [
        {
          "internalType": "uint256",
          "name": "initialTokens",
          "type": "uint256"
        },
        {
          "internalType": "address",
          "name": "serviceAccount",
          "type": "address"
        }
      ],
      "name": "initialize",
      "outputs": [],
      "stateMutability": "nonpayable",
      "type": "function"
    },
    {
      "inputs": [
        {
          "internalType": "address",
          "name": "operator",
          "type": "address"
        },
        {
          "internalType": "address",
          "name": "tokenHolder",
          "type": "address"
        }
      ],
      "name": "isOperatorFor",
      "outputs": [
        {
          "internalType": "bool",
          "name": "",
          "type": "bool"
        }
      ],
      "stateMutability": "view",
      "type": "function"
    },
    {
      "inputs": [],
      "name": "maintenance",
      "outputs": [],
      "stateMutability": "nonpayable",
      "type": "function"
    },
    {
      "inputs": [],
      "name": "name",
      "outputs": [
        {
          "internalType": "string",
          "name": "",
          "type": "string"
        }
      ],
      "stateMutability": "view",
      "type": "function"
    },
    {
      "inputs": [
        {
          "internalType": "address",
          "name": "account",
          "type": "address"
        },
        {
          "internalType": "uint256",
          "name": "amount",
          "type": "uint256"
        },
        {
          "internalType": "bytes",
          "name": "data",
          "type": "bytes"
        },
        {
          "internalType": "bytes",
          "name": "operatorData",
          "type": "bytes"
        }
      ],
      "name": "operatorBurn",
      "outputs": [],
      "stateMutability": "nonpayable",
      "type": "function"
    },
    {
      "inputs": [
        {
          "internalType": "address",
          "name": "sender",
          "type": "address"
        },
        {
          "internalType": "address",
          "name": "recipient",
          "type": "address"
        },
        {
          "internalType": "uint256",
          "name": "amount",
          "type": "uint256"
        },
        {
          "internalType": "bytes",
          "name": "data",
          "type": "bytes"
        },
        {
          "internalType": "bytes",
          "name": "operatorData",
          "type": "bytes"
        }
      ],
      "name": "operatorSend",
      "outputs": [],
      "stateMutability": "nonpayable",
      "type": "function"
    },
    {
      "inputs": [],
      "name": "owner",
      "outputs": [
        {
          "internalType": "address",
          "name": "",
          "type": "address"
        }
      ],
      "stateMutability": "view",
      "type": "function"
    },
    {
      "inputs": [],
      "name": "renounceOwnership",
      "outputs": [],
      "stateMutability": "nonpayable",
      "type": "function"
    },
    {
      "inputs": [
        {
          "internalType": "bytes32",
          "name": "role",
          "type": "bytes32"
        },
        {
          "internalType": "address",
          "name": "account",
          "type": "address"
        }
      ],
      "name": "renounceRole",
      "outputs": [],
      "stateMutability": "nonpayable",
      "type": "function"
    },
    {
      "inputs": [],
      "name": "resetTripMeter",
      "outputs": [],
      "stateMutability": "nonpayable",
      "type": "function"
    },
    {
      "inputs": [
        {
          "internalType": "address",
          "name": "operator",
          "type": "address"
        }
      ],
      "name": "revokeOperator",
      "outputs": [],
      "stateMutability": "nonpayable",
      "type": "function"
    },
    {
      "inputs": [
        {
          "internalType": "bytes32",
          "name": "role",
          "type": "bytes32"
        },
        {
          "internalType": "address",
          "name": "account",
          "type": "address"
        }
      ],
      "name": "revokeRole",
      "outputs": [],
      "stateMutability": "nonpayable",
      "type": "function"
    },
    {
      "inputs": [
        {
          "internalType": "address",
          "name": "recipient",
          "type": "address"
        },
        {
          "internalType": "uint256",
          "name": "amount",
          "type": "uint256"
        },
        {
          "internalType": "bytes",
          "name": "data",
          "type": "bytes"
        }
      ],
      "name": "send",
      "outputs": [],
      "stateMutability": "nonpayable",
      "type": "function"
    },
    {
      "inputs": [
        {
          "internalType": "bytes4",
          "name": "interfaceId",
          "type": "bytes4"
        }
      ],
      "name": "supportsInterface",
      "outputs": [
        {
          "internalType": "bool",
          "name": "",
          "type": "bool"
        }
      ],
      "stateMutability": "view",
      "type": "function"
    },
    {
      "inputs": [],
      "name": "symbol",
      "outputs": [
        {
          "internalType": "string",
          "name": "",
          "type": "string"
        }
      ],
      "stateMutability": "view",
      "type": "function"
    },
    {
      "inputs": [],
      "name": "totalSupply",
      "outputs": [
        {
          "internalType": "uint256",
          "name": "",
          "type": "uint256"
        }
      ],
      "stateMutability": "view",
      "type": "function"
    },
    {
      "inputs": [
        {
          "internalType": "address",
          "name": "recipient",
          "type": "address"
        },
        {
          "internalType": "uint256",
          "name": "amount",
          "type": "uint256"
        }
      ],
      "name": "transfer",
      "outputs": [
        {
          "internalType": "bool",
          "name": "",
          "type": "bool"
        }
      ],
      "stateMutability": "nonpayable",
      "type": "function"
    },
    {
      "inputs": [
        {
          "internalType": "address",
          "name": "sender",
          "type": "address"
        },
        {
          "internalType": "address",
          "name": "recipient",
          "type": "address"
        },
        {
          "internalType": "uint256",
          "name": "amount",
          "type": "uint256"
        }
      ],
      "name": "transferFrom",
      "outputs": [
        {
          "internalType": "bool",
          "name": "",
          "type": "bool"
        }
      ],
      "stateMutability": "nonpayable",
      "type": "function"
    },
    {
      "inputs": [
        {
          "internalType": "address",
          "name": "newOwner",
          "type": "address"
        }
      ],
      "name": "transferOwnership",
      "outputs": [],
      "stateMutability": "nonpayable",
      "type": "function"
    },
    {
      "inputs": [
        {
          "internalType": "address",
          "name": "account",
          "type": "address"
        }
      ],
      "name": "tripMeter",
      "outputs": [
        {
          "components": [
            {
              "internalType": "uint256",
              "name": "blockNumber",
              "type": "uint256"
            },
            {
              "internalType": "uint256",
              "name": "netBalance",
              "type": "uint256"
            }
          ],
          "internalType": "struct SchnoodleV6Base.TripMeter",
          "name": "",
          "type": "tuple"
        }
      ],
      "stateMutability": "view",
      "type": "function"
    },
    {
      "inputs": [
        {
          "internalType": "address",
          "name": "schnoodleStaking",
          "type": "address"
        }
      ],
      "name": "upgrade",
      "outputs": [],
      "stateMutability": "nonpayable",
      "type": "function"
    },
    {
      "inputs": [],
      "name": "stakingFund",
      "outputs": [
        {
          "internalType": "address",
          "name": "",
          "type": "address"
        }
      ],
      "stateMutability": "view",
      "type": "function"
    },
    {
      "inputs": [
        {
          "internalType": "uint256",
          "name": "percent",
          "type": "uint256"
        }
      ],
      "name": "changeStakingPercent",
      "outputs": [],
      "stateMutability": "nonpayable",
      "type": "function"
    },
    {
      "inputs": [],
      "name": "stakingPercent",
      "outputs": [
        {
          "internalType": "uint256",
          "name": "",
          "type": "uint256"
        }
      ],
      "stateMutability": "view",
      "type": "function"
    },
    {
      "inputs": [
        {
          "internalType": "address",
          "name": "account",
          "type": "address"
        },
        {
          "internalType": "uint256",
          "name": "netReward",
          "type": "uint256"
        },
        {
          "internalType": "uint256",
          "name": "grossReward",
          "type": "uint256"
        }
      ],
      "name": "stakingReward",
      "outputs": [],
      "stateMutability": "nonpayable",
      "type": "function"
    }
  ],
  "bytecode": "0x608060405234801561001057600080fd5b506138a2806100206000396000f3fe608060405234801561001057600080fd5b506004361061027f5760003560e01c80637fd6f15c1161015c578063d547741f116100ce578063f1de360b11610087578063f1de360b146105e2578063f2fde38b14610618578063fad8b32a1461062b578063fbaede671461063e578063fc673c4f14610651578063fe9d93031461066457600080fd5b8063d547741f14610567578063d95b63711461057a578063da19ddfb1461058d578063da35a26f146105b4578063dd62ed3e146105c7578063ed417377146105da57600080fd5b80639bd9bbc6116101205780639bd9bbc6146104f7578063a217fddf1461050a578063a9059cbb14610512578063be1193ea14610525578063cd0e315f1461052e578063cdeb89481461054057600080fd5b80637fd6f15c1461049c5780638da5cb5b146104a457806391d14854146104c9578063959b8c3f146104dc57806395d89b41146104ef57600080fd5b806334eddf3e116101f5578063607e51b6116101b9578063607e51b61461044057806362ad1b83146104535780636c376cc51461046657806370a082311461046e578063715018a614610481578063768f950a1461048957600080fd5b806334eddf3e1461037c57806336568abe1461038f5780633b15c75f146103a25780634e833a83146103c9578063556f0dc71461043957600080fd5b806318160ddd1161024757806318160ddd146102fe57806323b872dd14610310578063248a9ca3146103235780632f2ff15d146103475780632f5d14671461035a578063313ce5671461036d57600080fd5b806301ffc9a71461028457806306e48538146102ac57806306fdde03146102c15780630900f010146102d6578063095ea7b3146102eb575b600080fd5b610297610292366004612dfb565b610677565b60405190151581526020015b60405180910390f35b6102b46106ae565b6040516102a39190612e25565b6102c9610710565b6040516102a39190612eca565b6102e96102e4366004612f02565b610799565b005b6102976102f9366004612f1f565b6108e9565b60c9545b6040519081526020016102a3565b61029761031e366004612f4b565b610904565b610302610331366004612f8c565b6000908152610100602052604090206001015490565b6102e9610355366004612fa5565b61097e565b6102e9610368366004612f1f565b6109aa565b604051601281526020016102a3565b6102e961038a366004612f8c565b610a2e565b6102e961039d366004612fa5565b610a94565b6103027feee06450521b98b987d777bd85dea188372fb6b15a9f9eacb94344a857d3ca9e81565b61041e6103d7366004612f02565b6040805180820190915260008082526020820152506001600160a01b0316600090815260cd6020908152604091829020825180840190935280548352600101549082015290565b604080518251815260209283015192810192909252016102a3565b6001610302565b6102e961044e366004612fd5565b610b12565b6102e96104613660046130c1565b610ba5565b6102e9610be1565b61030261047c366004612f02565b610ceb565b6102e9610d0d565b6102e9610497366004613154565b610d43565b60ca54610302565b6097546001600160a01b03165b6040516001600160a01b0390911681526020016102a3565b6102976104d7366004612fa5565b610dc1565b6102e96104ea366004612f02565b610ded565b6102c9610f0b565b6102e9610505366004613267565b610f1a565b610302600081565b610297610520366004612f1f565b610f38565b61013554610302565b610134546001600160a01b03166104b1565b6103027f689384d89dea12645668e5ab6c6ece5540bc82b24678008b88ef396b09399e7081565b6102e9610575366004612fa5565b610fb0565b6102976105883660046132c0565b610fd7565b6103027f1a22aef9db7f016755e82dde60cb4679c85f5f4f349dab1736b426fa9435648581565b6102e96105c2366004612fa5565b611078565b6103026105d53660046132c0565b611174565b6102e96111a5565b6105f960cb5460cc546001600160a01b0390911691565b604080516001600160a01b0390931683526020830191909152016102a3565b6102e9610626366004612f02565b6111ae565b6102e9610639366004612f02565b611249565b6102e961064c366004612f8c565b611365565b6102e961065f3660046132ee565b6113c5565b6102e961067236600461336e565b6113fd565b60006001600160e01b03198216637965db0b60e01b14806106a857506301ffc9a760e01b6001600160e01b03198316145b92915050565b6060603780548060200260200160405190810160405280929190818152602001828054801561070657602002820191906000526020600020905b81546001600160a01b031681526001909101906020018083116106e8575b5050505050905090565b60606035805461071f906133b5565b80601f016020809104026020016040519081016040528092919081815260200182805461074b906133b5565b80156107065780601f1061076d57610100808354040283529160200191610706565b820191906000526020600020905b81548152906001019060200180831161077b57509395945050505050565b6097546001600160a01b031633146107cc5760405162461bcd60e51b81526004016107c3906133f0565b60405180910390fd5b6005610132541061081f5760405162461bcd60e51b815260206004820152601b60248201527f5363686e6f6f646c653a20616c7265616479207570677261646564000000000060448201526064016107c3565b600561013255610841600061083c6097546001600160a01b031690565b611418565b61086b7f1a22aef9db7f016755e82dde60cb4679c85f5f4f349dab1736b426fa943564858261097e565b61013380546001600160a01b0319166001600160a01b0383161790554261089360014361343b565b406040516020016108ae929190918252602082015260400190565b60408051808303601f19018152919052805160209091012061013480546001600160a01b0319166001600160a01b0390921691909117905550565b60006108fd836108f884611422565b611436565b9392505050565b60008061091083611422565b9050600061091f86868461144e565b9050846001600160a01b0316866001600160a01b031660008051602061384d8339815191528660405161095491815260200190565b60405180910390a361096b8686868561160e611623565b610975868661169f565b95945050505050565b6000828152610100602052604090206001015461099b81336116b1565b6109a58383611715565b505050565b6097546001600160a01b031633146109d45760405162461bcd60e51b81526004016107c3906133f0565b60cb80546001600160a01b0319166001600160a01b03841690811790915560cc8290556040518281527f14771002f2414c27e60fe966b41bcb8004589b44c52a1f73016757cc92bf5ada9060200160405180910390a25050565b6097546001600160a01b03163314610a585760405162461bcd60e51b81526004016107c3906133f0565b60ca8190556040518181527f91955c12515f4eb8f1ff79df82d1933ff11b6d3b9a3019c6568840616ec36a74906020015b60405180910390a150565b6001600160a01b0381163314610b045760405162461bcd60e51b815260206004820152602f60248201527f416363657373436f6e74726f6c3a2063616e206f6e6c792072656e6f756e636560448201526e103937b632b9903337b91039b2b63360891b60648201526084016107c3565b610b0e828261179c565b5050565b610b3c7f1a22aef9db7f016755e82dde60cb4679c85f5f4f349dab1736b426fa9435648533610dc1565b610b4557600080fd5b61013454610b65906001600160a01b031684610b6085611422565b61160e565b610134546109a5906001600160a01b0316610b80848461343b565b6040518060200160405280600081525060405180602001604052806000815250611804565b610baf3386610fd7565b610bcb5760405162461bcd60e51b81526004016107c390613452565b610bda85858585856001611839565b5050505050565b6097546001600160a01b03163314610c0b5760405162461bcd60e51b81526004016107c3906133f0565b7379a1dda6625dc4842625ef05591e4f2322232120735d22e32398cae8f8448df5491b50c39b7f271016733443036e7c2dfc1f09a309c96b502b4f20f32e4273a51dc67ec00a9b082ec1ebc4a901a9cb447e30e46000610c6a84610ceb565b610c7386610ceb565b610c7d919061349e565b90506000610c8a83610ceb565b610c9385610ceb565b610c9d908461349e565b610ca7919061349e565b90506000610cc8610cb96003846134cc565b610cc3908561343b565b611422565b9050610cd687335b836118b1565b610ce187858361144e565b5050505050505050565b6001600160a01b0381166000908152603360205260408120546106a8906119d9565b6097546001600160a01b03163314610d375760405162461bcd60e51b81526004016107c3906133f0565b610d416000611a00565b565b600054610100900460ff1680610d5c575060005460ff16155b610d785760405162461bcd60e51b81526004016107c3906134e0565b600054610100900460ff16158015610d9a576000805461ffff19166101011790555b610da78686868686611a52565b8015610db9576000805461ff00191690555b505050505050565b6000918252610100602090815260408084206001600160a01b0393909316845291905290205460ff1690565b336001600160a01b0382161415610e525760405162461bcd60e51b8152602060048201526024808201527f4552433737373a20617574686f72697a696e672073656c66206173206f70657260448201526330ba37b960e11b60648201526084016107c3565b6001600160a01b03811660009081526038602052604090205460ff1615610ea357336000908152603a602090815260408083206001600160a01b03851684529091529020805460ff19169055610ed2565b3360009081526039602090815260408083206001600160a01b03851684529091529020805460ff191660011790555b60405133906001600160a01b038316907ff4caeb2d6ca8932a215a353d0703c326ec2d81fc68170f320eb2ab49e9df61f990600090a350565b60606036805461071f906133b5565b6109a533848484604051806020016040528060008152506001611839565b600080610f4483611422565b90506000610f528583611ac9565b90506001600160a01b038516336001600160a01b031660008051602061384d83398151915286604051610f8791815260200190565b60405180910390a3610f9e3386868561160e611623565b610fa8338661169f565b949350505050565b60008281526101006020526040902060010154610fcd81336116b1565b6109a5838361179c565b6000816001600160a01b0316836001600160a01b0316148061104257506001600160a01b03831660009081526038602052604090205460ff16801561104257506001600160a01b038083166000908152603a602090815260408083209387168352929052205460ff16155b806108fd5750506001600160a01b0390811660009081526039602090815260408083209490931682529290925290205460ff1690565b600054610100900460ff1680611091575060005460ff16155b6110ad5760405162461bcd60e51b81526004016107c3906134e0565b600054610100900460ff161580156110cf576000805461ffff19166101011790555b6110d7611b7c565b6110e36012600a613612565b6110ed9084613621565b60c981905560408051808201825260098152685363686e6f6f646c6560b81b60208083019190915282518084018452600581526414d393d3d160da1b8183015283516000815291820190935261115e9391929161114c90600019613640565b6111589060001961343b565b86611a52565b80156109a5576000805461ff0019169055505050565b6001600160a01b038083166000908152603b602090815260408083209385168352929052908120546108fd906119d9565b610d4133611bf7565b6097546001600160a01b031633146111d85760405162461bcd60e51b81526004016107c3906133f0565b6001600160a01b03811661123d5760405162461bcd60e51b815260206004820152602660248201527f4f776e61626c653a206e6577206f776e657220697320746865207a65726f206160448201526564647265737360d01b60648201526084016107c3565b61124681611a00565b50565b6001600160a01b0381163314156112ac5760405162461bcd60e51b815260206004820152602160248201527f4552433737373a207265766f6b696e672073656c66206173206f70657261746f6044820152603960f91b60648201526084016107c3565b6001600160a01b03811660009081526038602052604090205460ff161561130057336000908152603a602090815260408083206001600160a01b03851684529091529020805460ff1916600117905561132c565b3360009081526039602090815260408083206001600160a01b03851684529091529020805460ff191690555b60405133906001600160a01b038316907f50546e66e5f44d728365dc3908c63bc5cfeeab470722c1677e3073a6ac294aa190600090a350565b6097546001600160a01b0316331461138f5760405162461bcd60e51b81526004016107c3906133f0565b6101358190556040518181527ff0271cdb85b2b237145bf66f6de81f797407e568bb661e76e44ea306971edc9490602001610a89565b6113cf3385610fd7565b6113eb5760405162461bcd60e51b81526004016107c390613452565b6113f784848484611804565b50505050565b610b0e33838360405180602001604052806000815250611804565b610b0e8282611715565b600061142c611c3e565b6106a89083613621565b6000336114448185856118b1565b5060019392505050565b60006001600160a01b0383166114765760405162461bcd60e51b81526004016107c390613654565b6001600160a01b0384166114db5760405162461bcd60e51b815260206004820152602660248201527f4552433737373a207472616e736665722066726f6d20746865207a65726f206160448201526564647265737360d01b60648201526084016107c3565b600033905061150c818686866040518060200160405280600081525060405180602001604052806000815250611c70565b611538818686866040518060200160405280600081525060405180602001604052806000815250611da6565b6001600160a01b038086166000908152603b6020908152604080832093851683529290522054838110156115c05760405162461bcd60e51b815260206004820152602960248201527f4552433737373a207472616e7366657220616d6f756e74206578636565647320604482015268616c6c6f77616e636560b81b60648201526084016107c3565b6115d486836115cf878561343b565b6118b1565b6116028287878760405180602001604052806000815250604051806020016040528060008152506000611f06565b50600195945050505050565b6116188333610cd0565b6113f783838361144e565b836001600160a01b0316856001600160a01b0316141561164257610bda565b61166c7feee06450521b98b987d777bd85dea188372fb6b15a9f9eacb94344a857d3ca9e86610dc1565b610bda5761167d85858585856120d0565b6101345461013554610bda9186916001600160a01b03909116908690856120f7565b6116a882611bf7565b610b0e81611bf7565b6116bb8282610dc1565b610b0e576116d3816001600160a01b03166014612182565b6116de836020612182565b6040516020016116ef929190613698565b60408051601f198184030181529082905262461bcd60e51b82526107c391600401612eca565b61171f8282610dc1565b610b0e576000828152610100602090815260408083206001600160a01b03851684529091529020805460ff191660011790556117583390565b6001600160a01b0316816001600160a01b0316837f2f8788117e7eff1d82e926ec794901d17c78024a50270940304540a733656f0d60405160405180910390a45050565b6117a68282610dc1565b15610b0e576000828152610100602090815260408083206001600160a01b0385168085529252808320805460ff1916905551339285917ff6391f5c32d9c69d2a47ea670b442974b53935d1edc7fd64eb21e047a839171b9190a45050565b6118188461181185611422565b848461231e565b8260c9600082825461182a919061343b565b909155506113f7905084611bf7565b600061184485611422565b90506118548787838787876124ce565b856001600160a01b0316876001600160a01b031660008051602061384d8339815191528760405161188791815260200190565b60405180910390a361189e878787846125b1611623565b6118a8878761169f565b50505050505050565b6001600160a01b0383166119155760405162461bcd60e51b815260206004820152602560248201527f4552433737373a20617070726f76652066726f6d20746865207a65726f206164604482015264647265737360d81b60648201526084016107c3565b6001600160a01b0382166119775760405162461bcd60e51b815260206004820152602360248201527f4552433737373a20617070726f766520746f20746865207a65726f206164647260448201526265737360e81b60648201526084016107c3565b6001600160a01b038381166000818152603b602090815260408083209487168084529482529182902085905590518481527f8c5be1e5ebec7d5bd14f71427d1e84f3dd0314c0f7b2291e5b200ac8c7c3b92591015b60405180910390a3505050565b600081156119f8576119e9611c3e565b6119f390836134cc565b6106a8565b600092915050565b609780546001600160a01b038381166001600160a01b0319831681179093556040519116919082907f8be0079c531659141344cd1fd0a4f28419497f9722a3daafe3b4186f6b6457e090600090a35050565b600054610100900460ff1680611a6b575060005460ff16155b611a875760405162461bcd60e51b81526004016107c3906134e0565b600054610100900460ff16158015611aa9576000805461ffff19166101011790555b611ab16125de565b611abc868686612648565b610da7868686868661287d565b60006001600160a01b038316611af15760405162461bcd60e51b81526004016107c390613654565b6000339050611b22818286866040518060200160405280600081525060405180602001604052806000815250611c70565b611b4e818286866040518060200160405280600081525060405180602001604052806000815250611da6565b6114448182868660405180602001604052806000815250604051806020016040528060008152506000611f06565b600054610100900460ff1680611b95575060005460ff16155b611bb15760405162461bcd60e51b81526004016107c3906134e0565b600054610100900460ff16158015611bd3576000805461ffff19166101011790555b611bdb6125de565b611be36128fe565b8015611246576000805461ff001916905550565b6040518060400160405280438152602001611c1183610ceb565b90526001600160a01b03909116600090815260cd6020908152604090912082518155910151600190910155565b600080611c4a60345490565b90508015611c675760c954603454611c6291906134cc565b611c6a565b60005b91505090565b60405163555ddc6560e11b81526001600160a01b03861660048201527f29ddb589b1fb5fc7cf394961c1adf5f8c6454761adf795e67fe149f658abe8956024820152600090731820a4b7618bde71dce8cdc73aab6c95905fad249063aabbb8ca9060440160206040518083038186803b158015611cec57600080fd5b505afa158015611d00573d6000803e3d6000fd5b505050506040513d601f19601f82011682018060405250810190611d24919061370d565b90506001600160a01b038116156118a857604051633ad5cbc160e11b81526001600160a01b038216906375ab978290611d6b908a908a908a908a908a908a9060040161372a565b600060405180830381600087803b158015611d8557600080fd5b505af1158015611d99573d6000803e3d6000fd5b5050505050505050505050565b611db28686868661295e565b6001600160a01b03851660009081526033602052604090205483811015611e2b5760405162461bcd60e51b815260206004820152602760248201527f4552433737373a207472616e7366657220616d6f756e7420657863656564732060448201526662616c616e636560c81b60648201526084016107c3565b6001600160a01b03808716600090815260336020526040808220878503905591871681529081208054869290611e6290849061349e565b92505081905550846001600160a01b0316866001600160a01b0316886001600160a01b03167f06b541ddaa720db2b10a4d0cdac39b8d360425fc073085fac19bc82614677987878787604051611eba93929190613784565b60405180910390a4846001600160a01b0316866001600160a01b031660008051602061384d83398151915286604051611ef591815260200190565b60405180910390a350505050505050565b60405163555ddc6560e11b81526001600160a01b03861660048201527fb281fc8c12954d22544db45de3159a39272895b169a852b314f9cc762e44c53b6024820152600090731820a4b7618bde71dce8cdc73aab6c95905fad249063aabbb8ca9060440160206040518083038186803b158015611f8257600080fd5b505afa158015611f96573d6000803e3d6000fd5b505050506040513d601f19601f82011682018060405250810190611fba919061370d565b90506001600160a01b03811615612036576040516223de2960e01b81526001600160a01b038216906223de2990611fff908b908b908b908b908b908b9060040161372a565b600060405180830381600087803b15801561201957600080fd5b505af115801561202d573d6000803e3d6000fd5b50505050610ce1565b8115610ce1576001600160a01b0386163b15610ce15760405162461bcd60e51b815260206004820152604d60248201527f4552433737373a20746f6b656e20726563697069656e7420636f6e747261637460448201527f20686173206e6f20696d706c656d656e74657220666f7220455243373737546f60648201526c1ad95b9cd49958da5c1a595b9d609a1b608482015260a4016107c3565b6120db848484612a4b565b60cb5460cc54610bda9186916001600160a01b03909116908690855b6001600160a01b03841615610bda57600060646121148486613621565b61211e91906134cc565b9050600061212b82611422565b905061213c8787838663ffffffff16565b856001600160a01b0316876001600160a01b031660008051602061384d8339815191528460405161216f91815260200190565b60405180910390a36118a8868383612a4b565b60606000612191836002613621565b61219c90600261349e565b67ffffffffffffffff8111156121b4576121b461300a565b6040519080825280601f01601f1916602001820160405280156121de576020820181803683370190505b509050600360fc1b816000815181106121f9576121f96137b9565b60200101906001600160f81b031916908160001a905350600f60fb1b81600181518110612228576122286137b9565b60200101906001600160f81b031916908160001a905350600061224c846002613621565b61225790600161349e565b90505b60018111156122cf576f181899199a1a9b1b9c1cb0b131b232b360811b85600f166010811061228b5761228b6137b9565b1a60f81b8282815181106122a1576122a16137b9565b60200101906001600160f81b031916908160001a90535060049490941c936122c8816137cf565b905061225a565b5083156108fd5760405162461bcd60e51b815260206004820181905260248201527f537472696e67733a20686578206c656e67746820696e73756666696369656e7460448201526064016107c3565b6001600160a01b03841661237f5760405162461bcd60e51b815260206004820152602260248201527f4552433737373a206275726e2066726f6d20746865207a65726f206164647265604482015261737360f01b60648201526084016107c3565b3361238f81866000878787611c70565b61239c818660008761295e565b6001600160a01b038516600090815260336020526040902054848110156124115760405162461bcd60e51b815260206004820152602360248201527f4552433737373a206275726e20616d6f756e7420657863656564732062616c616044820152626e636560e81b60648201526084016107c3565b6001600160a01b038616600090815260336020526040812086830390556034805487929061244090849061343b565b92505081905550856001600160a01b0316826001600160a01b03167fa78a9be3a7b862d26933ad85fb11d80ef66b8f972d7cbba06621d583943a409887878760405161248e93929190613784565b60405180910390a36040518581526000906001600160a01b0388169060008051602061384d833981519152906020015b60405180910390a3505050505050565b6001600160a01b03861661252f5760405162461bcd60e51b815260206004820152602260248201527f4552433737373a2073656e642066726f6d20746865207a65726f206164647265604482015261737360f01b60648201526084016107c3565b6001600160a01b0385166125855760405162461bcd60e51b815260206004820181905260248201527f4552433737373a2073656e6420746f20746865207a65726f206164647265737360448201526064016107c3565b33612594818888888888611c70565b6125a2818888888888611da6565b6118a881888888888888611f06565b6109a5838383604051806020016040528060008152506040518060200160405280600081525060016124ce565b600054610100900460ff16806125f7575060005460ff16155b6126135760405162461bcd60e51b81526004016107c3906134e0565b600054610100900460ff16158015611be3576000805461ffff19166101011790558015611246576000805461ff001916905550565b600054610100900460ff1680612661575060005460ff16155b61267d5760405162461bcd60e51b81526004016107c3906134e0565b600054610100900460ff1615801561269f576000805461ffff19166101011790555b83516126b2906035906020870190612d0d565b5082516126c6906036906020860190612d0d565b5081516126da906037906020850190612d91565b5060005b8251811015612743576001603860008584815181106126ff576126ff6137b9565b6020908102919091018101516001600160a01b03168252810191909152604001600020805460ff19169115159190911790558061273b816137e6565b9150506126de565b506040516329965a1d60e01b815230600482018190527fac7fbab5f54a3ca8194167523c6753bfeb96a445279294b6125b68cce217705460248301526044820152731820a4b7618bde71dce8cdc73aab6c95905fad24906329965a1d90606401600060405180830381600087803b1580156127bd57600080fd5b505af11580156127d1573d6000803e3d6000fd5b50506040516329965a1d60e01b815230600482018190527faea199e31a596269b42cdafd93407f14436db6e4cad65417994c2eb37381e05a60248301526044820152731820a4b7618bde71dce8cdc73aab6c95905fad2492506329965a1d9150606401600060405180830381600087803b15801561284e57600080fd5b505af1158015612862573d6000803e3d6000fd5b5050505080156113f7576000805461ff001916905550505050565b600054610100900460ff1680612896575060005460ff16155b6128b25760405162461bcd60e51b81526004016107c3906134e0565b600054610100900460ff161580156128d4576000805461ffff19166101011790555b610da782846040518060200160405280600081525060405180602001604052806000815250612ada565b600054610100900460ff1680612917575060005460ff16155b6129335760405162461bcd60e51b81526004016107c3906134e0565b600054610100900460ff16158015612955576000805461ffff19166101011790555b611be333611a00565b6129887f689384d89dea12645668e5ab6c6ece5540bc82b24678008b88ef396b09399e7084610dc1565b1561299257600080fd5b6001600160a01b03831615612a465760006129ac826119d9565b905060006129b985610ceb565b9050808211806129db57506129cd85612ae8565b6129d7908261343b565b8211155b612a435760405162461bcd60e51b815260206004820152603360248201527f5363686e6f6f646c653a207472616e7366657220616d6f756e74206578636565604482015272647320756e7374616b65642062616c616e636560681b60648201526084016107c3565b50505b6113f7565b612a8e8360ca54606484612a5f91906134cc565b612a699190613621565b604051806020016040528060008152506040518060200160405280600081525061231e565b60006001600160a01b0316836001600160a01b031660008051602061384d833981519152606460ca5486612ac29190613621565b612acc91906134cc565b6040519081526020016119cc565b6113f7848484846001612bc3565b610133546000906001600160a01b0316612b0457506000919050565b610133546040516001600160a01b038481166024830152600092839291169060440160408051601f198184030181529181526020820180516001600160e01b0316632c9aab9b60e11b17905251612b5b9190613801565b6000604051808303816000865af19150503d8060008114612b98576040519150601f19603f3d011682016040523d82523d6000602084013e612b9d565b606091505b509150915081612baf57612baf61381d565b80806020019051810190610fa89190613833565b612bd08585858585612bd9565b610bda85611bf7565b6001600160a01b038516612c2f5760405162461bcd60e51b815260206004820181905260248201527f4552433737373a206d696e7420746f20746865207a65726f206164647265737360448201526064016107c3565b33612c3d816000888861295e565b8460346000828254612c4f919061349e565b90915550506001600160a01b03861660009081526033602052604081208054879290612c7c90849061349e565b90915550612c9290508160008888888888611f06565b856001600160a01b0316816001600160a01b03167f2fe5be0146f74c5bce36c0b80911af6c7d86ff27e89d5cfa61fc681327954e5d878787604051612cd993929190613784565b60405180910390a36040518581526001600160a01b0387169060009060008051602061384d833981519152906020016124be565b828054612d19906133b5565b90600052602060002090601f016020900481019282612d3b5760008555612d81565b82601f10612d5457805160ff1916838001178555612d81565b82800160010185558215612d81579182015b82811115612d81578251825591602001919060010190612d66565b50612d8d929150612de6565b5090565b828054828255906000526020600020908101928215612d81579160200282015b82811115612d8157825182546001600160a01b0319166001600160a01b03909116178255602090920191600190910190612db1565b5b80821115612d8d5760008155600101612de7565b600060208284031215612e0d57600080fd5b81356001600160e01b0319811681146108fd57600080fd5b6020808252825182820181905260009190848201906040850190845b81811015612e665783516001600160a01b031683529284019291840191600101612e41565b50909695505050505050565b60005b83811015612e8d578181015183820152602001612e75565b838111156113f75750506000910152565b60008151808452612eb6816020860160208601612e72565b601f01601f19169290920160200192915050565b6020815260006108fd6020830184612e9e565b6001600160a01b038116811461124657600080fd5b8035612efd81612edd565b919050565b600060208284031215612f1457600080fd5b81356108fd81612edd565b60008060408385031215612f3257600080fd5b8235612f3d81612edd565b946020939093013593505050565b600080600060608486031215612f6057600080fd5b8335612f6b81612edd565b92506020840135612f7b81612edd565b929592945050506040919091013590565b600060208284031215612f9e57600080fd5b5035919050565b60008060408385031215612fb857600080fd5b823591506020830135612fca81612edd565b809150509250929050565b600080600060608486031215612fea57600080fd5b8335612ff581612edd565b95602085013595506040909401359392505050565b634e487b7160e01b600052604160045260246000fd5b604051601f8201601f1916810167ffffffffffffffff811182821017156130495761304961300a565b604052919050565b600082601f83011261306257600080fd5b813567ffffffffffffffff81111561307c5761307c61300a565b61308f601f8201601f1916602001613020565b8181528460208386010111156130a457600080fd5b816020850160208301376000918101602001919091529392505050565b600080600080600060a086880312156130d957600080fd5b85356130e481612edd565b945060208601356130f481612edd565b935060408601359250606086013567ffffffffffffffff8082111561311857600080fd5b61312489838a01613051565b9350608088013591508082111561313a57600080fd5b5061314788828901613051565b9150509295509295909350565b600080600080600060a0868803121561316c57600080fd5b853567ffffffffffffffff8082111561318457600080fd5b61319089838a01613051565b96506020915081880135818111156131a757600080fd5b6131b38a828b01613051565b9650506040880135818111156131c857600080fd5b8801601f81018a136131d957600080fd5b8035828111156131eb576131eb61300a565b8060051b92506131fc848401613020565b818152928201840192848101908c85111561321657600080fd5b928501925b84841015613240578335925061323083612edd565b828252928501929085019061321b565b97505050506060880135935061325b91505060808701612ef2565b90509295509295909350565b60008060006060848603121561327c57600080fd5b833561328781612edd565b925060208401359150604084013567ffffffffffffffff8111156132aa57600080fd5b6132b686828701613051565b9150509250925092565b600080604083850312156132d357600080fd5b82356132de81612edd565b91506020830135612fca81612edd565b6000806000806080858703121561330457600080fd5b843561330f81612edd565b935060208501359250604085013567ffffffffffffffff8082111561333357600080fd5b61333f88838901613051565b9350606087013591508082111561335557600080fd5b5061336287828801613051565b91505092959194509250565b6000806040838503121561338157600080fd5b82359150602083013567ffffffffffffffff81111561339f57600080fd5b6133ab85828601613051565b9150509250929050565b600181811c908216806133c957607f821691505b602082108114156133ea57634e487b7160e01b600052602260045260246000fd5b50919050565b6020808252818101527f4f776e61626c653a2063616c6c6572206973206e6f7420746865206f776e6572604082015260600190565b634e487b7160e01b600052601160045260246000fd5b60008282101561344d5761344d613425565b500390565b6020808252602c908201527f4552433737373a2063616c6c6572206973206e6f7420616e206f70657261746f60408201526b39103337b9103437b63232b960a11b606082015260800190565b600082198211156134b1576134b1613425565b500190565b634e487b7160e01b600052601260045260246000fd5b6000826134db576134db6134b6565b500490565b6020808252602e908201527f496e697469616c697a61626c653a20636f6e747261637420697320616c72656160408201526d191e481a5b9a5d1a585b1a5e995960921b606082015260800190565b600181815b8085111561356957816000190482111561354f5761354f613425565b8085161561355c57918102915b93841c9390800290613533565b509250929050565b600082613580575060016106a8565b8161358d575060006106a8565b81600181146135a357600281146135ad576135c9565b60019150506106a8565b60ff8411156135be576135be613425565b50506001821b6106a8565b5060208310610133831016604e8410600b84101617156135ec575081810a6106a8565b6135f6838361352e565b806000190482111561360a5761360a613425565b029392505050565b60006108fd60ff841683613571565b600081600019048311821515161561363b5761363b613425565b500290565b60008261364f5761364f6134b6565b500690565b60208082526024908201527f4552433737373a207472616e7366657220746f20746865207a65726f206164646040820152637265737360e01b606082015260800190565b7f416363657373436f6e74726f6c3a206163636f756e74200000000000000000008152600083516136d0816017850160208801612e72565b7001034b99036b4b9b9b4b733903937b6329607d1b6017918401918201528351613701816028840160208801612e72565b01602801949350505050565b60006020828403121561371f57600080fd5b81516108fd81612edd565b6001600160a01b0387811682528681166020830152851660408201526060810184905260c06080820181905260009061376590830185612e9e565b82810360a08401526137778185612e9e565b9998505050505050505050565b83815260606020820152600061379d6060830185612e9e565b82810360408401526137af8185612e9e565b9695505050505050565b634e487b7160e01b600052603260045260246000fd5b6000816137de576137de613425565b506000190190565b60006000198214156137fa576137fa613425565b5060010190565b60008251613813818460208701612e72565b9190910192915050565b634e487b7160e01b600052600160045260246000fd5b60006020828403121561384557600080fd5b505191905056feddf252ad1be2c89b69c2b068fc378daa952ba7f163c4a11628f55a4df523b3efa2646970667358221220833e6241da3210bb9645b11c4e3f2d0f8fe3f8800cde6d899b297269a7db423364736f6c63430008090033",
  "immutableReferences": {},
  "source": "// contracts/SchnoodleV5.sol\r\n// SPDX-License-Identifier: MIT\r\npragma solidity ^0.8.0;\r\n\r\nimport \"@openzeppelin/contracts-upgradeable/proxy/utils/Initializable.sol\";\r\nimport \"@openzeppelin/contracts-upgradeable/access/AccessControlUpgradeable.sol\";\r\nimport \"./imports/SchnoodleV6Base.sol\";\r\n\r\n/// @author Jason Payne (https://twitter.com/Neo42)\r\ncontract SchnoodleV6 is SchnoodleV6Base, AccessControlUpgradeable {\r\n    uint256 private _version;\r\n    address private _schnoodleStaking;\r\n    address private _stakingFund;\r\n    uint256 private _stakingPercent;\r\n\r\n    bytes32 public constant FEE_EXEMPT = keccak256(\"FEE_EXEMPT\");\r\n    bytes32 public constant NO_TRANSFER = keccak256(\"NO_TRANSFER\");\r\n    bytes32 public constant STAKING_CONTRACT = keccak256(\"STAKING_CONTRACT\");\r\n\r\n    function upgrade(address schnoodleStaking) external onlyOwner {\r\n        require(_version < 5, \"Schnoodle: already upgraded\");\r\n        _version = 5;\r\n\r\n        _setupRole(DEFAULT_ADMIN_ROLE, owner());\r\n        grantRole(STAKING_CONTRACT, schnoodleStaking);\r\n        _schnoodleStaking = schnoodleStaking;\r\n        _stakingFund = address(uint160(uint256(keccak256(abi.encodePacked(block.timestamp, blockhash(block.number - 1))))));\r\n    }\r\n\r\n    function _beforeTokenTransfer(address operator, address from, address to, uint256 amount) internal virtual override {\r\n        require(!hasRole(NO_TRANSFER, from));\r\n\r\n        if (from != address(0)) {\r\n            uint256 standardAmount = _getStandardAmount(amount);\r\n            uint256 balance = balanceOf(from);\r\n            require(standardAmount > balance || standardAmount <= balance - lockedBalanceOf(from), \"Schnoodle: transfer amount exceeds unstaked balance\");\r\n        }\r\n\r\n        super._beforeTokenTransfer(operator, from, to, amount);\r\n    }\r\n\r\n    function payFeeAndDonate(address sender, address recipient, uint256 amount, uint256 reflectedAmount, function(address, address, uint256) internal transferCallback) internal virtual override {\r\n        if (sender == recipient) return;\r\n\r\n        if (!hasRole(FEE_EXEMPT, sender)) {\r\n            super.payFeeAndDonate(sender, recipient, amount, reflectedAmount, transferCallback);\r\n            _transferTax(recipient, _stakingFund, amount, _stakingPercent, transferCallback);\r\n        }\r\n    }\r\n\r\n    // Staking functions\r\n\r\n    function stakingFund() external view returns (address) {\r\n        return _stakingFund;\r\n    }\r\n\r\n    function changeStakingPercent(uint256 percent) external onlyOwner {\r\n        _stakingPercent = percent;\r\n        emit StakingPercentChanged(percent);\r\n    }\r\n\r\n    function stakingPercent() external view returns (uint256) {\r\n        return _stakingPercent;\r\n    }\r\n\r\n    function stakingReward(address account, uint256 netReward, uint256 grossReward) external {\r\n        require(hasRole(STAKING_CONTRACT, _msgSender()));\r\n        _transferFromReflected(_stakingFund, account, _getReflectedAmount(netReward));\r\n\r\n        // Burn the unused part of the gross reward\r\n        _burn(_stakingFund, grossReward - netReward, \"\", \"\");\r\n    }\r\n\r\n    // Calls to the SchnoodleStaking proxy contract\r\n\r\n    function lockedBalanceOf(address account) private returns(uint256) {\r\n        if (_schnoodleStaking == address(0)) return 0;\r\n        (bool success, bytes memory result) = _schnoodleStaking.call(abi.encodeWithSignature(\"lockedBalanceOf(address)\", account));\r\n        assert(success);\r\n        return abi.decode(result, (uint256));\r\n    }\r\n\r\n    event StakingPercentChanged(uint256 percent);\r\n}\r\n",
  "sourcePath": "C:\\Users\\micro\\OneDrive - X-treem Software\\Development\\Projects\\Blockchain\\Schnoodle\\contracts\\SchnoodleV6.sol",
  "compiler": {
    "name": "solc",
    "version": "0.8.9+commit.e5eed63a.Emscripten.clang"
  },
  "schemaVersion": "3.4.3",
  "updatedAt": "2021-11-01T03:47:01.546Z",
  "devdoc": {
    "author": "Jason Payne (https://twitter.com/Neo42)",
    "kind": "dev",
    "methods": {
      "allowance(address,address)": {
        "details": "See {IERC20-allowance}. Note that operator and allowance concepts are orthogonal: operators may not have allowance, and accounts with allowance may not be operators themselves."
      },
      "approve(address,uint256)": {
        "details": "See {IERC20-approve}. Note that accounts cannot have allowance issued by their operators."
      },
      "authorizeOperator(address)": {
        "details": "See {IERC777-authorizeOperator}."
      },
      "burn(uint256,bytes)": {
        "details": "See {IERC777-burn}. Also emits a {IERC20-Transfer} event for ERC20 compatibility."
      },
      "decimals()": {
        "details": "See {ERC20-decimals}. Always returns 18, as per the [ERC777 EIP](https://eips.ethereum.org/EIPS/eip-777#backward-compatibility)."
      },
      "defaultOperators()": {
        "details": "See {IERC777-defaultOperators}."
      },
      "getRoleAdmin(bytes32)": {
        "details": "Returns the admin role that controls `role`. See {grantRole} and {revokeRole}. To change a role's admin, use {_setRoleAdmin}."
      },
      "grantRole(bytes32,address)": {
        "details": "Grants `role` to `account`. If `account` had not been already granted `role`, emits a {RoleGranted} event. Requirements: - the caller must have ``role``'s admin role."
      },
      "granularity()": {
        "details": "See {IERC777-granularity}. This implementation always returns `1`."
      },
      "hasRole(bytes32,address)": {
        "details": "Returns `true` if `account` has been granted `role`."
      },
      "isOperatorFor(address,address)": {
        "details": "See {IERC777-isOperatorFor}."
      },
      "name()": {
        "details": "See {IERC777-name}."
      },
      "operatorBurn(address,uint256,bytes,bytes)": {
        "details": "See {IERC777-operatorBurn}. Emits {Burned} and {IERC20-Transfer} events."
      },
      "operatorSend(address,address,uint256,bytes,bytes)": {
        "details": "See {IERC777-operatorSend}. Emits {Sent} and {IERC20-Transfer} events."
      },
      "owner()": {
        "details": "Returns the address of the current owner."
      },
      "renounceOwnership()": {
        "details": "Leaves the contract without owner. It will not be possible to call `onlyOwner` functions anymore. Can only be called by the current owner. NOTE: Renouncing ownership will leave the contract without an owner, thereby removing any functionality that is only available to the owner."
      },
      "renounceRole(bytes32,address)": {
        "details": "Revokes `role` from the calling account. Roles are often managed via {grantRole} and {revokeRole}: this function's purpose is to provide a mechanism for accounts to lose their privileges if they are compromised (such as when a trusted device is misplaced). If the calling account had been granted `role`, emits a {RoleRevoked} event. Requirements: - the caller must be `account`."
      },
      "revokeOperator(address)": {
        "details": "See {IERC777-revokeOperator}."
      },
      "revokeRole(bytes32,address)": {
        "details": "Revokes `role` from `account`. If `account` had been granted `role`, emits a {RoleRevoked} event. Requirements: - the caller must have ``role``'s admin role."
      },
      "send(address,uint256,bytes)": {
        "details": "See {IERC777-send}. Also emits a {IERC20-Transfer} event for ERC20 compatibility."
      },
      "supportsInterface(bytes4)": {
        "details": "See {IERC165-supportsInterface}."
      },
      "symbol()": {
        "details": "See {IERC777-symbol}."
      },
      "totalSupply()": {
        "details": "See {IERC777-totalSupply}."
      },
      "transfer(address,uint256)": {
        "details": "See {IERC20-transfer}. Unlike `send`, `recipient` is _not_ required to implement the {IERC777Recipient} interface if it is a contract. Also emits a {Sent} event."
      },
      "transferOwnership(address)": {
        "details": "Transfers ownership of the contract to a new account (`newOwner`). Can only be called by the current owner."
      }
    },
    "version": 1
  },
  "userdoc": {
    "kind": "user",
    "methods": {},
    "version": 1
  }
}