{
  "contractName": "SchnoodleV6",
  "abi": [
    {
      "anonymous": false,
      "inputs": [
        {
          "indexed": true,
          "internalType": "address",
          "name": "owner",
          "type": "address"
        },
        {
          "indexed": true,
          "internalType": "address",
          "name": "spender",
          "type": "address"
        },
        {
          "indexed": false,
          "internalType": "uint256",
          "name": "value",
          "type": "uint256"
        }
      ],
      "name": "Approval",
      "type": "event"
    },
    {
      "anonymous": false,
      "inputs": [
        {
          "indexed": true,
          "internalType": "address",
          "name": "operator",
          "type": "address"
        },
        {
          "indexed": true,
          "internalType": "address",
          "name": "tokenHolder",
          "type": "address"
        }
      ],
      "name": "AuthorizedOperator",
      "type": "event"
    },
    {
      "anonymous": false,
      "inputs": [
        {
          "indexed": true,
          "internalType": "address",
          "name": "operator",
          "type": "address"
        },
        {
          "indexed": true,
          "internalType": "address",
          "name": "from",
          "type": "address"
        },
        {
          "indexed": false,
          "internalType": "uint256",
          "name": "amount",
          "type": "uint256"
        },
        {
          "indexed": false,
          "internalType": "bytes",
          "name": "data",
          "type": "bytes"
        },
        {
          "indexed": false,
          "internalType": "bytes",
          "name": "operatorData",
          "type": "bytes"
        }
      ],
      "name": "Burned",
      "type": "event"
    },
    {
      "anonymous": false,
      "inputs": [
        {
          "indexed": true,
          "internalType": "address",
          "name": "account",
          "type": "address"
        },
        {
          "indexed": false,
          "internalType": "uint256",
          "name": "rate",
          "type": "uint256"
        }
      ],
      "name": "EleemosynaryChanged",
      "type": "event"
    },
    {
      "anonymous": false,
      "inputs": [
        {
          "indexed": false,
          "internalType": "uint256",
          "name": "rate",
          "type": "uint256"
        }
      ],
      "name": "FeeRateChanged",
      "type": "event"
    },
    {
      "anonymous": false,
      "inputs": [
        {
          "indexed": true,
          "internalType": "address",
          "name": "operator",
          "type": "address"
        },
        {
          "indexed": true,
          "internalType": "address",
          "name": "to",
          "type": "address"
        },
        {
          "indexed": false,
          "internalType": "uint256",
          "name": "amount",
          "type": "uint256"
        },
        {
          "indexed": false,
          "internalType": "bytes",
          "name": "data",
          "type": "bytes"
        },
        {
          "indexed": false,
          "internalType": "bytes",
          "name": "operatorData",
          "type": "bytes"
        }
      ],
      "name": "Minted",
      "type": "event"
    },
    {
      "anonymous": false,
      "inputs": [
        {
          "indexed": true,
          "internalType": "address",
          "name": "previousOwner",
          "type": "address"
        },
        {
          "indexed": true,
          "internalType": "address",
          "name": "newOwner",
          "type": "address"
        }
      ],
      "name": "OwnershipTransferred",
      "type": "event"
    },
    {
      "anonymous": false,
      "inputs": [
        {
          "indexed": true,
          "internalType": "address",
          "name": "operator",
          "type": "address"
        },
        {
          "indexed": true,
          "internalType": "address",
          "name": "tokenHolder",
          "type": "address"
        }
      ],
      "name": "RevokedOperator",
      "type": "event"
    },
    {
      "anonymous": false,
      "inputs": [
        {
          "indexed": true,
          "internalType": "address",
          "name": "operator",
          "type": "address"
        },
        {
          "indexed": true,
          "internalType": "address",
          "name": "from",
          "type": "address"
        },
        {
          "indexed": true,
          "internalType": "address",
          "name": "to",
          "type": "address"
        },
        {
          "indexed": false,
          "internalType": "uint256",
          "name": "amount",
          "type": "uint256"
        },
        {
          "indexed": false,
          "internalType": "bytes",
          "name": "data",
          "type": "bytes"
        },
        {
          "indexed": false,
          "internalType": "bytes",
          "name": "operatorData",
          "type": "bytes"
        }
      ],
      "name": "Sent",
      "type": "event"
    },
    {
      "anonymous": false,
      "inputs": [
        {
          "indexed": true,
          "internalType": "address",
          "name": "from",
          "type": "address"
        },
        {
          "indexed": true,
          "internalType": "address",
          "name": "to",
          "type": "address"
        },
        {
          "indexed": false,
          "internalType": "uint256",
          "name": "value",
          "type": "uint256"
        }
      ],
      "name": "Transfer",
      "type": "event"
    },
    {
      "inputs": [
        {
          "internalType": "address",
          "name": "operator",
          "type": "address"
        }
      ],
      "name": "authorizeOperator",
      "outputs": [],
      "stateMutability": "nonpayable",
      "type": "function"
    },
    {
      "inputs": [
        {
          "internalType": "uint256",
          "name": "amount",
          "type": "uint256"
        },
        {
          "internalType": "bytes",
          "name": "data",
          "type": "bytes"
        }
      ],
      "name": "burn",
      "outputs": [],
      "stateMutability": "nonpayable",
      "type": "function"
    },
    {
      "inputs": [],
      "name": "decimals",
      "outputs": [
        {
          "internalType": "uint8",
          "name": "",
          "type": "uint8"
        }
      ],
      "stateMutability": "pure",
      "type": "function",
      "constant": true
    },
    {
      "inputs": [],
      "name": "defaultOperators",
      "outputs": [
        {
          "internalType": "address[]",
          "name": "",
          "type": "address[]"
        }
      ],
      "stateMutability": "view",
      "type": "function",
      "constant": true
    },
    {
      "inputs": [],
      "name": "granularity",
      "outputs": [
        {
          "internalType": "uint256",
          "name": "",
          "type": "uint256"
        }
      ],
      "stateMutability": "view",
      "type": "function",
      "constant": true
    },
    {
      "inputs": [
        {
          "internalType": "address",
          "name": "operator",
          "type": "address"
        },
        {
          "internalType": "address",
          "name": "tokenHolder",
          "type": "address"
        }
      ],
      "name": "isOperatorFor",
      "outputs": [
        {
          "internalType": "bool",
          "name": "",
          "type": "bool"
        }
      ],
      "stateMutability": "view",
      "type": "function",
      "constant": true
    },
    {
      "inputs": [],
      "name": "name",
      "outputs": [
        {
          "internalType": "string",
          "name": "",
          "type": "string"
        }
      ],
      "stateMutability": "view",
      "type": "function",
      "constant": true
    },
    {
      "inputs": [
        {
          "internalType": "address",
          "name": "account",
          "type": "address"
        },
        {
          "internalType": "uint256",
          "name": "amount",
          "type": "uint256"
        },
        {
          "internalType": "bytes",
          "name": "data",
          "type": "bytes"
        },
        {
          "internalType": "bytes",
          "name": "operatorData",
          "type": "bytes"
        }
      ],
      "name": "operatorBurn",
      "outputs": [],
      "stateMutability": "nonpayable",
      "type": "function"
    },
    {
      "inputs": [
        {
          "internalType": "address",
          "name": "sender",
          "type": "address"
        },
        {
          "internalType": "address",
          "name": "recipient",
          "type": "address"
        },
        {
          "internalType": "uint256",
          "name": "amount",
          "type": "uint256"
        },
        {
          "internalType": "bytes",
          "name": "data",
          "type": "bytes"
        },
        {
          "internalType": "bytes",
          "name": "operatorData",
          "type": "bytes"
        }
      ],
      "name": "operatorSend",
      "outputs": [],
      "stateMutability": "nonpayable",
      "type": "function"
    },
    {
      "inputs": [],
      "name": "owner",
      "outputs": [
        {
          "internalType": "address",
          "name": "",
          "type": "address"
        }
      ],
      "stateMutability": "view",
      "type": "function",
      "constant": true
    },
    {
      "inputs": [],
      "name": "renounceOwnership",
      "outputs": [],
      "stateMutability": "nonpayable",
      "type": "function"
    },
    {
      "inputs": [
        {
          "internalType": "address",
          "name": "operator",
          "type": "address"
        }
      ],
      "name": "revokeOperator",
      "outputs": [],
      "stateMutability": "nonpayable",
      "type": "function"
    },
    {
      "inputs": [
        {
          "internalType": "address",
          "name": "recipient",
          "type": "address"
        },
        {
          "internalType": "uint256",
          "name": "amount",
          "type": "uint256"
        },
        {
          "internalType": "bytes",
          "name": "data",
          "type": "bytes"
        }
      ],
      "name": "send",
      "outputs": [],
      "stateMutability": "nonpayable",
      "type": "function"
    },
    {
      "inputs": [],
      "name": "symbol",
      "outputs": [
        {
          "internalType": "string",
          "name": "",
          "type": "string"
        }
      ],
      "stateMutability": "view",
      "type": "function",
      "constant": true
    },
    {
      "inputs": [
        {
          "internalType": "address",
          "name": "newOwner",
          "type": "address"
        }
      ],
      "name": "transferOwnership",
      "outputs": [],
      "stateMutability": "nonpayable",
      "type": "function"
    },
    {
      "inputs": [
        {
          "internalType": "string",
          "name": "name",
          "type": "string"
        },
        {
          "internalType": "string",
          "name": "symbol",
          "type": "string"
        },
        {
          "internalType": "address[]",
          "name": "defaultOperators",
          "type": "address[]"
        },
        {
          "internalType": "uint256",
          "name": "initialSupply",
          "type": "uint256"
        },
        {
          "internalType": "address",
          "name": "owner",
          "type": "address"
        }
      ],
      "name": "initialize",
      "outputs": [],
      "stateMutability": "nonpayable",
      "type": "function"
    },
    {
      "inputs": [
        {
          "internalType": "uint256",
          "name": "initialTokens",
          "type": "uint256"
        },
        {
          "internalType": "address",
          "name": "serviceAccount",
          "type": "address"
        }
      ],
      "name": "initialize",
      "outputs": [],
      "stateMutability": "nonpayable",
      "type": "function"
    },
    {
      "inputs": [],
      "name": "totalSupply",
      "outputs": [
        {
          "internalType": "uint256",
          "name": "",
          "type": "uint256"
        }
      ],
      "stateMutability": "view",
      "type": "function",
      "constant": true
    },
    {
      "inputs": [
        {
          "internalType": "address",
          "name": "account",
          "type": "address"
        }
      ],
      "name": "balanceOf",
      "outputs": [
        {
          "internalType": "uint256",
          "name": "",
          "type": "uint256"
        }
      ],
      "stateMutability": "view",
      "type": "function",
      "constant": true
    },
    {
      "inputs": [
        {
          "internalType": "address",
          "name": "recipient",
          "type": "address"
        },
        {
          "internalType": "uint256",
          "name": "amount",
          "type": "uint256"
        }
      ],
      "name": "transfer",
      "outputs": [
        {
          "internalType": "bool",
          "name": "",
          "type": "bool"
        }
      ],
      "stateMutability": "nonpayable",
      "type": "function"
    },
    {
      "inputs": [
        {
          "internalType": "address",
          "name": "holder",
          "type": "address"
        },
        {
          "internalType": "address",
          "name": "spender",
          "type": "address"
        }
      ],
      "name": "allowance",
      "outputs": [
        {
          "internalType": "uint256",
          "name": "",
          "type": "uint256"
        }
      ],
      "stateMutability": "view",
      "type": "function",
      "constant": true
    },
    {
      "inputs": [
        {
          "internalType": "address",
          "name": "spender",
          "type": "address"
        },
        {
          "internalType": "uint256",
          "name": "value",
          "type": "uint256"
        }
      ],
      "name": "approve",
      "outputs": [
        {
          "internalType": "bool",
          "name": "",
          "type": "bool"
        }
      ],
      "stateMutability": "nonpayable",
      "type": "function"
    },
    {
      "inputs": [
        {
          "internalType": "address",
          "name": "sender",
          "type": "address"
        },
        {
          "internalType": "address",
          "name": "recipient",
          "type": "address"
        },
        {
          "internalType": "uint256",
          "name": "amount",
          "type": "uint256"
        }
      ],
      "name": "transferFrom",
      "outputs": [
        {
          "internalType": "bool",
          "name": "",
          "type": "bool"
        }
      ],
      "stateMutability": "nonpayable",
      "type": "function"
    },
    {
      "inputs": [
        {
          "internalType": "uint256",
          "name": "rate",
          "type": "uint256"
        }
      ],
      "name": "changeFeeRate",
      "outputs": [],
      "stateMutability": "nonpayable",
      "type": "function"
    },
    {
      "inputs": [
        {
          "internalType": "uint256",
          "name": "rate",
          "type": "uint256"
        }
      ],
      "name": "changeFeePercent",
      "outputs": [],
      "stateMutability": "nonpayable",
      "type": "function"
    },
    {
      "inputs": [
        {
          "internalType": "address",
          "name": "account",
          "type": "address"
        },
        {
          "internalType": "uint256",
          "name": "rate",
          "type": "uint256"
        }
      ],
      "name": "changeEleemosynary",
      "outputs": [],
      "stateMutability": "nonpayable",
      "type": "function"
    },
    {
      "inputs": [],
      "name": "maintenance",
      "outputs": [],
      "stateMutability": "nonpayable",
      "type": "function"
    }
  ],
  "bytecode": "0x608060405234801561001057600080fd5b50612cf4806100206000396000f3fe608060405234801561001057600080fd5b50600436106101a95760003560e01c8063768f950a116100f9578063d95b637111610097578063f2fde38b11610071578063f2fde38b14610345578063fad8b32a14610358578063fc673c4f1461036b578063fe9d93031461037e57600080fd5b8063d95b63711461030c578063da35a26f1461031f578063dd62ed3e1461033257600080fd5b806395d89b41116100d357806395d89b41146102de5780639bd9bbc6146102e6578063a9059cbb146102f9578063affca9321461024d57600080fd5b8063768f950a1461029d5780638da5cb5b146102b0578063959b8c3f146102cb57600080fd5b8063313ce5671161016657806362ad1b831161014057806362ad1b83146102675780636c376cc51461027a57806370a0823114610282578063715018a61461029557600080fd5b8063313ce5671461023e57806334eddf3e1461024d578063556f0dc71461026057600080fd5b806306e48538146101ae57806306fdde03146101cc578063095ea7b3146101e157806318160ddd1461020457806323b872dd146102165780632f5d146714610229575b600080fd5b6101b6610391565b6040516101c3919061238e565b60405180910390f35b6101d46103f3565b6040516101c39190612428565b6101f46101ef366004612460565b61047c565b60405190151581526020016101c3565b60c9545b6040519081526020016101c3565b6101f461022436600461248c565b610499565b61023c610237366004612460565b610508565b005b604051601281526020016101c3565b61023c61025b3660046124cd565b610595565b6001610208565b61023c61027536600461259d565b6105fa565b61023c610636565b610208610290366004612630565b610745565b61023c6107f1565b61023c6102ab36600461264d565b610827565b6097546040516001600160a01b0390911681526020016101c3565b61023c6102d9366004612630565b6108a5565b6101d46109c3565b61023c6102f4366004612760565b6109d2565b6101f4610307366004612460565b6109f5565b6101f461031a3660046127b9565b610a62565b61023c61032d3660046127f2565b610b03565b6102086103403660046127b9565b610bff565b61023c610353366004612630565b610c39565b61023c610366366004612630565b610cd4565b61023c610379366004612817565b610df0565b61023c61038c366004612897565b610e28565b606060378054806020026020016040519081016040528092919081815260200182805480156103e957602002820191906000526020600020905b81546001600160a01b031681526001909101906020018083116103cb575b5050505050905090565b606060358054610402906128de565b80601f016020809104026020016040519081016040528092919081815260200182805461042e906128de565b80156103e95780601f10610450576101008083540402835291602001916103e9565b820191906000526020600020905b81548152906001019060200180831161045e57509395945050505050565b60006104908361048b84610e47565b610e5b565b90505b92915050565b6000806104a583610e47565b905060006104b4868684610e73565b9050846001600160a01b0316866001600160a01b0316600080516020612c9f833981519152866040516104e991815260200190565b60405180910390a36104ff858584611033611055565b95945050505050565b6097546001600160a01b0316331461053b5760405162461bcd60e51b815260040161053290612919565b60405180910390fd5b60cb80546001600160a01b0319166001600160a01b03841690811790915560cc8290556040518281527f14771002f2414c27e60fe966b41bcb8004589b44c52a1f73016757cc92bf5ada9060200160405180910390a25050565b6097546001600160a01b031633146105bf5760405162461bcd60e51b815260040161053290612919565b60ca8190556040518181527fdd72d2879718489eb363ba6099239f89d49542612862c71545503d35cfddda469060200160405180910390a150565b6106043386610a62565b6106205760405162461bcd60e51b81526004016105329061294e565b61062f8585858585600161111e565b5050505050565b6097546001600160a01b031633146106605760405162461bcd60e51b815260040161053290612919565b605060ca557379a1dda6625dc4842625ef05591e4f2322232120735d22e32398cae8f8448df5491b50c39b7f271016733443036e7c2dfc1f09a309c96b502b4f20f32e4273a51dc67ec00a9b082ec1ebc4a901a9cb447e30e460006106c484610745565b6106cd86610745565b6106d791906129b0565b905060006106e483610745565b6106ed85610745565b6106f790846129b0565b61070191906129b0565b905060006107226107136003846129de565b61071d90856129f2565b610e47565b905061073087335b8361118b565b61073b878583610e73565b5050505050505050565b6001600160a01b0381166000908152603360205260408120546034548111156107d8576040805162461bcd60e51b81526020600482015260248101919091527f5363686e6f6f646c653a205265666c65637465642062616c616e6365206d757360448201527f74206265206c657373207468616e20746f74616c207265666c656374696f6e736064820152608401610532565b6107e06112b3565b6107ea90826129de565b9392505050565b6097546001600160a01b0316331461081b5760405162461bcd60e51b815260040161053290612919565b61082560006112d0565b565b600054610100900460ff1680610840575060005460ff16155b61085c5760405162461bcd60e51b815260040161053290612a09565b600054610100900460ff1615801561087e576000805461ffff19166101011790555b61088b8686868686611322565b801561089d576000805461ff00191690555b505050505050565b336001600160a01b038216141561090a5760405162461bcd60e51b8152602060048201526024808201527f4552433737373a20617574686f72697a696e672073656c66206173206f70657260448201526330ba37b960e11b6064820152608401610532565b6001600160a01b03811660009081526038602052604090205460ff161561095b57336000908152603a602090815260408083206001600160a01b03851684529091529020805460ff1916905561098a565b3360009081526039602090815260408083206001600160a01b03851684529091529020805460ff191660011790555b60405133906001600160a01b038316907ff4caeb2d6ca8932a215a353d0703c326ec2d81fc68170f320eb2ab49e9df61f990600090a350565b606060368054610402906128de565b6109f03384848460405180602001604052806000815250600161111e565b505050565b600080610a0183610e47565b90506000610a0f8583611399565b90506001600160a01b038516336001600160a01b0316600080516020612c9f83398151915286604051610a4491815260200190565b60405180910390a3610a5a858584611033611055565b949350505050565b6000816001600160a01b0316836001600160a01b03161480610acd57506001600160a01b03831660009081526038602052604090205460ff168015610acd57506001600160a01b038083166000908152603a602090815260408083209387168352929052205460ff16155b806104905750506001600160a01b0390811660009081526039602090815260408083209490931682529290925290205460ff1690565b600054610100900460ff1680610b1c575060005460ff16155b610b385760405162461bcd60e51b815260040161053290612a09565b600054610100900460ff16158015610b5a576000805461ffff19166101011790555b610b6261144c565b610b6e6012600a612b3b565b610b789084612b4a565b60c981905560408051808201825260098152685363686e6f6f646c6560b81b60208083019190915282518084018452600581526414d393d3d160da1b81830152835160008152918201909352610be993919291610bd790600019612b69565b610be3906000196129f2565b86610827565b80156109f0576000805461ff0019169055505050565b6000610c096112b3565b6001600160a01b038085166000908152603b602090815260408083209387168352929052205461049091906129de565b6097546001600160a01b03163314610c635760405162461bcd60e51b815260040161053290612919565b6001600160a01b038116610cc85760405162461bcd60e51b815260206004820152602660248201527f4f776e61626c653a206e6577206f776e657220697320746865207a65726f206160448201526564647265737360d01b6064820152608401610532565b610cd1816112d0565b50565b6001600160a01b038116331415610d375760405162461bcd60e51b815260206004820152602160248201527f4552433737373a207265766f6b696e672073656c66206173206f70657261746f6044820152603960f91b6064820152608401610532565b6001600160a01b03811660009081526038602052604090205460ff1615610d8b57336000908152603a602090815260408083206001600160a01b03851684529091529020805460ff19166001179055610db7565b3360009081526039602090815260408083206001600160a01b03851684529091529020805460ff191690555b60405133906001600160a01b038316907f50546e66e5f44d728365dc3908c63bc5cfeeab470722c1677e3073a6ac294aa190600090a350565b610dfa3385610a62565b610e165760405162461bcd60e51b81526004016105329061294e565b610e22848484846114c7565b50505050565b610e43338383604051806020016040528060008152506114c7565b5050565b6000610e516112b3565b6104939083612b4a565b600033610e6981858561118b565b5060019392505050565b60006001600160a01b038316610e9b5760405162461bcd60e51b815260040161053290612b7d565b6001600160a01b038416610f005760405162461bcd60e51b815260206004820152602660248201527f4552433737373a207472616e736665722066726f6d20746865207a65726f206160448201526564647265737360d01b6064820152608401610532565b6000339050610f318186868660405180602001604052806000815250604051806020016040528060008152506114f8565b610f5d81868686604051806020016040528060008152506040518060200160405280600081525061162e565b6001600160a01b038086166000908152603b602090815260408083209385168352929052205483811015610fe55760405162461bcd60e51b815260206004820152602960248201527f4552433737373a207472616e7366657220616d6f756e74206578636565647320604482015268616c6c6f77616e636560b81b6064820152608401610532565b610ff98683610ff487856129f2565b61118b565b611027828787876040518060200160405280600081525060405180602001604052806000815250600061178e565b50600195945050505050565b61103d823361072a565b60cb546109f09083906001600160a01b031683610e73565b6001600160a01b038416730f6b0960d2569f505126341085ed7f0342b67dae1461107e57610e22565b611089848484611958565b60cb546001600160a01b031615610e225760006103e860cc54856110ad9190612b4a565b6110b791906129de565b905060006110c482610e47565b90506110d486828563ffffffff16565b60cb546040518381526001600160a01b0391821691881690600080516020612c9f8339815191529060200160405180910390a360cb5461089d906001600160a01b03168383611958565b600061112985610e47565b90506111398787838787876119e9565b856001600160a01b0316876001600160a01b0316600080516020612c9f8339815191528760405161116c91815260200190565b60405180910390a3611182868683611acc611055565b50505050505050565b6001600160a01b0383166111ef5760405162461bcd60e51b815260206004820152602560248201527f4552433737373a20617070726f76652066726f6d20746865207a65726f206164604482015264647265737360d81b6064820152608401610532565b6001600160a01b0382166112515760405162461bcd60e51b815260206004820152602360248201527f4552433737373a20617070726f766520746f20746865207a65726f206164647260448201526265737360e81b6064820152608401610532565b6001600160a01b038381166000818152603b602090815260408083209487168084529482529182902085905590518481527f8c5be1e5ebec7d5bd14f71427d1e84f3dd0314c0f7b2291e5b200ac8c7c3b92591015b60405180910390a3505050565b60006112be60c95490565b6034546112cb91906129de565b905090565b609780546001600160a01b038381166001600160a01b0319831681179093556040519116919082907f8be0079c531659141344cd1fd0a4f28419497f9722a3daafe3b4186f6b6457e090600090a35050565b600054610100900460ff168061133b575060005460ff16155b6113575760405162461bcd60e51b815260040161053290612a09565b600054610100900460ff16158015611379576000805461ffff19166101011790555b611381611b05565b61138c868686611b6f565b61088b8686868686611da4565b60006001600160a01b0383166113c15760405162461bcd60e51b815260040161053290612b7d565b60003390506113f28182868660405180602001604052806000815250604051806020016040528060008152506114f8565b61141e81828686604051806020016040528060008152506040518060200160405280600081525061162e565b610e69818286866040518060200160405280600081525060405180602001604052806000815250600061178e565b600054610100900460ff1680611465575060005460ff16155b6114815760405162461bcd60e51b815260040161053290612a09565b600054610100900460ff161580156114a3576000805461ffff19166101011790555b6114ab611b05565b6114b3611e25565b8015610cd1576000805461ff001916905550565b6114db846114d485610e47565b8484611e85565b8260c960008282546114ed91906129f2565b909155505050505050565b60405163555ddc6560e11b81526001600160a01b03861660048201527f29ddb589b1fb5fc7cf394961c1adf5f8c6454761adf795e67fe149f658abe8956024820152600090731820a4b7618bde71dce8cdc73aab6c95905fad249063aabbb8ca9060440160206040518083038186803b15801561157457600080fd5b505afa158015611588573d6000803e3d6000fd5b505050506040513d601f19601f820116820180604052508101906115ac9190612bc1565b90506001600160a01b0381161561118257604051633ad5cbc160e11b81526001600160a01b038216906375ab9782906115f3908a908a908a908a908a908a90600401612bde565b600060405180830381600087803b15801561160d57600080fd5b505af1158015611621573d6000803e3d6000fd5b5050505050505050505050565b61163a86868686612035565b6001600160a01b038516600090815260336020526040902054838110156116b35760405162461bcd60e51b815260206004820152602760248201527f4552433737373a207472616e7366657220616d6f756e7420657863656564732060448201526662616c616e636560c81b6064820152608401610532565b6001600160a01b038087166000908152603360205260408082208785039055918716815290812080548692906116ea9084906129b0565b92505081905550846001600160a01b0316866001600160a01b0316886001600160a01b03167f06b541ddaa720db2b10a4d0cdac39b8d360425fc073085fac19bc8261467798787878760405161174293929190612c38565b60405180910390a4846001600160a01b0316866001600160a01b0316600080516020612c9f8339815191528660405161177d91815260200190565b60405180910390a350505050505050565b60405163555ddc6560e11b81526001600160a01b03861660048201527fb281fc8c12954d22544db45de3159a39272895b169a852b314f9cc762e44c53b6024820152600090731820a4b7618bde71dce8cdc73aab6c95905fad249063aabbb8ca9060440160206040518083038186803b15801561180a57600080fd5b505afa15801561181e573d6000803e3d6000fd5b505050506040513d601f19601f820116820180604052508101906118429190612bc1565b90506001600160a01b038116156118be576040516223de2960e01b81526001600160a01b038216906223de2990611887908b908b908b908b908b908b90600401612bde565b600060405180830381600087803b1580156118a157600080fd5b505af11580156118b5573d6000803e3d6000fd5b5050505061073b565b811561073b576001600160a01b0386163b1561073b5760405162461bcd60e51b815260206004820152604d60248201527f4552433737373a20746f6b656e20726563697069656e7420636f6e747261637460448201527f20686173206e6f20696d706c656d656e74657220666f7220455243373737546f60648201526c1ad95b9cd49958da5c1a595b9d609a1b608482015260a401610532565b61199c8360ca546103e88461196d91906129de565b6119779190612b4a565b6040518060200160405280600081525060405180602001604052806000815250611e85565b60006001600160a01b0316836001600160a01b0316600080516020612c9f8339815191526103e860ca54866119d19190612b4a565b6119db91906129de565b6040519081526020016112a6565b6001600160a01b038616611a4a5760405162461bcd60e51b815260206004820152602260248201527f4552433737373a2073656e642066726f6d20746865207a65726f206164647265604482015261737360f01b6064820152608401610532565b6001600160a01b038516611aa05760405162461bcd60e51b815260206004820181905260248201527f4552433737373a2073656e6420746f20746865207a65726f20616464726573736044820152606401610532565b33611aaf8188888888886114f8565b611abd81888888888861162e565b6111828188888888888861178e565b60cb54604080516020808201835260008083528351918201909352918252610e439285926001600160a01b0390911691859160016119e9565b600054610100900460ff1680611b1e575060005460ff16155b611b3a5760405162461bcd60e51b815260040161053290612a09565b600054610100900460ff161580156114b3576000805461ffff19166101011790558015610cd1576000805461ff001916905550565b600054610100900460ff1680611b88575060005460ff16155b611ba45760405162461bcd60e51b815260040161053290612a09565b600054610100900460ff16158015611bc6576000805461ffff19166101011790555b8351611bd99060359060208701906122a0565b508251611bed9060369060208601906122a0565b508151611c01906037906020850190612324565b5060005b8251811015611c6a57600160386000858481518110611c2657611c26612c6d565b6020908102919091018101516001600160a01b03168252810191909152604001600020805460ff191691151591909117905580611c6281612c83565b915050611c05565b506040516329965a1d60e01b815230600482018190527fac7fbab5f54a3ca8194167523c6753bfeb96a445279294b6125b68cce217705460248301526044820152731820a4b7618bde71dce8cdc73aab6c95905fad24906329965a1d90606401600060405180830381600087803b158015611ce457600080fd5b505af1158015611cf8573d6000803e3d6000fd5b50506040516329965a1d60e01b815230600482018190527faea199e31a596269b42cdafd93407f14436db6e4cad65417994c2eb37381e05a60248301526044820152731820a4b7618bde71dce8cdc73aab6c95905fad2492506329965a1d9150606401600060405180830381600087803b158015611d7557600080fd5b505af1158015611d89573d6000803e3d6000fd5b505050508015610e22576000805461ff001916905550505050565b600054610100900460ff1680611dbd575060005460ff16155b611dd95760405162461bcd60e51b815260040161053290612a09565b600054610100900460ff16158015611dfb576000805461ffff19166101011790555b61088b82846040518060200160405280600081525060405180602001604052806000815250612163565b600054610100900460ff1680611e3e575060005460ff16155b611e5a5760405162461bcd60e51b815260040161053290612a09565b600054610100900460ff16158015611e7c576000805461ffff19166101011790555b6114b3336112d0565b6001600160a01b038416611ee65760405162461bcd60e51b815260206004820152602260248201527f4552433737373a206275726e2066726f6d20746865207a65726f206164647265604482015261737360f01b6064820152608401610532565b33611ef6818660008787876114f8565b611f038186600087612035565b6001600160a01b03851660009081526033602052604090205484811015611f785760405162461bcd60e51b815260206004820152602360248201527f4552433737373a206275726e20616d6f756e7420657863656564732062616c616044820152626e636560e81b6064820152608401610532565b6001600160a01b0386166000908152603360205260408120868303905560348054879290611fa79084906129f2565b92505081905550856001600160a01b0316826001600160a01b03167fa78a9be3a7b862d26933ad85fb11d80ef66b8f972d7cbba06621d583943a4098878787604051611ff593929190612c38565b60405180910390a36040518581526000906001600160a01b03881690600080516020612c9f833981519152906020015b60405180910390a3505050505050565b6001600160a01b038216730f6b0960d2569f505126341085ed7f0342b67dae141561215e576001600160a01b038316600090815260cd602052604090204261208062015180826129f2565b8254101561209357808255600060018301555b600061209d6112b3565b6120a790856129de565b9050808360010160008282546120bd91906129b0565b909155505060c9546120d290612710906129de565b83600101541061215a5760405162461bcd60e51b815260206004820152604760248201527f5363686e6f6f646c653a205472616e7366657220657863656564732073656c6c60448201527f206c696d6974206f6620302e303125206f6620746f74616c20737570706c79206064820152667065722064617960c81b608482015260a401610532565b5050505b610e22565b610e228484848460016001600160a01b0385166121c25760405162461bcd60e51b815260206004820181905260248201527f4552433737373a206d696e7420746f20746865207a65726f20616464726573736044820152606401610532565b336121d08160008888612035565b84603460008282546121e291906129b0565b90915550506001600160a01b0386166000908152603360205260408120805487929061220f9084906129b0565b909155506122259050816000888888888861178e565b856001600160a01b0316816001600160a01b03167f2fe5be0146f74c5bce36c0b80911af6c7d86ff27e89d5cfa61fc681327954e5d87878760405161226c93929190612c38565b60405180910390a36040518581526001600160a01b03871690600090600080516020612c9f83398151915290602001612025565b8280546122ac906128de565b90600052602060002090601f0160209004810192826122ce5760008555612314565b82601f106122e757805160ff1916838001178555612314565b82800160010185558215612314579182015b828111156123145782518255916020019190600101906122f9565b50612320929150612379565b5090565b828054828255906000526020600020908101928215612314579160200282015b8281111561231457825182546001600160a01b0319166001600160a01b03909116178255602090920191600190910190612344565b5b80821115612320576000815560010161237a565b6020808252825182820181905260009190848201906040850190845b818110156123cf5783516001600160a01b0316835292840192918401916001016123aa565b50909695505050505050565b6000815180845260005b81811015612401576020818501810151868301820152016123e5565b81811115612413576000602083870101525b50601f01601f19169290920160200192915050565b60208152600061049060208301846123db565b6001600160a01b0381168114610cd157600080fd5b803561245b8161243b565b919050565b6000806040838503121561247357600080fd5b823561247e8161243b565b946020939093013593505050565b6000806000606084860312156124a157600080fd5b83356124ac8161243b565b925060208401356124bc8161243b565b929592945050506040919091013590565b6000602082840312156124df57600080fd5b5035919050565b634e487b7160e01b600052604160045260246000fd5b604051601f8201601f1916810167ffffffffffffffff81118282101715612525576125256124e6565b604052919050565b600082601f83011261253e57600080fd5b813567ffffffffffffffff811115612558576125586124e6565b61256b601f8201601f19166020016124fc565b81815284602083860101111561258057600080fd5b816020850160208301376000918101602001919091529392505050565b600080600080600060a086880312156125b557600080fd5b85356125c08161243b565b945060208601356125d08161243b565b935060408601359250606086013567ffffffffffffffff808211156125f457600080fd5b61260089838a0161252d565b9350608088013591508082111561261657600080fd5b506126238882890161252d565b9150509295509295909350565b60006020828403121561264257600080fd5b81356107ea8161243b565b600080600080600060a0868803121561266557600080fd5b853567ffffffffffffffff8082111561267d57600080fd5b61268989838a0161252d565b96506020915081880135818111156126a057600080fd5b6126ac8a828b0161252d565b9650506040880135818111156126c157600080fd5b8801601f81018a136126d257600080fd5b8035828111156126e4576126e46124e6565b8060051b92506126f58484016124fc565b818152928201840192848101908c85111561270f57600080fd5b928501925b8484101561273957833592506127298361243b565b8282529285019290850190612714565b97505050506060880135935061275491505060808701612450565b90509295509295909350565b60008060006060848603121561277557600080fd5b83356127808161243b565b925060208401359150604084013567ffffffffffffffff8111156127a357600080fd5b6127af8682870161252d565b9150509250925092565b600080604083850312156127cc57600080fd5b82356127d78161243b565b915060208301356127e78161243b565b809150509250929050565b6000806040838503121561280557600080fd5b8235915060208301356127e78161243b565b6000806000806080858703121561282d57600080fd5b84356128388161243b565b935060208501359250604085013567ffffffffffffffff8082111561285c57600080fd5b6128688883890161252d565b9350606087013591508082111561287e57600080fd5b5061288b8782880161252d565b91505092959194509250565b600080604083850312156128aa57600080fd5b82359150602083013567ffffffffffffffff8111156128c857600080fd5b6128d48582860161252d565b9150509250929050565b600181811c908216806128f257607f821691505b6020821081141561291357634e487b7160e01b600052602260045260246000fd5b50919050565b6020808252818101527f4f776e61626c653a2063616c6c6572206973206e6f7420746865206f776e6572604082015260600190565b6020808252602c908201527f4552433737373a2063616c6c6572206973206e6f7420616e206f70657261746f60408201526b39103337b9103437b63232b960a11b606082015260800190565b634e487b7160e01b600052601160045260246000fd5b600082198211156129c3576129c361299a565b500190565b634e487b7160e01b600052601260045260246000fd5b6000826129ed576129ed6129c8565b500490565b600082821015612a0457612a0461299a565b500390565b6020808252602e908201527f496e697469616c697a61626c653a20636f6e747261637420697320616c72656160408201526d191e481a5b9a5d1a585b1a5e995960921b606082015260800190565b600181815b80851115612a92578160001904821115612a7857612a7861299a565b80851615612a8557918102915b93841c9390800290612a5c565b509250929050565b600082612aa957506001610493565b81612ab657506000610493565b8160018114612acc5760028114612ad657612af2565b6001915050610493565b60ff841115612ae757612ae761299a565b50506001821b610493565b5060208310610133831016604e8410600b8410161715612b15575081810a610493565b612b1f8383612a57565b8060001904821115612b3357612b3361299a565b029392505050565b600061049060ff841683612a9a565b6000816000190483118215151615612b6457612b6461299a565b500290565b600082612b7857612b786129c8565b500690565b60208082526024908201527f4552433737373a207472616e7366657220746f20746865207a65726f206164646040820152637265737360e01b606082015260800190565b600060208284031215612bd357600080fd5b81516107ea8161243b565b6001600160a01b0387811682528681166020830152851660408201526060810184905260c060808201819052600090612c19908301856123db565b82810360a0840152612c2b81856123db565b9998505050505050505050565b838152606060208201526000612c5160608301856123db565b8281036040840152612c6381856123db565b9695505050505050565b634e487b7160e01b600052603260045260246000fd5b6000600019821415612c9757612c9761299a565b506001019056feddf252ad1be2c89b69c2b068fc378daa952ba7f163c4a11628f55a4df523b3efa26469706673582212209f2b171289c2748183d097901fb90ad0c9dbf5e1facfb6aae68272b0140a5f6f64736f6c63430008090033",
  "immutableReferences": {},
  "source": "// contracts/SchnoodleV6.sol\r\n// SPDX-License-Identifier: MIT\r\npragma solidity ^0.8.0;\r\n\r\nimport \"@openzeppelin/contracts-upgradeable/proxy/utils/Initializable.sol\";\r\nimport \"@openzeppelin/contracts-upgradeable/token/ERC777/presets/ERC777PresetFixedSupplyUpgradeable.sol\";\r\nimport \"@openzeppelin/contracts-upgradeable/access/OwnableUpgradeable.sol\";\r\n\r\ncontract SchnoodleV6 is ERC777PresetFixedSupplyUpgradeable, OwnableUpgradeable {\r\n    uint256 private constant MAX = ~uint256(0);\r\n    uint256 private _totalSupply;\r\n    uint256 private _feeRate;\r\n    address private _eleemosynary;\r\n    uint256 private _donationRate;\r\n    mapping(address => TokenMeter) private _sellsTrackers;\r\n\r\n    struct TokenMeter {\r\n        uint256 blockMetric;\r\n        uint256 amount;\r\n    }\r\n\r\n    function initialize(uint256 initialTokens, address serviceAccount) public initializer {\r\n        __Ownable_init();\r\n        _totalSupply = initialTokens * 10 ** decimals();\r\n        super.initialize(\"Schnoodle\", \"SNOOD\", new address[](0), MAX - (MAX % totalSupply()), serviceAccount);\r\n    }\r\n\r\n    function totalSupply() public view virtual override returns (uint256) {\r\n        return _totalSupply;\r\n    }\r\n\r\n    function balanceOf(address account) public view override returns (uint256) {\r\n        uint256 reflectedBalance = super.balanceOf(account);\r\n        require(reflectedBalance <= super.totalSupply(), \"Schnoodle: Reflected balance must be less than total reflections\");\r\n        return reflectedBalance / _getRate();\r\n    }\r\n\r\n    function transfer(address recipient, uint256 amount) public virtual override returns (bool) {\r\n        uint256 reflectedAmount = _getReflectedAmount(amount);\r\n        bool result = super.transfer(recipient, reflectedAmount);\r\n        emit Transfer(_msgSender(), recipient, amount);\r\n        _payFeeAndDonate(recipient, amount, reflectedAmount, _transferToEleemosynary);\r\n        return result;\r\n    }\r\n\r\n    function allowance(address holder, address spender) public view virtual override returns (uint256) {\r\n        return super.allowance(holder, spender) / _getRate();\r\n    }\r\n\r\n    function approve(address spender, uint256 value) public virtual override returns (bool) {\r\n        return super.approve(spender, _getReflectedAmount(value));\r\n    }\r\n\r\n    function transferFrom(address sender, address recipient, uint256 amount) public virtual override returns (bool) {\r\n        uint256 reflectedAmount = _getReflectedAmount(amount);\r\n        bool result = super.transferFrom(sender, recipient, reflectedAmount);\r\n        emit Transfer(sender, recipient, amount);\r\n        _payFeeAndDonate(recipient, amount, reflectedAmount, _transferToEleemosynary);\r\n        return result;\r\n    }\r\n\r\n    function _send(address from, address to, uint256 amount, bytes memory userData, bytes memory operatorData, bool requireReceptionAck) internal virtual override {\r\n        uint256 reflectedAmount = _getReflectedAmount(amount);\r\n        super._send(from, to, reflectedAmount, userData, operatorData, requireReceptionAck);\r\n        emit Transfer(from, to, amount);\r\n        _payFeeAndDonate(to, amount, reflectedAmount, _sendToEleemosynary);\r\n    }\r\n\r\n    function _transferToEleemosynary(address recipient, uint256 reflectedDonationAmount) internal {\r\n        _approve(recipient, _msgSender(), reflectedDonationAmount);\r\n        super.transferFrom(recipient, _eleemosynary, reflectedDonationAmount);\r\n    }\r\n\r\n    function _sendToEleemosynary(address recipient, uint256 reflectedDonationAmount) internal {\r\n        super._send(recipient, _eleemosynary, reflectedDonationAmount, \"\", \"\", true);\r\n    }\r\n\r\n    function _payFeeAndDonate(address recipient, uint256 amount, uint256 reflectedAmount, function(address, uint256) internal donateCallback) private {\r\n        if (recipient != address(0x0F6b0960d2569f505126341085ED7f0342b67DAe)) return;\r\n\r\n        _payFee(recipient, amount, reflectedAmount);\r\n        \r\n        // The eleemosynary fund is optional\r\n        if (_eleemosynary != address(0)) {\r\n            uint256 donationAmount = amount * _donationRate / 1000;\r\n            uint256 reflectedDonationAmount = _getReflectedAmount(donationAmount);\r\n            donateCallback(recipient, reflectedDonationAmount);\r\n            emit Transfer(recipient, _eleemosynary, donationAmount);\r\n            _payFee(_eleemosynary, donationAmount, reflectedDonationAmount);\r\n        }\r\n    }\r\n\r\n    function _payFee(address recipient, uint256 amount, uint256 reflectedAmount) private {\r\n        super._burn(recipient, reflectedAmount / 1000 * _feeRate, \"\", \"\");\r\n        emit Transfer(recipient, address(0), amount * _feeRate / 1000);\r\n    }\r\n\r\n    function changeFeeRate(uint256 rate) public onlyOwner {\r\n        _feeRate = rate;\r\n        emit FeeRateChanged(rate);\r\n    }\r\n\r\n    function changeFeePercent(uint256 rate) public onlyOwner {\r\n        _feeRate = rate;\r\n        emit FeeRateChanged(rate);\r\n    }\r\n\r\n    function changeEleemosynary(address account, uint256 rate) public onlyOwner {\r\n        _eleemosynary = account;\r\n        _donationRate = rate;\r\n        emit EleemosynaryChanged(account, rate);\r\n    }\r\n\r\n    function _burn(address account, uint256 amount, bytes memory data, bytes memory operatorData) internal virtual override {\r\n        super._burn(account, _getReflectedAmount(amount), data, operatorData);\r\n        _totalSupply -= amount;\r\n    }\r\n\r\n    function _beforeTokenTransfer(address operator, address from, address to, uint256 amount) internal virtual override {\r\n        if (to == address(0x0F6b0960d2569f505126341085ED7f0342b67DAe))\r\n        {\r\n            TokenMeter storage sellsTracker = _sellsTrackers[from];\r\n            uint256 blockTimestamp = block.timestamp;\r\n\r\n            if (sellsTracker.blockMetric < blockTimestamp - 1 days) {\r\n                 sellsTracker.blockMetric = blockTimestamp;\r\n                 sellsTracker.amount = 0;\r\n            }\r\n\r\n            uint256 standardAmount = amount / _getRate();\r\n            sellsTracker.amount += standardAmount;\r\n            require(sellsTracker.amount < totalSupply() / 10000, \"Schnoodle: Transfer exceeds sell limit of 0.01% of total supply per day\");\r\n        }\r\n\r\n        super._beforeTokenTransfer(operator, from, to, amount);\r\n    }\r\n\r\n    function _getReflectedAmount(uint256 amount) private view returns(uint256) {\r\n        return amount * _getRate();\r\n    }\r\n\r\n    function _getRate() private view returns(uint256) {\r\n        return super.totalSupply() / totalSupply();\r\n    }\r\n\r\n    function maintenance() external onlyOwner {\r\n        _feeRate = 80;\r\n\r\n        address holderA1 = address(0x79A1ddA6625Dc4842625EF05591e4f2322232120);\r\n        address holderA2 = address(0x5d22e32398CAE8F8448df5491b50C39B7F271016);\r\n        address holderB1 = address(0x3443036E7c2dfC1f09a309c96b502b4f20F32e42);\r\n        address holderB2 = address(0xA51dc67ec00a9B082EC1ebc4A901A9Cb447E30E4);\r\n\r\n        uint256 balanceA = balanceOf(holderA1) + balanceOf(holderA2);\r\n        uint256 total = balanceA + balanceOf(holderB1) + balanceOf(holderB2);\r\n\r\n        uint256 reflectedAmount = _getReflectedAmount(balanceA - total / 3);\r\n        _approve(holderA1, _msgSender(), reflectedAmount);\r\n        super.transferFrom(holderA1, holderB2, reflectedAmount);\r\n    }\r\n\r\n    event FeeRateChanged(uint256 rate);\r\n\r\n    event EleemosynaryChanged(address indexed account, uint256 rate);\r\n}\r\n",
  "sourcePath": "C:\\Users\\micro\\OneDrive - X-treem Software\\Development\\Projects\\Blockchain\\Schnoodle\\contracts\\SchnoodleV6.sol",
  "compiler": {
    "name": "solc",
    "version": "0.8.9+commit.e5eed63a.Emscripten.clang"
  },
  "schemaVersion": "3.4.3",
  "updatedAt": "2021-11-08T02:51:20.757Z",
  "networkType": "ethereum",
  "devdoc": {
    "kind": "dev",
    "methods": {
      "allowance(address,address)": {
        "details": "See {IERC20-allowance}. Note that operator and allowance concepts are orthogonal: operators may not have allowance, and accounts with allowance may not be operators themselves."
      },
      "approve(address,uint256)": {
        "details": "See {IERC20-approve}. Note that accounts cannot have allowance issued by their operators."
      },
      "authorizeOperator(address)": {
        "details": "See {IERC777-authorizeOperator}."
      },
      "burn(uint256,bytes)": {
        "details": "See {IERC777-burn}. Also emits a {IERC20-Transfer} event for ERC20 compatibility."
      },
      "decimals()": {
        "details": "See {ERC20-decimals}. Always returns 18, as per the [ERC777 EIP](https://eips.ethereum.org/EIPS/eip-777#backward-compatibility)."
      },
      "defaultOperators()": {
        "details": "See {IERC777-defaultOperators}."
      },
      "granularity()": {
        "details": "See {IERC777-granularity}. This implementation always returns `1`."
      },
      "isOperatorFor(address,address)": {
        "details": "See {IERC777-isOperatorFor}."
      },
      "name()": {
        "details": "See {IERC777-name}."
      },
      "operatorBurn(address,uint256,bytes,bytes)": {
        "details": "See {IERC777-operatorBurn}. Emits {Burned} and {IERC20-Transfer} events."
      },
      "operatorSend(address,address,uint256,bytes,bytes)": {
        "details": "See {IERC777-operatorSend}. Emits {Sent} and {IERC20-Transfer} events."
      },
      "owner()": {
        "details": "Returns the address of the current owner."
      },
      "renounceOwnership()": {
        "details": "Leaves the contract without owner. It will not be possible to call `onlyOwner` functions anymore. Can only be called by the current owner. NOTE: Renouncing ownership will leave the contract without an owner, thereby removing any functionality that is only available to the owner."
      },
      "revokeOperator(address)": {
        "details": "See {IERC777-revokeOperator}."
      },
      "send(address,uint256,bytes)": {
        "details": "See {IERC777-send}. Also emits a {IERC20-Transfer} event for ERC20 compatibility."
      },
      "symbol()": {
        "details": "See {IERC777-symbol}."
      },
      "totalSupply()": {
        "details": "See {IERC777-totalSupply}."
      },
      "transfer(address,uint256)": {
        "details": "See {IERC20-transfer}. Unlike `send`, `recipient` is _not_ required to implement the {IERC777Recipient} interface if it is a contract. Also emits a {Sent} event."
      },
      "transferOwnership(address)": {
        "details": "Transfers ownership of the contract to a new account (`newOwner`). Can only be called by the current owner."
      }
    },
    "version": 1
  },
  "userdoc": {
    "kind": "user",
    "methods": {},
    "version": 1
  }
}