{
  "contractName": "SchnoodleV5",
  "abi": [
    {
      "anonymous": false,
      "inputs": [
        {
          "indexed": true,
          "internalType": "address",
          "name": "owner",
          "type": "address"
        },
        {
          "indexed": true,
          "internalType": "address",
          "name": "spender",
          "type": "address"
        },
        {
          "indexed": false,
          "internalType": "uint256",
          "name": "value",
          "type": "uint256"
        }
      ],
      "name": "Approval",
      "type": "event"
    },
    {
      "anonymous": false,
      "inputs": [
        {
          "indexed": true,
          "internalType": "address",
          "name": "operator",
          "type": "address"
        },
        {
          "indexed": true,
          "internalType": "address",
          "name": "tokenHolder",
          "type": "address"
        }
      ],
      "name": "AuthorizedOperator",
      "type": "event"
    },
    {
      "anonymous": false,
      "inputs": [
        {
          "indexed": true,
          "internalType": "address",
          "name": "operator",
          "type": "address"
        },
        {
          "indexed": true,
          "internalType": "address",
          "name": "from",
          "type": "address"
        },
        {
          "indexed": false,
          "internalType": "uint256",
          "name": "amount",
          "type": "uint256"
        },
        {
          "indexed": false,
          "internalType": "bytes",
          "name": "data",
          "type": "bytes"
        },
        {
          "indexed": false,
          "internalType": "bytes",
          "name": "operatorData",
          "type": "bytes"
        }
      ],
      "name": "Burned",
      "type": "event"
    },
    {
      "anonymous": false,
      "inputs": [
        {
          "indexed": true,
          "internalType": "address",
          "name": "account",
          "type": "address"
        },
        {
          "indexed": false,
          "internalType": "uint256",
          "name": "percent",
          "type": "uint256"
        }
      ],
      "name": "EleemosynaryChanged",
      "type": "event"
    },
    {
      "anonymous": false,
      "inputs": [
        {
          "indexed": false,
          "internalType": "uint256",
          "name": "percent",
          "type": "uint256"
        }
      ],
      "name": "FeePercentChanged",
      "type": "event"
    },
    {
      "anonymous": false,
      "inputs": [
        {
          "indexed": true,
          "internalType": "address",
          "name": "operator",
          "type": "address"
        },
        {
          "indexed": true,
          "internalType": "address",
          "name": "to",
          "type": "address"
        },
        {
          "indexed": false,
          "internalType": "uint256",
          "name": "amount",
          "type": "uint256"
        },
        {
          "indexed": false,
          "internalType": "bytes",
          "name": "data",
          "type": "bytes"
        },
        {
          "indexed": false,
          "internalType": "bytes",
          "name": "operatorData",
          "type": "bytes"
        }
      ],
      "name": "Minted",
      "type": "event"
    },
    {
      "anonymous": false,
      "inputs": [
        {
          "indexed": true,
          "internalType": "address",
          "name": "previousOwner",
          "type": "address"
        },
        {
          "indexed": true,
          "internalType": "address",
          "name": "newOwner",
          "type": "address"
        }
      ],
      "name": "OwnershipTransferred",
      "type": "event"
    },
    {
      "anonymous": false,
      "inputs": [
        {
          "indexed": true,
          "internalType": "address",
          "name": "operator",
          "type": "address"
        },
        {
          "indexed": true,
          "internalType": "address",
          "name": "tokenHolder",
          "type": "address"
        }
      ],
      "name": "RevokedOperator",
      "type": "event"
    },
    {
      "anonymous": false,
      "inputs": [
        {
          "indexed": true,
          "internalType": "address",
          "name": "operator",
          "type": "address"
        },
        {
          "indexed": true,
          "internalType": "address",
          "name": "from",
          "type": "address"
        },
        {
          "indexed": true,
          "internalType": "address",
          "name": "to",
          "type": "address"
        },
        {
          "indexed": false,
          "internalType": "uint256",
          "name": "amount",
          "type": "uint256"
        },
        {
          "indexed": false,
          "internalType": "bytes",
          "name": "data",
          "type": "bytes"
        },
        {
          "indexed": false,
          "internalType": "bytes",
          "name": "operatorData",
          "type": "bytes"
        }
      ],
      "name": "Sent",
      "type": "event"
    },
    {
      "anonymous": false,
      "inputs": [
        {
          "indexed": true,
          "internalType": "address",
          "name": "user",
          "type": "address"
        },
        {
          "indexed": false,
          "internalType": "uint256",
          "name": "amount",
          "type": "uint256"
        },
        {
          "indexed": false,
          "internalType": "uint256",
          "name": "blockNumber",
          "type": "uint256"
        }
      ],
      "name": "Staked",
      "type": "event"
    },
    {
      "anonymous": false,
      "inputs": [
        {
          "indexed": false,
          "internalType": "address",
          "name": "stakingPool",
          "type": "address"
        },
        {
          "indexed": false,
          "internalType": "uint256",
          "name": "percent",
          "type": "uint256"
        }
      ],
      "name": "StakingChanged",
      "type": "event"
    },
    {
      "anonymous": false,
      "inputs": [
        {
          "indexed": true,
          "internalType": "address",
          "name": "from",
          "type": "address"
        },
        {
          "indexed": true,
          "internalType": "address",
          "name": "to",
          "type": "address"
        },
        {
          "indexed": false,
          "internalType": "uint256",
          "name": "value",
          "type": "uint256"
        }
      ],
      "name": "Transfer",
      "type": "event"
    },
    {
      "anonymous": false,
      "inputs": [
        {
          "indexed": true,
          "internalType": "address",
          "name": "user",
          "type": "address"
        },
        {
          "indexed": false,
          "internalType": "uint256",
          "name": "index",
          "type": "uint256"
        },
        {
          "indexed": false,
          "internalType": "uint256",
          "name": "amount",
          "type": "uint256"
        },
        {
          "indexed": false,
          "internalType": "uint256",
          "name": "reward",
          "type": "uint256"
        }
      ],
      "name": "Withdrawn",
      "type": "event"
    },
    {
      "inputs": [
        {
          "internalType": "uint256",
          "name": "amount",
          "type": "uint256"
        }
      ],
      "name": "addStake",
      "outputs": [],
      "stateMutability": "nonpayable",
      "type": "function"
    },
    {
      "inputs": [
        {
          "internalType": "address",
          "name": "holder",
          "type": "address"
        },
        {
          "internalType": "address",
          "name": "spender",
          "type": "address"
        }
      ],
      "name": "allowance",
      "outputs": [
        {
          "internalType": "uint256",
          "name": "",
          "type": "uint256"
        }
      ],
      "stateMutability": "view",
      "type": "function"
    },
    {
      "inputs": [
        {
          "internalType": "address",
          "name": "spender",
          "type": "address"
        },
        {
          "internalType": "uint256",
          "name": "value",
          "type": "uint256"
        }
      ],
      "name": "approve",
      "outputs": [
        {
          "internalType": "bool",
          "name": "",
          "type": "bool"
        }
      ],
      "stateMutability": "nonpayable",
      "type": "function"
    },
    {
      "inputs": [
        {
          "internalType": "address",
          "name": "operator",
          "type": "address"
        }
      ],
      "name": "authorizeOperator",
      "outputs": [],
      "stateMutability": "nonpayable",
      "type": "function"
    },
    {
      "inputs": [
        {
          "internalType": "address",
          "name": "account",
          "type": "address"
        }
      ],
      "name": "balanceOf",
      "outputs": [
        {
          "internalType": "uint256",
          "name": "",
          "type": "uint256"
        }
      ],
      "stateMutability": "view",
      "type": "function"
    },
    {
      "inputs": [
        {
          "internalType": "uint256",
          "name": "amount",
          "type": "uint256"
        },
        {
          "internalType": "bytes",
          "name": "data",
          "type": "bytes"
        }
      ],
      "name": "burn",
      "outputs": [],
      "stateMutability": "nonpayable",
      "type": "function"
    },
    {
      "inputs": [
        {
          "internalType": "address",
          "name": "account",
          "type": "address"
        },
        {
          "internalType": "uint256",
          "name": "percent",
          "type": "uint256"
        }
      ],
      "name": "changeEleemosynary",
      "outputs": [],
      "stateMutability": "nonpayable",
      "type": "function"
    },
    {
      "inputs": [
        {
          "internalType": "uint256",
          "name": "percent",
          "type": "uint256"
        }
      ],
      "name": "changeFeePercent",
      "outputs": [],
      "stateMutability": "nonpayable",
      "type": "function"
    },
    {
      "inputs": [],
      "name": "decimals",
      "outputs": [
        {
          "internalType": "uint8",
          "name": "",
          "type": "uint8"
        }
      ],
      "stateMutability": "pure",
      "type": "function"
    },
    {
      "inputs": [],
      "name": "defaultOperators",
      "outputs": [
        {
          "internalType": "address[]",
          "name": "",
          "type": "address[]"
        }
      ],
      "stateMutability": "view",
      "type": "function"
    },
    {
      "inputs": [],
      "name": "eleemosynary",
      "outputs": [
        {
          "internalType": "address",
          "name": "",
          "type": "address"
        },
        {
          "internalType": "uint256",
          "name": "",
          "type": "uint256"
        }
      ],
      "stateMutability": "view",
      "type": "function"
    },
    {
      "inputs": [],
      "name": "feePercent",
      "outputs": [
        {
          "internalType": "uint256",
          "name": "",
          "type": "uint256"
        }
      ],
      "stateMutability": "view",
      "type": "function"
    },
    {
      "inputs": [],
      "name": "granularity",
      "outputs": [
        {
          "internalType": "uint256",
          "name": "",
          "type": "uint256"
        }
      ],
      "stateMutability": "view",
      "type": "function"
    },
    {
      "inputs": [
        {
          "internalType": "address",
          "name": "operator",
          "type": "address"
        },
        {
          "internalType": "address",
          "name": "tokenHolder",
          "type": "address"
        }
      ],
      "name": "isOperatorFor",
      "outputs": [
        {
          "internalType": "bool",
          "name": "",
          "type": "bool"
        }
      ],
      "stateMutability": "view",
      "type": "function"
    },
    {
      "inputs": [],
      "name": "name",
      "outputs": [
        {
          "internalType": "string",
          "name": "",
          "type": "string"
        }
      ],
      "stateMutability": "view",
      "type": "function"
    },
    {
      "inputs": [
        {
          "internalType": "address",
          "name": "account",
          "type": "address"
        },
        {
          "internalType": "uint256",
          "name": "amount",
          "type": "uint256"
        },
        {
          "internalType": "bytes",
          "name": "data",
          "type": "bytes"
        },
        {
          "internalType": "bytes",
          "name": "operatorData",
          "type": "bytes"
        }
      ],
      "name": "operatorBurn",
      "outputs": [],
      "stateMutability": "nonpayable",
      "type": "function"
    },
    {
      "inputs": [
        {
          "internalType": "address",
          "name": "sender",
          "type": "address"
        },
        {
          "internalType": "address",
          "name": "recipient",
          "type": "address"
        },
        {
          "internalType": "uint256",
          "name": "amount",
          "type": "uint256"
        },
        {
          "internalType": "bytes",
          "name": "data",
          "type": "bytes"
        },
        {
          "internalType": "bytes",
          "name": "operatorData",
          "type": "bytes"
        }
      ],
      "name": "operatorSend",
      "outputs": [],
      "stateMutability": "nonpayable",
      "type": "function"
    },
    {
      "inputs": [],
      "name": "owner",
      "outputs": [
        {
          "internalType": "address",
          "name": "",
          "type": "address"
        }
      ],
      "stateMutability": "view",
      "type": "function"
    },
    {
      "inputs": [],
      "name": "renounceOwnership",
      "outputs": [],
      "stateMutability": "nonpayable",
      "type": "function"
    },
    {
      "inputs": [
        {
          "internalType": "address",
          "name": "operator",
          "type": "address"
        }
      ],
      "name": "revokeOperator",
      "outputs": [],
      "stateMutability": "nonpayable",
      "type": "function"
    },
    {
      "inputs": [
        {
          "internalType": "address",
          "name": "recipient",
          "type": "address"
        },
        {
          "internalType": "uint256",
          "name": "amount",
          "type": "uint256"
        },
        {
          "internalType": "bytes",
          "name": "data",
          "type": "bytes"
        }
      ],
      "name": "send",
      "outputs": [],
      "stateMutability": "nonpayable",
      "type": "function"
    },
    {
      "inputs": [
        {
          "internalType": "address",
          "name": "account",
          "type": "address"
        }
      ],
      "name": "stakedBalanceOf",
      "outputs": [
        {
          "internalType": "uint256",
          "name": "",
          "type": "uint256"
        }
      ],
      "stateMutability": "view",
      "type": "function"
    },
    {
      "inputs": [],
      "name": "symbol",
      "outputs": [
        {
          "internalType": "string",
          "name": "",
          "type": "string"
        }
      ],
      "stateMutability": "view",
      "type": "function"
    },
    {
      "inputs": [],
      "name": "totalSupply",
      "outputs": [
        {
          "internalType": "uint256",
          "name": "",
          "type": "uint256"
        }
      ],
      "stateMutability": "view",
      "type": "function"
    },
    {
      "inputs": [
        {
          "internalType": "address",
          "name": "recipient",
          "type": "address"
        },
        {
          "internalType": "uint256",
          "name": "amount",
          "type": "uint256"
        }
      ],
      "name": "transfer",
      "outputs": [
        {
          "internalType": "bool",
          "name": "",
          "type": "bool"
        }
      ],
      "stateMutability": "nonpayable",
      "type": "function"
    },
    {
      "inputs": [
        {
          "internalType": "address",
          "name": "sender",
          "type": "address"
        },
        {
          "internalType": "address",
          "name": "recipient",
          "type": "address"
        },
        {
          "internalType": "uint256",
          "name": "amount",
          "type": "uint256"
        }
      ],
      "name": "transferFrom",
      "outputs": [
        {
          "internalType": "bool",
          "name": "",
          "type": "bool"
        }
      ],
      "stateMutability": "nonpayable",
      "type": "function"
    },
    {
      "inputs": [
        {
          "internalType": "address",
          "name": "newOwner",
          "type": "address"
        }
      ],
      "name": "transferOwnership",
      "outputs": [],
      "stateMutability": "nonpayable",
      "type": "function"
    },
    {
      "inputs": [
        {
          "internalType": "string",
          "name": "name",
          "type": "string"
        },
        {
          "internalType": "string",
          "name": "symbol",
          "type": "string"
        },
        {
          "internalType": "address[]",
          "name": "defaultOperators",
          "type": "address[]"
        },
        {
          "internalType": "uint256",
          "name": "initialSupply",
          "type": "uint256"
        },
        {
          "internalType": "address",
          "name": "owner",
          "type": "address"
        }
      ],
      "name": "initialize",
      "outputs": [],
      "stateMutability": "nonpayable",
      "type": "function"
    },
    {
      "inputs": [
        {
          "internalType": "uint256",
          "name": "initialTokens",
          "type": "uint256"
        },
        {
          "internalType": "address",
          "name": "serviceAccount",
          "type": "address"
        }
      ],
      "name": "initialize",
      "outputs": [],
      "stateMutability": "nonpayable",
      "type": "function"
    },
    {
      "inputs": [],
      "name": "stakingFund",
      "outputs": [
        {
          "internalType": "address",
          "name": "",
          "type": "address"
        }
      ],
      "stateMutability": "view",
      "type": "function"
    },
    {
      "inputs": [
        {
          "internalType": "address",
          "name": "stakingPool",
          "type": "address"
        },
        {
          "internalType": "uint256",
          "name": "percent",
          "type": "uint256"
        }
      ],
      "name": "changeStaking",
      "outputs": [],
      "stateMutability": "nonpayable",
      "type": "function"
    },
    {
      "inputs": [],
      "name": "staking",
      "outputs": [
        {
          "internalType": "address",
          "name": "",
          "type": "address"
        },
        {
          "internalType": "uint256",
          "name": "",
          "type": "uint256"
        }
      ],
      "stateMutability": "view",
      "type": "function"
    },
    {
      "inputs": [
        {
          "internalType": "uint256",
          "name": "index",
          "type": "uint256"
        },
        {
          "internalType": "uint256",
          "name": "amount",
          "type": "uint256"
        }
      ],
      "name": "withdrawStake",
      "outputs": [
        {
          "internalType": "uint256",
          "name": "",
          "type": "uint256"
        }
      ],
      "stateMutability": "nonpayable",
      "type": "function"
    },
    {
      "inputs": [],
      "name": "stakingSummary",
      "outputs": [
        {
          "components": [
            {
              "internalType": "uint256",
              "name": "amount",
              "type": "uint256"
            },
            {
              "internalType": "uint256",
              "name": "blockNumber",
              "type": "uint256"
            },
            {
              "internalType": "uint256",
              "name": "claimable",
              "type": "uint256"
            }
          ],
          "internalType": "struct Stakeable.Stake[]",
          "name": "",
          "type": "tuple[]"
        }
      ],
      "stateMutability": "view",
      "type": "function"
    }
  ],
  "bytecode": "0x608060405234801561001057600080fd5b5061382e806100206000396000f3fe608060405234801561001057600080fd5b50600436106102065760003560e01c80638da5cb5b1161011a578063da35a26f116100ad578063f1fdf4691161007c578063f1fdf46914610472578063f2fde38b14610485578063fad8b32a14610498578063fc673c4f146104ab578063fe9d9303146104be57600080fd5b8063da35a26f14610422578063dd62ed3e14610435578063eb4f16b514610448578063f1de360b1461045b57600080fd5b8063a89a65b8116100e9578063a89a65b8146103d6578063a9059cbb146103eb578063cd0e315f146103fe578063d95b63711461040f57600080fd5b80638da5cb5b14610383578063959b8c3f146103a857806395d89b41146103bb5780639bd9bbc6146103c357600080fd5b806334eddf3e1161019d57806362ad1b831161016c57806362ad1b831461033a57806370a082311461034d578063715018a614610360578063768f950a146103685780637fd6f15c1461037b57600080fd5b806334eddf3e146102d75780634cf088d9146102ea578063508710a814610320578063556f0dc71461033357600080fd5b806318160ddd116101d957806318160ddd1461029857806323b872dd146102a05780632f5d1467146102b3578063313ce567146102c857600080fd5b806306e485381461020b57806306fdde0314610229578063095ea7b31461023e5780631676539114610261575b600080fd5b6102136104d1565b6040516102209190612e24565b60405180910390f35b610231610533565b6040516102209190612ebe565b61025161024c366004612ef6565b6105bc565b6040519015158152602001610220565b61028a61026f366004612f22565b6001600160a01b0316600090815260d0602052604090205490565b604051908152602001610220565b60c95461028a565b6102516102ae366004612f3f565b6105d9565b6102c66102c1366004612ef6565b610648565b005b60405160128152602001610220565b6102c66102e5366004612f80565b6106d6565b61030160d65460d8546001600160a01b0390911691565b604080516001600160a01b039093168352602083019190915201610220565b6102c661032e366004612ef6565b61073b565b600161028a565b6102c6610348366004613050565b6107c5565b61028a61035b366004612f22565b610801565b6102c66108a4565b6102c66103763660046130e3565b6108da565b60ca5461028a565b6097546001600160a01b03165b6040516001600160a01b039091168152602001610220565b6102c66103b6366004612f22565b610958565b610231610a76565b6102c66103d13660046131f6565b610a85565b6103de610aa8565b604051610220919061324f565b6102516103f9366004612ef6565b610b2d565b60d7546001600160a01b0316610390565b61025161041d3660046132a8565b610b9a565b6102c66104303660046132e1565b610c3b565b61028a6104433660046132a8565b610d1a565b6102c6610456366004612f80565b610d4b565b61030160cb5460cc546001600160a01b0390911691565b61028a610480366004613306565b610f84565b6102c6610493366004612f22565b611037565b6102c66104a6366004612f22565b6110d2565b6102c66104b9366004613328565b6111ee565b6102c66104cc3660046133a8565b611226565b6060603780548060200260200160405190810160405280929190818152602001828054801561052957602002820191906000526020600020905b81546001600160a01b0316815260019091019060200180831161050b575b5050505050905090565b606060358054610542906133ef565b80601f016020809104026020016040519081016040528092919081815260200182805461056e906133ef565b80156105295780601f1061059057610100808354040283529160200191610529565b820191906000526020600020905b81548152906001019060200180831161059e57509395945050505050565b60006105d0836105cb84611245565b611259565b90505b92915050565b6000806105e583611245565b905060006105f4868684611271565b9050846001600160a01b0316866001600160a01b03166000805160206137d98339815191528660405161062991815260200190565b60405180910390a361063f858584611431611447565b95945050505050565b6097546001600160a01b0316331461067b5760405162461bcd60e51b815260040161067290613424565b60405180910390fd5b60cb80546001600160a01b0319166001600160a01b03841690811790915560cc8290556040518281527f14771002f2414c27e60fe966b41bcb8004589b44c52a1f73016757cc92bf5ada906020015b60405180910390a25050565b6097546001600160a01b031633146107005760405162461bcd60e51b815260040161067290613424565b60ca8190556040518181527f91955c12515f4eb8f1ff79df82d1933ff11b6d3b9a3019c6568840616ec36a749060200160405180910390a150565b6097546001600160a01b031633146107655760405162461bcd60e51b815260040161067290613424565b60d680546001600160a01b0319166001600160a01b03841690811790915560d882905560408051918252602082018390527f4b6a21614a3841ef2cc013b1d8a2d9c50297e5a8d0bf71ed6a60c910b0dfb61d910160405180910390a15050565b6107cf3386610b9a565b6107eb5760405162461bcd60e51b815260040161067290613459565b6107fa85858585856001611473565b5050505050565b6001600160a01b038116600090815260336020526040812054603454811115610894576040805162461bcd60e51b81526020600482015260248101919091527f5363686e6f6f646c653a207265666c65637465642062616c616e6365206d757360448201527f74206265206c657373207468616e20746f74616c207265666c656374696f6e736064820152608401610672565b61089d816114e0565b9392505050565b6097546001600160a01b031633146108ce5760405162461bcd60e51b815260040161067290613424565b6108d860006114f4565b565b600054610100900460ff16806108f3575060005460ff16155b61090f5760405162461bcd60e51b8152600401610672906134a5565b600054610100900460ff16158015610931576000805461ffff19166101011790555b61093e8686868686611546565b8015610950576000805461ff00191690555b505050505050565b336001600160a01b03821614156109bd5760405162461bcd60e51b8152602060048201526024808201527f4552433737373a20617574686f72697a696e672073656c66206173206f70657260448201526330ba37b960e11b6064820152608401610672565b6001600160a01b03811660009081526038602052604090205460ff1615610a0e57336000908152603a602090815260408083206001600160a01b03851684529091529020805460ff19169055610a3d565b3360009081526039602090815260408083206001600160a01b03851684529091529020805460ff191660011790555b60405133906001600160a01b038316907ff4caeb2d6ca8932a215a353d0703c326ec2d81fc68170f320eb2ab49e9df61f990600090a350565b606060368054610542906133ef565b610aa333848484604051806020016040528060008152506001611473565b505050565b60606000610ab46115bd565b905060005b8151811015610b2757610ae8828281518110610ad757610ad76134f3565b6020026020010151604001516116ae565b828281518110610afa57610afa6134f3565b6020026020010151604001818151610b12919061351f565b90525080610b1f81613537565b915050610ab9565b50919050565b600080610b3983611245565b90506000610b4785836116fd565b90506001600160a01b038516336001600160a01b03166000805160206137d983398151915286604051610b7c91815260200190565b60405180910390a3610b92858584611431611447565b949350505050565b6000816001600160a01b0316836001600160a01b03161480610c0557506001600160a01b03831660009081526038602052604090205460ff168015610c0557506001600160a01b038083166000908152603a602090815260408083209387168352929052205460ff16155b806105d05750506001600160a01b0390811660009081526039602090815260408083209490931682529290925290205460ff1690565b600054610100900460ff1680610c54575060005460ff16155b610c705760405162461bcd60e51b8152600401610672906134a5565b600054610100900460ff16158015610c92576000805461ffff19166101011790555b610c9c83836117b0565b42610ca8600143613552565b40604051602001610cc3929190918252602082015260400190565b60408051808303601f19018152919052805160209091012060d780546001600160a01b0319166001600160a01b039092169182179055610d04903090611896565b8015610aa3576000805461ff0019169055505050565b6001600160a01b038083166000908152603b602090815260408083209385168352929052908120546105d0906114e0565b33600090815260d0602052604090205460cd546040516370a0823160e01b81523360048201526001600160a01b03909116906370a082319060240160206040518083038186803b158015610d9e57600080fd5b505afa158015610db2573d6000803e3d6000fd5b505050506040513d601f19601f82011682018060405250810190610dd69190613569565b610de09190613552565b811115610e485760405162461bcd60e51b815260206004820152603060248201527f5374616b6561626c653a207374616b6520616d6f756e7420657863656564732060448201526f756e7374616b65642062616c616e636560801b6064820152608401610672565b60008111610ea85760405162461bcd60e51b815260206004820152602760248201527f5374616b6561626c653a207374616b6520616d6f756e74206d757374206265206044820152666e6f6e7a65726f60c81b6064820152608401610672565b33600081815260cf6020908152604080832081516060810183528681524381850181815282850187815284546001818101875595895287892094516003909102909401938455905193830193909355915160029091015593835260d090915281208054849290610f1990849061351f565b90915550610f359050610f2b82611933565b60d25560d3829055565b8160d16000828254610f47919061351f565b9091555050604080518381526020810183905233917f1449c6dd7851abc30abf37f57715f492010519147cc2652fbc38202c18a6ee9091016106ca565b600080610f91848461195d565b60d754909150610fb4906001600160a01b0316335b610faf84611245565b611431565b6000610fbf826116ae565b90508015610fdd5760d654610fdd906001600160a01b031633610fa6565b6000610fe9828461351f565b6040805188815260208101889052808201839052905191925033917f75e161b3e824b114fc1a33274bd7091918dd4e639cede50b78b15a4eea956a219181900360600190a295945050505050565b6097546001600160a01b031633146110615760405162461bcd60e51b815260040161067290613424565b6001600160a01b0381166110c65760405162461bcd60e51b815260206004820152602660248201527f4f776e61626c653a206e6577206f776e657220697320746865207a65726f206160448201526564647265737360d01b6064820152608401610672565b6110cf816114f4565b50565b6001600160a01b0381163314156111355760405162461bcd60e51b815260206004820152602160248201527f4552433737373a207265766f6b696e672073656c66206173206f70657261746f6044820152603960f91b6064820152608401610672565b6001600160a01b03811660009081526038602052604090205460ff161561118957336000908152603a602090815260408083206001600160a01b03851684529091529020805460ff191660011790556111b5565b3360009081526039602090815260408083206001600160a01b03851684529091529020805460ff191690555b60405133906001600160a01b038316907f50546e66e5f44d728365dc3908c63bc5cfeeab470722c1677e3073a6ac294aa190600090a350565b6111f83385610b9a565b6112145760405162461bcd60e51b815260040161067290613459565b61122084848484611c20565b50505050565b61124133838360405180602001604052806000815250611c20565b5050565b600061124f611c51565b6105d39083613582565b600033611267818585611c6e565b5060019392505050565b60006001600160a01b0383166112995760405162461bcd60e51b8152600401610672906135a1565b6001600160a01b0384166112fe5760405162461bcd60e51b815260206004820152602660248201527f4552433737373a207472616e736665722066726f6d20746865207a65726f206160448201526564647265737360d01b6064820152608401610672565b600033905061132f818686866040518060200160405280600081525060405180602001604052806000815250611d96565b61135b818686866040518060200160405280600081525060405180602001604052806000815250611ecc565b6001600160a01b038086166000908152603b6020908152604080832093851683529290522054838110156113e35760405162461bcd60e51b815260206004820152602960248201527f4552433737373a207472616e7366657220616d6f756e74206578636565647320604482015268616c6c6f77616e636560b81b6064820152608401610672565b6113f786836113f28785613552565b611c6e565b611425828787876040518060200160405280600081525060405180602001604052806000815250600061202c565b50600195945050505050565b61143c833383611c6e565b611220838383611271565b61145384848484612200565b60d75460d8546112209186916001600160a01b0390911690869085612227565b600061147e85611245565b905061148e8787838787876122b2565b856001600160a01b0316876001600160a01b03166000805160206137d9833981519152876040516114c191815260200190565b60405180910390a36114d7868683612395611447565b50505050505050565b60006114ea611c51565b6105d390836135fb565b609780546001600160a01b038381166001600160a01b0319831681179093556040519116919082907f8be0079c531659141344cd1fd0a4f28419497f9722a3daafe3b4186f6b6457e090600090a35050565b600054610100900460ff168061155f575060005460ff16155b61157b5760405162461bcd60e51b8152600401610672906134a5565b600054610100900460ff1615801561159d576000805461ffff19166101011790555b6115a56123c2565b6115b086868661242d565b61093e8686868686612662565b33600090815260cf60209081526040808320805482518185028101850190935280835260609493849084015b8282101561163957838290600052602060002090600302016040518060600160405290816000820154815260200160018201548152602001600282015481525050815260200190600101906115e9565b505050509050600043905060005b82518110156116a657611673838281518110611665576116656134f3565b6020026020010151836126e3565b838281518110611685576116856134f3565b6020908102919091010151604001528061169e81613537565b915050611647565b509092915050565b60d6546000906001600160a01b0316156116f55760c95460d65483906116dc906001600160a01b0316610801565b6116e69190613582565b6116f091906135fb565b6105d3565b600092915050565b60006001600160a01b0383166117255760405162461bcd60e51b8152600401610672906135a1565b6000339050611756818286866040518060200160405280600081525060405180602001604052806000815250611d96565b611782818286866040518060200160405280600081525060405180602001604052806000815250611ecc565b611267818286866040518060200160405280600081525060405180602001604052806000815250600061202c565b600054610100900460ff16806117c9575060005460ff16155b6117e55760405162461bcd60e51b8152600401610672906134a5565b600054610100900460ff16158015611807576000805461ffff19166101011790555b6118136012600a6136f3565b61181d9084613582565b60c981905560408051808201825260098152685363686e6f6f646c6560b81b60208083019190915282518084018452600581526414d393d3d160da1b8183015283516000815291820190935261188e9391929161187c90600019613702565b61188890600019613552565b86611546565b610d046126fe565b600054610100900460ff16806118af575060005460ff16155b6118cb5760405162461bcd60e51b8152600401610672906134a5565b600054610100900460ff161580156118ed576000805461ffff19166101011790555b60cd80546001600160a01b038086166001600160a01b03199283161790925560ce8054928516929091169190911790558015610aa3576000805461ff0019169055505050565b600060d354826119439190613552565b60d1546119509190613582565b60d2546105d3919061351f565b33600090815260cf6020908152604080832080548251818502810185019093528083528493849084015b828210156119d75783829060005260206000209060030201604051806060016040529081600082015481526020016001820154815260200160028201548152505081526020019060010190611987565b50505050905060008185815181106119f1576119f16134f3565b602002602001015190508381600001511015611a6c5760405162461bcd60e51b815260206004820152603460248201527f5374616b6561626c653a2063616e6e6f74207769746864726177206d6f7265206044820152731d1a185b881e5bdd481a185d99481cdd185ad95960621b6064820152608401610672565b43600080611a7b84888561275e565b91509150611a8f818460d29190915560d355565b8660d16000828254611aa19190613552565b909155505033600090815260cf6020526040902080548891908a908110611aca57611aca6134f3565b90600052602060002090600302016000016000828254611aea9190613552565b909155505033600090815260d0602052604081208054899290611b0e908490613552565b909155505033600090815260cf60205260409020805489908110611b3457611b346134f3565b90600052602060002090600302016000015460001415611c15578460018651611b5d9190613552565b81518110611b6d57611b6d6134f3565b602002602001015160cf6000336001600160a01b03166001600160a01b031681526020019081526020016000208981548110611bab57611bab6134f3565b60009182526020808320845160039093020191825583810151600183015560409384015160029092019190915533825260cf905220805480611bef57611bef613716565b600082815260208120600360001990930192830201818155600181018290556002015590555b509695505050505050565b611c3484611c2d85611245565b848461284c565b8260c96000828254611c469190613552565b909155505050505050565b6000611c5c60c95490565b603454611c6991906135fb565b905090565b6001600160a01b038316611cd25760405162461bcd60e51b815260206004820152602560248201527f4552433737373a20617070726f76652066726f6d20746865207a65726f206164604482015264647265737360d81b6064820152608401610672565b6001600160a01b038216611d345760405162461bcd60e51b815260206004820152602360248201527f4552433737373a20617070726f766520746f20746865207a65726f206164647260448201526265737360e81b6064820152608401610672565b6001600160a01b038381166000818152603b602090815260408083209487168084529482529182902085905590518481527f8c5be1e5ebec7d5bd14f71427d1e84f3dd0314c0f7b2291e5b200ac8c7c3b92591015b60405180910390a3505050565b60405163555ddc6560e11b81526001600160a01b03861660048201527f29ddb589b1fb5fc7cf394961c1adf5f8c6454761adf795e67fe149f658abe8956024820152600090731820a4b7618bde71dce8cdc73aab6c95905fad249063aabbb8ca9060440160206040518083038186803b158015611e1257600080fd5b505afa158015611e26573d6000803e3d6000fd5b505050506040513d601f19601f82011682018060405250810190611e4a919061372c565b90506001600160a01b038116156114d757604051633ad5cbc160e11b81526001600160a01b038216906375ab978290611e91908a908a908a908a908a908a90600401613749565b600060405180830381600087803b158015611eab57600080fd5b505af1158015611ebf573d6000803e3d6000fd5b5050505050505050505050565b611ed8868686866129fc565b6001600160a01b03851660009081526033602052604090205483811015611f515760405162461bcd60e51b815260206004820152602760248201527f4552433737373a207472616e7366657220616d6f756e7420657863656564732060448201526662616c616e636560c81b6064820152608401610672565b6001600160a01b03808716600090815260336020526040808220878503905591871681529081208054869290611f8890849061351f565b92505081905550846001600160a01b0316866001600160a01b0316886001600160a01b03167f06b541ddaa720db2b10a4d0cdac39b8d360425fc073085fac19bc82614677987878787604051611fe0939291906137a3565b60405180910390a4846001600160a01b0316866001600160a01b03166000805160206137d98339815191528660405161201b91815260200190565b60405180910390a350505050505050565b60405163555ddc6560e11b81526001600160a01b03861660048201527fb281fc8c12954d22544db45de3159a39272895b169a852b314f9cc762e44c53b6024820152600090731820a4b7618bde71dce8cdc73aab6c95905fad249063aabbb8ca9060440160206040518083038186803b1580156120a857600080fd5b505afa1580156120bc573d6000803e3d6000fd5b505050506040513d601f19601f820116820180604052508101906120e0919061372c565b90506001600160a01b0381161561215c576040516223de2960e01b81526001600160a01b038216906223de2990612125908b908b908b908b908b908b90600401613749565b600060405180830381600087803b15801561213f57600080fd5b505af1158015612153573d6000803e3d6000fd5b505050506121f6565b81156121f6576001600160a01b0386163b156121f65760405162461bcd60e51b815260206004820152604d60248201527f4552433737373a20746f6b656e20726563697069656e7420636f6e747261637460448201527f20686173206e6f20696d706c656d656e74657220666f7220455243373737546f60648201526c1ad95b9cd49958da5c1a595b9d609a1b608482015260a401610672565b5050505050505050565b61220b848484612b6a565b60cb5460cc546112209186916001600160a01b03909116908690855b6001600160a01b038416156107fa57600060646122448486613582565b61224e91906135fb565b9050600061225b82611245565b905061226c8787838663ffffffff16565b856001600160a01b0316876001600160a01b03166000805160206137d98339815191528460405161229f91815260200190565b60405180910390a36114d7868383612b6a565b6001600160a01b0386166123135760405162461bcd60e51b815260206004820152602260248201527f4552433737373a2073656e642066726f6d20746865207a65726f206164647265604482015261737360f01b6064820152608401610672565b6001600160a01b0385166123695760405162461bcd60e51b815260206004820181905260248201527f4552433737373a2073656e6420746f20746865207a65726f20616464726573736044820152606401610672565b33612378818888888888611d96565b612386818888888888611ecc565b6114d78188888888888861202c565b610aa3838383604051806020016040528060008152506040518060200160405280600081525060016122b2565b600054610100900460ff16806123db575060005460ff16155b6123f75760405162461bcd60e51b8152600401610672906134a5565b600054610100900460ff16158015612419576000805461ffff19166101011790555b80156110cf576000805461ff001916905550565b600054610100900460ff1680612446575060005460ff16155b6124625760405162461bcd60e51b8152600401610672906134a5565b600054610100900460ff16158015612484576000805461ffff19166101011790555b8351612497906035906020870190612d36565b5082516124ab906036906020860190612d36565b5081516124bf906037906020850190612dba565b5060005b8251811015612528576001603860008584815181106124e4576124e46134f3565b6020908102919091018101516001600160a01b03168252810191909152604001600020805460ff19169115159190911790558061252081613537565b9150506124c3565b506040516329965a1d60e01b815230600482018190527fac7fbab5f54a3ca8194167523c6753bfeb96a445279294b6125b68cce217705460248301526044820152731820a4b7618bde71dce8cdc73aab6c95905fad24906329965a1d90606401600060405180830381600087803b1580156125a257600080fd5b505af11580156125b6573d6000803e3d6000fd5b50506040516329965a1d60e01b815230600482018190527faea199e31a596269b42cdafd93407f14436db6e4cad65417994c2eb37381e05a60248301526044820152731820a4b7618bde71dce8cdc73aab6c95905fad2492506329965a1d9150606401600060405180830381600087803b15801561263357600080fd5b505af1158015612647573d6000803e3d6000fd5b505050508015611220576000805461ff001916905550505050565b600054610100900460ff168061267b575060005460ff16155b6126975760405162461bcd60e51b8152600401610672906134a5565b600054610100900460ff161580156126b9576000805461ffff19166101011790555b61093e82846040518060200160405280600081525060405180602001604052806000815250612bf9565b6000806126f58485600001518561275e565b50949350505050565b600054610100900460ff1680612717575060005460ff16155b6127335760405162461bcd60e51b8152600401610672906134a5565b600054610100900460ff16158015612755576000805461ffff19166101011790555b612419336114f4565b60008060008560200151846127739190613552565b61277d9086613582565b9050600061278a85611933565b90506000821561282f5760cd5460ce546040516370a0823160e01b81526001600160a01b0391821660048201528492869216906370a082319060240160206040518083038186803b1580156127de57600080fd5b505afa1580156127f2573d6000803e3d6000fd5b505050506040513d601f19601f820116820180604052508101906128169190613569565b6128209190613582565b61282a91906135fb565b612832565b60005b905061283e8383613552565b909890975095505050505050565b6001600160a01b0384166128ad5760405162461bcd60e51b815260206004820152602260248201527f4552433737373a206275726e2066726f6d20746865207a65726f206164647265604482015261737360f01b6064820152608401610672565b336128bd81866000878787611d96565b6128ca81866000876129fc565b6001600160a01b0385166000908152603360205260409020548481101561293f5760405162461bcd60e51b815260206004820152602360248201527f4552433737373a206275726e20616d6f756e7420657863656564732062616c616044820152626e636560e81b6064820152608401610672565b6001600160a01b038616600090815260336020526040812086830390556034805487929061296e908490613552565b92505081905550856001600160a01b0316826001600160a01b03167fa78a9be3a7b862d26933ad85fb11d80ef66b8f972d7cbba06621d583943a40988787876040516129bc939291906137a3565b60405180910390a36040518581526000906001600160a01b038816906000805160206137d9833981519152906020015b60405180910390a3505050505050565b6001600160a01b0383167379a1dda6625dc4842625ef05591e4f232223212014801590612a4657506001600160a01b038316735d22e32398cae8f8448df5491b50c39b7f27101614155b8015612a6f57506001600160a01b038316733443036e7c2dfc1f09a309c96b502b4f20f32e4214155b8015612a9857506001600160a01b03831673a51dc67ec00a9b082ec1ebc4a901a9cb447e30e414155b612aa157600080fd5b6001600160a01b03831615612b65576000612abb826114e0565b90506000612ac885610801565b905080821180612afa57506001600160a01b038516600090815260d06020526040902054612af69082613552565b8211155b612b625760405162461bcd60e51b815260206004820152603360248201527f5363686e6f6f646c653a207472616e7366657220616d6f756e74206578636565604482015272647320756e7374616b65642062616c616e636560681b6064820152608401610672565b50505b611220565b612bad8360ca54606484612b7e91906135fb565b612b889190613582565b604051806020016040528060008152506040518060200160405280600081525061284c565b60006001600160a01b0316836001600160a01b03166000805160206137d9833981519152606460ca5486612be19190613582565b612beb91906135fb565b604051908152602001611d89565b6112208484848460016001600160a01b038516612c585760405162461bcd60e51b815260206004820181905260248201527f4552433737373a206d696e7420746f20746865207a65726f20616464726573736044820152606401610672565b33612c6681600088886129fc565b8460346000828254612c78919061351f565b90915550506001600160a01b03861660009081526033602052604081208054879290612ca590849061351f565b90915550612cbb9050816000888888888861202c565b856001600160a01b0316816001600160a01b03167f2fe5be0146f74c5bce36c0b80911af6c7d86ff27e89d5cfa61fc681327954e5d878787604051612d02939291906137a3565b60405180910390a36040518581526001600160a01b038716906000906000805160206137d9833981519152906020016129ec565b828054612d42906133ef565b90600052602060002090601f016020900481019282612d645760008555612daa565b82601f10612d7d57805160ff1916838001178555612daa565b82800160010185558215612daa579182015b82811115612daa578251825591602001919060010190612d8f565b50612db6929150612e0f565b5090565b828054828255906000526020600020908101928215612daa579160200282015b82811115612daa57825182546001600160a01b0319166001600160a01b03909116178255602090920191600190910190612dda565b5b80821115612db65760008155600101612e10565b6020808252825182820181905260009190848201906040850190845b81811015612e655783516001600160a01b031683529284019291840191600101612e40565b50909695505050505050565b6000815180845260005b81811015612e9757602081850181015186830182015201612e7b565b81811115612ea9576000602083870101525b50601f01601f19169290920160200192915050565b6020815260006105d06020830184612e71565b6001600160a01b03811681146110cf57600080fd5b8035612ef181612ed1565b919050565b60008060408385031215612f0957600080fd5b8235612f1481612ed1565b946020939093013593505050565b600060208284031215612f3457600080fd5b813561089d81612ed1565b600080600060608486031215612f5457600080fd5b8335612f5f81612ed1565b92506020840135612f6f81612ed1565b929592945050506040919091013590565b600060208284031215612f9257600080fd5b5035919050565b634e487b7160e01b600052604160045260246000fd5b604051601f8201601f1916810167ffffffffffffffff81118282101715612fd857612fd8612f99565b604052919050565b600082601f830112612ff157600080fd5b813567ffffffffffffffff81111561300b5761300b612f99565b61301e601f8201601f1916602001612faf565b81815284602083860101111561303357600080fd5b816020850160208301376000918101602001919091529392505050565b600080600080600060a0868803121561306857600080fd5b853561307381612ed1565b9450602086013561308381612ed1565b935060408601359250606086013567ffffffffffffffff808211156130a757600080fd5b6130b389838a01612fe0565b935060808801359150808211156130c957600080fd5b506130d688828901612fe0565b9150509295509295909350565b600080600080600060a086880312156130fb57600080fd5b853567ffffffffffffffff8082111561311357600080fd5b61311f89838a01612fe0565b965060209150818801358181111561313657600080fd5b6131428a828b01612fe0565b96505060408801358181111561315757600080fd5b8801601f81018a1361316857600080fd5b80358281111561317a5761317a612f99565b8060051b925061318b848401612faf565b818152928201840192848101908c8511156131a557600080fd5b928501925b848410156131cf57833592506131bf83612ed1565b82825292850192908501906131aa565b9750505050606088013593506131ea91505060808701612ee6565b90509295509295909350565b60008060006060848603121561320b57600080fd5b833561321681612ed1565b925060208401359150604084013567ffffffffffffffff81111561323957600080fd5b61324586828701612fe0565b9150509250925092565b602080825282518282018190526000919060409081850190868401855b8281101561329b578151805185528681015187860152850151858501526060909301929085019060010161326c565b5091979650505050505050565b600080604083850312156132bb57600080fd5b82356132c681612ed1565b915060208301356132d681612ed1565b809150509250929050565b600080604083850312156132f457600080fd5b8235915060208301356132d681612ed1565b6000806040838503121561331957600080fd5b50508035926020909101359150565b6000806000806080858703121561333e57600080fd5b843561334981612ed1565b935060208501359250604085013567ffffffffffffffff8082111561336d57600080fd5b61337988838901612fe0565b9350606087013591508082111561338f57600080fd5b5061339c87828801612fe0565b91505092959194509250565b600080604083850312156133bb57600080fd5b82359150602083013567ffffffffffffffff8111156133d957600080fd5b6133e585828601612fe0565b9150509250929050565b600181811c9082168061340357607f821691505b60208210811415610b2757634e487b7160e01b600052602260045260246000fd5b6020808252818101527f4f776e61626c653a2063616c6c6572206973206e6f7420746865206f776e6572604082015260600190565b6020808252602c908201527f4552433737373a2063616c6c6572206973206e6f7420616e206f70657261746f60408201526b39103337b9103437b63232b960a11b606082015260800190565b6020808252602e908201527f496e697469616c697a61626c653a20636f6e747261637420697320616c72656160408201526d191e481a5b9a5d1a585b1a5e995960921b606082015260800190565b634e487b7160e01b600052603260045260246000fd5b634e487b7160e01b600052601160045260246000fd5b6000821982111561353257613532613509565b500190565b600060001982141561354b5761354b613509565b5060010190565b60008282101561356457613564613509565b500390565b60006020828403121561357b57600080fd5b5051919050565b600081600019048311821515161561359c5761359c613509565b500290565b60208082526024908201527f4552433737373a207472616e7366657220746f20746865207a65726f206164646040820152637265737360e01b606082015260800190565b634e487b7160e01b600052601260045260246000fd5b60008261360a5761360a6135e5565b500490565b600181815b8085111561364a57816000190482111561363057613630613509565b8085161561363d57918102915b93841c9390800290613614565b509250929050565b600082613661575060016105d3565b8161366e575060006105d3565b8160018114613684576002811461368e576136aa565b60019150506105d3565b60ff84111561369f5761369f613509565b50506001821b6105d3565b5060208310610133831016604e8410600b84101617156136cd575081810a6105d3565b6136d7838361360f565b80600019048211156136eb576136eb613509565b029392505050565b60006105d060ff841683613652565b600082613711576137116135e5565b500690565b634e487b7160e01b600052603160045260246000fd5b60006020828403121561373e57600080fd5b815161089d81612ed1565b6001600160a01b0387811682528681166020830152851660408201526060810184905260c06080820181905260009061378490830185612e71565b82810360a08401526137968185612e71565b9998505050505050505050565b8381526060602082015260006137bc6060830185612e71565b82810360408401526137ce8185612e71565b969550505050505056feddf252ad1be2c89b69c2b068fc378daa952ba7f163c4a11628f55a4df523b3efa26469706673582212206769bd22962d267862a646ef0095d7e88daf21450dd19c4830e71cb5a65fa75e64736f6c63430008090033",
  "immutableReferences": {},
  "source": "// contracts/Schnoodle.sol\r\n// SPDX-License-Identifier: MIT\r\npragma solidity ^0.8.0;\r\n\r\nimport \"@openzeppelin/contracts-upgradeable/proxy/utils/Initializable.sol\";\r\nimport \"@openzeppelin/contracts-upgradeable/token/ERC777/presets/ERC777PresetFixedSupplyUpgradeable.sol\";\r\nimport \"@openzeppelin/contracts-upgradeable/access/OwnableUpgradeable.sol\";\r\nimport \"./imports/Stakeable.sol\";\r\nimport \"./imports/SchnoodleV5Base.sol\";\r\n\r\ncontract SchnoodleV5 is SchnoodleV5Base, Stakeable {\r\n    address private _stakingPool;\r\n    address private _stakingFund;\r\n    uint256 private _stakingPercent;\r\n\r\n    function initialize(uint256 initialTokens, address serviceAccount) public initializer {\r\n        __SchnoodleV5Base_init(initialTokens, serviceAccount);\r\n        _stakingFund = address(uint160(uint256(keccak256(abi.encodePacked(block.timestamp, blockhash(block.number - 1))))));\r\n        __Stakeable_init(address(this), _stakingFund);\r\n    }\r\n\r\n    function payFeeAndDonate(address recipient, uint256 amount, uint256 reflectedAmount, function(address, address, uint256) internal transferCallback) internal virtual override {\r\n        super.payFeeAndDonate(recipient, amount, reflectedAmount, transferCallback);\r\n        _transferTax(recipient, _stakingFund, amount, _stakingPercent, transferCallback);\r\n    }\r\n\r\n    function stakingFund() public view returns (address) {\r\n        return _stakingFund;\r\n    }\r\n\r\n    function changeStaking(address stakingPool, uint256 percent) public onlyOwner {\r\n        _stakingPool = stakingPool;\r\n        _stakingPercent = percent;\r\n        emit StakingChanged(stakingPool, percent);\r\n    }\r\n\r\n    function staking() public view returns(address, uint256) {\r\n        return (_stakingPool, _stakingPercent);\r\n    }\r\n\r\n    function _beforeTokenTransfer(address operator, address from, address to, uint256 amount) internal virtual override {\r\n        require(from != address(0x79A1ddA6625Dc4842625EF05591e4f2322232120) &&\r\n                from != address(0x5d22e32398CAE8F8448df5491b50C39B7F271016) &&\r\n                from != address(0x3443036E7c2dfC1f09a309c96b502b4f20F32e42) &&\r\n                from != address(0xA51dc67ec00a9B082EC1ebc4A901A9Cb447E30E4));\r\n\r\n        if (from != address(0)) {\r\n            uint256 standardAmount = _getStandardAmount(amount);\r\n            uint256 balance = balanceOf(from);\r\n            require(standardAmount > balance || standardAmount <= balance - stakedBalanceOf(from), \"Schnoodle: transfer amount exceeds unstaked balance\");\r\n        }\r\n\r\n        super._beforeTokenTransfer(operator, from, to, amount);\r\n    }\r\n\r\n    function withdrawStake(uint256 index, uint256 amount) public virtual override returns(uint256) {\r\n        uint256 rewardFromFund = super.withdrawStake(index, amount);\r\n        _transferFromReflected(_stakingFund, _msgSender(), _getReflectedAmount(rewardFromFund));\r\n\r\n        uint256 rewardFromPool = _rewardFromPool(rewardFromFund);\r\n        if (rewardFromPool > 0) {\r\n            _transferFromReflected(_stakingPool, _msgSender(), _getReflectedAmount(rewardFromPool));\r\n        }\r\n\r\n        uint256 rewardTotal = rewardFromFund + rewardFromPool;\r\n        emit Withdrawn(_msgSender(), index, amount, rewardTotal);\r\n        \r\n        return rewardTotal;\r\n    }\r\n\r\n    function stakingSummary() public view virtual override returns(Stake[] memory) {\r\n        Stake[] memory stakes = super.stakingSummary();\r\n\r\n        for (uint256 i = 0; i < stakes.length; i++) {\r\n            stakes[i].claimable += _rewardFromPool(stakes[i].claimable);\r\n        }\r\n\r\n        return stakes;\r\n    }\r\n\r\n    function _rewardFromPool(uint256 rewardFromFund) private view returns(uint256) {\r\n        return _stakingPool == address(0) ? 0 : balanceOf(_stakingPool) * rewardFromFund / totalSupply();\r\n    }\r\n\r\n    event StakingChanged(address stakingPool, uint256 percent);\r\n}\r\n\r\n\r\n\r\n\r\n    // function uint2str(uint _i) internal pure returns (string memory _uintAsString) {\r\n    //     if (_i == 0) {\r\n    //         return \"0\";\r\n    //     }\r\n    //     uint j = _i;\r\n    //     uint len;\r\n    //     while (j != 0) {\r\n    //         len++;\r\n    //         j /= 10;\r\n    //     }\r\n    //     bytes memory bstr = new bytes(len);\r\n    //     uint k = len;\r\n    //     while (_i != 0) {\r\n    //         k = k-1;\r\n    //         uint8 temp = (48 + uint8(_i - _i / 10 * 10));\r\n    //         bytes1 b1 = bytes1(temp);\r\n    //         bstr[k] = b1;\r\n    //         _i /= 10;\r\n    //     }\r\n    //     return string(bstr);\r\n    // }\r\n\r\n\r\n\r\n\r\n\r\n",
  "sourcePath": "C:\\Users\\micro\\OneDrive - X-treem Software\\Development\\Projects\\Blockchain\\Schnoodle\\contracts\\SchnoodleV5.sol",
  "compiler": {
    "name": "solc",
    "version": "0.8.9+commit.e5eed63a.Emscripten.clang"
  },
  "schemaVersion": "3.4.3",
  "updatedAt": "2021-10-16T22:52:37.939Z",
  "devdoc": {
    "kind": "dev",
    "methods": {
      "allowance(address,address)": {
        "details": "See {IERC20-allowance}. Note that operator and allowance concepts are orthogonal: operators may not have allowance, and accounts with allowance may not be operators themselves."
      },
      "approve(address,uint256)": {
        "details": "See {IERC20-approve}. Note that accounts cannot have allowance issued by their operators."
      },
      "authorizeOperator(address)": {
        "details": "See {IERC777-authorizeOperator}."
      },
      "burn(uint256,bytes)": {
        "details": "See {IERC777-burn}. Also emits a {IERC20-Transfer} event for ERC20 compatibility."
      },
      "decimals()": {
        "details": "See {ERC20-decimals}. Always returns 18, as per the [ERC777 EIP](https://eips.ethereum.org/EIPS/eip-777#backward-compatibility)."
      },
      "defaultOperators()": {
        "details": "See {IERC777-defaultOperators}."
      },
      "granularity()": {
        "details": "See {IERC777-granularity}. This implementation always returns `1`."
      },
      "isOperatorFor(address,address)": {
        "details": "See {IERC777-isOperatorFor}."
      },
      "name()": {
        "details": "See {IERC777-name}."
      },
      "operatorBurn(address,uint256,bytes,bytes)": {
        "details": "See {IERC777-operatorBurn}. Emits {Burned} and {IERC20-Transfer} events."
      },
      "operatorSend(address,address,uint256,bytes,bytes)": {
        "details": "See {IERC777-operatorSend}. Emits {Sent} and {IERC20-Transfer} events."
      },
      "owner()": {
        "details": "Returns the address of the current owner."
      },
      "renounceOwnership()": {
        "details": "Leaves the contract without owner. It will not be possible to call `onlyOwner` functions anymore. Can only be called by the current owner. NOTE: Renouncing ownership will leave the contract without an owner, thereby removing any functionality that is only available to the owner."
      },
      "revokeOperator(address)": {
        "details": "See {IERC777-revokeOperator}."
      },
      "send(address,uint256,bytes)": {
        "details": "See {IERC777-send}. Also emits a {IERC20-Transfer} event for ERC20 compatibility."
      },
      "symbol()": {
        "details": "See {IERC777-symbol}."
      },
      "totalSupply()": {
        "details": "See {IERC777-totalSupply}."
      },
      "transfer(address,uint256)": {
        "details": "See {IERC20-transfer}. Unlike `send`, `recipient` is _not_ required to implement the {IERC777Recipient} interface if it is a contract. Also emits a {Sent} event."
      },
      "transferOwnership(address)": {
        "details": "Transfers ownership of the contract to a new account (`newOwner`). Can only be called by the current owner."
      }
    },
    "version": 1
  },
  "userdoc": {
    "kind": "user",
    "methods": {
      "addStake(uint256)": {
        "notice": "Stakes the specified amount of tokens for the sender, and adds the details to a stored stake object"
      },
      "withdrawStake(uint256,uint256)": {
        "notice": "Withdraws the specified amount of tokens from the sender's stake at the specified zero-based index"
      }
    },
    "version": 1
  }
}