{
  "contractName": "SchnoodleStakingV1",
  "abi": [
    {
      "anonymous": false,
      "inputs": [
        {
          "indexed": true,
          "internalType": "address",
          "name": "previousOwner",
          "type": "address"
        },
        {
          "indexed": true,
          "internalType": "address",
          "name": "newOwner",
          "type": "address"
        }
      ],
      "name": "OwnershipTransferred",
      "type": "event"
    },
    {
      "anonymous": false,
      "inputs": [
        {
          "indexed": true,
          "internalType": "address",
          "name": "account",
          "type": "address"
        },
        {
          "indexed": false,
          "internalType": "uint256",
          "name": "amount",
          "type": "uint256"
        },
        {
          "indexed": false,
          "internalType": "uint256",
          "name": "blockNumber",
          "type": "uint256"
        }
      ],
      "name": "Staked",
      "type": "event"
    },
    {
      "anonymous": false,
      "inputs": [
        {
          "indexed": true,
          "internalType": "address",
          "name": "account",
          "type": "address"
        },
        {
          "indexed": false,
          "internalType": "uint256",
          "name": "index",
          "type": "uint256"
        },
        {
          "indexed": false,
          "internalType": "uint256",
          "name": "amount",
          "type": "uint256"
        },
        {
          "indexed": false,
          "internalType": "uint256",
          "name": "netReward",
          "type": "uint256"
        },
        {
          "indexed": false,
          "internalType": "uint256",
          "name": "grossReward",
          "type": "uint256"
        }
      ],
      "name": "Withdrawn",
      "type": "event"
    },
    {
      "inputs": [],
      "name": "owner",
      "outputs": [
        {
          "internalType": "address",
          "name": "",
          "type": "address"
        }
      ],
      "stateMutability": "view",
      "type": "function"
    },
    {
      "inputs": [],
      "name": "renounceOwnership",
      "outputs": [],
      "stateMutability": "nonpayable",
      "type": "function"
    },
    {
      "inputs": [
        {
          "internalType": "address",
          "name": "newOwner",
          "type": "address"
        }
      ],
      "name": "transferOwnership",
      "outputs": [],
      "stateMutability": "nonpayable",
      "type": "function"
    },
    {
      "inputs": [
        {
          "internalType": "address",
          "name": "schnoodle",
          "type": "address"
        }
      ],
      "name": "initialize",
      "outputs": [],
      "stateMutability": "nonpayable",
      "type": "function"
    },
    {
      "inputs": [
        {
          "internalType": "uint256",
          "name": "amount",
          "type": "uint256"
        },
        {
          "internalType": "uint256",
          "name": "vestingBlocks",
          "type": "uint256"
        }
      ],
      "name": "addStake",
      "outputs": [],
      "stateMutability": "nonpayable",
      "type": "function"
    },
    {
      "inputs": [
        {
          "internalType": "uint256",
          "name": "index",
          "type": "uint256"
        },
        {
          "internalType": "uint256",
          "name": "amount",
          "type": "uint256"
        }
      ],
      "name": "withdraw",
      "outputs": [],
      "stateMutability": "nonpayable",
      "type": "function"
    },
    {
      "inputs": [
        {
          "internalType": "uint256",
          "name": "k",
          "type": "uint256"
        },
        {
          "internalType": "uint256",
          "name": "a",
          "type": "uint256"
        }
      ],
      "name": "changeSigmoidParams",
      "outputs": [],
      "stateMutability": "nonpayable",
      "type": "function"
    },
    {
      "inputs": [],
      "name": "sigmoidParams",
      "outputs": [
        {
          "components": [
            {
              "internalType": "uint256",
              "name": "k",
              "type": "uint256"
            },
            {
              "internalType": "uint256",
              "name": "a",
              "type": "uint256"
            }
          ],
          "internalType": "struct SchnoodleStakingV1.SigmoidParams",
          "name": "",
          "type": "tuple"
        }
      ],
      "stateMutability": "view",
      "type": "function"
    },
    {
      "inputs": [
        {
          "internalType": "address",
          "name": "account",
          "type": "address"
        }
      ],
      "name": "stakedBalanceOf",
      "outputs": [
        {
          "internalType": "uint256",
          "name": "",
          "type": "uint256"
        }
      ],
      "stateMutability": "view",
      "type": "function"
    },
    {
      "inputs": [
        {
          "internalType": "address",
          "name": "account",
          "type": "address"
        }
      ],
      "name": "stakingSummary",
      "outputs": [
        {
          "components": [
            {
              "internalType": "uint256",
              "name": "amount",
              "type": "uint256"
            },
            {
              "internalType": "uint256",
              "name": "blockNumber",
              "type": "uint256"
            },
            {
              "internalType": "uint256",
              "name": "vestingBlocks",
              "type": "uint256"
            },
            {
              "internalType": "uint256",
              "name": "claimable",
              "type": "uint256"
            }
          ],
          "internalType": "struct SchnoodleStakingV1.Stake[]",
          "name": "",
          "type": "tuple[]"
        }
      ],
      "stateMutability": "nonpayable",
      "type": "function"
    }
  ],
  "bytecode": "0x608060405234801561001057600080fd5b50612237806100206000396000f3fe608060405234801561001057600080fd5b506004361061009e5760003560e01c80638da5cb5b116100665780638da5cb5b14610133578063c4d66de81461014e578063c5af253a14610161578063f2fde38b1461019f578063fd2b5202146101b257600080fd5b80630dc243f0146100a357806316765391146100cc578063441a3e7014610103578063453a375814610118578063715018a61461012b575b600080fd5b6100b66100b1366004611e8e565b6101c5565b6040516100c39190611eab565b60405180910390f35b6100f56100da366004611e8e565b6001600160a01b031660009081526067602052604090205490565b6040519081526020016100c3565b610116610111366004611f0f565b6102ca565b005b610116610126366004611f0f565b6106b1565b6101166106f9565b6033546040516001600160a01b0390911681526020016100c3565b61011661015c366004611e8e565b61072f565b604080518082018252600080825260209182015281518083018352606c54808252606d549183019182528351908152905191810191909152016100c3565b6101166101ad366004611e8e565b6107de565b6101166101c0366004611f0f565b610879565b6001600160a01b0381166000908152606660209081526040808320805482518185028101850190935280835260609493849084015b828210156102545783829060005260206000209060040201604051806080016040529081600082015481526020016001820154815260200160028201548152602001600382015481525050815260200190600101906101fa565b505050509050600043905060005b82518110156102c15761028e83828151811061028057610280611f31565b602002602001015183610a45565b8382815181106102a0576102a0611f31565b602090810291909101015160600152806102b981611f5d565b915050610262565b50909392505050565b33600081815260666020908152604080832080548251818502810185019093528083529192909190849084015b828210156103515783829060005260206000209060040201604051806080016040529081600082015481526020016001820154815260200160028201548152602001600382015481525050815260200190600101906102f7565b505050509050600081858151811061036b5761036b611f31565b6020026020010151905083816000015110156103e95760405162461bcd60e51b815260206004820152603260248201527f5363686e6f6f646c655374616b696e673a2063616e6e6f7420776974686472616044820152711dc81b5bdc99481d1a185b881cdd185ad95960721b60648201526084015b60405180910390fd5b60408101516020820151439182916104019190611f78565b106104745760405162461bcd60e51b815260206004820152603760248201527f5363686e6f6f646c655374616b696e673a2063616e6e6f74207769746864726160448201527f7720647572696e672076657374696e6720626c6f636b7300000000000000000060648201526084016103e0565b6000806000610484858986610a62565b9250925092506104a38861049790611f90565b82868860400151610b77565b6001600160a01b038716600090815260666020526040902080548991908b9081106104d0576104d0611f31565b906000526020600020906004020160000160008282546104f09190611fad565b90915550506001600160a01b038716600090815260676020526040812080548a929061051d908490611fad565b90915550506001600160a01b038716600090815260666020526040902080548a90811061054c5761054c611f31565b906000526020600020906004020160000154600014156106485785600187516105759190611fad565b8151811061058557610585611f31565b602002602001015160666000896001600160a01b03166001600160a01b031681526020019081526020016000208a815481106105c3576105c3611f31565b60009182526020808320845160049093020191825583810151600183015560408085015160028401556060909401516003909201919091556001600160a01b038a168252606690522080548061061b5761061b611fc4565b60008281526020812060046000199093019283020181815560018101829055600281018290556003015590555b610653878484610bb2565b604080518a8152602081018a9052908101849052606081018390526001600160a01b038816907f94ffd6b85c71b847775c89ef6496b93cee961bdc6ff827fd117f174f06f745ae9060800160405180910390a2505050505050505050565b6033546001600160a01b031633146106db5760405162461bcd60e51b81526004016103e090611fda565b60408051808201909152828152602001819052606c91909155606d55565b6033546001600160a01b031633146107235760405162461bcd60e51b81526004016103e090611fda565b61072d6000610c6c565b565b600054610100900460ff1680610748575060005460ff16155b6107645760405162461bcd60e51b81526004016103e09061200f565b600054610100900460ff16158015610786576000805461ffff19166101011790555b61078e610cbe565b606580546001600160a01b0319166001600160a01b03841617905560408051808201909152600580825260016020909201829052606c55606d5580156107da576000805461ff00191690555b5050565b6033546001600160a01b031633146108085760405162461bcd60e51b81526004016103e090611fda565b6001600160a01b03811661086d5760405162461bcd60e51b815260206004820152602660248201527f4f776e61626c653a206e6577206f776e657220697320746865207a65726f206160448201526564647265737360d01b60648201526084016103e0565b61087681610c6c565b50565b3360008181526067602052604090205461089282610d39565b61089c9190611fad565b8311156109115760405162461bcd60e51b815260206004820152603760248201527f5363686e6f6f646c655374616b696e673a207374616b6520616d6f756e74206560448201527f78636565647320756e7374616b65642062616c616e636500000000000000000060648201526084016103e0565b600083116109595760405162461bcd60e51b81526020600482015260156024820152745374616b65206d757374206265206e6f6e7a65726f60581b60448201526064016103e0565b6001600160a01b03811660008181526066602090815260408083208151608081018352888152438185018181528285018a815260608401888152855460018181018855968a52888a20955160049091029095019485559151948401949094559251600283015591516003909101559383526067909152812080548692906109e1908490611f78565b909155506109fb9050846109f483610e02565b8386610b77565b60408051858152602081018390526001600160a01b038416917f1449c6dd7851abc30abf37f57715f492010519147cc2652fbc38202c18a6ee90910160405180910390a250505050565b600080610a5784856000015185610a62565b509095945050505050565b600080600080866020015185610a789190611fad565b610a82908761205d565b90506000610a8f86610e02565b9050600080600084118015610aa657506000606b54115b15610b68576000606854606b54610abd9190612092565b90506000610b09610aec610ade606c60000154610ad990611f90565b610e32565b610ae785610e65565b610e7c565b610b04848f60400151610aff9190611fad565b610e65565b610edc565b90506103e88587610b20610b1b610f12565b610d39565b610b2a919061205d565b610b349190612092565b94508085610b428385610fcb565b610b4c919061205d565b610b569190612092565b9350610b628787611fad565b95505050505b99909850909650945050505050565b6069839055606a829055606854610b8f9085906120b4565b606855610b9c81856120f5565b606b54610ba991906120b4565b606b5550505050565b6065546040516001600160a01b0385811660248301526044820185905260648201849052600092169060840160408051601f198184030181529181526020820180516001600160e01b031663303f28db60e11b17905251610c13919061217a565b6000604051808303816000865af19150503d8060008114610c50576040519150601f19603f3d011682016040523d82523d6000602084013e610c55565b606091505b5050905080610c6657610c666121b5565b50505050565b603380546001600160a01b038381166001600160a01b0319831681179093556040519116919082907f8be0079c531659141344cd1fd0a4f28419497f9722a3daafe3b4186f6b6457e090600090a35050565b600054610100900460ff1680610cd7575060005460ff16155b610cf35760405162461bcd60e51b81526004016103e09061200f565b600054610100900460ff16158015610d15576000805461ffff19166101011790555b610d1d611021565b610d2561108b565b8015610876576000805461ff001916905550565b6065546040516001600160a01b038381166024830152600092839283929091169060440160408051601f198184030181529181526020820180516001600160e01b03166370a0823160e01b17905251610d92919061217a565b6000604051808303816000865af19150503d8060008114610dcf576040519150601f19603f3d011682016040523d82523d6000602084013e610dd4565b606091505b509150915081610de657610de66121b5565b80806020019051810190610dfa91906121cb565b949350505050565b6000606a5482610e129190611fad565b606854610e1f919061205d565b606954610e2c9190611f78565b92915050565b6000677fffffffffffffff198212158015610e555750677fffffffffffffff8213155b610e5e57600080fd5b5060401b90565b6000677fffffffffffffff821115610e5e57600080fd5b600081600f0b60001415610e8f57600080fd5b600082600f0b604085600f0b901b81610eaa57610eaa61207c565b05905060016001607f1b03198112801590610ecc575060016001607f1b038113155b610ed557600080fd5b9392505050565b6000600f83810b9083900b0260401d60016001607f1b03198112801590610ecc575060016001607f1b03811315610ed557600080fd5b60655460408051600481526024810182526020810180516001600160e01b031663cd0e315f60e01b1790529051600092839283926001600160a01b0390921691610f5c919061217a565b6000604051808303816000865af19150503d8060008114610f99576040519150601f19603f3d011682016040523d82523d6000602084013e610f9e565b606091505b509150915081610fb057610fb06121b5565b80806020019051810190610fc491906121e4565b9250505090565b600080610fd86001610e65565b905061100f61100a610fe986610e65565b610b0484610ae786611005610ffd8b6110eb565b606d54611140565b611371565b6113a4565b67ffffffffffffffff16949350505050565b600054610100900460ff168061103a575060005460ff16155b6110565760405162461bcd60e51b81526004016103e09061200f565b600054610100900460ff16158015610d25576000805461ffff19166101011790558015610876576000805461ff001916905550565b600054610100900460ff16806110a4575060005460ff16155b6110c05760405162461bcd60e51b81526004016103e09061200f565b600054610100900460ff161580156110e2576000805461ffff19166101011790555b610d2533610c6c565b6000600160461b82600f0b1261110057600080fd5b683fffffffffffffffff1982600f0b121561111d57506000919050565b610e2c608083600f0b700171547652b82fe1777d0ffda0d23a7d1202901d6113c0565b600080600084600f0b1280156111595750826001166001145b905060008085600f0b1261116d5784611172565b846000035b6fffffffffffffffffffffffffffffffff169050600160801b68010000000000000000821161121557603f82901b91505b841561120d5760018516156111b8578102607f1c5b908002607f1c9060028516156111ce578102607f1c5b908002607f1c9060048516156111e4578102607f1c5b908002607f1c9060088516156111fa578102607f1c5b60049490941c93908002607f1c906111a3565b60401c61132b565b603f600160601b83101561122f5760209290921b91601f19015b600160701b8310156112475760109290921b91600f19015b600160781b83101561125f5760089290921b91600719015b6001607c1b8310156112775760049290921b91600319015b6001607e1b83101561128f5760029290921b91600119015b6001607f1b8310156112a75760019290921b91600019015b60005b861561131457604082106112bd57600080fd5b60018716156112e357918302607f1c918101600160801b8311156112e357600192831c92015b928002607f1c9260019190911b90600160801b841061130857600193841c9391909101905b600187901c96506112aa565b6040811061132157600080fd5b6040039190911c90505b600083611338578161133d565b816000035b905060016001607f1b0319811280159061135e575060016001607f1b038113155b61136757600080fd5b9695505050505050565b6000600f83810b9083900b0160016001607f1b03198112801590610ecc575060016001607f1b03811315610ed557600080fd5b60008082600f0b12156113b657600080fd5b50600f0b60401d90565b6000600160461b82600f0b126113d557600080fd5b683fffffffffffffffff1982600f0b12156113f257506000919050565b6001607f1b60006780000000000000008416600f0b13156114245770016a09e667f3bcc908b2fb1366ea957d3e0260801c5b60008367400000000000000016600f0b1315611451577001306fe0a31b7152de8d5a46305c85edec0260801c5b60008367200000000000000016600f0b131561147e577001172b83c7d517adcdf7c8c50eb14a791f0260801c5b60008367100000000000000016600f0b13156114ab5770010b5586cf9890f6298b92b71842a983630260801c5b60008367080000000000000016600f0b13156114d8577001059b0d31585743ae7c548eb68ca417fd0260801c5b60008367040000000000000016600f0b131561150557700102c9a3e778060ee6f7caca4f7a29bde80260801c5b60008367020000000000000016600f0b13156115325770010163da9fb33356d84a66ae336dcdfa3f0260801c5b60008367010000000000000016600f0b131561155f57700100b1afa5abcbed6129ab13ec11dc95430260801c5b600083668000000000000016600f0b131561158b5770010058c86da1c09ea1ff19d294cf2f679b0260801c5b600083664000000000000016600f0b13156115b7577001002c605e2e8cec506d21bfc89a23a00f0260801c5b600083662000000000000016600f0b13156115e357700100162f3904051fa128bca9c55c31e5df0260801c5b600083661000000000000016600f0b131561160f577001000b175effdc76ba38e31671ca9397250260801c5b600083660800000000000016600f0b131561163b57700100058ba01fb9f96d6cacd4b180917c3d0260801c5b600083660400000000000016600f0b13156116675770010002c5cc37da9491d0985c348c68e7b30260801c5b600083660200000000000016600f0b1315611693577001000162e525ee054754457d59952920260260801c5b600083660100000000000016600f0b13156116bf5770010000b17255775c040618bf4a4ade83fc0260801c5b6000836580000000000016600f0b13156116ea577001000058b91b5bc9ae2eed81e9b7d4cfab0260801c5b6000836540000000000016600f0b131561171557700100002c5c89d5ec6ca4d7c8acc017b7c90260801c5b6000836520000000000016600f0b13156117405770010000162e43f4f831060e02d839a9d16d0260801c5b6000836510000000000016600f0b131561176b57700100000b1721bcfc99d9f890ea069117630260801c5b6000836508000000000016600f0b13156117965770010000058b90cf1e6d97f9ca14dbcc16280260801c5b6000836504000000000016600f0b13156117c1577001000002c5c863b73f016468f6bac5ca2b0260801c5b6000836502000000000016600f0b13156117ec57700100000162e430e5a18f6119e3c02282a50260801c5b6000836501000000000016600f0b1315611817577001000000b1721835514b86e6d96efd1bfe0260801c5b60008364800000000016600f0b131561184157700100000058b90c0b48c6be5df846c5b2ef0260801c5b60008364400000000016600f0b131561186b5770010000002c5c8601cc6b9e94213c72737a0260801c5b60008364200000000016600f0b1315611895577001000000162e42fff037df38aa2b219f060260801c5b60008364100000000016600f0b13156118bf5770010000000b17217fba9c739aa5819f44f90260801c5b60008364080000000016600f0b13156118e9577001000000058b90bfcdee5acd3c1cedc8230260801c5b60008364040000000016600f0b131561191357700100000002c5c85fe31f35a6a30da1be500260801c5b60008364020000000016600f0b131561193d5770010000000162e42ff0999ce3541b9fffcf0260801c5b60008364010000000016600f0b131561196757700100000000b17217f80f4ef5aadda455540260801c5b600083638000000016600f0b13156119905770010000000058b90bfbf8479bd5a81b51ad0260801c5b600083634000000016600f0b13156119b9577001000000002c5c85fdf84bd62ae30a74cc0260801c5b600083632000000016600f0b13156119e257700100000000162e42fefb2fed257559bdaa0260801c5b600083631000000016600f0b1315611a0b577001000000000b17217f7d5a7716bba4a9ae0260801c5b600083630800000016600f0b1315611a3457700100000000058b90bfbe9ddbac5e109cce0260801c5b600083630400000016600f0b1315611a5d5770010000000002c5c85fdf4b15de6f17eb0d0260801c5b600083630200000016600f0b1315611a86577001000000000162e42fefa494f1478fde050260801c5b600083630100000016600f0b1315611aaf5770010000000000b17217f7d20cf927c8e94c0260801c5b6000836280000016600f0b1315611ad7577001000000000058b90bfbe8f71cb4e4b33d0260801c5b6000836240000016600f0b1315611aff57700100000000002c5c85fdf477b662b269450260801c5b6000836220000016600f0b1315611b275770010000000000162e42fefa3ae53369388c0260801c5b6000836210000016600f0b1315611b4f57700100000000000b17217f7d1d351a389d400260801c5b6000836208000016600f0b1315611b775770010000000000058b90bfbe8e8b2d3d4ede0260801c5b6000836204000016600f0b1315611b9f577001000000000002c5c85fdf4741bea6e77e0260801c5b6000836202000016600f0b1315611bc757700100000000000162e42fefa39fe95583c20260801c5b6000836201000016600f0b1315611bef577001000000000000b17217f7d1cfb72b45e10260801c5b60008361800016600f0b1315611c1657700100000000000058b90bfbe8e7cc35c3f00260801c5b60008361400016600f0b1315611c3d5770010000000000002c5c85fdf473e242ea380260801c5b60008361200016600f0b1315611c64577001000000000000162e42fefa39f02b772c0260801c5b60008361100016600f0b1315611c8b5770010000000000000b17217f7d1cf7d83c1a0260801c5b60008361080016600f0b1315611cb2577001000000000000058b90bfbe8e7bdcbe2e0260801c5b60008361040016600f0b1315611cd957700100000000000002c5c85fdf473dea871f0260801c5b60008361020016600f0b1315611d005770010000000000000162e42fefa39ef44d910260801c5b60008361010016600f0b1315611d2757700100000000000000b17217f7d1cf79e9490260801c5b600083608016600f0b1315611d4d5770010000000000000058b90bfbe8e7bce5440260801c5b600083604016600f0b1315611d73577001000000000000002c5c85fdf473de6eca0260801c5b600083602016600f0b1315611d9957700100000000000000162e42fefa39ef366f0260801c5b600083601016600f0b1315611dbf577001000000000000000b17217f7d1cf79afa0260801c5b600083600816600f0b1315611de557700100000000000000058b90bfbe8e7bcd6d0260801c5b600083600416600f0b1315611e0b5770010000000000000002c5c85fdf473de6b20260801c5b600083600216600f0b1315611e31577001000000000000000162e42fefa39ef3580260801c5b600083600116600f0b1315611e575770010000000000000000b17217f7d1cf79ab0260801c5b600f83810b60401d603f03900b1c60016001607f1b03811115610e2c57600080fd5b6001600160a01b038116811461087657600080fd5b600060208284031215611ea057600080fd5b8135610ed581611e79565b602080825282518282018190526000919060409081850190868401855b82811015611f0257815180518552868101518786015285810151868601526060908101519085015260809093019290850190600101611ec8565b5091979650505050505050565b60008060408385031215611f2257600080fd5b50508035926020909101359150565b634e487b7160e01b600052603260045260246000fd5b634e487b7160e01b600052601160045260246000fd5b6000600019821415611f7157611f71611f47565b5060010190565b60008219821115611f8b57611f8b611f47565b500190565b6000600160ff1b821415611fa657611fa6611f47565b5060000390565b600082821015611fbf57611fbf611f47565b500390565b634e487b7160e01b600052603160045260246000fd5b6020808252818101527f4f776e61626c653a2063616c6c6572206973206e6f7420746865206f776e6572604082015260600190565b6020808252602e908201527f496e697469616c697a61626c653a20636f6e747261637420697320616c72656160408201526d191e481a5b9a5d1a585b1a5e995960921b606082015260800190565b600081600019048311821515161561207757612077611f47565b500290565b634e487b7160e01b600052601260045260246000fd5b6000826120af57634e487b7160e01b600052601260045260246000fd5b500490565b600080821280156001600160ff1b03849003851316156120d6576120d6611f47565b600160ff1b83900384128116156120ef576120ef611f47565b50500190565b60006001600160ff1b038184138284138082168684048611161561211b5761211b611f47565b600160ff1b600087128281168783058912161561213a5761213a611f47565b6000871292508782058712848416161561215657612156611f47565b8785058712818416161561216c5761216c611f47565b505050929093029392505050565b6000825160005b8181101561219b5760208186018101518583015201612181565b818111156121aa576000828501525b509190910192915050565b634e487b7160e01b600052600160045260246000fd5b6000602082840312156121dd57600080fd5b5051919050565b6000602082840312156121f657600080fd5b8151610ed581611e7956fea2646970667358221220d5212d0da6218065cb693ce3e96b17b6e2a48346d9ea591c3b896d4a4f3f609464736f6c63430008090033",
  "immutableReferences": {},
  "source": "// SPDX-License-Identifier: MIT\r\npragma solidity ^0.8.0;\r\n\r\nimport \"@openzeppelin/contracts-upgradeable/proxy/utils/Initializable.sol\";\r\nimport \"@openzeppelin/contracts-upgradeable/access/OwnableUpgradeable.sol\";\r\nimport \"abdk-libraries-solidity/ABDKMath64x64.sol\";\r\n\r\n/// @author Jason Payne (https://twitter.com/Neo42)\r\ncontract SchnoodleStakingV1 is Initializable, OwnableUpgradeable {\r\n    address private _schnoodle;\r\n    mapping(address => Stake[]) private _stakes;\r\n    mapping(address => uint256) private _balances;\r\n    uint256 private _totalTokens;\r\n    uint256 private _cumulativeTotal;\r\n    uint256 private _lastBlockNumber;\r\n    uint256 private _totalStakeWeight;\r\n\r\n    // Adjust to change the sigmoid curve of the multiplier\r\n    SigmoidParams private _sigmoidParams;\r\n\r\n    struct Stake {\r\n        uint256 amount;\r\n        uint256 blockNumber;\r\n        uint256 vestingBlocks;\r\n        uint256 claimable;\r\n    }\r\n\r\n    struct SigmoidParams {\r\n        uint256 k; // Higher value increases slope severity\r\n        uint256 a; // Higher value increases slope severity and shifts right\r\n    }\r\n\r\n    function initialize(address schnoodle) public initializer {\r\n        __Ownable_init();\r\n        _schnoodle = schnoodle;\r\n        _sigmoidParams = SigmoidParams(5, 1);\r\n    }\r\n\r\n    /// Stakes the specified amount of tokens for the sender, and adds the details to a stored stake object\r\n    function addStake(uint256 amount, uint256 vestingBlocks) external {\r\n        address msgSender = _msgSender();\r\n\r\n        require(amount <= balanceOf(msgSender) - _balances[msgSender], \"SchnoodleStaking: stake amount exceeds unstaked balance\");\r\n        require(amount > 0, \"Stake must be nonzero\");\r\n\r\n        uint256 blockNumber = block.number;\r\n        _stakes[msgSender].push(Stake(amount, blockNumber, vestingBlocks, 0));\r\n        _balances[msgSender] += amount;\r\n\r\n        _updateTracking(int256(amount), _newCumulativeTotal(blockNumber), blockNumber, vestingBlocks);\r\n\r\n        emit Staked(msgSender, amount, blockNumber);\r\n    }\r\n\r\n    /// Withdraws the specified amount of tokens from the sender's stake at the specified zero-based index\r\n    function withdraw(uint256 index, uint256 amount) external {\r\n        address msgSender = _msgSender();\r\n        Stake[] memory stakes = _stakes[msgSender];\r\n        Stake memory stake = stakes[index];\r\n        require(stake.amount >= amount, \"SchnoodleStaking: cannot withdraw more than staked\");\r\n\r\n        uint256 blockNumber = block.number;\r\n        require(stake.blockNumber + stake.vestingBlocks < blockNumber, \"SchnoodleStaking: cannot withdraw during vesting blocks\");\r\n\r\n        (uint256 netReward, uint256 grossReward, uint256 newCumulativeTotal) = _rewardInfo(stake, amount, blockNumber);\r\n\r\n        _updateTracking(-int256(amount), newCumulativeTotal, blockNumber, stake.vestingBlocks);\r\n\r\n        _stakes[msgSender][index].amount -= amount;\r\n        _balances[msgSender] -= amount;\r\n\r\n        // Remove the stake if it is fully withdrawn by replacing it with the last stake in the array\r\n        if (_stakes[msgSender][index].amount == 0) {\r\n            _stakes[msgSender][index] = stakes[stakes.length - 1];\r\n            _stakes[msgSender].pop();\r\n        }\r\n\r\n        stakingReward(msgSender, netReward, grossReward);\r\n\r\n        emit Withdrawn(msgSender, index, amount, netReward, grossReward);\r\n    }\r\n\r\n    function changeSigmoidParams(uint256 k, uint256 a) external onlyOwner {\r\n        _sigmoidParams = SigmoidParams(k, a);\r\n    }\r\n\r\n    function sigmoidParams() external view returns(SigmoidParams memory) {\r\n        return _sigmoidParams;\r\n    }\r\n\r\n    function _rewardInfo(Stake memory stake, uint256 amount, uint256 blockNumber) private returns(uint256, uint256, uint256) {\r\n        // Calculate the stake amount multiplied across the number of blocks since the start of the stake\r\n        uint256 cumulativeAmount = amount * (blockNumber - stake.blockNumber);\r\n\r\n        // Get the new cumulative total of all stakes as the current stored value is from the previous staking activity\r\n        uint256 newCumulativeTotal = _newCumulativeTotal(blockNumber);\r\n\r\n        uint256 grossReward;\r\n        uint256 netReward;\r\n\r\n        if (cumulativeAmount > 0 && _totalStakeWeight > 0) {\r\n            uint256 vestingBlocksWeightedAverage = _totalStakeWeight / _totalTokens;\r\n\r\n            // Calculate a reward multiplier based on a sigmoid curve defined by logistic function 1  (1 + e) where x is the stake's vesting blocks delta from the weighted average\r\n            int128 x = ABDKMath64x64.mul(\r\n                ABDKMath64x64.div(\r\n                    ABDKMath64x64.fromInt(-int256(_sigmoidParams.k)),\r\n                    ABDKMath64x64.fromUInt(vestingBlocksWeightedAverage)\r\n                ),\r\n                ABDKMath64x64.fromUInt(stake.vestingBlocks - vestingBlocksWeightedAverage)\r\n            );\r\n\r\n            // Calculate the reward as a relative proportion of the cumulative total of all holders' stakes, adjusted by the multiplier\r\n            uint256 accuracy = 1000;\r\n            grossReward = balanceOf(stakingFund()) * cumulativeAmount / newCumulativeTotal;\r\n            netReward = (_multitplier(accuracy, x) * grossReward) / accuracy;\r\n\r\n            // The returned new cumulative total should not include the reward\r\n            newCumulativeTotal -= cumulativeAmount;\r\n        }\r\n\r\n        return (netReward, grossReward, newCumulativeTotal);\r\n    }\r\n\r\n    function _multitplier(uint256 accuracy, int128 x) private view returns(uint256) {\r\n        int128 one = ABDKMath64x64.fromUInt(1);\r\n\r\n        return ABDKMath64x64.toUInt(\r\n            ABDKMath64x64.mul(\r\n                ABDKMath64x64.fromUInt(accuracy),\r\n                ABDKMath64x64.div(one,\r\n                    ABDKMath64x64.add(\r\n                        one,\r\n                        ABDKMath64x64.pow(\r\n                            ABDKMath64x64.exp(x),\r\n                            _sigmoidParams.a\r\n                        )\r\n                    )\r\n                )\r\n            )\r\n        );\r\n    }\r\n\r\n    function _reward(Stake memory stake, uint256 blockNumber) private returns(uint256) {\r\n        (uint256 reward,,) = _rewardInfo(stake, stake.amount, blockNumber);\r\n        return reward;\r\n    }\r\n\r\n    function _newCumulativeTotal(uint256 blockNumber) private view returns(uint256) {\r\n        // Add the total of all stakes multiplied across all blocks since the previous calculation to the cumulative total\r\n        return _cumulativeTotal + _totalTokens * (blockNumber - _lastBlockNumber);\r\n    }\r\n\r\n    function _updateTracking(int256 amountDelta, uint256 cumulativeTotal, uint256 blockNumber, uint256 vestingBlocks) private {\r\n        _cumulativeTotal = cumulativeTotal;\r\n        _lastBlockNumber = blockNumber;\r\n        _totalTokens = uint256(int256(_totalTokens) + amountDelta);\r\n\r\n        // Adjust the sum of products of staked tokens and vesting blocks to get a total weight - this is used to calculate the weighted average later\r\n        _totalStakeWeight = uint256(int256(_totalStakeWeight) + amountDelta * int256(vestingBlocks));\r\n    }\r\n\r\n    function stakedBalanceOf(address account) external view returns(uint256) {\r\n        return _balances[account];\r\n    }\r\n\r\n    function stakingSummary(address account) public returns(Stake[] memory) {\r\n        Stake[] memory stakes = _stakes[account];\r\n        uint256 blockNumber = block.number;\r\n\r\n        for (uint256 i = 0; i < stakes.length; i++) {\r\n            stakes[i].claimable = _reward(stakes[i], blockNumber);\r\n        }\r\n\r\n        return stakes;\r\n    }\r\n\r\n    // Calls to the Schnoodle proxy contract\r\n\r\n    function stakingFund() private returns (address) {\r\n        (bool success, bytes memory result) = _schnoodle.call(abi.encodeWithSignature(\"stakingFund()\"));\r\n        assert(success);\r\n        return abi.decode(result, (address));\r\n    }\r\n\r\n    function balanceOf(address account) private returns(uint256) {\r\n        (bool success, bytes memory result) = _schnoodle.call(abi.encodeWithSignature(\"balanceOf(address)\", account));\r\n        assert(success);\r\n        return abi.decode(result, (uint256));\r\n    }\r\n\r\n    function stakingReward(address account, uint256 netReward, uint256 grossReward) private {\r\n        (bool success,) = _schnoodle.call(abi.encodeWithSignature(\"stakingReward(address,uint256,uint256)\", account, netReward, grossReward));\r\n        assert(success);\r\n    }\r\n\r\n    // Events\r\n\r\n    event Staked(address indexed account, uint256 amount, uint256 blockNumber);\r\n\r\n    event Withdrawn(address indexed account, uint256 index, uint256 amount, uint256 netReward, uint256 grossReward);\r\n\r\n    uint256[50] private __gap;\r\n}\r\n",
  "sourcePath": "C:\\Users\\micro\\OneDrive - X-treem Software\\Development\\Projects\\Blockchain\\Schnoodle\\contracts\\SchnoodleStakingV1.sol",
  "compiler": {
    "name": "solc",
    "version": "0.8.9+commit.e5eed63a.Emscripten.clang"
  },
  "schemaVersion": "3.4.3",
  "updatedAt": "2021-10-24T02:40:28.165Z",
  "devdoc": {
    "author": "Jason Payne (https://twitter.com/Neo42)",
    "kind": "dev",
    "methods": {
      "owner()": {
        "details": "Returns the address of the current owner."
      },
      "renounceOwnership()": {
        "details": "Leaves the contract without owner. It will not be possible to call `onlyOwner` functions anymore. Can only be called by the current owner. NOTE: Renouncing ownership will leave the contract without an owner, thereby removing any functionality that is only available to the owner."
      },
      "transferOwnership(address)": {
        "details": "Transfers ownership of the contract to a new account (`newOwner`). Can only be called by the current owner."
      }
    },
    "version": 1
  },
  "userdoc": {
    "kind": "user",
    "methods": {
      "addStake(uint256,uint256)": {
        "notice": "Stakes the specified amount of tokens for the sender, and adds the details to a stored stake object"
      },
      "withdraw(uint256,uint256)": {
        "notice": "Withdraws the specified amount of tokens from the sender's stake at the specified zero-based index"
      }
    },
    "version": 1
  }
}