{
  "contractName": "SchnoodleV7",
  "abi": [
    {
      "anonymous": false,
      "inputs": [
        {
          "indexed": true,
          "internalType": "address",
          "name": "owner",
          "type": "address"
        },
        {
          "indexed": true,
          "internalType": "address",
          "name": "spender",
          "type": "address"
        },
        {
          "indexed": false,
          "internalType": "uint256",
          "name": "value",
          "type": "uint256"
        }
      ],
      "name": "Approval",
      "type": "event"
    },
    {
      "anonymous": false,
      "inputs": [
        {
          "indexed": true,
          "internalType": "address",
          "name": "operator",
          "type": "address"
        },
        {
          "indexed": true,
          "internalType": "address",
          "name": "tokenHolder",
          "type": "address"
        }
      ],
      "name": "AuthorizedOperator",
      "type": "event"
    },
    {
      "anonymous": false,
      "inputs": [
        {
          "indexed": true,
          "internalType": "address",
          "name": "operator",
          "type": "address"
        },
        {
          "indexed": true,
          "internalType": "address",
          "name": "from",
          "type": "address"
        },
        {
          "indexed": false,
          "internalType": "uint256",
          "name": "amount",
          "type": "uint256"
        },
        {
          "indexed": false,
          "internalType": "bytes",
          "name": "data",
          "type": "bytes"
        },
        {
          "indexed": false,
          "internalType": "bytes",
          "name": "operatorData",
          "type": "bytes"
        }
      ],
      "name": "Burned",
      "type": "event"
    },
    {
      "anonymous": false,
      "inputs": [
        {
          "indexed": true,
          "internalType": "address",
          "name": "account",
          "type": "address"
        },
        {
          "indexed": false,
          "internalType": "uint256",
          "name": "rate",
          "type": "uint256"
        }
      ],
      "name": "EleemosynaryChanged",
      "type": "event"
    },
    {
      "anonymous": false,
      "inputs": [
        {
          "indexed": false,
          "internalType": "uint256",
          "name": "rate",
          "type": "uint256"
        }
      ],
      "name": "FeeRateChanged",
      "type": "event"
    },
    {
      "anonymous": false,
      "inputs": [
        {
          "indexed": true,
          "internalType": "address",
          "name": "operator",
          "type": "address"
        },
        {
          "indexed": true,
          "internalType": "address",
          "name": "to",
          "type": "address"
        },
        {
          "indexed": false,
          "internalType": "uint256",
          "name": "amount",
          "type": "uint256"
        },
        {
          "indexed": false,
          "internalType": "bytes",
          "name": "data",
          "type": "bytes"
        },
        {
          "indexed": false,
          "internalType": "bytes",
          "name": "operatorData",
          "type": "bytes"
        }
      ],
      "name": "Minted",
      "type": "event"
    },
    {
      "anonymous": false,
      "inputs": [
        {
          "indexed": true,
          "internalType": "address",
          "name": "previousOwner",
          "type": "address"
        },
        {
          "indexed": true,
          "internalType": "address",
          "name": "newOwner",
          "type": "address"
        }
      ],
      "name": "OwnershipTransferred",
      "type": "event"
    },
    {
      "anonymous": false,
      "inputs": [
        {
          "indexed": true,
          "internalType": "address",
          "name": "operator",
          "type": "address"
        },
        {
          "indexed": true,
          "internalType": "address",
          "name": "tokenHolder",
          "type": "address"
        }
      ],
      "name": "RevokedOperator",
      "type": "event"
    },
    {
      "anonymous": false,
      "inputs": [
        {
          "indexed": true,
          "internalType": "bytes32",
          "name": "role",
          "type": "bytes32"
        },
        {
          "indexed": true,
          "internalType": "bytes32",
          "name": "previousAdminRole",
          "type": "bytes32"
        },
        {
          "indexed": true,
          "internalType": "bytes32",
          "name": "newAdminRole",
          "type": "bytes32"
        }
      ],
      "name": "RoleAdminChanged",
      "type": "event"
    },
    {
      "anonymous": false,
      "inputs": [
        {
          "indexed": true,
          "internalType": "bytes32",
          "name": "role",
          "type": "bytes32"
        },
        {
          "indexed": true,
          "internalType": "address",
          "name": "account",
          "type": "address"
        },
        {
          "indexed": true,
          "internalType": "address",
          "name": "sender",
          "type": "address"
        }
      ],
      "name": "RoleGranted",
      "type": "event"
    },
    {
      "anonymous": false,
      "inputs": [
        {
          "indexed": true,
          "internalType": "bytes32",
          "name": "role",
          "type": "bytes32"
        },
        {
          "indexed": true,
          "internalType": "address",
          "name": "account",
          "type": "address"
        },
        {
          "indexed": true,
          "internalType": "address",
          "name": "sender",
          "type": "address"
        }
      ],
      "name": "RoleRevoked",
      "type": "event"
    },
    {
      "anonymous": false,
      "inputs": [
        {
          "indexed": false,
          "internalType": "uint256",
          "name": "blockTimestamp",
          "type": "uint256"
        },
        {
          "indexed": false,
          "internalType": "int256",
          "name": "amount",
          "type": "int256"
        }
      ],
      "name": "SellQuotaChanged",
      "type": "event"
    },
    {
      "anonymous": false,
      "inputs": [
        {
          "indexed": false,
          "internalType": "uint256",
          "name": "threshold",
          "type": "uint256"
        }
      ],
      "name": "SellThresholdChanged",
      "type": "event"
    },
    {
      "anonymous": false,
      "inputs": [
        {
          "indexed": true,
          "internalType": "address",
          "name": "operator",
          "type": "address"
        },
        {
          "indexed": true,
          "internalType": "address",
          "name": "from",
          "type": "address"
        },
        {
          "indexed": true,
          "internalType": "address",
          "name": "to",
          "type": "address"
        },
        {
          "indexed": false,
          "internalType": "uint256",
          "name": "amount",
          "type": "uint256"
        },
        {
          "indexed": false,
          "internalType": "bytes",
          "name": "data",
          "type": "bytes"
        },
        {
          "indexed": false,
          "internalType": "bytes",
          "name": "operatorData",
          "type": "bytes"
        }
      ],
      "name": "Sent",
      "type": "event"
    },
    {
      "anonymous": false,
      "inputs": [
        {
          "indexed": false,
          "internalType": "uint256",
          "name": "rate",
          "type": "uint256"
        }
      ],
      "name": "StakingRateChanged",
      "type": "event"
    },
    {
      "anonymous": false,
      "inputs": [
        {
          "indexed": true,
          "internalType": "address",
          "name": "from",
          "type": "address"
        },
        {
          "indexed": true,
          "internalType": "address",
          "name": "to",
          "type": "address"
        },
        {
          "indexed": false,
          "internalType": "uint256",
          "name": "value",
          "type": "uint256"
        }
      ],
      "name": "Transfer",
      "type": "event"
    },
    {
      "inputs": [],
      "name": "DEFAULT_ADMIN_ROLE",
      "outputs": [
        {
          "internalType": "bytes32",
          "name": "",
          "type": "bytes32"
        }
      ],
      "stateMutability": "view",
      "type": "function"
    },
    {
      "inputs": [],
      "name": "LIQUIDITY",
      "outputs": [
        {
          "internalType": "bytes32",
          "name": "",
          "type": "bytes32"
        }
      ],
      "stateMutability": "view",
      "type": "function"
    },
    {
      "inputs": [],
      "name": "STAKING_CONTRACT",
      "outputs": [
        {
          "internalType": "bytes32",
          "name": "",
          "type": "bytes32"
        }
      ],
      "stateMutability": "view",
      "type": "function"
    },
    {
      "inputs": [
        {
          "internalType": "address",
          "name": "holder",
          "type": "address"
        },
        {
          "internalType": "address",
          "name": "spender",
          "type": "address"
        }
      ],
      "name": "allowance",
      "outputs": [
        {
          "internalType": "uint256",
          "name": "",
          "type": "uint256"
        }
      ],
      "stateMutability": "view",
      "type": "function"
    },
    {
      "inputs": [
        {
          "internalType": "address",
          "name": "spender",
          "type": "address"
        },
        {
          "internalType": "uint256",
          "name": "value",
          "type": "uint256"
        }
      ],
      "name": "approve",
      "outputs": [
        {
          "internalType": "bool",
          "name": "",
          "type": "bool"
        }
      ],
      "stateMutability": "nonpayable",
      "type": "function"
    },
    {
      "inputs": [
        {
          "internalType": "address",
          "name": "operator",
          "type": "address"
        }
      ],
      "name": "authorizeOperator",
      "outputs": [],
      "stateMutability": "nonpayable",
      "type": "function"
    },
    {
      "inputs": [
        {
          "internalType": "address",
          "name": "account",
          "type": "address"
        }
      ],
      "name": "balanceOf",
      "outputs": [
        {
          "internalType": "uint256",
          "name": "",
          "type": "uint256"
        }
      ],
      "stateMutability": "view",
      "type": "function"
    },
    {
      "inputs": [
        {
          "internalType": "uint256",
          "name": "amount",
          "type": "uint256"
        },
        {
          "internalType": "bytes",
          "name": "data",
          "type": "bytes"
        }
      ],
      "name": "burn",
      "outputs": [],
      "stateMutability": "nonpayable",
      "type": "function"
    },
    {
      "inputs": [
        {
          "internalType": "address",
          "name": "account",
          "type": "address"
        },
        {
          "internalType": "uint256",
          "name": "rate",
          "type": "uint256"
        }
      ],
      "name": "changeEleemosynary",
      "outputs": [],
      "stateMutability": "nonpayable",
      "type": "function"
    },
    {
      "inputs": [
        {
          "internalType": "uint256",
          "name": "rate",
          "type": "uint256"
        }
      ],
      "name": "changeFeeRate",
      "outputs": [],
      "stateMutability": "nonpayable",
      "type": "function"
    },
    {
      "inputs": [
        {
          "internalType": "uint256",
          "name": "threshold",
          "type": "uint256"
        }
      ],
      "name": "changeSellThreshold",
      "outputs": [],
      "stateMutability": "nonpayable",
      "type": "function"
    },
    {
      "inputs": [],
      "name": "decimals",
      "outputs": [
        {
          "internalType": "uint8",
          "name": "",
          "type": "uint8"
        }
      ],
      "stateMutability": "pure",
      "type": "function"
    },
    {
      "inputs": [],
      "name": "defaultOperators",
      "outputs": [
        {
          "internalType": "address[]",
          "name": "",
          "type": "address[]"
        }
      ],
      "stateMutability": "view",
      "type": "function"
    },
    {
      "inputs": [],
      "name": "eleemosynary",
      "outputs": [
        {
          "internalType": "address",
          "name": "",
          "type": "address"
        },
        {
          "internalType": "uint256",
          "name": "",
          "type": "uint256"
        }
      ],
      "stateMutability": "view",
      "type": "function"
    },
    {
      "inputs": [],
      "name": "feeRate",
      "outputs": [
        {
          "internalType": "uint256",
          "name": "",
          "type": "uint256"
        }
      ],
      "stateMutability": "view",
      "type": "function"
    },
    {
      "inputs": [],
      "name": "getOperativeFeeRate",
      "outputs": [
        {
          "internalType": "uint256",
          "name": "",
          "type": "uint256"
        }
      ],
      "stateMutability": "view",
      "type": "function"
    },
    {
      "inputs": [
        {
          "internalType": "bytes32",
          "name": "role",
          "type": "bytes32"
        }
      ],
      "name": "getRoleAdmin",
      "outputs": [
        {
          "internalType": "bytes32",
          "name": "",
          "type": "bytes32"
        }
      ],
      "stateMutability": "view",
      "type": "function"
    },
    {
      "inputs": [
        {
          "internalType": "bytes32",
          "name": "role",
          "type": "bytes32"
        },
        {
          "internalType": "address",
          "name": "account",
          "type": "address"
        }
      ],
      "name": "grantRole",
      "outputs": [],
      "stateMutability": "nonpayable",
      "type": "function"
    },
    {
      "inputs": [],
      "name": "granularity",
      "outputs": [
        {
          "internalType": "uint256",
          "name": "",
          "type": "uint256"
        }
      ],
      "stateMutability": "view",
      "type": "function"
    },
    {
      "inputs": [
        {
          "internalType": "bytes32",
          "name": "role",
          "type": "bytes32"
        },
        {
          "internalType": "address",
          "name": "account",
          "type": "address"
        }
      ],
      "name": "hasRole",
      "outputs": [
        {
          "internalType": "bool",
          "name": "",
          "type": "bool"
        }
      ],
      "stateMutability": "view",
      "type": "function"
    },
    {
      "inputs": [
        {
          "internalType": "string",
          "name": "name",
          "type": "string"
        },
        {
          "internalType": "string",
          "name": "symbol",
          "type": "string"
        },
        {
          "internalType": "address[]",
          "name": "defaultOperators",
          "type": "address[]"
        },
        {
          "internalType": "uint256",
          "name": "initialSupply",
          "type": "uint256"
        },
        {
          "internalType": "address",
          "name": "owner",
          "type": "address"
        }
      ],
      "name": "initialize",
      "outputs": [],
      "stateMutability": "nonpayable",
      "type": "function"
    },
    {
      "inputs": [
        {
          "internalType": "uint256",
          "name": "initialTokens",
          "type": "uint256"
        },
        {
          "internalType": "address",
          "name": "serviceAccount",
          "type": "address"
        }
      ],
      "name": "initialize",
      "outputs": [],
      "stateMutability": "nonpayable",
      "type": "function"
    },
    {
      "inputs": [
        {
          "internalType": "address",
          "name": "operator",
          "type": "address"
        },
        {
          "internalType": "address",
          "name": "tokenHolder",
          "type": "address"
        }
      ],
      "name": "isOperatorFor",
      "outputs": [
        {
          "internalType": "bool",
          "name": "",
          "type": "bool"
        }
      ],
      "stateMutability": "view",
      "type": "function"
    },
    {
      "inputs": [],
      "name": "name",
      "outputs": [
        {
          "internalType": "string",
          "name": "",
          "type": "string"
        }
      ],
      "stateMutability": "view",
      "type": "function"
    },
    {
      "inputs": [
        {
          "internalType": "address",
          "name": "account",
          "type": "address"
        },
        {
          "internalType": "uint256",
          "name": "amount",
          "type": "uint256"
        },
        {
          "internalType": "bytes",
          "name": "data",
          "type": "bytes"
        },
        {
          "internalType": "bytes",
          "name": "operatorData",
          "type": "bytes"
        }
      ],
      "name": "operatorBurn",
      "outputs": [],
      "stateMutability": "nonpayable",
      "type": "function"
    },
    {
      "inputs": [
        {
          "internalType": "address",
          "name": "sender",
          "type": "address"
        },
        {
          "internalType": "address",
          "name": "recipient",
          "type": "address"
        },
        {
          "internalType": "uint256",
          "name": "amount",
          "type": "uint256"
        },
        {
          "internalType": "bytes",
          "name": "data",
          "type": "bytes"
        },
        {
          "internalType": "bytes",
          "name": "operatorData",
          "type": "bytes"
        }
      ],
      "name": "operatorSend",
      "outputs": [],
      "stateMutability": "nonpayable",
      "type": "function"
    },
    {
      "inputs": [],
      "name": "owner",
      "outputs": [
        {
          "internalType": "address",
          "name": "",
          "type": "address"
        }
      ],
      "stateMutability": "view",
      "type": "function"
    },
    {
      "inputs": [],
      "name": "renounceOwnership",
      "outputs": [],
      "stateMutability": "nonpayable",
      "type": "function"
    },
    {
      "inputs": [
        {
          "internalType": "bytes32",
          "name": "role",
          "type": "bytes32"
        },
        {
          "internalType": "address",
          "name": "account",
          "type": "address"
        }
      ],
      "name": "renounceRole",
      "outputs": [],
      "stateMutability": "nonpayable",
      "type": "function"
    },
    {
      "inputs": [
        {
          "internalType": "address",
          "name": "operator",
          "type": "address"
        }
      ],
      "name": "revokeOperator",
      "outputs": [],
      "stateMutability": "nonpayable",
      "type": "function"
    },
    {
      "inputs": [
        {
          "internalType": "bytes32",
          "name": "role",
          "type": "bytes32"
        },
        {
          "internalType": "address",
          "name": "account",
          "type": "address"
        }
      ],
      "name": "revokeRole",
      "outputs": [],
      "stateMutability": "nonpayable",
      "type": "function"
    },
    {
      "inputs": [],
      "name": "sellQuota",
      "outputs": [
        {
          "components": [
            {
              "internalType": "uint256",
              "name": "blockMetric",
              "type": "uint256"
            },
            {
              "internalType": "int256",
              "name": "amount",
              "type": "int256"
            }
          ],
          "internalType": "struct SchnoodleV7Base.TokenMeter",
          "name": "",
          "type": "tuple"
        }
      ],
      "stateMutability": "view",
      "type": "function"
    },
    {
      "inputs": [],
      "name": "sellThreshold",
      "outputs": [
        {
          "internalType": "uint256",
          "name": "",
          "type": "uint256"
        }
      ],
      "stateMutability": "view",
      "type": "function"
    },
    {
      "inputs": [
        {
          "internalType": "address",
          "name": "recipient",
          "type": "address"
        },
        {
          "internalType": "uint256",
          "name": "amount",
          "type": "uint256"
        },
        {
          "internalType": "bytes",
          "name": "data",
          "type": "bytes"
        }
      ],
      "name": "send",
      "outputs": [],
      "stateMutability": "nonpayable",
      "type": "function"
    },
    {
      "inputs": [
        {
          "internalType": "bytes4",
          "name": "interfaceId",
          "type": "bytes4"
        }
      ],
      "name": "supportsInterface",
      "outputs": [
        {
          "internalType": "bool",
          "name": "",
          "type": "bool"
        }
      ],
      "stateMutability": "view",
      "type": "function"
    },
    {
      "inputs": [],
      "name": "symbol",
      "outputs": [
        {
          "internalType": "string",
          "name": "",
          "type": "string"
        }
      ],
      "stateMutability": "view",
      "type": "function"
    },
    {
      "inputs": [],
      "name": "totalSupply",
      "outputs": [
        {
          "internalType": "uint256",
          "name": "",
          "type": "uint256"
        }
      ],
      "stateMutability": "view",
      "type": "function"
    },
    {
      "inputs": [
        {
          "internalType": "address",
          "name": "recipient",
          "type": "address"
        },
        {
          "internalType": "uint256",
          "name": "amount",
          "type": "uint256"
        }
      ],
      "name": "transfer",
      "outputs": [
        {
          "internalType": "bool",
          "name": "",
          "type": "bool"
        }
      ],
      "stateMutability": "nonpayable",
      "type": "function"
    },
    {
      "inputs": [
        {
          "internalType": "address",
          "name": "sender",
          "type": "address"
        },
        {
          "internalType": "address",
          "name": "recipient",
          "type": "address"
        },
        {
          "internalType": "uint256",
          "name": "amount",
          "type": "uint256"
        }
      ],
      "name": "transferFrom",
      "outputs": [
        {
          "internalType": "bool",
          "name": "",
          "type": "bool"
        }
      ],
      "stateMutability": "nonpayable",
      "type": "function"
    },
    {
      "inputs": [
        {
          "internalType": "address",
          "name": "newOwner",
          "type": "address"
        }
      ],
      "name": "transferOwnership",
      "outputs": [],
      "stateMutability": "nonpayable",
      "type": "function"
    },
    {
      "inputs": [
        {
          "internalType": "bool",
          "name": "testnet",
          "type": "bool"
        },
        {
          "internalType": "address",
          "name": "liquidityToken",
          "type": "address"
        },
        {
          "internalType": "address",
          "name": "schnoodleStaking",
          "type": "address"
        }
      ],
      "name": "configure",
      "outputs": [],
      "stateMutability": "nonpayable",
      "type": "function"
    },
    {
      "inputs": [],
      "name": "stakingFund",
      "outputs": [
        {
          "internalType": "address",
          "name": "",
          "type": "address"
        }
      ],
      "stateMutability": "view",
      "type": "function"
    },
    {
      "inputs": [
        {
          "internalType": "uint256",
          "name": "rate",
          "type": "uint256"
        }
      ],
      "name": "changeStakingRate",
      "outputs": [],
      "stateMutability": "nonpayable",
      "type": "function"
    },
    {
      "inputs": [],
      "name": "stakingRate",
      "outputs": [
        {
          "internalType": "uint256",
          "name": "",
          "type": "uint256"
        }
      ],
      "stateMutability": "view",
      "type": "function"
    },
    {
      "inputs": [
        {
          "internalType": "address",
          "name": "account",
          "type": "address"
        },
        {
          "internalType": "uint256",
          "name": "netReward",
          "type": "uint256"
        },
        {
          "internalType": "uint256",
          "name": "grossReward",
          "type": "uint256"
        }
      ],
      "name": "stakingReward",
      "outputs": [],
      "stateMutability": "nonpayable",
      "type": "function"
    }
  ],
  "bytecode": "0x608060405234801561001057600080fd5b50613a0d806100206000396000f3fe608060405234801561001057600080fd5b506004361061027f5760003560e01c80638da5cb5b1161015c578063c63a6ad2116100ce578063dd62ed3e11610087578063dd62ed3e1461059c578063f1de360b146105af578063f2fde38b146105e5578063fad8b32a146105f8578063fc673c4f1461060b578063fe9d93031461061e57600080fd5b8063c63a6ad214610521578063cd0e315f1461052a578063d547741f1461053c578063d95b63711461054f578063da19ddfb14610562578063da35a26f1461058957600080fd5b80639bd9bbc6116101205780639bd9bbc6146104c5578063a217fddf146104d8578063a9059cbb146104e0578063affca932146104f3578063b393204b14610506578063b4f2577c1461050e57600080fd5b80638da5cb5b1461046a57806391d148541461048f578063959b8c3f146104a257806395d89b41146104b5578063978bbdb9146104bd57600080fd5b8063313ce567116101f55780635d611fca116101b95780635d611fca14610403578063607e51b61461041657806362ad1b831461042957806370a082311461043c578063715018a61461044f578063768f950a1461045757600080fd5b8063313ce5671461038957806333c89c581461039857806336568abe146103d65780633f3f7403146103e9578063556f0dc7146103fc57600080fd5b806323b872dd1161024757806323b872dd146102fb578063248a9ca31461030e5780632861c7d1146103325780632d4310c0146103595780632f2ff15d146103615780632f5d14671461037657600080fd5b806301ffc9a71461028457806306e48538146102ac57806306fdde03146102c1578063095ea7b3146102d657806318160ddd146102e9575b600080fd5b610297610292366004612e33565b610631565b60405190151581526020015b60405180910390f35b6102b4610668565b6040516102a39190612e5d565b6102c96106ca565b6040516102a39190612f02565b6102976102e4366004612f3a565b610753565b60c9545b6040519081526020016102a3565b610297610309366004612f66565b61076e565b6102ed61031c366004612fa7565b6000908152610102602052604090206001015490565b6102ed7f86cf169ddb9f19bc57304a958748511e956d0b9255fb5895294f9c4ae5b00d5881565b60cd546102ed565b61037461036f366004612fc0565b6107de565b005b610374610384366004612f3a565b61080a565b604051601281526020016102a3565b60408051808201825260008082526020918201528151808301835260ce5480825260cf549183019182528351908152905191810191909152016102a3565b6103746103e4366004612fc0565b610897565b6103746103f7366004612fa7565b610915565b60016102ed565b610374610411366004612ff0565b61097c565b610374610424366004613040565b610afa565b61037461043736600461312c565b610b8d565b6102ed61044a3660046131bf565b610bc9565b610374610beb565b6103746104653660046131dc565b610c21565b6097546001600160a01b03165b6040516001600160a01b0390911681526020016102a3565b61029761049d366004612fc0565b610c9f565b6103746104b03660046131bf565b610ccb565b6102c9610de9565b60ca546102ed565b6103746104d33660046132ef565b610df8565b6102ed600081565b6102976104ee366004612f3a565b610e16565b610374610501366004612fa7565b610e84565b6102ed610ee3565b61037461051c366004612fa7565b610f53565b610136546102ed565b610135546001600160a01b0316610477565b61037461054a366004612fc0565b610fb2565b61029761055d366004613348565b610fd9565b6102ed7f1a22aef9db7f016755e82dde60cb4679c85f5f4f349dab1736b426fa9435648581565b610374610597366004612fc0565b61107a565b6102ed6105aa366004613348565b611176565b6105c660cb5460cc546001600160a01b0390911691565b604080516001600160a01b0390931683526020830191909152016102a3565b6103746105f33660046131bf565b6111a7565b6103746106063660046131bf565b611242565b610374610619366004613376565b61135e565b61037461062c3660046133f6565b611396565b60006001600160e01b03198216637965db0b60e01b148061066257506301ffc9a760e01b6001600160e01b03198316145b92915050565b606060378054806020026020016040519081016040528092919081815260200182805480156106c057602002820191906000526020600020905b81546001600160a01b031681526001909101906020018083116106a2575b5050505050905090565b6060603580546106d99061343d565b80601f01602080910402602001604051908101604052809291908181526020018280546107059061343d565b80156106c05780601f10610727576101008083540402835291602001916106c0565b820191906000526020600020905b81548152906001019060200180831161073557509395945050505050565b600061076783610762846113b1565b6113c5565b9392505050565b60008061077a836113b1565b905060006107898686846113dd565b9050846001600160a01b0316866001600160a01b03166000805160206139b8833981519152866040516107be91815260200190565b60405180910390a36107d58686868561159d6115b3565b95945050505050565b600082815261010260205260409020600101546107fb81336116c5565b6108058383611729565b505050565b6097546001600160a01b0316331461083d5760405162461bcd60e51b815260040161083490613478565b60405180910390fd5b60cb80546001600160a01b0319166001600160a01b03841690811790915560cc8290556040518281527f14771002f2414c27e60fe966b41bcb8004589b44c52a1f73016757cc92bf5ada9060200160405180910390a25050565b6001600160a01b03811633146109075760405162461bcd60e51b815260206004820152602f60248201527f416363657373436f6e74726f6c3a2063616e206f6e6c792072656e6f756e636560448201526e103937b632b9903337b91039b2b63360891b6064820152608401610834565b61091182826117b0565b5050565b6097546001600160a01b0316331461093f5760405162461bcd60e51b815260040161083490613478565b6101368190556040518181527fb0ee74db6dce7f227ef9bf096b4b0baaa897706d47aa9e753125ceac39751c35906020015b60405180910390a150565b6097546001600160a01b031633146109a65760405162461bcd60e51b815260040161083490613478565b610135546001600160a01b031615610a005760405162461bcd60e51b815260206004820152601d60248201527f5363686e6f6f646c653a20616c726561647920636f6e666967757265640000006044820152606401610834565b610a1c6000610a176097546001600160a01b031690565b611818565b610a467f86cf169ddb9f19bc57304a958748511e956d0b9255fb5895294f9c4ae5b00d5883611818565b610a707f1a22aef9db7f016755e82dde60cb4679c85f5f4f349dab1736b426fa9435648582611818565b61013480546001600160a01b0319166001600160a01b03831617905542610a986001436134c3565b40604051602001610ab3929190918252602082015260400190565b60408051808303601f19018152919052805160209091012061013580546001600160a01b0319166001600160a01b0390921691909117905560286101365561080583611822565b610b247f1a22aef9db7f016755e82dde60cb4679c85f5f4f349dab1736b426fa9435648533610c9f565b610b2d57600080fd5b61013554610b4d906001600160a01b031684610b48856113b1565b61159d565b61013554610805906001600160a01b0316610b6884846134c3565b6040518060200160405280600081525060405180602001604052806000815250611877565b610b973386610fd9565b610bb35760405162461bcd60e51b8152600401610834906134da565b610bc2858585858560016118a8565b5050505050565b6001600160a01b03811660009081526033602052604081205461066290611916565b6097546001600160a01b03163314610c155760405162461bcd60e51b815260040161083490613478565b610c1f600061193d565b565b600054610100900460ff1680610c3a575060005460ff16155b610c565760405162461bcd60e51b815260040161083490613526565b600054610100900460ff16158015610c78576000805461ffff19166101011790555b610c85868686868661198f565b8015610c97576000805461ff00191690555b505050505050565b6000918252610102602090815260408084206001600160a01b0393909316845291905290205460ff1690565b336001600160a01b0382161415610d305760405162461bcd60e51b8152602060048201526024808201527f4552433737373a20617574686f72697a696e672073656c66206173206f70657260448201526330ba37b960e11b6064820152608401610834565b6001600160a01b03811660009081526038602052604090205460ff1615610d8157336000908152603a602090815260408083206001600160a01b03851684529091529020805460ff19169055610db0565b3360009081526039602090815260408083206001600160a01b03851684529091529020805460ff191660011790555b60405133906001600160a01b038316907ff4caeb2d6ca8932a215a353d0703c326ec2d81fc68170f320eb2ab49e9df61f990600090a350565b6060603680546106d99061343d565b610805338484846040518060200160405280600081525060016118a8565b600080610e22836113b1565b90506000610e308583611a06565b90506001600160a01b038516336001600160a01b03166000805160206139b883398151915286604051610e6591815260200190565b60405180910390a3610e7c3386868561159d6115b3565b949350505050565b6097546001600160a01b03163314610eae5760405162461bcd60e51b815260040161083490613478565b60ca8190556040518181527fdd72d2879718489eb363ba6099239f89d49542612862c71545503d35cfddda4690602001610971565b60008060cd54118015610ef8575060cf546000135b15610f4c5760cd5460cf54610f1890610f1090613574565b60cd54611ab9565b60ca54610f26906003613591565b610f309190613591565b610f3a91906135c6565b60ca54610f4791906135da565b905090565b5060ca5490565b6097546001600160a01b03163314610f7d5760405162461bcd60e51b815260040161083490613478565b60cd8190556040518181527fa96843d98809a9328925155852e97dd62b58a838608882d71505c5e46dfb7c3d90602001610971565b60008281526101026020526040902060010154610fcf81336116c5565b61080583836117b0565b6000816001600160a01b0316836001600160a01b0316148061104457506001600160a01b03831660009081526038602052604090205460ff16801561104457506001600160a01b038083166000908152603a602090815260408083209387168352929052205460ff16155b806107675750506001600160a01b0390811660009081526039602090815260408083209490931682529290925290205460ff1690565b600054610100900460ff1680611093575060005460ff16155b6110af5760405162461bcd60e51b815260040161083490613526565b600054610100900460ff161580156110d1576000805461ffff19166101011790555b6110d9611acf565b6110e56012600a6136d6565b6110ef9084613591565b60c981905560408051808201825260098152685363686e6f6f646c6560b81b60208083019190915282518084018452600581526414d393d3d160da1b818301528351600081529182019093526111609391929161114e906000196136e5565b61115a906000196134c3565b8661198f565b8015610805576000805461ff0019169055505050565b6001600160a01b038083166000908152603b6020908152604080832093851683529290529081205461076790611916565b6097546001600160a01b031633146111d15760405162461bcd60e51b815260040161083490613478565b6001600160a01b0381166112365760405162461bcd60e51b815260206004820152602660248201527f4f776e61626c653a206e6577206f776e657220697320746865207a65726f206160448201526564647265737360d01b6064820152608401610834565b61123f8161193d565b50565b6001600160a01b0381163314156112a55760405162461bcd60e51b815260206004820152602160248201527f4552433737373a207265766f6b696e672073656c66206173206f70657261746f6044820152603960f91b6064820152608401610834565b6001600160a01b03811660009081526038602052604090205460ff16156112f957336000908152603a602090815260408083206001600160a01b03851684529091529020805460ff19166001179055611325565b3360009081526039602090815260408083206001600160a01b03851684529091529020805460ff191690555b60405133906001600160a01b038316907f50546e66e5f44d728365dc3908c63bc5cfeeab470722c1677e3073a6ac294aa190600090a350565b6113683385610fd9565b6113845760405162461bcd60e51b8152600401610834906134da565b61139084848484611877565b50505050565b61091133838360405180602001604052806000815250611877565b60006113bb611b4a565b6106629083613591565b6000336113d3818585611b7c565b5060019392505050565b60006001600160a01b0383166114055760405162461bcd60e51b8152600401610834906136f9565b6001600160a01b03841661146a5760405162461bcd60e51b815260206004820152602660248201527f4552433737373a207472616e736665722066726f6d20746865207a65726f206160448201526564647265737360d01b6064820152608401610834565b600033905061149b818686866040518060200160405280600081525060405180602001604052806000815250611ca3565b6114c7818686866040518060200160405280600081525060405180602001604052806000815250611dd9565b6001600160a01b038086166000908152603b60209081526040808320938516835292905220548381101561154f5760405162461bcd60e51b815260206004820152602960248201527f4552433737373a207472616e7366657220616d6f756e74206578636565647320604482015268616c6c6f77616e636560b81b6064820152608401610834565b611563868361155e87856134c3565b611b7c565b6115918287878760405180602001604052806000815250604051806020016040528060008152506000611f39565b50600195945050505050565b6115a8833383611b7c565b6113908383836113dd565b60cd54156116a75760ce54429015806115d957506115d462015180826134c3565b60ce54105b156116265760ce81905560cd5460cf8190556040805183815260208101929092527f6326273a6785f513768f2d48c9379925280b1265fc536c9ba0d40d213994064b910160405180910390a15b836116308761210d565b61163c5760001961163f565b60015b611649919061373d565b60cf805460009061165b9084906137c2565b909155505060ce5460cf546040517f6326273a6785f513768f2d48c9379925280b1265fc536c9ba0d40d213994064b9261169d92908252602082015260400190565b60405180910390a1505b6116b08461210d565b6116b957610bc2565b610bc284848484612139565b6116cf8282610c9f565b610911576116e7816001600160a01b03166014612167565b6116f2836020612167565b604051602001611703929190613803565b60408051601f198184030181529082905262461bcd60e51b825261083491600401612f02565b6117338282610c9f565b610911576000828152610102602090815260408083206001600160a01b03851684529091529020805460ff1916600117905561176c3390565b6001600160a01b0316816001600160a01b0316837f2f8788117e7eff1d82e926ec794901d17c78024a50270940304540a733656f0d60405160405180910390a45050565b6117ba8282610c9f565b15610911576000828152610102602090815260408083206001600160a01b0385168085529252808320805460ff1916905551339285917ff6391f5c32d9c69d2a47ea670b442974b53935d1edc7fd64eb21e047a839171b9190a45050565b6109118282611729565b6097546001600160a01b0316331461184c5760405162461bcd60e51b815260040161083490613478565b602860ca55801561123f576118636012600a6136d6565b61187190633b9aca00613591565b60cd5550565b61188b84611884856113b1565b8484612303565b8260c9600082825461189d91906134c3565b909155505050505050565b60006118b3856113b1565b90506118c38787838787876124b3565b856001600160a01b0316876001600160a01b03166000805160206139b8833981519152876040516118f691815260200190565b60405180910390a361190d878787846125966115b3565b50505050505050565b6000811561193557611926611b4a565b61193090836135c6565b610662565b600092915050565b609780546001600160a01b038381166001600160a01b0319831681179093556040519116919082907f8be0079c531659141344cd1fd0a4f28419497f9722a3daafe3b4186f6b6457e090600090a35050565b600054610100900460ff16806119a8575060005460ff16155b6119c45760405162461bcd60e51b815260040161083490613526565b600054610100900460ff161580156119e6576000805461ffff19166101011790555b6119ee6125c3565b6119f986868661262d565b610c858686868686612862565b60006001600160a01b038316611a2e5760405162461bcd60e51b8152600401610834906136f9565b6000339050611a5f818286866040518060200160405280600081525060405180602001604052806000815250611ca3565b611a8b818286866040518060200160405280600081525060405180602001604052806000815250611dd9565b6113d38182868660405180602001604052806000815250604051806020016040528060008152506000611f39565b6000818310611ac85781610767565b5090919050565b600054610100900460ff1680611ae8575060005460ff16155b611b045760405162461bcd60e51b815260040161083490613526565b600054610100900460ff16158015611b26576000805461ffff19166101011790555b611b2e6125c3565b611b366128e3565b801561123f576000805461ff001916905550565b600080611b5660345490565b90508015611b735760c954603454611b6e91906135c6565b611b76565b60005b91505090565b6001600160a01b038316611be05760405162461bcd60e51b815260206004820152602560248201527f4552433737373a20617070726f76652066726f6d20746865207a65726f206164604482015264647265737360d81b6064820152608401610834565b6001600160a01b038216611c425760405162461bcd60e51b815260206004820152602360248201527f4552433737373a20617070726f766520746f20746865207a65726f206164647260448201526265737360e81b6064820152608401610834565b6001600160a01b038381166000818152603b602090815260408083209487168084529482529182902085905590518481527f8c5be1e5ebec7d5bd14f71427d1e84f3dd0314c0f7b2291e5b200ac8c7c3b925910160405180910390a3505050565b60405163555ddc6560e11b81526001600160a01b03861660048201527f29ddb589b1fb5fc7cf394961c1adf5f8c6454761adf795e67fe149f658abe8956024820152600090731820a4b7618bde71dce8cdc73aab6c95905fad249063aabbb8ca9060440160206040518083038186803b158015611d1f57600080fd5b505afa158015611d33573d6000803e3d6000fd5b505050506040513d601f19601f82011682018060405250810190611d579190613878565b90506001600160a01b0381161561190d57604051633ad5cbc160e11b81526001600160a01b038216906375ab978290611d9e908a908a908a908a908a908a90600401613895565b600060405180830381600087803b158015611db857600080fd5b505af1158015611dcc573d6000803e3d6000fd5b5050505050505050505050565b611de586868686612943565b6001600160a01b03851660009081526033602052604090205483811015611e5e5760405162461bcd60e51b815260206004820152602760248201527f4552433737373a207472616e7366657220616d6f756e7420657863656564732060448201526662616c616e636560c81b6064820152608401610834565b6001600160a01b03808716600090815260336020526040808220878503905591871681529081208054869290611e959084906135da565b92505081905550846001600160a01b0316866001600160a01b0316886001600160a01b03167f06b541ddaa720db2b10a4d0cdac39b8d360425fc073085fac19bc82614677987878787604051611eed939291906138ef565b60405180910390a4846001600160a01b0316866001600160a01b03166000805160206139b883398151915286604051611f2891815260200190565b60405180910390a350505050505050565b60405163555ddc6560e11b81526001600160a01b03861660048201527fb281fc8c12954d22544db45de3159a39272895b169a852b314f9cc762e44c53b6024820152600090731820a4b7618bde71dce8cdc73aab6c95905fad249063aabbb8ca9060440160206040518083038186803b158015611fb557600080fd5b505afa158015611fc9573d6000803e3d6000fd5b505050506040513d601f19601f82011682018060405250810190611fed9190613878565b90506001600160a01b03811615612069576040516223de2960e01b81526001600160a01b038216906223de2990612032908b908b908b908b908b908b90600401613895565b600060405180830381600087803b15801561204c57600080fd5b505af1158015612060573d6000803e3d6000fd5b50505050612103565b8115612103576001600160a01b0386163b156121035760405162461bcd60e51b815260206004820152604d60248201527f4552433737373a20746f6b656e20726563697069656e7420636f6e747261637460448201527f20686173206e6f20696d706c656d656e74657220666f7220455243373737546f60648201526c1ad95b9cd49958da5c1a595b9d609a1b608482015260a401610834565b5050505050505050565b60006106627f86cf169ddb9f19bc57304a958748511e956d0b9255fb5895294f9c4ae5b00d5883610c9f565b612145848484846129fc565b61013554610136546113909186916001600160a01b0390911690869085612aa7565b60606000612176836002613591565b6121819060026135da565b67ffffffffffffffff81111561219957612199613075565b6040519080825280601f01601f1916602001820160405280156121c3576020820181803683370190505b509050600360fc1b816000815181106121de576121de613924565b60200101906001600160f81b031916908160001a905350600f60fb1b8160018151811061220d5761220d613924565b60200101906001600160f81b031916908160001a9053506000612231846002613591565b61223c9060016135da565b90505b60018111156122b4576f181899199a1a9b1b9c1cb0b131b232b360811b85600f166010811061227057612270613924565b1a60f81b82828151811061228657612286613924565b60200101906001600160f81b031916908160001a90535060049490941c936122ad8161393a565b905061223f565b5083156107675760405162461bcd60e51b815260206004820181905260248201527f537472696e67733a20686578206c656e67746820696e73756666696369656e746044820152606401610834565b6001600160a01b0384166123645760405162461bcd60e51b815260206004820152602260248201527f4552433737373a206275726e2066726f6d20746865207a65726f206164647265604482015261737360f01b6064820152608401610834565b3361237481866000878787611ca3565b6123818186600087612943565b6001600160a01b038516600090815260336020526040902054848110156123f65760405162461bcd60e51b815260206004820152602360248201527f4552433737373a206275726e20616d6f756e7420657863656564732062616c616044820152626e636560e81b6064820152608401610834565b6001600160a01b03861660009081526033602052604081208683039055603480548792906124259084906134c3565b92505081905550856001600160a01b0316826001600160a01b03167fa78a9be3a7b862d26933ad85fb11d80ef66b8f972d7cbba06621d583943a4098878787604051612473939291906138ef565b60405180910390a36040518581526000906001600160a01b038816906000805160206139b8833981519152906020015b60405180910390a3505050505050565b6001600160a01b0386166125145760405162461bcd60e51b815260206004820152602260248201527f4552433737373a2073656e642066726f6d20746865207a65726f206164647265604482015261737360f01b6064820152608401610834565b6001600160a01b03851661256a5760405162461bcd60e51b815260206004820181905260248201527f4552433737373a2073656e6420746f20746865207a65726f20616464726573736044820152606401610834565b33612579818888888888611ca3565b612587818888888888611dd9565b61190d81888888888888611f39565b610805838383604051806020016040528060008152506040518060200160405280600081525060016124b3565b600054610100900460ff16806125dc575060005460ff16155b6125f85760405162461bcd60e51b815260040161083490613526565b600054610100900460ff16158015611b36576000805461ffff1916610101179055801561123f576000805461ff001916905550565b600054610100900460ff1680612646575060005460ff16155b6126625760405162461bcd60e51b815260040161083490613526565b600054610100900460ff16158015612684576000805461ffff19166101011790555b8351612697906035906020870190612d45565b5082516126ab906036906020860190612d45565b5081516126bf906037906020850190612dc9565b5060005b8251811015612728576001603860008584815181106126e4576126e4613924565b6020908102919091018101516001600160a01b03168252810191909152604001600020805460ff19169115159190911790558061272081613951565b9150506126c3565b506040516329965a1d60e01b815230600482018190527fac7fbab5f54a3ca8194167523c6753bfeb96a445279294b6125b68cce217705460248301526044820152731820a4b7618bde71dce8cdc73aab6c95905fad24906329965a1d90606401600060405180830381600087803b1580156127a257600080fd5b505af11580156127b6573d6000803e3d6000fd5b50506040516329965a1d60e01b815230600482018190527faea199e31a596269b42cdafd93407f14436db6e4cad65417994c2eb37381e05a60248301526044820152731820a4b7618bde71dce8cdc73aab6c95905fad2492506329965a1d9150606401600060405180830381600087803b15801561283357600080fd5b505af1158015612847573d6000803e3d6000fd5b505050508015611390576000805461ff001916905550505050565b600054610100900460ff168061287b575060005460ff16155b6128975760405162461bcd60e51b815260040161083490613526565b600054610100900460ff161580156128b9576000805461ffff19166101011790555b610c8582846040518060200160405280600081525060405180602001604052806000815250612b20565b600054610100900460ff16806128fc575060005460ff16155b6129185760405162461bcd60e51b815260040161083490613526565b600054610100900460ff1615801561293a576000805461ffff19166101011790555b611b363361193d565b6001600160a01b038316156129f757600061295d82611916565b9050600061296a85610bc9565b90508082118061298c575061297e85612b2e565b61298890826134c3565b8211155b6129f45760405162461bcd60e51b815260206004820152603360248201527f5363686e6f6f646c653a207472616e7366657220616d6f756e74206578636565604482015272647320756e7374616b65642062616c616e636560681b6064820152608401610834565b50505b611390565b6000612a06610ee3565b9050612a488582612a196103e8876135c6565b612a239190613591565b6040518060200160405280600081525060405180602001604052806000815250612303565b60006001600160a01b0386166000805160206139b88339815191526103e8612a708589613591565b612a7a91906135c6565b60405190815260200160405180910390a360cb5460cc54610bc29187916001600160a01b03909116908790865b6001600160a01b03841615610bc25760006103e8612ac58486613591565b612acf91906135c6565b90506000612adc826113b1565b9050612aed8787838663ffffffff16565b856001600160a01b0316876001600160a01b03166000805160206139b883398151915284604051611f2891815260200190565b611390848484846001612c09565b610134546000906001600160a01b0316612b4a57506000919050565b610134546040516001600160a01b038481166024830152600092839291169060440160408051601f198184030181529181526020820180516001600160e01b0316632c9aab9b60e11b17905251612ba1919061396c565b6000604051808303816000865af19150503d8060008114612bde576040519150601f19603f3d011682016040523d82523d6000602084013e612be3565b606091505b509150915081612bf557612bf5613988565b80806020019051810190610e7c919061399e565b610bc285858585856001600160a01b038516612c675760405162461bcd60e51b815260206004820181905260248201527f4552433737373a206d696e7420746f20746865207a65726f20616464726573736044820152606401610834565b33612c758160008888612943565b8460346000828254612c8791906135da565b90915550506001600160a01b03861660009081526033602052604081208054879290612cb49084906135da565b90915550612cca90508160008888888888611f39565b856001600160a01b0316816001600160a01b03167f2fe5be0146f74c5bce36c0b80911af6c7d86ff27e89d5cfa61fc681327954e5d878787604051612d11939291906138ef565b60405180910390a36040518581526001600160a01b038716906000906000805160206139b8833981519152906020016124a3565b828054612d519061343d565b90600052602060002090601f016020900481019282612d735760008555612db9565b82601f10612d8c57805160ff1916838001178555612db9565b82800160010185558215612db9579182015b82811115612db9578251825591602001919060010190612d9e565b50612dc5929150612e1e565b5090565b828054828255906000526020600020908101928215612db9579160200282015b82811115612db957825182546001600160a01b0319166001600160a01b03909116178255602090920191600190910190612de9565b5b80821115612dc55760008155600101612e1f565b600060208284031215612e4557600080fd5b81356001600160e01b03198116811461076757600080fd5b6020808252825182820181905260009190848201906040850190845b81811015612e9e5783516001600160a01b031683529284019291840191600101612e79565b50909695505050505050565b60005b83811015612ec5578181015183820152602001612ead565b838111156113905750506000910152565b60008151808452612eee816020860160208601612eaa565b601f01601f19169290920160200192915050565b6020815260006107676020830184612ed6565b6001600160a01b038116811461123f57600080fd5b8035612f3581612f15565b919050565b60008060408385031215612f4d57600080fd5b8235612f5881612f15565b946020939093013593505050565b600080600060608486031215612f7b57600080fd5b8335612f8681612f15565b92506020840135612f9681612f15565b929592945050506040919091013590565b600060208284031215612fb957600080fd5b5035919050565b60008060408385031215612fd357600080fd5b823591506020830135612fe581612f15565b809150509250929050565b60008060006060848603121561300557600080fd5b8335801515811461301557600080fd5b9250602084013561302581612f15565b9150604084013561303581612f15565b809150509250925092565b60008060006060848603121561305557600080fd5b833561306081612f15565b95602085013595506040909401359392505050565b634e487b7160e01b600052604160045260246000fd5b604051601f8201601f1916810167ffffffffffffffff811182821017156130b4576130b4613075565b604052919050565b600082601f8301126130cd57600080fd5b813567ffffffffffffffff8111156130e7576130e7613075565b6130fa601f8201601f191660200161308b565b81815284602083860101111561310f57600080fd5b816020850160208301376000918101602001919091529392505050565b600080600080600060a0868803121561314457600080fd5b853561314f81612f15565b9450602086013561315f81612f15565b935060408601359250606086013567ffffffffffffffff8082111561318357600080fd5b61318f89838a016130bc565b935060808801359150808211156131a557600080fd5b506131b2888289016130bc565b9150509295509295909350565b6000602082840312156131d157600080fd5b813561076781612f15565b600080600080600060a086880312156131f457600080fd5b853567ffffffffffffffff8082111561320c57600080fd5b61321889838a016130bc565b965060209150818801358181111561322f57600080fd5b61323b8a828b016130bc565b96505060408801358181111561325057600080fd5b8801601f81018a1361326157600080fd5b80358281111561327357613273613075565b8060051b925061328484840161308b565b818152928201840192848101908c85111561329e57600080fd5b928501925b848410156132c857833592506132b883612f15565b82825292850192908501906132a3565b9750505050606088013593506132e391505060808701612f2a565b90509295509295909350565b60008060006060848603121561330457600080fd5b833561330f81612f15565b925060208401359150604084013567ffffffffffffffff81111561333257600080fd5b61333e868287016130bc565b9150509250925092565b6000806040838503121561335b57600080fd5b823561336681612f15565b91506020830135612fe581612f15565b6000806000806080858703121561338c57600080fd5b843561339781612f15565b935060208501359250604085013567ffffffffffffffff808211156133bb57600080fd5b6133c7888389016130bc565b935060608701359150808211156133dd57600080fd5b506133ea878288016130bc565b91505092959194509250565b6000806040838503121561340957600080fd5b82359150602083013567ffffffffffffffff81111561342757600080fd5b613433858286016130bc565b9150509250929050565b600181811c9082168061345157607f821691505b6020821081141561347257634e487b7160e01b600052602260045260246000fd5b50919050565b6020808252818101527f4f776e61626c653a2063616c6c6572206973206e6f7420746865206f776e6572604082015260600190565b634e487b7160e01b600052601160045260246000fd5b6000828210156134d5576134d56134ad565b500390565b6020808252602c908201527f4552433737373a2063616c6c6572206973206e6f7420616e206f70657261746f60408201526b39103337b9103437b63232b960a11b606082015260800190565b6020808252602e908201527f496e697469616c697a61626c653a20636f6e747261637420697320616c72656160408201526d191e481a5b9a5d1a585b1a5e995960921b606082015260800190565b6000600160ff1b82141561358a5761358a6134ad565b5060000390565b60008160001904831182151516156135ab576135ab6134ad565b500290565b634e487b7160e01b600052601260045260246000fd5b6000826135d5576135d56135b0565b500490565b600082198211156135ed576135ed6134ad565b500190565b600181815b8085111561362d578160001904821115613613576136136134ad565b8085161561362057918102915b93841c93908002906135f7565b509250929050565b60008261364457506001610662565b8161365157506000610662565b816001811461366757600281146136715761368d565b6001915050610662565b60ff841115613682576136826134ad565b50506001821b610662565b5060208310610133831016604e8410600b84101617156136b0575081810a610662565b6136ba83836135f2565b80600019048211156136ce576136ce6134ad565b029392505050565b600061076760ff841683613635565b6000826136f4576136f46135b0565b500690565b60208082526024908201527f4552433737373a207472616e7366657220746f20746865207a65726f206164646040820152637265737360e01b606082015260800190565b60006001600160ff1b0381841382841380821686840486111615613763576137636134ad565b600160ff1b6000871282811687830589121615613782576137826134ad565b6000871292508782058712848416161561379e5761379e6134ad565b878505871281841616156137b4576137b46134ad565b505050929093029392505050565b600080821280156001600160ff1b03849003851316156137e4576137e46134ad565b600160ff1b83900384128116156137fd576137fd6134ad565b50500190565b7f416363657373436f6e74726f6c3a206163636f756e742000000000000000000081526000835161383b816017850160208801612eaa565b7001034b99036b4b9b9b4b733903937b6329607d1b601791840191820152835161386c816028840160208801612eaa565b01602801949350505050565b60006020828403121561388a57600080fd5b815161076781612f15565b6001600160a01b0387811682528681166020830152851660408201526060810184905260c0608082018190526000906138d090830185612ed6565b82810360a08401526138e28185612ed6565b9998505050505050505050565b8381526060602082015260006139086060830185612ed6565b828103604084015261391a8185612ed6565b9695505050505050565b634e487b7160e01b600052603260045260246000fd5b600081613949576139496134ad565b506000190190565b6000600019821415613965576139656134ad565b5060010190565b6000825161397e818460208701612eaa565b9190910192915050565b634e487b7160e01b600052600160045260246000fd5b6000602082840312156139b057600080fd5b505191905056feddf252ad1be2c89b69c2b068fc378daa952ba7f163c4a11628f55a4df523b3efa26469706673582212204bcf2c956614ec688e0ee2df12e2dddc791d54e8fda7daec656fd5a68484f0fd64736f6c63430008090033",
  "immutableReferences": {},
  "source": "// contracts/SchnoodleV7.sol\r\n// SPDX-License-Identifier: MIT\r\npragma solidity ^0.8.0;\r\n\r\nimport \"@openzeppelin/contracts-upgradeable/proxy/utils/Initializable.sol\";\r\nimport \"@openzeppelin/contracts-upgradeable/access/AccessControlUpgradeable.sol\";\r\nimport \"./imports/SchnoodleV7Base.sol\";\r\n\r\n/// @author Jason Payne (https://twitter.com/Neo42)\r\ncontract SchnoodleV7 is SchnoodleV7Base, AccessControlUpgradeable {\r\n    address private _schnoodleStaking;\r\n    address private _stakingFund;\r\n    uint256 private _stakingRate;\r\n    mapping(address => TokenMeter) private _sellsTrackers;\r\n\r\n    bytes32 public constant LIQUIDITY = keccak256(\"LIQUIDITY\");\r\n    bytes32 public constant STAKING_CONTRACT = keccak256(\"STAKING_CONTRACT\");\r\n\r\n    function configure(bool testnet, address liquidityToken, address schnoodleStaking) external onlyOwner {\r\n        require(_stakingFund == address(0), \"Schnoodle: already configured\");\r\n\r\n        _setupRole(DEFAULT_ADMIN_ROLE, owner());\r\n        _setupRole(LIQUIDITY, liquidityToken);\r\n        _setupRole(STAKING_CONTRACT, schnoodleStaking);\r\n        _schnoodleStaking = schnoodleStaking;\r\n        _stakingFund = address(uint160(uint256(keccak256(abi.encodePacked(block.timestamp, blockhash(block.number - 1))))));\r\n\r\n        _stakingRate = 40;\r\n        configure(testnet);\r\n    }\r\n\r\n    // Transfer overrides\r\n\r\n    function _beforeTokenTransfer(address operator, address from, address to, uint256 amount) internal virtual override {\r\n        // Ensure the sender has enough unstaked balance to perform the transfer\r\n        if (from != address(0)) {\r\n            uint256 standardAmount = _getStandardAmount(amount);\r\n            uint256 balance = balanceOf(from);\r\n            require(standardAmount > balance || standardAmount <= balance - lockedBalanceOf(from), \"Schnoodle: transfer amount exceeds unstaked balance\");\r\n        }\r\n\r\n        super._beforeTokenTransfer(operator, from, to, amount);\r\n    }\r\n\r\n    function payFees(address to, uint256 amount, uint256 reflectedAmount, function(address, address, uint256) internal transferCallback) internal virtual override {\r\n        super.payFees(to, amount, reflectedAmount, transferCallback);\r\n        payFund(to, _stakingFund, amount, _stakingRate, transferCallback);\r\n    }\r\n\r\n    function isLiquidityToken(address account) internal view virtual override returns(bool)\r\n    {\r\n        return hasRole(LIQUIDITY, account);\r\n    }\r\n\r\n    // Staking functions\r\n\r\n    function stakingFund() external view returns (address) {\r\n        return _stakingFund;\r\n    }\r\n\r\n    function changeStakingRate(uint256 rate) external onlyOwner {\r\n        _stakingRate = rate;\r\n        emit StakingRateChanged(rate);\r\n    }\r\n\r\n    function stakingRate() external view returns (uint256) {\r\n        return _stakingRate;\r\n    }\r\n\r\n    function stakingReward(address account, uint256 netReward, uint256 grossReward) external {\r\n        require(hasRole(STAKING_CONTRACT, _msgSender()));\r\n        _transferFromReflected(_stakingFund, account, _getReflectedAmount(netReward));\r\n\r\n        // Burn the unused part of the gross reward\r\n        _burn(_stakingFund, grossReward - netReward, \"\", \"\");\r\n    }\r\n\r\n    // Calls to the SchnoodleStaking proxy contract\r\n\r\n    function lockedBalanceOf(address account) private returns(uint256) {\r\n        if (_schnoodleStaking == address(0)) return 0;\r\n        (bool success, bytes memory result) = _schnoodleStaking.call(abi.encodeWithSignature(\"lockedBalanceOf(address)\", account));\r\n        assert(success);\r\n        return abi.decode(result, (uint256));\r\n    }\r\n\r\n    event StakingRateChanged(uint256 rate);\r\n}\r\n",
  "sourcePath": "C:\\Users\\micro\\OneDrive - X-treem Software\\Development\\Projects\\Blockchain\\Schnoodle\\contracts\\SchnoodleV7.sol",
  "compiler": {
    "name": "solc",
    "version": "0.8.9+commit.e5eed63a.Emscripten.clang"
  },
  "schemaVersion": "3.4.3",
  "updatedAt": "2021-12-01T08:35:37.973Z",
  "devdoc": {
    "author": "Jason Payne (https://twitter.com/Neo42)",
    "kind": "dev",
    "methods": {
      "allowance(address,address)": {
        "details": "See {IERC20-allowance}. Note that operator and allowance concepts are orthogonal: operators may not have allowance, and accounts with allowance may not be operators themselves."
      },
      "approve(address,uint256)": {
        "details": "See {IERC20-approve}. Note that accounts cannot have allowance issued by their operators."
      },
      "authorizeOperator(address)": {
        "details": "See {IERC777-authorizeOperator}."
      },
      "burn(uint256,bytes)": {
        "details": "See {IERC777-burn}. Also emits a {IERC20-Transfer} event for ERC20 compatibility."
      },
      "decimals()": {
        "details": "See {ERC20-decimals}. Always returns 18, as per the [ERC777 EIP](https://eips.ethereum.org/EIPS/eip-777#backward-compatibility)."
      },
      "defaultOperators()": {
        "details": "See {IERC777-defaultOperators}."
      },
      "getRoleAdmin(bytes32)": {
        "details": "Returns the admin role that controls `role`. See {grantRole} and {revokeRole}. To change a role's admin, use {_setRoleAdmin}."
      },
      "grantRole(bytes32,address)": {
        "details": "Grants `role` to `account`. If `account` had not been already granted `role`, emits a {RoleGranted} event. Requirements: - the caller must have ``role``'s admin role."
      },
      "granularity()": {
        "details": "See {IERC777-granularity}. This implementation always returns `1`."
      },
      "hasRole(bytes32,address)": {
        "details": "Returns `true` if `account` has been granted `role`."
      },
      "isOperatorFor(address,address)": {
        "details": "See {IERC777-isOperatorFor}."
      },
      "name()": {
        "details": "See {IERC777-name}."
      },
      "operatorBurn(address,uint256,bytes,bytes)": {
        "details": "See {IERC777-operatorBurn}. Emits {Burned} and {IERC20-Transfer} events."
      },
      "operatorSend(address,address,uint256,bytes,bytes)": {
        "details": "See {IERC777-operatorSend}. Emits {Sent} and {IERC20-Transfer} events."
      },
      "owner()": {
        "details": "Returns the address of the current owner."
      },
      "renounceOwnership()": {
        "details": "Leaves the contract without owner. It will not be possible to call `onlyOwner` functions anymore. Can only be called by the current owner. NOTE: Renouncing ownership will leave the contract without an owner, thereby removing any functionality that is only available to the owner."
      },
      "renounceRole(bytes32,address)": {
        "details": "Revokes `role` from the calling account. Roles are often managed via {grantRole} and {revokeRole}: this function's purpose is to provide a mechanism for accounts to lose their privileges if they are compromised (such as when a trusted device is misplaced). If the calling account had been granted `role`, emits a {RoleRevoked} event. Requirements: - the caller must be `account`."
      },
      "revokeOperator(address)": {
        "details": "See {IERC777-revokeOperator}."
      },
      "revokeRole(bytes32,address)": {
        "details": "Revokes `role` from `account`. If `account` had been granted `role`, emits a {RoleRevoked} event. Requirements: - the caller must have ``role``'s admin role."
      },
      "send(address,uint256,bytes)": {
        "details": "See {IERC777-send}. Also emits a {IERC20-Transfer} event for ERC20 compatibility."
      },
      "supportsInterface(bytes4)": {
        "details": "See {IERC165-supportsInterface}."
      },
      "symbol()": {
        "details": "See {IERC777-symbol}."
      },
      "totalSupply()": {
        "details": "See {IERC777-totalSupply}."
      },
      "transfer(address,uint256)": {
        "details": "See {IERC20-transfer}. Unlike `send`, `recipient` is _not_ required to implement the {IERC777Recipient} interface if it is a contract. Also emits a {Sent} event."
      },
      "transferOwnership(address)": {
        "details": "Transfers ownership of the contract to a new account (`newOwner`). Can only be called by the current owner."
      }
    },
    "version": 1
  },
  "userdoc": {
    "kind": "user",
    "methods": {},
    "version": 1
  }
}