{
  "contractName": "SchnoodleStakingV1",
  "abi": [
    {
      "anonymous": false,
      "inputs": [
        {
          "indexed": true,
          "internalType": "address",
          "name": "previousOwner",
          "type": "address"
        },
        {
          "indexed": true,
          "internalType": "address",
          "name": "newOwner",
          "type": "address"
        }
      ],
      "name": "OwnershipTransferred",
      "type": "event"
    },
    {
      "anonymous": false,
      "inputs": [
        {
          "indexed": true,
          "internalType": "address",
          "name": "account",
          "type": "address"
        },
        {
          "indexed": false,
          "internalType": "uint256",
          "name": "amount",
          "type": "uint256"
        },
        {
          "indexed": false,
          "internalType": "uint256",
          "name": "blockNumber",
          "type": "uint256"
        }
      ],
      "name": "Staked",
      "type": "event"
    },
    {
      "anonymous": false,
      "inputs": [
        {
          "indexed": true,
          "internalType": "address",
          "name": "account",
          "type": "address"
        },
        {
          "indexed": false,
          "internalType": "uint256",
          "name": "id",
          "type": "uint256"
        },
        {
          "indexed": false,
          "internalType": "uint256",
          "name": "amount",
          "type": "uint256"
        },
        {
          "indexed": false,
          "internalType": "uint256",
          "name": "netReward",
          "type": "uint256"
        },
        {
          "indexed": false,
          "internalType": "uint256",
          "name": "grossReward",
          "type": "uint256"
        }
      ],
      "name": "Withdrawn",
      "type": "event"
    },
    {
      "inputs": [],
      "name": "owner",
      "outputs": [
        {
          "internalType": "address",
          "name": "",
          "type": "address"
        }
      ],
      "stateMutability": "view",
      "type": "function",
      "constant": true
    },
    {
      "inputs": [],
      "name": "renounceOwnership",
      "outputs": [],
      "stateMutability": "nonpayable",
      "type": "function"
    },
    {
      "inputs": [
        {
          "internalType": "address",
          "name": "newOwner",
          "type": "address"
        }
      ],
      "name": "transferOwnership",
      "outputs": [],
      "stateMutability": "nonpayable",
      "type": "function"
    },
    {
      "inputs": [
        {
          "internalType": "address",
          "name": "schnoodle",
          "type": "address"
        }
      ],
      "name": "initialize",
      "outputs": [],
      "stateMutability": "nonpayable",
      "type": "function"
    },
    {
      "inputs": [
        {
          "internalType": "uint256",
          "name": "amount",
          "type": "uint256"
        },
        {
          "internalType": "uint256",
          "name": "vestingBlocks",
          "type": "uint256"
        },
        {
          "internalType": "uint256",
          "name": "unbondingBlocks",
          "type": "uint256"
        }
      ],
      "name": "addStake",
      "outputs": [],
      "stateMutability": "nonpayable",
      "type": "function"
    },
    {
      "inputs": [
        {
          "internalType": "uint256",
          "name": "id",
          "type": "uint256"
        },
        {
          "internalType": "uint256",
          "name": "amount",
          "type": "uint256"
        }
      ],
      "name": "withdraw",
      "outputs": [],
      "stateMutability": "nonpayable",
      "type": "function"
    },
    {
      "inputs": [
        {
          "internalType": "uint256",
          "name": "k",
          "type": "uint256"
        },
        {
          "internalType": "uint256",
          "name": "a",
          "type": "uint256"
        }
      ],
      "name": "changeSigmoidParams",
      "outputs": [],
      "stateMutability": "nonpayable",
      "type": "function"
    },
    {
      "inputs": [],
      "name": "sigmoidParams",
      "outputs": [
        {
          "components": [
            {
              "internalType": "uint256",
              "name": "k",
              "type": "uint256"
            },
            {
              "internalType": "uint256",
              "name": "a",
              "type": "uint256"
            }
          ],
          "internalType": "struct SchnoodleStakingV1.SigmoidParams",
          "name": "",
          "type": "tuple"
        }
      ],
      "stateMutability": "view",
      "type": "function",
      "constant": true
    },
    {
      "inputs": [
        {
          "internalType": "address",
          "name": "account",
          "type": "address"
        },
        {
          "internalType": "uint256",
          "name": "index",
          "type": "uint256"
        },
        {
          "internalType": "uint256",
          "name": "rewardBlock",
          "type": "uint256"
        }
      ],
      "name": "reward",
      "outputs": [
        {
          "internalType": "uint256",
          "name": "",
          "type": "uint256"
        }
      ],
      "stateMutability": "view",
      "type": "function",
      "constant": true
    },
    {
      "inputs": [
        {
          "internalType": "uint256",
          "name": "amount",
          "type": "uint256"
        },
        {
          "internalType": "uint256",
          "name": "vestingBlocks",
          "type": "uint256"
        },
        {
          "internalType": "uint256",
          "name": "unbondingBlocks",
          "type": "uint256"
        },
        {
          "internalType": "uint256",
          "name": "rewardBlock",
          "type": "uint256"
        }
      ],
      "name": "reward",
      "outputs": [
        {
          "internalType": "uint256",
          "name": "",
          "type": "uint256"
        }
      ],
      "stateMutability": "view",
      "type": "function",
      "constant": true
    },
    {
      "inputs": [
        {
          "internalType": "address",
          "name": "account",
          "type": "address"
        }
      ],
      "name": "stakedBalanceOf",
      "outputs": [
        {
          "internalType": "uint256",
          "name": "",
          "type": "uint256"
        }
      ],
      "stateMutability": "view",
      "type": "function",
      "constant": true
    },
    {
      "inputs": [
        {
          "internalType": "address",
          "name": "account",
          "type": "address"
        }
      ],
      "name": "unbondingBalanceOf",
      "outputs": [
        {
          "internalType": "uint256",
          "name": "",
          "type": "uint256"
        }
      ],
      "stateMutability": "view",
      "type": "function",
      "constant": true
    },
    {
      "inputs": [
        {
          "internalType": "address",
          "name": "account",
          "type": "address"
        }
      ],
      "name": "lockedBalanceOf",
      "outputs": [
        {
          "internalType": "uint256",
          "name": "",
          "type": "uint256"
        }
      ],
      "stateMutability": "view",
      "type": "function",
      "constant": true
    },
    {
      "inputs": [
        {
          "internalType": "address",
          "name": "account",
          "type": "address"
        }
      ],
      "name": "stakingSummary",
      "outputs": [
        {
          "components": [
            {
              "components": [
                {
                  "internalType": "uint256",
                  "name": "id",
                  "type": "uint256"
                },
                {
                  "internalType": "uint256",
                  "name": "amount",
                  "type": "uint256"
                },
                {
                  "internalType": "uint256",
                  "name": "blockNumber",
                  "type": "uint256"
                },
                {
                  "internalType": "uint256",
                  "name": "vestingBlocks",
                  "type": "uint256"
                },
                {
                  "internalType": "uint256",
                  "name": "unbondingBlocks",
                  "type": "uint256"
                },
                {
                  "internalType": "uint256",
                  "name": "multiplier",
                  "type": "uint256"
                }
              ],
              "internalType": "struct SchnoodleStakingV1.Stake",
              "name": "stake",
              "type": "tuple"
            },
            {
              "internalType": "uint256",
              "name": "reward",
              "type": "uint256"
            }
          ],
          "internalType": "struct SchnoodleStakingV1.StakeReward[]",
          "name": "",
          "type": "tuple[]"
        }
      ],
      "stateMutability": "view",
      "type": "function",
      "constant": true
    },
    {
      "inputs": [
        {
          "internalType": "address",
          "name": "account",
          "type": "address"
        }
      ],
      "name": "unbondingSummary",
      "outputs": [
        {
          "components": [
            {
              "internalType": "uint256",
              "name": "amount",
              "type": "uint256"
            },
            {
              "internalType": "uint256",
              "name": "expiryBlock",
              "type": "uint256"
            }
          ],
          "internalType": "struct SchnoodleStakingV1.Unbond[]",
          "name": "",
          "type": "tuple[]"
        }
      ],
      "stateMutability": "view",
      "type": "function",
      "constant": true
    }
  ],
  "bytecode": "0x608060405234801561001057600080fd5b50612ab9806100206000396000f3fe608060405234801561001057600080fd5b50600436106100f55760003560e01c8063715018a611610097578063c4d66de811610066578063c4d66de814610211578063c5af253a14610224578063d2871b0514610259578063f2fde38b1461026c57600080fd5b8063715018a6146101bb578063727e165c146101c35780638da5cb5b146101e3578063926ea17b146101fe57600080fd5b8063453a3758116100d3578063453a37581461016f5780634a46b8111461018257806350a5f1081461019557806359355736146101a857600080fd5b80630dc243f0146100fa5780631676539114610123578063441a3e701461015a575b600080fd5b61010d610108366004612592565b61027f565b60405161011a91906125af565b60405180910390f35b61014c610131366004612592565b6001600160a01b031660009081526069602052604090205490565b60405190815260200161011a565b61016d610168366004612631565b610422565b005b61016d61017d366004612631565b61093c565b61014c610190366004612653565b610984565b61016d6101a3366004612688565b610a16565b61014c6101b6366004612592565b610bc2565b61016d610bf4565b6101d66101d1366004612592565b610c2a565b60405161011a91906126b4565b6033546040516001600160a01b03909116815260200161011a565b61014c61020c366004612592565b610cb3565b61016d61021f366004612592565b610d42565b60408051808201825260008082526020918201528151808301909252606e548252606f549082015260405161011a91906126fe565b61014c610267366004612715565b610df1565b61016d61027a366004612592565b610e2b565b6001600160a01b038116600090815260676020526040812080546060929067ffffffffffffffff8111156102b5576102b5612747565b6040519080825280602002602001820160405280156102ee57816020015b6102db612527565b8152602001906001900390816102d35790505b5090504360005b835481101561041857604051806040016040528085838154811061031b5761031b61275d565b90600052602060002090600602016040518060c0016040529081600082015481526020016001820154815260200160028201548152602001600382015481526020016004820154815260200160058201548152505081526020016103e586848154811061038a5761038a61275d565b90600052602060002090600602016040518060c0016040529081600082015481526020016001820154815260200160028201548152602001600382015481526020016004820154815260200160058201548152505085610ec6565b8152508382815181106103fa576103fa61275d565b6020026020010181905250808061041090612789565b9150506102f5565b5090949350505050565b33600081815260686020526040902080544391905b801561051d57828261044a6001846127a4565b8154811061045a5761045a61275d565b9060005260206000209060020201600101541161050b5781548290610481906001906127a4565b815481106104915761049161275d565b9060005260206000209060020201826001836104ad91906127a4565b815481106104bd576104bd61275d565b60009182526020909120825460029092020190815560019182015491015581548290806104ec576104ec6127bb565b6000828152602081206002600019909301928302018181556001015590555b80610515816127d1565b915050610437565b506001600160a01b0383166000908152606760205260408120905b81548110156108e95760008282815481106105555761055561275d565b9060005260206000209060060201905087816000015414156108d65786816001015410156105e55760405162461bcd60e51b815260206004820152603260248201527f5363686e6f6f646c655374616b696e673a2063616e6e6f7420776974686472616044820152711dc81b5bdc99481d1a185b881cdd185ad95960721b60648201526084015b60405180910390fd5b84816003015482600201546105fa91906127e8565b1061066d5760405162461bcd60e51b815260206004820152603760248201527f5363686e6f6f646c655374616b696e673a2063616e6e6f74207769746864726160448201527f7720647572696e672076657374696e6720626c6f636b7300000000000000000060648201526084016105dc565b60008060006106c4846040518060c001604052908160008201548152602001600182015481526020016002820154815260200160038201548152602001600482015481526020016005820154815250508b8a610ee5565b9250925092506106e68a6106d790612800565b85600301548660040154610f10565b606d55606a55606b819055606c8890556001600160a01b038916600090815260696020526040812080548c929061071e9084906127a4565b925050819055508984600101600082825461073991906127a4565b925050819055508660405180604001604052808c815260200186600401548b61076291906127e8565b90528154600181810184556000938452602093849020835160029093020191825592909101519082015584015461086b57855486906107a3906001906127a4565b815481106107b3576107b361275d565b90600052602060002090600602018686815481106107d3576107d361275d565b906000526020600020906006020160008201548160000155600182015481600101556002820154816002015560038201548160030155600482015481600401556005820154816005015590505085805480610830576108306127bb565b600082815260208120600660001990930192830201818155600181018290556002810182905560038101829055600481018290556005015590555b610876898484610f4f565b604080518c8152602081018c9052908101849052606081018390526001600160a01b038a16907f94ffd6b85c71b847775c89ef6496b93cee961bdc6ff827fd117f174f06f745ae9060800160405180910390a25050505050505050505050565b50806108e181612789565b915050610538565b5060405162461bcd60e51b815260206004820152602160248201527f5363686e6f6f646c655374616b696e673a207374616b65206e6f7420666f756e6044820152601960fa1b60648201526084016105dc565b6033546001600160a01b031633146109665760405162461bcd60e51b81526004016105dc9061281d565b60408051808201909152828152602001819052606e91909155606f55565b6001600160a01b03831660009081526067602052604081208054610a0e9190859081106109b3576109b361275d565b90600052602060002090600602016040518060c0016040529081600082015481526020016001820154815260200160028201548152602001600382015481526020016004820154815260200160058201548152505083610ec6565b949350505050565b33610a2081610bc2565b610a2982611009565b610a3391906127a4565b841115610aa85760405162461bcd60e51b815260206004820152603760248201527f5363686e6f6f646c655374616b696e673a207374616b6520616d6f756e74206560448201527f78636565647320756e7374616b65642062616c616e636500000000000000000060648201526084016105dc565b610ab0612547565b6000610abd8686866110c8565b606d55606a55606680549294509092506000610ad883612789565b90915550506001600160a01b0383166000818152606760209081526040808320805460018181018355918552838520885160069092020190815587840151918101919091558682015160028201819055606088015160038301556080880151600483015560a0880151600590920191909155606b869055606c55928252606990529081208054889290610b6c9084906127e8565b9091555050604080830151815188815260208101919091526001600160a01b038516917f1449c6dd7851abc30abf37f57715f492010519147cc2652fbc38202c18a6ee90910160405180910390a2505050505050565b6001600160a01b038116600090815260696020526040812054610be483610cb3565b610bee91906127e8565b92915050565b6033546001600160a01b03163314610c1e5760405162461bcd60e51b81526004016105dc9061281d565b610c28600061134b565b565b6001600160a01b0381166000908152606860209081526040808320805482518185028101850190935280835260609492939192909184015b82821015610ca857838290600052602060002090600202016040518060400160405290816000820154815260200160018201548152505081526020019060010190610c62565b505050509050919050565b6001600160a01b038116600090815260686020526040812043908290815b8154811015610418576000828281548110610cee57610cee61275d565b60009182526020918290206040805180820190915260029092020180548252600101549181018290529150851015610d2f578051610d2c90856127e8565b93505b5080610d3a81612789565b915050610cd1565b600054610100900460ff1680610d5b575060005460ff16155b610d775760405162461bcd60e51b81526004016105dc90612852565b600054610100900460ff16158015610d99576000805461ffff19166101011790555b610da161139d565b606580546001600160a01b0319166001600160a01b03841617905560408051808201909152600580825260016020909201829052606e55606f558015610ded576000805461ff00191690555b5050565b6000806000806000610e048989896110c8565b9350935093509350610e1e84856040015188868587611418565b9998505050505050505050565b6033546001600160a01b03163314610e555760405162461bcd60e51b81526004016105dc9061281d565b6001600160a01b038116610eba5760405162461bcd60e51b815260206004820152602660248201527f4f776e61626c653a206e6577206f776e657220697320746865207a65726f206160448201526564647265737360d01b60648201526084016105dc565b610ec38161134b565b50565b6000610ede83606c5484606b54606d54606a54611418565b9392505050565b6000806000610f018686606c5487606b54606d54606a5461143d565b92509250925093509350939050565b60008084606a54610f2191906128a0565b83610f2c86886128e1565b610f3691906128e1565b606d54610f4391906128a0565b91509150935093915050565b6065546040516001600160a01b0385811660248301526044820185905260648201849052600092169060840160408051601f198184030181529181526020820180516001600160e01b031663303f28db60e11b17905251610fb09190612966565b6000604051808303816000865af19150503d8060008114610fed576040519150601f19603f3d011682016040523d82523d6000602084013e610ff2565b606091505b5050905080611003576110036129a1565b50505050565b6065546040516001600160a01b038381166024830152600092839283929091169060440160408051601f198184030181529181526020820180516001600160e01b03166370a0823160e01b179052516110629190612966565b600060405180830381855afa9150503d806000811461109d576040519150601f19603f3d011682016040523d82523d6000602084013e6110a2565b606091505b5091509150816110b4576110b46129a1565b80806020019051810190610a0e91906129b7565b6110d0612547565b600080600080871161114a5760405162461bcd60e51b815260206004820152603860248201527f5363686e6f6f646c655374616b696e673a205374616b6520616d6f756e74206d60448201527f7573742062652067726561746572207468616e207a65726f000000000000000060648201526084016105dc565b600086116111c05760405162461bcd60e51b815260206004820152603a60248201527f5363686e6f6f646c655374616b696e673a2056657374696e6720626c6f636b7360448201527f206d7573742062652067726561746572207468616e207a65726f00000000000060648201526084016105dc565b600085116112365760405162461bcd60e51b815260206004820152603c60248201527f5363686e6f6f646c655374616b696e673a20556e626f6e64696e6720626c6f6360448201527f6b73206d7573742062652067726561746572207468616e207a65726f0000000060648201526084016105dc565b600080611244898989610f10565b9092509050600061125583836129e6565b905060006112a1611284611276606e6000015461127190612800565b611502565b61127f85611535565b61154c565b61129c846112928d8f612a08565b6112719190612a27565b6115a5565b905060006112af6001611535565b905060006112ea6112e56112c46103e8611535565b61129c8561127f876112e06112d88b6115db565b606f54611630565b611861565b611894565b67ffffffffffffffff16905060004390506040518060c0016040528060665481526020018f81526020018281526020018e81526020018d815260200183815250611333826118b0565b909f909e50969c50949a509498505050505050505050565b603380546001600160a01b038381166001600160a01b0319831681179093556040519116919082907f8be0079c531659141344cd1fd0a4f28419497f9722a3daafe3b4186f6b6457e090600090a35050565b600054610100900460ff16806113b6575060005460ff16155b6113d25760405162461bcd60e51b81526004016105dc90612852565b600054610100900460ff161580156113f4576000805461ffff19166101011790555b6113fc6118c4565b61140461192e565b8015610ec3576000805461ff001916905550565b60008061142e888960200151898989898961143d565b50909998505050505050505050565b6000806000808a604001518861145391906127a4565b61145d908b612a08565b9050600061146d8a8a8a8961198e565b905060008211801561147f5750600087115b156114ea57600081836114986114936119b7565b611009565b6114a29190612a08565b6114ac91906129e6565b905060006103e8828f60a001516114c39190612a08565b6114cd91906129e6565b905080826114db86866127a4565b965096509650505050506114f5565b600094508493509150505b9750975097945050505050565b6000677fffffffffffffff1982121580156115255750677fffffffffffffff8213155b61152e57600080fd5b5060401b90565b6000677fffffffffffffff82111561152e57600080fd5b600081600f0b6000141561155f57600080fd5b600082600f0b604085600f0b901b8161157a5761157a6129d0565b05905060016001607f1b0319811280159061159c575060016001607f1b038113155b610ede57600080fd5b6000600f83810b9083900b0260401d60016001607f1b0319811280159061159c575060016001607f1b03811315610ede57600080fd5b6000600160461b82600f0b126115f057600080fd5b683fffffffffffffffff1982600f0b121561160d57506000919050565b610bee608083600f0b700171547652b82fe1777d0ffda0d23a7d1202901d611a6e565b600080600084600f0b1280156116495750826001166001145b905060008085600f0b1261165d5784611662565b846000035b6fffffffffffffffffffffffffffffffff169050600160801b68010000000000000000821161170557603f82901b91505b84156116fd5760018516156116a8578102607f1c5b908002607f1c9060028516156116be578102607f1c5b908002607f1c9060048516156116d4578102607f1c5b908002607f1c9060088516156116ea578102607f1c5b60049490941c93908002607f1c90611693565b60401c61181b565b603f600160601b83101561171f5760209290921b91601f19015b600160701b8310156117375760109290921b91600f19015b600160781b83101561174f5760089290921b91600719015b6001607c1b8310156117675760049290921b91600319015b6001607e1b83101561177f5760029290921b91600119015b6001607f1b8310156117975760019290921b91600019015b60005b861561180457604082106117ad57600080fd5b60018716156117d357918302607f1c918101600160801b8311156117d357600192831c92015b928002607f1c9260019190911b90600160801b84106117f857600193841c9391909101905b600187901c965061179a565b6040811061181157600080fd5b6040039190911c90505b600083611828578161182d565b816000035b905060016001607f1b0319811280159061184e575060016001607f1b038113155b61185757600080fd5b9695505050505050565b6000600f83810b9083900b0160016001607f1b0319811280159061159c575060016001607f1b03811315610ede57600080fd5b60008082600f0b12156118a657600080fd5b50600f0b60401d90565b6000610bee606c5483606b54606a5461198e565b600054610100900460ff16806118dd575060005460ff16155b6118f95760405162461bcd60e51b81526004016105dc90612852565b600054610100900460ff16158015611404576000805461ffff19166101011790558015610ec3576000805461ff001916905550565b600054610100900460ff1680611947575060005460ff16155b6119635760405162461bcd60e51b81526004016105dc90612852565b600054610100900460ff16158015611985576000805461ffff19166101011790555b6114043361134b565b600061199a85856127a4565b6119a49083612a08565b6119ae90846127e8565b95945050505050565b60655460408051600481526024810182526020810180516001600160e01b031663cd0e315f60e01b1790529051600092839283926001600160a01b0390921691611a019190612966565b600060405180830381855afa9150503d8060008114611a3c576040519150601f19603f3d011682016040523d82523d6000602084013e611a41565b606091505b509150915081611a5357611a536129a1565b80806020019051810190611a679190612a66565b9250505090565b6000600160461b82600f0b12611a8357600080fd5b683fffffffffffffffff1982600f0b1215611aa057506000919050565b6001607f1b60006780000000000000008416600f0b1315611ad25770016a09e667f3bcc908b2fb1366ea957d3e0260801c5b60008367400000000000000016600f0b1315611aff577001306fe0a31b7152de8d5a46305c85edec0260801c5b60008367200000000000000016600f0b1315611b2c577001172b83c7d517adcdf7c8c50eb14a791f0260801c5b60008367100000000000000016600f0b1315611b595770010b5586cf9890f6298b92b71842a983630260801c5b60008367080000000000000016600f0b1315611b86577001059b0d31585743ae7c548eb68ca417fd0260801c5b60008367040000000000000016600f0b1315611bb357700102c9a3e778060ee6f7caca4f7a29bde80260801c5b60008367020000000000000016600f0b1315611be05770010163da9fb33356d84a66ae336dcdfa3f0260801c5b60008367010000000000000016600f0b1315611c0d57700100b1afa5abcbed6129ab13ec11dc95430260801c5b600083668000000000000016600f0b1315611c395770010058c86da1c09ea1ff19d294cf2f679b0260801c5b600083664000000000000016600f0b1315611c65577001002c605e2e8cec506d21bfc89a23a00f0260801c5b600083662000000000000016600f0b1315611c9157700100162f3904051fa128bca9c55c31e5df0260801c5b600083661000000000000016600f0b1315611cbd577001000b175effdc76ba38e31671ca9397250260801c5b600083660800000000000016600f0b1315611ce957700100058ba01fb9f96d6cacd4b180917c3d0260801c5b600083660400000000000016600f0b1315611d155770010002c5cc37da9491d0985c348c68e7b30260801c5b600083660200000000000016600f0b1315611d41577001000162e525ee054754457d59952920260260801c5b600083660100000000000016600f0b1315611d6d5770010000b17255775c040618bf4a4ade83fc0260801c5b6000836580000000000016600f0b1315611d98577001000058b91b5bc9ae2eed81e9b7d4cfab0260801c5b6000836540000000000016600f0b1315611dc357700100002c5c89d5ec6ca4d7c8acc017b7c90260801c5b6000836520000000000016600f0b1315611dee5770010000162e43f4f831060e02d839a9d16d0260801c5b6000836510000000000016600f0b1315611e1957700100000b1721bcfc99d9f890ea069117630260801c5b6000836508000000000016600f0b1315611e445770010000058b90cf1e6d97f9ca14dbcc16280260801c5b6000836504000000000016600f0b1315611e6f577001000002c5c863b73f016468f6bac5ca2b0260801c5b6000836502000000000016600f0b1315611e9a57700100000162e430e5a18f6119e3c02282a50260801c5b6000836501000000000016600f0b1315611ec5577001000000b1721835514b86e6d96efd1bfe0260801c5b60008364800000000016600f0b1315611eef57700100000058b90c0b48c6be5df846c5b2ef0260801c5b60008364400000000016600f0b1315611f195770010000002c5c8601cc6b9e94213c72737a0260801c5b60008364200000000016600f0b1315611f43577001000000162e42fff037df38aa2b219f060260801c5b60008364100000000016600f0b1315611f6d5770010000000b17217fba9c739aa5819f44f90260801c5b60008364080000000016600f0b1315611f97577001000000058b90bfcdee5acd3c1cedc8230260801c5b60008364040000000016600f0b1315611fc157700100000002c5c85fe31f35a6a30da1be500260801c5b60008364020000000016600f0b1315611feb5770010000000162e42ff0999ce3541b9fffcf0260801c5b60008364010000000016600f0b131561201557700100000000b17217f80f4ef5aadda455540260801c5b600083638000000016600f0b131561203e5770010000000058b90bfbf8479bd5a81b51ad0260801c5b600083634000000016600f0b1315612067577001000000002c5c85fdf84bd62ae30a74cc0260801c5b600083632000000016600f0b131561209057700100000000162e42fefb2fed257559bdaa0260801c5b600083631000000016600f0b13156120b9577001000000000b17217f7d5a7716bba4a9ae0260801c5b600083630800000016600f0b13156120e257700100000000058b90bfbe9ddbac5e109cce0260801c5b600083630400000016600f0b131561210b5770010000000002c5c85fdf4b15de6f17eb0d0260801c5b600083630200000016600f0b1315612134577001000000000162e42fefa494f1478fde050260801c5b600083630100000016600f0b131561215d5770010000000000b17217f7d20cf927c8e94c0260801c5b6000836280000016600f0b1315612185577001000000000058b90bfbe8f71cb4e4b33d0260801c5b6000836240000016600f0b13156121ad57700100000000002c5c85fdf477b662b269450260801c5b6000836220000016600f0b13156121d55770010000000000162e42fefa3ae53369388c0260801c5b6000836210000016600f0b13156121fd57700100000000000b17217f7d1d351a389d400260801c5b6000836208000016600f0b13156122255770010000000000058b90bfbe8e8b2d3d4ede0260801c5b6000836204000016600f0b131561224d577001000000000002c5c85fdf4741bea6e77e0260801c5b6000836202000016600f0b131561227557700100000000000162e42fefa39fe95583c20260801c5b6000836201000016600f0b131561229d577001000000000000b17217f7d1cfb72b45e10260801c5b60008361800016600f0b13156122c457700100000000000058b90bfbe8e7cc35c3f00260801c5b60008361400016600f0b13156122eb5770010000000000002c5c85fdf473e242ea380260801c5b60008361200016600f0b1315612312577001000000000000162e42fefa39f02b772c0260801c5b60008361100016600f0b13156123395770010000000000000b17217f7d1cf7d83c1a0260801c5b60008361080016600f0b1315612360577001000000000000058b90bfbe8e7bdcbe2e0260801c5b60008361040016600f0b131561238757700100000000000002c5c85fdf473dea871f0260801c5b60008361020016600f0b13156123ae5770010000000000000162e42fefa39ef44d910260801c5b60008361010016600f0b13156123d557700100000000000000b17217f7d1cf79e9490260801c5b600083608016600f0b13156123fb5770010000000000000058b90bfbe8e7bce5440260801c5b600083604016600f0b1315612421577001000000000000002c5c85fdf473de6eca0260801c5b600083602016600f0b131561244757700100000000000000162e42fefa39ef366f0260801c5b600083601016600f0b131561246d577001000000000000000b17217f7d1cf79afa0260801c5b600083600816600f0b131561249357700100000000000000058b90bfbe8e7bcd6d0260801c5b600083600416600f0b13156124b95770010000000000000002c5c85fdf473de6b20260801c5b600083600216600f0b13156124df577001000000000000000162e42fefa39ef3580260801c5b600083600116600f0b13156125055770010000000000000000b17217f7d1cf79ab0260801c5b600f83810b60401d603f03900b1c60016001607f1b03811115610bee57600080fd5b604051806040016040528061253a612547565b8152602001600081525090565b6040518060c001604052806000815260200160008152602001600081526020016000815260200160008152602001600081525090565b6001600160a01b0381168114610ec357600080fd5b6000602082840312156125a457600080fd5b8135610ede8161257d565b602080825282518282018190526000919060409081850190868401855b8281101561262457815180518051865287810151888701528681015187870152606080820151908701526080808201519087015260a0908101519086015286015160c085015260e090930192908501906001016125cc565b5091979650505050505050565b6000806040838503121561264457600080fd5b50508035926020909101359150565b60008060006060848603121561266857600080fd5b83356126738161257d565b95602085013595506040909401359392505050565b60008060006060848603121561269d57600080fd5b505081359360208301359350604090920135919050565b602080825282518282018190526000919060409081850190868401855b82811015612624576126ee84835180518252602090810151910152565b92840192908501906001016126d1565b815181526020808301519082015260408101610bee565b6000806000806080858703121561272b57600080fd5b5050823594602084013594506040840135936060013592509050565b634e487b7160e01b600052604160045260246000fd5b634e487b7160e01b600052603260045260246000fd5b634e487b7160e01b600052601160045260246000fd5b600060001982141561279d5761279d612773565b5060010190565b6000828210156127b6576127b6612773565b500390565b634e487b7160e01b600052603160045260246000fd5b6000816127e0576127e0612773565b506000190190565b600082198211156127fb576127fb612773565b500190565b6000600160ff1b82141561281657612816612773565b5060000390565b6020808252818101527f4f776e61626c653a2063616c6c6572206973206e6f7420746865206f776e6572604082015260600190565b6020808252602e908201527f496e697469616c697a61626c653a20636f6e747261637420697320616c72656160408201526d191e481a5b9a5d1a585b1a5e995960921b606082015260800190565b600080821280156001600160ff1b03849003851316156128c2576128c2612773565b600160ff1b83900384128116156128db576128db612773565b50500190565b60006001600160ff1b038184138284138082168684048611161561290757612907612773565b600160ff1b600087128281168783058912161561292657612926612773565b6000871292508782058712848416161561294257612942612773565b8785058712818416161561295857612958612773565b505050929093029392505050565b6000825160005b81811015612987576020818601810151858301520161296d565b81811115612996576000828501525b509190910192915050565b634e487b7160e01b600052600160045260246000fd5b6000602082840312156129c957600080fd5b5051919050565b634e487b7160e01b600052601260045260246000fd5b600082612a0357634e487b7160e01b600052601260045260246000fd5b500490565b6000816000190483118215151615612a2257612a22612773565b500290565b60008083128015600160ff1b850184121615612a4557612a45612773565b6001600160ff1b0384018313811615612a6057612a60612773565b50500390565b600060208284031215612a7857600080fd5b8151610ede8161257d56fea2646970667358221220fe8a4eb37d775d1ed51fa645b336953391b50ad69ddf9164b2abac1c4bfd3ecd64736f6c63430008090033",
  "immutableReferences": {},
  "source": "// SPDX-License-Identifier: MIT\r\npragma solidity ^0.8.0;\r\n\r\nimport \"@openzeppelin/contracts-upgradeable/proxy/utils/Initializable.sol\";\r\nimport \"@openzeppelin/contracts-upgradeable/access/OwnableUpgradeable.sol\";\r\nimport \"abdk-libraries-solidity/ABDKMath64x64.sol\";\r\n\r\n/// @author Jason Payne (https://twitter.com/Neo42)\r\n/// Delivers Lambo posthaste\r\ncontract SchnoodleStakingV1 is Initializable, OwnableUpgradeable {\r\n    address private _schnoodle;\r\n    uint256 _stakeId;\r\n    mapping(address => Stake[]) private _accountStakes;\r\n    mapping(address => Unbond[]) private _accountUnbonds;\r\n    mapping(address => uint256) private _balances;\r\n    uint256 private _totalTokens;\r\n    uint256 private _cumulativeTotal;\r\n    uint256 private _checkpointBlock;\r\n    uint256 private _totalStakeWeight;\r\n\r\n    // Adjust to change the sigmoid curve of the multiplier\r\n    SigmoidParams private _sigmoidParams;\r\n\r\n    struct Stake {\r\n        uint256 id;\r\n        uint256 amount;\r\n        uint256 blockNumber;\r\n        uint256 vestingBlocks;\r\n        uint256 unbondingBlocks;\r\n        uint256 multiplier;\r\n    }\r\n\r\n    struct StakeReward {\r\n        Stake stake;\r\n        uint256 reward;\r\n    }\r\n\r\n    struct Unbond {\r\n        uint256 amount;\r\n        uint256 expiryBlock;\r\n    }\r\n\r\n    struct SigmoidParams {\r\n        uint256 k; // Higher value increases slope severity\r\n        uint256 a; // Higher value increases slope severity and shifts right\r\n    }\r\n\r\n    function initialize(address schnoodle) public initializer {\r\n        __Ownable_init();\r\n        _schnoodle = schnoodle;\r\n        _sigmoidParams = SigmoidParams(5, 1);\r\n    }\r\n\r\n    /// Stakes the specified amount of tokens for the sender, and adds the details to a stored stake object\r\n    function addStake(uint256 amount, uint256 vestingBlocks, uint256 unbondingBlocks) external {\r\n        address msgSender = _msgSender();\r\n\r\n        require(amount <= balanceOf(msgSender) - lockedBalanceOf(msgSender), \"SchnoodleStaking: stake amount exceeds unstaked balance\");\r\n\r\n        Stake memory stake;\r\n        uint256 cumulativeTotal;\r\n\r\n        // Build the new stake, and update all tracking states to include the new stake\r\n        (stake, cumulativeTotal, _totalTokens, _totalStakeWeight) = _buildStake(amount, vestingBlocks, unbondingBlocks);\r\n        _stakeId++;\r\n        _accountStakes[msgSender].push(stake);\r\n        _cumulativeTotal = cumulativeTotal;\r\n        _checkpointBlock = stake.blockNumber;\r\n        _balances[msgSender] += amount;\r\n\r\n        emit Staked(msgSender, amount, stake.blockNumber);\r\n    }\r\n\r\n    /// Withdraws the specified amount of tokens from the sender's stake with the specified ID\r\n    function withdraw(uint256 id, uint256 amount) external {\r\n        address msgSender = _msgSender();\r\n        uint256 blockNumber = block.number;\r\n        Unbond[] storage unbonds = _accountUnbonds[msgSender];\r\n\r\n        // Take this opportunity to clean up any expired unbonds\r\n        for (uint256 i = unbonds.length; i > 0; i--) {\r\n            if (unbonds[i - 1].expiryBlock <= blockNumber) {\r\n                unbonds[i - 1] = unbonds[unbonds.length - 1];\r\n                unbonds.pop();\r\n            }\r\n        }\r\n\r\n        Stake[] storage stakes = _accountStakes[msgSender];\r\n\r\n        for (uint256 i = 0; i < stakes.length; i++) {\r\n            Stake storage stake = stakes[i];\r\n            if (stake.id == id) {\r\n                require(stake.amount >= amount, \"SchnoodleStaking: cannot withdraw more than staked\");\r\n                require(stake.blockNumber + stake.vestingBlocks < blockNumber, \"SchnoodleStaking: cannot withdraw during vesting blocks\");\r\n\r\n                (uint256 netReward, uint256 grossReward, uint256 newCumulativeTotal) = _rewardInfo(stake, amount, blockNumber);\r\n\r\n                // Update all tracking states to remove the withdrawn stake\r\n                (_totalTokens, _totalStakeWeight) = _updateTracking(-int256(amount), stake.vestingBlocks, stake.unbondingBlocks);\r\n                _cumulativeTotal = newCumulativeTotal;\r\n                _checkpointBlock = blockNumber;\r\n                _balances[msgSender] -= amount;\r\n                stake.amount -= amount;\r\n\r\n                // Start the unbonding procedure for the withdrawn amount\r\n                unbonds.push(Unbond(amount, blockNumber + stake.unbondingBlocks));\r\n\r\n                // Remove the stake if it is fully withdrawn by replacing it with the last stake in the array\r\n                if (stake.amount == 0) {\r\n                    stakes[i] = stakes[stakes.length - 1];\r\n                    stakes.pop();\r\n                }\r\n\r\n                stakingReward(msgSender, netReward, grossReward);\r\n\r\n                emit Withdrawn(msgSender, id, amount, netReward, grossReward);\r\n                return;\r\n            }\r\n        }\r\n\r\n        revert(\"SchnoodleStaking: stake not found\");\r\n    }\r\n\r\n    function changeSigmoidParams(uint256 k, uint256 a) external onlyOwner {\r\n        _sigmoidParams = SigmoidParams(k, a);\r\n    }\r\n\r\n    function sigmoidParams() external view returns(SigmoidParams memory) {\r\n        return _sigmoidParams;\r\n    }\r\n\r\n    function reward(uint256 amount, uint256 vestingBlocks, uint256 unbondingBlocks, uint256 rewardBlock) external view returns(uint256) {\r\n        (Stake memory stake, uint256 cumulativeTotal, uint256 totalTokens, uint256 totalStakeWeight) = _buildStake(amount, vestingBlocks, unbondingBlocks);\r\n        return _reward(stake, stake.blockNumber, rewardBlock, cumulativeTotal, totalStakeWeight, totalTokens);\r\n    }\r\n\r\n    function reward(address account, uint256 index, uint256 rewardBlock) external view returns(uint256) {\r\n        return _reward(_accountStakes[account][index], rewardBlock);\r\n    }\r\n\r\n    function _reward(Stake memory stake, uint256 rewardBlock) private view returns(uint256) {\r\n        return _reward(stake, _checkpointBlock, rewardBlock, _cumulativeTotal, _totalStakeWeight, _totalTokens);\r\n    }\r\n\r\n    function _reward(Stake memory stake, uint256 checkpointBlock, uint256 rewardBlock, uint256 cumulativeTotal, uint256 totalStakeWeight, uint256 totalTokens) private view returns(uint256) {\r\n        (uint256 netReward,,) = _rewardInfo(stake, stake.amount, checkpointBlock, rewardBlock, cumulativeTotal, totalStakeWeight, totalTokens);\r\n        return netReward;\r\n    }\r\n\r\n    function _rewardInfo(Stake memory stake, uint256 amount, uint256 rewardBlock) private view returns(uint256, uint256, uint256) {\r\n        return _rewardInfo(stake, amount, _checkpointBlock, rewardBlock, _cumulativeTotal, _totalStakeWeight, _totalTokens);\r\n    }\r\n\r\n    function _rewardInfo(Stake memory stake, uint256 amount, uint256 checkpointBlock, uint256 rewardBlock, uint256 cumulativeTotal, uint256 totalStakeWeight, uint256 totalTokens) private view returns(uint256, uint256, uint256) {\r\n        // Calculate the stake amount multiplied across the number of blocks since the start of the stake\r\n        uint256 cumulativeAmount = amount * (rewardBlock - stake.blockNumber);\r\n\r\n        // Get the new cumulative total of all stakes as the current stored value is from the previous staking activity\r\n        uint256 newCumulativeTotal = _newCumulativeTotal(checkpointBlock, rewardBlock, cumulativeTotal, totalTokens);\r\n\r\n        if (cumulativeAmount > 0 && totalStakeWeight > 0) {\r\n            // Calculate the reward as a relative proportion of the cumulative total of all holders' stakes, adjusted by the multiplier\r\n            uint256 grossReward = balanceOf(stakingFund()) * cumulativeAmount / newCumulativeTotal;\r\n            uint256 netReward = stake.multiplier * grossReward / 1000;\r\n\r\n            // The returned new cumulative total should not include the rewarded amount\r\n            return (netReward, grossReward, newCumulativeTotal - cumulativeAmount);\r\n        }\r\n\r\n        return (0, 0, newCumulativeTotal);\r\n    }\r\n\r\n    function _buildStake(uint256 amount, uint256 vestingBlocks, uint256 unbondingBlocks) private view returns (Stake memory, uint256, uint256, uint256) {\r\n        require(amount > 0, \"SchnoodleStaking: Stake amount must be greater than zero\");\r\n        require(vestingBlocks > 0, \"SchnoodleStaking: Vesting blocks must be greater than zero\");\r\n        require(unbondingBlocks > 0, \"SchnoodleStaking: Unbonding blocks must be greater than zero\");\r\n\r\n        (uint256 totalTokens, uint256 totalStakeWeight) = _updateTracking(int256(amount), vestingBlocks, unbondingBlocks);\r\n        uint256 lockProductWeightedAverage = totalStakeWeight / totalTokens;\r\n\r\n        // Calculate a reward multiplier based on a sigmoid curve defined by logistic function 1  (1 + e) where x is the stake's lock product delta from the weighted average\r\n        int128 x = ABDKMath64x64.mul(\r\n            ABDKMath64x64.div(\r\n                ABDKMath64x64.fromInt(-int256(_sigmoidParams.k)),\r\n                ABDKMath64x64.fromUInt(lockProductWeightedAverage)\r\n            ),\r\n            ABDKMath64x64.fromInt(int256(vestingBlocks * unbondingBlocks) - int256(lockProductWeightedAverage))\r\n        );\r\n\r\n        int128 one = ABDKMath64x64.fromUInt(1);\r\n        uint256 multiplier = ABDKMath64x64.toUInt(\r\n            ABDKMath64x64.mul(\r\n                ABDKMath64x64.fromUInt(1000),\r\n                ABDKMath64x64.div(\r\n                    one,\r\n                    ABDKMath64x64.add(\r\n                        one,\r\n                        ABDKMath64x64.pow(\r\n                            ABDKMath64x64.exp(x),\r\n                            _sigmoidParams.a\r\n                        )\r\n                    )\r\n                )\r\n            )\r\n        );\r\n\r\n        uint256 blockNumber = block.number;\r\n        return (Stake(_stakeId, amount, blockNumber, vestingBlocks, unbondingBlocks, multiplier), _newCumulativeTotal(blockNumber), totalTokens, totalStakeWeight);\r\n    }\r\n\r\n    function _newCumulativeTotal(uint256 rewardBlock) private view returns(uint256) {\r\n        return _newCumulativeTotal(_checkpointBlock, rewardBlock, _cumulativeTotal, _totalTokens);\r\n    }\r\n\r\n    function _newCumulativeTotal(uint256 checkpointBlock, uint256 rewardBlock, uint256 cumulativeTotal, uint256 totalTokens) private pure returns(uint256) {\r\n        // Add the total of all stakes multiplied across all blocks since the previous checkpoint calculation to the cumulative total\r\n        return cumulativeTotal + totalTokens * (rewardBlock - checkpointBlock);\r\n    }\r\n\r\n    function _updateTracking(int256 amountDelta, uint256 vestingBlocks, uint256 unbondingBlocks) private view returns(uint256, uint256) {\r\n        return (\r\n            uint256(int256(_totalTokens) + amountDelta), // Update total tokens\r\n            uint256(int256(_totalStakeWeight) + amountDelta * int256(vestingBlocks) * int256(unbondingBlocks)) // Update total stake weight\r\n        );\r\n    }\r\n\r\n    function stakedBalanceOf(address account) public view returns(uint256) {\r\n        return _balances[account];\r\n    }\r\n\r\n    function unbondingBalanceOf(address account) public view returns(uint256) {\r\n        uint256 blockNumber = block.number;\r\n        uint256 total;\r\n        Unbond[] storage unbonds = _accountUnbonds[account];\r\n\r\n        for (uint256 i = 0; i < unbonds.length; i++) {\r\n            Unbond memory unbond = unbonds[i];\r\n            if (unbond.expiryBlock > blockNumber) {\r\n                total += unbond.amount;\r\n            }\r\n        }\r\n\r\n        return total;\r\n    }\r\n\r\n    function lockedBalanceOf(address account) public view returns (uint256) {\r\n        return unbondingBalanceOf(account) + stakedBalanceOf(account);\r\n    }\r\n\r\n    function stakingSummary(address account) public view returns(StakeReward[] memory) {\r\n        Stake[] storage stakes = _accountStakes[account];\r\n        StakeReward[] memory stakeRewards = new StakeReward[](stakes.length);\r\n        uint256 rewardBlock = block.number;\r\n\r\n        for (uint256 i = 0; i < stakes.length; i++) {\r\n            stakeRewards[i] = StakeReward(stakes[i], _reward(stakes[i], rewardBlock));\r\n        }\r\n\r\n        return stakeRewards;\r\n    }\r\n\r\n    function unbondingSummary(address account) public view returns(Unbond[] memory) {\r\n        return _accountUnbonds[account];\r\n    }\r\n\r\n    // Calls to the Schnoodle proxy contract\r\n\r\n    function stakingFund() private view returns (address) {\r\n        (bool success, bytes memory result) = _schnoodle.staticcall(abi.encodeWithSignature(\"stakingFund()\"));\r\n        assert(success);\r\n        return abi.decode(result, (address));\r\n    }\r\n\r\n    function balanceOf(address account) private view returns(uint256) {\r\n        (bool success, bytes memory result) = _schnoodle.staticcall(abi.encodeWithSignature(\"balanceOf(address)\", account));\r\n        assert(success);\r\n        return abi.decode(result, (uint256));\r\n    }\r\n\r\n    function stakingReward(address account, uint256 netReward, uint256 grossReward) private {\r\n        (bool success,) = _schnoodle.call(abi.encodeWithSignature(\"stakingReward(address,uint256,uint256)\", account, netReward, grossReward));\r\n        assert(success);\r\n    }\r\n\r\n    // Events\r\n\r\n    event Staked(address indexed account, uint256 amount, uint256 blockNumber);\r\n\r\n    event Withdrawn(address indexed account, uint256 id, uint256 amount, uint256 netReward, uint256 grossReward);\r\n}\r\n",
  "sourcePath": "C:\\Users\\micro\\OneDrive - X-treem Software\\Development\\Projects\\Blockchain\\Schnoodle\\contracts\\SchnoodleStakingV1.sol",
  "compiler": {
    "name": "solc",
    "version": "0.8.9+commit.e5eed63a.Emscripten.clang"
  },
  "schemaVersion": "3.4.3",
  "updatedAt": "2021-12-01T08:37:04.246Z",
  "networkType": "ethereum",
  "devdoc": {
    "author": "Jason Payne (https://twitter.com/Neo42) Delivers Lambo posthaste",
    "kind": "dev",
    "methods": {
      "owner()": {
        "details": "Returns the address of the current owner."
      },
      "renounceOwnership()": {
        "details": "Leaves the contract without owner. It will not be possible to call `onlyOwner` functions anymore. Can only be called by the current owner. NOTE: Renouncing ownership will leave the contract without an owner, thereby removing any functionality that is only available to the owner."
      },
      "transferOwnership(address)": {
        "details": "Transfers ownership of the contract to a new account (`newOwner`). Can only be called by the current owner."
      }
    },
    "version": 1
  },
  "userdoc": {
    "kind": "user",
    "methods": {
      "addStake(uint256,uint256,uint256)": {
        "notice": "Stakes the specified amount of tokens for the sender, and adds the details to a stored stake object"
      },
      "withdraw(uint256,uint256)": {
        "notice": "Withdraws the specified amount of tokens from the sender's stake with the specified ID"
      }
    },
    "version": 1
  }
}