{
  "contractName": "SchnoodleV7",
  "abi": [
    {
      "anonymous": false,
      "inputs": [
        {
          "indexed": true,
          "internalType": "address",
          "name": "owner",
          "type": "address"
        },
        {
          "indexed": true,
          "internalType": "address",
          "name": "spender",
          "type": "address"
        },
        {
          "indexed": false,
          "internalType": "uint256",
          "name": "value",
          "type": "uint256"
        }
      ],
      "name": "Approval",
      "type": "event"
    },
    {
      "anonymous": false,
      "inputs": [
        {
          "indexed": true,
          "internalType": "address",
          "name": "operator",
          "type": "address"
        },
        {
          "indexed": true,
          "internalType": "address",
          "name": "tokenHolder",
          "type": "address"
        }
      ],
      "name": "AuthorizedOperator",
      "type": "event"
    },
    {
      "anonymous": false,
      "inputs": [
        {
          "indexed": true,
          "internalType": "address",
          "name": "operator",
          "type": "address"
        },
        {
          "indexed": true,
          "internalType": "address",
          "name": "from",
          "type": "address"
        },
        {
          "indexed": false,
          "internalType": "uint256",
          "name": "amount",
          "type": "uint256"
        },
        {
          "indexed": false,
          "internalType": "bytes",
          "name": "data",
          "type": "bytes"
        },
        {
          "indexed": false,
          "internalType": "bytes",
          "name": "operatorData",
          "type": "bytes"
        }
      ],
      "name": "Burned",
      "type": "event"
    },
    {
      "anonymous": false,
      "inputs": [
        {
          "indexed": true,
          "internalType": "address",
          "name": "eleemosynaryAccount",
          "type": "address"
        },
        {
          "indexed": false,
          "internalType": "uint256",
          "name": "donationRate",
          "type": "uint256"
        }
      ],
      "name": "EleemosynaryDetailsChanged",
      "type": "event"
    },
    {
      "anonymous": false,
      "inputs": [
        {
          "indexed": false,
          "internalType": "uint256",
          "name": "rate",
          "type": "uint256"
        }
      ],
      "name": "FeeRateChanged",
      "type": "event"
    },
    {
      "anonymous": false,
      "inputs": [
        {
          "indexed": true,
          "internalType": "address",
          "name": "operator",
          "type": "address"
        },
        {
          "indexed": true,
          "internalType": "address",
          "name": "to",
          "type": "address"
        },
        {
          "indexed": false,
          "internalType": "uint256",
          "name": "amount",
          "type": "uint256"
        },
        {
          "indexed": false,
          "internalType": "bytes",
          "name": "data",
          "type": "bytes"
        },
        {
          "indexed": false,
          "internalType": "bytes",
          "name": "operatorData",
          "type": "bytes"
        }
      ],
      "name": "Minted",
      "type": "event"
    },
    {
      "anonymous": false,
      "inputs": [
        {
          "indexed": true,
          "internalType": "address",
          "name": "previousOwner",
          "type": "address"
        },
        {
          "indexed": true,
          "internalType": "address",
          "name": "newOwner",
          "type": "address"
        }
      ],
      "name": "OwnershipTransferred",
      "type": "event"
    },
    {
      "anonymous": false,
      "inputs": [
        {
          "indexed": true,
          "internalType": "address",
          "name": "operator",
          "type": "address"
        },
        {
          "indexed": true,
          "internalType": "address",
          "name": "tokenHolder",
          "type": "address"
        }
      ],
      "name": "RevokedOperator",
      "type": "event"
    },
    {
      "anonymous": false,
      "inputs": [
        {
          "indexed": true,
          "internalType": "bytes32",
          "name": "role",
          "type": "bytes32"
        },
        {
          "indexed": true,
          "internalType": "bytes32",
          "name": "previousAdminRole",
          "type": "bytes32"
        },
        {
          "indexed": true,
          "internalType": "bytes32",
          "name": "newAdminRole",
          "type": "bytes32"
        }
      ],
      "name": "RoleAdminChanged",
      "type": "event"
    },
    {
      "anonymous": false,
      "inputs": [
        {
          "indexed": true,
          "internalType": "bytes32",
          "name": "role",
          "type": "bytes32"
        },
        {
          "indexed": true,
          "internalType": "address",
          "name": "account",
          "type": "address"
        },
        {
          "indexed": true,
          "internalType": "address",
          "name": "sender",
          "type": "address"
        }
      ],
      "name": "RoleGranted",
      "type": "event"
    },
    {
      "anonymous": false,
      "inputs": [
        {
          "indexed": true,
          "internalType": "bytes32",
          "name": "role",
          "type": "bytes32"
        },
        {
          "indexed": true,
          "internalType": "address",
          "name": "account",
          "type": "address"
        },
        {
          "indexed": true,
          "internalType": "address",
          "name": "sender",
          "type": "address"
        }
      ],
      "name": "RoleRevoked",
      "type": "event"
    },
    {
      "anonymous": false,
      "inputs": [
        {
          "indexed": false,
          "internalType": "uint256",
          "name": "blockTimestamp",
          "type": "uint256"
        },
        {
          "indexed": false,
          "internalType": "int256",
          "name": "amount",
          "type": "int256"
        }
      ],
      "name": "SellQuotaChanged",
      "type": "event"
    },
    {
      "anonymous": false,
      "inputs": [
        {
          "indexed": false,
          "internalType": "uint256",
          "name": "sellThreshold",
          "type": "uint256"
        },
        {
          "indexed": false,
          "internalType": "uint256",
          "name": "rateEscalator",
          "type": "uint256"
        }
      ],
      "name": "SellThresholdDetailsChanged",
      "type": "event"
    },
    {
      "anonymous": false,
      "inputs": [
        {
          "indexed": true,
          "internalType": "address",
          "name": "operator",
          "type": "address"
        },
        {
          "indexed": true,
          "internalType": "address",
          "name": "from",
          "type": "address"
        },
        {
          "indexed": true,
          "internalType": "address",
          "name": "to",
          "type": "address"
        },
        {
          "indexed": false,
          "internalType": "uint256",
          "name": "amount",
          "type": "uint256"
        },
        {
          "indexed": false,
          "internalType": "bytes",
          "name": "data",
          "type": "bytes"
        },
        {
          "indexed": false,
          "internalType": "bytes",
          "name": "operatorData",
          "type": "bytes"
        }
      ],
      "name": "Sent",
      "type": "event"
    },
    {
      "anonymous": false,
      "inputs": [
        {
          "indexed": false,
          "internalType": "uint256",
          "name": "rate",
          "type": "uint256"
        }
      ],
      "name": "SowRateChanged",
      "type": "event"
    },
    {
      "anonymous": false,
      "inputs": [
        {
          "indexed": true,
          "internalType": "address",
          "name": "from",
          "type": "address"
        },
        {
          "indexed": true,
          "internalType": "address",
          "name": "to",
          "type": "address"
        },
        {
          "indexed": false,
          "internalType": "uint256",
          "name": "value",
          "type": "uint256"
        }
      ],
      "name": "Transfer",
      "type": "event"
    },
    {
      "inputs": [],
      "name": "DEFAULT_ADMIN_ROLE",
      "outputs": [
        {
          "internalType": "bytes32",
          "name": "",
          "type": "bytes32"
        }
      ],
      "stateMutability": "view",
      "type": "function"
    },
    {
      "inputs": [],
      "name": "FARMING_CONTRACT",
      "outputs": [
        {
          "internalType": "bytes32",
          "name": "",
          "type": "bytes32"
        }
      ],
      "stateMutability": "view",
      "type": "function"
    },
    {
      "inputs": [],
      "name": "LIQUIDITY",
      "outputs": [
        {
          "internalType": "bytes32",
          "name": "",
          "type": "bytes32"
        }
      ],
      "stateMutability": "view",
      "type": "function"
    },
    {
      "inputs": [],
      "name": "LOCKED",
      "outputs": [
        {
          "internalType": "bytes32",
          "name": "",
          "type": "bytes32"
        }
      ],
      "stateMutability": "view",
      "type": "function"
    },
    {
      "inputs": [
        {
          "internalType": "address",
          "name": "holder",
          "type": "address"
        },
        {
          "internalType": "address",
          "name": "spender",
          "type": "address"
        }
      ],
      "name": "allowance",
      "outputs": [
        {
          "internalType": "uint256",
          "name": "",
          "type": "uint256"
        }
      ],
      "stateMutability": "view",
      "type": "function"
    },
    {
      "inputs": [
        {
          "internalType": "address",
          "name": "spender",
          "type": "address"
        },
        {
          "internalType": "uint256",
          "name": "value",
          "type": "uint256"
        }
      ],
      "name": "approve",
      "outputs": [
        {
          "internalType": "bool",
          "name": "",
          "type": "bool"
        }
      ],
      "stateMutability": "nonpayable",
      "type": "function"
    },
    {
      "inputs": [
        {
          "internalType": "address",
          "name": "operator",
          "type": "address"
        }
      ],
      "name": "authorizeOperator",
      "outputs": [],
      "stateMutability": "nonpayable",
      "type": "function"
    },
    {
      "inputs": [
        {
          "internalType": "address",
          "name": "account",
          "type": "address"
        }
      ],
      "name": "balanceOf",
      "outputs": [
        {
          "internalType": "uint256",
          "name": "",
          "type": "uint256"
        }
      ],
      "stateMutability": "view",
      "type": "function"
    },
    {
      "inputs": [
        {
          "internalType": "uint256",
          "name": "amount",
          "type": "uint256"
        },
        {
          "internalType": "bytes",
          "name": "data",
          "type": "bytes"
        }
      ],
      "name": "burn",
      "outputs": [],
      "stateMutability": "nonpayable",
      "type": "function"
    },
    {
      "inputs": [
        {
          "internalType": "address",
          "name": "eleemosynaryAccount",
          "type": "address"
        },
        {
          "internalType": "uint256",
          "name": "donationRate",
          "type": "uint256"
        }
      ],
      "name": "changeEleemosynaryDetails",
      "outputs": [],
      "stateMutability": "nonpayable",
      "type": "function"
    },
    {
      "inputs": [
        {
          "internalType": "uint256",
          "name": "rate",
          "type": "uint256"
        }
      ],
      "name": "changeFeeRate",
      "outputs": [],
      "stateMutability": "nonpayable",
      "type": "function"
    },
    {
      "inputs": [
        {
          "internalType": "uint256",
          "name": "sellThreshold",
          "type": "uint256"
        },
        {
          "internalType": "uint256",
          "name": "rateEscalator",
          "type": "uint256"
        }
      ],
      "name": "changeSellThresholdDetails",
      "outputs": [],
      "stateMutability": "nonpayable",
      "type": "function"
    },
    {
      "inputs": [],
      "name": "decimals",
      "outputs": [
        {
          "internalType": "uint8",
          "name": "",
          "type": "uint8"
        }
      ],
      "stateMutability": "pure",
      "type": "function"
    },
    {
      "inputs": [],
      "name": "defaultOperators",
      "outputs": [
        {
          "internalType": "address[]",
          "name": "",
          "type": "address[]"
        }
      ],
      "stateMutability": "view",
      "type": "function"
    },
    {
      "inputs": [],
      "name": "getEleemosynaryDetails",
      "outputs": [
        {
          "internalType": "address",
          "name": "",
          "type": "address"
        },
        {
          "internalType": "uint256",
          "name": "",
          "type": "uint256"
        }
      ],
      "stateMutability": "view",
      "type": "function"
    },
    {
      "inputs": [],
      "name": "getFeeRate",
      "outputs": [
        {
          "internalType": "uint256",
          "name": "",
          "type": "uint256"
        }
      ],
      "stateMutability": "view",
      "type": "function"
    },
    {
      "inputs": [],
      "name": "getOperativeFeeRate",
      "outputs": [
        {
          "internalType": "uint256",
          "name": "",
          "type": "uint256"
        }
      ],
      "stateMutability": "view",
      "type": "function"
    },
    {
      "inputs": [
        {
          "internalType": "bytes32",
          "name": "role",
          "type": "bytes32"
        }
      ],
      "name": "getRoleAdmin",
      "outputs": [
        {
          "internalType": "bytes32",
          "name": "",
          "type": "bytes32"
        }
      ],
      "stateMutability": "view",
      "type": "function"
    },
    {
      "inputs": [],
      "name": "getSellQuota",
      "outputs": [
        {
          "components": [
            {
              "internalType": "uint256",
              "name": "blockMetric",
              "type": "uint256"
            },
            {
              "internalType": "int256",
              "name": "amount",
              "type": "int256"
            }
          ],
          "internalType": "struct SchnoodleV7Base.TokenMeter",
          "name": "",
          "type": "tuple"
        }
      ],
      "stateMutability": "view",
      "type": "function"
    },
    {
      "inputs": [],
      "name": "getSellThresholdDetails",
      "outputs": [
        {
          "internalType": "uint256",
          "name": "",
          "type": "uint256"
        },
        {
          "internalType": "uint256",
          "name": "",
          "type": "uint256"
        }
      ],
      "stateMutability": "view",
      "type": "function"
    },
    {
      "inputs": [
        {
          "internalType": "bytes32",
          "name": "role",
          "type": "bytes32"
        },
        {
          "internalType": "address",
          "name": "account",
          "type": "address"
        }
      ],
      "name": "grantRole",
      "outputs": [],
      "stateMutability": "nonpayable",
      "type": "function"
    },
    {
      "inputs": [],
      "name": "granularity",
      "outputs": [
        {
          "internalType": "uint256",
          "name": "",
          "type": "uint256"
        }
      ],
      "stateMutability": "view",
      "type": "function"
    },
    {
      "inputs": [
        {
          "internalType": "bytes32",
          "name": "role",
          "type": "bytes32"
        },
        {
          "internalType": "address",
          "name": "account",
          "type": "address"
        }
      ],
      "name": "hasRole",
      "outputs": [
        {
          "internalType": "bool",
          "name": "",
          "type": "bool"
        }
      ],
      "stateMutability": "view",
      "type": "function"
    },
    {
      "inputs": [
        {
          "internalType": "string",
          "name": "name",
          "type": "string"
        },
        {
          "internalType": "string",
          "name": "symbol",
          "type": "string"
        },
        {
          "internalType": "address[]",
          "name": "defaultOperators",
          "type": "address[]"
        },
        {
          "internalType": "uint256",
          "name": "initialSupply",
          "type": "uint256"
        },
        {
          "internalType": "address",
          "name": "owner",
          "type": "address"
        }
      ],
      "name": "initialize",
      "outputs": [],
      "stateMutability": "nonpayable",
      "type": "function"
    },
    {
      "inputs": [
        {
          "internalType": "uint256",
          "name": "initialTokens",
          "type": "uint256"
        },
        {
          "internalType": "address",
          "name": "serviceAccount",
          "type": "address"
        }
      ],
      "name": "initialize",
      "outputs": [],
      "stateMutability": "nonpayable",
      "type": "function"
    },
    {
      "inputs": [
        {
          "internalType": "address",
          "name": "operator",
          "type": "address"
        },
        {
          "internalType": "address",
          "name": "tokenHolder",
          "type": "address"
        }
      ],
      "name": "isOperatorFor",
      "outputs": [
        {
          "internalType": "bool",
          "name": "",
          "type": "bool"
        }
      ],
      "stateMutability": "view",
      "type": "function"
    },
    {
      "inputs": [],
      "name": "name",
      "outputs": [
        {
          "internalType": "string",
          "name": "",
          "type": "string"
        }
      ],
      "stateMutability": "view",
      "type": "function"
    },
    {
      "inputs": [
        {
          "internalType": "address",
          "name": "account",
          "type": "address"
        },
        {
          "internalType": "uint256",
          "name": "amount",
          "type": "uint256"
        },
        {
          "internalType": "bytes",
          "name": "data",
          "type": "bytes"
        },
        {
          "internalType": "bytes",
          "name": "operatorData",
          "type": "bytes"
        }
      ],
      "name": "operatorBurn",
      "outputs": [],
      "stateMutability": "nonpayable",
      "type": "function"
    },
    {
      "inputs": [
        {
          "internalType": "address",
          "name": "sender",
          "type": "address"
        },
        {
          "internalType": "address",
          "name": "recipient",
          "type": "address"
        },
        {
          "internalType": "uint256",
          "name": "amount",
          "type": "uint256"
        },
        {
          "internalType": "bytes",
          "name": "data",
          "type": "bytes"
        },
        {
          "internalType": "bytes",
          "name": "operatorData",
          "type": "bytes"
        }
      ],
      "name": "operatorSend",
      "outputs": [],
      "stateMutability": "nonpayable",
      "type": "function"
    },
    {
      "inputs": [],
      "name": "owner",
      "outputs": [
        {
          "internalType": "address",
          "name": "",
          "type": "address"
        }
      ],
      "stateMutability": "view",
      "type": "function"
    },
    {
      "inputs": [],
      "name": "renounceOwnership",
      "outputs": [],
      "stateMutability": "nonpayable",
      "type": "function"
    },
    {
      "inputs": [
        {
          "internalType": "bytes32",
          "name": "role",
          "type": "bytes32"
        },
        {
          "internalType": "address",
          "name": "account",
          "type": "address"
        }
      ],
      "name": "renounceRole",
      "outputs": [],
      "stateMutability": "nonpayable",
      "type": "function"
    },
    {
      "inputs": [
        {
          "internalType": "address",
          "name": "operator",
          "type": "address"
        }
      ],
      "name": "revokeOperator",
      "outputs": [],
      "stateMutability": "nonpayable",
      "type": "function"
    },
    {
      "inputs": [
        {
          "internalType": "bytes32",
          "name": "role",
          "type": "bytes32"
        },
        {
          "internalType": "address",
          "name": "account",
          "type": "address"
        }
      ],
      "name": "revokeRole",
      "outputs": [],
      "stateMutability": "nonpayable",
      "type": "function"
    },
    {
      "inputs": [
        {
          "internalType": "address",
          "name": "recipient",
          "type": "address"
        },
        {
          "internalType": "uint256",
          "name": "amount",
          "type": "uint256"
        },
        {
          "internalType": "bytes",
          "name": "data",
          "type": "bytes"
        }
      ],
      "name": "send",
      "outputs": [],
      "stateMutability": "nonpayable",
      "type": "function"
    },
    {
      "inputs": [
        {
          "internalType": "bytes4",
          "name": "interfaceId",
          "type": "bytes4"
        }
      ],
      "name": "supportsInterface",
      "outputs": [
        {
          "internalType": "bool",
          "name": "",
          "type": "bool"
        }
      ],
      "stateMutability": "view",
      "type": "function"
    },
    {
      "inputs": [],
      "name": "symbol",
      "outputs": [
        {
          "internalType": "string",
          "name": "",
          "type": "string"
        }
      ],
      "stateMutability": "view",
      "type": "function"
    },
    {
      "inputs": [],
      "name": "totalSupply",
      "outputs": [
        {
          "internalType": "uint256",
          "name": "",
          "type": "uint256"
        }
      ],
      "stateMutability": "view",
      "type": "function"
    },
    {
      "inputs": [
        {
          "internalType": "address",
          "name": "recipient",
          "type": "address"
        },
        {
          "internalType": "uint256",
          "name": "amount",
          "type": "uint256"
        }
      ],
      "name": "transfer",
      "outputs": [
        {
          "internalType": "bool",
          "name": "",
          "type": "bool"
        }
      ],
      "stateMutability": "nonpayable",
      "type": "function"
    },
    {
      "inputs": [
        {
          "internalType": "address",
          "name": "sender",
          "type": "address"
        },
        {
          "internalType": "address",
          "name": "recipient",
          "type": "address"
        },
        {
          "internalType": "uint256",
          "name": "amount",
          "type": "uint256"
        }
      ],
      "name": "transferFrom",
      "outputs": [
        {
          "internalType": "bool",
          "name": "",
          "type": "bool"
        }
      ],
      "stateMutability": "nonpayable",
      "type": "function"
    },
    {
      "inputs": [
        {
          "internalType": "address",
          "name": "newOwner",
          "type": "address"
        }
      ],
      "name": "transferOwnership",
      "outputs": [],
      "stateMutability": "nonpayable",
      "type": "function"
    },
    {
      "inputs": [
        {
          "internalType": "bool",
          "name": "testnet",
          "type": "bool"
        },
        {
          "internalType": "address",
          "name": "liquidityToken",
          "type": "address"
        },
        {
          "internalType": "address",
          "name": "schnoodleFarming",
          "type": "address"
        }
      ],
      "name": "configure",
      "outputs": [],
      "stateMutability": "nonpayable",
      "type": "function"
    },
    {
      "inputs": [],
      "name": "getFarmingFund",
      "outputs": [
        {
          "internalType": "address",
          "name": "",
          "type": "address"
        }
      ],
      "stateMutability": "view",
      "type": "function"
    },
    {
      "inputs": [
        {
          "internalType": "uint256",
          "name": "rate",
          "type": "uint256"
        }
      ],
      "name": "changeSowRate",
      "outputs": [],
      "stateMutability": "nonpayable",
      "type": "function"
    },
    {
      "inputs": [],
      "name": "getSowRate",
      "outputs": [
        {
          "internalType": "uint256",
          "name": "",
          "type": "uint256"
        }
      ],
      "stateMutability": "view",
      "type": "function"
    },
    {
      "inputs": [
        {
          "internalType": "address",
          "name": "account",
          "type": "address"
        },
        {
          "internalType": "uint256",
          "name": "netReward",
          "type": "uint256"
        },
        {
          "internalType": "uint256",
          "name": "grossReward",
          "type": "uint256"
        }
      ],
      "name": "farmingReward",
      "outputs": [],
      "stateMutability": "nonpayable",
      "type": "function"
    }
  ],
  "bytecode": "0x608060405234801561001057600080fd5b50613ac1806100206000396000f3fe608060405234801561001057600080fd5b506004361061028a5760003560e01c80638da5cb5b1161015c578063b393204b116100ce578063e84839bd11610087578063e84839bd146105fc578063f2fde38b1461060f578063fad8b32a14610622578063fc673c4f14610635578063fdf5f4f814610648578063fe9d93031461066357600080fd5b8063b393204b14610572578063b7a895fa1461057a578063d547741f146105b0578063d95b6371146105c3578063da35a26f146105d6578063dd62ed3e146105e957600080fd5b806395d89b411161012057806395d89b41146105025780639bd9bbc61461050a578063a1422f691461051d578063a217fddf14610544578063a9059cbb1461054c578063affca9321461055f57600080fd5b80638da5cb5b146104915780639137ac72146104a257806391d14854146104c9578063957872aa146104dc578063959b8c3f146104ef57600080fd5b806336568abe116102005780636da1dd26116101b95780636da1dd261461042257806370a0823114610448578063715018a61461045b578063768f950a146104635780638184ba411461047657806384e5eed01461048957600080fd5b806336568abe1461039b578063556f0dc7146103ae5780635d611fca146103b557806362ad1b83146103c85780636a6ccdf5146103db5780636c05932a146103e457600080fd5b806322daa21d1161025257806322daa21d1461030657806323b872dd1461031b578063248a9ca31461032e5780632861c7d1146103525780632f2ff15d14610379578063313ce5671461038c57600080fd5b806301ffc9a71461028f57806306e48538146102b757806306fdde03146102cc578063095ea7b3146102e157806318160ddd146102f4575b600080fd5b6102a261029d366004612ec5565b610676565b60405190151581526020015b60405180910390f35b6102bf6106ad565b6040516102ae9190612eef565b6102d461070f565b6040516102ae9190612f94565b6102a26102ef366004612fcc565b610798565b60c9545b6040519081526020016102ae565b610319610314366004612ff8565b6107b3565b005b6102a2610329366004613011565b610823565b6102f861033c366004612ff8565b6000908152610103602052604090206001015490565b6102f87f86cf169ddb9f19bc57304a958748511e956d0b9255fb5895294f9c4ae5b00d5881565b610319610387366004613052565b610893565b604051601281526020016102ae565b6103196103a9366004613052565b6108bf565b60016102f8565b6103196103c3366004613082565b61093d565b6103196103d6366004613189565b610abb565b610137546102f8565b60408051808201825260008082526020918201528151808301835260ce5480825260cf549183019182528351908152905191810191909152016102ae565b610136546001600160a01b03165b6040516001600160a01b0390911681526020016102ae565b6102f861045636600461321c565b610af7565b610319610b19565b610319610471366004613239565b610b4f565b61031961048436600461334c565b610bcd565b60ca546102f8565b6097546001600160a01b0316610430565b6102f87f6426100d0053205ef4e6cbd754ca9b11acf0e907f8e2741bd95048bd4543de1a81565b6102a26104d7366004613052565b610c3e565b6103196104ea36600461336e565b610c6a565b6103196104fd36600461321c565b610cfd565b6102d4610e1b565b6103196105183660046133a3565b610e2a565b6102f87feb4a01a12a4bbfa1bc780c16c5b2b6720cdf4f3c29cabd8c0f76fec3a575096b81565b6102f8600081565b6102a261055a366004612fcc565b610e48565b61031961056d366004612ff8565b610eb6565b6102f8610f15565b61059160cb5460cc546001600160a01b0390911691565b604080516001600160a01b0390931683526020830191909152016102ae565b6103196105be366004613052565b610f87565b6102a26105d13660046133fc565b610fae565b6103196105e4366004613052565b61104f565b6102f86105f73660046133fc565b61114b565b61031961060a366004612fcc565b61117c565b61031961061d36600461321c565b611200565b61031961063036600461321c565b61129b565b61031961064336600461342a565b6113b7565b60cd5460d054604080519283526020830191909152016102ae565b6103196106713660046134aa565b6113ef565b60006001600160e01b03198216637965db0b60e01b14806106a757506301ffc9a760e01b6001600160e01b03198316145b92915050565b6060603780548060200260200160405190810160405280929190818152602001828054801561070557602002820191906000526020600020905b81546001600160a01b031681526001909101906020018083116106e7575b5050505050905090565b60606035805461071e906134f1565b80601f016020809104026020016040519081016040528092919081815260200182805461074a906134f1565b80156107055780601f1061076c57610100808354040283529160200191610705565b820191906000526020600020905b81548152906001019060200180831161077a57509395945050505050565b60006107ac836107a78461140a565b61141e565b9392505050565b6097546001600160a01b031633146107e65760405162461bcd60e51b81526004016107dd9061352c565b60405180910390fd5b6101378190556040518181527f356b0da78b28f488d953ba76712b3bdd18f174ff2296108417b4c1d47669692d906020015b60405180910390a150565b60008061082f8361140a565b9050600061083e868684611436565b9050846001600160a01b0316866001600160a01b0316600080516020613a6c8339815191528660405161087391815260200190565b60405180910390a361088a868686856115f661160c565b95945050505050565b600082815261010360205260409020600101546108b0813361171e565b6108ba8383611782565b505050565b6001600160a01b038116331461092f5760405162461bcd60e51b815260206004820152602f60248201527f416363657373436f6e74726f6c3a2063616e206f6e6c792072656e6f756e636560448201526e103937b632b9903337b91039b2b63360891b60648201526084016107dd565b6109398282611809565b5050565b6097546001600160a01b031633146109675760405162461bcd60e51b81526004016107dd9061352c565b610136546001600160a01b0316156109c15760405162461bcd60e51b815260206004820152601d60248201527f5363686e6f6f646c653a20616c726561647920636f6e6669677572656400000060448201526064016107dd565b6109dd60006109d86097546001600160a01b031690565b611871565b610a077f86cf169ddb9f19bc57304a958748511e956d0b9255fb5895294f9c4ae5b00d5883611871565b610a317f6426100d0053205ef4e6cbd754ca9b11acf0e907f8e2741bd95048bd4543de1a82611871565b61013580546001600160a01b0319166001600160a01b03831617905542610a59600143613577565b40604051602001610a74929190918252602082015260400190565b60408051808303601f19018152919052805160209091012061013680546001600160a01b0319166001600160a01b039092169190911790556028610137556108ba8361187b565b610ac53386610fae565b610ae15760405162461bcd60e51b81526004016107dd9061358e565b610af0858585858560016118d5565b5050505050565b6001600160a01b0381166000908152603360205260408120546106a790611943565b6097546001600160a01b03163314610b435760405162461bcd60e51b81526004016107dd9061352c565b610b4d600061196a565b565b600054610100900460ff1680610b68575060005460ff16155b610b845760405162461bcd60e51b81526004016107dd906135da565b600054610100900460ff16158015610ba6576000805461ffff19166101011790555b610bb386868686866119bc565b8015610bc5576000805461ff00191690555b505050505050565b6097546001600160a01b03163314610bf75760405162461bcd60e51b81526004016107dd9061352c565b60cd82905560d081905560408051838152602081018390527f72c1673617b0c2d62adda4739eab51cd7805a8ad541ae28ec66f46052c1dfa62910160405180910390a15050565b6000918252610103602090815260408084206001600160a01b0393909316845291905290205460ff1690565b610c947f6426100d0053205ef4e6cbd754ca9b11acf0e907f8e2741bd95048bd4543de1a33610c3e565b610c9d57600080fd5b61013654610cbd906001600160a01b031684610cb88561140a565b6115f6565b610136546108ba906001600160a01b0316610cd88484613577565b6040518060200160405280600081525060405180602001604052806000815250611a33565b336001600160a01b0382161415610d625760405162461bcd60e51b8152602060048201526024808201527f4552433737373a20617574686f72697a696e672073656c66206173206f70657260448201526330ba37b960e11b60648201526084016107dd565b6001600160a01b03811660009081526038602052604090205460ff1615610db357336000908152603a602090815260408083206001600160a01b03851684529091529020805460ff19169055610de2565b3360009081526039602090815260408083206001600160a01b03851684529091529020805460ff191660011790555b60405133906001600160a01b038316907ff4caeb2d6ca8932a215a353d0703c326ec2d81fc68170f320eb2ab49e9df61f990600090a350565b60606036805461071e906134f1565b6108ba338484846040518060200160405280600081525060016118d5565b600080610e548361140a565b90506000610e628583611a64565b90506001600160a01b038516336001600160a01b0316600080516020613a6c83398151915286604051610e9791815260200190565b60405180910390a3610eae338686856115f661160c565b949350505050565b6097546001600160a01b03163314610ee05760405162461bcd60e51b81526004016107dd9061352c565b60ca8190556040518181527fdd72d2879718489eb363ba6099239f89d49542612862c71545503d35cfddda4690602001610818565b60008060cd54118015610f2a575060cf546000135b15610f805760cd5460cf54610f4a90610f4290613628565b60cd54611b17565b60d05460ca54610f5a9190613645565b610f649190613645565b610f6e919061367a565b60ca54610f7b919061368e565b905090565b5060ca5490565b60008281526101036020526040902060010154610fa4813361171e565b6108ba8383611809565b6000816001600160a01b0316836001600160a01b0316148061101957506001600160a01b03831660009081526038602052604090205460ff16801561101957506001600160a01b038083166000908152603a602090815260408083209387168352929052205460ff16155b806107ac5750506001600160a01b0390811660009081526039602090815260408083209490931682529290925290205460ff1690565b600054610100900460ff1680611068575060005460ff16155b6110845760405162461bcd60e51b81526004016107dd906135da565b600054610100900460ff161580156110a6576000805461ffff19166101011790555b6110ae611b2d565b6110ba6012600a61378a565b6110c49084613645565b60c981905560408051808201825260098152685363686e6f6f646c6560b81b60208083019190915282518084018452600581526414d393d3d160da1b818301528351600081529182019093526111359391929161112390600019613799565b61112f90600019613577565b866119bc565b80156108ba576000805461ff0019169055505050565b6001600160a01b038083166000908152603b602090815260408083209385168352929052908120546107ac90611943565b6097546001600160a01b031633146111a65760405162461bcd60e51b81526004016107dd9061352c565b60cb80546001600160a01b0319166001600160a01b03841690811790915560cc8290556040518281527f3c9add9b205965c28e39a1f5fc6780a30ba0f001dc883ed462d795f97a2d94069060200160405180910390a25050565b6097546001600160a01b0316331461122a5760405162461bcd60e51b81526004016107dd9061352c565b6001600160a01b03811661128f5760405162461bcd60e51b815260206004820152602660248201527f4f776e61626c653a206e6577206f776e657220697320746865207a65726f206160448201526564647265737360d01b60648201526084016107dd565b6112988161196a565b50565b6001600160a01b0381163314156112fe5760405162461bcd60e51b815260206004820152602160248201527f4552433737373a207265766f6b696e672073656c66206173206f70657261746f6044820152603960f91b60648201526084016107dd565b6001600160a01b03811660009081526038602052604090205460ff161561135257336000908152603a602090815260408083206001600160a01b03851684529091529020805460ff1916600117905561137e565b3360009081526039602090815260408083206001600160a01b03851684529091529020805460ff191690555b60405133906001600160a01b038316907f50546e66e5f44d728365dc3908c63bc5cfeeab470722c1677e3073a6ac294aa190600090a350565b6113c13385610fae565b6113dd5760405162461bcd60e51b81526004016107dd9061358e565b6113e984848484611a33565b50505050565b61093933838360405180602001604052806000815250611a33565b6000611414611ba8565b6106a79083613645565b60003361142c818585611bda565b5060019392505050565b60006001600160a01b03831661145e5760405162461bcd60e51b81526004016107dd906137ad565b6001600160a01b0384166114c35760405162461bcd60e51b815260206004820152602660248201527f4552433737373a207472616e736665722066726f6d20746865207a65726f206160448201526564647265737360d01b60648201526084016107dd565b60003390506114f4818686866040518060200160405280600081525060405180602001604052806000815250611d01565b611520818686866040518060200160405280600081525060405180602001604052806000815250611e37565b6001600160a01b038086166000908152603b6020908152604080832093851683529290522054838110156115a85760405162461bcd60e51b815260206004820152602960248201527f4552433737373a207472616e7366657220616d6f756e74206578636565647320604482015268616c6c6f77616e636560b81b60648201526084016107dd565b6115bc86836115b78785613577565b611bda565b6115ea8287878760405180602001604052806000815250604051806020016040528060008152506000611f97565b50600195945050505050565b611601833383611bda565b6113e9838383611436565b60cd54156117005760ce5442901580611632575061162d6201518082613577565b60ce54105b1561167f5760ce81905560cd5460cf8190556040805183815260208101929092527f6326273a6785f513768f2d48c9379925280b1265fc536c9ba0d40d213994064b910160405180910390a15b836116898761216b565b61169557600019611698565b60015b6116a291906137f1565b60cf80546000906116b4908490613876565b909155505060ce5460cf546040517f6326273a6785f513768f2d48c9379925280b1265fc536c9ba0d40d213994064b926116f692908252602082015260400190565b60405180910390a1505b6117098461216b565b61171257610af0565b610af084848484612197565b6117288282610c3e565b61093957611740816001600160a01b031660146121c5565b61174b8360206121c5565b60405160200161175c9291906138b7565b60408051601f198184030181529082905262461bcd60e51b82526107dd91600401612f94565b61178c8282610c3e565b610939576000828152610103602090815260408083206001600160a01b03851684529091529020805460ff191660011790556117c53390565b6001600160a01b0316816001600160a01b0316837f2f8788117e7eff1d82e926ec794901d17c78024a50270940304540a733656f0d60405160405180910390a45050565b6118138282610c3e565b15610939576000828152610103602090815260408083206001600160a01b0385168085529252808320805460ff1916905551339285917ff6391f5c32d9c69d2a47ea670b442974b53935d1edc7fd64eb21e047a839171b9190a45050565b6109398282611782565b6097546001600160a01b031633146118a55760405162461bcd60e51b81526004016107dd9061352c565b602860ca55600660d0558015611298576118c16012600a61378a565b6118cf90633b9aca00613645565b60cd5550565b60006118e08561140a565b90506118f0878783878787612361565b856001600160a01b0316876001600160a01b0316600080516020613a6c8339815191528760405161192391815260200190565b60405180910390a361193a8787878461244461160c565b50505050505050565b6000811561196257611953611ba8565b61195d908361367a565b6106a7565b600092915050565b609780546001600160a01b038381166001600160a01b0319831681179093556040519116919082907f8be0079c531659141344cd1fd0a4f28419497f9722a3daafe3b4186f6b6457e090600090a35050565b600054610100900460ff16806119d5575060005460ff16155b6119f15760405162461bcd60e51b81526004016107dd906135da565b600054610100900460ff16158015611a13576000805461ffff19166101011790555b611a1b612471565b611a268686866124db565b610bb38686868686612710565b611a4784611a408561140a565b8484612791565b8260c96000828254611a599190613577565b909155505050505050565b60006001600160a01b038316611a8c5760405162461bcd60e51b81526004016107dd906137ad565b6000339050611abd818286866040518060200160405280600081525060405180602001604052806000815250611d01565b611ae9818286866040518060200160405280600081525060405180602001604052806000815250611e37565b61142c8182868660405180602001604052806000815250604051806020016040528060008152506000611f97565b6000818310611b2657816107ac565b5090919050565b600054610100900460ff1680611b46575060005460ff16155b611b625760405162461bcd60e51b81526004016107dd906135da565b600054610100900460ff16158015611b84576000805461ffff19166101011790555b611b8c612471565b611b94612941565b8015611298576000805461ff001916905550565b600080611bb460345490565b90508015611bd15760c954603454611bcc919061367a565b611bd4565b60005b91505090565b6001600160a01b038316611c3e5760405162461bcd60e51b815260206004820152602560248201527f4552433737373a20617070726f76652066726f6d20746865207a65726f206164604482015264647265737360d81b60648201526084016107dd565b6001600160a01b038216611ca05760405162461bcd60e51b815260206004820152602360248201527f4552433737373a20617070726f766520746f20746865207a65726f206164647260448201526265737360e81b60648201526084016107dd565b6001600160a01b038381166000818152603b602090815260408083209487168084529482529182902085905590518481527f8c5be1e5ebec7d5bd14f71427d1e84f3dd0314c0f7b2291e5b200ac8c7c3b925910160405180910390a3505050565b60405163555ddc6560e11b81526001600160a01b03861660048201527f29ddb589b1fb5fc7cf394961c1adf5f8c6454761adf795e67fe149f658abe8956024820152600090731820a4b7618bde71dce8cdc73aab6c95905fad249063aabbb8ca9060440160206040518083038186803b158015611d7d57600080fd5b505afa158015611d91573d6000803e3d6000fd5b505050506040513d601f19601f82011682018060405250810190611db5919061392c565b90506001600160a01b0381161561193a57604051633ad5cbc160e11b81526001600160a01b038216906375ab978290611dfc908a908a908a908a908a908a90600401613949565b600060405180830381600087803b158015611e1657600080fd5b505af1158015611e2a573d6000803e3d6000fd5b5050505050505050505050565b611e43868686866129a1565b6001600160a01b03851660009081526033602052604090205483811015611ebc5760405162461bcd60e51b815260206004820152602760248201527f4552433737373a207472616e7366657220616d6f756e7420657863656564732060448201526662616c616e636560c81b60648201526084016107dd565b6001600160a01b03808716600090815260336020526040808220878503905591871681529081208054869290611ef390849061368e565b92505081905550846001600160a01b0316866001600160a01b0316886001600160a01b03167f06b541ddaa720db2b10a4d0cdac39b8d360425fc073085fac19bc82614677987878787604051611f4b939291906139a3565b60405180910390a4846001600160a01b0316866001600160a01b0316600080516020613a6c83398151915286604051611f8691815260200190565b60405180910390a350505050505050565b60405163555ddc6560e11b81526001600160a01b03861660048201527fb281fc8c12954d22544db45de3159a39272895b169a852b314f9cc762e44c53b6024820152600090731820a4b7618bde71dce8cdc73aab6c95905fad249063aabbb8ca9060440160206040518083038186803b15801561201357600080fd5b505afa158015612027573d6000803e3d6000fd5b505050506040513d601f19601f8201168201806040525081019061204b919061392c565b90506001600160a01b038116156120c7576040516223de2960e01b81526001600160a01b038216906223de2990612090908b908b908b908b908b908b90600401613949565b600060405180830381600087803b1580156120aa57600080fd5b505af11580156120be573d6000803e3d6000fd5b50505050612161565b8115612161576001600160a01b0386163b156121615760405162461bcd60e51b815260206004820152604d60248201527f4552433737373a20746f6b656e20726563697069656e7420636f6e747261637460448201527f20686173206e6f20696d706c656d656e74657220666f7220455243373737546f60648201526c1ad95b9cd49958da5c1a595b9d609a1b608482015260a4016107dd565b5050505050505050565b60006106a77f86cf169ddb9f19bc57304a958748511e956d0b9255fb5895294f9c4ae5b00d5883610c3e565b6121a384848484612a8e565b61013654610137546113e99186916001600160a01b0390911690869085612b39565b606060006121d4836002613645565b6121df90600261368e565b67ffffffffffffffff8111156121f7576121f76130d2565b6040519080825280601f01601f191660200182016040528015612221576020820181803683370190505b509050600360fc1b8160008151811061223c5761223c6139d8565b60200101906001600160f81b031916908160001a905350600f60fb1b8160018151811061226b5761226b6139d8565b60200101906001600160f81b031916908160001a905350600061228f846002613645565b61229a90600161368e565b90505b6001811115612312576f181899199a1a9b1b9c1cb0b131b232b360811b85600f16601081106122ce576122ce6139d8565b1a60f81b8282815181106122e4576122e46139d8565b60200101906001600160f81b031916908160001a90535060049490941c9361230b816139ee565b905061229d565b5083156107ac5760405162461bcd60e51b815260206004820181905260248201527f537472696e67733a20686578206c656e67746820696e73756666696369656e7460448201526064016107dd565b6001600160a01b0386166123c25760405162461bcd60e51b815260206004820152602260248201527f4552433737373a2073656e642066726f6d20746865207a65726f206164647265604482015261737360f01b60648201526084016107dd565b6001600160a01b0385166124185760405162461bcd60e51b815260206004820181905260248201527f4552433737373a2073656e6420746f20746865207a65726f206164647265737360448201526064016107dd565b33612427818888888888611d01565b612435818888888888611e37565b61193a81888888888888611f97565b6108ba83838360405180602001604052806000815250604051806020016040528060008152506001612361565b600054610100900460ff168061248a575060005460ff16155b6124a65760405162461bcd60e51b81526004016107dd906135da565b600054610100900460ff16158015611b94576000805461ffff19166101011790558015611298576000805461ff001916905550565b600054610100900460ff16806124f4575060005460ff16155b6125105760405162461bcd60e51b81526004016107dd906135da565b600054610100900460ff16158015612532576000805461ffff19166101011790555b8351612545906035906020870190612dd7565b508251612559906036906020860190612dd7565b50815161256d906037906020850190612e5b565b5060005b82518110156125d657600160386000858481518110612592576125926139d8565b6020908102919091018101516001600160a01b03168252810191909152604001600020805460ff1916911515919091179055806125ce81613a05565b915050612571565b506040516329965a1d60e01b815230600482018190527fac7fbab5f54a3ca8194167523c6753bfeb96a445279294b6125b68cce217705460248301526044820152731820a4b7618bde71dce8cdc73aab6c95905fad24906329965a1d90606401600060405180830381600087803b15801561265057600080fd5b505af1158015612664573d6000803e3d6000fd5b50506040516329965a1d60e01b815230600482018190527faea199e31a596269b42cdafd93407f14436db6e4cad65417994c2eb37381e05a60248301526044820152731820a4b7618bde71dce8cdc73aab6c95905fad2492506329965a1d9150606401600060405180830381600087803b1580156126e157600080fd5b505af11580156126f5573d6000803e3d6000fd5b5050505080156113e9576000805461ff001916905550505050565b600054610100900460ff1680612729575060005460ff16155b6127455760405162461bcd60e51b81526004016107dd906135da565b600054610100900460ff16158015612767576000805461ffff19166101011790555b610bb382846040518060200160405280600081525060405180602001604052806000815250612bb2565b6001600160a01b0384166127f25760405162461bcd60e51b815260206004820152602260248201527f4552433737373a206275726e2066726f6d20746865207a65726f206164647265604482015261737360f01b60648201526084016107dd565b3361280281866000878787611d01565b61280f81866000876129a1565b6001600160a01b038516600090815260336020526040902054848110156128845760405162461bcd60e51b815260206004820152602360248201527f4552433737373a206275726e20616d6f756e7420657863656564732062616c616044820152626e636560e81b60648201526084016107dd565b6001600160a01b03861660009081526033602052604081208683039055603480548792906128b3908490613577565b92505081905550856001600160a01b0316826001600160a01b03167fa78a9be3a7b862d26933ad85fb11d80ef66b8f972d7cbba06621d583943a4098878787604051612901939291906139a3565b60405180910390a36040518581526000906001600160a01b03881690600080516020613a6c833981519152906020015b60405180910390a3505050505050565b600054610100900460ff168061295a575060005460ff16155b6129765760405162461bcd60e51b81526004016107dd906135da565b600054610100900460ff16158015612998576000805461ffff19166101011790555b611b943361196a565b6001600160a01b03831615612a895760006129bb82611943565b905060006129c885610af7565b9050808211806129ea57506129dc85612bc0565b6129e69082613577565b8211155b612a525760405162461bcd60e51b815260206004820152603360248201527f5363686e6f6f646c653a207472616e7366657220616d6f756e74206578636565604482015272647320756e6c6f636b65642062616c616e636560681b60648201526084016107dd565b612a7c7feb4a01a12a4bbfa1bc780c16c5b2b6720cdf4f3c29cabd8c0f76fec3a575096b86610c3e565b15612a8657600080fd5b50505b6113e9565b6000612a98610f15565b9050612ada8582612aab6103e88761367a565b612ab59190613645565b6040518060200160405280600081525060405180602001604052806000815250612791565b60006001600160a01b038616600080516020613a6c8339815191526103e8612b028589613645565b612b0c919061367a565b60405190815260200160405180910390a360cb5460cc54610af09187916001600160a01b03909116908790865b6001600160a01b03841615610af05760006103e8612b578486613645565b612b61919061367a565b90506000612b6e8261140a565b9050612b7f8787838663ffffffff16565b856001600160a01b0316876001600160a01b0316600080516020613a6c83398151915284604051611f8691815260200190565b6113e9848484846001612c9b565b610135546000906001600160a01b0316612bdc57506000919050565b610135546040516001600160a01b038481166024830152600092839291169060440160408051601f198184030181529181526020820180516001600160e01b0316632c9aab9b60e11b17905251612c339190613a20565b6000604051808303816000865af19150503d8060008114612c70576040519150601f19603f3d011682016040523d82523d6000602084013e612c75565b606091505b509150915081612c8757612c87613a3c565b80806020019051810190610eae9190613a52565b610af085858585856001600160a01b038516612cf95760405162461bcd60e51b815260206004820181905260248201527f4552433737373a206d696e7420746f20746865207a65726f206164647265737360448201526064016107dd565b33612d0781600088886129a1565b8460346000828254612d19919061368e565b90915550506001600160a01b03861660009081526033602052604081208054879290612d4690849061368e565b90915550612d5c90508160008888888888611f97565b856001600160a01b0316816001600160a01b03167f2fe5be0146f74c5bce36c0b80911af6c7d86ff27e89d5cfa61fc681327954e5d878787604051612da3939291906139a3565b60405180910390a36040518581526001600160a01b03871690600090600080516020613a6c83398151915290602001612931565b828054612de3906134f1565b90600052602060002090601f016020900481019282612e055760008555612e4b565b82601f10612e1e57805160ff1916838001178555612e4b565b82800160010185558215612e4b579182015b82811115612e4b578251825591602001919060010190612e30565b50612e57929150612eb0565b5090565b828054828255906000526020600020908101928215612e4b579160200282015b82811115612e4b57825182546001600160a01b0319166001600160a01b03909116178255602090920191600190910190612e7b565b5b80821115612e575760008155600101612eb1565b600060208284031215612ed757600080fd5b81356001600160e01b0319811681146107ac57600080fd5b6020808252825182820181905260009190848201906040850190845b81811015612f305783516001600160a01b031683529284019291840191600101612f0b565b50909695505050505050565b60005b83811015612f57578181015183820152602001612f3f565b838111156113e95750506000910152565b60008151808452612f80816020860160208601612f3c565b601f01601f19169290920160200192915050565b6020815260006107ac6020830184612f68565b6001600160a01b038116811461129857600080fd5b8035612fc781612fa7565b919050565b60008060408385031215612fdf57600080fd5b8235612fea81612fa7565b946020939093013593505050565b60006020828403121561300a57600080fd5b5035919050565b60008060006060848603121561302657600080fd5b833561303181612fa7565b9250602084013561304181612fa7565b929592945050506040919091013590565b6000806040838503121561306557600080fd5b82359150602083013561307781612fa7565b809150509250929050565b60008060006060848603121561309757600080fd5b833580151581146130a757600080fd5b925060208401356130b781612fa7565b915060408401356130c781612fa7565b809150509250925092565b634e487b7160e01b600052604160045260246000fd5b604051601f8201601f1916810167ffffffffffffffff81118282101715613111576131116130d2565b604052919050565b600082601f83011261312a57600080fd5b813567ffffffffffffffff811115613144576131446130d2565b613157601f8201601f19166020016130e8565b81815284602083860101111561316c57600080fd5b816020850160208301376000918101602001919091529392505050565b600080600080600060a086880312156131a157600080fd5b85356131ac81612fa7565b945060208601356131bc81612fa7565b935060408601359250606086013567ffffffffffffffff808211156131e057600080fd5b6131ec89838a01613119565b9350608088013591508082111561320257600080fd5b5061320f88828901613119565b9150509295509295909350565b60006020828403121561322e57600080fd5b81356107ac81612fa7565b600080600080600060a0868803121561325157600080fd5b853567ffffffffffffffff8082111561326957600080fd5b61327589838a01613119565b965060209150818801358181111561328c57600080fd5b6132988a828b01613119565b9650506040880135818111156132ad57600080fd5b8801601f81018a136132be57600080fd5b8035828111156132d0576132d06130d2565b8060051b92506132e18484016130e8565b818152928201840192848101908c8511156132fb57600080fd5b928501925b84841015613325578335925061331583612fa7565b8282529285019290850190613300565b97505050506060880135935061334091505060808701612fbc565b90509295509295909350565b6000806040838503121561335f57600080fd5b50508035926020909101359150565b60008060006060848603121561338357600080fd5b833561338e81612fa7565b95602085013595506040909401359392505050565b6000806000606084860312156133b857600080fd5b83356133c381612fa7565b925060208401359150604084013567ffffffffffffffff8111156133e657600080fd5b6133f286828701613119565b9150509250925092565b6000806040838503121561340f57600080fd5b823561341a81612fa7565b9150602083013561307781612fa7565b6000806000806080858703121561344057600080fd5b843561344b81612fa7565b935060208501359250604085013567ffffffffffffffff8082111561346f57600080fd5b61347b88838901613119565b9350606087013591508082111561349157600080fd5b5061349e87828801613119565b91505092959194509250565b600080604083850312156134bd57600080fd5b82359150602083013567ffffffffffffffff8111156134db57600080fd5b6134e785828601613119565b9150509250929050565b600181811c9082168061350557607f821691505b6020821081141561352657634e487b7160e01b600052602260045260246000fd5b50919050565b6020808252818101527f4f776e61626c653a2063616c6c6572206973206e6f7420746865206f776e6572604082015260600190565b634e487b7160e01b600052601160045260246000fd5b60008282101561358957613589613561565b500390565b6020808252602c908201527f4552433737373a2063616c6c6572206973206e6f7420616e206f70657261746f60408201526b39103337b9103437b63232b960a11b606082015260800190565b6020808252602e908201527f496e697469616c697a61626c653a20636f6e747261637420697320616c72656160408201526d191e481a5b9a5d1a585b1a5e995960921b606082015260800190565b6000600160ff1b82141561363e5761363e613561565b5060000390565b600081600019048311821515161561365f5761365f613561565b500290565b634e487b7160e01b600052601260045260246000fd5b60008261368957613689613664565b500490565b600082198211156136a1576136a1613561565b500190565b600181815b808511156136e15781600019048211156136c7576136c7613561565b808516156136d457918102915b93841c93908002906136ab565b509250929050565b6000826136f8575060016106a7565b81613705575060006106a7565b816001811461371b576002811461372557613741565b60019150506106a7565b60ff84111561373657613736613561565b50506001821b6106a7565b5060208310610133831016604e8410600b8410161715613764575081810a6106a7565b61376e83836136a6565b806000190482111561378257613782613561565b029392505050565b60006107ac60ff8416836136e9565b6000826137a8576137a8613664565b500690565b60208082526024908201527f4552433737373a207472616e7366657220746f20746865207a65726f206164646040820152637265737360e01b606082015260800190565b60006001600160ff1b038184138284138082168684048611161561381757613817613561565b600160ff1b600087128281168783058912161561383657613836613561565b6000871292508782058712848416161561385257613852613561565b8785058712818416161561386857613868613561565b505050929093029392505050565b600080821280156001600160ff1b038490038513161561389857613898613561565b600160ff1b83900384128116156138b1576138b1613561565b50500190565b7f416363657373436f6e74726f6c3a206163636f756e74200000000000000000008152600083516138ef816017850160208801612f3c565b7001034b99036b4b9b9b4b733903937b6329607d1b6017918401918201528351613920816028840160208801612f3c565b01602801949350505050565b60006020828403121561393e57600080fd5b81516107ac81612fa7565b6001600160a01b0387811682528681166020830152851660408201526060810184905260c06080820181905260009061398490830185612f68565b82810360a08401526139968185612f68565b9998505050505050505050565b8381526060602082015260006139bc6060830185612f68565b82810360408401526139ce8185612f68565b9695505050505050565b634e487b7160e01b600052603260045260246000fd5b6000816139fd576139fd613561565b506000190190565b6000600019821415613a1957613a19613561565b5060010190565b60008251613a32818460208701612f3c565b9190910192915050565b634e487b7160e01b600052600160045260246000fd5b600060208284031215613a6457600080fd5b505191905056feddf252ad1be2c89b69c2b068fc378daa952ba7f163c4a11628f55a4df523b3efa2646970667358221220105d27ae6eac006c74e25de00b5044597b65e825d653db56946da9397689f4bb64736f6c63430008090033",
  "immutableReferences": {},
  "source": "// contracts/SchnoodleV7.sol\r\n// SPDX-License-Identifier: MIT\r\npragma solidity ^0.8.0;\r\n\r\nimport \"@openzeppelin/contracts-upgradeable/proxy/utils/Initializable.sol\";\r\nimport \"@openzeppelin/contracts-upgradeable/access/AccessControlUpgradeable.sol\";\r\nimport \"./imports/SchnoodleV7Base.sol\";\r\n\r\n/// @author Jason Payne (https://twitter.com/Neo42)\r\ncontract SchnoodleV7 is SchnoodleV7Base, AccessControlUpgradeable {\r\n    address private _schnoodleFarming;\r\n    address private _farmingFund;\r\n    uint256 private _sowRate;\r\n\r\n    bytes32 public constant LIQUIDITY = keccak256(\"LIQUIDITY\");\r\n    bytes32 public constant FARMING_CONTRACT = keccak256(\"FARMING_CONTRACT\");\r\n    bytes32 public constant LOCKED = keccak256(\"LOCKED\");\r\n\r\n    function configure(bool testnet, address liquidityToken, address schnoodleFarming) external onlyOwner {\r\n        require(_farmingFund == address(0), \"Schnoodle: already configured\");\r\n\r\n        _setupRole(DEFAULT_ADMIN_ROLE, owner());\r\n        _setupRole(LIQUIDITY, liquidityToken);\r\n        _setupRole(FARMING_CONTRACT, schnoodleFarming);\r\n        _schnoodleFarming = schnoodleFarming;\r\n        _farmingFund = address(uint160(uint256(keccak256(abi.encodePacked(block.timestamp, blockhash(block.number - 1))))));\r\n\r\n        _sowRate = 40;\r\n        configure(testnet);\r\n    }\r\n\r\n    // Transfer overrides\r\n\r\n    function _beforeTokenTransfer(address operator, address from, address to, uint256 amount) internal virtual override {\r\n        // Ensure the sender has enough unlocked balance to perform the transfer\r\n        if (from != address(0)) {\r\n            uint256 standardAmount = _getStandardAmount(amount);\r\n            uint256 balance = balanceOf(from);\r\n            require(standardAmount > balance || standardAmount <= balance - lockedBalanceOf(from), \"Schnoodle: transfer amount exceeds unlocked balance\");\r\n            require(!hasRole(LOCKED, from));\r\n        }\r\n\r\n        super._beforeTokenTransfer(operator, from, to, amount);\r\n    }\r\n\r\n    function payFees(address to, uint256 amount, uint256 reflectedAmount, function(address, address, uint256) internal transferCallback) internal virtual override {\r\n        super.payFees(to, amount, reflectedAmount, transferCallback);\r\n        payFund(to, _farmingFund, amount, _sowRate, transferCallback);\r\n    }\r\n\r\n    function isLiquidityToken(address account) internal view virtual override returns(bool)\r\n    {\r\n        return hasRole(LIQUIDITY, account);\r\n    }\r\n\r\n    // Farming functions\r\n\r\n    function getFarmingFund() external view returns (address) {\r\n        return _farmingFund;\r\n    }\r\n\r\n    function changeSowRate(uint256 rate) external onlyOwner {\r\n        _sowRate = rate;\r\n        emit SowRateChanged(rate);\r\n    }\r\n\r\n    function getSowRate() external view returns (uint256) {\r\n        return _sowRate;\r\n    }\r\n\r\n    function farmingReward(address account, uint256 netReward, uint256 grossReward) external {\r\n        require(hasRole(FARMING_CONTRACT, _msgSender()));\r\n        _transferFromReflected(_farmingFund, account, _getReflectedAmount(netReward));\r\n\r\n        // Burn the unused part of the gross reward\r\n        _burn(_farmingFund, grossReward - netReward, \"\", \"\");\r\n    }\r\n\r\n    // Calls to the SchnoodleFarming proxy contract\r\n\r\n    function lockedBalanceOf(address account) private returns(uint256) {\r\n        if (_schnoodleFarming == address(0)) return 0;\r\n        (bool success, bytes memory result) = _schnoodleFarming.call(abi.encodeWithSignature(\"lockedBalanceOf(address)\", account));\r\n        assert(success);\r\n        return abi.decode(result, (uint256));\r\n    }\r\n\r\n    event SowRateChanged(uint256 rate);\r\n}\r\n",
  "sourcePath": "C:\\Users\\micro\\OneDrive - X-treem Software\\Development\\Projects\\Blockchain\\Schnoodle\\contracts\\SchnoodleV7.sol",
  "compiler": {
    "name": "solc",
    "version": "0.8.9+commit.e5eed63a.Emscripten.clang"
  },
  "schemaVersion": "3.4.3",
  "updatedAt": "2021-12-07T22:17:56.011Z",
  "devdoc": {
    "author": "Jason Payne (https://twitter.com/Neo42)",
    "kind": "dev",
    "methods": {
      "allowance(address,address)": {
        "details": "See {IERC20-allowance}. Note that operator and allowance concepts are orthogonal: operators may not have allowance, and accounts with allowance may not be operators themselves."
      },
      "approve(address,uint256)": {
        "details": "See {IERC20-approve}. Note that accounts cannot have allowance issued by their operators."
      },
      "authorizeOperator(address)": {
        "details": "See {IERC777-authorizeOperator}."
      },
      "burn(uint256,bytes)": {
        "details": "See {IERC777-burn}. Also emits a {IERC20-Transfer} event for ERC20 compatibility."
      },
      "decimals()": {
        "details": "See {ERC20-decimals}. Always returns 18, as per the [ERC777 EIP](https://eips.ethereum.org/EIPS/eip-777#backward-compatibility)."
      },
      "defaultOperators()": {
        "details": "See {IERC777-defaultOperators}."
      },
      "getRoleAdmin(bytes32)": {
        "details": "Returns the admin role that controls `role`. See {grantRole} and {revokeRole}. To change a role's admin, use {_setRoleAdmin}."
      },
      "grantRole(bytes32,address)": {
        "details": "Grants `role` to `account`. If `account` had not been already granted `role`, emits a {RoleGranted} event. Requirements: - the caller must have ``role``'s admin role."
      },
      "granularity()": {
        "details": "See {IERC777-granularity}. This implementation always returns `1`."
      },
      "hasRole(bytes32,address)": {
        "details": "Returns `true` if `account` has been granted `role`."
      },
      "isOperatorFor(address,address)": {
        "details": "See {IERC777-isOperatorFor}."
      },
      "name()": {
        "details": "See {IERC777-name}."
      },
      "operatorBurn(address,uint256,bytes,bytes)": {
        "details": "See {IERC777-operatorBurn}. Emits {Burned} and {IERC20-Transfer} events."
      },
      "operatorSend(address,address,uint256,bytes,bytes)": {
        "details": "See {IERC777-operatorSend}. Emits {Sent} and {IERC20-Transfer} events."
      },
      "owner()": {
        "details": "Returns the address of the current owner."
      },
      "renounceOwnership()": {
        "details": "Leaves the contract without owner. It will not be possible to call `onlyOwner` functions anymore. Can only be called by the current owner. NOTE: Renouncing ownership will leave the contract without an owner, thereby removing any functionality that is only available to the owner."
      },
      "renounceRole(bytes32,address)": {
        "details": "Revokes `role` from the calling account. Roles are often managed via {grantRole} and {revokeRole}: this function's purpose is to provide a mechanism for accounts to lose their privileges if they are compromised (such as when a trusted device is misplaced). If the calling account had been granted `role`, emits a {RoleRevoked} event. Requirements: - the caller must be `account`."
      },
      "revokeOperator(address)": {
        "details": "See {IERC777-revokeOperator}."
      },
      "revokeRole(bytes32,address)": {
        "details": "Revokes `role` from `account`. If `account` had been granted `role`, emits a {RoleRevoked} event. Requirements: - the caller must have ``role``'s admin role."
      },
      "send(address,uint256,bytes)": {
        "details": "See {IERC777-send}. Also emits a {IERC20-Transfer} event for ERC20 compatibility."
      },
      "supportsInterface(bytes4)": {
        "details": "See {IERC165-supportsInterface}."
      },
      "symbol()": {
        "details": "See {IERC777-symbol}."
      },
      "totalSupply()": {
        "details": "See {IERC777-totalSupply}."
      },
      "transfer(address,uint256)": {
        "details": "See {IERC20-transfer}. Unlike `send`, `recipient` is _not_ required to implement the {IERC777Recipient} interface if it is a contract. Also emits a {Sent} event."
      },
      "transferOwnership(address)": {
        "details": "Transfers ownership of the contract to a new account (`newOwner`). Can only be called by the current owner."
      }
    },
    "version": 1
  },
  "userdoc": {
    "kind": "user",
    "methods": {},
    "version": 1
  }
}