{
  "contractName": "SchnoodleStaking",
  "abi": [
    {
      "anonymous": false,
      "inputs": [
        {
          "indexed": true,
          "internalType": "address",
          "name": "account",
          "type": "address"
        },
        {
          "indexed": false,
          "internalType": "uint256",
          "name": "amount",
          "type": "uint256"
        },
        {
          "indexed": false,
          "internalType": "uint256",
          "name": "blockNumber",
          "type": "uint256"
        }
      ],
      "name": "Staked",
      "type": "event"
    },
    {
      "anonymous": false,
      "inputs": [
        {
          "indexed": true,
          "internalType": "address",
          "name": "account",
          "type": "address"
        },
        {
          "indexed": false,
          "internalType": "uint256",
          "name": "index",
          "type": "uint256"
        },
        {
          "indexed": false,
          "internalType": "uint256",
          "name": "amount",
          "type": "uint256"
        },
        {
          "indexed": false,
          "internalType": "uint256",
          "name": "netReward",
          "type": "uint256"
        },
        {
          "indexed": false,
          "internalType": "uint256",
          "name": "grossReward",
          "type": "uint256"
        }
      ],
      "name": "Withdrawn",
      "type": "event"
    },
    {
      "inputs": [
        {
          "internalType": "address",
          "name": "stakingToken",
          "type": "address"
        }
      ],
      "name": "initialize",
      "outputs": [],
      "stateMutability": "nonpayable",
      "type": "function"
    },
    {
      "inputs": [
        {
          "internalType": "uint256",
          "name": "amount",
          "type": "uint256"
        },
        {
          "internalType": "uint256",
          "name": "vestingBlocks",
          "type": "uint256"
        }
      ],
      "name": "addStake",
      "outputs": [],
      "stateMutability": "nonpayable",
      "type": "function"
    },
    {
      "inputs": [
        {
          "internalType": "uint256",
          "name": "index",
          "type": "uint256"
        },
        {
          "internalType": "uint256",
          "name": "amount",
          "type": "uint256"
        }
      ],
      "name": "withdraw",
      "outputs": [],
      "stateMutability": "nonpayable",
      "type": "function"
    },
    {
      "inputs": [
        {
          "internalType": "address",
          "name": "account",
          "type": "address"
        }
      ],
      "name": "stakingSummary",
      "outputs": [
        {
          "components": [
            {
              "internalType": "uint256",
              "name": "amount",
              "type": "uint256"
            },
            {
              "internalType": "uint256",
              "name": "blockNumber",
              "type": "uint256"
            },
            {
              "internalType": "uint256",
              "name": "vestingBlocks",
              "type": "uint256"
            },
            {
              "internalType": "uint256",
              "name": "claimable",
              "type": "uint256"
            }
          ],
          "internalType": "struct SchnoodleStaking.Stake[]",
          "name": "",
          "type": "tuple[]"
        }
      ],
      "stateMutability": "nonpayable",
      "type": "function"
    }
  ],
  "bytecode": "0x608060405234801561001057600080fd5b50612fad806100206000396000f3fe608060405234801561001057600080fd5b506004361061004c5760003560e01c80630dc243f014610051578063441a3e701461007a578063c4d66de81461008f578063fd2b5202146100a2575b600080fd5b61006461005f366004612c39565b6100b5565b6040516100719190612c56565b60405180910390f35b61008d610088366004612cba565b6101ba565b005b61008d61009d366004612c39565b610585565b61008d6100b0366004612cba565b610615565b6001600160a01b0381166000908152603460209081526040808320805482518185028101850190935280835260609493849084015b828210156101445783829060005260206000209060040201604051806080016040529081600082015481526020016001820154815260200160028201548152602001600382015481525050815260200190600101906100ea565b505050509050600043905060005b82518110156101b15761017e83828151811061017057610170612cdc565b6020026020010151836107c4565b83828151811061019057610190612cdc565b602090810291909101015160600152806101a981612d08565b915050610152565b50909392505050565b33600081815260346020908152604080832080548251818502810185019093528083529192909190849084015b828210156102415783829060005260206000209060040201604051806080016040529081600082015481526020016001820154815260200160028201548152602001600382015481525050815260200190600101906101e7565b505050509050600081858151811061025b5761025b612cdc565b6020026020010151905083816000015110156102d95760405162461bcd60e51b815260206004820152603260248201527f5363686e6f6f646c655374616b696e673a2063616e6e6f7420776974686472616044820152711dc81b5bdc99481d1a185b881cdd185ad95960721b60648201526084015b60405180910390fd5b60408101516020820151439182916102f19190612d23565b106103645760405162461bcd60e51b815260206004820152603760248201527f5363686e6f6f646c655374616b696e673a2063616e6e6f74207769746864726160448201527f7720647572696e672076657374696e6720626c6f636b7300000000000000000060648201526084016102d0565b60008060006103748589866107e3565b9250925092506103938861038790612d3b565b828688604001516108f2565b6001600160a01b038716600090815260346020526040902080548991908b9081106103c0576103c0612cdc565b906000526020600020906004020160000160008282546103e09190612d58565b909155506103f790506103f289612d3b565b61092d565b6001600160a01b038716600090815260346020526040902080548a90811061042157610421612cdc565b9060005260206000209060040201600001546000141561051d57856001875161044a9190612d58565b8151811061045a5761045a612cdc565b602002602001015160346000896001600160a01b03166001600160a01b031681526020019081526020016000208a8154811061049857610498612cdc565b60009182526020808320845160049093020191825583810151600183015560408085015160028401556060909401516003909201919091556001600160a01b038a16825260349052208054806104f0576104f0612d6f565b60008281526020812060046000199093019283020181815560018101829055600281018290556003015590555b61052783836109da565b604080518a8152602081018a9052908101849052606081018390526001600160a01b038816907f94ffd6b85c71b847775c89ef6496b93cee961bdc6ff827fd117f174f06f745ae9060800160405180910390a2505050505050505050565b600054610100900460ff168061059e575060005460ff16155b6105ba5760405162461bcd60e51b81526004016102d090612d85565b600054610100900460ff161580156105dc576000805461ffff19166101011790555b6105e4610a8f565b603380546001600160a01b0319166001600160a01b0384161790558015610611576000805461ff00191690555b5050565b3361061f81610b03565b61062882610bcc565b6106329190612d58565b8311156106a75760405162461bcd60e51b815260206004820152603760248201527f5363686e6f6f646c655374616b696e673a207374616b6520616d6f756e74206560448201527f78636565647320756e7374616b65642062616c616e636500000000000000000060648201526084016102d0565b600083116106ef5760405162461bcd60e51b81526020600482015260156024820152745374616b65206d757374206265206e6f6e7a65726f60581b60448201526064016102d0565b6001600160a01b038116600090815260346020908152604080832081516080810183528781524381850181815293820188815260608301878152845460018181018755958952969097209251600490960290920194855592519184019190915551600283015591516003909101556107668461092d565b61077a8461077383610c25565b83866108f2565b60408051858152602081018390526001600160a01b038416917f1449c6dd7851abc30abf37f57715f492010519147cc2652fbc38202c18a6ee90910160405180910390a250505050565b6000806107d6848560000151856107e3565b5090925050505b92915050565b6000806000808660200151856107f99190612d58565b6108039087612dd3565b9050600061081086610c25565b905060008060008411801561082757506000603854115b156108e357600060355460385461083e9190612e08565b90506000610884610861610853600919610c4f565b61085c85610cdd565b610d41565b61087f6108718f60400151610cdd565b61087a86610cdd565b610ff9565b611012565b90506103e8858761089b61089661126d565b610bcc565b6108a59190612dd3565b6108af9190612e08565b945080856108bd8385611326565b6108c79190612dd3565b6108d19190612e08565b93506108dd8787612d58565b95505050505b99909850909650945050505050565b6036839055603782905560355461090a908590612e2a565b6035556109178185612e6b565b6038546109249190612e2a565b60385550505050565b6033546040516024810183905260009182916001600160a01b039091169060440160408051601f198184030181529181526020820180516001600160e01b031663a9b2fc2760e01b179052516109839190612ef0565b600060405180830381855af49150503d80600081146109be576040519150601f19603f3d011682016040523d82523d6000602084013e6109c3565b606091505b5091509150816109d5576109d5612f2b565b505050565b603354604051602481018490526044810183905260009182916001600160a01b039091169060640160408051601f198184030181529181526020820180516001600160e01b03166338c96a7960e21b17905251610a379190612ef0565b600060405180830381855af49150503d8060008114610a72576040519150601f19603f3d011682016040523d82523d6000602084013e610a77565b606091505b509150915081610a8957610a89612f2b565b50505050565b600054610100900460ff1680610aa8575060005460ff16155b610ac45760405162461bcd60e51b81526004016102d090612d85565b600054610100900460ff16158015610ae6576000805461ffff19166101011790555b610aee61135f565b8015610b00576000805461ff00191690555b50565b6033546040516001600160a01b038381166024830152600092839283929091169060440160408051601f198184030181529181526020820180516001600160e01b0316631676539160e01b17905251610b5c9190612ef0565b6000604051808303816000865af19150503d8060008114610b99576040519150601f19603f3d011682016040523d82523d6000602084013e610b9e565b606091505b509150915081610bb057610bb0612f2b565b80806020019051810190610bc49190612f41565b949350505050565b6033546040516001600160a01b038381166024830152600092839283929091169060440160408051601f198184030181529181526020820180516001600160e01b03166370a0823160e01b17905251610b5c9190612ef0565b600060375482610c359190612d58565b603554610c429190612dd3565b6036546107dd9190612d23565b600081610c5e57506000919050565b6000808313610c705782600003610c72565b825b90506000610c7f826113c9565b90506070811015610c98578060700382901b9150610cab565b6070811115610cab576070810382901c91505b6001600160701b03909116613fff820160701b17906000841215610cd3576001607f1b821791505b5060801b92915050565b600081610cec57506000919050565b816000610cf8826113c9565b90506070811015610d11578060700382901b9150610d24565b6070811115610d24576070810382901c91505b613fff0160701b6001600160701b03919091161760801b92915050565b6000617fff60f084811c8216919084901c811690821415610d875780617fff1415610d76575061ffff60ef1b91506107dd9050565b505050600160ff1b811682186107dd565b80617fff1415610dcb576dffffffffffffffffffffffffffff60801b841615610dba575061ffff60ef1b91506107dd9050565b505050808218600160ff1b166107dd565b600160801b600160ff1b038416610e1557600160801b600160ff1b038516610dfd575061ffff60ef1b91506107dd9050565b505050808218600160ff1b16617fff60f01b176107dd565b6001600160701b03608085901c1681610e315760019150610e38565b600160701b175b6001600160701b03608087901c1683610e77578015610e72576000610e5c826113c9565b6001955060e20393840160711901939190911b90505b610e81565b600160701b1760721b5b818181610e9057610e90612df2565b04905080610ebd57600160ff1b87871816610eac576000610eb2565b600160ff1b5b9450505050506107dd565b6001606c1b811015610ed157610ed1612f2b565b6000600160731b821015610f1057600160721b821015610f0557600160711b821015610efe576070610f08565b6071610f08565b60725b60ff16610f19565b610f19826113c9565b905083614071018186011115610f3757617fff945060009150610fca565b83818601613ffc011015610f52576000945060009150610fca565b83818601613f8c011015610f9f578385613ffc011115610f7d578385613ffc010382901b9150610f96565b8385613ffc011015610f9657613ffc8585030382901c91505b60009450610fca565b6070811115610fb2576070810382901c91505b6001600160701b038216915083818601613f8d010394505b81607086901b888a186001607f1b60801b1660801c6001600160801b0316171760801b955050505050506107dd565b600061100b83600160ff1b8418611467565b9392505050565b6000617fff60f084811c8216919084901c8116908214156110b15780617fff1415611090576001600160801b0319858116908516141561105d57505050600160ff1b811682186107dd565b600160ff1b6001600160801b0319868618161415611080575050508181176107dd565b5061ffff60ef1b91506107dd9050565b600160801b600160ff1b038416610d76575061ffff60ef1b91506107dd9050565b80617fff14156110ed57600160801b600160ff1b0385166110dc575061ffff60ef1b91506107dd9050565b505050600160ff1b821681186107dd565b6001600160701b03608086901c16826111095760019250611110565b600160701b175b6001600160701b03608086901c168261112c5760019250611133565b600160701b175b908102908161115057600160ff1b87871816610eac576000610eb2565b928201926000600160e11b83101561118357600160e01b83101561117c57611177836113c9565b611186565b60e0611186565b60e15b905061407081860110156111a157600094506000925061123e565b6140e081860110156111e4576140708510156111c657846140700383901c92506111db565b6140708511156111db57614070850383901b92505b6000945061123e565b61c0dd81860111156111fe57617fff94506000925061123e565b6070811115611215576070810383901c9250611228565b6070811015611228578060700383901b92505b6001600160701b03831692506140df8186010394505b82607086901b888a186001607f1b60801b1660801c6001600160801b0316171760801b955050505050506107dd565b60335460408051600481526024810182526020810180516001600160e01b031663cd0e315f60e01b1790529051600092839283926001600160a01b03909216916112b79190612ef0565b6000604051808303816000865af19150503d80600081146112f4576040519150601f19603f3d011682016040523d82523d6000602084013e6112f9565b606091505b50915091508161130b5761130b612f2b565b8080602001905181019061131f9190612f5a565b9250505090565b6000806113336001610cdd565b9050610bc461135a61134486610cdd565b61087f8461085c866113558a611827565b611467565b61184e565b600054610100900460ff1680611378575060005460ff16155b6113945760405162461bcd60e51b81526004016102d090612d85565b600054610100900460ff16158015610aee576000805461ffff19166101011790558015610b00576000805461ff001916905550565b60008082116113d757600080fd5b6000600160801b83106113ec57608092831c92015b600160401b83106113ff57604092831c92015b640100000000831061141357602092831c92015b62010000831061142557601092831c92015b610100831061143657600892831c92015b6010831061144657600492831c92015b6004831061145657600292831c92015b600283106107dd5760010192915050565b6000617fff60f084811c8216919084901c8116908214156114b55780617fff14156114ab576001600160801b031985811690851614156110805784925050506107dd565b84925050506107dd565b80617fff14156114c95783925050506107dd565b6001607f1b608086901c90811015906001600160701b0316836114ef57600193506114f6565b600160701b175b6001607f1b608087901c90811015906001600160701b03168461151c5760019450611523565b600160701b175b82611553576001600160801b03198816600160ff1b146115435787611546565b60005b96505050505050506107dd565b80611573576001600160801b03198916600160ff1b146115435788611546565b848603841515831515141561167e57607081131561159a57899750505050505050506107dd565b60008113156115ac5790811c906115db565b606f198112156115c557889750505050505050506107dd565b60008112156115db578060000384901c93508596505b92810192600160711b84106115f6576001968701969390931c925b86617fff1415611628578461161057617fff60f01b61161a565b6001600160f01b03195b9750505050505050506107dd565b600160701b84101561163d576000965061164a565b6001600160701b03841693505b83607088901b8661165c576000611662565b6001607f1b5b6001600160801b0316171760801b9750505050505050506107dd565b600081131561169957600184901b93506001870396506116b0565b60008112156116b057600182901b91506001860396505b60708113156116c2576001915061170f565b60018113156116df576001810360018303901c600101915061170f565b606f198112156116f2576001935061170f565b60001981121561170f576001816000030360018503901c60010193505b818410611720578184039350611729565b83820393508294505b8361173f5750600096506107dd95505050505050565b600061174a856113c9565b9050806071141561177057600185901c6001600160701b031694506001880197506117bf565b60708110156117b25760708190038089111561179f578086901b6001600160701b0316955080890398506117ac565b600098600019019590951b945b506117bf565b6001600160701b03851694505b87617fff14156117f257856117d957617fff60f01b6117e3565b6001600160f01b03195b985050505050505050506107dd565b84607089901b8761180457600061180a565b6001607f1b5b6001600160801b0316171760801b985050505050505050506107dd565b60006107dd611849836f1fffb8aa3b295c17f0bbbe87fed0691d60811b611012565b6118d1565b6000617fff60f083901c16613fff81101561186c5750600092915050565b6001607f1b608084901c1061188057600080fd5b6140fe81111561188f57600080fd5b600160701b6001600160701b03608085901c161761406f8210156118b95761406f8290031c61100b565b61406f82111561100b5761406e1982011b9392505050565b60006001607f1b608083901c90811190617fff60f085901c8116916001600160701b0316908214801561190357508015155b15611917575061ffff60ef1b949350505050565b61400d82111561193d578261193157617fff60f01b611934565b60005b95945050505050565b613f7f8210156119565750613fff60f01b949350505050565b81611964576001915061196b565b600160701b175b613fef82111561198157613fee1982011b611993565b613fef82101561199357613fef8290031c5b8280156119a4575061203760811b81115b156119b457506000949350505050565b821580156119d35750713fffffffffffffffffffffffffffffffffff81115b156119e75750617fff60f01b949350505050565b6001600160801b0381169060801c838015611a0157508115155b15611a0d579019906001015b6001607f1b82811615611a315770016a09e667f3bcc908b2fb1366ea957d3e0260801c5b6001607e1b831615611a54577001306fe0a31b7152de8d5a46305c85edec0260801c5b6001607d1b831615611a77577001172b83c7d517adcdf7c8c50eb14a791f0260801c5b6001607c1b831615611a9a5770010b5586cf9890f6298b92b71842a983630260801c5b6001607b1b831615611abd577001059b0d31585743ae7c548eb68ca417fd0260801c5b6001607a1b831615611ae057700102c9a3e778060ee6f7caca4f7a29bde80260801c5b600160791b831615611b035770010163da9fb33356d84a66ae336dcdfa3f0260801c5b600160781b831615611b2657700100b1afa5abcbed6129ab13ec11dc95430260801c5b600160771b831615611b495770010058c86da1c09ea1ff19d294cf2f679b0260801c5b600160761b831615611b6c577001002c605e2e8cec506d21bfc89a23a00f0260801c5b600160751b831615611b8f57700100162f3904051fa128bca9c55c31e5df0260801c5b600160741b831615611bb2577001000b175effdc76ba38e31671ca9397250260801c5b600160731b831615611bd557700100058ba01fb9f96d6cacd4b180917c3d0260801c5b600160721b831615611bf85770010002c5cc37da9491d0985c348c68e7b30260801c5b600160711b831615611c1b577001000162e525ee054754457d59952920260260801c5b600160701b831615611c3e5770010000b17255775c040618bf4a4ade83fc0260801c5b6001606f1b831615611c61577001000058b91b5bc9ae2eed81e9b7d4cfab0260801c5b6001606e1b831615611c8457700100002c5c89d5ec6ca4d7c8acc017b7c90260801c5b6001606d1b831615611ca75770010000162e43f4f831060e02d839a9d16d0260801c5b6001606c1b831615611cca57700100000b1721bcfc99d9f890ea069117630260801c5b6001606b1b831615611ced5770010000058b90cf1e6d97f9ca14dbcc16280260801c5b6001606a1b831615611d10577001000002c5c863b73f016468f6bac5ca2b0260801c5b600160691b831615611d3357700100000162e430e5a18f6119e3c02282a50260801c5b600160681b831615611d56577001000000b1721835514b86e6d96efd1bfe0260801c5b600160671b831615611d7957700100000058b90c0b48c6be5df846c5b2ef0260801c5b600160661b831615611d9c5770010000002c5c8601cc6b9e94213c72737a0260801c5b600160651b831615611dbf577001000000162e42fff037df38aa2b219f060260801c5b600160641b831615611de25770010000000b17217fba9c739aa5819f44f90260801c5b600160631b831615611e05577001000000058b90bfcdee5acd3c1cedc8230260801c5b600160621b831615611e2857700100000002c5c85fe31f35a6a30da1be500260801c5b600160611b831615611e4b5770010000000162e42ff0999ce3541b9fffcf0260801c5b600160601b831615611e6e57700100000000b17217f80f4ef5aadda455540260801c5b6001605f1b831615611e915770010000000058b90bfbf8479bd5a81b51ad0260801c5b6001605e1b831615611eb4577001000000002c5c85fdf84bd62ae30a74cc0260801c5b6001605d1b831615611ed757700100000000162e42fefb2fed257559bdaa0260801c5b6001605c1b831615611efa577001000000000b17217f7d5a7716bba4a9ae0260801c5b6001605b1b831615611f1d57700100000000058b90bfbe9ddbac5e109cce0260801c5b6001605a1b831615611f405770010000000002c5c85fdf4b15de6f17eb0d0260801c5b600160591b831615611f63577001000000000162e42fefa494f1478fde050260801c5b600160581b831615611f865770010000000000b17217f7d20cf927c8e94c0260801c5b600160571b831615611fa9577001000000000058b90bfbe8f71cb4e4b33d0260801c5b600160561b831615611fcc57700100000000002c5c85fdf477b662b269450260801c5b600160551b831615611fef5770010000000000162e42fefa3ae53369388c0260801c5b600160541b83161561201257700100000000000b17217f7d1d351a389d400260801c5b600160531b8316156120355770010000000000058b90bfbe8e8b2d3d4ede0260801c5b600160521b831615612058577001000000000002c5c85fdf4741bea6e77e0260801c5b600160511b83161561207b57700100000000000162e42fefa39fe95583c20260801c5b600160501b83161561209e577001000000000000b17217f7d1cfb72b45e10260801c5b69800000000000000000008316156120c757700100000000000058b90bfbe8e7cc35c3f00260801c5b69400000000000000000008316156120f05770010000000000002c5c85fdf473e242ea380260801c5b6920000000000000000000831615612119577001000000000000162e42fefa39f02b772c0260801c5b69100000000000000000008316156121425770010000000000000b17217f7d1cf7d83c1a0260801c5b690800000000000000000083161561216b577001000000000000058b90bfbe8e7bdcbe2e0260801c5b690400000000000000000083161561219457700100000000000002c5c85fdf473dea871f0260801c5b69020000000000000000008316156121bd5770010000000000000162e42fefa39ef44d910260801c5b69010000000000000000008316156121e657700100000000000000b17217f7d1cf79e9490260801c5b6880000000000000000083161561220e5770010000000000000058b90bfbe8e7bce5440260801c5b68400000000000000000831615612236577001000000000000002c5c85fdf473de6eca0260801c5b6820000000000000000083161561225e57700100000000000000162e42fefa39ef366f0260801c5b68100000000000000000831615612286577001000000000000000b17217f7d1cf79afa0260801c5b680800000000000000008316156122ae57700100000000000000058b90bfbe8e7bcd6d0260801c5b680400000000000000008316156122d65770010000000000000002c5c85fdf473de6b20260801c5b680200000000000000008316156122fe577001000000000000000162e42fefa39ef3580260801c5b600160401b8316156123215770010000000000000000b17217f7d1cf79ab0260801c5b678000000000000000831615612348577001000000000000000058b90bfbe8e7bcd50260801c5b67400000000000000083161561236f57700100000000000000002c5c85fdf473de6a0260801c5b6720000000000000008316156123965770010000000000000000162e42fefa39ef340260801c5b6710000000000000008316156123bd57700100000000000000000b17217f7d1cf7990260801c5b6708000000000000008316156123e45770010000000000000000058b90bfbe8e7bcc0260801c5b67040000000000000083161561240b577001000000000000000002c5c85fdf473de50260801c5b67020000000000000083161561243257700100000000000000000162e42fefa39ef20260801c5b670100000000000000831615612459577001000000000000000000b17217f7d1cf780260801c5b668000000000000083161561247f57700100000000000000000058b90bfbe8e7bb0260801c5b66400000000000008316156124a55770010000000000000000002c5c85fdf473dd0260801c5b66200000000000008316156124cb577001000000000000000000162e42fefa39ee0260801c5b66100000000000008316156124f15770010000000000000000000b17217f7d1cf60260801c5b6608000000000000831615612517577001000000000000000000058b90bfbe8e7a0260801c5b660400000000000083161561253d57700100000000000000000002c5c85fdf473c0260801c5b66020000000000008316156125635770010000000000000000000162e42fefa39d0260801c5b660100000000000083161561258957700100000000000000000000b17217f7d1ce0260801c5b658000000000008316156125ae5770010000000000000000000058b90bfbe8e60260801c5b654000000000008316156125d3577001000000000000000000002c5c85fdf4720260801c5b652000000000008316156125f857700100000000000000000000162e42fefa380260801c5b6510000000000083161561261d577001000000000000000000000b17217f7d1b0260801c5b6508000000000083161561264257700100000000000000000000058b90bfbe8d0260801c5b650400000000008316156126675770010000000000000000000002c5c85fdf460260801c5b6502000000000083161561268c577001000000000000000000000162e42fefa20260801c5b650100000000008316156126b15770010000000000000000000000b17217f7d00260801c5b6480000000008316156126d5577001000000000000000000000058b90bfbe70260801c5b6440000000008316156126f957700100000000000000000000002c5c85fdf30260801c5b64200000000083161561271d5770010000000000000000000000162e42fef90260801c5b64100000000083161561274157700100000000000000000000000b17217f7c0260801c5b6408000000008316156127655770010000000000000000000000058b90bfbd0260801c5b640400000000831615612789577001000000000000000000000002c5c85fde0260801c5b6402000000008316156127ad57700100000000000000000000000162e42fee0260801c5b6401000000008316156127d1577001000000000000000000000000b17217f60260801c5b63800000008316156127f457700100000000000000000000000058b90bfa0260801c5b63400000008316156128175770010000000000000000000000002c5c85fc0260801c5b632000000083161561283a577001000000000000000000000000162e42fd0260801c5b631000000083161561285d5770010000000000000000000000000b17217e0260801c5b6308000000831615612880577001000000000000000000000000058b90be0260801c5b63040000008316156128a357700100000000000000000000000002c5c85e0260801c5b63020000008316156128c65770010000000000000000000000000162e42e0260801c5b63010000008316156128e957700100000000000000000000000000b172160260801c5b6280000083161561290b5770010000000000000000000000000058b90a0260801c5b6240000083161561292d577001000000000000000000000000002c5c840260801c5b6220000083161561294f57700100000000000000000000000000162e410260801c5b62100000831615612971577001000000000000000000000000000b17200260801c5b6208000083161561299357700100000000000000000000000000058b8f0260801c5b620400008316156129b55770010000000000000000000000000002c5c70260801c5b620200008316156129d7577001000000000000000000000000000162e30260801c5b620100008316156129f95770010000000000000000000000000000b1710260801c5b618000831615612a1a577001000000000000000000000000000058b80260801c5b614000831615612a3b57700100000000000000000000000000002c5b0260801c5b612000831615612a5c5770010000000000000000000000000000162d0260801c5b611000831615612a7d57700100000000000000000000000000000b160260801c5b610800831615612a9e5770010000000000000000000000000000058a0260801c5b610400831615612abf577001000000000000000000000000000002c40260801c5b610200831615612ae0577001000000000000000000000000000001610260801c5b610100831615612b01577001000000000000000000000000000000b00260801c5b6080831615612b21577001000000000000000000000000000000570260801c5b6040831615612b415770010000000000000000000000000000002b0260801c5b6020831615612b61577001000000000000000000000000000000150260801c5b6010831615612b815770010000000000000000000000000000000a0260801c5b6008831615612ba1577001000000000000000000000000000000040260801c5b6004831615612bc1577001000000000000000000000000000000010260801c5b84612be257600f81901c6001600160701b03169050613fff82019150612c11565b613ffe8211612c0757600f81901c6001600160701b0316905081613fff039150612c11565b600091613fee19011c5b60709190911b1760801b95945050505050565b6001600160a01b0381168114610b0057600080fd5b600060208284031215612c4b57600080fd5b813561100b81612c24565b602080825282518282018190526000919060409081850190868401855b82811015612cad57815180518552868101518786015285810151868601526060908101519085015260809093019290850190600101612c73565b5091979650505050505050565b60008060408385031215612ccd57600080fd5b50508035926020909101359150565b634e487b7160e01b600052603260045260246000fd5b634e487b7160e01b600052601160045260246000fd5b6000600019821415612d1c57612d1c612cf2565b5060010190565b60008219821115612d3657612d36612cf2565b500190565b6000600160ff1b821415612d5157612d51612cf2565b5060000390565b600082821015612d6a57612d6a612cf2565b500390565b634e487b7160e01b600052603160045260246000fd5b6020808252602e908201527f496e697469616c697a61626c653a20636f6e747261637420697320616c72656160408201526d191e481a5b9a5d1a585b1a5e995960921b606082015260800190565b6000816000190483118215151615612ded57612ded612cf2565b500290565b634e487b7160e01b600052601260045260246000fd5b600082612e2557634e487b7160e01b600052601260045260246000fd5b500490565b600080821280156001600160ff1b0384900385131615612e4c57612e4c612cf2565b600160ff1b8390038412811615612e6557612e65612cf2565b50500190565b60006001600160ff1b0381841382841380821686840486111615612e9157612e91612cf2565b600160ff1b6000871282811687830589121615612eb057612eb0612cf2565b60008712925087820587128484161615612ecc57612ecc612cf2565b87850587128184161615612ee257612ee2612cf2565b505050929093029392505050565b6000825160005b81811015612f115760208186018101518583015201612ef7565b81811115612f20576000828501525b509190910192915050565b634e487b7160e01b600052600160045260246000fd5b600060208284031215612f5357600080fd5b5051919050565b600060208284031215612f6c57600080fd5b815161100b81612c2456fea264697066735822122053175206ec86934bc2d3321a5853cfbb260c2f14a4ced481d62ffa3196bff2f364736f6c63430008090033",
  "immutableReferences": {},
  "source": "// SPDX-License-Identifier: MIT\r\npragma solidity ^0.8.0;\r\n\r\nimport \"@openzeppelin/contracts-upgradeable/proxy/utils/Initializable.sol\";\r\nimport \"@openzeppelin/contracts-upgradeable/utils/ContextUpgradeable.sol\";\r\nimport \"abdk-libraries-solidity/ABDKMathQuad.sol\";\r\n\r\n/// @author Jason Payne (https://twitter.com/Neo42)\r\ncontract SchnoodleStaking is Initializable, ContextUpgradeable {\r\n    address private _stakingToken;\r\n    mapping(address => Stake[]) private _stakes;\r\n    uint256 private _totalTokens;\r\n    uint256 private _cumulativeTotal;\r\n    uint256 private _lastBlockNumber;\r\n    uint256 private _totalStakeWeight;\r\n\r\n    struct Stake {\r\n        uint256 amount;\r\n        uint256 blockNumber;\r\n        uint256 vestingBlocks;\r\n        uint256 claimable;\r\n    }\r\n\r\n    function initialize(address stakingToken) public initializer {\r\n        __Context_init();\r\n        _stakingToken = stakingToken;\r\n    }\r\n\r\n    /// Stakes the specified amount of tokens for the sender, and adds the details to a stored stake object\r\n    function addStake(uint256 amount, uint256 vestingBlocks) external {\r\n        address msgSender = _msgSender();\r\n\r\n        require(amount <= balanceOf(msgSender) - stakedBalanceOf(msgSender), \"SchnoodleStaking: stake amount exceeds unstaked balance\");\r\n        require(amount > 0, \"Stake must be nonzero\");\r\n\r\n        uint256 blockNumber = block.number;\r\n        _stakes[msgSender].push(Stake(amount, blockNumber, vestingBlocks, 0));\r\n        adjustStakedBalance(int256(amount));\r\n\r\n        _updateTracking(int256(amount), _newCumulativeTotal(blockNumber), blockNumber, vestingBlocks);\r\n\r\n        emit Staked(msgSender, amount, blockNumber);\r\n    }\r\n\r\n    /// Withdraws the specified amount of tokens from the sender's stake at the specified zero-based index\r\n    function withdraw(uint256 index, uint256 amount) external {\r\n        address msgSender = _msgSender();\r\n        Stake[] memory stakes = _stakes[msgSender];\r\n        Stake memory stake = stakes[index];\r\n        require(stake.amount >= amount, \"SchnoodleStaking: cannot withdraw more than staked\");\r\n\r\n        uint256 blockNumber = block.number;\r\n        require(stake.blockNumber + stake.vestingBlocks < blockNumber, \"SchnoodleStaking: cannot withdraw during vesting blocks\");\r\n\r\n        (uint256 netReward, uint256 grossReward, uint256 newCumulativeTotal) = _rewardInfo(stake, amount, blockNumber);\r\n\r\n        _updateTracking(-int256(amount), newCumulativeTotal, blockNumber, stake.vestingBlocks);\r\n\r\n        _stakes[msgSender][index].amount -= amount;\r\n        adjustStakedBalance(-int256(amount));\r\n\r\n        // Remove the stake if it is fully withdrawn by replacing it with the last stake in the array\r\n        if (_stakes[msgSender][index].amount == 0) {\r\n            _stakes[msgSender][index] = stakes[stakes.length - 1];\r\n            _stakes[msgSender].pop();\r\n        }\r\n\r\n        stakingReward(netReward, grossReward);\r\n\r\n        emit Withdrawn(msgSender, index, amount, netReward, grossReward);\r\n    }\r\n\r\n    function _rewardInfo(Stake memory stake, uint256 amount, uint256 blockNumber) private returns(uint256, uint256, uint256) {\r\n        // Calculate the stake amount multiplied across the number of blocks since the start of the stake\r\n        uint256 cumulativeAmount = amount * (blockNumber - stake.blockNumber);\r\n\r\n        // Get the new cumulative total of all stakes as the current stored value is from the previous staking activity\r\n        uint256 newCumulativeTotal = _newCumulativeTotal(blockNumber);\r\n\r\n        uint256 grossReward;\r\n        uint256 netReward;\r\n\r\n        if (cumulativeAmount > 0 && _totalStakeWeight > 0) {\r\n            uint256 vestingBlocksWeightedAverage = _totalStakeWeight / _totalTokens;\r\n\r\n            // Calculate a reward multiplier based on a sigmoid curve defined by 1  (1 + e) where x is the stake's vesting blocks delta from the weighted average\r\n            bytes16 x = ABDKMathQuad.mul(\r\n                ABDKMathQuad.div(\r\n                    ABDKMathQuad.fromInt(-10), // Adjust to change the S-shape (higher value increases slope)\r\n                    ABDKMathQuad.fromUInt(vestingBlocksWeightedAverage)\r\n                ),\r\n                ABDKMathQuad.sub(\r\n                    ABDKMathQuad.fromUInt(stake.vestingBlocks),\r\n                    ABDKMathQuad.fromUInt(vestingBlocksWeightedAverage)\r\n                )\r\n            );\r\n\r\n            // Calculate the reward as a relative proportion of the cumulative total of all holders' stakes, adjusted by the multiplier\r\n            uint256 accuracy = 1000;\r\n            grossReward = balanceOf(stakingFund()) * cumulativeAmount / newCumulativeTotal;\r\n            netReward = (_multitplier(accuracy, x) * grossReward) / accuracy;\r\n\r\n            // The returned new cumulative total should not include the reward\r\n            newCumulativeTotal -= cumulativeAmount;\r\n        }\r\n\r\n        return (netReward, grossReward, newCumulativeTotal);\r\n    }\r\n\r\n    function _multitplier(uint256 accuracy, bytes16 x) private pure returns(uint256) {\r\n        bytes16 one = ABDKMathQuad.fromUInt(1);\r\n\r\n        return ABDKMathQuad.toUInt(\r\n            ABDKMathQuad.mul(\r\n                ABDKMathQuad.fromUInt(accuracy),\r\n                ABDKMathQuad.div(one, ABDKMathQuad.add(one, ABDKMathQuad.exp(x)))\r\n            )\r\n        );\r\n    }\r\n\r\n    function _reward(Stake memory stake, uint256 blockNumber) private returns(uint256) {\r\n        (uint256 reward,,) = _rewardInfo(stake, stake.amount, blockNumber);\r\n        return reward;\r\n    }\r\n\r\n    function _newCumulativeTotal(uint256 blockNumber) private view returns(uint256) {\r\n        // Add the total of all stakes multiplied across all blocks since the previous calculation to the cumulative total\r\n        return _cumulativeTotal + _totalTokens * (blockNumber - _lastBlockNumber);\r\n    }\r\n\r\n    function _updateTracking(int256 amountDelta, uint256 cumulativeTotal, uint256 blockNumber, uint256 vestingBlocks) private {\r\n        _cumulativeTotal = cumulativeTotal;\r\n        _lastBlockNumber = blockNumber;\r\n        _totalTokens = uint256(int256(_totalTokens) + amountDelta);\r\n\r\n        // Adjust the sum of products of staked tokens and vesting blocks to get a total weight - this is used to calculate the weighted average later\r\n        _totalStakeWeight = uint256(int256(_totalStakeWeight) + amountDelta * int256(vestingBlocks));\r\n    }\r\n\r\n    function stakingSummary(address account) public returns(Stake[] memory) {\r\n        Stake[] memory stakes = _stakes[account];\r\n        uint256 blockNumber = block.number;\r\n\r\n        for (uint256 i = 0; i < stakes.length; i++) {\r\n            stakes[i].claimable = _reward(stakes[i], blockNumber);\r\n        }\r\n\r\n        return stakes;\r\n    }\r\n\r\n    // Calls to the Schnoodle proxy contract\r\n\r\n    function stakingFund() private returns (address) {\r\n        (bool success, bytes memory result) = _stakingToken.call(abi.encodeWithSignature(\"stakingFund()\"));\r\n        assert(success);\r\n        return abi.decode(result, (address));\r\n    }\r\n\r\n    function balanceOf(address account) private returns(uint256) {\r\n        (bool success, bytes memory result) = _stakingToken.call(abi.encodeWithSignature(\"balanceOf(address)\", account));\r\n        assert(success);\r\n        return abi.decode(result, (uint256));\r\n    }\r\n\r\n    function stakedBalanceOf(address account) private returns(uint256) {\r\n        (bool success, bytes memory result) = _stakingToken.call(abi.encodeWithSignature(\"stakedBalanceOf(address)\", account));\r\n        assert(success);\r\n        return abi.decode(result, (uint256));\r\n    }\r\n\r\n    // Delegate calls to the Schnoodle proxy contract\r\n\r\n    function adjustStakedBalance(int256 amount) private {\r\n        (bool success, bytes memory result) = _stakingToken.delegatecall(abi.encodeWithSignature(\"adjustStakedBalance(int256)\", int256(amount)));\r\n        assert(success);\r\n    }\r\n\r\n    function stakingReward(uint256 netReward, uint256 grossReward) private {\r\n        (bool success, bytes memory result) = _stakingToken.delegatecall(abi.encodeWithSignature(\"stakingReward(uint256,uint256)\", netReward, grossReward));\r\n        assert(success);\r\n    }\r\n\r\n    // Events\r\n\r\n    event Staked(address indexed account, uint256 amount, uint256 blockNumber);\r\n\r\n    event Withdrawn(address indexed account, uint256 index, uint256 amount, uint256 netReward, uint256 grossReward);\r\n}\r\n",
  "sourcePath": "C:\\Users\\micro\\OneDrive - X-treem Software\\Development\\Projects\\Blockchain\\Schnoodle\\contracts\\SchnoodleStaking.sol",
  "compiler": {
    "name": "solc",
    "version": "0.8.9+commit.e5eed63a.Emscripten.clang"
  },
  "schemaVersion": "3.4.3",
  "updatedAt": "2021-10-23T15:04:59.202Z",
  "devdoc": {
    "author": "Jason Payne (https://twitter.com/Neo42)",
    "kind": "dev",
    "methods": {},
    "version": 1
  },
  "userdoc": {
    "kind": "user",
    "methods": {
      "addStake(uint256,uint256)": {
        "notice": "Stakes the specified amount of tokens for the sender, and adds the details to a stored stake object"
      },
      "withdraw(uint256,uint256)": {
        "notice": "Withdraws the specified amount of tokens from the sender's stake at the specified zero-based index"
      }
    },
    "version": 1
  }
}