{
  "contractName": "SchnoodleStakingV1",
  "abi": [
    {
      "anonymous": false,
      "inputs": [
        {
          "indexed": true,
          "internalType": "address",
          "name": "previousOwner",
          "type": "address"
        },
        {
          "indexed": true,
          "internalType": "address",
          "name": "newOwner",
          "type": "address"
        }
      ],
      "name": "OwnershipTransferred",
      "type": "event"
    },
    {
      "anonymous": false,
      "inputs": [
        {
          "indexed": true,
          "internalType": "address",
          "name": "account",
          "type": "address"
        },
        {
          "indexed": false,
          "internalType": "uint256",
          "name": "amount",
          "type": "uint256"
        },
        {
          "indexed": false,
          "internalType": "uint256",
          "name": "blockNumber",
          "type": "uint256"
        }
      ],
      "name": "Staked",
      "type": "event"
    },
    {
      "anonymous": false,
      "inputs": [
        {
          "indexed": true,
          "internalType": "address",
          "name": "account",
          "type": "address"
        },
        {
          "indexed": false,
          "internalType": "uint256",
          "name": "index",
          "type": "uint256"
        },
        {
          "indexed": false,
          "internalType": "uint256",
          "name": "amount",
          "type": "uint256"
        },
        {
          "indexed": false,
          "internalType": "uint256",
          "name": "netReward",
          "type": "uint256"
        },
        {
          "indexed": false,
          "internalType": "uint256",
          "name": "grossReward",
          "type": "uint256"
        }
      ],
      "name": "Withdrawn",
      "type": "event"
    },
    {
      "inputs": [],
      "name": "owner",
      "outputs": [
        {
          "internalType": "address",
          "name": "",
          "type": "address"
        }
      ],
      "stateMutability": "view",
      "type": "function"
    },
    {
      "inputs": [],
      "name": "renounceOwnership",
      "outputs": [],
      "stateMutability": "nonpayable",
      "type": "function"
    },
    {
      "inputs": [
        {
          "internalType": "address",
          "name": "newOwner",
          "type": "address"
        }
      ],
      "name": "transferOwnership",
      "outputs": [],
      "stateMutability": "nonpayable",
      "type": "function"
    },
    {
      "inputs": [
        {
          "internalType": "address",
          "name": "schnoodle",
          "type": "address"
        }
      ],
      "name": "initialize",
      "outputs": [],
      "stateMutability": "nonpayable",
      "type": "function"
    },
    {
      "inputs": [
        {
          "internalType": "uint256",
          "name": "amount",
          "type": "uint256"
        },
        {
          "internalType": "uint256",
          "name": "vestingBlocks",
          "type": "uint256"
        },
        {
          "internalType": "uint256",
          "name": "unbondingBlocks",
          "type": "uint256"
        },
        {
          "internalType": "uint256",
          "name": "rewardBlock",
          "type": "uint256"
        }
      ],
      "name": "forecastReward",
      "outputs": [
        {
          "internalType": "uint256",
          "name": "",
          "type": "uint256"
        }
      ],
      "stateMutability": "nonpayable",
      "type": "function"
    },
    {
      "inputs": [
        {
          "internalType": "uint256",
          "name": "amount",
          "type": "uint256"
        },
        {
          "internalType": "uint256",
          "name": "vestingBlocks",
          "type": "uint256"
        },
        {
          "internalType": "uint256",
          "name": "unbondingBlocks",
          "type": "uint256"
        }
      ],
      "name": "addStake",
      "outputs": [],
      "stateMutability": "nonpayable",
      "type": "function"
    },
    {
      "inputs": [
        {
          "internalType": "uint256",
          "name": "index",
          "type": "uint256"
        },
        {
          "internalType": "uint256",
          "name": "amount",
          "type": "uint256"
        }
      ],
      "name": "withdraw",
      "outputs": [],
      "stateMutability": "nonpayable",
      "type": "function"
    },
    {
      "inputs": [
        {
          "internalType": "uint256",
          "name": "k",
          "type": "uint256"
        },
        {
          "internalType": "uint256",
          "name": "a",
          "type": "uint256"
        }
      ],
      "name": "changeSigmoidParams",
      "outputs": [],
      "stateMutability": "nonpayable",
      "type": "function"
    },
    {
      "inputs": [],
      "name": "sigmoidParams",
      "outputs": [
        {
          "components": [
            {
              "internalType": "uint256",
              "name": "k",
              "type": "uint256"
            },
            {
              "internalType": "uint256",
              "name": "a",
              "type": "uint256"
            }
          ],
          "internalType": "struct SchnoodleStakingV1.SigmoidParams",
          "name": "",
          "type": "tuple"
        }
      ],
      "stateMutability": "view",
      "type": "function"
    },
    {
      "inputs": [
        {
          "internalType": "address",
          "name": "account",
          "type": "address"
        }
      ],
      "name": "stakedBalanceOf",
      "outputs": [
        {
          "internalType": "uint256",
          "name": "",
          "type": "uint256"
        }
      ],
      "stateMutability": "view",
      "type": "function"
    },
    {
      "inputs": [
        {
          "internalType": "address",
          "name": "account",
          "type": "address"
        }
      ],
      "name": "unbondingBalanceOf",
      "outputs": [
        {
          "internalType": "uint256",
          "name": "",
          "type": "uint256"
        }
      ],
      "stateMutability": "nonpayable",
      "type": "function"
    },
    {
      "inputs": [
        {
          "internalType": "address",
          "name": "account",
          "type": "address"
        }
      ],
      "name": "lockedBalanceOf",
      "outputs": [
        {
          "internalType": "uint256",
          "name": "",
          "type": "uint256"
        }
      ],
      "stateMutability": "nonpayable",
      "type": "function"
    },
    {
      "inputs": [
        {
          "internalType": "address",
          "name": "account",
          "type": "address"
        }
      ],
      "name": "stakingSummary",
      "outputs": [
        {
          "components": [
            {
              "internalType": "uint256",
              "name": "amount",
              "type": "uint256"
            },
            {
              "internalType": "uint256",
              "name": "blockNumber",
              "type": "uint256"
            },
            {
              "internalType": "uint256",
              "name": "vestingBlocks",
              "type": "uint256"
            },
            {
              "internalType": "uint256",
              "name": "unbondingBlocks",
              "type": "uint256"
            },
            {
              "internalType": "uint256",
              "name": "claimable",
              "type": "uint256"
            }
          ],
          "internalType": "struct SchnoodleStakingV1.Stake[]",
          "name": "",
          "type": "tuple[]"
        }
      ],
      "stateMutability": "nonpayable",
      "type": "function"
    },
    {
      "inputs": [
        {
          "internalType": "address",
          "name": "account",
          "type": "address"
        }
      ],
      "name": "unbondingSummary",
      "outputs": [
        {
          "components": [
            {
              "internalType": "uint256",
              "name": "amount",
              "type": "uint256"
            },
            {
              "internalType": "uint256",
              "name": "expiryBlock",
              "type": "uint256"
            }
          ],
          "internalType": "struct SchnoodleStakingV1.Unbond[]",
          "name": "",
          "type": "tuple[]"
        }
      ],
      "stateMutability": "view",
      "type": "function"
    }
  ],
  "bytecode": "0x608060405234801561001057600080fd5b5061284f806100206000396000f3fe608060405234801561001057600080fd5b50600436106100ea5760003560e01c8063715018a61161008c578063926ea17b11610066578063926ea17b146101ef578063c4d66de814610202578063c5af253a14610215578063f2fde38b1461024a57600080fd5b8063715018a6146101ac578063727e165c146101b45780638da5cb5b146101d457600080fd5b8063441a3e70116100c8578063441a3e701461015e578063453a37581461017357806350a5f10814610186578063593557361461019957600080fd5b8063097c63d5146100ef5780630dc243f0146101155780631676539114610135575b600080fd5b6101026100fd366004612372565b61025d565b6040519081526020015b60405180910390f35b6101286101233660046123b9565b6102a2565b60405161010c91906123d6565b6101026101433660046123b9565b6001600160a01b031660009081526067602052604090205490565b61017161016c366004612444565b6103b1565b005b610171610181366004612444565b610823565b610171610194366004612466565b61086b565b6101026101a73660046123b9565b610a66565b610171610a98565b6101c76101c23660046123b9565b610ace565b60405161010c9190612492565b6033546040516001600160a01b03909116815260200161010c565b6101026101fd3660046123b9565b610b57565b6101716102103660046123b9565b610cf3565b60408051808201825260008082526020918201528151808301909252606d548252606e549082015260405161010c91906124dc565b6101716102583660046123b9565b610da2565b600080600061026d878787610e3d565b9150915060008061027f898989610eb3565b9150915061029584856020015188868587610ef2565b9998505050505050505050565b6001600160a01b0381166000908152606660209081526040808320805482518185028101850190935280835260609493849084015b8282101561033b57838290600052602060002090600502016040518060a001604052908160008201548152602001600182015481526020016002820154815260200160038201548152602001600482015481525050815260200190600101906102d7565b505050509050600043905060005b82518110156103a857610375838281518110610367576103676124f3565b602002602001015183610f17565b838281518110610387576103876124f3565b602090810291909101015160800152806103a08161251f565b915050610349565b50909392505050565b33600081815260666020908152604080832080548251818502810185019093528083529192909190849084015b8282101561044257838290600052602060002090600502016040518060a001604052908160008201548152602001600182015481526020016002820154815260200160038201548152602001600482015481525050815260200190600101906103de565b505050509050600081858151811061045c5761045c6124f3565b6020026020010151905083816000015110156104da5760405162461bcd60e51b815260206004820152603260248201527f5363686e6f6f646c655374616b696e673a2063616e6e6f7420776974686472616044820152711dc81b5bdc99481d1a185b881cdd185ad95960721b60648201526084015b60405180910390fd5b60408101516020820151439182916104f2919061253a565b106105655760405162461bcd60e51b815260206004820152603760248201527f5363686e6f6f646c655374616b696e673a2063616e6e6f74207769746864726160448201527f7720647572696e672076657374696e6720626c6f636b7300000000000000000060648201526084016104d1565b6000806000610575858986610f36565b9250925092506105998861058890612552565b828688604001518960600151610f61565b6001600160a01b038716600090815260666020526040902080548991908b9081106105c6576105c66124f3565b906000526020600020906005020160000160008282546105e6919061256f565b90915550506001600160a01b038716600090815260676020526040812080548a929061061390849061256f565b9250508190555060686000886001600160a01b03166001600160a01b0316815260200190815260200160002060405180604001604052808a8152602001876060015187610660919061253a565b9052815460018181018455600093845260208085208451600290940201928355928301519101556001600160a01b0389168252606690526040902080548a9081106106ad576106ad6124f3565b906000526020600020906005020160000154600014156107ba5785600187516106d6919061256f565b815181106106e6576106e66124f3565b602002602001015160666000896001600160a01b03166001600160a01b031681526020019081526020016000208a81548110610724576107246124f3565b6000918252602080832084516005909302019182558381015160018301556040808501516002840155606085015160038401556080909401516004909201919091556001600160a01b038a168252606690522080548061078657610786612586565b6000828152602081206005600019909301928302018181556001810182905560028101829055600381018290556004015590555b6107c5878484610f83565b604080518a8152602081018a9052908101849052606081018390526001600160a01b038816907f94ffd6b85c71b847775c89ef6496b93cee961bdc6ff827fd117f174f06f745ae9060800160405180910390a2505050505050505050565b6033546001600160a01b0316331461084d5760405162461bcd60e51b81526004016104d19061259c565b60408051808201909152828152602001819052606d91909155606e55565b336000818152606760205260409020546108848261103d565b61088e919061256f565b8411156109035760405162461bcd60e51b815260206004820152603760248201527f5363686e6f6f646c655374616b696e673a207374616b6520616d6f756e74206560448201527f78636565647320756e7374616b65642062616c616e636500000000000000000060648201526084016104d1565b6000841161094b5760405162461bcd60e51b81526020600482015260156024820152745374616b65206d757374206265206e6f6e7a65726f60581b60448201526064016104d1565b600080610959868686610e3d565b6001600160a01b0385166000818152606660209081526040808320815160a0810183528d8152838801518185019081528184018e8152606083018e815260808401888152855460018181018855968a52888a209551600590910290950194855592519484019490945551600283015591516003820155905160049091015592825260679052908120805493955091935088926109f690849061253a565b92505081905550610a0e868284602001518888610f61565b826001600160a01b03167f1449c6dd7851abc30abf37f57715f492010519147cc2652fbc38202c18a6ee90878460200151604051610a56929190918252602082015260400190565b60405180910390a2505050505050565b6001600160a01b038116600090815260676020526040812054610a8883610b57565b610a92919061253a565b92915050565b6033546001600160a01b03163314610ac25760405162461bcd60e51b81526004016104d19061259c565b610acc6000611106565b565b6001600160a01b0381166000908152606860209081526040808320805482518185028101850190935280835260609492939192909184015b82821015610b4c57838290600052602060002090600202016040518060400160405290816000820154815260200160018201548152505081526020019060010190610b06565b505050509050919050565b60004381805b6001600160a01b038516600090815260686020526040902054811015610ceb576001600160a01b0385166000908152606860205260408120805483908110610ba757610ba76124f3565b60009182526020918290206040805180820190915260029092020180548252600101549181018290529150841015610bec578051610be5908461253a565b9250610cd8565b6001600160a01b03861660009081526068602052604090208054610c129060019061256f565b81548110610c2257610c226124f3565b906000526020600020906002020160686000886001600160a01b03166001600160a01b031681526020019081526020016000208380610c60906125d1565b945081548110610c7257610c726124f3565b60009182526020808320845460029093020191825560019384015493909101929092556001600160a01b0388168152606890915260409020805480610cb957610cb9612586565b6000828152602081206002600019909301928302018181556001015590555b5080610ce38161251f565b915050610b5d565b509392505050565b600054610100900460ff1680610d0c575060005460ff16155b610d285760405162461bcd60e51b81526004016104d1906125e8565b600054610100900460ff16158015610d4a576000805461ffff19166101011790555b610d52611158565b606580546001600160a01b0319166001600160a01b03841617905560408051808201909152600580825260016020909201829052606d55606e558015610d9e576000805461ff00191690555b5050565b6033546001600160a01b03163314610dcc5760405162461bcd60e51b81526004016104d19061259c565b6001600160a01b038116610e315760405162461bcd60e51b815260206004820152602660248201527f4f776e61626c653a206e6577206f776e657220697320746865207a65726f206160448201526564647265737360d01b60648201526084016104d1565b610e3a81611106565b50565b610e6f6040518060a0016040528060008152602001600081526020016000815260200160008152602001600081525090565b6000804390506040518060a001604052808781526020018281526020018681526020018581526020016000815250610ea6826111d3565b9250925050935093915050565b60008084606954610ec49190612636565b83610ecf8688612677565b610ed99190612677565b606c54610ee69190612636565b91509150935093915050565b600080610f0888896000015189898989896111e7565b50909998505050505050505050565b6000610f2f83606b5484606a54606c54606954610ef2565b9392505050565b6000806000610f528686606b5487606a54606c546069546111e7565b92509250925093509350939050565b606a849055606b839055610f76858383610eb3565b606c556069555050505050565b6065546040516001600160a01b0385811660248301526044820185905260648201849052600092169060840160408051601f198184030181529181526020820180516001600160e01b031663303f28db60e11b17905251610fe491906126fc565b6000604051808303816000865af19150503d8060008114611021576040519150601f19603f3d011682016040523d82523d6000602084013e611026565b606091505b505090508061103757611037612737565b50505050565b6065546040516001600160a01b038381166024830152600092839283929091169060440160408051601f198184030181529181526020820180516001600160e01b03166370a0823160e01b1790525161109691906126fc565b6000604051808303816000865af19150503d80600081146110d3576040519150601f19603f3d011682016040523d82523d6000602084013e6110d8565b606091505b5091509150816110ea576110ea612737565b808060200190518101906110fe919061274d565b949350505050565b603380546001600160a01b038381166001600160a01b0319831681179093556040519116919082907f8be0079c531659141344cd1fd0a4f28419497f9722a3daafe3b4186f6b6457e090600090a35050565b600054610100900460ff1680611171575060005460ff16155b61118d5760405162461bcd60e51b81526004016104d1906125e8565b600054610100900460ff161580156111af576000805461ffff19166101011790555b6111b7611309565b6111bf611373565b8015610e3a576000805461ff001916905550565b6000610a92606b5483606a546069546113d3565b6000806000808a60200151886111fd919061256f565b611207908b612766565b905060006112178a8a8a896113d3565b905060008060008411801561122c5750600089115b156112f65760008e606001518f604001516112479190612766565b905060006112558a8c61279b565b90506000611296611284611276606d6000015461127190612552565b6113fc565b61127f8561142f565b611446565b61129161127185876127bd565b61149f565b90506103e886886112ad6112a86114d5565b61103d565b6112b79190612766565b6112c1919061279b565b955080866112cf838561158e565b6112d99190612766565b6112e3919061279b565b94506112ef888861256f565b9650505050505b9d909c50909a5098505050505050505050565b600054610100900460ff1680611322575060005460ff16155b61133e5760405162461bcd60e51b81526004016104d1906125e8565b600054610100900460ff161580156111bf576000805461ffff19166101011790558015610e3a576000805461ff001916905550565b600054610100900460ff168061138c575060005460ff16155b6113a85760405162461bcd60e51b81526004016104d1906125e8565b600054610100900460ff161580156113ca576000805461ffff19166101011790555b6111bf33611106565b60006113df858561256f565b6113e99083612766565b6113f3908461253a565b95945050505050565b6000677fffffffffffffff19821215801561141f5750677fffffffffffffff8213155b61142857600080fd5b5060401b90565b6000677fffffffffffffff82111561142857600080fd5b600081600f0b6000141561145957600080fd5b600082600f0b604085600f0b901b8161147457611474612785565b05905060016001607f1b03198112801590611496575060016001607f1b038113155b610f2f57600080fd5b6000600f83810b9083900b0260401d60016001607f1b03198112801590611496575060016001607f1b03811315610f2f57600080fd5b60655460408051600481526024810182526020810180516001600160e01b031663cd0e315f60e01b1790529051600092839283926001600160a01b039092169161151f91906126fc565b6000604051808303816000865af19150503d806000811461155c576040519150601f19603f3d011682016040523d82523d6000602084013e611561565b606091505b50915091508161157357611573612737565b8080602001905181019061158791906127fc565b9250505090565b60008061159b600161142f565b90506115d26115cd6115ac8661142f565b6112918461127f866115c86115c08b6115e4565b606e54611639565b61186a565b61189d565b67ffffffffffffffff16949350505050565b6000600160461b82600f0b126115f957600080fd5b683fffffffffffffffff1982600f0b121561161657506000919050565b610a92608083600f0b700171547652b82fe1777d0ffda0d23a7d1202901d6118b9565b600080600084600f0b1280156116525750826001166001145b905060008085600f0b12611666578461166b565b846000035b6fffffffffffffffffffffffffffffffff169050600160801b68010000000000000000821161170e57603f82901b91505b84156117065760018516156116b1578102607f1c5b908002607f1c9060028516156116c7578102607f1c5b908002607f1c9060048516156116dd578102607f1c5b908002607f1c9060088516156116f3578102607f1c5b60049490941c93908002607f1c9061169c565b60401c611824565b603f600160601b8310156117285760209290921b91601f19015b600160701b8310156117405760109290921b91600f19015b600160781b8310156117585760089290921b91600719015b6001607c1b8310156117705760049290921b91600319015b6001607e1b8310156117885760029290921b91600119015b6001607f1b8310156117a05760019290921b91600019015b60005b861561180d57604082106117b657600080fd5b60018716156117dc57918302607f1c918101600160801b8311156117dc57600192831c92015b928002607f1c9260019190911b90600160801b841061180157600193841c9391909101905b600187901c96506117a3565b6040811061181a57600080fd5b6040039190911c90505b6000836118315781611836565b816000035b905060016001607f1b03198112801590611857575060016001607f1b038113155b61186057600080fd5b9695505050505050565b6000600f83810b9083900b0160016001607f1b03198112801590611496575060016001607f1b03811315610f2f57600080fd5b60008082600f0b12156118af57600080fd5b50600f0b60401d90565b6000600160461b82600f0b126118ce57600080fd5b683fffffffffffffffff1982600f0b12156118eb57506000919050565b6001607f1b60006780000000000000008416600f0b131561191d5770016a09e667f3bcc908b2fb1366ea957d3e0260801c5b60008367400000000000000016600f0b131561194a577001306fe0a31b7152de8d5a46305c85edec0260801c5b60008367200000000000000016600f0b1315611977577001172b83c7d517adcdf7c8c50eb14a791f0260801c5b60008367100000000000000016600f0b13156119a45770010b5586cf9890f6298b92b71842a983630260801c5b60008367080000000000000016600f0b13156119d1577001059b0d31585743ae7c548eb68ca417fd0260801c5b60008367040000000000000016600f0b13156119fe57700102c9a3e778060ee6f7caca4f7a29bde80260801c5b60008367020000000000000016600f0b1315611a2b5770010163da9fb33356d84a66ae336dcdfa3f0260801c5b60008367010000000000000016600f0b1315611a5857700100b1afa5abcbed6129ab13ec11dc95430260801c5b600083668000000000000016600f0b1315611a845770010058c86da1c09ea1ff19d294cf2f679b0260801c5b600083664000000000000016600f0b1315611ab0577001002c605e2e8cec506d21bfc89a23a00f0260801c5b600083662000000000000016600f0b1315611adc57700100162f3904051fa128bca9c55c31e5df0260801c5b600083661000000000000016600f0b1315611b08577001000b175effdc76ba38e31671ca9397250260801c5b600083660800000000000016600f0b1315611b3457700100058ba01fb9f96d6cacd4b180917c3d0260801c5b600083660400000000000016600f0b1315611b605770010002c5cc37da9491d0985c348c68e7b30260801c5b600083660200000000000016600f0b1315611b8c577001000162e525ee054754457d59952920260260801c5b600083660100000000000016600f0b1315611bb85770010000b17255775c040618bf4a4ade83fc0260801c5b6000836580000000000016600f0b1315611be3577001000058b91b5bc9ae2eed81e9b7d4cfab0260801c5b6000836540000000000016600f0b1315611c0e57700100002c5c89d5ec6ca4d7c8acc017b7c90260801c5b6000836520000000000016600f0b1315611c395770010000162e43f4f831060e02d839a9d16d0260801c5b6000836510000000000016600f0b1315611c6457700100000b1721bcfc99d9f890ea069117630260801c5b6000836508000000000016600f0b1315611c8f5770010000058b90cf1e6d97f9ca14dbcc16280260801c5b6000836504000000000016600f0b1315611cba577001000002c5c863b73f016468f6bac5ca2b0260801c5b6000836502000000000016600f0b1315611ce557700100000162e430e5a18f6119e3c02282a50260801c5b6000836501000000000016600f0b1315611d10577001000000b1721835514b86e6d96efd1bfe0260801c5b60008364800000000016600f0b1315611d3a57700100000058b90c0b48c6be5df846c5b2ef0260801c5b60008364400000000016600f0b1315611d645770010000002c5c8601cc6b9e94213c72737a0260801c5b60008364200000000016600f0b1315611d8e577001000000162e42fff037df38aa2b219f060260801c5b60008364100000000016600f0b1315611db85770010000000b17217fba9c739aa5819f44f90260801c5b60008364080000000016600f0b1315611de2577001000000058b90bfcdee5acd3c1cedc8230260801c5b60008364040000000016600f0b1315611e0c57700100000002c5c85fe31f35a6a30da1be500260801c5b60008364020000000016600f0b1315611e365770010000000162e42ff0999ce3541b9fffcf0260801c5b60008364010000000016600f0b1315611e6057700100000000b17217f80f4ef5aadda455540260801c5b600083638000000016600f0b1315611e895770010000000058b90bfbf8479bd5a81b51ad0260801c5b600083634000000016600f0b1315611eb2577001000000002c5c85fdf84bd62ae30a74cc0260801c5b600083632000000016600f0b1315611edb57700100000000162e42fefb2fed257559bdaa0260801c5b600083631000000016600f0b1315611f04577001000000000b17217f7d5a7716bba4a9ae0260801c5b600083630800000016600f0b1315611f2d57700100000000058b90bfbe9ddbac5e109cce0260801c5b600083630400000016600f0b1315611f565770010000000002c5c85fdf4b15de6f17eb0d0260801c5b600083630200000016600f0b1315611f7f577001000000000162e42fefa494f1478fde050260801c5b600083630100000016600f0b1315611fa85770010000000000b17217f7d20cf927c8e94c0260801c5b6000836280000016600f0b1315611fd0577001000000000058b90bfbe8f71cb4e4b33d0260801c5b6000836240000016600f0b1315611ff857700100000000002c5c85fdf477b662b269450260801c5b6000836220000016600f0b13156120205770010000000000162e42fefa3ae53369388c0260801c5b6000836210000016600f0b131561204857700100000000000b17217f7d1d351a389d400260801c5b6000836208000016600f0b13156120705770010000000000058b90bfbe8e8b2d3d4ede0260801c5b6000836204000016600f0b1315612098577001000000000002c5c85fdf4741bea6e77e0260801c5b6000836202000016600f0b13156120c057700100000000000162e42fefa39fe95583c20260801c5b6000836201000016600f0b13156120e8577001000000000000b17217f7d1cfb72b45e10260801c5b60008361800016600f0b131561210f57700100000000000058b90bfbe8e7cc35c3f00260801c5b60008361400016600f0b13156121365770010000000000002c5c85fdf473e242ea380260801c5b60008361200016600f0b131561215d577001000000000000162e42fefa39f02b772c0260801c5b60008361100016600f0b13156121845770010000000000000b17217f7d1cf7d83c1a0260801c5b60008361080016600f0b13156121ab577001000000000000058b90bfbe8e7bdcbe2e0260801c5b60008361040016600f0b13156121d257700100000000000002c5c85fdf473dea871f0260801c5b60008361020016600f0b13156121f95770010000000000000162e42fefa39ef44d910260801c5b60008361010016600f0b131561222057700100000000000000b17217f7d1cf79e9490260801c5b600083608016600f0b13156122465770010000000000000058b90bfbe8e7bce5440260801c5b600083604016600f0b131561226c577001000000000000002c5c85fdf473de6eca0260801c5b600083602016600f0b131561229257700100000000000000162e42fefa39ef366f0260801c5b600083601016600f0b13156122b8577001000000000000000b17217f7d1cf79afa0260801c5b600083600816600f0b13156122de57700100000000000000058b90bfbe8e7bcd6d0260801c5b600083600416600f0b13156123045770010000000000000002c5c85fdf473de6b20260801c5b600083600216600f0b131561232a577001000000000000000162e42fefa39ef3580260801c5b600083600116600f0b13156123505770010000000000000000b17217f7d1cf79ab0260801c5b600f83810b60401d603f03900b1c60016001607f1b03811115610a9257600080fd5b6000806000806080858703121561238857600080fd5b5050823594602084013594506040840135936060013592509050565b6001600160a01b0381168114610e3a57600080fd5b6000602082840312156123cb57600080fd5b8135610f2f816123a4565b602080825282518282018190526000919060409081850190868401855b828110156124375781518051855286810151878601528581015186860152606080820151908601526080908101519085015260a090930192908501906001016123f3565b5091979650505050505050565b6000806040838503121561245757600080fd5b50508035926020909101359150565b60008060006060848603121561247b57600080fd5b505081359360208301359350604090920135919050565b602080825282518282018190526000919060409081850190868401855b82811015612437576124cc84835180518252602090810151910152565b92840192908501906001016124af565b815181526020808301519082015260408101610a92565b634e487b7160e01b600052603260045260246000fd5b634e487b7160e01b600052601160045260246000fd5b600060001982141561253357612533612509565b5060010190565b6000821982111561254d5761254d612509565b500190565b6000600160ff1b82141561256857612568612509565b5060000390565b60008282101561258157612581612509565b500390565b634e487b7160e01b600052603160045260246000fd5b6020808252818101527f4f776e61626c653a2063616c6c6572206973206e6f7420746865206f776e6572604082015260600190565b6000816125e0576125e0612509565b506000190190565b6020808252602e908201527f496e697469616c697a61626c653a20636f6e747261637420697320616c72656160408201526d191e481a5b9a5d1a585b1a5e995960921b606082015260800190565b600080821280156001600160ff1b038490038513161561265857612658612509565b600160ff1b839003841281161561267157612671612509565b50500190565b60006001600160ff1b038184138284138082168684048611161561269d5761269d612509565b600160ff1b60008712828116878305891216156126bc576126bc612509565b600087129250878205871284841616156126d8576126d8612509565b878505871281841616156126ee576126ee612509565b505050929093029392505050565b6000825160005b8181101561271d5760208186018101518583015201612703565b8181111561272c576000828501525b509190910192915050565b634e487b7160e01b600052600160045260246000fd5b60006020828403121561275f57600080fd5b5051919050565b600081600019048311821515161561278057612780612509565b500290565b634e487b7160e01b600052601260045260246000fd5b6000826127b857634e487b7160e01b600052601260045260246000fd5b500490565b60008083128015600160ff1b8501841216156127db576127db612509565b6001600160ff1b03840183138116156127f6576127f6612509565b50500390565b60006020828403121561280e57600080fd5b8151610f2f816123a456fea2646970667358221220ea1925c7df21159265d43dbb629e4cf903552936e9442cc301850c69b226139c64736f6c63430008090033",
  "immutableReferences": {},
  "source": "// SPDX-License-Identifier: MIT\r\npragma solidity ^0.8.0;\r\n\r\nimport \"@openzeppelin/contracts-upgradeable/proxy/utils/Initializable.sol\";\r\nimport \"@openzeppelin/contracts-upgradeable/access/OwnableUpgradeable.sol\";\r\nimport \"abdk-libraries-solidity/ABDKMath64x64.sol\";\r\n\r\n/// @author Jason Payne (https://twitter.com/Neo42)\r\n/// Delivers Lambo posthaste\r\ncontract SchnoodleStakingV1 is Initializable, OwnableUpgradeable {\r\n    address private _schnoodle;\r\n    mapping(address => Stake[]) private _stakes;\r\n    mapping(address => uint256) private _balances;\r\n    mapping(address => Unbond[]) private _unbonds;\r\n    uint256 private _totalTokens;\r\n    uint256 private _cumulativeTotal;\r\n    uint256 private _checkpointBlock;\r\n    uint256 private _totalStakeWeight;\r\n\r\n    // Adjust to change the sigmoid curve of the multiplier\r\n    SigmoidParams private _sigmoidParams;\r\n\r\n    struct Stake {\r\n        uint256 amount;\r\n        uint256 blockNumber;\r\n        uint256 vestingBlocks;\r\n        uint256 unbondingBlocks;\r\n        uint256 claimable;\r\n    }\r\n\r\n    struct Unbond {\r\n        uint256 amount;\r\n        uint256 expiryBlock;\r\n    }\r\n\r\n    struct SigmoidParams {\r\n        uint256 k; // Higher value increases slope severity\r\n        uint256 a; // Higher value increases slope severity and shifts right\r\n    }\r\n\r\n    function initialize(address schnoodle) public initializer {\r\n        __Ownable_init();\r\n        _schnoodle = schnoodle;\r\n        _sigmoidParams = SigmoidParams(5, 1);\r\n    }\r\n\r\n    function forecastReward(uint256 amount, uint256 vestingBlocks, uint256 unbondingBlocks, uint256 rewardBlock) external returns(uint256) {\r\n        (Stake memory stake, uint256 cumulativeTotal) = _addStake(amount, vestingBlocks, unbondingBlocks);\r\n        (uint256 totalTokens, uint256 totalStakeWeight) = _updateTracking(int256(amount), vestingBlocks, unbondingBlocks);\r\n        return _reward(stake, stake.blockNumber, rewardBlock, cumulativeTotal, totalStakeWeight, totalTokens);\r\n    }\r\n\r\n    /// Stakes the specified amount of tokens for the sender, and adds the details to a stored stake object\r\n    function addStake(uint256 amount, uint256 vestingBlocks, uint256 unbondingBlocks) external {\r\n        address msgSender = _msgSender();\r\n\r\n        require(amount <= balanceOf(msgSender) - stakedBalanceOf(msgSender), \"SchnoodleStaking: stake amount exceeds unstaked balance\");\r\n        require(amount > 0, \"Stake must be nonzero\");\r\n\r\n        (Stake memory stake, uint256 cumulativeTotal) = _addStake(amount, vestingBlocks, unbondingBlocks);\r\n        _stakes[msgSender].push(Stake(amount, stake.blockNumber, vestingBlocks, unbondingBlocks, 0));\r\n        _balances[msgSender] += amount;\r\n\r\n        _updateTracking(int256(amount), cumulativeTotal, stake.blockNumber, vestingBlocks, unbondingBlocks);\r\n\r\n        emit Staked(msgSender, amount, stake.blockNumber);\r\n    }\r\n\r\n    function _addStake(uint256 amount, uint256 vestingBlocks, uint256 unbondingBlocks) private view returns (Stake memory, uint256) {\r\n        uint256 blockNumber = block.number;\r\n        return (Stake(amount, blockNumber, vestingBlocks, unbondingBlocks, 0), _newCumulativeTotal(blockNumber));\r\n    }\r\n\r\n    /// Withdraws the specified amount of tokens from the sender's stake at the specified zero-based index\r\n    function withdraw(uint256 index, uint256 amount) external {\r\n        address msgSender = _msgSender();\r\n        Stake[] memory stakes = _stakes[msgSender];\r\n        Stake memory stake = stakes[index];\r\n        require(stake.amount >= amount, \"SchnoodleStaking: cannot withdraw more than staked\");\r\n\r\n        uint256 rewardBlock = block.number;\r\n        require(stake.blockNumber + stake.vestingBlocks < rewardBlock, \"SchnoodleStaking: cannot withdraw during vesting blocks\");\r\n\r\n        (uint256 netReward, uint256 grossReward, uint256 newCumulativeTotal) = _rewardInfo(stake, amount, rewardBlock);\r\n\r\n        _updateTracking(-int256(amount), newCumulativeTotal, rewardBlock, stake.vestingBlocks, stake.unbondingBlocks);\r\n\r\n        _stakes[msgSender][index].amount -= amount;\r\n        _balances[msgSender] -= amount;\r\n        _unbonds[msgSender].push(Unbond(amount, rewardBlock + stake.unbondingBlocks));\r\n\r\n        // Remove the stake if it is fully withdrawn by replacing it with the last stake in the array\r\n        if (_stakes[msgSender][index].amount == 0) {\r\n            _stakes[msgSender][index] = stakes[stakes.length - 1];\r\n            _stakes[msgSender].pop();\r\n        }\r\n\r\n        stakingReward(msgSender, netReward, grossReward);\r\n\r\n        emit Withdrawn(msgSender, index, amount, netReward, grossReward);\r\n    }\r\n\r\n    function changeSigmoidParams(uint256 k, uint256 a) external onlyOwner {\r\n        _sigmoidParams = SigmoidParams(k, a);\r\n    }\r\n\r\n    function sigmoidParams() external view returns(SigmoidParams memory) {\r\n        return _sigmoidParams;\r\n    }\r\n\r\n    function _rewardInfo(Stake memory stake, uint256 amount, uint256 rewardBlock) private returns(uint256, uint256, uint256) {\r\n        return _rewardInfo(stake, amount, _checkpointBlock, rewardBlock, _cumulativeTotal, _totalStakeWeight, _totalTokens);\r\n    }\r\n\r\n    function _rewardInfo(Stake memory stake, uint256 amount, uint256 checkpointBlock, uint256 rewardBlock, uint256 cumulativeTotal, uint256 totalStakeWeight, uint256 totalTokens) private returns(uint256, uint256, uint256) {\r\n        // Calculate the stake amount multiplied across the number of blocks since the start of the stake\r\n        uint256 cumulativeAmount = amount * (rewardBlock - stake.blockNumber);\r\n\r\n        // Get the new cumulative total of all stakes as the current stored value is from the previous staking activity\r\n        uint256 newCumulativeTotal = _newCumulativeTotal(checkpointBlock, rewardBlock, cumulativeTotal, totalTokens);\r\n\r\n        uint256 grossReward;\r\n        uint256 netReward;\r\n\r\n        if (cumulativeAmount > 0 && totalStakeWeight > 0) {\r\n            uint256 lockProduct = stake.vestingBlocks * stake.unbondingBlocks;\r\n            uint256 lockProductWeightedAverage = totalStakeWeight / totalTokens;\r\n\r\n            // Calculate a reward multiplier based on a sigmoid curve defined by logistic function 1  (1 + e) where x is the stake's lock product delta from the weighted average\r\n            int128 x = ABDKMath64x64.mul(\r\n                ABDKMath64x64.div(\r\n                    ABDKMath64x64.fromInt(-int256(_sigmoidParams.k)),\r\n                    ABDKMath64x64.fromUInt(lockProductWeightedAverage)\r\n                ),\r\n                ABDKMath64x64.fromInt(int256(lockProduct) - int256(lockProductWeightedAverage))\r\n            );\r\n\r\n            // Calculate the reward as a relative proportion of the cumulative total of all holders' stakes, adjusted by the multiplier\r\n            uint256 accuracy = 1000;\r\n            grossReward = balanceOf(stakingFund()) * cumulativeAmount / newCumulativeTotal;\r\n            netReward = (_multitplier(accuracy, x) * grossReward) / accuracy;\r\n\r\n            // The returned new cumulative total should not include the reward\r\n            newCumulativeTotal -= cumulativeAmount;\r\n        }\r\n\r\n        return (netReward, grossReward, newCumulativeTotal);\r\n    }\r\n\r\n    function _multitplier(uint256 accuracy, int128 x) private view returns(uint256) {\r\n        int128 one = ABDKMath64x64.fromUInt(1);\r\n\r\n        return ABDKMath64x64.toUInt(\r\n            ABDKMath64x64.mul(\r\n                ABDKMath64x64.fromUInt(accuracy),\r\n                ABDKMath64x64.div(one,\r\n                    ABDKMath64x64.add(\r\n                        one,\r\n                        ABDKMath64x64.pow(\r\n                            ABDKMath64x64.exp(x),\r\n                            _sigmoidParams.a\r\n                        )\r\n                    )\r\n                )\r\n            )\r\n        );\r\n    }\r\n\r\n    function _reward(Stake memory stake, uint256 rewardBlock) private returns(uint256) {\r\n        return _reward(stake, _checkpointBlock, rewardBlock, _cumulativeTotal, _totalStakeWeight, _totalTokens);\r\n    }\r\n\r\n    function _reward(Stake memory stake, uint256 checkpointBlock, uint256 rewardBlock, uint256 cumulativeTotal, uint256 totalStakeWeight, uint256 totalTokens) private returns(uint256) {\r\n        (uint256 reward,,) = _rewardInfo(stake, stake.amount, checkpointBlock, rewardBlock, cumulativeTotal, totalStakeWeight, totalTokens);\r\n        return reward;\r\n    }\r\n\r\n    function _newCumulativeTotal(uint256 rewardBlock) private view returns(uint256) {\r\n        return _newCumulativeTotal(_checkpointBlock, rewardBlock, _cumulativeTotal, _totalTokens);\r\n    }\r\n\r\n    function _newCumulativeTotal(uint256 checkpointBlock, uint256 rewardBlock, uint256 cumulativeTotal, uint256 totalTokens) private pure returns(uint256) {\r\n        // Add the total of all stakes multiplied across all blocks since the previous checkpoint calculation to the cumulative total\r\n        return cumulativeTotal + totalTokens * (rewardBlock - checkpointBlock);\r\n    }\r\n\r\n    function _updateTracking(int256 amountDelta, uint256 cumulativeTotal, uint256 checkpointBlock, uint256 vestingBlocks, uint256 unbondingBlocks) private {\r\n        _cumulativeTotal = cumulativeTotal;\r\n        _checkpointBlock = checkpointBlock;\r\n        (_totalTokens, _totalStakeWeight) = _updateTracking(amountDelta, vestingBlocks, unbondingBlocks);\r\n    }\r\n\r\n    function _updateTracking(int256 amountDelta, uint256 vestingBlocks, uint256 unbondingBlocks) private view returns(uint256, uint256) {\r\n        return (\r\n            uint256(int256(_totalTokens) + amountDelta), // Update total tokens\r\n            uint256(int256(_totalStakeWeight) + amountDelta * int256(vestingBlocks) * int256(unbondingBlocks)) // Update total stake weight\r\n        );\r\n    }\r\n\r\n    function stakedBalanceOf(address account) public view returns(uint256) {\r\n        return _balances[account];\r\n    }\r\n\r\n    function unbondingBalanceOf(address account) public returns(uint256) {\r\n        uint256 blockNumber = block.number;\r\n        uint256 total;\r\n\r\n        for (uint256 i = 0; i < _unbonds[account].length; i++) {\r\n            Unbond memory unbond = _unbonds[account][i];\r\n            if (unbond.expiryBlock > blockNumber) {\r\n                total += unbond.amount;\r\n            } else {\r\n                // The unbond has expired, so remove it from the array\r\n                _unbonds[account][i--] = _unbonds[account][_unbonds[account].length - 1];\r\n                _unbonds[account].pop();\r\n            }\r\n        }\r\n\r\n        return total;\r\n    }\r\n\r\n    function lockedBalanceOf(address account) external returns (uint256) {\r\n        return unbondingBalanceOf(account) + stakedBalanceOf(account);\r\n    }\r\n\r\n    function stakingSummary(address account) public returns(Stake[] memory) {\r\n        Stake[] memory stakes = _stakes[account];\r\n        uint256 rewardBlock = block.number;\r\n\r\n        for (uint256 i = 0; i < stakes.length; i++) {\r\n            stakes[i].claimable = _reward(stakes[i], rewardBlock);\r\n        }\r\n\r\n        return stakes;\r\n    }\r\n\r\n    function unbondingSummary(address account) public view returns(Unbond[] memory) {\r\n        return _unbonds[account];\r\n    }\r\n\r\n    // Calls to the Schnoodle proxy contract\r\n\r\n    function stakingFund() private returns (address) {\r\n        (bool success, bytes memory result) = _schnoodle.call(abi.encodeWithSignature(\"stakingFund()\"));\r\n        assert(success);\r\n        return abi.decode(result, (address));\r\n    }\r\n\r\n    function balanceOf(address account) private returns(uint256) {\r\n        (bool success, bytes memory result) = _schnoodle.call(abi.encodeWithSignature(\"balanceOf(address)\", account));\r\n        assert(success);\r\n        return abi.decode(result, (uint256));\r\n    }\r\n\r\n    function stakingReward(address account, uint256 netReward, uint256 grossReward) private {\r\n        (bool success,) = _schnoodle.call(abi.encodeWithSignature(\"stakingReward(address,uint256,uint256)\", account, netReward, grossReward));\r\n        assert(success);\r\n    }\r\n\r\n    // Events\r\n\r\n    event Staked(address indexed account, uint256 amount, uint256 blockNumber);\r\n\r\n    event Withdrawn(address indexed account, uint256 index, uint256 amount, uint256 netReward, uint256 grossReward);\r\n\r\n\r\n    function uint2str(uint _i) internal pure returns (string memory _uintAsString) {\r\n        if (_i == 0) {\r\n            return \"0\";\r\n        }\r\n        uint j = _i;\r\n        uint len;\r\n        while (j != 0) {\r\n            len++;\r\n            j /= 10;\r\n        }\r\n        bytes memory bstr = new bytes(len);\r\n        uint k = len;\r\n        while (_i != 0) {\r\n            k = k-1;\r\n            uint8 temp = (48 + uint8(_i - _i / 10 * 10));\r\n            bytes1 b1 = bytes1(temp);\r\n            bstr[k] = b1;\r\n            _i /= 10;\r\n        }\r\n        return string(bstr);\r\n    }\r\n}\r\n",
  "sourcePath": "C:\\Users\\micro\\OneDrive - X-treem Software\\Development\\Projects\\Blockchain\\Schnoodle\\contracts\\SchnoodleStakingV1.sol",
  "compiler": {
    "name": "solc",
    "version": "0.8.9+commit.e5eed63a.Emscripten.clang"
  },
  "schemaVersion": "3.4.3",
  "updatedAt": "2021-11-01T03:47:01.436Z",
  "devdoc": {
    "author": "Jason Payne (https://twitter.com/Neo42) Delivers Lambo posthaste",
    "kind": "dev",
    "methods": {
      "owner()": {
        "details": "Returns the address of the current owner."
      },
      "renounceOwnership()": {
        "details": "Leaves the contract without owner. It will not be possible to call `onlyOwner` functions anymore. Can only be called by the current owner. NOTE: Renouncing ownership will leave the contract without an owner, thereby removing any functionality that is only available to the owner."
      },
      "transferOwnership(address)": {
        "details": "Transfers ownership of the contract to a new account (`newOwner`). Can only be called by the current owner."
      }
    },
    "version": 1
  },
  "userdoc": {
    "kind": "user",
    "methods": {
      "addStake(uint256,uint256,uint256)": {
        "notice": "Stakes the specified amount of tokens for the sender, and adds the details to a stored stake object"
      },
      "withdraw(uint256,uint256)": {
        "notice": "Withdraws the specified amount of tokens from the sender's stake at the specified zero-based index"
      }
    },
    "version": 1
  }
}