{
  "contractName": "SchnoodleTimelockFactory",
  "abi": [
    {
      "inputs": [],
      "stateMutability": "nonpayable",
      "type": "constructor"
    },
    {
      "inputs": [
        {
          "internalType": "contract IERC20Upgradeable",
          "name": "token",
          "type": "address"
        },
        {
          "internalType": "address",
          "name": "beneficiary",
          "type": "address"
        },
        {
          "internalType": "uint256",
          "name": "releaseTime",
          "type": "uint256"
        }
      ],
      "name": "create",
      "outputs": [
        {
          "internalType": "address",
          "name": "",
          "type": "address"
        }
      ],
      "stateMutability": "nonpayable",
      "type": "function"
    }
  ],
  "bytecode": "0x60a060405234801561001057600080fd5b5060405161001d9061004b565b604051809103906000f080158015610039573d6000803e3d6000fd5b506001600160a01b0316608052610058565b6108a9806102a483390190565b6080516102326100726000396000606701526102326000f3fe608060405234801561001057600080fd5b506004361061002b5760003560e01c8063ffe5725f14610030575b600080fd5b61004361003e3660046101bb565b61005f565b6040516001600160a01b03909116815260200160405180910390f35b60008061008b7f0000000000000000000000000000000000000000000000000000000000000000610102565b6040516305e52ecf60e21b81526001600160a01b03878116600483015286811660248301526044820186905291925090821690631794bb3c90606401600060405180830381600087803b1580156100e157600080fd5b505af11580156100f5573d6000803e3d6000fd5b5092979650505050505050565b6000604051733d602d80600a3d3981f3363d3d373d3d3d363d7360601b81528260601b60148201526e5af43d82803e903d91602b57fd5bf360881b60288201526037816000f09150506001600160a01b03811661019e5760405162461bcd60e51b8152602060048201526016602482015275115490cc4c4d8dce8818dc99585d194819985a5b195960521b604482015260640160405180910390fd5b919050565b6001600160a01b03811681146101b857600080fd5b50565b6000806000606084860312156101d057600080fd5b83356101db816101a3565b925060208401356101eb816101a3565b92959294505050604091909101359056fea264697066735822122092999937595be0f8a2383914364d9a8bf598ce9c0cdd82e7031e8523c403172164736f6c63430008090033608060405234801561001057600080fd5b50610889806100206000396000f3fe608060405234801561001057600080fd5b50600436106100575760003560e01c80631794bb3c1461005c57806338af3eed1461007157806386d1a69f1461009b578063b91d4001146100a3578063fc0c546a146100b4575b600080fd5b61006f61006a36600461070e565b6100cb565b005b6001546001600160a01b03165b6040516001600160a01b0390911681526020015b60405180910390f35b61006f61014e565b600254604051908152602001610092565b6000546201000090046001600160a01b031661007e565b600054610100900460ff16806100e4575060005460ff16155b6101095760405162461bcd60e51b81526004016101009061074f565b60405180910390fd5b600054610100900460ff1615801561012b576000805461ffff19166101011790555b6101368484846102d6565b8015610148576000805461ff00191690555b50505050565b6002544210156101bb5760405162461bcd60e51b815260206004820152603260248201527f546f6b656e54696d656c6f636b3a2063757272656e742074696d65206973206260448201527165666f72652072656c656173652074696d6560701b6064820152608401610100565b600080546201000090046001600160a01b03166040516370a0823160e01b81523060048201526001600160a01b0391909116906370a082319060240160206040518083038186803b15801561020f57600080fd5b505afa158015610223573d6000803e3d6000fd5b505050506040513d601f19601f82011682018060405250810190610247919061079d565b9050600081116102a55760405162461bcd60e51b815260206004820152602360248201527f546f6b656e54696d656c6f636b3a206e6f20746f6b656e7320746f2072656c6560448201526261736560e81b6064820152608401610100565b6102d36102ba6001546001600160a01b031690565b6000546201000090046001600160a01b03169083610338565b50565b600054610100900460ff16806102ef575060005460ff16155b61030b5760405162461bcd60e51b81526004016101009061074f565b600054610100900460ff1615801561032d576000805461ffff19166101011790555b61013684848461038f565b604080516001600160a01b038416602482015260448082018490528251808303909101815260649091019091526020810180516001600160e01b031663a9059cbb60e01b17905261038a9084906104ad565b505050565b600054610100900460ff16806103a8575060005460ff16155b6103c45760405162461bcd60e51b81526004016101009061074f565b600054610100900460ff161580156103e6576000805461ffff19166101011790555b4282116104505760405162461bcd60e51b815260206004820152603260248201527f546f6b656e54696d656c6f636b3a2072656c656173652074696d65206973206260448201527165666f72652063757272656e742074696d6560701b6064820152608401610100565b6000805462010000600160b01b031916620100006001600160a01b038781169190910291909117909155600180546001600160a01b03191691851691909117905560028290558015610148576000805461ff001916905550505050565b6000610502826040518060400160405280602081526020017f5361666545524332303a206c6f772d6c6576656c2063616c6c206661696c6564815250856001600160a01b031661057f9092919063ffffffff16565b80519091501561038a578080602001905181019061052091906107b6565b61038a5760405162461bcd60e51b815260206004820152602a60248201527f5361666545524332303a204552433230206f7065726174696f6e20646964206e6044820152691bdd081cdd58d8d9595960b21b6064820152608401610100565b606061058e8484600085610598565b90505b9392505050565b6060824710156105f95760405162461bcd60e51b815260206004820152602660248201527f416464726573733a20696e73756666696369656e742062616c616e636520666f6044820152651c8818d85b1b60d21b6064820152608401610100565b843b6106475760405162461bcd60e51b815260206004820152601d60248201527f416464726573733a2063616c6c20746f206e6f6e2d636f6e74726163740000006044820152606401610100565b600080866001600160a01b031685876040516106639190610804565b60006040518083038185875af1925050503d80600081146106a0576040519150601f19603f3d011682016040523d82523d6000602084013e6106a5565b606091505b50915091506106b58282866106c0565b979650505050505050565b606083156106cf575081610591565b8251156106df5782518084602001fd5b8160405162461bcd60e51b81526004016101009190610820565b6001600160a01b03811681146102d357600080fd5b60008060006060848603121561072357600080fd5b833561072e816106f9565b9250602084013561073e816106f9565b929592945050506040919091013590565b6020808252602e908201527f496e697469616c697a61626c653a20636f6e747261637420697320616c72656160408201526d191e481a5b9a5d1a585b1a5e995960921b606082015260800190565b6000602082840312156107af57600080fd5b5051919050565b6000602082840312156107c857600080fd5b8151801515811461059157600080fd5b60005b838110156107f35781810151838201526020016107db565b838111156101485750506000910152565b600082516108168184602087016107d8565b9190910192915050565b602081526000825180602084015261083f8160408501602087016107d8565b601f01601f1916919091016040019291505056fea26469706673582212204c46e9fc4135a853b1ee2d5c5ac2f029730fd742f437f05a2f8bad0d34a4c8e864736f6c63430008090033",
  "immutableReferences": {
    "11042": [
      {
        "length": 32,
        "start": 103
      }
    ]
  },
  "source": "// contracts/SchnoodleTimelockFactory.sol\n// SPDX-License-Identifier: MIT\npragma solidity ^0.8.0;\n\nimport \"./imports/SchnoodleTimelock.sol\";\nimport \"@openzeppelin/contracts/proxy/Clones.sol\";\n\ncontract SchnoodleTimelockFactory {\n    address immutable schnoodleTimelock;\n\n    constructor() {\n        schnoodleTimelock = address(new SchnoodleTimelock());\n    }\n\n    function create(IERC20Upgradeable token, address beneficiary, uint256 releaseTime) external returns (address) {\n        address clone = Clones.clone(schnoodleTimelock);\n        SchnoodleTimelock(clone).initialize(token, beneficiary, releaseTime);\n        return clone;\n    }\n}\n",
  "sourcePath": "C:\\Users\\micro\\OneDrive - X-treem Software\\Development\\Projects\\Blockchain\\Schnoodle\\contracts\\SchnoodleTimelockFactory.sol",
  "compiler": {
    "name": "solc",
    "version": "0.8.9+commit.e5eed63a.Emscripten.clang"
  },
  "schemaVersion": "3.4.3",
  "updatedAt": "2021-12-21T14:32:12.432Z",
  "devdoc": {
    "kind": "dev",
    "methods": {},
    "version": 1
  },
  "userdoc": {
    "kind": "user",
    "methods": {},
    "version": 1
  }
}