{
  "contractName": "SchnoodleV6",
  "abi": [
    {
      "anonymous": false,
      "inputs": [
        {
          "indexed": true,
          "internalType": "address",
          "name": "owner",
          "type": "address"
        },
        {
          "indexed": true,
          "internalType": "address",
          "name": "spender",
          "type": "address"
        },
        {
          "indexed": false,
          "internalType": "uint256",
          "name": "value",
          "type": "uint256"
        }
      ],
      "name": "Approval",
      "type": "event"
    },
    {
      "anonymous": false,
      "inputs": [
        {
          "indexed": true,
          "internalType": "address",
          "name": "operator",
          "type": "address"
        },
        {
          "indexed": true,
          "internalType": "address",
          "name": "tokenHolder",
          "type": "address"
        }
      ],
      "name": "AuthorizedOperator",
      "type": "event"
    },
    {
      "anonymous": false,
      "inputs": [
        {
          "indexed": true,
          "internalType": "address",
          "name": "operator",
          "type": "address"
        },
        {
          "indexed": true,
          "internalType": "address",
          "name": "from",
          "type": "address"
        },
        {
          "indexed": false,
          "internalType": "uint256",
          "name": "amount",
          "type": "uint256"
        },
        {
          "indexed": false,
          "internalType": "bytes",
          "name": "data",
          "type": "bytes"
        },
        {
          "indexed": false,
          "internalType": "bytes",
          "name": "operatorData",
          "type": "bytes"
        }
      ],
      "name": "Burned",
      "type": "event"
    },
    {
      "anonymous": false,
      "inputs": [
        {
          "indexed": true,
          "internalType": "address",
          "name": "account",
          "type": "address"
        },
        {
          "indexed": false,
          "internalType": "uint256",
          "name": "rate",
          "type": "uint256"
        }
      ],
      "name": "EleemosynaryChanged",
      "type": "event"
    },
    {
      "anonymous": false,
      "inputs": [
        {
          "indexed": false,
          "internalType": "uint256",
          "name": "rate",
          "type": "uint256"
        }
      ],
      "name": "FeeRateChanged",
      "type": "event"
    },
    {
      "anonymous": false,
      "inputs": [
        {
          "indexed": true,
          "internalType": "address",
          "name": "operator",
          "type": "address"
        },
        {
          "indexed": true,
          "internalType": "address",
          "name": "to",
          "type": "address"
        },
        {
          "indexed": false,
          "internalType": "uint256",
          "name": "amount",
          "type": "uint256"
        },
        {
          "indexed": false,
          "internalType": "bytes",
          "name": "data",
          "type": "bytes"
        },
        {
          "indexed": false,
          "internalType": "bytes",
          "name": "operatorData",
          "type": "bytes"
        }
      ],
      "name": "Minted",
      "type": "event"
    },
    {
      "anonymous": false,
      "inputs": [
        {
          "indexed": true,
          "internalType": "address",
          "name": "previousOwner",
          "type": "address"
        },
        {
          "indexed": true,
          "internalType": "address",
          "name": "newOwner",
          "type": "address"
        }
      ],
      "name": "OwnershipTransferred",
      "type": "event"
    },
    {
      "anonymous": false,
      "inputs": [
        {
          "indexed": true,
          "internalType": "address",
          "name": "operator",
          "type": "address"
        },
        {
          "indexed": true,
          "internalType": "address",
          "name": "tokenHolder",
          "type": "address"
        }
      ],
      "name": "RevokedOperator",
      "type": "event"
    },
    {
      "anonymous": false,
      "inputs": [
        {
          "indexed": false,
          "internalType": "uint256",
          "name": "limit",
          "type": "uint256"
        }
      ],
      "name": "SellLimitChanged",
      "type": "event"
    },
    {
      "anonymous": false,
      "inputs": [
        {
          "indexed": false,
          "internalType": "uint256",
          "name": "blockTimestamp",
          "type": "uint256"
        },
        {
          "indexed": false,
          "internalType": "int256",
          "name": "amount",
          "type": "int256"
        }
      ],
      "name": "SellQuotaChanged",
      "type": "event"
    },
    {
      "anonymous": false,
      "inputs": [
        {
          "indexed": true,
          "internalType": "address",
          "name": "operator",
          "type": "address"
        },
        {
          "indexed": true,
          "internalType": "address",
          "name": "from",
          "type": "address"
        },
        {
          "indexed": true,
          "internalType": "address",
          "name": "to",
          "type": "address"
        },
        {
          "indexed": false,
          "internalType": "uint256",
          "name": "amount",
          "type": "uint256"
        },
        {
          "indexed": false,
          "internalType": "bytes",
          "name": "data",
          "type": "bytes"
        },
        {
          "indexed": false,
          "internalType": "bytes",
          "name": "operatorData",
          "type": "bytes"
        }
      ],
      "name": "Sent",
      "type": "event"
    },
    {
      "anonymous": false,
      "inputs": [
        {
          "indexed": true,
          "internalType": "address",
          "name": "from",
          "type": "address"
        },
        {
          "indexed": true,
          "internalType": "address",
          "name": "to",
          "type": "address"
        },
        {
          "indexed": false,
          "internalType": "uint256",
          "name": "value",
          "type": "uint256"
        }
      ],
      "name": "Transfer",
      "type": "event"
    },
    {
      "inputs": [
        {
          "internalType": "address",
          "name": "operator",
          "type": "address"
        }
      ],
      "name": "authorizeOperator",
      "outputs": [],
      "stateMutability": "nonpayable",
      "type": "function"
    },
    {
      "inputs": [
        {
          "internalType": "uint256",
          "name": "amount",
          "type": "uint256"
        },
        {
          "internalType": "bytes",
          "name": "data",
          "type": "bytes"
        }
      ],
      "name": "burn",
      "outputs": [],
      "stateMutability": "nonpayable",
      "type": "function"
    },
    {
      "inputs": [],
      "name": "decimals",
      "outputs": [
        {
          "internalType": "uint8",
          "name": "",
          "type": "uint8"
        }
      ],
      "stateMutability": "pure",
      "type": "function"
    },
    {
      "inputs": [],
      "name": "defaultOperators",
      "outputs": [
        {
          "internalType": "address[]",
          "name": "",
          "type": "address[]"
        }
      ],
      "stateMutability": "view",
      "type": "function"
    },
    {
      "inputs": [],
      "name": "granularity",
      "outputs": [
        {
          "internalType": "uint256",
          "name": "",
          "type": "uint256"
        }
      ],
      "stateMutability": "view",
      "type": "function"
    },
    {
      "inputs": [
        {
          "internalType": "address",
          "name": "operator",
          "type": "address"
        },
        {
          "internalType": "address",
          "name": "tokenHolder",
          "type": "address"
        }
      ],
      "name": "isOperatorFor",
      "outputs": [
        {
          "internalType": "bool",
          "name": "",
          "type": "bool"
        }
      ],
      "stateMutability": "view",
      "type": "function"
    },
    {
      "inputs": [],
      "name": "name",
      "outputs": [
        {
          "internalType": "string",
          "name": "",
          "type": "string"
        }
      ],
      "stateMutability": "view",
      "type": "function"
    },
    {
      "inputs": [
        {
          "internalType": "address",
          "name": "account",
          "type": "address"
        },
        {
          "internalType": "uint256",
          "name": "amount",
          "type": "uint256"
        },
        {
          "internalType": "bytes",
          "name": "data",
          "type": "bytes"
        },
        {
          "internalType": "bytes",
          "name": "operatorData",
          "type": "bytes"
        }
      ],
      "name": "operatorBurn",
      "outputs": [],
      "stateMutability": "nonpayable",
      "type": "function"
    },
    {
      "inputs": [
        {
          "internalType": "address",
          "name": "sender",
          "type": "address"
        },
        {
          "internalType": "address",
          "name": "recipient",
          "type": "address"
        },
        {
          "internalType": "uint256",
          "name": "amount",
          "type": "uint256"
        },
        {
          "internalType": "bytes",
          "name": "data",
          "type": "bytes"
        },
        {
          "internalType": "bytes",
          "name": "operatorData",
          "type": "bytes"
        }
      ],
      "name": "operatorSend",
      "outputs": [],
      "stateMutability": "nonpayable",
      "type": "function"
    },
    {
      "inputs": [],
      "name": "owner",
      "outputs": [
        {
          "internalType": "address",
          "name": "",
          "type": "address"
        }
      ],
      "stateMutability": "view",
      "type": "function"
    },
    {
      "inputs": [],
      "name": "renounceOwnership",
      "outputs": [],
      "stateMutability": "nonpayable",
      "type": "function"
    },
    {
      "inputs": [
        {
          "internalType": "address",
          "name": "operator",
          "type": "address"
        }
      ],
      "name": "revokeOperator",
      "outputs": [],
      "stateMutability": "nonpayable",
      "type": "function"
    },
    {
      "inputs": [
        {
          "internalType": "address",
          "name": "recipient",
          "type": "address"
        },
        {
          "internalType": "uint256",
          "name": "amount",
          "type": "uint256"
        },
        {
          "internalType": "bytes",
          "name": "data",
          "type": "bytes"
        }
      ],
      "name": "send",
      "outputs": [],
      "stateMutability": "nonpayable",
      "type": "function"
    },
    {
      "inputs": [],
      "name": "symbol",
      "outputs": [
        {
          "internalType": "string",
          "name": "",
          "type": "string"
        }
      ],
      "stateMutability": "view",
      "type": "function"
    },
    {
      "inputs": [
        {
          "internalType": "address",
          "name": "newOwner",
          "type": "address"
        }
      ],
      "name": "transferOwnership",
      "outputs": [],
      "stateMutability": "nonpayable",
      "type": "function"
    },
    {
      "inputs": [
        {
          "internalType": "string",
          "name": "name",
          "type": "string"
        },
        {
          "internalType": "string",
          "name": "symbol",
          "type": "string"
        },
        {
          "internalType": "address[]",
          "name": "defaultOperators",
          "type": "address[]"
        },
        {
          "internalType": "uint256",
          "name": "initialSupply",
          "type": "uint256"
        },
        {
          "internalType": "address",
          "name": "owner",
          "type": "address"
        }
      ],
      "name": "initialize",
      "outputs": [],
      "stateMutability": "nonpayable",
      "type": "function"
    },
    {
      "inputs": [
        {
          "internalType": "uint256",
          "name": "initialTokens",
          "type": "uint256"
        },
        {
          "internalType": "address",
          "name": "serviceAccount",
          "type": "address"
        }
      ],
      "name": "initialize",
      "outputs": [],
      "stateMutability": "nonpayable",
      "type": "function"
    },
    {
      "inputs": [],
      "name": "totalSupply",
      "outputs": [
        {
          "internalType": "uint256",
          "name": "",
          "type": "uint256"
        }
      ],
      "stateMutability": "view",
      "type": "function"
    },
    {
      "inputs": [
        {
          "internalType": "address",
          "name": "account",
          "type": "address"
        }
      ],
      "name": "balanceOf",
      "outputs": [
        {
          "internalType": "uint256",
          "name": "",
          "type": "uint256"
        }
      ],
      "stateMutability": "view",
      "type": "function"
    },
    {
      "inputs": [
        {
          "internalType": "address",
          "name": "recipient",
          "type": "address"
        },
        {
          "internalType": "uint256",
          "name": "amount",
          "type": "uint256"
        }
      ],
      "name": "transfer",
      "outputs": [
        {
          "internalType": "bool",
          "name": "",
          "type": "bool"
        }
      ],
      "stateMutability": "nonpayable",
      "type": "function"
    },
    {
      "inputs": [
        {
          "internalType": "address",
          "name": "holder",
          "type": "address"
        },
        {
          "internalType": "address",
          "name": "spender",
          "type": "address"
        }
      ],
      "name": "allowance",
      "outputs": [
        {
          "internalType": "uint256",
          "name": "",
          "type": "uint256"
        }
      ],
      "stateMutability": "view",
      "type": "function"
    },
    {
      "inputs": [
        {
          "internalType": "address",
          "name": "spender",
          "type": "address"
        },
        {
          "internalType": "uint256",
          "name": "value",
          "type": "uint256"
        }
      ],
      "name": "approve",
      "outputs": [
        {
          "internalType": "bool",
          "name": "",
          "type": "bool"
        }
      ],
      "stateMutability": "nonpayable",
      "type": "function"
    },
    {
      "inputs": [
        {
          "internalType": "address",
          "name": "sender",
          "type": "address"
        },
        {
          "internalType": "address",
          "name": "recipient",
          "type": "address"
        },
        {
          "internalType": "uint256",
          "name": "amount",
          "type": "uint256"
        }
      ],
      "name": "transferFrom",
      "outputs": [
        {
          "internalType": "bool",
          "name": "",
          "type": "bool"
        }
      ],
      "stateMutability": "nonpayable",
      "type": "function"
    },
    {
      "inputs": [
        {
          "internalType": "uint256",
          "name": "rate",
          "type": "uint256"
        }
      ],
      "name": "changeFeeRate",
      "outputs": [],
      "stateMutability": "nonpayable",
      "type": "function"
    },
    {
      "inputs": [
        {
          "internalType": "address",
          "name": "account",
          "type": "address"
        },
        {
          "internalType": "uint256",
          "name": "rate",
          "type": "uint256"
        }
      ],
      "name": "changeEleemosynary",
      "outputs": [],
      "stateMutability": "nonpayable",
      "type": "function"
    },
    {
      "inputs": [
        {
          "internalType": "uint256",
          "name": "limit",
          "type": "uint256"
        }
      ],
      "name": "changeSellLimit",
      "outputs": [],
      "stateMutability": "nonpayable",
      "type": "function"
    },
    {
      "inputs": [],
      "name": "maintenance",
      "outputs": [],
      "stateMutability": "nonpayable",
      "type": "function"
    }
  ],
  "bytecode": "0x608060405234801561001057600080fd5b50612e98806100206000396000f3fe608060405234801561001057600080fd5b50600436106101a95760003560e01c8063768f950a116100f9578063d95b637111610097578063f2fde38b11610071578063f2fde38b14610358578063fad8b32a1461036b578063fc673c4f1461037e578063fe9d93031461039157600080fd5b8063d95b63711461031f578063da35a26f14610332578063dd62ed3e1461034557600080fd5b806395d89b41116100d357806395d89b41146102de5780639bd9bbc6146102e6578063a9059cbb146102f9578063affca9321461030c57600080fd5b8063768f950a1461029d5780638da5cb5b146102b0578063959b8c3f146102cb57600080fd5b80632f5d14671161016657806362ad1b831161014057806362ad1b83146102675780636c376cc51461027a57806370a0823114610282578063715018a61461029557600080fd5b80632f5d14671461023e578063313ce56714610251578063556f0dc71461026057600080fd5b806306e48538146101ae57806306fdde03146101cc578063095ea7b3146101e15780630eda72751461020457806318160ddd1461021957806323b872dd1461022b575b600080fd5b6101b66103a4565b6040516101c3919061244f565b60405180910390f35b6101d4610406565b6040516101c391906124e9565b6101f46101ef366004612521565b61048f565b60405190151581526020016101c3565b61021761021236600461254d565b6104ac565b005b60c9545b6040519081526020016101c3565b6101f4610239366004612566565b61051b565b61021761024c366004612521565b61058b565b604051601281526020016101c3565b600161021d565b61021761027536600461265e565b61060f565b61021761064b565b61021d6102903660046126f1565b61075a565b610217610806565b6102176102ab36600461270e565b61083c565b6097546040516001600160a01b0390911681526020016101c3565b6102176102d93660046126f1565b6108ba565b6101d46109d8565b6102176102f4366004612821565b6109e7565b6101f4610307366004612521565b610a0a565b61021761031a36600461254d565b610a78565b6101f461032d36600461287a565b610ad7565b6102176103403660046128b3565b610b78565b61021d61035336600461287a565b610c74565b6102176103663660046126f1565b610cae565b6102176103793660046126f1565b610d49565b61021761038c3660046128d8565b610e65565b61021761039f366004612958565b610e9d565b606060378054806020026020016040519081016040528092919081815260200182805480156103fc57602002820191906000526020600020905b81546001600160a01b031681526001909101906020018083116103de575b5050505050905090565b6060603580546104159061299f565b80601f01602080910402602001604051908101604052809291908181526020018280546104419061299f565b80156103fc5780601f10610463576101008083540402835291602001916103fc565b820191906000526020600020905b81548152906001019060200180831161047157509395945050505050565b60006104a38361049e84610ebc565b610ed0565b90505b92915050565b6097546001600160a01b031633146104df5760405162461bcd60e51b81526004016104d6906129da565b60405180910390fd5b60cd8190556040518181527f76fd934ecad57bdc4ba5c975ea11f9e511a77593415a6276b03877b9a2dbe801906020015b60405180910390a150565b60008061052783610ebc565b90506000610536868684610ee8565b9050846001600160a01b0316866001600160a01b0316600080516020612e438339815191528660405161056b91815260200190565b60405180910390a3610582868686856110a86110ca565b95945050505050565b6097546001600160a01b031633146105b55760405162461bcd60e51b81526004016104d6906129da565b60cb80546001600160a01b0319166001600160a01b03841690811790915560cc8290556040518281527f14771002f2414c27e60fe966b41bcb8004589b44c52a1f73016757cc92bf5ada9060200160405180910390a25050565b6106193386610ad7565b6106355760405162461bcd60e51b81526004016104d690612a0f565b610644858585858560016112bf565b5050505050565b6097546001600160a01b031633146106755760405162461bcd60e51b81526004016104d6906129da565b605060ca557379a1dda6625dc4842625ef05591e4f2322232120735d22e32398cae8f8448df5491b50c39b7f271016733443036e7c2dfc1f09a309c96b502b4f20f32e4273a51dc67ec00a9b082ec1ebc4a901a9cb447e30e460006106d98461075a565b6106e28661075a565b6106ec9190612a71565b905060006106f98361075a565b6107028561075a565b61070c9084612a71565b6107169190612a71565b90506000610737610728600384612a9f565b6107329085612ab3565b610ebc565b905061074587335b8361132d565b610750878583610ee8565b5050505050505050565b6001600160a01b0381166000908152603360205260408120546034548111156107ed576040805162461bcd60e51b81526020600482015260248101919091527f5363686e6f6f646c653a205265666c65637465642062616c616e6365206d757360448201527f74206265206c657373207468616e20746f74616c207265666c656374696f6e7360648201526084016104d6565b6107f5611454565b6107ff9082612a9f565b9392505050565b6097546001600160a01b031633146108305760405162461bcd60e51b81526004016104d6906129da565b61083a6000611471565b565b600054610100900460ff1680610855575060005460ff16155b6108715760405162461bcd60e51b81526004016104d690612aca565b600054610100900460ff16158015610893576000805461ffff19166101011790555b6108a086868686866114c3565b80156108b2576000805461ff00191690555b505050505050565b336001600160a01b038216141561091f5760405162461bcd60e51b8152602060048201526024808201527f4552433737373a20617574686f72697a696e672073656c66206173206f70657260448201526330ba37b960e11b60648201526084016104d6565b6001600160a01b03811660009081526038602052604090205460ff161561097057336000908152603a602090815260408083206001600160a01b03851684529091529020805460ff1916905561099f565b3360009081526039602090815260408083206001600160a01b03851684529091529020805460ff191660011790555b60405133906001600160a01b038316907ff4caeb2d6ca8932a215a353d0703c326ec2d81fc68170f320eb2ab49e9df61f990600090a350565b6060603680546104159061299f565b610a05338484846040518060200160405280600081525060016112bf565b505050565b600080610a1683610ebc565b90506000610a24858361153a565b90506001600160a01b038516336001600160a01b0316600080516020612e4383398151915286604051610a5991815260200190565b60405180910390a3610a70338686856110a86110ca565b949350505050565b6097546001600160a01b03163314610aa25760405162461bcd60e51b81526004016104d6906129da565b60ca8190556040518181527fdd72d2879718489eb363ba6099239f89d49542612862c71545503d35cfddda4690602001610510565b6000816001600160a01b0316836001600160a01b03161480610b4257506001600160a01b03831660009081526038602052604090205460ff168015610b4257506001600160a01b038083166000908152603a602090815260408083209387168352929052205460ff16155b806104a35750506001600160a01b0390811660009081526039602090815260408083209490931682529290925290205460ff1690565b600054610100900460ff1680610b91575060005460ff16155b610bad5760405162461bcd60e51b81526004016104d690612aca565b600054610100900460ff16158015610bcf576000805461ffff19166101011790555b610bd76115ed565b610be36012600a612bfc565b610bed9084612c0b565b60c981905560408051808201825260098152685363686e6f6f646c6560b81b60208083019190915282518084018452600581526414d393d3d160da1b81830152835160008152918201909352610c5e93919291610c4c90600019612c2a565b610c5890600019612ab3565b8661083c565b8015610a05576000805461ff0019169055505050565b6000610c7e611454565b6001600160a01b038085166000908152603b60209081526040808320938716835292905220546104a39190612a9f565b6097546001600160a01b03163314610cd85760405162461bcd60e51b81526004016104d6906129da565b6001600160a01b038116610d3d5760405162461bcd60e51b815260206004820152602660248201527f4f776e61626c653a206e6577206f776e657220697320746865207a65726f206160448201526564647265737360d01b60648201526084016104d6565b610d4681611471565b50565b6001600160a01b038116331415610dac5760405162461bcd60e51b815260206004820152602160248201527f4552433737373a207265766f6b696e672073656c66206173206f70657261746f6044820152603960f91b60648201526084016104d6565b6001600160a01b03811660009081526038602052604090205460ff1615610e0057336000908152603a602090815260408083206001600160a01b03851684529091529020805460ff19166001179055610e2c565b3360009081526039602090815260408083206001600160a01b03851684529091529020805460ff191690555b60405133906001600160a01b038316907f50546e66e5f44d728365dc3908c63bc5cfeeab470722c1677e3073a6ac294aa190600090a350565b610e6f3385610ad7565b610e8b5760405162461bcd60e51b81526004016104d690612a0f565b610e9784848484611668565b50505050565b610eb833838360405180602001604052806000815250611668565b5050565b6000610ec6611454565b6104a69083612c0b565b600033610ede81858561132d565b5060019392505050565b60006001600160a01b038316610f105760405162461bcd60e51b81526004016104d690612c3e565b6001600160a01b038416610f755760405162461bcd60e51b815260206004820152602660248201527f4552433737373a207472616e736665722066726f6d20746865207a65726f206160448201526564647265737360d01b60648201526084016104d6565b6000339050610fa6818686866040518060200160405280600081525060405180602001604052806000815250611699565b610fd28186868660405180602001604052806000815250604051806020016040528060008152506117cf565b6001600160a01b038086166000908152603b60209081526040808320938516835292905220548381101561105a5760405162461bcd60e51b815260206004820152602960248201527f4552433737373a207472616e7366657220616d6f756e74206578636565647320604482015268616c6c6f77616e636560b81b60648201526084016104d6565b61106e86836110698785612ab3565b61132d565b61109c8287878760405180602001604052806000815250604051806020016040528060008152506000611923565b50600195945050505050565b6110b2823361073f565b60cb54610a059083906001600160a01b031683610ee8565b730f6b0960d2569f505126341085ed7f0342b67dae6001600160a01b0386168114806111075750806001600160a01b0316856001600160a01b0316145b156108b25760cd541561120057426111226201518082612ab3565b60ce5410156111735760ce81905560cd5460cf8190556040805183815260208101929092527f6326273a6785f513768f2d48c9379925280b1265fc536c9ba0d40d213994064b910160405180910390a15b84826001600160a01b0316886001600160a01b03161461119557600019611198565b60015b6111a29190612c82565b60cf80546000906111b4908490612d07565b909155505060ce5460cf546040517f6326273a6785f513768f2d48c9379925280b1265fc536c9ba0d40d213994064b926111f692908252602082015260400190565b60405180910390a1505b806001600160a01b0316856001600160a01b03161461121f5750610644565b61122a858585611aed565b60cb546001600160a01b0316156108b25760006103e860cc548661124e9190612c0b565b6112589190612a9f565b9050600061126582610ebc565b905061127587828663ffffffff16565b60cb546040518381526001600160a01b0391821691891690600080516020612e438339815191529060200160405180910390a360cb54610750906001600160a01b03168383611aed565b60006112ca85610ebc565b90506112da878783878787611bd8565b856001600160a01b0316876001600160a01b0316600080516020612e438339815191528760405161130d91815260200190565b60405180910390a361132487878784611cbb6110ca565b50505050505050565b6001600160a01b0383166113915760405162461bcd60e51b815260206004820152602560248201527f4552433737373a20617070726f76652066726f6d20746865207a65726f206164604482015264647265737360d81b60648201526084016104d6565b6001600160a01b0382166113f35760405162461bcd60e51b815260206004820152602360248201527f4552433737373a20617070726f766520746f20746865207a65726f206164647260448201526265737360e81b60648201526084016104d6565b6001600160a01b038381166000818152603b602090815260408083209487168084529482529182902085905590518481527f8c5be1e5ebec7d5bd14f71427d1e84f3dd0314c0f7b2291e5b200ac8c7c3b925910160405180910390a3505050565b600061145f60c95490565b60345461146c9190612a9f565b905090565b609780546001600160a01b038381166001600160a01b0319831681179093556040519116919082907f8be0079c531659141344cd1fd0a4f28419497f9722a3daafe3b4186f6b6457e090600090a35050565b600054610100900460ff16806114dc575060005460ff16155b6114f85760405162461bcd60e51b81526004016104d690612aca565b600054610100900460ff1615801561151a576000805461ffff19166101011790555b611522611cf4565b61152d868686611d5e565b6108a08686868686611f93565b60006001600160a01b0383166115625760405162461bcd60e51b81526004016104d690612c3e565b6000339050611593818286866040518060200160405280600081525060405180602001604052806000815250611699565b6115bf8182868660405180602001604052806000815250604051806020016040528060008152506117cf565b610ede8182868660405180602001604052806000815250604051806020016040528060008152506000611923565b600054610100900460ff1680611606575060005460ff16155b6116225760405162461bcd60e51b81526004016104d690612aca565b600054610100900460ff16158015611644576000805461ffff19166101011790555b61164c611cf4565b611654612014565b8015610d46576000805461ff001916905550565b61167c8461167585610ebc565b8484612074565b8260c9600082825461168e9190612ab3565b909155505050505050565b60405163555ddc6560e11b81526001600160a01b03861660048201527f29ddb589b1fb5fc7cf394961c1adf5f8c6454761adf795e67fe149f658abe8956024820152600090731820a4b7618bde71dce8cdc73aab6c95905fad249063aabbb8ca9060440160206040518083038186803b15801561171557600080fd5b505afa158015611729573d6000803e3d6000fd5b505050506040513d601f19601f8201168201806040525081019061174d9190612d48565b90506001600160a01b0381161561132457604051633ad5cbc160e11b81526001600160a01b038216906375ab978290611794908a908a908a908a908a908a90600401612d65565b600060405180830381600087803b1580156117ae57600080fd5b505af11580156117c2573d6000803e3d6000fd5b5050505050505050505050565b6001600160a01b038516600090815260336020526040902054838110156118485760405162461bcd60e51b815260206004820152602760248201527f4552433737373a207472616e7366657220616d6f756e7420657863656564732060448201526662616c616e636560c81b60648201526084016104d6565b6001600160a01b0380871660009081526033602052604080822087850390559187168152908120805486929061187f908490612a71565b92505081905550846001600160a01b0316866001600160a01b0316886001600160a01b03167f06b541ddaa720db2b10a4d0cdac39b8d360425fc073085fac19bc826146779878787876040516118d793929190612dbf565b60405180910390a4846001600160a01b0316866001600160a01b0316600080516020612e438339815191528660405161191291815260200190565b60405180910390a350505050505050565b60405163555ddc6560e11b81526001600160a01b03861660048201527fb281fc8c12954d22544db45de3159a39272895b169a852b314f9cc762e44c53b6024820152600090731820a4b7618bde71dce8cdc73aab6c95905fad249063aabbb8ca9060440160206040518083038186803b15801561199f57600080fd5b505afa1580156119b3573d6000803e3d6000fd5b505050506040513d601f19601f820116820180604052508101906119d79190612d48565b90506001600160a01b03811615611a53576040516223de2960e01b81526001600160a01b038216906223de2990611a1c908b908b908b908b908b908b90600401612d65565b600060405180830381600087803b158015611a3657600080fd5b505af1158015611a4a573d6000803e3d6000fd5b50505050610750565b8115610750576001600160a01b0386163b156107505760405162461bcd60e51b815260206004820152604d60248201527f4552433737373a20746f6b656e20726563697069656e7420636f6e747261637460448201527f20686173206e6f20696d706c656d656e74657220666f7220455243373737546f60648201526c1ad95b9cd49958da5c1a595b9d609a1b608482015260a4016104d6565b60ca5460cd5415801590611b03575060cf546000135b15611b4f5760cd5460cf54611b2390611b1b90612df4565b60cd54612217565b611b2e836003612c0b565b611b389190612c0b565b611b429190612a9f565b611b4c9082612a71565b90505b611b8f8482611b606103e886612a9f565b611b6a9190612c0b565b6040518060200160405280600081525060405180602001604052806000815250612074565b60006001600160a01b038516600080516020612e438339815191526103e8611bb78588612c0b565b611bc19190612a9f565b60405190815260200160405180910390a350505050565b6001600160a01b038616611c395760405162461bcd60e51b815260206004820152602260248201527f4552433737373a2073656e642066726f6d20746865207a65726f206164647265604482015261737360f01b60648201526084016104d6565b6001600160a01b038516611c8f5760405162461bcd60e51b815260206004820181905260248201527f4552433737373a2073656e6420746f20746865207a65726f206164647265737360448201526064016104d6565b33611c9e818888888888611699565b611cac8188888888886117cf565b61132481888888888888611923565b60cb54604080516020808201835260008083528351918201909352918252610eb89285926001600160a01b039091169185916001611bd8565b600054610100900460ff1680611d0d575060005460ff16155b611d295760405162461bcd60e51b81526004016104d690612aca565b600054610100900460ff16158015611654576000805461ffff19166101011790558015610d46576000805461ff001916905550565b600054610100900460ff1680611d77575060005460ff16155b611d935760405162461bcd60e51b81526004016104d690612aca565b600054610100900460ff16158015611db5576000805461ffff19166101011790555b8351611dc8906035906020870190612361565b508251611ddc906036906020860190612361565b508151611df09060379060208501906123e5565b5060005b8251811015611e5957600160386000858481518110611e1557611e15612e11565b6020908102919091018101516001600160a01b03168252810191909152604001600020805460ff191691151591909117905580611e5181612e27565b915050611df4565b506040516329965a1d60e01b815230600482018190527fac7fbab5f54a3ca8194167523c6753bfeb96a445279294b6125b68cce217705460248301526044820152731820a4b7618bde71dce8cdc73aab6c95905fad24906329965a1d90606401600060405180830381600087803b158015611ed357600080fd5b505af1158015611ee7573d6000803e3d6000fd5b50506040516329965a1d60e01b815230600482018190527faea199e31a596269b42cdafd93407f14436db6e4cad65417994c2eb37381e05a60248301526044820152731820a4b7618bde71dce8cdc73aab6c95905fad2492506329965a1d9150606401600060405180830381600087803b158015611f6457600080fd5b505af1158015611f78573d6000803e3d6000fd5b505050508015610e97576000805461ff001916905550505050565b600054610100900460ff1680611fac575060005460ff16155b611fc85760405162461bcd60e51b81526004016104d690612aca565b600054610100900460ff16158015611fea576000805461ffff19166101011790555b6108a08284604051806020016040528060008152506040518060200160405280600081525061222d565b600054610100900460ff168061202d575060005460ff16155b6120495760405162461bcd60e51b81526004016104d690612aca565b600054610100900460ff1615801561206b576000805461ffff19166101011790555b61165433611471565b6001600160a01b0384166120d55760405162461bcd60e51b815260206004820152602260248201527f4552433737373a206275726e2066726f6d20746865207a65726f206164647265604482015261737360f01b60648201526084016104d6565b336120e581866000878787611699565b6001600160a01b0385166000908152603360205260409020548481101561215a5760405162461bcd60e51b815260206004820152602360248201527f4552433737373a206275726e20616d6f756e7420657863656564732062616c616044820152626e636560e81b60648201526084016104d6565b6001600160a01b0386166000908152603360205260408120868303905560348054879290612189908490612ab3565b92505081905550856001600160a01b0316826001600160a01b03167fa78a9be3a7b862d26933ad85fb11d80ef66b8f972d7cbba06621d583943a40988787876040516121d793929190612dbf565b60405180910390a36040518581526000906001600160a01b03881690600080516020612e43833981519152906020015b60405180910390a3505050505050565b600081831061222657816104a3565b5090919050565b610e978484848460016001600160a01b03851661228c5760405162461bcd60e51b815260206004820181905260248201527f4552433737373a206d696e7420746f20746865207a65726f206164647265737360448201526064016104d6565b600033905084603460008282546122a39190612a71565b90915550506001600160a01b038616600090815260336020526040812080548792906122d0908490612a71565b909155506122e690508160008888888888611923565b856001600160a01b0316816001600160a01b03167f2fe5be0146f74c5bce36c0b80911af6c7d86ff27e89d5cfa61fc681327954e5d87878760405161232d93929190612dbf565b60405180910390a36040518581526001600160a01b03871690600090600080516020612e4383398151915290602001612207565b82805461236d9061299f565b90600052602060002090601f01602090048101928261238f57600085556123d5565b82601f106123a857805160ff19168380011785556123d5565b828001600101855582156123d5579182015b828111156123d55782518255916020019190600101906123ba565b506123e192915061243a565b5090565b8280548282559060005260206000209081019282156123d5579160200282015b828111156123d557825182546001600160a01b0319166001600160a01b03909116178255602090920191600190910190612405565b5b808211156123e1576000815560010161243b565b6020808252825182820181905260009190848201906040850190845b818110156124905783516001600160a01b03168352928401929184019160010161246b565b50909695505050505050565b6000815180845260005b818110156124c2576020818501810151868301820152016124a6565b818111156124d4576000602083870101525b50601f01601f19169290920160200192915050565b6020815260006104a3602083018461249c565b6001600160a01b0381168114610d4657600080fd5b803561251c816124fc565b919050565b6000806040838503121561253457600080fd5b823561253f816124fc565b946020939093013593505050565b60006020828403121561255f57600080fd5b5035919050565b60008060006060848603121561257b57600080fd5b8335612586816124fc565b92506020840135612596816124fc565b929592945050506040919091013590565b634e487b7160e01b600052604160045260246000fd5b604051601f8201601f1916810167ffffffffffffffff811182821017156125e6576125e66125a7565b604052919050565b600082601f8301126125ff57600080fd5b813567ffffffffffffffff811115612619576126196125a7565b61262c601f8201601f19166020016125bd565b81815284602083860101111561264157600080fd5b816020850160208301376000918101602001919091529392505050565b600080600080600060a0868803121561267657600080fd5b8535612681816124fc565b94506020860135612691816124fc565b935060408601359250606086013567ffffffffffffffff808211156126b557600080fd5b6126c189838a016125ee565b935060808801359150808211156126d757600080fd5b506126e4888289016125ee565b9150509295509295909350565b60006020828403121561270357600080fd5b81356107ff816124fc565b600080600080600060a0868803121561272657600080fd5b853567ffffffffffffffff8082111561273e57600080fd5b61274a89838a016125ee565b965060209150818801358181111561276157600080fd5b61276d8a828b016125ee565b96505060408801358181111561278257600080fd5b8801601f81018a1361279357600080fd5b8035828111156127a5576127a56125a7565b8060051b92506127b68484016125bd565b818152928201840192848101908c8511156127d057600080fd5b928501925b848410156127fa57833592506127ea836124fc565b82825292850192908501906127d5565b97505050506060880135935061281591505060808701612511565b90509295509295909350565b60008060006060848603121561283657600080fd5b8335612841816124fc565b925060208401359150604084013567ffffffffffffffff81111561286457600080fd5b612870868287016125ee565b9150509250925092565b6000806040838503121561288d57600080fd5b8235612898816124fc565b915060208301356128a8816124fc565b809150509250929050565b600080604083850312156128c657600080fd5b8235915060208301356128a8816124fc565b600080600080608085870312156128ee57600080fd5b84356128f9816124fc565b935060208501359250604085013567ffffffffffffffff8082111561291d57600080fd5b612929888389016125ee565b9350606087013591508082111561293f57600080fd5b5061294c878288016125ee565b91505092959194509250565b6000806040838503121561296b57600080fd5b82359150602083013567ffffffffffffffff81111561298957600080fd5b612995858286016125ee565b9150509250929050565b600181811c908216806129b357607f821691505b602082108114156129d457634e487b7160e01b600052602260045260246000fd5b50919050565b6020808252818101527f4f776e61626c653a2063616c6c6572206973206e6f7420746865206f776e6572604082015260600190565b6020808252602c908201527f4552433737373a2063616c6c6572206973206e6f7420616e206f70657261746f60408201526b39103337b9103437b63232b960a11b606082015260800190565b634e487b7160e01b600052601160045260246000fd5b60008219821115612a8457612a84612a5b565b500190565b634e487b7160e01b600052601260045260246000fd5b600082612aae57612aae612a89565b500490565b600082821015612ac557612ac5612a5b565b500390565b6020808252602e908201527f496e697469616c697a61626c653a20636f6e747261637420697320616c72656160408201526d191e481a5b9a5d1a585b1a5e995960921b606082015260800190565b600181815b80851115612b53578160001904821115612b3957612b39612a5b565b80851615612b4657918102915b93841c9390800290612b1d565b509250929050565b600082612b6a575060016104a6565b81612b77575060006104a6565b8160018114612b8d5760028114612b9757612bb3565b60019150506104a6565b60ff841115612ba857612ba8612a5b565b50506001821b6104a6565b5060208310610133831016604e8410600b8410161715612bd6575081810a6104a6565b612be08383612b18565b8060001904821115612bf457612bf4612a5b565b029392505050565b60006104a360ff841683612b5b565b6000816000190483118215151615612c2557612c25612a5b565b500290565b600082612c3957612c39612a89565b500690565b60208082526024908201527f4552433737373a207472616e7366657220746f20746865207a65726f206164646040820152637265737360e01b606082015260800190565b60006001600160ff1b0381841382841380821686840486111615612ca857612ca8612a5b565b600160ff1b6000871282811687830589121615612cc757612cc7612a5b565b60008712925087820587128484161615612ce357612ce3612a5b565b87850587128184161615612cf957612cf9612a5b565b505050929093029392505050565b600080821280156001600160ff1b0384900385131615612d2957612d29612a5b565b600160ff1b8390038412811615612d4257612d42612a5b565b50500190565b600060208284031215612d5a57600080fd5b81516107ff816124fc565b6001600160a01b0387811682528681166020830152851660408201526060810184905260c060808201819052600090612da09083018561249c565b82810360a0840152612db2818561249c565b9998505050505050505050565b838152606060208201526000612dd8606083018561249c565b8281036040840152612dea818561249c565b9695505050505050565b6000600160ff1b821415612e0a57612e0a612a5b565b5060000390565b634e487b7160e01b600052603260045260246000fd5b6000600019821415612e3b57612e3b612a5b565b506001019056feddf252ad1be2c89b69c2b068fc378daa952ba7f163c4a11628f55a4df523b3efa264697066735822122080959bb95e2a51ee4486555b99f6cc324f339f08a12c7d9e39b246240bb993a864736f6c63430008090033",
  "immutableReferences": {},
  "source": "// contracts/SchnoodleV6.sol\r\n// SPDX-License-Identifier: MIT\r\npragma solidity ^0.8.0;\r\n\r\nimport \"@openzeppelin/contracts-upgradeable/proxy/utils/Initializable.sol\";\r\nimport \"@openzeppelin/contracts-upgradeable/token/ERC777/presets/ERC777PresetFixedSupplyUpgradeable.sol\";\r\nimport \"@openzeppelin/contracts-upgradeable/access/OwnableUpgradeable.sol\";\r\nimport \"@openzeppelin/contracts-upgradeable/utils/math/MathUpgradeable.sol\";\r\n\r\ncontract SchnoodleV6 is ERC777PresetFixedSupplyUpgradeable, OwnableUpgradeable {\r\n    uint256 private constant MAX = ~uint256(0);\r\n    uint256 private _totalSupply;\r\n    uint256 private _feeRate;\r\n    address private _eleemosynary;\r\n    uint256 private _donationRate;\r\n    uint256 private _sellLimit;\r\n    TokenMeter private _sellQuota;\r\n\r\n    struct TokenMeter {\r\n        uint256 blockMetric;\r\n        int256 amount;\r\n    }\r\n\r\n    function initialize(uint256 initialTokens, address serviceAccount) public initializer {\r\n        __Ownable_init();\r\n        _totalSupply = initialTokens * 10 ** decimals();\r\n        super.initialize(\"Schnoodle\", \"SNOOD\", new address[](0), MAX - (MAX % totalSupply()), serviceAccount);\r\n    }\r\n\r\n    function totalSupply() public view virtual override returns (uint256) {\r\n        return _totalSupply;\r\n    }\r\n\r\n    function balanceOf(address account) public view override returns (uint256) {\r\n        uint256 reflectedBalance = super.balanceOf(account);\r\n        require(reflectedBalance <= super.totalSupply(), \"Schnoodle: Reflected balance must be less than total reflections\");\r\n        return reflectedBalance / _getRate();\r\n    }\r\n\r\n    function transfer(address recipient, uint256 amount) public virtual override returns (bool) {\r\n        uint256 reflectedAmount = _getReflectedAmount(amount);\r\n        bool result = super.transfer(recipient, reflectedAmount);\r\n        emit Transfer(_msgSender(), recipient, amount);\r\n        _processSwap(_msgSender(), recipient, amount, reflectedAmount, _transferToEleemosynary);\r\n        return result;\r\n    }\r\n\r\n    function allowance(address holder, address spender) public view virtual override returns (uint256) {\r\n        return super.allowance(holder, spender) / _getRate();\r\n    }\r\n\r\n    function approve(address spender, uint256 value) public virtual override returns (bool) {\r\n        return super.approve(spender, _getReflectedAmount(value));\r\n    }\r\n\r\n    function transferFrom(address sender, address recipient, uint256 amount) public virtual override returns (bool) {\r\n        uint256 reflectedAmount = _getReflectedAmount(amount);\r\n        bool result = super.transferFrom(sender, recipient, reflectedAmount);\r\n        emit Transfer(sender, recipient, amount);\r\n        _processSwap(sender, recipient, amount, reflectedAmount, _transferToEleemosynary);\r\n        return result;\r\n    }\r\n\r\n    function _send(address from, address to, uint256 amount, bytes memory userData, bytes memory operatorData, bool requireReceptionAck) internal virtual override {\r\n        uint256 reflectedAmount = _getReflectedAmount(amount);\r\n        super._send(from, to, reflectedAmount, userData, operatorData, requireReceptionAck);\r\n        emit Transfer(from, to, amount);\r\n        _processSwap(from, to, amount, reflectedAmount, _sendToEleemosynary);\r\n    }\r\n\r\n    function _transferToEleemosynary(address recipient, uint256 reflectedDonationAmount) internal {\r\n        _approve(recipient, _msgSender(), reflectedDonationAmount);\r\n        super.transferFrom(recipient, _eleemosynary, reflectedDonationAmount);\r\n    }\r\n\r\n    function _sendToEleemosynary(address recipient, uint256 reflectedDonationAmount) internal {\r\n        super._send(recipient, _eleemosynary, reflectedDonationAmount, \"\", \"\", true);\r\n    }\r\n\r\n    function _processSwap(address sender, address recipient, uint256 amount, uint256 reflectedAmount, function(address, uint256) internal donateCallback) private {\r\n        address liquidityToken = address(0x0F6b0960d2569f505126341085ED7f0342b67DAe);\r\n\r\n        if (sender == liquidityToken || recipient == liquidityToken) {\r\n            // Maintain a sell quota as the net of all daily buys and sells, plus a predefined limit\r\n            if (_sellLimit > 0) {\r\n                uint256 blockTimestamp = block.timestamp;\r\n\r\n                if (_sellQuota.blockMetric < blockTimestamp - 1 days) {\r\n                    _sellQuota.blockMetric = blockTimestamp;\r\n                    _sellQuota.amount = int256(_sellLimit);\r\n                    emit SellQuotaChanged(_sellQuota.blockMetric, _sellQuota.amount);\r\n                }\r\n\r\n                _sellQuota.amount += (sender == liquidityToken ? int256(1) : -1) * int256(amount);\r\n                emit SellQuotaChanged(_sellQuota.blockMetric, _sellQuota.amount);\r\n            }\r\n\r\n            if (recipient != liquidityToken) return;\r\n\r\n            _payFee(recipient, amount, reflectedAmount);\r\n\r\n            // Optionally donate to the eleemosynary fund\r\n            if (_eleemosynary != address(0)) {\r\n                uint256 donationAmount = amount * _donationRate / 1000;\r\n                uint256 reflectedDonationAmount = _getReflectedAmount(donationAmount);\r\n                donateCallback(recipient, reflectedDonationAmount);\r\n                emit Transfer(recipient, _eleemosynary, donationAmount);\r\n                _payFee(_eleemosynary, donationAmount, reflectedDonationAmount);\r\n            }\r\n        }\r\n    }\r\n\r\n    function _payFee(address recipient, uint256 amount, uint256 reflectedAmount) private {\r\n        uint256 feeRate = _feeRate;\r\n\r\n        // Increase the fee linearly when the sell quota is negative (more daily sells than buys including the predefined limit)\r\n        if (_sellLimit > 0 && _sellQuota.amount < 0)\r\n        {\r\n            feeRate += feeRate * 3 * MathUpgradeable.min(uint256(-_sellQuota.amount), _sellLimit) / _sellLimit;\r\n        }\r\n\r\n        super._burn(recipient, reflectedAmount / 1000 * feeRate, \"\", \"\");\r\n        emit Transfer(recipient, address(0), amount * feeRate / 1000);\r\n    }\r\n\r\n    function changeFeeRate(uint256 rate) external onlyOwner {\r\n        _feeRate = rate;\r\n        emit FeeRateChanged(rate);\r\n    }\r\n\r\n    function changeEleemosynary(address account, uint256 rate) external onlyOwner {\r\n        _eleemosynary = account;\r\n        _donationRate = rate;\r\n        emit EleemosynaryChanged(account, rate);\r\n    }\r\n\r\n    function changeSellLimit(uint256 limit) external onlyOwner {\r\n        _sellLimit = limit;\r\n        emit SellLimitChanged(limit);\r\n    }\r\n\r\n    function _burn(address account, uint256 amount, bytes memory data, bytes memory operatorData) internal virtual override {\r\n        super._burn(account, _getReflectedAmount(amount), data, operatorData);\r\n        _totalSupply -= amount;\r\n    }\r\n\r\n    function _getReflectedAmount(uint256 amount) private view returns(uint256) {\r\n        return amount * _getRate();\r\n    }\r\n\r\n    function _getRate() private view returns(uint256) {\r\n        return super.totalSupply() / totalSupply();\r\n    }\r\n\r\n    function maintenance() external onlyOwner {\r\n        _feeRate = 80;\r\n\r\n        address holderA1 = address(0x79A1ddA6625Dc4842625EF05591e4f2322232120);\r\n        address holderA2 = address(0x5d22e32398CAE8F8448df5491b50C39B7F271016);\r\n        address holderB1 = address(0x3443036E7c2dfC1f09a309c96b502b4f20F32e42);\r\n        address holderB2 = address(0xA51dc67ec00a9B082EC1ebc4A901A9Cb447E30E4);\r\n\r\n        uint256 balanceA = balanceOf(holderA1) + balanceOf(holderA2);\r\n        uint256 total = balanceA + balanceOf(holderB1) + balanceOf(holderB2);\r\n\r\n        uint256 reflectedAmount = _getReflectedAmount(balanceA - total / 3);\r\n        _approve(holderA1, _msgSender(), reflectedAmount);\r\n        super.transferFrom(holderA1, holderB2, reflectedAmount);\r\n    }\r\n\r\n    event FeeRateChanged(uint256 rate);\r\n\r\n    event EleemosynaryChanged(address indexed account, uint256 rate);\r\n\r\n    event SellLimitChanged(uint256 limit);\r\n\r\n    event SellQuotaChanged(uint256 blockTimestamp, int256 amount);\r\n}\r\n",
  "sourcePath": "C:\\Users\\micro\\OneDrive - X-treem Software\\Development\\Projects\\Blockchain\\Schnoodle\\contracts\\SchnoodleV6.sol",
  "compiler": {
    "name": "solc",
    "version": "0.8.9+commit.e5eed63a.Emscripten.clang"
  },
  "schemaVersion": "3.4.3",
  "updatedAt": "2021-12-01T08:35:37.956Z",
  "devdoc": {
    "kind": "dev",
    "methods": {
      "allowance(address,address)": {
        "details": "See {IERC20-allowance}. Note that operator and allowance concepts are orthogonal: operators may not have allowance, and accounts with allowance may not be operators themselves."
      },
      "approve(address,uint256)": {
        "details": "See {IERC20-approve}. Note that accounts cannot have allowance issued by their operators."
      },
      "authorizeOperator(address)": {
        "details": "See {IERC777-authorizeOperator}."
      },
      "burn(uint256,bytes)": {
        "details": "See {IERC777-burn}. Also emits a {IERC20-Transfer} event for ERC20 compatibility."
      },
      "decimals()": {
        "details": "See {ERC20-decimals}. Always returns 18, as per the [ERC777 EIP](https://eips.ethereum.org/EIPS/eip-777#backward-compatibility)."
      },
      "defaultOperators()": {
        "details": "See {IERC777-defaultOperators}."
      },
      "granularity()": {
        "details": "See {IERC777-granularity}. This implementation always returns `1`."
      },
      "isOperatorFor(address,address)": {
        "details": "See {IERC777-isOperatorFor}."
      },
      "name()": {
        "details": "See {IERC777-name}."
      },
      "operatorBurn(address,uint256,bytes,bytes)": {
        "details": "See {IERC777-operatorBurn}. Emits {Burned} and {IERC20-Transfer} events."
      },
      "operatorSend(address,address,uint256,bytes,bytes)": {
        "details": "See {IERC777-operatorSend}. Emits {Sent} and {IERC20-Transfer} events."
      },
      "owner()": {
        "details": "Returns the address of the current owner."
      },
      "renounceOwnership()": {
        "details": "Leaves the contract without owner. It will not be possible to call `onlyOwner` functions anymore. Can only be called by the current owner. NOTE: Renouncing ownership will leave the contract without an owner, thereby removing any functionality that is only available to the owner."
      },
      "revokeOperator(address)": {
        "details": "See {IERC777-revokeOperator}."
      },
      "send(address,uint256,bytes)": {
        "details": "See {IERC777-send}. Also emits a {IERC20-Transfer} event for ERC20 compatibility."
      },
      "symbol()": {
        "details": "See {IERC777-symbol}."
      },
      "totalSupply()": {
        "details": "See {IERC777-totalSupply}."
      },
      "transfer(address,uint256)": {
        "details": "See {IERC20-transfer}. Unlike `send`, `recipient` is _not_ required to implement the {IERC777Recipient} interface if it is a contract. Also emits a {Sent} event."
      },
      "transferOwnership(address)": {
        "details": "Transfers ownership of the contract to a new account (`newOwner`). Can only be called by the current owner."
      }
    },
    "version": 1
  },
  "userdoc": {
    "kind": "user",
    "methods": {},
    "version": 1
  }
}