{
  "contractName": "Stakeable",
  "abi": [
    {
      "anonymous": false,
      "inputs": [
        {
          "indexed": true,
          "internalType": "address",
          "name": "user",
          "type": "address"
        },
        {
          "indexed": false,
          "internalType": "uint256",
          "name": "amount",
          "type": "uint256"
        },
        {
          "indexed": false,
          "internalType": "uint256",
          "name": "blockNumber",
          "type": "uint256"
        }
      ],
      "name": "Staked",
      "type": "event"
    },
    {
      "anonymous": false,
      "inputs": [
        {
          "indexed": true,
          "internalType": "address",
          "name": "user",
          "type": "address"
        },
        {
          "indexed": false,
          "internalType": "uint256",
          "name": "index",
          "type": "uint256"
        },
        {
          "indexed": false,
          "internalType": "uint256",
          "name": "amount",
          "type": "uint256"
        },
        {
          "indexed": false,
          "internalType": "uint256",
          "name": "reward",
          "type": "uint256"
        }
      ],
      "name": "Withdrawn",
      "type": "event"
    },
    {
      "inputs": [
        {
          "internalType": "uint256",
          "name": "amount",
          "type": "uint256"
        }
      ],
      "name": "addStake",
      "outputs": [],
      "stateMutability": "nonpayable",
      "type": "function"
    },
    {
      "inputs": [
        {
          "internalType": "uint256",
          "name": "index",
          "type": "uint256"
        },
        {
          "internalType": "uint256",
          "name": "amount",
          "type": "uint256"
        }
      ],
      "name": "withdrawStake",
      "outputs": [
        {
          "internalType": "uint256",
          "name": "",
          "type": "uint256"
        }
      ],
      "stateMutability": "nonpayable",
      "type": "function"
    },
    {
      "inputs": [
        {
          "internalType": "address",
          "name": "account",
          "type": "address"
        }
      ],
      "name": "stakedBalanceOf",
      "outputs": [
        {
          "internalType": "uint256",
          "name": "",
          "type": "uint256"
        }
      ],
      "stateMutability": "view",
      "type": "function"
    },
    {
      "inputs": [],
      "name": "stakingSummary",
      "outputs": [
        {
          "components": [
            {
              "internalType": "uint256",
              "name": "amount",
              "type": "uint256"
            },
            {
              "internalType": "uint256",
              "name": "blockNumber",
              "type": "uint256"
            },
            {
              "internalType": "uint256",
              "name": "claimable",
              "type": "uint256"
            }
          ],
          "internalType": "struct Stakeable.Stake[]",
          "name": "",
          "type": "tuple[]"
        }
      ],
      "stateMutability": "view",
      "type": "function"
    }
  ],
  "bytecode": "0x608060405234801561001057600080fd5b506109e0806100206000396000f3fe608060405234801561001057600080fd5b506004361061004c5760003560e01c80631676539114610051578063a89a65b81461008d578063eb4f16b5146100a2578063f1fdf469146100b7575b600080fd5b61007a61005f366004610800565b6001600160a01b031660009081526003602052604090205490565b6040519081526020015b60405180910390f35b6100956100ca565b6040516100849190610830565b6100b56100b0366004610889565b6101bb565b005b61007a6100c53660046108a2565b610403565b336000908152600260209081526040808320805482518185028101850190935280835260609493849084015b8282101561014657838290600052602060002090600302016040518060600160405290816000820154815260200160018201548152602001600282015481525050815260200190600101906100f6565b505050509050600043905060005b82518110156101b357610180838281518110610172576101726108c4565b6020026020010151836106c0565b838281518110610192576101926108c4565b602090810291909101015160400152806101ab816108f0565b915050610154565b509092915050565b336000908152600360205260409020546000546040516370a0823160e01b8152336004820152620100009091046001600160a01b0316906370a082319060240160206040518083038186803b15801561021357600080fd5b505afa158015610227573d6000803e3d6000fd5b505050506040513d601f19601f8201168201806040525081019061024b919061090b565b6102559190610924565b8111156102c25760405162461bcd60e51b815260206004820152603060248201527f5374616b6561626c653a207374616b6520616d6f756e7420657863656564732060448201526f756e7374616b65642062616c616e636560801b60648201526084015b60405180910390fd5b600081116103225760405162461bcd60e51b815260206004820152602760248201527f5374616b6561626c653a207374616b6520616d6f756e74206d757374206265206044820152666e6f6e7a65726f60c81b60648201526084016102b9565b336000818152600260208181526040808420815160608101835287815243818501818152828501888152845460018181018755958a52878a209451600391820290950194855591519484019490945592519190950155948452939052918120805484929061039190849061093b565b909155506103ad90506103a3826106db565b6005556006829055565b81600460008282546103bf919061093b565b9091555050604080518381526020810183905233917f1449c6dd7851abc30abf37f57715f492010519147cc2652fbc38202c18a6ee90910160405180910390a25050565b33600090815260026020908152604080832080548251818502810185019093528083528493849084015b8282101561047d578382906000526020600020906003020160405180606001604052908160008201548152602001600182015481526020016002820154815250508152602001906001019061042d565b5050505090506000818581518110610497576104976108c4565b6020026020010151905083816000015110156105125760405162461bcd60e51b815260206004820152603460248201527f5374616b6561626c653a2063616e6e6f74207769746864726177206d6f7265206044820152731d1a185b881e5bdd481a185d99481cdd185ad95960621b60648201526084016102b9565b4360008061052184888561070b565b915091506105358184600591909155600655565b86600460008282546105479190610924565b909155505033600090815260026020526040902080548891908a908110610570576105706108c4565b906000526020600020906003020160000160008282546105909190610924565b909155505033600090815260036020526040812080548992906105b4908490610924565b90915550503360009081526002602052604090208054899081106105da576105da6108c4565b906000526020600020906003020160000154600014156106b55784600186516106039190610924565b81518110610613576106136108c4565b602002602001015160026000336001600160a01b03166001600160a01b031681526020019081526020016000208981548110610651576106516108c4565b600091825260208083208451600390930201918255838101516001830155604093840151600292830155338352522080548061068f5761068f610953565b600082815260208120600360001990930192830201818155600181018290556002015590555b509695505050505050565b6000806106d28485600001518561070b565b50949350505050565b6000600654826106eb9190610924565b6004546106f89190610969565b600554610705919061093b565b92915050565b60008060008560200151846107209190610924565b61072a9086610969565b90506000610737856106db565b9050600082156107e3576000546001546040516370a0823160e01b81526001600160a01b039182166004820152849286926201000090910416906370a082319060240160206040518083038186803b15801561079257600080fd5b505afa1580156107a6573d6000803e3d6000fd5b505050506040513d601f19601f820116820180604052508101906107ca919061090b565b6107d49190610969565b6107de9190610988565b6107e6565b60005b90506107f28383610924565b909890975095505050505050565b60006020828403121561081257600080fd5b81356001600160a01b038116811461082957600080fd5b9392505050565b602080825282518282018190526000919060409081850190868401855b8281101561087c578151805185528681015187860152850151858501526060909301929085019060010161084d565b5091979650505050505050565b60006020828403121561089b57600080fd5b5035919050565b600080604083850312156108b557600080fd5b50508035926020909101359150565b634e487b7160e01b600052603260045260246000fd5b634e487b7160e01b600052601160045260246000fd5b6000600019821415610904576109046108da565b5060010190565b60006020828403121561091d57600080fd5b5051919050565b600082821015610936576109366108da565b500390565b6000821982111561094e5761094e6108da565b500190565b634e487b7160e01b600052603160045260246000fd5b6000816000190483118215151615610983576109836108da565b500290565b6000826109a557634e487b7160e01b600052601260045260246000fd5b50049056fea2646970667358221220ab1bd09eb400a7d9b1f4062eef1dd08fc5993ac9bfd9cbf3af048230ec1600a464736f6c63430008090033",
  "immutableReferences": {},
  "source": "// SPDX-License-Identifier: MIT\r\npragma solidity ^0.8.0;\r\n\r\nimport \"@openzeppelin/contracts-upgradeable/proxy/utils/Initializable.sol\";\r\nimport \"@openzeppelin/contracts-upgradeable/token/ERC777/ERC777Upgradeable.sol\";\r\n\r\n/// @author Jason Payne (https://twitter.com/Neo42)\r\n/// @title A token staking superclass\r\n/// Provides staking functionality to any token contract that inherits it\r\ncontract Stakeable is Initializable {\r\n    ERC777Upgradeable private _stakingToken;\r\n    address private _stakingFund;\r\n    mapping(address => Stake[]) private _stakes;\r\n    mapping(address => uint256) private _totals;\r\n    uint256 private _total;\r\n    uint256 private _cumulativeTotal;\r\n    uint256 private _lastBlockNumber;\r\n\r\n    uint256 private _stakingSupply;\r\n    uint256 private _rewardPool;\r\n\r\n    struct Stake {\r\n        uint256 amount;\r\n        uint256 blockNumber;\r\n        uint256 claimable;\r\n    }\r\n\r\n    function __Stakeable_init(address stakingToken, address stakingFund) internal initializer {\r\n        _stakingToken = ERC777Upgradeable(stakingToken);\r\n        _stakingFund = stakingFund;\r\n    }\r\n\r\n    /// Stakes the specified amount of tokens for the sender, and adds the details to a stored stake object\r\n    function addStake(uint256 amount) public {\r\n        require(amount <= _stakingToken.balanceOf(msg.sender) - stakedBalanceOf(msg.sender), \"Stakeable: stake amount exceeds unstaked balance\");\r\n        require(amount > 0, \"Stakeable: stake amount must be nonzero\");\r\n\r\n        uint256 blockNumber = block.number;\r\n        _stakes[msg.sender].push(Stake(amount, blockNumber, 0));\r\n        _totals[msg.sender] += amount;\r\n\r\n        _updateCumulativeTotal(_newCumulativeTotal(blockNumber), blockNumber);\r\n        _total += amount;\r\n\r\n        emit Staked(msg.sender, amount, blockNumber);\r\n    }\r\n\r\n    /// Withdraws the specified amount of tokens from the sender's stake at the specified zero-based index\r\n    function withdrawStake(uint256 index, uint256 amount) public virtual returns(uint256) {\r\n        Stake[] memory stakes = _stakes[msg.sender];\r\n        Stake memory stake = stakes[index];\r\n        require(stake.amount >= amount, \"Stakeable: cannot withdraw more than you have staked\");\r\n\r\n        uint256 blockNumber = block.number;\r\n\r\n        (uint256 reward, uint256 newCumulativeTotal) = _rewardInfo(stake, amount, blockNumber);\r\n\r\n        _updateCumulativeTotal(newCumulativeTotal, blockNumber);\r\n        _total -= amount;\r\n\r\n        _stakes[msg.sender][index].amount -= amount;\r\n        _totals[msg.sender] -= amount;\r\n\r\n        if (_stakes[msg.sender][index].amount == 0) {\r\n            _stakes[msg.sender][index] = stakes[stakes.length - 1];\r\n            _stakes[msg.sender].pop();\r\n        }\r\n\r\n        return reward;\r\n    }\r\n\r\n    function _rewardInfo(Stake memory stake, uint256 amount, uint256 blockNumber) private view returns(uint256, uint256) {\r\n        // Calculate the stake amount multiplied across the number of blocks since the start of the stake\r\n        uint256 cumulativeAmount = amount * (blockNumber - stake.blockNumber);\r\n\r\n        // Get the new cumulative total of all stakes as the current stored value is from the previous staking activity\r\n        uint256 newCumulativeTotal = _newCumulativeTotal(blockNumber);\r\n\r\n        // Calculate the reward as a relative proportion of the cumulative total of all holders' stakes\r\n        uint256 reward = cumulativeAmount == 0 ? 0 : _stakingToken.balanceOf(_stakingFund) * cumulativeAmount / newCumulativeTotal;\r\n\r\n        // The returned new cumulative total should not include the amount being withdrawn\r\n        newCumulativeTotal -= cumulativeAmount;\r\n\r\n        return (reward, newCumulativeTotal);\r\n    }\r\n\r\n    function _reward(Stake memory stake, uint256 blockNumber) private view returns(uint256) {\r\n        (uint256 reward,) = _rewardInfo(stake, stake.amount, blockNumber);\r\n        return reward;\r\n    }\r\n\r\n    function _newCumulativeTotal(uint256 blockNumber) private view returns(uint256) {\r\n        // Add the total of all stakes multiplied across all blocks since the previous calculation to the cumulative total\r\n        return _cumulativeTotal + _total * (blockNumber - _lastBlockNumber);\r\n    }\r\n\r\n    function _updateCumulativeTotal(uint256 cumulativeTotal, uint256 blockNumber) private {\r\n        _cumulativeTotal = cumulativeTotal;\r\n        _lastBlockNumber = blockNumber;\r\n    }\r\n\r\n    function stakedBalanceOf(address account) public view returns(uint256) {\r\n        return _totals[account];\r\n    }\r\n\r\n    function stakingSummary() public view virtual returns(Stake[] memory) {\r\n        Stake[] memory stakes = _stakes[msg.sender];\r\n        uint256 blockNumber = block.number;\r\n\r\n        for (uint256 i = 0; i < stakes.length; i++) {\r\n            stakes[i].claimable = _reward(stakes[i], blockNumber);\r\n        }\r\n\r\n        return stakes;\r\n    }\r\n\r\n    event Staked(address indexed user, uint256 amount, uint256 blockNumber);\r\n\r\n    event Withdrawn(address indexed user, uint256 index, uint256 amount, uint256 reward);\r\n\r\n\r\n    // function uint2str(uint _i) internal pure returns (string memory _uintAsString) {\r\n    //     if (_i == 0) {\r\n    //         return \"0\";\r\n    //     }\r\n    //     uint j = _i;\r\n    //     uint len;\r\n    //     while (j != 0) {\r\n    //         len++;\r\n    //         j /= 10;\r\n    //     }\r\n    //     bytes memory bstr = new bytes(len);\r\n    //     uint k = len;\r\n    //     while (_i != 0) {\r\n    //         k = k-1;\r\n    //         uint8 temp = (48 + uint8(_i - _i / 10 * 10));\r\n    //         bytes1 b1 = bytes1(temp);\r\n    //         bstr[k] = b1;\r\n    //         _i /= 10;\r\n    //     }\r\n    //     return string(bstr);\r\n    // }\r\n}\r\n",
  "sourcePath": "C:\\Users\\micro\\OneDrive - X-treem Software\\Development\\Projects\\Blockchain\\Schnoodle\\contracts\\imports\\Stakeable.sol",
  "compiler": {
    "name": "solc",
    "version": "0.8.9+commit.e5eed63a.Emscripten.clang"
  },
  "schemaVersion": "3.4.3",
  "updatedAt": "2021-10-16T22:52:37.977Z",
  "devdoc": {
    "author": "Jason Payne (https://twitter.com/Neo42)",
    "kind": "dev",
    "methods": {},
    "title": "A token staking superclass Provides staking functionality to any token contract that inherits it",
    "version": 1
  },
  "userdoc": {
    "kind": "user",
    "methods": {
      "addStake(uint256)": {
        "notice": "Stakes the specified amount of tokens for the sender, and adds the details to a stored stake object"
      },
      "withdrawStake(uint256,uint256)": {
        "notice": "Withdraws the specified amount of tokens from the sender's stake at the specified zero-based index"
      }
    },
    "version": 1
  }
}