{
  "contractName": "ERC777Upgradeable",
  "abi": [
    {
      "anonymous": false,
      "inputs": [
        {
          "indexed": true,
          "internalType": "address",
          "name": "owner",
          "type": "address"
        },
        {
          "indexed": true,
          "internalType": "address",
          "name": "spender",
          "type": "address"
        },
        {
          "indexed": false,
          "internalType": "uint256",
          "name": "value",
          "type": "uint256"
        }
      ],
      "name": "Approval",
      "type": "event"
    },
    {
      "anonymous": false,
      "inputs": [
        {
          "indexed": true,
          "internalType": "address",
          "name": "operator",
          "type": "address"
        },
        {
          "indexed": true,
          "internalType": "address",
          "name": "tokenHolder",
          "type": "address"
        }
      ],
      "name": "AuthorizedOperator",
      "type": "event"
    },
    {
      "anonymous": false,
      "inputs": [
        {
          "indexed": true,
          "internalType": "address",
          "name": "operator",
          "type": "address"
        },
        {
          "indexed": true,
          "internalType": "address",
          "name": "from",
          "type": "address"
        },
        {
          "indexed": false,
          "internalType": "uint256",
          "name": "amount",
          "type": "uint256"
        },
        {
          "indexed": false,
          "internalType": "bytes",
          "name": "data",
          "type": "bytes"
        },
        {
          "indexed": false,
          "internalType": "bytes",
          "name": "operatorData",
          "type": "bytes"
        }
      ],
      "name": "Burned",
      "type": "event"
    },
    {
      "anonymous": false,
      "inputs": [
        {
          "indexed": true,
          "internalType": "address",
          "name": "operator",
          "type": "address"
        },
        {
          "indexed": true,
          "internalType": "address",
          "name": "to",
          "type": "address"
        },
        {
          "indexed": false,
          "internalType": "uint256",
          "name": "amount",
          "type": "uint256"
        },
        {
          "indexed": false,
          "internalType": "bytes",
          "name": "data",
          "type": "bytes"
        },
        {
          "indexed": false,
          "internalType": "bytes",
          "name": "operatorData",
          "type": "bytes"
        }
      ],
      "name": "Minted",
      "type": "event"
    },
    {
      "anonymous": false,
      "inputs": [
        {
          "indexed": true,
          "internalType": "address",
          "name": "operator",
          "type": "address"
        },
        {
          "indexed": true,
          "internalType": "address",
          "name": "tokenHolder",
          "type": "address"
        }
      ],
      "name": "RevokedOperator",
      "type": "event"
    },
    {
      "anonymous": false,
      "inputs": [
        {
          "indexed": true,
          "internalType": "address",
          "name": "operator",
          "type": "address"
        },
        {
          "indexed": true,
          "internalType": "address",
          "name": "from",
          "type": "address"
        },
        {
          "indexed": true,
          "internalType": "address",
          "name": "to",
          "type": "address"
        },
        {
          "indexed": false,
          "internalType": "uint256",
          "name": "amount",
          "type": "uint256"
        },
        {
          "indexed": false,
          "internalType": "bytes",
          "name": "data",
          "type": "bytes"
        },
        {
          "indexed": false,
          "internalType": "bytes",
          "name": "operatorData",
          "type": "bytes"
        }
      ],
      "name": "Sent",
      "type": "event"
    },
    {
      "anonymous": false,
      "inputs": [
        {
          "indexed": true,
          "internalType": "address",
          "name": "from",
          "type": "address"
        },
        {
          "indexed": true,
          "internalType": "address",
          "name": "to",
          "type": "address"
        },
        {
          "indexed": false,
          "internalType": "uint256",
          "name": "value",
          "type": "uint256"
        }
      ],
      "name": "Transfer",
      "type": "event"
    },
    {
      "inputs": [],
      "name": "name",
      "outputs": [
        {
          "internalType": "string",
          "name": "",
          "type": "string"
        }
      ],
      "stateMutability": "view",
      "type": "function"
    },
    {
      "inputs": [],
      "name": "symbol",
      "outputs": [
        {
          "internalType": "string",
          "name": "",
          "type": "string"
        }
      ],
      "stateMutability": "view",
      "type": "function"
    },
    {
      "inputs": [],
      "name": "decimals",
      "outputs": [
        {
          "internalType": "uint8",
          "name": "",
          "type": "uint8"
        }
      ],
      "stateMutability": "pure",
      "type": "function"
    },
    {
      "inputs": [],
      "name": "granularity",
      "outputs": [
        {
          "internalType": "uint256",
          "name": "",
          "type": "uint256"
        }
      ],
      "stateMutability": "view",
      "type": "function"
    },
    {
      "inputs": [],
      "name": "totalSupply",
      "outputs": [
        {
          "internalType": "uint256",
          "name": "",
          "type": "uint256"
        }
      ],
      "stateMutability": "view",
      "type": "function"
    },
    {
      "inputs": [
        {
          "internalType": "address",
          "name": "tokenHolder",
          "type": "address"
        }
      ],
      "name": "balanceOf",
      "outputs": [
        {
          "internalType": "uint256",
          "name": "",
          "type": "uint256"
        }
      ],
      "stateMutability": "view",
      "type": "function"
    },
    {
      "inputs": [
        {
          "internalType": "address",
          "name": "recipient",
          "type": "address"
        },
        {
          "internalType": "uint256",
          "name": "amount",
          "type": "uint256"
        },
        {
          "internalType": "bytes",
          "name": "data",
          "type": "bytes"
        }
      ],
      "name": "send",
      "outputs": [],
      "stateMutability": "nonpayable",
      "type": "function"
    },
    {
      "inputs": [
        {
          "internalType": "address",
          "name": "recipient",
          "type": "address"
        },
        {
          "internalType": "uint256",
          "name": "amount",
          "type": "uint256"
        }
      ],
      "name": "transfer",
      "outputs": [
        {
          "internalType": "bool",
          "name": "",
          "type": "bool"
        }
      ],
      "stateMutability": "nonpayable",
      "type": "function"
    },
    {
      "inputs": [
        {
          "internalType": "uint256",
          "name": "amount",
          "type": "uint256"
        },
        {
          "internalType": "bytes",
          "name": "data",
          "type": "bytes"
        }
      ],
      "name": "burn",
      "outputs": [],
      "stateMutability": "nonpayable",
      "type": "function"
    },
    {
      "inputs": [
        {
          "internalType": "address",
          "name": "operator",
          "type": "address"
        },
        {
          "internalType": "address",
          "name": "tokenHolder",
          "type": "address"
        }
      ],
      "name": "isOperatorFor",
      "outputs": [
        {
          "internalType": "bool",
          "name": "",
          "type": "bool"
        }
      ],
      "stateMutability": "view",
      "type": "function"
    },
    {
      "inputs": [
        {
          "internalType": "address",
          "name": "operator",
          "type": "address"
        }
      ],
      "name": "authorizeOperator",
      "outputs": [],
      "stateMutability": "nonpayable",
      "type": "function"
    },
    {
      "inputs": [
        {
          "internalType": "address",
          "name": "operator",
          "type": "address"
        }
      ],
      "name": "revokeOperator",
      "outputs": [],
      "stateMutability": "nonpayable",
      "type": "function"
    },
    {
      "inputs": [],
      "name": "defaultOperators",
      "outputs": [
        {
          "internalType": "address[]",
          "name": "",
          "type": "address[]"
        }
      ],
      "stateMutability": "view",
      "type": "function"
    },
    {
      "inputs": [
        {
          "internalType": "address",
          "name": "sender",
          "type": "address"
        },
        {
          "internalType": "address",
          "name": "recipient",
          "type": "address"
        },
        {
          "internalType": "uint256",
          "name": "amount",
          "type": "uint256"
        },
        {
          "internalType": "bytes",
          "name": "data",
          "type": "bytes"
        },
        {
          "internalType": "bytes",
          "name": "operatorData",
          "type": "bytes"
        }
      ],
      "name": "operatorSend",
      "outputs": [],
      "stateMutability": "nonpayable",
      "type": "function"
    },
    {
      "inputs": [
        {
          "internalType": "address",
          "name": "account",
          "type": "address"
        },
        {
          "internalType": "uint256",
          "name": "amount",
          "type": "uint256"
        },
        {
          "internalType": "bytes",
          "name": "data",
          "type": "bytes"
        },
        {
          "internalType": "bytes",
          "name": "operatorData",
          "type": "bytes"
        }
      ],
      "name": "operatorBurn",
      "outputs": [],
      "stateMutability": "nonpayable",
      "type": "function"
    },
    {
      "inputs": [
        {
          "internalType": "address",
          "name": "holder",
          "type": "address"
        },
        {
          "internalType": "address",
          "name": "spender",
          "type": "address"
        }
      ],
      "name": "allowance",
      "outputs": [
        {
          "internalType": "uint256",
          "name": "",
          "type": "uint256"
        }
      ],
      "stateMutability": "view",
      "type": "function"
    },
    {
      "inputs": [
        {
          "internalType": "address",
          "name": "spender",
          "type": "address"
        },
        {
          "internalType": "uint256",
          "name": "value",
          "type": "uint256"
        }
      ],
      "name": "approve",
      "outputs": [
        {
          "internalType": "bool",
          "name": "",
          "type": "bool"
        }
      ],
      "stateMutability": "nonpayable",
      "type": "function"
    },
    {
      "inputs": [
        {
          "internalType": "address",
          "name": "holder",
          "type": "address"
        },
        {
          "internalType": "address",
          "name": "recipient",
          "type": "address"
        },
        {
          "internalType": "uint256",
          "name": "amount",
          "type": "uint256"
        }
      ],
      "name": "transferFrom",
      "outputs": [
        {
          "internalType": "bool",
          "name": "",
          "type": "bool"
        }
      ],
      "stateMutability": "nonpayable",
      "type": "function"
    }
  ],
  "bytecode": "0x608060405234801561001057600080fd5b506117a8806100206000396000f3fe608060405234801561001057600080fd5b50600436106101165760003560e01c8063959b8c3f116100a2578063d95b637111610071578063d95b63711461022b578063dd62ed3e1461023e578063fad8b32a14610277578063fc673c4f1461028a578063fe9d93031461029d57600080fd5b8063959b8c3f146101ea57806395d89b41146101fd5780639bd9bbc614610205578063a9059cbb1461021857600080fd5b806323b872dd116100e957806323b872dd14610183578063313ce56714610196578063556f0dc7146101a557806362ad1b83146101ac57806370a08231146101c157600080fd5b806306e485381461011b57806306fdde0314610139578063095ea7b31461014e57806318160ddd14610171575b600080fd5b6101236102b0565b60405161013091906111d9565b60405180910390f35b610141610312565b6040516101309190611273565b61016161015c36600461129e565b61039b565b6040519015158152602001610130565b6034545b604051908152602001610130565b6101616101913660046112ca565b6103b3565b60405160128152602001610130565b6001610175565b6101bf6101ba3660046113ae565b6104ea565b005b6101756101cf366004611441565b6001600160a01b031660009081526033602052604090205490565b6101bf6101f8366004611441565b610526565b610141610643565b6101bf61021336600461145e565b610652565b61016161022636600461129e565b610675565b6101616102393660046114b7565b610728565b61017561024c3660046114b7565b6001600160a01b039182166000908152603b6020908152604080832093909416825291909152205490565b6101bf610285366004611441565b6107ca565b6101bf6102983660046114f0565b6108e5565b6101bf6102ab366004611570565b61091d565b6060603780548060200260200160405190810160405280929190818152602001828054801561030857602002820191906000526020600020905b81546001600160a01b031681526001909101906020018083116102ea575b5050505050905090565b606060358054610321906115b7565b80601f016020809104026020016040519081016040528092919081815260200182805461034d906115b7565b80156103085780601f1061036f57610100808354040283529160200191610308565b820191906000526020600020905b81548152906001019060200180831161037d57509395945050505050565b6000336103a981858561093c565b5060019392505050565b60006001600160a01b0383166103e45760405162461bcd60e51b81526004016103db906115f1565b60405180910390fd5b6001600160a01b0384166104495760405162461bcd60e51b815260206004820152602660248201527f4552433737373a207472616e736665722066726f6d20746865207a65726f206160448201526564647265737360d01b60648201526084016103db565b600033905061047a818686866040518060200160405280600081525060405180602001604052806000815250610a63565b610485858285610b8b565b6104b1818686866040518060200160405280600081525060405180602001604052806000815250610c17565b6104df8186868660405180602001604052806000815250604051806020016040528060008152506000610d7d565b506001949350505050565b6104f43386610728565b6105105760405162461bcd60e51b81526004016103db90611635565b61051f85858585856001610f42565b5050505050565b6001600160a01b038116330361058a5760405162461bcd60e51b8152602060048201526024808201527f4552433737373a20617574686f72697a696e672073656c66206173206f70657260448201526330ba37b960e11b60648201526084016103db565b6001600160a01b03811660009081526038602052604090205460ff16156105db57336000908152603a602090815260408083206001600160a01b03851684529091529020805460ff1916905561060a565b3360009081526039602090815260408083206001600160a01b03851684529091529020805460ff191660011790555b60405133906001600160a01b038316907ff4caeb2d6ca8932a215a353d0703c326ec2d81fc68170f320eb2ab49e9df61f990600090a350565b606060368054610321906115b7565b61067033848484604051806020016040528060008152506001610f42565b505050565b60006001600160a01b03831661069d5760405162461bcd60e51b81526004016103db906115f1565b60003390506106ce818286866040518060200160405280600081525060405180602001604052806000815250610a63565b6106fa818286866040518060200160405280600081525060405180602001604052806000815250610c17565b6103a98182868660405180602001604052806000815250604051806020016040528060008152506000610d7d565b6000816001600160a01b0316836001600160a01b0316148061079357506001600160a01b03831660009081526038602052604090205460ff16801561079357506001600160a01b038083166000908152603a602090815260408083209387168352929052205460ff16155b806107c357506001600160a01b0380831660009081526039602090815260408083209387168352929052205460ff165b9392505050565b336001600160a01b0382160361082c5760405162461bcd60e51b815260206004820152602160248201527f4552433737373a207265766f6b696e672073656c66206173206f70657261746f6044820152603960f91b60648201526084016103db565b6001600160a01b03811660009081526038602052604090205460ff161561088057336000908152603a602090815260408083206001600160a01b03851684529091529020805460ff191660011790556108ac565b3360009081526039602090815260408083206001600160a01b03851684529091529020805460ff191690555b60405133906001600160a01b038316907f50546e66e5f44d728365dc3908c63bc5cfeeab470722c1677e3073a6ac294aa190600090a350565b6108ef3385610728565b61090b5760405162461bcd60e51b81526004016103db90611635565b61091784848484611025565b50505050565b61093833838360405180602001604052806000815250611025565b5050565b6001600160a01b0383166109a05760405162461bcd60e51b815260206004820152602560248201527f4552433737373a20617070726f76652066726f6d20746865207a65726f206164604482015264647265737360d81b60648201526084016103db565b6001600160a01b038216610a025760405162461bcd60e51b815260206004820152602360248201527f4552433737373a20617070726f766520746f20746865207a65726f206164647260448201526265737360e81b60648201526084016103db565b6001600160a01b038381166000818152603b602090815260408083209487168084529482529182902085905590518481527f8c5be1e5ebec7d5bd14f71427d1e84f3dd0314c0f7b2291e5b200ac8c7c3b925910160405180910390a3505050565b60405163555ddc6560e11b81526001600160a01b03861660048201527f29ddb589b1fb5fc7cf394961c1adf5f8c6454761adf795e67fe149f658abe8956024820152600090731820a4b7618bde71dce8cdc73aab6c95905fad249063aabbb8ca90604401602060405180830381865afa158015610ae4573d6000803e3d6000fd5b505050506040513d601f19601f82011682018060405250810190610b089190611681565b90506001600160a01b03811615610b8257604051633ad5cbc160e11b81526001600160a01b038216906375ab978290610b4f908a908a908a908a908a908a9060040161169e565b600060405180830381600087803b158015610b6957600080fd5b505af1158015610b7d573d6000803e3d6000fd5b505050505b50505050505050565b6001600160a01b038381166000908152603b602090815260408083209386168352929052205460001981146109175781811015610c0a5760405162461bcd60e51b815260206004820152601e60248201527f4552433737373a20696e73756666696369656e7420616c6c6f77616e6365000060448201526064016103db565b610917848484840361093c565b6001600160a01b03851660009081526033602052604090205483811015610c905760405162461bcd60e51b815260206004820152602760248201527f4552433737373a207472616e7366657220616d6f756e7420657863656564732060448201526662616c616e636560c81b60648201526084016103db565b6001600160a01b03808716600090815260336020526040808220878503905591871681529081208054869290610cc790849061170e565b92505081905550846001600160a01b0316866001600160a01b0316886001600160a01b03167f06b541ddaa720db2b10a4d0cdac39b8d360425fc073085fac19bc82614677987878787604051610d1f93929190611726565b60405180910390a4846001600160a01b0316866001600160a01b03167fddf252ad1be2c89b69c2b068fc378daa952ba7f163c4a11628f55a4df523b3ef86604051610d6c91815260200190565b60405180910390a350505050505050565b60405163555ddc6560e11b81526001600160a01b03861660048201527fb281fc8c12954d22544db45de3159a39272895b169a852b314f9cc762e44c53b6024820152600090731820a4b7618bde71dce8cdc73aab6c95905fad249063aabbb8ca90604401602060405180830381865afa158015610dfe573d6000803e3d6000fd5b505050506040513d601f19601f82011682018060405250810190610e229190611681565b90506001600160a01b03811615610e9e576040516223de2960e01b81526001600160a01b038216906223de2990610e67908b908b908b908b908b908b9060040161169e565b600060405180830381600087803b158015610e8157600080fd5b505af1158015610e95573d6000803e3d6000fd5b50505050610f38565b8115610f38576001600160a01b0386163b15610f385760405162461bcd60e51b815260206004820152604d60248201527f4552433737373a20746f6b656e20726563697069656e7420636f6e747261637460448201527f20686173206e6f20696d706c656d656e74657220666f7220455243373737546f60648201526c1ad95b9cd49958da5c1a595b9d609a1b608482015260a4016103db565b5050505050505050565b6001600160a01b038616610fa35760405162461bcd60e51b815260206004820152602260248201527f4552433737373a2073656e642066726f6d20746865207a65726f206164647265604482015261737360f01b60648201526084016103db565b6001600160a01b038516610ff95760405162461bcd60e51b815260206004820181905260248201527f4552433737373a2073656e6420746f20746865207a65726f206164647265737360448201526064016103db565b33611008818888888888610a63565b611016818888888888610c17565b610b8281888888888888610d7d565b6001600160a01b0384166110865760405162461bcd60e51b815260206004820152602260248201527f4552433737373a206275726e2066726f6d20746865207a65726f206164647265604482015261737360f01b60648201526084016103db565b3361109681866000878787610a63565b6001600160a01b0385166000908152603360205260409020548481101561110b5760405162461bcd60e51b815260206004820152602360248201527f4552433737373a206275726e20616d6f756e7420657863656564732062616c616044820152626e636560e81b60648201526084016103db565b6001600160a01b038616600090815260336020526040812086830390556034805487929061113a90849061175b565b92505081905550856001600160a01b0316826001600160a01b03167fa78a9be3a7b862d26933ad85fb11d80ef66b8f972d7cbba06621d583943a409887878760405161118893929190611726565b60405180910390a36040518581526000906001600160a01b038816907fddf252ad1be2c89b69c2b068fc378daa952ba7f163c4a11628f55a4df523b3ef9060200160405180910390a3505050505050565b6020808252825182820181905260009190848201906040850190845b8181101561121a5783516001600160a01b0316835292840192918401916001016111f5565b50909695505050505050565b6000815180845260005b8181101561124c57602081850181015186830182015201611230565b8181111561125e576000602083870101525b50601f01601f19169290920160200192915050565b6020815260006107c36020830184611226565b6001600160a01b038116811461129b57600080fd5b50565b600080604083850312156112b157600080fd5b82356112bc81611286565b946020939093013593505050565b6000806000606084860312156112df57600080fd5b83356112ea81611286565b925060208401356112fa81611286565b929592945050506040919091013590565b634e487b7160e01b600052604160045260246000fd5b600082601f83011261133257600080fd5b813567ffffffffffffffff8082111561134d5761134d61130b565b604051601f8301601f19908116603f011681019082821181831017156113755761137561130b565b8160405283815286602085880101111561138e57600080fd5b836020870160208301376000602085830101528094505050505092915050565b600080600080600060a086880312156113c657600080fd5b85356113d181611286565b945060208601356113e181611286565b935060408601359250606086013567ffffffffffffffff8082111561140557600080fd5b61141189838a01611321565b9350608088013591508082111561142757600080fd5b5061143488828901611321565b9150509295509295909350565b60006020828403121561145357600080fd5b81356107c381611286565b60008060006060848603121561147357600080fd5b833561147e81611286565b925060208401359150604084013567ffffffffffffffff8111156114a157600080fd5b6114ad86828701611321565b9150509250925092565b600080604083850312156114ca57600080fd5b82356114d581611286565b915060208301356114e581611286565b809150509250929050565b6000806000806080858703121561150657600080fd5b843561151181611286565b935060208501359250604085013567ffffffffffffffff8082111561153557600080fd5b61154188838901611321565b9350606087013591508082111561155757600080fd5b5061156487828801611321565b91505092959194509250565b6000806040838503121561158357600080fd5b82359150602083013567ffffffffffffffff8111156115a157600080fd5b6115ad85828601611321565b9150509250929050565b600181811c908216806115cb57607f821691505b6020821081036115eb57634e487b7160e01b600052602260045260246000fd5b50919050565b60208082526024908201527f4552433737373a207472616e7366657220746f20746865207a65726f206164646040820152637265737360e01b606082015260800190565b6020808252602c908201527f4552433737373a2063616c6c6572206973206e6f7420616e206f70657261746f60408201526b39103337b9103437b63232b960a11b606082015260800190565b60006020828403121561169357600080fd5b81516107c381611286565b6001600160a01b0387811682528681166020830152851660408201526060810184905260c0608082018190526000906116d990830185611226565b82810360a08401526116eb8185611226565b9998505050505050505050565b634e487b7160e01b600052601160045260246000fd5b60008219821115611721576117216116f8565b500190565b83815260606020820152600061173f6060830185611226565b82810360408401526117518185611226565b9695505050505050565b60008282101561176d5761176d6116f8565b50039056fea26469706673582212207f57b3e41c4f1e9b397b19e6f4ef0e3c9adc9f79a1c17fac1eef8f77acb2ecc764736f6c634300080d0033",
  "immutableReferences": {},
  "source": "// SPDX-License-Identifier: MIT\n// OpenZeppelin Contracts (last updated v4.5.0) (token/ERC777/ERC777.sol)\n\npragma solidity ^0.8.0;\n\nimport \"./IERC777Upgradeable.sol\";\nimport \"./IERC777RecipientUpgradeable.sol\";\nimport \"./IERC777SenderUpgradeable.sol\";\nimport \"../ERC20/IERC20Upgradeable.sol\";\nimport \"../../utils/AddressUpgradeable.sol\";\nimport \"../../utils/ContextUpgradeable.sol\";\nimport \"../../utils/introspection/IERC1820RegistryUpgradeable.sol\";\nimport \"../../proxy/utils/Initializable.sol\";\n\n/**\n * @dev Implementation of the {IERC777} interface.\n *\n * This implementation is agnostic to the way tokens are created. This means\n * that a supply mechanism has to be added in a derived contract using {_mint}.\n *\n * Support for ERC20 is included in this contract, as specified by the EIP: both\n * the ERC777 and ERC20 interfaces can be safely used when interacting with it.\n * Both {IERC777-Sent} and {IERC20-Transfer} events are emitted on token\n * movements.\n *\n * Additionally, the {IERC777-granularity} value is hard-coded to `1`, meaning that there\n * are no special restrictions in the amount of tokens that created, moved, or\n * destroyed. This makes integration with ERC20 applications seamless.\n */\ncontract ERC777Upgradeable is Initializable, ContextUpgradeable, IERC777Upgradeable, IERC20Upgradeable {\n    using AddressUpgradeable for address;\n\n    IERC1820RegistryUpgradeable internal constant _ERC1820_REGISTRY = IERC1820RegistryUpgradeable(0x1820a4B7618BdE71Dce8cdc73aAB6C95905faD24);\n\n    mapping(address => uint256) private _balances;\n\n    uint256 private _totalSupply;\n\n    string private _name;\n    string private _symbol;\n\n    bytes32 private constant _TOKENS_SENDER_INTERFACE_HASH = keccak256(\"ERC777TokensSender\");\n    bytes32 private constant _TOKENS_RECIPIENT_INTERFACE_HASH = keccak256(\"ERC777TokensRecipient\");\n\n    // This isn't ever read from - it's only used to respond to the defaultOperators query.\n    address[] private _defaultOperatorsArray;\n\n    // Immutable, but accounts may revoke them (tracked in __revokedDefaultOperators).\n    mapping(address => bool) private _defaultOperators;\n\n    // For each account, a mapping of its operators and revoked default operators.\n    mapping(address => mapping(address => bool)) private _operators;\n    mapping(address => mapping(address => bool)) private _revokedDefaultOperators;\n\n    // ERC20-allowances\n    mapping(address => mapping(address => uint256)) private _allowances;\n\n    /**\n     * @dev `defaultOperators` may be an empty array.\n     */\n    function __ERC777_init(\n        string memory name_,\n        string memory symbol_,\n        address[] memory defaultOperators_\n    ) internal onlyInitializing {\n        __ERC777_init_unchained(name_, symbol_, defaultOperators_);\n    }\n\n    function __ERC777_init_unchained(\n        string memory name_,\n        string memory symbol_,\n        address[] memory defaultOperators_\n    ) internal onlyInitializing {\n        _name = name_;\n        _symbol = symbol_;\n\n        _defaultOperatorsArray = defaultOperators_;\n        for (uint256 i = 0; i < defaultOperators_.length; i++) {\n            _defaultOperators[defaultOperators_[i]] = true;\n        }\n\n        // register interfaces\n        _ERC1820_REGISTRY.setInterfaceImplementer(address(this), keccak256(\"ERC777Token\"), address(this));\n        _ERC1820_REGISTRY.setInterfaceImplementer(address(this), keccak256(\"ERC20Token\"), address(this));\n    }\n\n    /**\n     * @dev See {IERC777-name}.\n     */\n    function name() public view virtual override returns (string memory) {\n        return _name;\n    }\n\n    /**\n     * @dev See {IERC777-symbol}.\n     */\n    function symbol() public view virtual override returns (string memory) {\n        return _symbol;\n    }\n\n    /**\n     * @dev See {ERC20-decimals}.\n     *\n     * Always returns 18, as per the\n     * [ERC777 EIP](https://eips.ethereum.org/EIPS/eip-777#backward-compatibility).\n     */\n    function decimals() public pure virtual returns (uint8) {\n        return 18;\n    }\n\n    /**\n     * @dev See {IERC777-granularity}.\n     *\n     * This implementation always returns `1`.\n     */\n    function granularity() public view virtual override returns (uint256) {\n        return 1;\n    }\n\n    /**\n     * @dev See {IERC777-totalSupply}.\n     */\n    function totalSupply() public view virtual override(IERC20Upgradeable, IERC777Upgradeable) returns (uint256) {\n        return _totalSupply;\n    }\n\n    /**\n     * @dev Returns the amount of tokens owned by an account (`tokenHolder`).\n     */\n    function balanceOf(address tokenHolder) public view virtual override(IERC20Upgradeable, IERC777Upgradeable) returns (uint256) {\n        return _balances[tokenHolder];\n    }\n\n    /**\n     * @dev See {IERC777-send}.\n     *\n     * Also emits a {IERC20-Transfer} event for ERC20 compatibility.\n     */\n    function send(\n        address recipient,\n        uint256 amount,\n        bytes memory data\n    ) public virtual override {\n        _send(_msgSender(), recipient, amount, data, \"\", true);\n    }\n\n    /**\n     * @dev See {IERC20-transfer}.\n     *\n     * Unlike `send`, `recipient` is _not_ required to implement the {IERC777Recipient}\n     * interface if it is a contract.\n     *\n     * Also emits a {Sent} event.\n     */\n    function transfer(address recipient, uint256 amount) public virtual override returns (bool) {\n        require(recipient != address(0), \"ERC777: transfer to the zero address\");\n\n        address from = _msgSender();\n\n        _callTokensToSend(from, from, recipient, amount, \"\", \"\");\n\n        _move(from, from, recipient, amount, \"\", \"\");\n\n        _callTokensReceived(from, from, recipient, amount, \"\", \"\", false);\n\n        return true;\n    }\n\n    /**\n     * @dev See {IERC777-burn}.\n     *\n     * Also emits a {IERC20-Transfer} event for ERC20 compatibility.\n     */\n    function burn(uint256 amount, bytes memory data) public virtual override {\n        _burn(_msgSender(), amount, data, \"\");\n    }\n\n    /**\n     * @dev See {IERC777-isOperatorFor}.\n     */\n    function isOperatorFor(address operator, address tokenHolder) public view virtual override returns (bool) {\n        return\n            operator == tokenHolder ||\n            (_defaultOperators[operator] && !_revokedDefaultOperators[tokenHolder][operator]) ||\n            _operators[tokenHolder][operator];\n    }\n\n    /**\n     * @dev See {IERC777-authorizeOperator}.\n     */\n    function authorizeOperator(address operator) public virtual override {\n        require(_msgSender() != operator, \"ERC777: authorizing self as operator\");\n\n        if (_defaultOperators[operator]) {\n            delete _revokedDefaultOperators[_msgSender()][operator];\n        } else {\n            _operators[_msgSender()][operator] = true;\n        }\n\n        emit AuthorizedOperator(operator, _msgSender());\n    }\n\n    /**\n     * @dev See {IERC777-revokeOperator}.\n     */\n    function revokeOperator(address operator) public virtual override {\n        require(operator != _msgSender(), \"ERC777: revoking self as operator\");\n\n        if (_defaultOperators[operator]) {\n            _revokedDefaultOperators[_msgSender()][operator] = true;\n        } else {\n            delete _operators[_msgSender()][operator];\n        }\n\n        emit RevokedOperator(operator, _msgSender());\n    }\n\n    /**\n     * @dev See {IERC777-defaultOperators}.\n     */\n    function defaultOperators() public view virtual override returns (address[] memory) {\n        return _defaultOperatorsArray;\n    }\n\n    /**\n     * @dev See {IERC777-operatorSend}.\n     *\n     * Emits {Sent} and {IERC20-Transfer} events.\n     */\n    function operatorSend(\n        address sender,\n        address recipient,\n        uint256 amount,\n        bytes memory data,\n        bytes memory operatorData\n    ) public virtual override {\n        require(isOperatorFor(_msgSender(), sender), \"ERC777: caller is not an operator for holder\");\n        _send(sender, recipient, amount, data, operatorData, true);\n    }\n\n    /**\n     * @dev See {IERC777-operatorBurn}.\n     *\n     * Emits {Burned} and {IERC20-Transfer} events.\n     */\n    function operatorBurn(\n        address account,\n        uint256 amount,\n        bytes memory data,\n        bytes memory operatorData\n    ) public virtual override {\n        require(isOperatorFor(_msgSender(), account), \"ERC777: caller is not an operator for holder\");\n        _burn(account, amount, data, operatorData);\n    }\n\n    /**\n     * @dev See {IERC20-allowance}.\n     *\n     * Note that operator and allowance concepts are orthogonal: operators may\n     * not have allowance, and accounts with allowance may not be operators\n     * themselves.\n     */\n    function allowance(address holder, address spender) public view virtual override returns (uint256) {\n        return _allowances[holder][spender];\n    }\n\n    /**\n     * @dev See {IERC20-approve}.\n     *\n     * NOTE: If `value` is the maximum `uint256`, the allowance is not updated on\n     * `transferFrom`. This is semantically equivalent to an infinite approval.\n     *\n     * Note that accounts cannot have allowance issued by their operators.\n     */\n    function approve(address spender, uint256 value) public virtual override returns (bool) {\n        address holder = _msgSender();\n        _approve(holder, spender, value);\n        return true;\n    }\n\n    /**\n     * @dev See {IERC20-transferFrom}.\n     *\n     * NOTE: Does not update the allowance if the current allowance\n     * is the maximum `uint256`.\n     *\n     * Note that operator and allowance concepts are orthogonal: operators cannot\n     * call `transferFrom` (unless they have allowance), and accounts with\n     * allowance cannot call `operatorSend` (unless they are operators).\n     *\n     * Emits {Sent}, {IERC20-Transfer} and {IERC20-Approval} events.\n     */\n    function transferFrom(\n        address holder,\n        address recipient,\n        uint256 amount\n    ) public virtual override returns (bool) {\n        require(recipient != address(0), \"ERC777: transfer to the zero address\");\n        require(holder != address(0), \"ERC777: transfer from the zero address\");\n\n        address spender = _msgSender();\n\n        _callTokensToSend(spender, holder, recipient, amount, \"\", \"\");\n\n        _spendAllowance(holder, spender, amount);\n\n        _move(spender, holder, recipient, amount, \"\", \"\");\n\n        _callTokensReceived(spender, holder, recipient, amount, \"\", \"\", false);\n\n        return true;\n    }\n\n    /**\n     * @dev Creates `amount` tokens and assigns them to `account`, increasing\n     * the total supply.\n     *\n     * If a send hook is registered for `account`, the corresponding function\n     * will be called with `operator`, `data` and `operatorData`.\n     *\n     * See {IERC777Sender} and {IERC777Recipient}.\n     *\n     * Emits {Minted} and {IERC20-Transfer} events.\n     *\n     * Requirements\n     *\n     * - `account` cannot be the zero address.\n     * - if `account` is a contract, it must implement the {IERC777Recipient}\n     * interface.\n     */\n    function _mint(\n        address account,\n        uint256 amount,\n        bytes memory userData,\n        bytes memory operatorData\n    ) internal virtual {\n        _mint(account, amount, userData, operatorData, true);\n    }\n\n    /**\n     * @dev Creates `amount` tokens and assigns them to `account`, increasing\n     * the total supply.\n     *\n     * If `requireReceptionAck` is set to true, and if a send hook is\n     * registered for `account`, the corresponding function will be called with\n     * `operator`, `data` and `operatorData`.\n     *\n     * See {IERC777Sender} and {IERC777Recipient}.\n     *\n     * Emits {Minted} and {IERC20-Transfer} events.\n     *\n     * Requirements\n     *\n     * - `account` cannot be the zero address.\n     * - if `account` is a contract, it must implement the {IERC777Recipient}\n     * interface.\n     */\n    function _mint(\n        address account,\n        uint256 amount,\n        bytes memory userData,\n        bytes memory operatorData,\n        bool requireReceptionAck\n    ) internal virtual {\n        require(account != address(0), \"ERC777: mint to the zero address\");\n\n        address operator = _msgSender();\n\n        _beforeTokenTransfer(operator, address(0), account, amount);\n\n        // Update state variables\n        _totalSupply += amount;\n        _balances[account] += amount;\n\n        _callTokensReceived(operator, address(0), account, amount, userData, operatorData, requireReceptionAck);\n\n        emit Minted(operator, account, amount, userData, operatorData);\n        emit Transfer(address(0), account, amount);\n    }\n\n    /**\n     * @dev Send tokens\n     * @param from address token holder address\n     * @param to address recipient address\n     * @param amount uint256 amount of tokens to transfer\n     * @param userData bytes extra information provided by the token holder (if any)\n     * @param operatorData bytes extra information provided by the operator (if any)\n     * @param requireReceptionAck if true, contract recipients are required to implement ERC777TokensRecipient\n     */\n    function _send(\n        address from,\n        address to,\n        uint256 amount,\n        bytes memory userData,\n        bytes memory operatorData,\n        bool requireReceptionAck\n    ) internal virtual {\n        require(from != address(0), \"ERC777: send from the zero address\");\n        require(to != address(0), \"ERC777: send to the zero address\");\n\n        address operator = _msgSender();\n\n        _callTokensToSend(operator, from, to, amount, userData, operatorData);\n\n        _move(operator, from, to, amount, userData, operatorData);\n\n        _callTokensReceived(operator, from, to, amount, userData, operatorData, requireReceptionAck);\n    }\n\n    /**\n     * @dev Burn tokens\n     * @param from address token holder address\n     * @param amount uint256 amount of tokens to burn\n     * @param data bytes extra information provided by the token holder\n     * @param operatorData bytes extra information provided by the operator (if any)\n     */\n    function _burn(\n        address from,\n        uint256 amount,\n        bytes memory data,\n        bytes memory operatorData\n    ) internal virtual {\n        require(from != address(0), \"ERC777: burn from the zero address\");\n\n        address operator = _msgSender();\n\n        _callTokensToSend(operator, from, address(0), amount, data, operatorData);\n\n        _beforeTokenTransfer(operator, from, address(0), amount);\n\n        // Update state variables\n        uint256 fromBalance = _balances[from];\n        require(fromBalance >= amount, \"ERC777: burn amount exceeds balance\");\n        unchecked {\n            _balances[from] = fromBalance - amount;\n        }\n        _totalSupply -= amount;\n\n        emit Burned(operator, from, amount, data, operatorData);\n        emit Transfer(from, address(0), amount);\n    }\n\n    function _move(\n        address operator,\n        address from,\n        address to,\n        uint256 amount,\n        bytes memory userData,\n        bytes memory operatorData\n    ) private {\n        _beforeTokenTransfer(operator, from, to, amount);\n\n        uint256 fromBalance = _balances[from];\n        require(fromBalance >= amount, \"ERC777: transfer amount exceeds balance\");\n        unchecked {\n            _balances[from] = fromBalance - amount;\n        }\n        _balances[to] += amount;\n\n        emit Sent(operator, from, to, amount, userData, operatorData);\n        emit Transfer(from, to, amount);\n    }\n\n    /**\n     * @dev See {ERC20-_approve}.\n     *\n     * Note that accounts cannot have allowance issued by their operators.\n     */\n    function _approve(\n        address holder,\n        address spender,\n        uint256 value\n    ) internal virtual {\n        require(holder != address(0), \"ERC777: approve from the zero address\");\n        require(spender != address(0), \"ERC777: approve to the zero address\");\n\n        _allowances[holder][spender] = value;\n        emit Approval(holder, spender, value);\n    }\n\n    /**\n     * @dev Call from.tokensToSend() if the interface is registered\n     * @param operator address operator requesting the transfer\n     * @param from address token holder address\n     * @param to address recipient address\n     * @param amount uint256 amount of tokens to transfer\n     * @param userData bytes extra information provided by the token holder (if any)\n     * @param operatorData bytes extra information provided by the operator (if any)\n     */\n    function _callTokensToSend(\n        address operator,\n        address from,\n        address to,\n        uint256 amount,\n        bytes memory userData,\n        bytes memory operatorData\n    ) private {\n        address implementer = _ERC1820_REGISTRY.getInterfaceImplementer(from, _TOKENS_SENDER_INTERFACE_HASH);\n        if (implementer != address(0)) {\n            IERC777SenderUpgradeable(implementer).tokensToSend(operator, from, to, amount, userData, operatorData);\n        }\n    }\n\n    /**\n     * @dev Call to.tokensReceived() if the interface is registered. Reverts if the recipient is a contract but\n     * tokensReceived() was not registered for the recipient\n     * @param operator address operator requesting the transfer\n     * @param from address token holder address\n     * @param to address recipient address\n     * @param amount uint256 amount of tokens to transfer\n     * @param userData bytes extra information provided by the token holder (if any)\n     * @param operatorData bytes extra information provided by the operator (if any)\n     * @param requireReceptionAck if true, contract recipients are required to implement ERC777TokensRecipient\n     */\n    function _callTokensReceived(\n        address operator,\n        address from,\n        address to,\n        uint256 amount,\n        bytes memory userData,\n        bytes memory operatorData,\n        bool requireReceptionAck\n    ) private {\n        address implementer = _ERC1820_REGISTRY.getInterfaceImplementer(to, _TOKENS_RECIPIENT_INTERFACE_HASH);\n        if (implementer != address(0)) {\n            IERC777RecipientUpgradeable(implementer).tokensReceived(operator, from, to, amount, userData, operatorData);\n        } else if (requireReceptionAck) {\n            require(!to.isContract(), \"ERC777: token recipient contract has no implementer for ERC777TokensRecipient\");\n        }\n    }\n\n    /**\n     * @dev Spend `amount` form the allowance of `owner` toward `spender`.\n     *\n     * Does not update the allowance amount in case of infinite allowance.\n     * Revert if not enough allowance is available.\n     *\n     * Might emit an {Approval} event.\n     */\n    function _spendAllowance(\n        address owner,\n        address spender,\n        uint256 amount\n    ) internal virtual {\n        uint256 currentAllowance = allowance(owner, spender);\n        if (currentAllowance != type(uint256).max) {\n            require(currentAllowance >= amount, \"ERC777: insufficient allowance\");\n            unchecked {\n                _approve(owner, spender, currentAllowance - amount);\n            }\n        }\n    }\n\n    /**\n     * @dev Hook that is called before any token transfer. This includes\n     * calls to {send}, {transfer}, {operatorSend}, minting and burning.\n     *\n     * Calling conditions:\n     *\n     * - when `from` and `to` are both non-zero, `amount` of ``from``'s tokens\n     * will be to transferred to `to`.\n     * - when `from` is zero, `amount` tokens will be minted for `to`.\n     * - when `to` is zero, `amount` of ``from``'s tokens will be burned.\n     * - `from` and `to` are never both zero.\n     *\n     * To learn more about hooks, head to xref:ROOT:extending-contracts.adoc#using-hooks[Using Hooks].\n     */\n    function _beforeTokenTransfer(\n        address operator,\n        address from,\n        address to,\n        uint256 amount\n    ) internal virtual {}\n\n    /**\n     * @dev This empty reserved space is put in place to allow future versions to add new\n     * variables without shifting down storage in the inheritance chain.\n     * See https://docs.openzeppelin.com/contracts/4.x/upgradeable#storage_gaps\n     */\n    uint256[41] private __gap;\n}\n",
  "sourcePath": "@openzeppelin\\contracts-upgradeable\\token\\ERC777\\ERC777Upgradeable.sol",
  "compiler": {
    "name": "solc",
    "version": "0.8.13+commit.abaa5c0e.Emscripten.clang"
  },
  "schemaVersion": "3.4.3",
  "updatedAt": "2022-04-28T21:55:27.228Z",
  "devdoc": {
    "details": "Implementation of the {IERC777} interface. This implementation is agnostic to the way tokens are created. This means that a supply mechanism has to be added in a derived contract using {_mint}. Support for ERC20 is included in this contract, as specified by the EIP: both the ERC777 and ERC20 interfaces can be safely used when interacting with it. Both {IERC777-Sent} and {IERC20-Transfer} events are emitted on token movements. Additionally, the {IERC777-granularity} value is hard-coded to `1`, meaning that there are no special restrictions in the amount of tokens that created, moved, or destroyed. This makes integration with ERC20 applications seamless.",
    "kind": "dev",
    "methods": {
      "allowance(address,address)": {
        "details": "See {IERC20-allowance}. Note that operator and allowance concepts are orthogonal: operators may not have allowance, and accounts with allowance may not be operators themselves."
      },
      "approve(address,uint256)": {
        "details": "See {IERC20-approve}. NOTE: If `value` is the maximum `uint256`, the allowance is not updated on `transferFrom`. This is semantically equivalent to an infinite approval. Note that accounts cannot have allowance issued by their operators."
      },
      "authorizeOperator(address)": {
        "details": "See {IERC777-authorizeOperator}."
      },
      "balanceOf(address)": {
        "details": "Returns the amount of tokens owned by an account (`tokenHolder`)."
      },
      "burn(uint256,bytes)": {
        "details": "See {IERC777-burn}. Also emits a {IERC20-Transfer} event for ERC20 compatibility."
      },
      "decimals()": {
        "details": "See {ERC20-decimals}. Always returns 18, as per the [ERC777 EIP](https://eips.ethereum.org/EIPS/eip-777#backward-compatibility)."
      },
      "defaultOperators()": {
        "details": "See {IERC777-defaultOperators}."
      },
      "granularity()": {
        "details": "See {IERC777-granularity}. This implementation always returns `1`."
      },
      "isOperatorFor(address,address)": {
        "details": "See {IERC777-isOperatorFor}."
      },
      "name()": {
        "details": "See {IERC777-name}."
      },
      "operatorBurn(address,uint256,bytes,bytes)": {
        "details": "See {IERC777-operatorBurn}. Emits {Burned} and {IERC20-Transfer} events."
      },
      "operatorSend(address,address,uint256,bytes,bytes)": {
        "details": "See {IERC777-operatorSend}. Emits {Sent} and {IERC20-Transfer} events."
      },
      "revokeOperator(address)": {
        "details": "See {IERC777-revokeOperator}."
      },
      "send(address,uint256,bytes)": {
        "details": "See {IERC777-send}. Also emits a {IERC20-Transfer} event for ERC20 compatibility."
      },
      "symbol()": {
        "details": "See {IERC777-symbol}."
      },
      "totalSupply()": {
        "details": "See {IERC777-totalSupply}."
      },
      "transfer(address,uint256)": {
        "details": "See {IERC20-transfer}. Unlike `send`, `recipient` is _not_ required to implement the {IERC777Recipient} interface if it is a contract. Also emits a {Sent} event."
      },
      "transferFrom(address,address,uint256)": {
        "details": "See {IERC20-transferFrom}. NOTE: Does not update the allowance if the current allowance is the maximum `uint256`. Note that operator and allowance concepts are orthogonal: operators cannot call `transferFrom` (unless they have allowance), and accounts with allowance cannot call `operatorSend` (unless they are operators). Emits {Sent}, {IERC20-Transfer} and {IERC20-Approval} events."
      }
    },
    "stateVariables": {
      "__gap": {
        "details": "This empty reserved space is put in place to allow future versions to add new variables without shifting down storage in the inheritance chain. See https://docs.openzeppelin.com/contracts/4.x/upgradeable#storage_gaps"
      }
    },
    "version": 1
  },
  "userdoc": {
    "kind": "user",
    "methods": {},
    "version": 1
  }
}