{
  "contractName": "ERC777PresetFixedSupplyUpgradeable",
  "abi": [
    {
      "anonymous": false,
      "inputs": [
        {
          "indexed": true,
          "internalType": "address",
          "name": "owner",
          "type": "address"
        },
        {
          "indexed": true,
          "internalType": "address",
          "name": "spender",
          "type": "address"
        },
        {
          "indexed": false,
          "internalType": "uint256",
          "name": "value",
          "type": "uint256"
        }
      ],
      "name": "Approval",
      "type": "event"
    },
    {
      "anonymous": false,
      "inputs": [
        {
          "indexed": true,
          "internalType": "address",
          "name": "operator",
          "type": "address"
        },
        {
          "indexed": true,
          "internalType": "address",
          "name": "tokenHolder",
          "type": "address"
        }
      ],
      "name": "AuthorizedOperator",
      "type": "event"
    },
    {
      "anonymous": false,
      "inputs": [
        {
          "indexed": true,
          "internalType": "address",
          "name": "operator",
          "type": "address"
        },
        {
          "indexed": true,
          "internalType": "address",
          "name": "from",
          "type": "address"
        },
        {
          "indexed": false,
          "internalType": "uint256",
          "name": "amount",
          "type": "uint256"
        },
        {
          "indexed": false,
          "internalType": "bytes",
          "name": "data",
          "type": "bytes"
        },
        {
          "indexed": false,
          "internalType": "bytes",
          "name": "operatorData",
          "type": "bytes"
        }
      ],
      "name": "Burned",
      "type": "event"
    },
    {
      "anonymous": false,
      "inputs": [
        {
          "indexed": false,
          "internalType": "uint8",
          "name": "version",
          "type": "uint8"
        }
      ],
      "name": "Initialized",
      "type": "event"
    },
    {
      "anonymous": false,
      "inputs": [
        {
          "indexed": true,
          "internalType": "address",
          "name": "operator",
          "type": "address"
        },
        {
          "indexed": true,
          "internalType": "address",
          "name": "to",
          "type": "address"
        },
        {
          "indexed": false,
          "internalType": "uint256",
          "name": "amount",
          "type": "uint256"
        },
        {
          "indexed": false,
          "internalType": "bytes",
          "name": "data",
          "type": "bytes"
        },
        {
          "indexed": false,
          "internalType": "bytes",
          "name": "operatorData",
          "type": "bytes"
        }
      ],
      "name": "Minted",
      "type": "event"
    },
    {
      "anonymous": false,
      "inputs": [
        {
          "indexed": true,
          "internalType": "address",
          "name": "operator",
          "type": "address"
        },
        {
          "indexed": true,
          "internalType": "address",
          "name": "tokenHolder",
          "type": "address"
        }
      ],
      "name": "RevokedOperator",
      "type": "event"
    },
    {
      "anonymous": false,
      "inputs": [
        {
          "indexed": true,
          "internalType": "address",
          "name": "operator",
          "type": "address"
        },
        {
          "indexed": true,
          "internalType": "address",
          "name": "from",
          "type": "address"
        },
        {
          "indexed": true,
          "internalType": "address",
          "name": "to",
          "type": "address"
        },
        {
          "indexed": false,
          "internalType": "uint256",
          "name": "amount",
          "type": "uint256"
        },
        {
          "indexed": false,
          "internalType": "bytes",
          "name": "data",
          "type": "bytes"
        },
        {
          "indexed": false,
          "internalType": "bytes",
          "name": "operatorData",
          "type": "bytes"
        }
      ],
      "name": "Sent",
      "type": "event"
    },
    {
      "anonymous": false,
      "inputs": [
        {
          "indexed": true,
          "internalType": "address",
          "name": "from",
          "type": "address"
        },
        {
          "indexed": true,
          "internalType": "address",
          "name": "to",
          "type": "address"
        },
        {
          "indexed": false,
          "internalType": "uint256",
          "name": "value",
          "type": "uint256"
        }
      ],
      "name": "Transfer",
      "type": "event"
    },
    {
      "inputs": [
        {
          "internalType": "address",
          "name": "holder",
          "type": "address"
        },
        {
          "internalType": "address",
          "name": "spender",
          "type": "address"
        }
      ],
      "name": "allowance",
      "outputs": [
        {
          "internalType": "uint256",
          "name": "",
          "type": "uint256"
        }
      ],
      "stateMutability": "view",
      "type": "function"
    },
    {
      "inputs": [
        {
          "internalType": "address",
          "name": "spender",
          "type": "address"
        },
        {
          "internalType": "uint256",
          "name": "value",
          "type": "uint256"
        }
      ],
      "name": "approve",
      "outputs": [
        {
          "internalType": "bool",
          "name": "",
          "type": "bool"
        }
      ],
      "stateMutability": "nonpayable",
      "type": "function"
    },
    {
      "inputs": [
        {
          "internalType": "address",
          "name": "operator",
          "type": "address"
        }
      ],
      "name": "authorizeOperator",
      "outputs": [],
      "stateMutability": "nonpayable",
      "type": "function"
    },
    {
      "inputs": [
        {
          "internalType": "address",
          "name": "tokenHolder",
          "type": "address"
        }
      ],
      "name": "balanceOf",
      "outputs": [
        {
          "internalType": "uint256",
          "name": "",
          "type": "uint256"
        }
      ],
      "stateMutability": "view",
      "type": "function"
    },
    {
      "inputs": [
        {
          "internalType": "uint256",
          "name": "amount",
          "type": "uint256"
        },
        {
          "internalType": "bytes",
          "name": "data",
          "type": "bytes"
        }
      ],
      "name": "burn",
      "outputs": [],
      "stateMutability": "nonpayable",
      "type": "function"
    },
    {
      "inputs": [],
      "name": "decimals",
      "outputs": [
        {
          "internalType": "uint8",
          "name": "",
          "type": "uint8"
        }
      ],
      "stateMutability": "pure",
      "type": "function"
    },
    {
      "inputs": [],
      "name": "defaultOperators",
      "outputs": [
        {
          "internalType": "address[]",
          "name": "",
          "type": "address[]"
        }
      ],
      "stateMutability": "view",
      "type": "function"
    },
    {
      "inputs": [],
      "name": "granularity",
      "outputs": [
        {
          "internalType": "uint256",
          "name": "",
          "type": "uint256"
        }
      ],
      "stateMutability": "view",
      "type": "function"
    },
    {
      "inputs": [
        {
          "internalType": "address",
          "name": "operator",
          "type": "address"
        },
        {
          "internalType": "address",
          "name": "tokenHolder",
          "type": "address"
        }
      ],
      "name": "isOperatorFor",
      "outputs": [
        {
          "internalType": "bool",
          "name": "",
          "type": "bool"
        }
      ],
      "stateMutability": "view",
      "type": "function"
    },
    {
      "inputs": [],
      "name": "name",
      "outputs": [
        {
          "internalType": "string",
          "name": "",
          "type": "string"
        }
      ],
      "stateMutability": "view",
      "type": "function"
    },
    {
      "inputs": [
        {
          "internalType": "address",
          "name": "account",
          "type": "address"
        },
        {
          "internalType": "uint256",
          "name": "amount",
          "type": "uint256"
        },
        {
          "internalType": "bytes",
          "name": "data",
          "type": "bytes"
        },
        {
          "internalType": "bytes",
          "name": "operatorData",
          "type": "bytes"
        }
      ],
      "name": "operatorBurn",
      "outputs": [],
      "stateMutability": "nonpayable",
      "type": "function"
    },
    {
      "inputs": [
        {
          "internalType": "address",
          "name": "sender",
          "type": "address"
        },
        {
          "internalType": "address",
          "name": "recipient",
          "type": "address"
        },
        {
          "internalType": "uint256",
          "name": "amount",
          "type": "uint256"
        },
        {
          "internalType": "bytes",
          "name": "data",
          "type": "bytes"
        },
        {
          "internalType": "bytes",
          "name": "operatorData",
          "type": "bytes"
        }
      ],
      "name": "operatorSend",
      "outputs": [],
      "stateMutability": "nonpayable",
      "type": "function"
    },
    {
      "inputs": [
        {
          "internalType": "address",
          "name": "operator",
          "type": "address"
        }
      ],
      "name": "revokeOperator",
      "outputs": [],
      "stateMutability": "nonpayable",
      "type": "function"
    },
    {
      "inputs": [
        {
          "internalType": "address",
          "name": "recipient",
          "type": "address"
        },
        {
          "internalType": "uint256",
          "name": "amount",
          "type": "uint256"
        },
        {
          "internalType": "bytes",
          "name": "data",
          "type": "bytes"
        }
      ],
      "name": "send",
      "outputs": [],
      "stateMutability": "nonpayable",
      "type": "function"
    },
    {
      "inputs": [],
      "name": "symbol",
      "outputs": [
        {
          "internalType": "string",
          "name": "",
          "type": "string"
        }
      ],
      "stateMutability": "view",
      "type": "function"
    },
    {
      "inputs": [],
      "name": "totalSupply",
      "outputs": [
        {
          "internalType": "uint256",
          "name": "",
          "type": "uint256"
        }
      ],
      "stateMutability": "view",
      "type": "function"
    },
    {
      "inputs": [
        {
          "internalType": "address",
          "name": "recipient",
          "type": "address"
        },
        {
          "internalType": "uint256",
          "name": "amount",
          "type": "uint256"
        }
      ],
      "name": "transfer",
      "outputs": [
        {
          "internalType": "bool",
          "name": "",
          "type": "bool"
        }
      ],
      "stateMutability": "nonpayable",
      "type": "function"
    },
    {
      "inputs": [
        {
          "internalType": "address",
          "name": "holder",
          "type": "address"
        },
        {
          "internalType": "address",
          "name": "recipient",
          "type": "address"
        },
        {
          "internalType": "uint256",
          "name": "amount",
          "type": "uint256"
        }
      ],
      "name": "transferFrom",
      "outputs": [
        {
          "internalType": "bool",
          "name": "",
          "type": "bool"
        }
      ],
      "stateMutability": "nonpayable",
      "type": "function"
    },
    {
      "inputs": [
        {
          "internalType": "string",
          "name": "name",
          "type": "string"
        },
        {
          "internalType": "string",
          "name": "symbol",
          "type": "string"
        },
        {
          "internalType": "address[]",
          "name": "defaultOperators",
          "type": "address[]"
        },
        {
          "internalType": "uint256",
          "name": "initialSupply",
          "type": "uint256"
        },
        {
          "internalType": "address",
          "name": "owner",
          "type": "address"
        }
      ],
      "name": "initialize",
      "outputs": [],
      "stateMutability": "nonpayable",
      "type": "function"
    }
  ],
  "bytecode": "0x608060405234801561001057600080fd5b50611de7806100206000396000f3fe608060405234801561001057600080fd5b50600436106101215760003560e01c8063768f950a116100ad578063d95b637111610071578063d95b637114610249578063dd62ed3e1461025c578063fad8b32a14610295578063fc673c4f146102a8578063fe9d9303146102bb57600080fd5b8063768f950a146101f5578063959b8c3f1461020857806395d89b411461021b5780639bd9bbc614610223578063a9059cbb1461023657600080fd5b806323b872dd116100f457806323b872dd1461018e578063313ce567146101a1578063556f0dc7146101b057806362ad1b83146101b757806370a08231146101cc57600080fd5b806306e485381461012657806306fdde0314610144578063095ea7b31461015957806318160ddd1461017c575b600080fd5b61012e6102ce565b60405161013b9190611662565b60405180910390f35b61014c610330565b60405161013b91906116fc565b61016c610167366004611732565b6103b9565b604051901515815260200161013b565b6034545b60405190815260200161013b565b61016c61019c36600461175e565b6103d1565b6040516012815260200161013b565b6001610180565b6101ca6101c5366004611856565b610417565b005b6101806101da3660046118e9565b6001600160a01b031660009081526033602052604090205490565b6101ca610203366004611906565b61045c565b6101ca6102163660046118e9565b6104db565b61014c6105f8565b6101ca610231366004611a19565b610607565b61016c610244366004611732565b61062a565b61016c610257366004611a72565b610662565b61018061026a366004611a72565b6001600160a01b039182166000908152603b6020908152604080832093909416825291909152205490565b6101ca6102a33660046118e9565b610704565b6101ca6102b6366004611aab565b61081f565b6101ca6102c9366004611b2b565b610857565b6060603780548060200260200160405190810160405280929190818152602001828054801561032657602002820191906000526020600020905b81546001600160a01b03168152600190910190602001808311610308575b5050505050905090565b60606035805461033f90611b72565b80601f016020809104026020016040519081016040528092919081815260200182805461036b90611b72565b80156103265780601f1061038d57610100808354040283529160200191610326565b820191906000526020600020905b81548152906001019060200180831161039b57509395945050505050565b6000336103c7818585610876565b5060019392505050565b6000336103df85828561099d565b61040c85858560405180602001604052806000815250604051806020016040528060008152506000610a29565b506001949350505050565b6104213386610662565b6104465760405162461bcd60e51b815260040161043d90611bac565b60405180910390fd5b61045585858585856001610a29565b5050505050565b60006104686001610b25565b90508015610480576000805461ff0019166101001790555b61048d8686868686610bb2565b80156104d3576000805461ff0019169055604051600181527f7f26b83ff96e1f2b6a682f133852f6798a09c465da95921460cefb38474024989060200160405180910390a15b505050505050565b6001600160a01b038116330361053f5760405162461bcd60e51b8152602060048201526024808201527f4552433737373a20617574686f72697a696e672073656c66206173206f70657260448201526330ba37b960e11b606482015260840161043d565b6001600160a01b03811660009081526038602052604090205460ff161561059057336000908152603a602090815260408083206001600160a01b03851684529091529020805460ff191690556105bf565b3360009081526039602090815260408083206001600160a01b03851684529091529020805460ff191660011790555b60405133906001600160a01b038316907ff4caeb2d6ca8932a215a353d0703c326ec2d81fc68170f320eb2ab49e9df61f990600090a350565b60606036805461033f90611b72565b61062533848484604051806020016040528060008152506001610a29565b505050565b600061065933848460405180602001604052806000815250604051806020016040528060008152506000610a29565b50600192915050565b6000816001600160a01b0316836001600160a01b031614806106cd57506001600160a01b03831660009081526038602052604090205460ff1680156106cd57506001600160a01b038083166000908152603a602090815260408083209387168352929052205460ff16155b806106fd57506001600160a01b0380831660009081526039602090815260408083209387168352929052205460ff165b9392505050565b336001600160a01b038216036107665760405162461bcd60e51b815260206004820152602160248201527f4552433737373a207265766f6b696e672073656c66206173206f70657261746f6044820152603960f91b606482015260840161043d565b6001600160a01b03811660009081526038602052604090205460ff16156107ba57336000908152603a602090815260408083206001600160a01b03851684529091529020805460ff191660011790556107e6565b3360009081526039602090815260408083206001600160a01b03851684529091529020805460ff191690555b60405133906001600160a01b038316907f50546e66e5f44d728365dc3908c63bc5cfeeab470722c1677e3073a6ac294aa190600090a350565b6108293385610662565b6108455760405162461bcd60e51b815260040161043d90611bac565b61085184848484610bf1565b50505050565b61087233838360405180602001604052806000815250610bf1565b5050565b6001600160a01b0383166108da5760405162461bcd60e51b815260206004820152602560248201527f4552433737373a20617070726f76652066726f6d20746865207a65726f206164604482015264647265737360d81b606482015260840161043d565b6001600160a01b03821661093c5760405162461bcd60e51b815260206004820152602360248201527f4552433737373a20617070726f766520746f20746865207a65726f206164647260448201526265737360e81b606482015260840161043d565b6001600160a01b038381166000818152603b602090815260408083209487168084529482529182902085905590518481527f8c5be1e5ebec7d5bd14f71427d1e84f3dd0314c0f7b2291e5b200ac8c7c3b925910160405180910390a3505050565b6001600160a01b038381166000908152603b602090815260408083209386168352929052205460001981146108515781811015610a1c5760405162461bcd60e51b815260206004820152601e60248201527f4552433737373a20696e73756666696369656e7420616c6c6f77616e63650000604482015260640161043d565b6108518484848403610876565b6001600160a01b038616610a8e5760405162461bcd60e51b815260206004820152602660248201527f4552433737373a207472616e736665722066726f6d20746865207a65726f206160448201526564647265737360d01b606482015260840161043d565b6001600160a01b038516610af05760405162461bcd60e51b8152602060048201526024808201527f4552433737373a207472616e7366657220746f20746865207a65726f206164646044820152637265737360e01b606482015260840161043d565b33610aff818888888888610da6565b610b0d818888888888610ecd565b610b1c81888888888888611033565b50505050505050565b60008054610100900460ff1615610b6c578160ff166001148015610b485750303b155b610b645760405162461bcd60e51b815260040161043d90611bf8565b506000919050565b60005460ff808416911610610b935760405162461bcd60e51b815260040161043d90611bf8565b506000805460ff191660ff92909216919091179055600190565b919050565b600054610100900460ff16610bd95760405162461bcd60e51b815260040161043d90611c46565b610be48585856111f8565b61045585858585856113e2565b6001600160a01b038416610c525760405162461bcd60e51b815260206004820152602260248201527f4552433737373a206275726e2066726f6d20746865207a65726f206164647265604482015261737360f01b606482015260840161043d565b33610c6281866000878787610da6565b6001600160a01b03851660009081526033602052604090205484811015610cd75760405162461bcd60e51b815260206004820152602360248201527f4552433737373a206275726e20616d6f756e7420657863656564732062616c616044820152626e636560e81b606482015260840161043d565b6001600160a01b0386166000908152603360205260408120868303905560348054879290610d06908490611ca7565b92505081905550856001600160a01b0316826001600160a01b03167fa78a9be3a7b862d26933ad85fb11d80ef66b8f972d7cbba06621d583943a4098878787604051610d5493929190611cbe565b60405180910390a36040518581526000906001600160a01b038816907fddf252ad1be2c89b69c2b068fc378daa952ba7f163c4a11628f55a4df523b3ef906020015b60405180910390a3505050505050565b60405163555ddc6560e11b81526001600160a01b03861660048201527f29ddb589b1fb5fc7cf394961c1adf5f8c6454761adf795e67fe149f658abe8956024820152600090731820a4b7618bde71dce8cdc73aab6c95905fad249063aabbb8ca90604401602060405180830381865afa158015610e27573d6000803e3d6000fd5b505050506040513d601f19601f82011682018060405250810190610e4b9190611cf3565b90506001600160a01b03811615610b1c57604051633ad5cbc160e11b81526001600160a01b038216906375ab978290610e92908a908a908a908a908a908a90600401611d10565b600060405180830381600087803b158015610eac57600080fd5b505af1158015610ec0573d6000803e3d6000fd5b5050505050505050505050565b6001600160a01b03851660009081526033602052604090205483811015610f465760405162461bcd60e51b815260206004820152602760248201527f4552433737373a207472616e7366657220616d6f756e7420657863656564732060448201526662616c616e636560c81b606482015260840161043d565b6001600160a01b03808716600090815260336020526040808220878503905591871681529081208054869290610f7d908490611d6a565b92505081905550846001600160a01b0316866001600160a01b0316886001600160a01b03167f06b541ddaa720db2b10a4d0cdac39b8d360425fc073085fac19bc82614677987878787604051610fd593929190611cbe565b60405180910390a4846001600160a01b0316866001600160a01b03167fddf252ad1be2c89b69c2b068fc378daa952ba7f163c4a11628f55a4df523b3ef8660405161102291815260200190565b60405180910390a350505050505050565b60405163555ddc6560e11b81526001600160a01b03861660048201527fb281fc8c12954d22544db45de3159a39272895b169a852b314f9cc762e44c53b6024820152600090731820a4b7618bde71dce8cdc73aab6c95905fad249063aabbb8ca90604401602060405180830381865afa1580156110b4573d6000803e3d6000fd5b505050506040513d601f19601f820116820180604052508101906110d89190611cf3565b90506001600160a01b03811615611154576040516223de2960e01b81526001600160a01b038216906223de299061111d908b908b908b908b908b908b90600401611d10565b600060405180830381600087803b15801561113757600080fd5b505af115801561114b573d6000803e3d6000fd5b505050506111ee565b81156111ee576001600160a01b0386163b156111ee5760405162461bcd60e51b815260206004820152604d60248201527f4552433737373a20746f6b656e20726563697069656e7420636f6e747261637460448201527f20686173206e6f20696d706c656d656e74657220666f7220455243373737546f60648201526c1ad95b9cd49958da5c1a595b9d609a1b608482015260a40161043d565b5050505050505050565b600054610100900460ff1661121f5760405162461bcd60e51b815260040161043d90611c46565b8251611232906035906020860190611574565b508151611246906036906020850190611574565b50805161125a9060379060208401906115f8565b5060005b81518110156112c35760016038600084848151811061127f5761127f611d82565b6020908102919091018101516001600160a01b03168252810191909152604001600020805460ff1916911515919091179055806112bb81611d98565b91505061125e565b506040516329965a1d60e01b815230600482018190527fac7fbab5f54a3ca8194167523c6753bfeb96a445279294b6125b68cce217705460248301526044820152731820a4b7618bde71dce8cdc73aab6c95905fad24906329965a1d90606401600060405180830381600087803b15801561133d57600080fd5b505af1158015611351573d6000803e3d6000fd5b50506040516329965a1d60e01b815230600482018190527faea199e31a596269b42cdafd93407f14436db6e4cad65417994c2eb37381e05a60248301526044820152731820a4b7618bde71dce8cdc73aab6c95905fad2492506329965a1d9150606401600060405180830381600087803b1580156113ce57600080fd5b505af1158015610b1c573d6000803e3d6000fd5b600054610100900460ff166114095760405162461bcd60e51b815260040161043d90611c46565b610455818360405180602001604052806000815250604051806020016040528060008152506108518484848460016001600160a01b03851661148d5760405162461bcd60e51b815260206004820181905260248201527f4552433737373a206d696e7420746f20746865207a65726f2061646472657373604482015260640161043d565b600033905084603460008282546114a49190611d6a565b90915550506001600160a01b038616600090815260336020526040812080548792906114d1908490611d6a565b909155506114e790508160008888888888611033565b856001600160a01b0316816001600160a01b03167f2fe5be0146f74c5bce36c0b80911af6c7d86ff27e89d5cfa61fc681327954e5d87878760405161152e93929190611cbe565b60405180910390a36040518581526001600160a01b038716906000907fddf252ad1be2c89b69c2b068fc378daa952ba7f163c4a11628f55a4df523b3ef90602001610d96565b82805461158090611b72565b90600052602060002090601f0160209004810192826115a257600085556115e8565b82601f106115bb57805160ff19168380011785556115e8565b828001600101855582156115e8579182015b828111156115e85782518255916020019190600101906115cd565b506115f492915061164d565b5090565b8280548282559060005260206000209081019282156115e8579160200282015b828111156115e857825182546001600160a01b0319166001600160a01b03909116178255602090920191600190910190611618565b5b808211156115f4576000815560010161164e565b6020808252825182820181905260009190848201906040850190845b818110156116a35783516001600160a01b03168352928401929184019160010161167e565b50909695505050505050565b6000815180845260005b818110156116d5576020818501810151868301820152016116b9565b818111156116e7576000602083870101525b50601f01601f19169290920160200192915050565b6020815260006106fd60208301846116af565b6001600160a01b038116811461172457600080fd5b50565b8035610bad8161170f565b6000806040838503121561174557600080fd5b82356117508161170f565b946020939093013593505050565b60008060006060848603121561177357600080fd5b833561177e8161170f565b9250602084013561178e8161170f565b929592945050506040919091013590565b634e487b7160e01b600052604160045260246000fd5b604051601f8201601f1916810167ffffffffffffffff811182821017156117de576117de61179f565b604052919050565b600082601f8301126117f757600080fd5b813567ffffffffffffffff8111156118115761181161179f565b611824601f8201601f19166020016117b5565b81815284602083860101111561183957600080fd5b816020850160208301376000918101602001919091529392505050565b600080600080600060a0868803121561186e57600080fd5b85356118798161170f565b945060208601356118898161170f565b935060408601359250606086013567ffffffffffffffff808211156118ad57600080fd5b6118b989838a016117e6565b935060808801359150808211156118cf57600080fd5b506118dc888289016117e6565b9150509295509295909350565b6000602082840312156118fb57600080fd5b81356106fd8161170f565b600080600080600060a0868803121561191e57600080fd5b853567ffffffffffffffff8082111561193657600080fd5b61194289838a016117e6565b965060209150818801358181111561195957600080fd5b6119658a828b016117e6565b96505060408801358181111561197a57600080fd5b8801601f81018a1361198b57600080fd5b80358281111561199d5761199d61179f565b8060051b92506119ae8484016117b5565b818152928201840192848101908c8511156119c857600080fd5b928501925b848410156119f257833592506119e28361170f565b82825292850192908501906119cd565b975050505060608801359350611a0d91505060808701611727565b90509295509295909350565b600080600060608486031215611a2e57600080fd5b8335611a398161170f565b925060208401359150604084013567ffffffffffffffff811115611a5c57600080fd5b611a68868287016117e6565b9150509250925092565b60008060408385031215611a8557600080fd5b8235611a908161170f565b91506020830135611aa08161170f565b809150509250929050565b60008060008060808587031215611ac157600080fd5b8435611acc8161170f565b935060208501359250604085013567ffffffffffffffff80821115611af057600080fd5b611afc888389016117e6565b93506060870135915080821115611b1257600080fd5b50611b1f878288016117e6565b91505092959194509250565b60008060408385031215611b3e57600080fd5b82359150602083013567ffffffffffffffff811115611b5c57600080fd5b611b68858286016117e6565b9150509250929050565b600181811c90821680611b8657607f821691505b602082108103611ba657634e487b7160e01b600052602260045260246000fd5b50919050565b6020808252602c908201527f4552433737373a2063616c6c6572206973206e6f7420616e206f70657261746f60408201526b39103337b9103437b63232b960a11b606082015260800190565b6020808252602e908201527f496e697469616c697a61626c653a20636f6e747261637420697320616c72656160408201526d191e481a5b9a5d1a585b1a5e995960921b606082015260800190565b6020808252602b908201527f496e697469616c697a61626c653a20636f6e7472616374206973206e6f74206960408201526a6e697469616c697a696e6760a81b606082015260800190565b634e487b7160e01b600052601160045260246000fd5b600082821015611cb957611cb9611c91565b500390565b838152606060208201526000611cd760608301856116af565b8281036040840152611ce981856116af565b9695505050505050565b600060208284031215611d0557600080fd5b81516106fd8161170f565b6001600160a01b0387811682528681166020830152851660408201526060810184905260c060808201819052600090611d4b908301856116af565b82810360a0840152611d5d81856116af565b9998505050505050505050565b60008219821115611d7d57611d7d611c91565b500190565b634e487b7160e01b600052603260045260246000fd5b600060018201611daa57611daa611c91565b506001019056fea2646970667358221220da53f7f1edf2fd1bfb70f3b9e2b4120bbbb332eb9979ec16fc21ee3d3d8ac5c264736f6c634300080e0033",
  "immutableReferences": {},
  "source": "// SPDX-License-Identifier: MIT\n// OpenZeppelin Contracts v4.4.1 (token/ERC777/presets/ERC777PresetFixedSupply.sol)\npragma solidity ^0.8.0;\n\nimport \"../ERC777Upgradeable.sol\";\nimport \"../../../proxy/utils/Initializable.sol\";\n\n/**\n * @dev {ERC777} token, including:\n *\n *  - Preminted initial supply\n *  - No access control mechanism (for minting/pausing) and hence no governance\n *\n * _Available since v3.4._\n */\ncontract ERC777PresetFixedSupplyUpgradeable is Initializable, ERC777Upgradeable {\n    function initialize(\n        string memory name,\n        string memory symbol,\n        address[] memory defaultOperators,\n        uint256 initialSupply,\n        address owner\n    ) public virtual initializer {\n        __ERC777PresetFixedSupply_init(name, symbol, defaultOperators, initialSupply, owner);\n    }\n    /**\n     * @dev Mints `initialSupply` amount of token and transfers them to `owner`.\n     *\n     * See {ERC777-constructor}.\n     */\n    function __ERC777PresetFixedSupply_init(\n        string memory name,\n        string memory symbol,\n        address[] memory defaultOperators,\n        uint256 initialSupply,\n        address owner\n    ) internal onlyInitializing {\n        __ERC777_init_unchained(name, symbol, defaultOperators);\n        __ERC777PresetFixedSupply_init_unchained(name, symbol, defaultOperators, initialSupply, owner);\n    }\n\n    function __ERC777PresetFixedSupply_init_unchained(\n        string memory,\n        string memory,\n        address[] memory,\n        uint256 initialSupply,\n        address owner\n    ) internal onlyInitializing {\n        _mint(owner, initialSupply, \"\", \"\");\n    }\n\n    /**\n     * @dev This empty reserved space is put in place to allow future versions to add new\n     * variables without shifting down storage in the inheritance chain.\n     * See https://docs.openzeppelin.com/contracts/4.x/upgradeable#storage_gaps\n     */\n    uint256[50] private __gap;\n}\n",
  "sourcePath": "@openzeppelin\\contracts-upgradeable\\token\\ERC777\\presets\\ERC777PresetFixedSupplyUpgradeable.sol",
  "compiler": {
    "name": "solc",
    "version": "0.8.14+commit.80d49f37.Emscripten.clang"
  },
  "schemaVersion": "3.4.7",
  "updatedAt": "2022-05-22T21:58:15.895Z",
  "devdoc": {
    "details": "{ERC777} token, including:  - Preminted initial supply  - No access control mechanism (for minting/pausing) and hence no governance _Available since v3.4._",
    "kind": "dev",
    "methods": {
      "allowance(address,address)": {
        "details": "See {IERC20-allowance}. Note that operator and allowance concepts are orthogonal: operators may not have allowance, and accounts with allowance may not be operators themselves."
      },
      "approve(address,uint256)": {
        "details": "See {IERC20-approve}. NOTE: If `value` is the maximum `uint256`, the allowance is not updated on `transferFrom`. This is semantically equivalent to an infinite approval. Note that accounts cannot have allowance issued by their operators."
      },
      "authorizeOperator(address)": {
        "details": "See {IERC777-authorizeOperator}."
      },
      "balanceOf(address)": {
        "details": "Returns the amount of tokens owned by an account (`tokenHolder`)."
      },
      "burn(uint256,bytes)": {
        "details": "See {IERC777-burn}. Also emits a {IERC20-Transfer} event for ERC20 compatibility."
      },
      "decimals()": {
        "details": "See {ERC20-decimals}. Always returns 18, as per the [ERC777 EIP](https://eips.ethereum.org/EIPS/eip-777#backward-compatibility)."
      },
      "defaultOperators()": {
        "details": "See {IERC777-defaultOperators}."
      },
      "granularity()": {
        "details": "See {IERC777-granularity}. This implementation always returns `1`."
      },
      "isOperatorFor(address,address)": {
        "details": "See {IERC777-isOperatorFor}."
      },
      "name()": {
        "details": "See {IERC777-name}."
      },
      "operatorBurn(address,uint256,bytes,bytes)": {
        "details": "See {IERC777-operatorBurn}. Emits {Burned} and {IERC20-Transfer} events."
      },
      "operatorSend(address,address,uint256,bytes,bytes)": {
        "details": "See {IERC777-operatorSend}. Emits {Sent} and {IERC20-Transfer} events."
      },
      "revokeOperator(address)": {
        "details": "See {IERC777-revokeOperator}."
      },
      "send(address,uint256,bytes)": {
        "details": "See {IERC777-send}. Also emits a {IERC20-Transfer} event for ERC20 compatibility."
      },
      "symbol()": {
        "details": "See {IERC777-symbol}."
      },
      "totalSupply()": {
        "details": "See {IERC777-totalSupply}."
      },
      "transfer(address,uint256)": {
        "details": "See {IERC20-transfer}. Unlike `send`, `recipient` is _not_ required to implement the {IERC777Recipient} interface if it is a contract. Also emits a {Sent} event."
      },
      "transferFrom(address,address,uint256)": {
        "details": "See {IERC20-transferFrom}. NOTE: Does not update the allowance if the current allowance is the maximum `uint256`. Note that operator and allowance concepts are orthogonal: operators cannot call `transferFrom` (unless they have allowance), and accounts with allowance cannot call `operatorSend` (unless they are operators). Emits {Sent}, {IERC20-Transfer} and {IERC20-Approval} events."
      }
    },
    "stateVariables": {
      "__gap": {
        "details": "This empty reserved space is put in place to allow future versions to add new variables without shifting down storage in the inheritance chain. See https://docs.openzeppelin.com/contracts/4.x/upgradeable#storage_gaps"
      }
    },
    "version": 1
  },
  "userdoc": {
    "kind": "user",
    "methods": {},
    "version": 1
  }
}