{
  "contractName": "ERC777PresetFixedSupplyUpgradeable",
  "abi": [
    {
      "anonymous": false,
      "inputs": [
        {
          "indexed": true,
          "internalType": "address",
          "name": "owner",
          "type": "address"
        },
        {
          "indexed": true,
          "internalType": "address",
          "name": "spender",
          "type": "address"
        },
        {
          "indexed": false,
          "internalType": "uint256",
          "name": "value",
          "type": "uint256"
        }
      ],
      "name": "Approval",
      "type": "event"
    },
    {
      "anonymous": false,
      "inputs": [
        {
          "indexed": true,
          "internalType": "address",
          "name": "operator",
          "type": "address"
        },
        {
          "indexed": true,
          "internalType": "address",
          "name": "tokenHolder",
          "type": "address"
        }
      ],
      "name": "AuthorizedOperator",
      "type": "event"
    },
    {
      "anonymous": false,
      "inputs": [
        {
          "indexed": true,
          "internalType": "address",
          "name": "operator",
          "type": "address"
        },
        {
          "indexed": true,
          "internalType": "address",
          "name": "from",
          "type": "address"
        },
        {
          "indexed": false,
          "internalType": "uint256",
          "name": "amount",
          "type": "uint256"
        },
        {
          "indexed": false,
          "internalType": "bytes",
          "name": "data",
          "type": "bytes"
        },
        {
          "indexed": false,
          "internalType": "bytes",
          "name": "operatorData",
          "type": "bytes"
        }
      ],
      "name": "Burned",
      "type": "event"
    },
    {
      "anonymous": false,
      "inputs": [
        {
          "indexed": true,
          "internalType": "address",
          "name": "operator",
          "type": "address"
        },
        {
          "indexed": true,
          "internalType": "address",
          "name": "to",
          "type": "address"
        },
        {
          "indexed": false,
          "internalType": "uint256",
          "name": "amount",
          "type": "uint256"
        },
        {
          "indexed": false,
          "internalType": "bytes",
          "name": "data",
          "type": "bytes"
        },
        {
          "indexed": false,
          "internalType": "bytes",
          "name": "operatorData",
          "type": "bytes"
        }
      ],
      "name": "Minted",
      "type": "event"
    },
    {
      "anonymous": false,
      "inputs": [
        {
          "indexed": true,
          "internalType": "address",
          "name": "operator",
          "type": "address"
        },
        {
          "indexed": true,
          "internalType": "address",
          "name": "tokenHolder",
          "type": "address"
        }
      ],
      "name": "RevokedOperator",
      "type": "event"
    },
    {
      "anonymous": false,
      "inputs": [
        {
          "indexed": true,
          "internalType": "address",
          "name": "operator",
          "type": "address"
        },
        {
          "indexed": true,
          "internalType": "address",
          "name": "from",
          "type": "address"
        },
        {
          "indexed": true,
          "internalType": "address",
          "name": "to",
          "type": "address"
        },
        {
          "indexed": false,
          "internalType": "uint256",
          "name": "amount",
          "type": "uint256"
        },
        {
          "indexed": false,
          "internalType": "bytes",
          "name": "data",
          "type": "bytes"
        },
        {
          "indexed": false,
          "internalType": "bytes",
          "name": "operatorData",
          "type": "bytes"
        }
      ],
      "name": "Sent",
      "type": "event"
    },
    {
      "anonymous": false,
      "inputs": [
        {
          "indexed": true,
          "internalType": "address",
          "name": "from",
          "type": "address"
        },
        {
          "indexed": true,
          "internalType": "address",
          "name": "to",
          "type": "address"
        },
        {
          "indexed": false,
          "internalType": "uint256",
          "name": "value",
          "type": "uint256"
        }
      ],
      "name": "Transfer",
      "type": "event"
    },
    {
      "inputs": [
        {
          "internalType": "address",
          "name": "holder",
          "type": "address"
        },
        {
          "internalType": "address",
          "name": "spender",
          "type": "address"
        }
      ],
      "name": "allowance",
      "outputs": [
        {
          "internalType": "uint256",
          "name": "",
          "type": "uint256"
        }
      ],
      "stateMutability": "view",
      "type": "function"
    },
    {
      "inputs": [
        {
          "internalType": "address",
          "name": "spender",
          "type": "address"
        },
        {
          "internalType": "uint256",
          "name": "value",
          "type": "uint256"
        }
      ],
      "name": "approve",
      "outputs": [
        {
          "internalType": "bool",
          "name": "",
          "type": "bool"
        }
      ],
      "stateMutability": "nonpayable",
      "type": "function"
    },
    {
      "inputs": [
        {
          "internalType": "address",
          "name": "operator",
          "type": "address"
        }
      ],
      "name": "authorizeOperator",
      "outputs": [],
      "stateMutability": "nonpayable",
      "type": "function"
    },
    {
      "inputs": [
        {
          "internalType": "address",
          "name": "tokenHolder",
          "type": "address"
        }
      ],
      "name": "balanceOf",
      "outputs": [
        {
          "internalType": "uint256",
          "name": "",
          "type": "uint256"
        }
      ],
      "stateMutability": "view",
      "type": "function"
    },
    {
      "inputs": [
        {
          "internalType": "uint256",
          "name": "amount",
          "type": "uint256"
        },
        {
          "internalType": "bytes",
          "name": "data",
          "type": "bytes"
        }
      ],
      "name": "burn",
      "outputs": [],
      "stateMutability": "nonpayable",
      "type": "function"
    },
    {
      "inputs": [],
      "name": "decimals",
      "outputs": [
        {
          "internalType": "uint8",
          "name": "",
          "type": "uint8"
        }
      ],
      "stateMutability": "pure",
      "type": "function"
    },
    {
      "inputs": [],
      "name": "defaultOperators",
      "outputs": [
        {
          "internalType": "address[]",
          "name": "",
          "type": "address[]"
        }
      ],
      "stateMutability": "view",
      "type": "function"
    },
    {
      "inputs": [],
      "name": "granularity",
      "outputs": [
        {
          "internalType": "uint256",
          "name": "",
          "type": "uint256"
        }
      ],
      "stateMutability": "view",
      "type": "function"
    },
    {
      "inputs": [
        {
          "internalType": "address",
          "name": "operator",
          "type": "address"
        },
        {
          "internalType": "address",
          "name": "tokenHolder",
          "type": "address"
        }
      ],
      "name": "isOperatorFor",
      "outputs": [
        {
          "internalType": "bool",
          "name": "",
          "type": "bool"
        }
      ],
      "stateMutability": "view",
      "type": "function"
    },
    {
      "inputs": [],
      "name": "name",
      "outputs": [
        {
          "internalType": "string",
          "name": "",
          "type": "string"
        }
      ],
      "stateMutability": "view",
      "type": "function"
    },
    {
      "inputs": [
        {
          "internalType": "address",
          "name": "account",
          "type": "address"
        },
        {
          "internalType": "uint256",
          "name": "amount",
          "type": "uint256"
        },
        {
          "internalType": "bytes",
          "name": "data",
          "type": "bytes"
        },
        {
          "internalType": "bytes",
          "name": "operatorData",
          "type": "bytes"
        }
      ],
      "name": "operatorBurn",
      "outputs": [],
      "stateMutability": "nonpayable",
      "type": "function"
    },
    {
      "inputs": [
        {
          "internalType": "address",
          "name": "sender",
          "type": "address"
        },
        {
          "internalType": "address",
          "name": "recipient",
          "type": "address"
        },
        {
          "internalType": "uint256",
          "name": "amount",
          "type": "uint256"
        },
        {
          "internalType": "bytes",
          "name": "data",
          "type": "bytes"
        },
        {
          "internalType": "bytes",
          "name": "operatorData",
          "type": "bytes"
        }
      ],
      "name": "operatorSend",
      "outputs": [],
      "stateMutability": "nonpayable",
      "type": "function"
    },
    {
      "inputs": [
        {
          "internalType": "address",
          "name": "operator",
          "type": "address"
        }
      ],
      "name": "revokeOperator",
      "outputs": [],
      "stateMutability": "nonpayable",
      "type": "function"
    },
    {
      "inputs": [
        {
          "internalType": "address",
          "name": "recipient",
          "type": "address"
        },
        {
          "internalType": "uint256",
          "name": "amount",
          "type": "uint256"
        },
        {
          "internalType": "bytes",
          "name": "data",
          "type": "bytes"
        }
      ],
      "name": "send",
      "outputs": [],
      "stateMutability": "nonpayable",
      "type": "function"
    },
    {
      "inputs": [],
      "name": "symbol",
      "outputs": [
        {
          "internalType": "string",
          "name": "",
          "type": "string"
        }
      ],
      "stateMutability": "view",
      "type": "function"
    },
    {
      "inputs": [],
      "name": "totalSupply",
      "outputs": [
        {
          "internalType": "uint256",
          "name": "",
          "type": "uint256"
        }
      ],
      "stateMutability": "view",
      "type": "function"
    },
    {
      "inputs": [
        {
          "internalType": "address",
          "name": "recipient",
          "type": "address"
        },
        {
          "internalType": "uint256",
          "name": "amount",
          "type": "uint256"
        }
      ],
      "name": "transfer",
      "outputs": [
        {
          "internalType": "bool",
          "name": "",
          "type": "bool"
        }
      ],
      "stateMutability": "nonpayable",
      "type": "function"
    },
    {
      "inputs": [
        {
          "internalType": "address",
          "name": "holder",
          "type": "address"
        },
        {
          "internalType": "address",
          "name": "recipient",
          "type": "address"
        },
        {
          "internalType": "uint256",
          "name": "amount",
          "type": "uint256"
        }
      ],
      "name": "transferFrom",
      "outputs": [
        {
          "internalType": "bool",
          "name": "",
          "type": "bool"
        }
      ],
      "stateMutability": "nonpayable",
      "type": "function"
    },
    {
      "inputs": [
        {
          "internalType": "string",
          "name": "name",
          "type": "string"
        },
        {
          "internalType": "string",
          "name": "symbol",
          "type": "string"
        },
        {
          "internalType": "address[]",
          "name": "defaultOperators",
          "type": "address[]"
        },
        {
          "internalType": "uint256",
          "name": "initialSupply",
          "type": "uint256"
        },
        {
          "internalType": "address",
          "name": "owner",
          "type": "address"
        }
      ],
      "name": "initialize",
      "outputs": [],
      "stateMutability": "nonpayable",
      "type": "function"
    }
  ],
  "bytecode": "0x608060405234801561001057600080fd5b50611eec806100206000396000f3fe608060405234801561001057600080fd5b50600436106101215760003560e01c8063768f950a116100ad578063d95b637111610071578063d95b637114610249578063dd62ed3e1461025c578063fad8b32a14610295578063fc673c4f146102a8578063fe9d9303146102bb57600080fd5b8063768f950a146101f5578063959b8c3f1461020857806395d89b411461021b5780639bd9bbc614610223578063a9059cbb1461023657600080fd5b806323b872dd116100f457806323b872dd1461018e578063313ce567146101a1578063556f0dc7146101b057806362ad1b83146101b757806370a08231146101cc57600080fd5b806306e485381461012657806306fdde0314610144578063095ea7b31461015957806318160ddd1461017c575b600080fd5b61012e6102ce565b60405161013b919061176c565b60405180910390f35b61014c610330565b60405161013b9190611806565b61016c610167366004611841565b6103b9565b604051901515815260200161013b565b6034545b60405190815260200161013b565b61016c61019c36600461186d565b6103d1565b6040516012815260200161013b565b6001610180565b6101ca6101c5366004611965565b610508565b005b6101806101da3660046119f8565b6001600160a01b031660009081526033602052604090205490565b6101ca610203366004611a15565b610544565b6101ca6102163660046119f8565b61060f565b61014c61072c565b6101ca610231366004611b28565b61073b565b61016c610244366004611841565b61075e565b61016c610257366004611b81565b610811565b61018061026a366004611b81565b6001600160a01b039182166000908152603b6020908152604080832093909416825291909152205490565b6101ca6102a33660046119f8565b6108b3565b6101ca6102b6366004611bba565b6109ce565b6101ca6102c9366004611c3a565b610a06565b6060603780548060200260200160405190810160405280929190818152602001828054801561032657602002820191906000526020600020905b81546001600160a01b03168152600190910190602001808311610308575b5050505050905090565b60606035805461033f90611c81565b80601f016020809104026020016040519081016040528092919081815260200182805461036b90611c81565b80156103265780601f1061038d57610100808354040283529160200191610326565b820191906000526020600020905b81548152906001019060200180831161039b57509395945050505050565b6000336103c7818585610a25565b5060019392505050565b60006001600160a01b0383166104025760405162461bcd60e51b81526004016103f990611cbb565b60405180910390fd5b6001600160a01b0384166104675760405162461bcd60e51b815260206004820152602660248201527f4552433737373a207472616e736665722066726f6d20746865207a65726f206160448201526564647265737360d01b60648201526084016103f9565b6000339050610498818686866040518060200160405280600081525060405180602001604052806000815250610b4c565b6104a3858285610c74565b6104cf818686866040518060200160405280600081525060405180602001604052806000815250610d00565b6104fd8186868660405180602001604052806000815250604051806020016040528060008152506000610e66565b506001949350505050565b6105123386610811565b61052e5760405162461bcd60e51b81526004016103f990611cff565b61053d8585858585600161102b565b5050505050565b600054610100900460ff1661055f5760005460ff1615610563565b303b155b6105c65760405162461bcd60e51b815260206004820152602e60248201527f496e697469616c697a61626c653a20636f6e747261637420697320616c72656160448201526d191e481a5b9a5d1a585b1a5e995960921b60648201526084016103f9565b600054610100900460ff161580156105e8576000805461ffff19166101011790555b6105f5868686868661110e565b8015610607576000805461ff00191690555b505050505050565b6001600160a01b03811633036106735760405162461bcd60e51b8152602060048201526024808201527f4552433737373a20617574686f72697a696e672073656c66206173206f70657260448201526330ba37b960e11b60648201526084016103f9565b6001600160a01b03811660009081526038602052604090205460ff16156106c457336000908152603a602090815260408083206001600160a01b03851684529091529020805460ff191690556106f3565b3360009081526039602090815260408083206001600160a01b03851684529091529020805460ff191660011790555b60405133906001600160a01b038316907ff4caeb2d6ca8932a215a353d0703c326ec2d81fc68170f320eb2ab49e9df61f990600090a350565b60606036805461033f90611c81565b6107593384848460405180602001604052806000815250600161102b565b505050565b60006001600160a01b0383166107865760405162461bcd60e51b81526004016103f990611cbb565b60003390506107b7818286866040518060200160405280600081525060405180602001604052806000815250610b4c565b6107e3818286866040518060200160405280600081525060405180602001604052806000815250610d00565b6103c78182868660405180602001604052806000815250604051806020016040528060008152506000610e66565b6000816001600160a01b0316836001600160a01b0316148061087c57506001600160a01b03831660009081526038602052604090205460ff16801561087c57506001600160a01b038083166000908152603a602090815260408083209387168352929052205460ff16155b806108ac57506001600160a01b0380831660009081526039602090815260408083209387168352929052205460ff165b9392505050565b336001600160a01b038216036109155760405162461bcd60e51b815260206004820152602160248201527f4552433737373a207265766f6b696e672073656c66206173206f70657261746f6044820152603960f91b60648201526084016103f9565b6001600160a01b03811660009081526038602052604090205460ff161561096957336000908152603a602090815260408083206001600160a01b03851684529091529020805460ff19166001179055610995565b3360009081526039602090815260408083206001600160a01b03851684529091529020805460ff191690555b60405133906001600160a01b038316907f50546e66e5f44d728365dc3908c63bc5cfeeab470722c1677e3073a6ac294aa190600090a350565b6109d83385610811565b6109f45760405162461bcd60e51b81526004016103f990611cff565b610a008484848461114d565b50505050565b610a213383836040518060200160405280600081525061114d565b5050565b6001600160a01b038316610a895760405162461bcd60e51b815260206004820152602560248201527f4552433737373a20617070726f76652066726f6d20746865207a65726f206164604482015264647265737360d81b60648201526084016103f9565b6001600160a01b038216610aeb5760405162461bcd60e51b815260206004820152602360248201527f4552433737373a20617070726f766520746f20746865207a65726f206164647260448201526265737360e81b60648201526084016103f9565b6001600160a01b038381166000818152603b602090815260408083209487168084529482529182902085905590518481527f8c5be1e5ebec7d5bd14f71427d1e84f3dd0314c0f7b2291e5b200ac8c7c3b925910160405180910390a3505050565b60405163555ddc6560e11b81526001600160a01b03861660048201527f29ddb589b1fb5fc7cf394961c1adf5f8c6454761adf795e67fe149f658abe8956024820152600090731820a4b7618bde71dce8cdc73aab6c95905fad249063aabbb8ca90604401602060405180830381865afa158015610bcd573d6000803e3d6000fd5b505050506040513d601f19601f82011682018060405250810190610bf19190611d4b565b90506001600160a01b03811615610c6b57604051633ad5cbc160e11b81526001600160a01b038216906375ab978290610c38908a908a908a908a908a908a90600401611d68565b600060405180830381600087803b158015610c5257600080fd5b505af1158015610c66573d6000803e3d6000fd5b505050505b50505050505050565b6001600160a01b038381166000908152603b60209081526040808320938616835292905220546000198114610a005781811015610cf35760405162461bcd60e51b815260206004820152601e60248201527f4552433737373a20696e73756666696369656e7420616c6c6f77616e6365000060448201526064016103f9565b610a008484848403610a25565b6001600160a01b03851660009081526033602052604090205483811015610d795760405162461bcd60e51b815260206004820152602760248201527f4552433737373a207472616e7366657220616d6f756e7420657863656564732060448201526662616c616e636560c81b60648201526084016103f9565b6001600160a01b03808716600090815260336020526040808220878503905591871681529081208054869290610db0908490611dd8565b92505081905550846001600160a01b0316866001600160a01b0316886001600160a01b03167f06b541ddaa720db2b10a4d0cdac39b8d360425fc073085fac19bc82614677987878787604051610e0893929190611df0565b60405180910390a4846001600160a01b0316866001600160a01b03167fddf252ad1be2c89b69c2b068fc378daa952ba7f163c4a11628f55a4df523b3ef86604051610e5591815260200190565b60405180910390a350505050505050565b60405163555ddc6560e11b81526001600160a01b03861660048201527fb281fc8c12954d22544db45de3159a39272895b169a852b314f9cc762e44c53b6024820152600090731820a4b7618bde71dce8cdc73aab6c95905fad249063aabbb8ca90604401602060405180830381865afa158015610ee7573d6000803e3d6000fd5b505050506040513d601f19601f82011682018060405250810190610f0b9190611d4b565b90506001600160a01b03811615610f87576040516223de2960e01b81526001600160a01b038216906223de2990610f50908b908b908b908b908b908b90600401611d68565b600060405180830381600087803b158015610f6a57600080fd5b505af1158015610f7e573d6000803e3d6000fd5b50505050611021565b8115611021576001600160a01b0386163b156110215760405162461bcd60e51b815260206004820152604d60248201527f4552433737373a20746f6b656e20726563697069656e7420636f6e747261637460448201527f20686173206e6f20696d706c656d656e74657220666f7220455243373737546f60648201526c1ad95b9cd49958da5c1a595b9d609a1b608482015260a4016103f9565b5050505050505050565b6001600160a01b03861661108c5760405162461bcd60e51b815260206004820152602260248201527f4552433737373a2073656e642066726f6d20746865207a65726f206164647265604482015261737360f01b60648201526084016103f9565b6001600160a01b0385166110e25760405162461bcd60e51b815260206004820181905260248201527f4552433737373a2073656e6420746f20746865207a65726f206164647265737360448201526064016103f9565b336110f1818888888888610b4c565b6110ff818888888888610d00565b610c6b81888888888888610e66565b600054610100900460ff166111355760405162461bcd60e51b81526004016103f990611e25565b611140858585611302565b61053d85858585856114ec565b6001600160a01b0384166111ae5760405162461bcd60e51b815260206004820152602260248201527f4552433737373a206275726e2066726f6d20746865207a65726f206164647265604482015261737360f01b60648201526084016103f9565b336111be81866000878787610b4c565b6001600160a01b038516600090815260336020526040902054848110156112335760405162461bcd60e51b815260206004820152602360248201527f4552433737373a206275726e20616d6f756e7420657863656564732062616c616044820152626e636560e81b60648201526084016103f9565b6001600160a01b0386166000908152603360205260408120868303905560348054879290611262908490611e70565b92505081905550856001600160a01b0316826001600160a01b03167fa78a9be3a7b862d26933ad85fb11d80ef66b8f972d7cbba06621d583943a40988787876040516112b093929190611df0565b60405180910390a36040518581526000906001600160a01b038816907fddf252ad1be2c89b69c2b068fc378daa952ba7f163c4a11628f55a4df523b3ef906020015b60405180910390a3505050505050565b600054610100900460ff166113295760405162461bcd60e51b81526004016103f990611e25565b825161133c90603590602086019061167e565b50815161135090603690602085019061167e565b508051611364906037906020840190611702565b5060005b81518110156113cd5760016038600084848151811061138957611389611e87565b6020908102919091018101516001600160a01b03168252810191909152604001600020805460ff1916911515919091179055806113c581611e9d565b915050611368565b506040516329965a1d60e01b815230600482018190527fac7fbab5f54a3ca8194167523c6753bfeb96a445279294b6125b68cce217705460248301526044820152731820a4b7618bde71dce8cdc73aab6c95905fad24906329965a1d90606401600060405180830381600087803b15801561144757600080fd5b505af115801561145b573d6000803e3d6000fd5b50506040516329965a1d60e01b815230600482018190527faea199e31a596269b42cdafd93407f14436db6e4cad65417994c2eb37381e05a60248301526044820152731820a4b7618bde71dce8cdc73aab6c95905fad2492506329965a1d9150606401600060405180830381600087803b1580156114d857600080fd5b505af1158015610c6b573d6000803e3d6000fd5b600054610100900460ff166115135760405162461bcd60e51b81526004016103f990611e25565b61053d81836040518060200160405280600081525060405180602001604052806000815250610a008484848460016001600160a01b0385166115975760405162461bcd60e51b815260206004820181905260248201527f4552433737373a206d696e7420746f20746865207a65726f206164647265737360448201526064016103f9565b600033905084603460008282546115ae9190611dd8565b90915550506001600160a01b038616600090815260336020526040812080548792906115db908490611dd8565b909155506115f190508160008888888888610e66565b856001600160a01b0316816001600160a01b03167f2fe5be0146f74c5bce36c0b80911af6c7d86ff27e89d5cfa61fc681327954e5d87878760405161163893929190611df0565b60405180910390a36040518581526001600160a01b038716906000907fddf252ad1be2c89b69c2b068fc378daa952ba7f163c4a11628f55a4df523b3ef906020016112f2565b82805461168a90611c81565b90600052602060002090601f0160209004810192826116ac57600085556116f2565b82601f106116c557805160ff19168380011785556116f2565b828001600101855582156116f2579182015b828111156116f25782518255916020019190600101906116d7565b506116fe929150611757565b5090565b8280548282559060005260206000209081019282156116f2579160200282015b828111156116f257825182546001600160a01b0319166001600160a01b03909116178255602090920191600190910190611722565b5b808211156116fe5760008155600101611758565b6020808252825182820181905260009190848201906040850190845b818110156117ad5783516001600160a01b031683529284019291840191600101611788565b50909695505050505050565b6000815180845260005b818110156117df576020818501810151868301820152016117c3565b818111156117f1576000602083870101525b50601f01601f19169290920160200192915050565b6020815260006108ac60208301846117b9565b6001600160a01b038116811461182e57600080fd5b50565b803561183c81611819565b919050565b6000806040838503121561185457600080fd5b823561185f81611819565b946020939093013593505050565b60008060006060848603121561188257600080fd5b833561188d81611819565b9250602084013561189d81611819565b929592945050506040919091013590565b634e487b7160e01b600052604160045260246000fd5b604051601f8201601f1916810167ffffffffffffffff811182821017156118ed576118ed6118ae565b604052919050565b600082601f83011261190657600080fd5b813567ffffffffffffffff811115611920576119206118ae565b611933601f8201601f19166020016118c4565b81815284602083860101111561194857600080fd5b816020850160208301376000918101602001919091529392505050565b600080600080600060a0868803121561197d57600080fd5b853561198881611819565b9450602086013561199881611819565b935060408601359250606086013567ffffffffffffffff808211156119bc57600080fd5b6119c889838a016118f5565b935060808801359150808211156119de57600080fd5b506119eb888289016118f5565b9150509295509295909350565b600060208284031215611a0a57600080fd5b81356108ac81611819565b600080600080600060a08688031215611a2d57600080fd5b853567ffffffffffffffff80821115611a4557600080fd5b611a5189838a016118f5565b9650602091508188013581811115611a6857600080fd5b611a748a828b016118f5565b965050604088013581811115611a8957600080fd5b8801601f81018a13611a9a57600080fd5b803582811115611aac57611aac6118ae565b8060051b9250611abd8484016118c4565b818152928201840192848101908c851115611ad757600080fd5b928501925b84841015611b015783359250611af183611819565b8282529285019290850190611adc565b975050505060608801359350611b1c91505060808701611831565b90509295509295909350565b600080600060608486031215611b3d57600080fd5b8335611b4881611819565b925060208401359150604084013567ffffffffffffffff811115611b6b57600080fd5b611b77868287016118f5565b9150509250925092565b60008060408385031215611b9457600080fd5b8235611b9f81611819565b91506020830135611baf81611819565b809150509250929050565b60008060008060808587031215611bd057600080fd5b8435611bdb81611819565b935060208501359250604085013567ffffffffffffffff80821115611bff57600080fd5b611c0b888389016118f5565b93506060870135915080821115611c2157600080fd5b50611c2e878288016118f5565b91505092959194509250565b60008060408385031215611c4d57600080fd5b82359150602083013567ffffffffffffffff811115611c6b57600080fd5b611c77858286016118f5565b9150509250929050565b600181811c90821680611c9557607f821691505b602082108103611cb557634e487b7160e01b600052602260045260246000fd5b50919050565b60208082526024908201527f4552433737373a207472616e7366657220746f20746865207a65726f206164646040820152637265737360e01b606082015260800190565b6020808252602c908201527f4552433737373a2063616c6c6572206973206e6f7420616e206f70657261746f60408201526b39103337b9103437b63232b960a11b606082015260800190565b600060208284031215611d5d57600080fd5b81516108ac81611819565b6001600160a01b0387811682528681166020830152851660408201526060810184905260c060808201819052600090611da3908301856117b9565b82810360a0840152611db581856117b9565b9998505050505050505050565b634e487b7160e01b600052601160045260246000fd5b60008219821115611deb57611deb611dc2565b500190565b838152606060208201526000611e0960608301856117b9565b8281036040840152611e1b81856117b9565b9695505050505050565b6020808252602b908201527f496e697469616c697a61626c653a20636f6e7472616374206973206e6f74206960408201526a6e697469616c697a696e6760a81b606082015260800190565b600082821015611e8257611e82611dc2565b500390565b634e487b7160e01b600052603260045260246000fd5b600060018201611eaf57611eaf611dc2565b506001019056fea2646970667358221220722b7b21bbd2860269caac07d1e12742a460fce7f9d3fb09956fb452513d4c0a64736f6c634300080d0033",
  "immutableReferences": {},
  "source": "// SPDX-License-Identifier: MIT\n// OpenZeppelin Contracts v4.4.1 (token/ERC777/presets/ERC777PresetFixedSupply.sol)\npragma solidity ^0.8.0;\n\nimport \"../ERC777Upgradeable.sol\";\nimport \"../../../proxy/utils/Initializable.sol\";\n\n/**\n * @dev {ERC777} token, including:\n *\n *  - Preminted initial supply\n *  - No access control mechanism (for minting/pausing) and hence no governance\n *\n * _Available since v3.4._\n */\ncontract ERC777PresetFixedSupplyUpgradeable is Initializable, ERC777Upgradeable {\n    function initialize(\n        string memory name,\n        string memory symbol,\n        address[] memory defaultOperators,\n        uint256 initialSupply,\n        address owner\n    ) public virtual initializer {\n        __ERC777PresetFixedSupply_init(name, symbol, defaultOperators, initialSupply, owner);\n    }\n    /**\n     * @dev Mints `initialSupply` amount of token and transfers them to `owner`.\n     *\n     * See {ERC777-constructor}.\n     */\n    function __ERC777PresetFixedSupply_init(\n        string memory name,\n        string memory symbol,\n        address[] memory defaultOperators,\n        uint256 initialSupply,\n        address owner\n    ) internal onlyInitializing {\n        __ERC777_init_unchained(name, symbol, defaultOperators);\n        __ERC777PresetFixedSupply_init_unchained(name, symbol, defaultOperators, initialSupply, owner);\n    }\n\n    function __ERC777PresetFixedSupply_init_unchained(\n        string memory,\n        string memory,\n        address[] memory,\n        uint256 initialSupply,\n        address owner\n    ) internal onlyInitializing {\n        _mint(owner, initialSupply, \"\", \"\");\n    }\n\n    /**\n     * @dev This empty reserved space is put in place to allow future versions to add new\n     * variables without shifting down storage in the inheritance chain.\n     * See https://docs.openzeppelin.com/contracts/4.x/upgradeable#storage_gaps\n     */\n    uint256[50] private __gap;\n}\n",
  "sourcePath": "@openzeppelin\\contracts-upgradeable\\token\\ERC777\\presets\\ERC777PresetFixedSupplyUpgradeable.sol",
  "compiler": {
    "name": "solc",
    "version": "0.8.13+commit.abaa5c0e.Emscripten.clang"
  },
  "schemaVersion": "3.4.3",
  "updatedAt": "2022-04-28T21:55:27.254Z",
  "devdoc": {
    "details": "{ERC777} token, including:  - Preminted initial supply  - No access control mechanism (for minting/pausing) and hence no governance _Available since v3.4._",
    "kind": "dev",
    "methods": {
      "allowance(address,address)": {
        "details": "See {IERC20-allowance}. Note that operator and allowance concepts are orthogonal: operators may not have allowance, and accounts with allowance may not be operators themselves."
      },
      "approve(address,uint256)": {
        "details": "See {IERC20-approve}. NOTE: If `value` is the maximum `uint256`, the allowance is not updated on `transferFrom`. This is semantically equivalent to an infinite approval. Note that accounts cannot have allowance issued by their operators."
      },
      "authorizeOperator(address)": {
        "details": "See {IERC777-authorizeOperator}."
      },
      "balanceOf(address)": {
        "details": "Returns the amount of tokens owned by an account (`tokenHolder`)."
      },
      "burn(uint256,bytes)": {
        "details": "See {IERC777-burn}. Also emits a {IERC20-Transfer} event for ERC20 compatibility."
      },
      "decimals()": {
        "details": "See {ERC20-decimals}. Always returns 18, as per the [ERC777 EIP](https://eips.ethereum.org/EIPS/eip-777#backward-compatibility)."
      },
      "defaultOperators()": {
        "details": "See {IERC777-defaultOperators}."
      },
      "granularity()": {
        "details": "See {IERC777-granularity}. This implementation always returns `1`."
      },
      "isOperatorFor(address,address)": {
        "details": "See {IERC777-isOperatorFor}."
      },
      "name()": {
        "details": "See {IERC777-name}."
      },
      "operatorBurn(address,uint256,bytes,bytes)": {
        "details": "See {IERC777-operatorBurn}. Emits {Burned} and {IERC20-Transfer} events."
      },
      "operatorSend(address,address,uint256,bytes,bytes)": {
        "details": "See {IERC777-operatorSend}. Emits {Sent} and {IERC20-Transfer} events."
      },
      "revokeOperator(address)": {
        "details": "See {IERC777-revokeOperator}."
      },
      "send(address,uint256,bytes)": {
        "details": "See {IERC777-send}. Also emits a {IERC20-Transfer} event for ERC20 compatibility."
      },
      "symbol()": {
        "details": "See {IERC777-symbol}."
      },
      "totalSupply()": {
        "details": "See {IERC777-totalSupply}."
      },
      "transfer(address,uint256)": {
        "details": "See {IERC20-transfer}. Unlike `send`, `recipient` is _not_ required to implement the {IERC777Recipient} interface if it is a contract. Also emits a {Sent} event."
      },
      "transferFrom(address,address,uint256)": {
        "details": "See {IERC20-transferFrom}. NOTE: Does not update the allowance if the current allowance is the maximum `uint256`. Note that operator and allowance concepts are orthogonal: operators cannot call `transferFrom` (unless they have allowance), and accounts with allowance cannot call `operatorSend` (unless they are operators). Emits {Sent}, {IERC20-Transfer} and {IERC20-Approval} events."
      }
    },
    "stateVariables": {
      "__gap": {
        "details": "This empty reserved space is put in place to allow future versions to add new variables without shifting down storage in the inheritance chain. See https://docs.openzeppelin.com/contracts/4.x/upgradeable#storage_gaps"
      }
    },
    "version": 1
  },
  "userdoc": {
    "kind": "user",
    "methods": {},
    "version": 1
  }
}