{
  "contractName": "MoontronV1",
  "abi": [
    {
      "anonymous": false,
      "inputs": [
        {
          "indexed": false,
          "internalType": "address",
          "name": "previousAdmin",
          "type": "address"
        },
        {
          "indexed": false,
          "internalType": "address",
          "name": "newAdmin",
          "type": "address"
        }
      ],
      "name": "AdminChanged",
      "type": "event"
    },
    {
      "anonymous": false,
      "inputs": [
        {
          "indexed": true,
          "internalType": "address",
          "name": "owner",
          "type": "address"
        },
        {
          "indexed": true,
          "internalType": "address",
          "name": "approved",
          "type": "address"
        },
        {
          "indexed": true,
          "internalType": "uint256",
          "name": "tokenId",
          "type": "uint256"
        }
      ],
      "name": "Approval",
      "type": "event"
    },
    {
      "anonymous": false,
      "inputs": [
        {
          "indexed": true,
          "internalType": "address",
          "name": "owner",
          "type": "address"
        },
        {
          "indexed": true,
          "internalType": "address",
          "name": "operator",
          "type": "address"
        },
        {
          "indexed": false,
          "internalType": "bool",
          "name": "approved",
          "type": "bool"
        }
      ],
      "name": "ApprovalForAll",
      "type": "event"
    },
    {
      "anonymous": false,
      "inputs": [
        {
          "indexed": true,
          "internalType": "address",
          "name": "beacon",
          "type": "address"
        }
      ],
      "name": "BeaconUpgraded",
      "type": "event"
    },
    {
      "anonymous": false,
      "inputs": [
        {
          "indexed": true,
          "internalType": "bytes32",
          "name": "role",
          "type": "bytes32"
        },
        {
          "indexed": true,
          "internalType": "bytes32",
          "name": "previousAdminRole",
          "type": "bytes32"
        },
        {
          "indexed": true,
          "internalType": "bytes32",
          "name": "newAdminRole",
          "type": "bytes32"
        }
      ],
      "name": "RoleAdminChanged",
      "type": "event"
    },
    {
      "anonymous": false,
      "inputs": [
        {
          "indexed": true,
          "internalType": "bytes32",
          "name": "role",
          "type": "bytes32"
        },
        {
          "indexed": true,
          "internalType": "address",
          "name": "account",
          "type": "address"
        },
        {
          "indexed": true,
          "internalType": "address",
          "name": "sender",
          "type": "address"
        }
      ],
      "name": "RoleGranted",
      "type": "event"
    },
    {
      "anonymous": false,
      "inputs": [
        {
          "indexed": true,
          "internalType": "bytes32",
          "name": "role",
          "type": "bytes32"
        },
        {
          "indexed": true,
          "internalType": "address",
          "name": "account",
          "type": "address"
        },
        {
          "indexed": true,
          "internalType": "address",
          "name": "sender",
          "type": "address"
        }
      ],
      "name": "RoleRevoked",
      "type": "event"
    },
    {
      "anonymous": false,
      "inputs": [
        {
          "indexed": true,
          "internalType": "address",
          "name": "from",
          "type": "address"
        },
        {
          "indexed": true,
          "internalType": "address",
          "name": "to",
          "type": "address"
        },
        {
          "indexed": true,
          "internalType": "uint256",
          "name": "tokenId",
          "type": "uint256"
        }
      ],
      "name": "Transfer",
      "type": "event"
    },
    {
      "anonymous": false,
      "inputs": [
        {
          "indexed": true,
          "internalType": "address",
          "name": "implementation",
          "type": "address"
        }
      ],
      "name": "Upgraded",
      "type": "event"
    },
    {
      "inputs": [],
      "name": "DEFAULT_ADMIN_ROLE",
      "outputs": [
        {
          "internalType": "bytes32",
          "name": "",
          "type": "bytes32"
        }
      ],
      "stateMutability": "view",
      "type": "function"
    },
    {
      "inputs": [],
      "name": "MINTER_ROLE",
      "outputs": [
        {
          "internalType": "bytes32",
          "name": "",
          "type": "bytes32"
        }
      ],
      "stateMutability": "view",
      "type": "function"
    },
    {
      "inputs": [],
      "name": "UPGRADER_ROLE",
      "outputs": [
        {
          "internalType": "bytes32",
          "name": "",
          "type": "bytes32"
        }
      ],
      "stateMutability": "view",
      "type": "function"
    },
    {
      "inputs": [
        {
          "internalType": "address",
          "name": "to",
          "type": "address"
        },
        {
          "internalType": "uint256",
          "name": "tokenId",
          "type": "uint256"
        }
      ],
      "name": "approve",
      "outputs": [],
      "stateMutability": "nonpayable",
      "type": "function"
    },
    {
      "inputs": [
        {
          "internalType": "address",
          "name": "owner",
          "type": "address"
        }
      ],
      "name": "balanceOf",
      "outputs": [
        {
          "internalType": "uint256",
          "name": "",
          "type": "uint256"
        }
      ],
      "stateMutability": "view",
      "type": "function"
    },
    {
      "inputs": [
        {
          "internalType": "uint256",
          "name": "tokenId",
          "type": "uint256"
        }
      ],
      "name": "burn",
      "outputs": [],
      "stateMutability": "nonpayable",
      "type": "function"
    },
    {
      "inputs": [
        {
          "internalType": "uint256",
          "name": "tokenId",
          "type": "uint256"
        }
      ],
      "name": "getApproved",
      "outputs": [
        {
          "internalType": "address",
          "name": "",
          "type": "address"
        }
      ],
      "stateMutability": "view",
      "type": "function"
    },
    {
      "inputs": [
        {
          "internalType": "bytes32",
          "name": "role",
          "type": "bytes32"
        }
      ],
      "name": "getRoleAdmin",
      "outputs": [
        {
          "internalType": "bytes32",
          "name": "",
          "type": "bytes32"
        }
      ],
      "stateMutability": "view",
      "type": "function"
    },
    {
      "inputs": [
        {
          "internalType": "bytes32",
          "name": "role",
          "type": "bytes32"
        },
        {
          "internalType": "address",
          "name": "account",
          "type": "address"
        }
      ],
      "name": "grantRole",
      "outputs": [],
      "stateMutability": "nonpayable",
      "type": "function"
    },
    {
      "inputs": [
        {
          "internalType": "bytes32",
          "name": "role",
          "type": "bytes32"
        },
        {
          "internalType": "address",
          "name": "account",
          "type": "address"
        }
      ],
      "name": "hasRole",
      "outputs": [
        {
          "internalType": "bool",
          "name": "",
          "type": "bool"
        }
      ],
      "stateMutability": "view",
      "type": "function"
    },
    {
      "inputs": [
        {
          "internalType": "address",
          "name": "owner",
          "type": "address"
        },
        {
          "internalType": "address",
          "name": "operatorAddress",
          "type": "address"
        }
      ],
      "name": "isApprovedForAll",
      "outputs": [
        {
          "internalType": "bool",
          "name": "",
          "type": "bool"
        }
      ],
      "stateMutability": "view",
      "type": "function"
    },
    {
      "inputs": [],
      "name": "name",
      "outputs": [
        {
          "internalType": "string",
          "name": "",
          "type": "string"
        }
      ],
      "stateMutability": "view",
      "type": "function"
    },
    {
      "inputs": [
        {
          "internalType": "uint256",
          "name": "tokenId",
          "type": "uint256"
        }
      ],
      "name": "ownerOf",
      "outputs": [
        {
          "internalType": "address",
          "name": "",
          "type": "address"
        }
      ],
      "stateMutability": "view",
      "type": "function"
    },
    {
      "inputs": [],
      "name": "proxiableUUID",
      "outputs": [
        {
          "internalType": "bytes32",
          "name": "",
          "type": "bytes32"
        }
      ],
      "stateMutability": "view",
      "type": "function"
    },
    {
      "inputs": [
        {
          "internalType": "bytes32",
          "name": "role",
          "type": "bytes32"
        },
        {
          "internalType": "address",
          "name": "account",
          "type": "address"
        }
      ],
      "name": "renounceRole",
      "outputs": [],
      "stateMutability": "nonpayable",
      "type": "function"
    },
    {
      "inputs": [
        {
          "internalType": "bytes32",
          "name": "role",
          "type": "bytes32"
        },
        {
          "internalType": "address",
          "name": "account",
          "type": "address"
        }
      ],
      "name": "revokeRole",
      "outputs": [],
      "stateMutability": "nonpayable",
      "type": "function"
    },
    {
      "inputs": [
        {
          "internalType": "address",
          "name": "to",
          "type": "address"
        },
        {
          "internalType": "string",
          "name": "uri",
          "type": "string"
        }
      ],
      "name": "safeMint",
      "outputs": [],
      "stateMutability": "nonpayable",
      "type": "function"
    },
    {
      "inputs": [
        {
          "internalType": "address",
          "name": "from",
          "type": "address"
        },
        {
          "internalType": "address",
          "name": "to",
          "type": "address"
        },
        {
          "internalType": "uint256",
          "name": "tokenId",
          "type": "uint256"
        }
      ],
      "name": "safeTransferFrom",
      "outputs": [],
      "stateMutability": "nonpayable",
      "type": "function"
    },
    {
      "inputs": [
        {
          "internalType": "address",
          "name": "from",
          "type": "address"
        },
        {
          "internalType": "address",
          "name": "to",
          "type": "address"
        },
        {
          "internalType": "uint256",
          "name": "tokenId",
          "type": "uint256"
        },
        {
          "internalType": "bytes",
          "name": "_data",
          "type": "bytes"
        }
      ],
      "name": "safeTransferFrom",
      "outputs": [],
      "stateMutability": "nonpayable",
      "type": "function"
    },
    {
      "inputs": [
        {
          "internalType": "address",
          "name": "operator",
          "type": "address"
        },
        {
          "internalType": "bool",
          "name": "approved",
          "type": "bool"
        }
      ],
      "name": "setApprovalForAll",
      "outputs": [],
      "stateMutability": "nonpayable",
      "type": "function"
    },
    {
      "inputs": [
        {
          "internalType": "bytes4",
          "name": "interfaceId",
          "type": "bytes4"
        }
      ],
      "name": "supportsInterface",
      "outputs": [
        {
          "internalType": "bool",
          "name": "",
          "type": "bool"
        }
      ],
      "stateMutability": "view",
      "type": "function"
    },
    {
      "inputs": [],
      "name": "symbol",
      "outputs": [
        {
          "internalType": "string",
          "name": "",
          "type": "string"
        }
      ],
      "stateMutability": "view",
      "type": "function"
    },
    {
      "inputs": [
        {
          "internalType": "uint256",
          "name": "tokenId",
          "type": "uint256"
        }
      ],
      "name": "tokenURI",
      "outputs": [
        {
          "internalType": "string",
          "name": "",
          "type": "string"
        }
      ],
      "stateMutability": "view",
      "type": "function"
    },
    {
      "inputs": [
        {
          "internalType": "address",
          "name": "from",
          "type": "address"
        },
        {
          "internalType": "address",
          "name": "to",
          "type": "address"
        },
        {
          "internalType": "uint256",
          "name": "tokenId",
          "type": "uint256"
        }
      ],
      "name": "transferFrom",
      "outputs": [],
      "stateMutability": "nonpayable",
      "type": "function"
    },
    {
      "inputs": [
        {
          "internalType": "address",
          "name": "newImplementation",
          "type": "address"
        }
      ],
      "name": "upgradeTo",
      "outputs": [],
      "stateMutability": "nonpayable",
      "type": "function"
    },
    {
      "inputs": [
        {
          "internalType": "address",
          "name": "newImplementation",
          "type": "address"
        },
        {
          "internalType": "bytes",
          "name": "data",
          "type": "bytes"
        }
      ],
      "name": "upgradeToAndCall",
      "outputs": [],
      "stateMutability": "payable",
      "type": "function"
    },
    {
      "inputs": [
        {
          "internalType": "address",
          "name": "proxyRegistryAddress",
          "type": "address"
        }
      ],
      "name": "initialize",
      "outputs": [],
      "stateMutability": "nonpayable",
      "type": "function"
    }
  ],
  "bytecode": "0x60a06040523060805234801561001457600080fd5b50608051612c4c61004c6000396000818161086f015281816108af015281816109e001528181610a200152610aaf0152612c4c6000f3fe60806040526004361061019c5760003560e01c80636352211e116100ec578063c4d66de81161008a578063d539139311610064578063d5391393146104a2578063d547741f146104d6578063e985e9c5146104f6578063f72c0d8b1461051657600080fd5b8063c4d66de814610442578063c87b56dd14610462578063d204c45e1461048257600080fd5b806395d89b41116100c657806395d89b41146103d8578063a217fddf146103ed578063a22cb46514610402578063b88d4fde1461042257600080fd5b80636352211e1461037857806370a082311461039857806391d14854146103b857600080fd5b80632f2ff15d1161015957806342842e0e1161013357806342842e0e1461031057806342966c68146103305780634f1ef2861461035057806352d1902d1461036357600080fd5b80632f2ff15d146102b057806336568abe146102d05780633659cfe6146102f057600080fd5b806301ffc9a7146101a157806306fdde03146101d6578063081812fc146101f8578063095ea7b31461023057806323b872dd14610252578063248a9ca314610272575b600080fd5b3480156101ad57600080fd5b506101c16101bc3660046123f6565b61054a565b60405190151581526020015b60405180910390f35b3480156101e257600080fd5b506101eb61055b565b6040516101cd919061246b565b34801561020457600080fd5b5061021861021336600461247e565b6105ed565b6040516001600160a01b0390911681526020016101cd565b34801561023c57600080fd5b5061025061024b3660046124ac565b61067a565b005b34801561025e57600080fd5b5061025061026d3660046124d8565b61078f565b34801561027e57600080fd5b506102a261028d36600461247e565b600090815260fb602052604090206001015490565b6040519081526020016101cd565b3480156102bc57600080fd5b506102506102cb366004612519565b6107c1565b3480156102dc57600080fd5b506102506102eb366004612519565b6107e7565b3480156102fc57600080fd5b5061025061030b366004612549565b610865565b34801561031c57600080fd5b5061025061032b3660046124d8565b610944565b34801561033c57600080fd5b5061025061034b36600461247e565b61095f565b61025061035e366004612612565b6109d6565b34801561036f57600080fd5b506102a2610aa2565b34801561038457600080fd5b5061021861039336600461247e565b610b55565b3480156103a457600080fd5b506102a26103b3366004612549565b610bcc565b3480156103c457600080fd5b506101c16103d3366004612519565b610c53565b3480156103e457600080fd5b506101eb610c7e565b3480156103f957600080fd5b506102a2600081565b34801561040e57600080fd5b5061025061041d366004612662565b610c8d565b34801561042e57600080fd5b5061025061043d366004612695565b610c98565b34801561044e57600080fd5b5061025061045d366004612549565b610cd0565b34801561046e57600080fd5b506101eb61047d36600461247e565b610da8565b34801561048e57600080fd5b5061025061049d366004612701565b610db3565b3480156104ae57600080fd5b506102a27f9f2df0fed2c77648de5860a4cc508cd0818c85b8b8a1ab4ceeef8d981c8956a681565b3480156104e257600080fd5b506102506104f1366004612519565b610e0f565b34801561050257600080fd5b506101c161051136600461275b565b610e35565b34801561052257600080fd5b506102a27f189ab7a9244df0848122154315af71fe140f3db0fe014031783b0946b8c9d2e381565b600061055582610ef6565b92915050565b60606065805461056a90612789565b80601f016020809104026020016040519081016040528092919081815260200182805461059690612789565b80156105e35780601f106105b8576101008083540402835291602001916105e3565b820191906000526020600020905b8154815290600101906020018083116105c657829003601f168201915b5050505050905090565b60006105f882610f1b565b61065e5760405162461bcd60e51b815260206004820152602c60248201527f4552433732313a20617070726f76656420717565727920666f72206e6f6e657860448201526b34b9ba32b73a103a37b5b2b760a11b60648201526084015b60405180910390fd5b506000908152606960205260409020546001600160a01b031690565b600061068582610b55565b9050806001600160a01b0316836001600160a01b0316036106f25760405162461bcd60e51b815260206004820152602160248201527f4552433732313a20617070726f76616c20746f2063757272656e74206f776e656044820152603960f91b6064820152608401610655565b336001600160a01b038216148061070e575061070e8133610e35565b6107805760405162461bcd60e51b815260206004820152603860248201527f4552433732313a20617070726f76652063616c6c6572206973206e6f74206f7760448201527f6e6572206e6f7220617070726f76656420666f7220616c6c00000000000000006064820152608401610655565b61078a8383610f38565b505050565b61079a335b82610fa6565b6107b65760405162461bcd60e51b8152600401610655906127c3565b61078a838383611068565b600082815260fb60205260409020600101546107dd8133611204565b61078a8383611268565b6001600160a01b03811633146108575760405162461bcd60e51b815260206004820152602f60248201527f416363657373436f6e74726f6c3a2063616e206f6e6c792072656e6f756e636560448201526e103937b632b9903337b91039b2b63360891b6064820152608401610655565b61086182826112ee565b5050565b6001600160a01b037f00000000000000000000000000000000000000000000000000000000000000001630036108ad5760405162461bcd60e51b815260040161065590612814565b7f00000000000000000000000000000000000000000000000000000000000000006001600160a01b03166108f6600080516020612bd0833981519152546001600160a01b031690565b6001600160a01b03161461091c5760405162461bcd60e51b815260040161065590612860565b61092581611355565b6040805160008082526020820190925261094191839190611380565b50565b61078a83838360405180602001604052806000815250610c98565b61096833610794565b6109cd5760405162461bcd60e51b815260206004820152603060248201527f4552433732314275726e61626c653a2063616c6c6572206973206e6f74206f7760448201526f1b995c881b9bdc88185c1c1c9bdd995960821b6064820152608401610655565b610941816114eb565b6001600160a01b037f0000000000000000000000000000000000000000000000000000000000000000163003610a1e5760405162461bcd60e51b815260040161065590612814565b7f00000000000000000000000000000000000000000000000000000000000000006001600160a01b0316610a67600080516020612bd0833981519152546001600160a01b031690565b6001600160a01b031614610a8d5760405162461bcd60e51b815260040161065590612860565b610a9682611355565b61086182826001611380565b6000306001600160a01b037f00000000000000000000000000000000000000000000000000000000000000001614610b425760405162461bcd60e51b815260206004820152603860248201527f555550535570677261646561626c653a206d757374206e6f742062652063616c60448201527f6c6564207468726f7567682064656c656761746563616c6c00000000000000006064820152608401610655565b50600080516020612bd083398151915290565b6000818152606760205260408120546001600160a01b0316806105555760405162461bcd60e51b815260206004820152602960248201527f4552433732313a206f776e657220717565727920666f72206e6f6e657869737460448201526832b73a103a37b5b2b760b91b6064820152608401610655565b60006001600160a01b038216610c375760405162461bcd60e51b815260206004820152602a60248201527f4552433732313a2062616c616e636520717565727920666f7220746865207a65604482015269726f206164647265737360b01b6064820152608401610655565b506001600160a01b031660009081526068602052604090205490565b600091825260fb602090815260408084206001600160a01b0393909316845291905290205460ff1690565b60606066805461056a90612789565b6108613383836114f4565b610ca23383610fa6565b610cbe5760405162461bcd60e51b8152600401610655906127c3565b610cca848484846115c2565b50505050565b600054610100900460ff16610ceb5760005460ff1615610cef565b303b155b610d0b5760405162461bcd60e51b8152600401610655906128ac565b600054610100900460ff16158015610d2d576000805461ffff19166101011790555b610d936040518060400160405280600881526020016726b7b7b73a3937b760c11b8152506040518060400160405280600381526020016226aa2760e91b81525060405180604001604052806007815260200166697066733a2f2f60c81b815250856115f5565b8015610861576000805461ff00191690555050565b606061055582611725565b7f9f2df0fed2c77648de5860a4cc508cd0818c85b8b8a1ab4ceeef8d981c8956a6610dde8133611204565b6000610dea6101915490565b9050610dfb61019180546001019055565b610e058482611886565b610cca81846118a0565b600082815260fb6020526040902060010154610e2b8133611204565b61078a83836112ee565b6101935460405163c455279160e01b81526001600160a01b03848116600483015260009281169190841690829063c455279190602401602060405180830381865afa158015610e88573d6000803e3d6000fd5b505050506040513d601f19601f82011682018060405250810190610eac91906128fa565b6001600160a01b031603610ec4576001915050610555565b6001600160a01b038085166000908152606a602090815260408083209387168352929052205460ff165b949350505050565b60006001600160e01b03198216637965db0b60e01b148061055557506105558261192b565b6000908152606760205260409020546001600160a01b0316151590565b600081815260696020526040902080546001600160a01b0319166001600160a01b0384169081179091558190610f6d82610b55565b6001600160a01b03167f8c5be1e5ebec7d5bd14f71427d1e84f3dd0314c0f7b2291e5b200ac8c7c3b92560405160405180910390a45050565b6000610fb182610f1b565b6110125760405162461bcd60e51b815260206004820152602c60248201527f4552433732313a206f70657261746f7220717565727920666f72206e6f6e657860448201526b34b9ba32b73a103a37b5b2b760a11b6064820152608401610655565b600061101d83610b55565b9050806001600160a01b0316846001600160a01b031614806110585750836001600160a01b031661104d846105ed565b6001600160a01b0316145b80610eee5750610eee8185610e35565b826001600160a01b031661107b82610b55565b6001600160a01b0316146110df5760405162461bcd60e51b815260206004820152602560248201527f4552433732313a207472616e736665722066726f6d20696e636f72726563742060448201526437bbb732b960d91b6064820152608401610655565b6001600160a01b0382166111415760405162461bcd60e51b8152602060048201526024808201527f4552433732313a207472616e7366657220746f20746865207a65726f206164646044820152637265737360e01b6064820152608401610655565b61114c600082610f38565b6001600160a01b038316600090815260686020526040812080546001929061117590849061292d565b90915550506001600160a01b03821660009081526068602052604081208054600192906111a3908490612944565b909155505060008181526067602052604080822080546001600160a01b0319166001600160a01b0386811691821790925591518493918716917fddf252ad1be2c89b69c2b068fc378daa952ba7f163c4a11628f55a4df523b3ef91a4505050565b61120e8282610c53565b61086157611226816001600160a01b0316601461197b565b61123183602061197b565b60405160200161124292919061295c565b60408051601f198184030181529082905262461bcd60e51b82526106559160040161246b565b6112728282610c53565b61086157600082815260fb602090815260408083206001600160a01b03851684529091529020805460ff191660011790556112aa3390565b6001600160a01b0316816001600160a01b0316837f2f8788117e7eff1d82e926ec794901d17c78024a50270940304540a733656f0d60405160405180910390a45050565b6112f88282610c53565b1561086157600082815260fb602090815260408083206001600160a01b0385168085529252808320805460ff1916905551339285917ff6391f5c32d9c69d2a47ea670b442974b53935d1edc7fd64eb21e047a839171b9190a45050565b7f189ab7a9244df0848122154315af71fe140f3db0fe014031783b0946b8c9d2e36108618133611204565b7f4910fdfa16fed3260ed0e7147f7cc6da11a60208b5b9406d12a635614ffd91435460ff16156113b35761078a83611b1e565b826001600160a01b03166352d1902d6040518163ffffffff1660e01b8152600401602060405180830381865afa92505050801561140d575060408051601f3d908101601f1916820190925261140a918101906129d1565b60015b6114705760405162461bcd60e51b815260206004820152602e60248201527f45524331393637557067726164653a206e657720696d706c656d656e7461746960448201526d6f6e206973206e6f74205555505360901b6064820152608401610655565b600080516020612bd083398151915281146114df5760405162461bcd60e51b815260206004820152602960248201527f45524331393637557067726164653a20756e737570706f727465642070726f786044820152681a58589b195555525160ba1b6064820152608401610655565b5061078a838383611bba565b61094181611bdf565b816001600160a01b0316836001600160a01b0316036115555760405162461bcd60e51b815260206004820152601960248201527f4552433732313a20617070726f766520746f2063616c6c6572000000000000006044820152606401610655565b6001600160a01b038381166000818152606a6020908152604080832094871680845294825291829020805460ff191686151590811790915591519182527f17307eab39ab6107e8899845ad3d59bd9653f200f220920489ca2b5937696c31910160405180910390a3505050565b6115cd848484611068565b6115d984848484611c1f565b610cca5760405162461bcd60e51b8152600401610655906129ea565b600054610100900460ff166116105760005460ff1615611614565b303b155b6116305760405162461bcd60e51b8152600401610655906128ac565b600054610100900460ff16158015611652576000805461ffff19166101011790555b61165c8585611d20565b611664611d51565b61166c611d51565b611674611d51565b61167c611d51565b611687600033611268565b6116b17f9f2df0fed2c77648de5860a4cc508cd0818c85b8b8a1ab4ceeef8d981c8956a633611268565b6116db7f189ab7a9244df0848122154315af71fe140f3db0fe014031783b0946b8c9d2e333611268565b82516116ef90610192906020860190612311565b5061019380546001600160a01b0319166001600160a01b038416179055801561171e576000805461ff00191690555b5050505050565b606061173082610f1b565b6117965760405162461bcd60e51b815260206004820152603160248201527f45524337323155524953746f726167653a2055524920717565727920666f72206044820152703737b732bc34b9ba32b73a103a37b5b2b760791b6064820152608401610655565b600082815260976020526040812080546117af90612789565b80601f01602080910402602001604051908101604052809291908181526020018280546117db90612789565b80156118285780601f106117fd57610100808354040283529160200191611828565b820191906000526020600020905b81548152906001019060200180831161180b57829003601f168201915b505050505090506000611839611d7a565b9050805160000361184b575092915050565b81511561187d578082604051602001611865929190612a3c565b60405160208183030381529060405292505050919050565b610eee84611d8a565b610861828260405180602001604052806000815250611e54565b6118a982610f1b565b61190c5760405162461bcd60e51b815260206004820152602e60248201527f45524337323155524953746f726167653a2055524920736574206f66206e6f6e60448201526d32bc34b9ba32b73a103a37b5b2b760911b6064820152608401610655565b6000828152609760209081526040909120825161078a92840190612311565b60006001600160e01b031982166380ac58cd60e01b148061195c57506001600160e01b03198216635b5e139f60e01b145b8061055557506301ffc9a760e01b6001600160e01b0319831614610555565b6060600061198a836002612a6b565b611995906002612944565b67ffffffffffffffff8111156119ad576119ad612566565b6040519080825280601f01601f1916602001820160405280156119d7576020820181803683370190505b509050600360fc1b816000815181106119f2576119f2612a8a565b60200101906001600160f81b031916908160001a905350600f60fb1b81600181518110611a2157611a21612a8a565b60200101906001600160f81b031916908160001a9053506000611a45846002612a6b565b611a50906001612944565b90505b6001811115611ac8576f181899199a1a9b1b9c1cb0b131b232b360811b85600f1660108110611a8457611a84612a8a565b1a60f81b828281518110611a9a57611a9a612a8a565b60200101906001600160f81b031916908160001a90535060049490941c93611ac181612aa0565b9050611a53565b508315611b175760405162461bcd60e51b815260206004820181905260248201527f537472696e67733a20686578206c656e67746820696e73756666696369656e746044820152606401610655565b9392505050565b6001600160a01b0381163b611b8b5760405162461bcd60e51b815260206004820152602d60248201527f455243313936373a206e657720696d706c656d656e746174696f6e206973206e60448201526c1bdd08184818dbdb9d1c9858dd609a1b6064820152608401610655565b600080516020612bd083398151915280546001600160a01b0319166001600160a01b0392909216919091179055565b611bc383611e87565b600082511180611bd05750805b1561078a57610cca8383611ec7565b611be881611fbb565b60008181526097602052604090208054611c0190612789565b15905061094157600081815260976020526040812061094191612395565b60006001600160a01b0384163b15611d1557604051630a85bd0160e11b81526001600160a01b0385169063150b7a0290611c63903390899088908890600401612ab7565b6020604051808303816000875af1925050508015611c9e575060408051601f3d908101601f19168201909252611c9b91810190612af4565b60015b611cfb573d808015611ccc576040519150601f19603f3d011682016040523d82523d6000602084013e611cd1565b606091505b508051600003611cf35760405162461bcd60e51b8152600401610655906129ea565b805181602001fd5b6001600160e01b031916630a85bd0160e11b149050610eee565b506001949350505050565b600054610100900460ff16611d475760405162461bcd60e51b815260040161065590612b11565b6108618282612056565b600054610100900460ff16611d785760405162461bcd60e51b815260040161065590612b11565b565b6060610192805461056a90612789565b6060611d9582610f1b565b611df95760405162461bcd60e51b815260206004820152602f60248201527f4552433732314d657461646174613a2055524920717565727920666f72206e6f60448201526e3732bc34b9ba32b73a103a37b5b2b760891b6064820152608401610655565b6000611e03611d7a565b90506000815111611e235760405180602001604052806000815250611b17565b80611e2d846120a4565b604051602001611e3e929190612a3c565b6040516020818303038152906040529392505050565b611e5e83836121a5565b611e6b6000848484611c1f565b61078a5760405162461bcd60e51b8152600401610655906129ea565b611e9081611b1e565b6040516001600160a01b038216907fbc7cd75a20ee27fd9adebab32041f755214dbc6bffa90cc0225b39da2e5c2d3b90600090a250565b60606001600160a01b0383163b611f2f5760405162461bcd60e51b815260206004820152602660248201527f416464726573733a2064656c65676174652063616c6c20746f206e6f6e2d636f6044820152651b9d1c9858dd60d21b6064820152608401610655565b600080846001600160a01b031684604051611f4a9190612b5c565b600060405180830381855af49150503d8060008114611f85576040519150601f19603f3d011682016040523d82523d6000602084013e611f8a565b606091505b5091509150611fb28282604051806060016040528060278152602001612bf0602791396122d8565b95945050505050565b6000611fc682610b55565b9050611fd3600083610f38565b6001600160a01b0381166000908152606860205260408120805460019290611ffc90849061292d565b909155505060008281526067602052604080822080546001600160a01b0319169055518391906001600160a01b038416907fddf252ad1be2c89b69c2b068fc378daa952ba7f163c4a11628f55a4df523b3ef908390a45050565b600054610100900460ff1661207d5760405162461bcd60e51b815260040161065590612b11565b8151612090906065906020850190612311565b50805161078a906066906020840190612311565b6060816000036120cb5750506040805180820190915260018152600360fc1b602082015290565b8160005b81156120f557806120df81612b78565b91506120ee9050600a83612ba7565b91506120cf565b60008167ffffffffffffffff81111561211057612110612566565b6040519080825280601f01601f19166020018201604052801561213a576020820181803683370190505b5090505b8415610eee5761214f60018361292d565b915061215c600a86612bbb565b612167906030612944565b60f81b81838151811061217c5761217c612a8a565b60200101906001600160f81b031916908160001a90535061219e600a86612ba7565b945061213e565b6001600160a01b0382166121fb5760405162461bcd60e51b815260206004820181905260248201527f4552433732313a206d696e7420746f20746865207a65726f20616464726573736044820152606401610655565b61220481610f1b565b156122515760405162461bcd60e51b815260206004820152601c60248201527f4552433732313a20746f6b656e20616c7265616479206d696e746564000000006044820152606401610655565b6001600160a01b038216600090815260686020526040812080546001929061227a908490612944565b909155505060008181526067602052604080822080546001600160a01b0319166001600160a01b03861690811790915590518392907fddf252ad1be2c89b69c2b068fc378daa952ba7f163c4a11628f55a4df523b3ef908290a45050565b606083156122e7575081611b17565b8251156122f75782518084602001fd5b8160405162461bcd60e51b8152600401610655919061246b565b82805461231d90612789565b90600052602060002090601f01602090048101928261233f5760008555612385565b82601f1061235857805160ff1916838001178555612385565b82800160010185558215612385579182015b8281111561238557825182559160200191906001019061236a565b506123919291506123cb565b5090565b5080546123a190612789565b6000825580601f106123b1575050565b601f01602090049060005260206000209081019061094191905b5b8082111561239157600081556001016123cc565b6001600160e01b03198116811461094157600080fd5b60006020828403121561240857600080fd5b8135611b17816123e0565b60005b8381101561242e578181015183820152602001612416565b83811115610cca5750506000910152565b60008151808452612457816020860160208601612413565b601f01601f19169290920160200192915050565b602081526000611b17602083018461243f565b60006020828403121561249057600080fd5b5035919050565b6001600160a01b038116811461094157600080fd5b600080604083850312156124bf57600080fd5b82356124ca81612497565b946020939093013593505050565b6000806000606084860312156124ed57600080fd5b83356124f881612497565b9250602084013561250881612497565b929592945050506040919091013590565b6000806040838503121561252c57600080fd5b82359150602083013561253e81612497565b809150509250929050565b60006020828403121561255b57600080fd5b8135611b1781612497565b634e487b7160e01b600052604160045260246000fd5b600067ffffffffffffffff8084111561259757612597612566565b604051601f8501601f19908116603f011681019082821181831017156125bf576125bf612566565b816040528093508581528686860111156125d857600080fd5b858560208301376000602087830101525050509392505050565b600082601f83011261260357600080fd5b611b178383356020850161257c565b6000806040838503121561262557600080fd5b823561263081612497565b9150602083013567ffffffffffffffff81111561264c57600080fd5b612658858286016125f2565b9150509250929050565b6000806040838503121561267557600080fd5b823561268081612497565b91506020830135801515811461253e57600080fd5b600080600080608085870312156126ab57600080fd5b84356126b681612497565b935060208501356126c681612497565b925060408501359150606085013567ffffffffffffffff8111156126e957600080fd5b6126f5878288016125f2565b91505092959194509250565b6000806040838503121561271457600080fd5b823561271f81612497565b9150602083013567ffffffffffffffff81111561273b57600080fd5b8301601f8101851361274c57600080fd5b6126588582356020840161257c565b6000806040838503121561276e57600080fd5b823561277981612497565b9150602083013561253e81612497565b600181811c9082168061279d57607f821691505b6020821081036127bd57634e487b7160e01b600052602260045260246000fd5b50919050565b60208082526031908201527f4552433732313a207472616e736665722063616c6c6572206973206e6f74206f6040820152701ddb995c881b9bdc88185c1c1c9bdd9959607a1b606082015260800190565b6020808252602c908201527f46756e6374696f6e206d7573742062652063616c6c6564207468726f7567682060408201526b19195b1959d85d1958d85b1b60a21b606082015260800190565b6020808252602c908201527f46756e6374696f6e206d7573742062652063616c6c6564207468726f7567682060408201526b6163746976652070726f787960a01b606082015260800190565b6020808252602e908201527f496e697469616c697a61626c653a20636f6e747261637420697320616c72656160408201526d191e481a5b9a5d1a585b1a5e995960921b606082015260800190565b60006020828403121561290c57600080fd5b8151611b1781612497565b634e487b7160e01b600052601160045260246000fd5b60008282101561293f5761293f612917565b500390565b6000821982111561295757612957612917565b500190565b7f416363657373436f6e74726f6c3a206163636f756e7420000000000000000000815260008351612994816017850160208801612413565b7001034b99036b4b9b9b4b733903937b6329607d1b60179184019182015283516129c5816028840160208801612413565b01602801949350505050565b6000602082840312156129e357600080fd5b5051919050565b60208082526032908201527f4552433732313a207472616e7366657220746f206e6f6e20455243373231526560408201527131b2b4bb32b91034b6b83632b6b2b73a32b960711b606082015260800190565b60008351612a4e818460208801612413565b835190830190612a62818360208801612413565b01949350505050565b6000816000190483118215151615612a8557612a85612917565b500290565b634e487b7160e01b600052603260045260246000fd5b600081612aaf57612aaf612917565b506000190190565b6001600160a01b0385811682528416602082015260408101839052608060608201819052600090612aea9083018461243f565b9695505050505050565b600060208284031215612b0657600080fd5b8151611b17816123e0565b6020808252602b908201527f496e697469616c697a61626c653a20636f6e7472616374206973206e6f74206960408201526a6e697469616c697a696e6760a81b606082015260800190565b60008251612b6e818460208701612413565b9190910192915050565b600060018201612b8a57612b8a612917565b5060010190565b634e487b7160e01b600052601260045260246000fd5b600082612bb657612bb6612b91565b500490565b600082612bca57612bca612b91565b50069056fe360894a13ba1a3210667c828492db98dca3e2076cc3735a920a3ca505d382bbc416464726573733a206c6f772d6c6576656c2064656c65676174652063616c6c206661696c6564a26469706673582212209b8f4f4eca82009ac0ec5e51e180c7b18dda9231062a162b9ac270d48be8a71b64736f6c634300080d0033",
  "immutableReferences": {
    "1019": [
      {
        "length": 32,
        "start": 2159
      },
      {
        "length": 32,
        "start": 2223
      },
      {
        "length": 32,
        "start": 2528
      },
      {
        "length": 32,
        "start": 2592
      },
      {
        "length": 32,
        "start": 2735
      }
    ]
  },
  "source": "// contracts/MoontronV1.sol\r\n// SPDX-License-Identifier: MIT\r\npragma solidity ^0.8.0;\r\n\r\nimport \"@openzeppelin/contracts-upgradeable/proxy/utils/Initializable.sol\";\r\nimport \"./imports/SchnoodleNFTBase.sol\";\r\n\r\ncontract MoontronV1 is SchnoodleNFTBase {\r\n    function initialize(address proxyRegistryAddress) public initializer {\r\n        __SchnoodleNFTBase_init(\"Moontron\", \"MTN\", \"ipfs://\", proxyRegistryAddress);\r\n    }\r\n}\r\n",
  "sourcePath": "C:\\Users\\micro\\OneDrive - X-treem Software\\Development\\Projects\\Blockchain\\Schnoodle\\contracts\\contracts\\MoontronV1.sol",
  "compiler": {
    "name": "solc",
    "version": "0.8.13+commit.abaa5c0e.Emscripten.clang"
  },
  "schemaVersion": "3.4.3",
  "updatedAt": "2022-04-28T21:55:27.418Z",
  "devdoc": {
    "kind": "dev",
    "methods": {
      "approve(address,uint256)": {
        "details": "See {IERC721-approve}."
      },
      "balanceOf(address)": {
        "details": "See {IERC721-balanceOf}."
      },
      "burn(uint256)": {
        "details": "Burns `tokenId`. See {ERC721-_burn}. Requirements: - The caller must own `tokenId` or be an approved operator."
      },
      "getApproved(uint256)": {
        "details": "See {IERC721-getApproved}."
      },
      "getRoleAdmin(bytes32)": {
        "details": "Returns the admin role that controls `role`. See {grantRole} and {revokeRole}. To change a role's admin, use {_setRoleAdmin}."
      },
      "grantRole(bytes32,address)": {
        "details": "Grants `role` to `account`. If `account` had not been already granted `role`, emits a {RoleGranted} event. Requirements: - the caller must have ``role``'s admin role."
      },
      "hasRole(bytes32,address)": {
        "details": "Returns `true` if `account` has been granted `role`."
      },
      "name()": {
        "details": "See {IERC721Metadata-name}."
      },
      "ownerOf(uint256)": {
        "details": "See {IERC721-ownerOf}."
      },
      "proxiableUUID()": {
        "details": "Implementation of the ERC1822 {proxiableUUID} function. This returns the storage slot used by the implementation. It is used to validate that the this implementation remains valid after an upgrade. IMPORTANT: A proxy pointing at a proxiable contract should not be considered proxiable itself, because this risks bricking a proxy that upgrades to it, by delegating to itself until out of gas. Thus it is critical that this function revert if invoked through a proxy. This is guaranteed by the `notDelegated` modifier."
      },
      "renounceRole(bytes32,address)": {
        "details": "Revokes `role` from the calling account. Roles are often managed via {grantRole} and {revokeRole}: this function's purpose is to provide a mechanism for accounts to lose their privileges if they are compromised (such as when a trusted device is misplaced). If the calling account had been revoked `role`, emits a {RoleRevoked} event. Requirements: - the caller must be `account`."
      },
      "revokeRole(bytes32,address)": {
        "details": "Revokes `role` from `account`. If `account` had been granted `role`, emits a {RoleRevoked} event. Requirements: - the caller must have ``role``'s admin role."
      },
      "safeTransferFrom(address,address,uint256)": {
        "details": "See {IERC721-safeTransferFrom}."
      },
      "safeTransferFrom(address,address,uint256,bytes)": {
        "details": "See {IERC721-safeTransferFrom}."
      },
      "setApprovalForAll(address,bool)": {
        "details": "See {IERC721-setApprovalForAll}."
      },
      "symbol()": {
        "details": "See {IERC721Metadata-symbol}."
      },
      "transferFrom(address,address,uint256)": {
        "details": "See {IERC721-transferFrom}."
      },
      "upgradeTo(address)": {
        "details": "Upgrade the implementation of the proxy to `newImplementation`. Calls {_authorizeUpgrade}. Emits an {Upgraded} event."
      },
      "upgradeToAndCall(address,bytes)": {
        "details": "Upgrade the implementation of the proxy to `newImplementation`, and subsequently execute the function call encoded in `data`. Calls {_authorizeUpgrade}. Emits an {Upgraded} event."
      }
    },
    "version": 1
  },
  "userdoc": {
    "kind": "user",
    "methods": {
      "isApprovedForAll(address,address)": {
        "notice": "Override to whitelist user's OpenSea proxy accounts to enable gasless listings"
      }
    },
    "version": 1
  }
}