{
  "contractName": "MoontronV1",
  "abi": [
    {
      "anonymous": false,
      "inputs": [
        {
          "indexed": false,
          "internalType": "address",
          "name": "previousAdmin",
          "type": "address"
        },
        {
          "indexed": false,
          "internalType": "address",
          "name": "newAdmin",
          "type": "address"
        }
      ],
      "name": "AdminChanged",
      "type": "event"
    },
    {
      "anonymous": false,
      "inputs": [
        {
          "indexed": true,
          "internalType": "address",
          "name": "owner",
          "type": "address"
        },
        {
          "indexed": true,
          "internalType": "address",
          "name": "approved",
          "type": "address"
        },
        {
          "indexed": true,
          "internalType": "uint256",
          "name": "tokenId",
          "type": "uint256"
        }
      ],
      "name": "Approval",
      "type": "event"
    },
    {
      "anonymous": false,
      "inputs": [
        {
          "indexed": true,
          "internalType": "address",
          "name": "owner",
          "type": "address"
        },
        {
          "indexed": true,
          "internalType": "address",
          "name": "operator",
          "type": "address"
        },
        {
          "indexed": false,
          "internalType": "bool",
          "name": "approved",
          "type": "bool"
        }
      ],
      "name": "ApprovalForAll",
      "type": "event"
    },
    {
      "anonymous": false,
      "inputs": [
        {
          "indexed": true,
          "internalType": "address",
          "name": "beacon",
          "type": "address"
        }
      ],
      "name": "BeaconUpgraded",
      "type": "event"
    },
    {
      "anonymous": false,
      "inputs": [
        {
          "indexed": false,
          "internalType": "uint8",
          "name": "version",
          "type": "uint8"
        }
      ],
      "name": "Initialized",
      "type": "event"
    },
    {
      "anonymous": false,
      "inputs": [
        {
          "indexed": true,
          "internalType": "bytes32",
          "name": "role",
          "type": "bytes32"
        },
        {
          "indexed": true,
          "internalType": "bytes32",
          "name": "previousAdminRole",
          "type": "bytes32"
        },
        {
          "indexed": true,
          "internalType": "bytes32",
          "name": "newAdminRole",
          "type": "bytes32"
        }
      ],
      "name": "RoleAdminChanged",
      "type": "event"
    },
    {
      "anonymous": false,
      "inputs": [
        {
          "indexed": true,
          "internalType": "bytes32",
          "name": "role",
          "type": "bytes32"
        },
        {
          "indexed": true,
          "internalType": "address",
          "name": "account",
          "type": "address"
        },
        {
          "indexed": true,
          "internalType": "address",
          "name": "sender",
          "type": "address"
        }
      ],
      "name": "RoleGranted",
      "type": "event"
    },
    {
      "anonymous": false,
      "inputs": [
        {
          "indexed": true,
          "internalType": "bytes32",
          "name": "role",
          "type": "bytes32"
        },
        {
          "indexed": true,
          "internalType": "address",
          "name": "account",
          "type": "address"
        },
        {
          "indexed": true,
          "internalType": "address",
          "name": "sender",
          "type": "address"
        }
      ],
      "name": "RoleRevoked",
      "type": "event"
    },
    {
      "anonymous": false,
      "inputs": [
        {
          "indexed": true,
          "internalType": "address",
          "name": "from",
          "type": "address"
        },
        {
          "indexed": true,
          "internalType": "address",
          "name": "to",
          "type": "address"
        },
        {
          "indexed": true,
          "internalType": "uint256",
          "name": "tokenId",
          "type": "uint256"
        }
      ],
      "name": "Transfer",
      "type": "event"
    },
    {
      "anonymous": false,
      "inputs": [
        {
          "indexed": true,
          "internalType": "address",
          "name": "implementation",
          "type": "address"
        }
      ],
      "name": "Upgraded",
      "type": "event"
    },
    {
      "inputs": [],
      "name": "DEFAULT_ADMIN_ROLE",
      "outputs": [
        {
          "internalType": "bytes32",
          "name": "",
          "type": "bytes32"
        }
      ],
      "stateMutability": "view",
      "type": "function",
      "constant": true
    },
    {
      "inputs": [],
      "name": "MINTER_ROLE",
      "outputs": [
        {
          "internalType": "bytes32",
          "name": "",
          "type": "bytes32"
        }
      ],
      "stateMutability": "view",
      "type": "function",
      "constant": true
    },
    {
      "inputs": [],
      "name": "UPGRADER_ROLE",
      "outputs": [
        {
          "internalType": "bytes32",
          "name": "",
          "type": "bytes32"
        }
      ],
      "stateMutability": "view",
      "type": "function",
      "constant": true
    },
    {
      "inputs": [
        {
          "internalType": "address",
          "name": "to",
          "type": "address"
        },
        {
          "internalType": "uint256",
          "name": "tokenId",
          "type": "uint256"
        }
      ],
      "name": "approve",
      "outputs": [],
      "stateMutability": "nonpayable",
      "type": "function"
    },
    {
      "inputs": [
        {
          "internalType": "address",
          "name": "owner",
          "type": "address"
        }
      ],
      "name": "balanceOf",
      "outputs": [
        {
          "internalType": "uint256",
          "name": "",
          "type": "uint256"
        }
      ],
      "stateMutability": "view",
      "type": "function",
      "constant": true
    },
    {
      "inputs": [
        {
          "internalType": "uint256",
          "name": "tokenId",
          "type": "uint256"
        }
      ],
      "name": "burn",
      "outputs": [],
      "stateMutability": "nonpayable",
      "type": "function"
    },
    {
      "inputs": [
        {
          "internalType": "uint256",
          "name": "tokenId",
          "type": "uint256"
        }
      ],
      "name": "getApproved",
      "outputs": [
        {
          "internalType": "address",
          "name": "",
          "type": "address"
        }
      ],
      "stateMutability": "view",
      "type": "function",
      "constant": true
    },
    {
      "inputs": [
        {
          "internalType": "bytes32",
          "name": "role",
          "type": "bytes32"
        }
      ],
      "name": "getRoleAdmin",
      "outputs": [
        {
          "internalType": "bytes32",
          "name": "",
          "type": "bytes32"
        }
      ],
      "stateMutability": "view",
      "type": "function",
      "constant": true
    },
    {
      "inputs": [
        {
          "internalType": "bytes32",
          "name": "role",
          "type": "bytes32"
        },
        {
          "internalType": "address",
          "name": "account",
          "type": "address"
        }
      ],
      "name": "grantRole",
      "outputs": [],
      "stateMutability": "nonpayable",
      "type": "function"
    },
    {
      "inputs": [
        {
          "internalType": "bytes32",
          "name": "role",
          "type": "bytes32"
        },
        {
          "internalType": "address",
          "name": "account",
          "type": "address"
        }
      ],
      "name": "hasRole",
      "outputs": [
        {
          "internalType": "bool",
          "name": "",
          "type": "bool"
        }
      ],
      "stateMutability": "view",
      "type": "function",
      "constant": true
    },
    {
      "inputs": [
        {
          "internalType": "address",
          "name": "owner",
          "type": "address"
        },
        {
          "internalType": "address",
          "name": "operatorAddress",
          "type": "address"
        }
      ],
      "name": "isApprovedForAll",
      "outputs": [
        {
          "internalType": "bool",
          "name": "",
          "type": "bool"
        }
      ],
      "stateMutability": "view",
      "type": "function",
      "constant": true
    },
    {
      "inputs": [],
      "name": "name",
      "outputs": [
        {
          "internalType": "string",
          "name": "",
          "type": "string"
        }
      ],
      "stateMutability": "view",
      "type": "function",
      "constant": true
    },
    {
      "inputs": [
        {
          "internalType": "uint256",
          "name": "tokenId",
          "type": "uint256"
        }
      ],
      "name": "ownerOf",
      "outputs": [
        {
          "internalType": "address",
          "name": "",
          "type": "address"
        }
      ],
      "stateMutability": "view",
      "type": "function",
      "constant": true
    },
    {
      "inputs": [],
      "name": "proxiableUUID",
      "outputs": [
        {
          "internalType": "bytes32",
          "name": "",
          "type": "bytes32"
        }
      ],
      "stateMutability": "view",
      "type": "function",
      "constant": true
    },
    {
      "inputs": [
        {
          "internalType": "bytes32",
          "name": "role",
          "type": "bytes32"
        },
        {
          "internalType": "address",
          "name": "account",
          "type": "address"
        }
      ],
      "name": "renounceRole",
      "outputs": [],
      "stateMutability": "nonpayable",
      "type": "function"
    },
    {
      "inputs": [
        {
          "internalType": "bytes32",
          "name": "role",
          "type": "bytes32"
        },
        {
          "internalType": "address",
          "name": "account",
          "type": "address"
        }
      ],
      "name": "revokeRole",
      "outputs": [],
      "stateMutability": "nonpayable",
      "type": "function"
    },
    {
      "inputs": [
        {
          "internalType": "address",
          "name": "to",
          "type": "address"
        },
        {
          "internalType": "string",
          "name": "uri",
          "type": "string"
        }
      ],
      "name": "safeMint",
      "outputs": [],
      "stateMutability": "nonpayable",
      "type": "function"
    },
    {
      "inputs": [
        {
          "internalType": "address",
          "name": "from",
          "type": "address"
        },
        {
          "internalType": "address",
          "name": "to",
          "type": "address"
        },
        {
          "internalType": "uint256",
          "name": "tokenId",
          "type": "uint256"
        }
      ],
      "name": "safeTransferFrom",
      "outputs": [],
      "stateMutability": "nonpayable",
      "type": "function"
    },
    {
      "inputs": [
        {
          "internalType": "address",
          "name": "from",
          "type": "address"
        },
        {
          "internalType": "address",
          "name": "to",
          "type": "address"
        },
        {
          "internalType": "uint256",
          "name": "tokenId",
          "type": "uint256"
        },
        {
          "internalType": "bytes",
          "name": "_data",
          "type": "bytes"
        }
      ],
      "name": "safeTransferFrom",
      "outputs": [],
      "stateMutability": "nonpayable",
      "type": "function"
    },
    {
      "inputs": [
        {
          "internalType": "address",
          "name": "operator",
          "type": "address"
        },
        {
          "internalType": "bool",
          "name": "approved",
          "type": "bool"
        }
      ],
      "name": "setApprovalForAll",
      "outputs": [],
      "stateMutability": "nonpayable",
      "type": "function"
    },
    {
      "inputs": [
        {
          "internalType": "bytes4",
          "name": "interfaceId",
          "type": "bytes4"
        }
      ],
      "name": "supportsInterface",
      "outputs": [
        {
          "internalType": "bool",
          "name": "",
          "type": "bool"
        }
      ],
      "stateMutability": "view",
      "type": "function",
      "constant": true
    },
    {
      "inputs": [],
      "name": "symbol",
      "outputs": [
        {
          "internalType": "string",
          "name": "",
          "type": "string"
        }
      ],
      "stateMutability": "view",
      "type": "function",
      "constant": true
    },
    {
      "inputs": [
        {
          "internalType": "uint256",
          "name": "tokenId",
          "type": "uint256"
        }
      ],
      "name": "tokenURI",
      "outputs": [
        {
          "internalType": "string",
          "name": "",
          "type": "string"
        }
      ],
      "stateMutability": "view",
      "type": "function",
      "constant": true
    },
    {
      "inputs": [
        {
          "internalType": "address",
          "name": "from",
          "type": "address"
        },
        {
          "internalType": "address",
          "name": "to",
          "type": "address"
        },
        {
          "internalType": "uint256",
          "name": "tokenId",
          "type": "uint256"
        }
      ],
      "name": "transferFrom",
      "outputs": [],
      "stateMutability": "nonpayable",
      "type": "function"
    },
    {
      "inputs": [
        {
          "internalType": "address",
          "name": "newImplementation",
          "type": "address"
        }
      ],
      "name": "upgradeTo",
      "outputs": [],
      "stateMutability": "nonpayable",
      "type": "function"
    },
    {
      "inputs": [
        {
          "internalType": "address",
          "name": "newImplementation",
          "type": "address"
        },
        {
          "internalType": "bytes",
          "name": "data",
          "type": "bytes"
        }
      ],
      "name": "upgradeToAndCall",
      "outputs": [],
      "stateMutability": "payable",
      "type": "function",
      "payable": true
    },
    {
      "inputs": [
        {
          "internalType": "address",
          "name": "proxyRegistryAddress",
          "type": "address"
        }
      ],
      "name": "initialize",
      "outputs": [],
      "stateMutability": "nonpayable",
      "type": "function"
    }
  ],
  "bytecode": "0x60a06040523060805234801561001457600080fd5b50608051612cd161004c6000396000818161086e015281816108ae015281816109df01528181610a1f0152610aae0152612cd16000f3fe60806040526004361061019c5760003560e01c80636352211e116100ec578063c4d66de81161008a578063d539139311610064578063d5391393146104a2578063d547741f146104d6578063e985e9c5146104f6578063f72c0d8b1461051657600080fd5b8063c4d66de814610442578063c87b56dd14610462578063d204c45e1461048257600080fd5b806395d89b41116100c657806395d89b41146103d8578063a217fddf146103ed578063a22cb46514610402578063b88d4fde1461042257600080fd5b80636352211e1461037857806370a082311461039857806391d14854146103b857600080fd5b80632f2ff15d1161015957806342842e0e1161013357806342842e0e1461031057806342966c68146103305780634f1ef2861461035057806352d1902d1461036357600080fd5b80632f2ff15d146102b057806336568abe146102d05780633659cfe6146102f057600080fd5b806301ffc9a7146101a157806306fdde03146101d6578063081812fc146101f8578063095ea7b31461023057806323b872dd14610252578063248a9ca314610272575b600080fd5b3480156101ad57600080fd5b506101c16101bc36600461247b565b61054a565b60405190151581526020015b60405180910390f35b3480156101e257600080fd5b506101eb61055b565b6040516101cd91906124f0565b34801561020457600080fd5b50610218610213366004612503565b6105ed565b6040516001600160a01b0390911681526020016101cd565b34801561023c57600080fd5b5061025061024b366004612531565b61067a565b005b34801561025e57600080fd5b5061025061026d36600461255d565b61078f565b34801561027e57600080fd5b506102a261028d366004612503565b600090815260fb602052604090206001015490565b6040519081526020016101cd565b3480156102bc57600080fd5b506102506102cb36600461259e565b6107c1565b3480156102dc57600080fd5b506102506102eb36600461259e565b6107e6565b3480156102fc57600080fd5b5061025061030b3660046125ce565b610864565b34801561031c57600080fd5b5061025061032b36600461255d565b610943565b34801561033c57600080fd5b5061025061034b366004612503565b61095e565b61025061035e366004612697565b6109d5565b34801561036f57600080fd5b506102a2610aa1565b34801561038457600080fd5b50610218610393366004612503565b610b54565b3480156103a457600080fd5b506102a26103b33660046125ce565b610bcb565b3480156103c457600080fd5b506101c16103d336600461259e565b610c52565b3480156103e457600080fd5b506101eb610c7d565b3480156103f957600080fd5b506102a2600081565b34801561040e57600080fd5b5061025061041d3660046126e7565b610c8c565b34801561042e57600080fd5b5061025061043d36600461271a565b610c97565b34801561044e57600080fd5b5061025061045d3660046125ce565b610ccf565b34801561046e57600080fd5b506101eb61047d366004612503565b610da2565b34801561048e57600080fd5b5061025061049d366004612786565b610dad565b3480156104ae57600080fd5b506102a27f9f2df0fed2c77648de5860a4cc508cd0818c85b8b8a1ab4ceeef8d981c8956a681565b3480156104e257600080fd5b506102506104f136600461259e565b610e08565b34801561050257600080fd5b506101c16105113660046127e0565b610e2d565b34801561052257600080fd5b506102a27f189ab7a9244df0848122154315af71fe140f3db0fe014031783b0946b8c9d2e381565b600061055582610eee565b92915050565b60606065805461056a9061280e565b80601f01602080910402602001604051908101604052809291908181526020018280546105969061280e565b80156105e35780601f106105b8576101008083540402835291602001916105e3565b820191906000526020600020905b8154815290600101906020018083116105c657829003601f168201915b5050505050905090565b60006105f882610f13565b61065e5760405162461bcd60e51b815260206004820152602c60248201527f4552433732313a20617070726f76656420717565727920666f72206e6f6e657860448201526b34b9ba32b73a103a37b5b2b760a11b60648201526084015b60405180910390fd5b506000908152606960205260409020546001600160a01b031690565b600061068582610b54565b9050806001600160a01b0316836001600160a01b0316036106f25760405162461bcd60e51b815260206004820152602160248201527f4552433732313a20617070726f76616c20746f2063757272656e74206f776e656044820152603960f91b6064820152608401610655565b336001600160a01b038216148061070e575061070e8133610e2d565b6107805760405162461bcd60e51b815260206004820152603860248201527f4552433732313a20617070726f76652063616c6c6572206973206e6f74206f7760448201527f6e6572206e6f7220617070726f76656420666f7220616c6c00000000000000006064820152608401610655565b61078a8383610f30565b505050565b61079a335b82610f9e565b6107b65760405162461bcd60e51b815260040161065590612848565b61078a838383611067565b600082815260fb60205260409020600101546107dc81611203565b61078a838361120d565b6001600160a01b03811633146108565760405162461bcd60e51b815260206004820152602f60248201527f416363657373436f6e74726f6c3a2063616e206f6e6c792072656e6f756e636560448201526e103937b632b9903337b91039b2b63360891b6064820152608401610655565b6108608282611293565b5050565b6001600160a01b037f00000000000000000000000000000000000000000000000000000000000000001630036108ac5760405162461bcd60e51b815260040161065590612899565b7f00000000000000000000000000000000000000000000000000000000000000006001600160a01b03166108f5600080516020612c55833981519152546001600160a01b031690565b6001600160a01b03161461091b5760405162461bcd60e51b8152600401610655906128e5565b610924816112fa565b6040805160008082526020820190925261094091839190611324565b50565b61078a83838360405180602001604052806000815250610c97565b61096733610794565b6109cc5760405162461bcd60e51b815260206004820152603060248201527f4552433732314275726e61626c653a2063616c6c6572206973206e6f74206f7760448201526f1b995c881b9bdc88185c1c1c9bdd995960821b6064820152608401610655565b6109408161148f565b6001600160a01b037f0000000000000000000000000000000000000000000000000000000000000000163003610a1d5760405162461bcd60e51b815260040161065590612899565b7f00000000000000000000000000000000000000000000000000000000000000006001600160a01b0316610a66600080516020612c55833981519152546001600160a01b031690565b6001600160a01b031614610a8c5760405162461bcd60e51b8152600401610655906128e5565b610a95826112fa565b61086082826001611324565b6000306001600160a01b037f00000000000000000000000000000000000000000000000000000000000000001614610b415760405162461bcd60e51b815260206004820152603860248201527f555550535570677261646561626c653a206d757374206e6f742062652063616c60448201527f6c6564207468726f7567682064656c656761746563616c6c00000000000000006064820152608401610655565b50600080516020612c5583398151915290565b6000818152606760205260408120546001600160a01b0316806105555760405162461bcd60e51b815260206004820152602960248201527f4552433732313a206f776e657220717565727920666f72206e6f6e657869737460448201526832b73a103a37b5b2b760b91b6064820152608401610655565b60006001600160a01b038216610c365760405162461bcd60e51b815260206004820152602a60248201527f4552433732313a2062616c616e636520717565727920666f7220746865207a65604482015269726f206164647265737360b01b6064820152608401610655565b506001600160a01b031660009081526068602052604090205490565b600091825260fb602090815260408084206001600160a01b0393909316845291905290205460ff1690565b60606066805461056a9061280e565b610860338383611498565b610ca13383610f9e565b610cbd5760405162461bcd60e51b815260040161065590612848565b610cc984848484611566565b50505050565b6000610cdb6001611599565b90508015610cf3576000805461ff0019166101001790555b610d596040518060400160405280600881526020016726b7b7b73a3937b760c11b8152506040518060400160405280600381526020016226aa2760e91b81525060405180604001604052806007815260200166697066733a2f2f60c81b81525085611621565b8015610860576000805461ff0019169055604051600181527f7f26b83ff96e1f2b6a682f133852f6798a09c465da95921460cefb38474024989060200160405180910390a15050565b60606105558261174c565b7f9f2df0fed2c77648de5860a4cc508cd0818c85b8b8a1ab4ceeef8d981c8956a6610dd781611203565b6000610de36101915490565b9050610df461019180546001019055565b610dfe84826118ad565b610cc981846118c7565b600082815260fb6020526040902060010154610e2381611203565b61078a8383611293565b6101935460405163c455279160e01b81526001600160a01b03848116600483015260009281169190841690829063c455279190602401602060405180830381865afa158015610e80573d6000803e3d6000fd5b505050506040513d601f19601f82011682018060405250810190610ea49190612931565b6001600160a01b031603610ebc576001915050610555565b6001600160a01b038085166000908152606a602090815260408083209387168352929052205460ff165b949350505050565b60006001600160e01b03198216637965db0b60e01b1480610555575061055582611952565b6000908152606760205260409020546001600160a01b0316151590565b600081815260696020526040902080546001600160a01b0319166001600160a01b0384169081179091558190610f6582610b54565b6001600160a01b03167f8c5be1e5ebec7d5bd14f71427d1e84f3dd0314c0f7b2291e5b200ac8c7c3b92560405160405180910390a45050565b6000610fa982610f13565b61100a5760405162461bcd60e51b815260206004820152602c60248201527f4552433732313a206f70657261746f7220717565727920666f72206e6f6e657860448201526b34b9ba32b73a103a37b5b2b760a11b6064820152608401610655565b600061101583610b54565b9050806001600160a01b0316846001600160a01b0316148061103c575061103c8185610e2d565b80610ee65750836001600160a01b0316611055846105ed565b6001600160a01b031614949350505050565b826001600160a01b031661107a82610b54565b6001600160a01b0316146110de5760405162461bcd60e51b815260206004820152602560248201527f4552433732313a207472616e736665722066726f6d20696e636f72726563742060448201526437bbb732b960d91b6064820152608401610655565b6001600160a01b0382166111405760405162461bcd60e51b8152602060048201526024808201527f4552433732313a207472616e7366657220746f20746865207a65726f206164646044820152637265737360e01b6064820152608401610655565b61114b600082610f30565b6001600160a01b0383166000908152606860205260408120805460019290611174908490612964565b90915550506001600160a01b03821660009081526068602052604081208054600192906111a290849061297b565b909155505060008181526067602052604080822080546001600160a01b0319166001600160a01b0386811691821790925591518493918716917fddf252ad1be2c89b69c2b068fc378daa952ba7f163c4a11628f55a4df523b3ef91a4505050565b61094081336119a2565b6112178282610c52565b61086057600082815260fb602090815260408083206001600160a01b03851684529091529020805460ff1916600117905561124f3390565b6001600160a01b0316816001600160a01b0316837f2f8788117e7eff1d82e926ec794901d17c78024a50270940304540a733656f0d60405160405180910390a45050565b61129d8282610c52565b1561086057600082815260fb602090815260408083206001600160a01b0385168085529252808320805460ff1916905551339285917ff6391f5c32d9c69d2a47ea670b442974b53935d1edc7fd64eb21e047a839171b9190a45050565b7f189ab7a9244df0848122154315af71fe140f3db0fe014031783b0946b8c9d2e361086081611203565b7f4910fdfa16fed3260ed0e7147f7cc6da11a60208b5b9406d12a635614ffd91435460ff16156113575761078a83611a06565b826001600160a01b03166352d1902d6040518163ffffffff1660e01b8152600401602060405180830381865afa9250505080156113b1575060408051601f3d908101601f191682019092526113ae91810190612993565b60015b6114145760405162461bcd60e51b815260206004820152602e60248201527f45524331393637557067726164653a206e657720696d706c656d656e7461746960448201526d6f6e206973206e6f74205555505360901b6064820152608401610655565b600080516020612c5583398151915281146114835760405162461bcd60e51b815260206004820152602960248201527f45524331393637557067726164653a20756e737570706f727465642070726f786044820152681a58589b195555525160ba1b6064820152608401610655565b5061078a838383611aa2565b61094081611ac7565b816001600160a01b0316836001600160a01b0316036114f95760405162461bcd60e51b815260206004820152601960248201527f4552433732313a20617070726f766520746f2063616c6c6572000000000000006044820152606401610655565b6001600160a01b038381166000818152606a6020908152604080832094871680845294825291829020805460ff191686151590811790915591519182527f17307eab39ab6107e8899845ad3d59bd9653f200f220920489ca2b5937696c31910160405180910390a3505050565b611571848484611067565b61157d84848484611b07565b610cc95760405162461bcd60e51b8152600401610655906129ac565b60008054610100900460ff16156115e0578160ff1660011480156115bc5750303b155b6115d85760405162461bcd60e51b8152600401610655906129fe565b506000919050565b60005460ff8084169116106116075760405162461bcd60e51b8152600401610655906129fe565b506000805460ff191660ff92909216919091179055600190565b600061162d6001611599565b90508015611645576000805461ff0019166101001790555b61164f8585611c08565b611657611c39565b61165f611c39565b611667611c39565b61166f611c39565b61167a60003361120d565b6116a47f9f2df0fed2c77648de5860a4cc508cd0818c85b8b8a1ab4ceeef8d981c8956a63361120d565b6116ce7f189ab7a9244df0848122154315af71fe140f3db0fe014031783b0946b8c9d2e33361120d565b82516116e290610192906020860190612396565b5061019380546001600160a01b0319166001600160a01b0384161790558015611745576000805461ff0019169055604051600181527f7f26b83ff96e1f2b6a682f133852f6798a09c465da95921460cefb38474024989060200160405180910390a15b5050505050565b606061175782610f13565b6117bd5760405162461bcd60e51b815260206004820152603160248201527f45524337323155524953746f726167653a2055524920717565727920666f72206044820152703737b732bc34b9ba32b73a103a37b5b2b760791b6064820152608401610655565b600082815260976020526040812080546117d69061280e565b80601f01602080910402602001604051908101604052809291908181526020018280546118029061280e565b801561184f5780601f106118245761010080835404028352916020019161184f565b820191906000526020600020905b81548152906001019060200180831161183257829003601f168201915b505050505090506000611860611c62565b90508051600003611872575092915050565b8151156118a457808260405160200161188c929190612a4c565b60405160208183030381529060405292505050919050565b610ee684611c72565b610860828260405180602001604052806000815250611d3d565b6118d082610f13565b6119335760405162461bcd60e51b815260206004820152602e60248201527f45524337323155524953746f726167653a2055524920736574206f66206e6f6e60448201526d32bc34b9ba32b73a103a37b5b2b760911b6064820152608401610655565b6000828152609760209081526040909120825161078a92840190612396565b60006001600160e01b031982166380ac58cd60e01b148061198357506001600160e01b03198216635b5e139f60e01b145b8061055557506301ffc9a760e01b6001600160e01b0319831614610555565b6119ac8282610c52565b610860576119c4816001600160a01b03166014611d70565b6119cf836020611d70565b6040516020016119e0929190612a7b565b60408051601f198184030181529082905262461bcd60e51b8252610655916004016124f0565b6001600160a01b0381163b611a735760405162461bcd60e51b815260206004820152602d60248201527f455243313936373a206e657720696d706c656d656e746174696f6e206973206e60448201526c1bdd08184818dbdb9d1c9858dd609a1b6064820152608401610655565b600080516020612c5583398151915280546001600160a01b0319166001600160a01b0392909216919091179055565b611aab83611f0c565b600082511180611ab85750805b1561078a57610cc98383611f4c565b611ad081612040565b60008181526097602052604090208054611ae99061280e565b1590506109405760008181526097602052604081206109409161241a565b60006001600160a01b0384163b15611bfd57604051630a85bd0160e11b81526001600160a01b0385169063150b7a0290611b4b903390899088908890600401612af0565b6020604051808303816000875af1925050508015611b86575060408051601f3d908101601f19168201909252611b8391810190612b2d565b60015b611be3573d808015611bb4576040519150601f19603f3d011682016040523d82523d6000602084013e611bb9565b606091505b508051600003611bdb5760405162461bcd60e51b8152600401610655906129ac565b805181602001fd5b6001600160e01b031916630a85bd0160e11b149050610ee6565b506001949350505050565b600054610100900460ff16611c2f5760405162461bcd60e51b815260040161065590612b4a565b61086082826120db565b600054610100900460ff16611c605760405162461bcd60e51b815260040161065590612b4a565b565b6060610192805461056a9061280e565b6060611c7d82610f13565b611ce15760405162461bcd60e51b815260206004820152602f60248201527f4552433732314d657461646174613a2055524920717565727920666f72206e6f60448201526e3732bc34b9ba32b73a103a37b5b2b760891b6064820152608401610655565b6000611ceb611c62565b90506000815111611d0b5760405180602001604052806000815250611d36565b80611d1584612129565b604051602001611d26929190612a4c565b6040516020818303038152906040525b9392505050565b611d47838361222a565b611d546000848484611b07565b61078a5760405162461bcd60e51b8152600401610655906129ac565b60606000611d7f836002612b95565b611d8a90600261297b565b67ffffffffffffffff811115611da257611da26125eb565b6040519080825280601f01601f191660200182016040528015611dcc576020820181803683370190505b509050600360fc1b81600081518110611de757611de7612bb4565b60200101906001600160f81b031916908160001a905350600f60fb1b81600181518110611e1657611e16612bb4565b60200101906001600160f81b031916908160001a9053506000611e3a846002612b95565b611e4590600161297b565b90505b6001811115611ebd576f181899199a1a9b1b9c1cb0b131b232b360811b85600f1660108110611e7957611e79612bb4565b1a60f81b828281518110611e8f57611e8f612bb4565b60200101906001600160f81b031916908160001a90535060049490941c93611eb681612bca565b9050611e48565b508315611d365760405162461bcd60e51b815260206004820181905260248201527f537472696e67733a20686578206c656e67746820696e73756666696369656e746044820152606401610655565b611f1581611a06565b6040516001600160a01b038216907fbc7cd75a20ee27fd9adebab32041f755214dbc6bffa90cc0225b39da2e5c2d3b90600090a250565b60606001600160a01b0383163b611fb45760405162461bcd60e51b815260206004820152602660248201527f416464726573733a2064656c65676174652063616c6c20746f206e6f6e2d636f6044820152651b9d1c9858dd60d21b6064820152608401610655565b600080846001600160a01b031684604051611fcf9190612be1565b600060405180830381855af49150503d806000811461200a576040519150601f19603f3d011682016040523d82523d6000602084013e61200f565b606091505b50915091506120378282604051806060016040528060278152602001612c756027913961235d565b95945050505050565b600061204b82610b54565b9050612058600083610f30565b6001600160a01b0381166000908152606860205260408120805460019290612081908490612964565b909155505060008281526067602052604080822080546001600160a01b0319169055518391906001600160a01b038416907fddf252ad1be2c89b69c2b068fc378daa952ba7f163c4a11628f55a4df523b3ef908390a45050565b600054610100900460ff166121025760405162461bcd60e51b815260040161065590612b4a565b8151612115906065906020850190612396565b50805161078a906066906020840190612396565b6060816000036121505750506040805180820190915260018152600360fc1b602082015290565b8160005b811561217a578061216481612bfd565b91506121739050600a83612c2c565b9150612154565b60008167ffffffffffffffff811115612195576121956125eb565b6040519080825280601f01601f1916602001820160405280156121bf576020820181803683370190505b5090505b8415610ee6576121d4600183612964565b91506121e1600a86612c40565b6121ec90603061297b565b60f81b81838151811061220157612201612bb4565b60200101906001600160f81b031916908160001a905350612223600a86612c2c565b94506121c3565b6001600160a01b0382166122805760405162461bcd60e51b815260206004820181905260248201527f4552433732313a206d696e7420746f20746865207a65726f20616464726573736044820152606401610655565b61228981610f13565b156122d65760405162461bcd60e51b815260206004820152601c60248201527f4552433732313a20746f6b656e20616c7265616479206d696e746564000000006044820152606401610655565b6001600160a01b03821660009081526068602052604081208054600192906122ff90849061297b565b909155505060008181526067602052604080822080546001600160a01b0319166001600160a01b03861690811790915590518392907fddf252ad1be2c89b69c2b068fc378daa952ba7f163c4a11628f55a4df523b3ef908290a45050565b6060831561236c575081611d36565b82511561237c5782518084602001fd5b8160405162461bcd60e51b815260040161065591906124f0565b8280546123a29061280e565b90600052602060002090601f0160209004810192826123c4576000855561240a565b82601f106123dd57805160ff191683800117855561240a565b8280016001018555821561240a579182015b8281111561240a5782518255916020019190600101906123ef565b50612416929150612450565b5090565b5080546124269061280e565b6000825580601f10612436575050565b601f01602090049060005260206000209081019061094091905b5b808211156124165760008155600101612451565b6001600160e01b03198116811461094057600080fd5b60006020828403121561248d57600080fd5b8135611d3681612465565b60005b838110156124b357818101518382015260200161249b565b83811115610cc95750506000910152565b600081518084526124dc816020860160208601612498565b601f01601f19169290920160200192915050565b602081526000611d3660208301846124c4565b60006020828403121561251557600080fd5b5035919050565b6001600160a01b038116811461094057600080fd5b6000806040838503121561254457600080fd5b823561254f8161251c565b946020939093013593505050565b60008060006060848603121561257257600080fd5b833561257d8161251c565b9250602084013561258d8161251c565b929592945050506040919091013590565b600080604083850312156125b157600080fd5b8235915060208301356125c38161251c565b809150509250929050565b6000602082840312156125e057600080fd5b8135611d368161251c565b634e487b7160e01b600052604160045260246000fd5b600067ffffffffffffffff8084111561261c5761261c6125eb565b604051601f8501601f19908116603f01168101908282118183101715612644576126446125eb565b8160405280935085815286868601111561265d57600080fd5b858560208301376000602087830101525050509392505050565b600082601f83011261268857600080fd5b611d3683833560208501612601565b600080604083850312156126aa57600080fd5b82356126b58161251c565b9150602083013567ffffffffffffffff8111156126d157600080fd5b6126dd85828601612677565b9150509250929050565b600080604083850312156126fa57600080fd5b82356127058161251c565b9150602083013580151581146125c357600080fd5b6000806000806080858703121561273057600080fd5b843561273b8161251c565b9350602085013561274b8161251c565b925060408501359150606085013567ffffffffffffffff81111561276e57600080fd5b61277a87828801612677565b91505092959194509250565b6000806040838503121561279957600080fd5b82356127a48161251c565b9150602083013567ffffffffffffffff8111156127c057600080fd5b8301601f810185136127d157600080fd5b6126dd85823560208401612601565b600080604083850312156127f357600080fd5b82356127fe8161251c565b915060208301356125c38161251c565b600181811c9082168061282257607f821691505b60208210810361284257634e487b7160e01b600052602260045260246000fd5b50919050565b60208082526031908201527f4552433732313a207472616e736665722063616c6c6572206973206e6f74206f6040820152701ddb995c881b9bdc88185c1c1c9bdd9959607a1b606082015260800190565b6020808252602c908201527f46756e6374696f6e206d7573742062652063616c6c6564207468726f7567682060408201526b19195b1959d85d1958d85b1b60a21b606082015260800190565b6020808252602c908201527f46756e6374696f6e206d7573742062652063616c6c6564207468726f7567682060408201526b6163746976652070726f787960a01b606082015260800190565b60006020828403121561294357600080fd5b8151611d368161251c565b634e487b7160e01b600052601160045260246000fd5b6000828210156129765761297661294e565b500390565b6000821982111561298e5761298e61294e565b500190565b6000602082840312156129a557600080fd5b5051919050565b60208082526032908201527f4552433732313a207472616e7366657220746f206e6f6e20455243373231526560408201527131b2b4bb32b91034b6b83632b6b2b73a32b960711b606082015260800190565b6020808252602e908201527f496e697469616c697a61626c653a20636f6e747261637420697320616c72656160408201526d191e481a5b9a5d1a585b1a5e995960921b606082015260800190565b60008351612a5e818460208801612498565b835190830190612a72818360208801612498565b01949350505050565b7f416363657373436f6e74726f6c3a206163636f756e7420000000000000000000815260008351612ab3816017850160208801612498565b7001034b99036b4b9b9b4b733903937b6329607d1b6017918401918201528351612ae4816028840160208801612498565b01602801949350505050565b6001600160a01b0385811682528416602082015260408101839052608060608201819052600090612b23908301846124c4565b9695505050505050565b600060208284031215612b3f57600080fd5b8151611d3681612465565b6020808252602b908201527f496e697469616c697a61626c653a20636f6e7472616374206973206e6f74206960408201526a6e697469616c697a696e6760a81b606082015260800190565b6000816000190483118215151615612baf57612baf61294e565b500290565b634e487b7160e01b600052603260045260246000fd5b600081612bd957612bd961294e565b506000190190565b60008251612bf3818460208701612498565b9190910192915050565b600060018201612c0f57612c0f61294e565b5060010190565b634e487b7160e01b600052601260045260246000fd5b600082612c3b57612c3b612c16565b500490565b600082612c4f57612c4f612c16565b50069056fe360894a13ba1a3210667c828492db98dca3e2076cc3735a920a3ca505d382bbc416464726573733a206c6f772d6c6576656c2064656c65676174652063616c6c206661696c6564a26469706673582212200953556f5c8baeccfd0ed19f7a72e67b11e71e30d85d8a2cae28d9d4411d5d1a64736f6c634300080e0033",
  "immutableReferences": {
    "1098": [
      {
        "length": 32,
        "start": 2158
      },
      {
        "length": 32,
        "start": 2222
      },
      {
        "length": 32,
        "start": 2527
      },
      {
        "length": 32,
        "start": 2591
      },
      {
        "length": 32,
        "start": 2734
      }
    ]
  },
  "source": "// contracts/MoontronV1.sol\r\n// SPDX-License-Identifier: MIT\r\npragma solidity ^0.8.0;\r\n\r\nimport \"@openzeppelin/contracts-upgradeable/proxy/utils/Initializable.sol\";\r\nimport \"./imports/SchnoodleNFTBase.sol\";\r\n\r\ncontract MoontronV1 is SchnoodleNFTBase {\r\n    function initialize(address proxyRegistryAddress) public initializer {\r\n        __SchnoodleNFTBase_init(\"Moontron\", \"MTN\", \"ipfs://\", proxyRegistryAddress);\r\n    }\r\n}\r\n",
  "sourcePath": "C:\\Users\\micro\\OneDrive - X-treem Software\\Development\\Projects\\Blockchain\\Schnoodle\\contracts\\contracts\\MoontronV1.sol",
  "compiler": {
    "name": "solc",
    "version": "0.8.14+commit.80d49f37.Emscripten.clang"
  },
  "schemaVersion": "3.4.7",
  "updatedAt": "2022-05-22T22:13:38.996Z",
  "networkType": "ethereum",
  "devdoc": {
    "kind": "dev",
    "methods": {
      "approve(address,uint256)": {
        "details": "See {IERC721-approve}."
      },
      "balanceOf(address)": {
        "details": "See {IERC721-balanceOf}."
      },
      "burn(uint256)": {
        "details": "Burns `tokenId`. See {ERC721-_burn}. Requirements: - The caller must own `tokenId` or be an approved operator."
      },
      "getApproved(uint256)": {
        "details": "See {IERC721-getApproved}."
      },
      "getRoleAdmin(bytes32)": {
        "details": "Returns the admin role that controls `role`. See {grantRole} and {revokeRole}. To change a role's admin, use {_setRoleAdmin}."
      },
      "grantRole(bytes32,address)": {
        "details": "Grants `role` to `account`. If `account` had not been already granted `role`, emits a {RoleGranted} event. Requirements: - the caller must have ``role``'s admin role."
      },
      "hasRole(bytes32,address)": {
        "details": "Returns `true` if `account` has been granted `role`."
      },
      "name()": {
        "details": "See {IERC721Metadata-name}."
      },
      "ownerOf(uint256)": {
        "details": "See {IERC721-ownerOf}."
      },
      "proxiableUUID()": {
        "details": "Implementation of the ERC1822 {proxiableUUID} function. This returns the storage slot used by the implementation. It is used to validate that the this implementation remains valid after an upgrade. IMPORTANT: A proxy pointing at a proxiable contract should not be considered proxiable itself, because this risks bricking a proxy that upgrades to it, by delegating to itself until out of gas. Thus it is critical that this function revert if invoked through a proxy. This is guaranteed by the `notDelegated` modifier."
      },
      "renounceRole(bytes32,address)": {
        "details": "Revokes `role` from the calling account. Roles are often managed via {grantRole} and {revokeRole}: this function's purpose is to provide a mechanism for accounts to lose their privileges if they are compromised (such as when a trusted device is misplaced). If the calling account had been revoked `role`, emits a {RoleRevoked} event. Requirements: - the caller must be `account`."
      },
      "revokeRole(bytes32,address)": {
        "details": "Revokes `role` from `account`. If `account` had been granted `role`, emits a {RoleRevoked} event. Requirements: - the caller must have ``role``'s admin role."
      },
      "safeTransferFrom(address,address,uint256)": {
        "details": "See {IERC721-safeTransferFrom}."
      },
      "safeTransferFrom(address,address,uint256,bytes)": {
        "details": "See {IERC721-safeTransferFrom}."
      },
      "setApprovalForAll(address,bool)": {
        "details": "See {IERC721-setApprovalForAll}."
      },
      "symbol()": {
        "details": "See {IERC721Metadata-symbol}."
      },
      "transferFrom(address,address,uint256)": {
        "details": "See {IERC721-transferFrom}."
      },
      "upgradeTo(address)": {
        "details": "Upgrade the implementation of the proxy to `newImplementation`. Calls {_authorizeUpgrade}. Emits an {Upgraded} event."
      },
      "upgradeToAndCall(address,bytes)": {
        "details": "Upgrade the implementation of the proxy to `newImplementation`, and subsequently execute the function call encoded in `data`. Calls {_authorizeUpgrade}. Emits an {Upgraded} event."
      }
    },
    "version": 1
  },
  "userdoc": {
    "kind": "user",
    "methods": {
      "isApprovedForAll(address,address)": {
        "notice": "Override to whitelist user's OpenSea proxy accounts to enable gasless listings"
      }
    },
    "version": 1
  }
}