{
  "contractName": "ProxyRegistry",
  "abi": [
    {
      "inputs": [
        {
          "internalType": "address",
          "name": "",
          "type": "address"
        }
      ],
      "name": "proxies",
      "outputs": [
        {
          "internalType": "contract OwnableDelegateProxy",
          "name": "",
          "type": "address"
        }
      ],
      "stateMutability": "view",
      "type": "function"
    }
  ],
  "bytecode": "0x608060405234801561001057600080fd5b5060d38061001f6000396000f3fe6080604052348015600f57600080fd5b506004361060285760003560e01c8063c455279114602d575b600080fd5b60536038366004606f565b6000602081905290815260409020546001600160a01b031681565b6040516001600160a01b03909116815260200160405180910390f35b600060208284031215608057600080fd5b81356001600160a01b0381168114609657600080fd5b939250505056fea264697066735822122063fa007e963f9d0fdd24f86286450bcd9dfde203cccf7a22740db1663c89061164736f6c634300080e0033",
  "immutableReferences": {},
  "source": "// contracts/imports/ERC721TradableUpgradeable.sol\r\n// SPDX-License-Identifier: MIT\r\npragma solidity ^0.8.0;\r\n\r\nimport \"@schnoodle/contracts-upgradeable/token/ERC721/ERC721Upgradeable.sol\";\r\nimport \"@schnoodle/contracts-upgradeable/token/ERC721/extensions/ERC721URIStorageUpgradeable.sol\";\r\nimport \"@schnoodle/contracts-upgradeable/token/ERC721/extensions/ERC721BurnableUpgradeable.sol\";\r\nimport \"@schnoodle/contracts-upgradeable/access/AccessControlUpgradeable.sol\";\r\nimport \"@schnoodle/contracts-upgradeable/proxy/utils/Initializable.sol\";\r\nimport \"@schnoodle/contracts-upgradeable/proxy/utils/UUPSUpgradeable.sol\";\r\nimport \"@schnoodle/contracts-upgradeable/utils/CountersUpgradeable.sol\";\r\n\r\ncontract OwnableDelegateProxy {}\r\n\r\n/// Used to delegate ownership of a contract to another address, to save on unneeded transactions to approve contract use for users\r\ncontract ProxyRegistry {\r\n    mapping(address => OwnableDelegateProxy) public proxies;\r\n}\r\n\r\nabstract contract SchnoodleNFTBase is Initializable, ERC721Upgradeable, ERC721URIStorageUpgradeable, ERC721BurnableUpgradeable, AccessControlUpgradeable, UUPSUpgradeable {\r\n    using CountersUpgradeable for CountersUpgradeable.Counter;\r\n\r\n    bytes32 public constant MINTER_ROLE = keccak256(\"MINTER_ROLE\");\r\n    bytes32 public constant UPGRADER_ROLE = keccak256(\"UPGRADER_ROLE\");\r\n    CountersUpgradeable.Counter private _tokenIdCounter;\r\n    string private _baseUri;\r\n    address private _proxyRegistryAddress;\r\n\r\n    function __SchnoodleNFTBase_init(string memory name, string memory symbol, string memory baseUri, address proxyRegistryAddress) internal initializer {\r\n        __ERC721_init(name, symbol);\r\n        __ERC721URIStorage_init();\r\n        __ERC721Burnable_init();\r\n        __AccessControl_init();\r\n        __UUPSUpgradeable_init();\r\n\r\n        _grantRole(DEFAULT_ADMIN_ROLE, _msgSender());\r\n        _grantRole(MINTER_ROLE, _msgSender());\r\n        _grantRole(UPGRADER_ROLE, _msgSender());\r\n\r\n        _baseUri = baseUri;\r\n        _proxyRegistryAddress = proxyRegistryAddress;\r\n    }\r\n\r\n    function safeMint(address to, string memory uri) public onlyRole(MINTER_ROLE) {\r\n        uint256 tokenId = _tokenIdCounter.current();\r\n        _tokenIdCounter.increment();\r\n        _safeMint(to, tokenId);\r\n        _setTokenURI(tokenId, uri);\r\n    }\r\n\r\n    function _authorizeUpgrade(address newImplementation) internal onlyRole(UPGRADER_ROLE) override {\r\n    }\r\n\r\n    function _baseURI() internal view override returns (string memory) {\r\n        return _baseUri;\r\n    }\r\n\r\n    /// Override to whitelist user's OpenSea proxy accounts to enable gasless listings\r\n    function isApprovedForAll(address owner, address operatorAddress) public view override returns (bool)\r\n    {\r\n        // Whitelist OpenSea proxy contract for easy trading\r\n        ProxyRegistry proxyRegistry = ProxyRegistry(_proxyRegistryAddress);\r\n        if (address(proxyRegistry.proxies(owner)) == operatorAddress) {\r\n            return true;\r\n        }\r\n\r\n        return super.isApprovedForAll(owner, operatorAddress);\r\n    }\r\n\r\n    // The following functions are overrides required by Solidity.\r\n\r\n    function _burn(uint256 tokenId) internal override(ERC721Upgradeable, ERC721URIStorageUpgradeable) {\r\n        super._burn(tokenId);\r\n    }\r\n\r\n    function tokenURI(uint256 tokenId) public view override(ERC721Upgradeable, ERC721URIStorageUpgradeable) returns (string memory) {\r\n        return super.tokenURI(tokenId);\r\n    }\r\n\r\n    function supportsInterface(bytes4 interfaceId) public view override(ERC721Upgradeable, AccessControlUpgradeable) returns (bool) {\r\n        return super.supportsInterface(interfaceId);\r\n    }\r\n}\r\n",
  "sourcePath": "C:\\Users\\micro\\OneDrive - X-treem Software\\Development\\Projects\\Blockchain\\Schnoodle\\contracts\\contracts\\imports\\SchnoodleNFTBase.sol",
  "compiler": {
    "name": "solc",
    "version": "0.8.14+commit.80d49f37.Emscripten.clang"
  },
  "schemaVersion": "3.4.3",
  "updatedAt": "2022-06-12T23:01:02.714Z",
  "devdoc": {
    "kind": "dev",
    "methods": {},
    "version": 1
  },
  "userdoc": {
    "kind": "user",
    "methods": {},
    "notice": "Used to delegate ownership of a contract to another address, to save on unneeded transactions to approve contract use for users",
    "version": 1
  }
}