{
  "contractName": "SchnoodleV6",
  "abi": [
    {
      "anonymous": false,
      "inputs": [
        {
          "indexed": true,
          "internalType": "address",
          "name": "owner",
          "type": "address"
        },
        {
          "indexed": true,
          "internalType": "address",
          "name": "spender",
          "type": "address"
        },
        {
          "indexed": false,
          "internalType": "uint256",
          "name": "value",
          "type": "uint256"
        }
      ],
      "name": "Approval",
      "type": "event"
    },
    {
      "anonymous": false,
      "inputs": [
        {
          "indexed": true,
          "internalType": "address",
          "name": "operator",
          "type": "address"
        },
        {
          "indexed": true,
          "internalType": "address",
          "name": "tokenHolder",
          "type": "address"
        }
      ],
      "name": "AuthorizedOperator",
      "type": "event"
    },
    {
      "anonymous": false,
      "inputs": [
        {
          "indexed": true,
          "internalType": "address",
          "name": "operator",
          "type": "address"
        },
        {
          "indexed": true,
          "internalType": "address",
          "name": "from",
          "type": "address"
        },
        {
          "indexed": false,
          "internalType": "uint256",
          "name": "amount",
          "type": "uint256"
        },
        {
          "indexed": false,
          "internalType": "bytes",
          "name": "data",
          "type": "bytes"
        },
        {
          "indexed": false,
          "internalType": "bytes",
          "name": "operatorData",
          "type": "bytes"
        }
      ],
      "name": "Burned",
      "type": "event"
    },
    {
      "anonymous": false,
      "inputs": [
        {
          "indexed": true,
          "internalType": "address",
          "name": "account",
          "type": "address"
        },
        {
          "indexed": false,
          "internalType": "uint256",
          "name": "rate",
          "type": "uint256"
        }
      ],
      "name": "EleemosynaryChanged",
      "type": "event"
    },
    {
      "anonymous": false,
      "inputs": [
        {
          "indexed": false,
          "internalType": "uint256",
          "name": "rate",
          "type": "uint256"
        }
      ],
      "name": "FeeRateChanged",
      "type": "event"
    },
    {
      "anonymous": false,
      "inputs": [
        {
          "indexed": true,
          "internalType": "address",
          "name": "operator",
          "type": "address"
        },
        {
          "indexed": true,
          "internalType": "address",
          "name": "to",
          "type": "address"
        },
        {
          "indexed": false,
          "internalType": "uint256",
          "name": "amount",
          "type": "uint256"
        },
        {
          "indexed": false,
          "internalType": "bytes",
          "name": "data",
          "type": "bytes"
        },
        {
          "indexed": false,
          "internalType": "bytes",
          "name": "operatorData",
          "type": "bytes"
        }
      ],
      "name": "Minted",
      "type": "event"
    },
    {
      "anonymous": false,
      "inputs": [
        {
          "indexed": true,
          "internalType": "address",
          "name": "previousOwner",
          "type": "address"
        },
        {
          "indexed": true,
          "internalType": "address",
          "name": "newOwner",
          "type": "address"
        }
      ],
      "name": "OwnershipTransferred",
      "type": "event"
    },
    {
      "anonymous": false,
      "inputs": [
        {
          "indexed": true,
          "internalType": "address",
          "name": "operator",
          "type": "address"
        },
        {
          "indexed": true,
          "internalType": "address",
          "name": "tokenHolder",
          "type": "address"
        }
      ],
      "name": "RevokedOperator",
      "type": "event"
    },
    {
      "anonymous": false,
      "inputs": [
        {
          "indexed": true,
          "internalType": "address",
          "name": "operator",
          "type": "address"
        },
        {
          "indexed": true,
          "internalType": "address",
          "name": "from",
          "type": "address"
        },
        {
          "indexed": true,
          "internalType": "address",
          "name": "to",
          "type": "address"
        },
        {
          "indexed": false,
          "internalType": "uint256",
          "name": "amount",
          "type": "uint256"
        },
        {
          "indexed": false,
          "internalType": "bytes",
          "name": "data",
          "type": "bytes"
        },
        {
          "indexed": false,
          "internalType": "bytes",
          "name": "operatorData",
          "type": "bytes"
        }
      ],
      "name": "Sent",
      "type": "event"
    },
    {
      "anonymous": false,
      "inputs": [
        {
          "indexed": true,
          "internalType": "address",
          "name": "from",
          "type": "address"
        },
        {
          "indexed": true,
          "internalType": "address",
          "name": "to",
          "type": "address"
        },
        {
          "indexed": false,
          "internalType": "uint256",
          "name": "value",
          "type": "uint256"
        }
      ],
      "name": "Transfer",
      "type": "event"
    },
    {
      "inputs": [
        {
          "internalType": "address",
          "name": "operator",
          "type": "address"
        }
      ],
      "name": "authorizeOperator",
      "outputs": [],
      "stateMutability": "nonpayable",
      "type": "function"
    },
    {
      "inputs": [
        {
          "internalType": "uint256",
          "name": "amount",
          "type": "uint256"
        },
        {
          "internalType": "bytes",
          "name": "data",
          "type": "bytes"
        }
      ],
      "name": "burn",
      "outputs": [],
      "stateMutability": "nonpayable",
      "type": "function"
    },
    {
      "inputs": [],
      "name": "decimals",
      "outputs": [
        {
          "internalType": "uint8",
          "name": "",
          "type": "uint8"
        }
      ],
      "stateMutability": "pure",
      "type": "function",
      "constant": true
    },
    {
      "inputs": [],
      "name": "defaultOperators",
      "outputs": [
        {
          "internalType": "address[]",
          "name": "",
          "type": "address[]"
        }
      ],
      "stateMutability": "view",
      "type": "function",
      "constant": true
    },
    {
      "inputs": [],
      "name": "granularity",
      "outputs": [
        {
          "internalType": "uint256",
          "name": "",
          "type": "uint256"
        }
      ],
      "stateMutability": "view",
      "type": "function",
      "constant": true
    },
    {
      "inputs": [
        {
          "internalType": "address",
          "name": "operator",
          "type": "address"
        },
        {
          "internalType": "address",
          "name": "tokenHolder",
          "type": "address"
        }
      ],
      "name": "isOperatorFor",
      "outputs": [
        {
          "internalType": "bool",
          "name": "",
          "type": "bool"
        }
      ],
      "stateMutability": "view",
      "type": "function",
      "constant": true
    },
    {
      "inputs": [],
      "name": "name",
      "outputs": [
        {
          "internalType": "string",
          "name": "",
          "type": "string"
        }
      ],
      "stateMutability": "view",
      "type": "function",
      "constant": true
    },
    {
      "inputs": [
        {
          "internalType": "address",
          "name": "account",
          "type": "address"
        },
        {
          "internalType": "uint256",
          "name": "amount",
          "type": "uint256"
        },
        {
          "internalType": "bytes",
          "name": "data",
          "type": "bytes"
        },
        {
          "internalType": "bytes",
          "name": "operatorData",
          "type": "bytes"
        }
      ],
      "name": "operatorBurn",
      "outputs": [],
      "stateMutability": "nonpayable",
      "type": "function"
    },
    {
      "inputs": [
        {
          "internalType": "address",
          "name": "sender",
          "type": "address"
        },
        {
          "internalType": "address",
          "name": "recipient",
          "type": "address"
        },
        {
          "internalType": "uint256",
          "name": "amount",
          "type": "uint256"
        },
        {
          "internalType": "bytes",
          "name": "data",
          "type": "bytes"
        },
        {
          "internalType": "bytes",
          "name": "operatorData",
          "type": "bytes"
        }
      ],
      "name": "operatorSend",
      "outputs": [],
      "stateMutability": "nonpayable",
      "type": "function"
    },
    {
      "inputs": [],
      "name": "owner",
      "outputs": [
        {
          "internalType": "address",
          "name": "",
          "type": "address"
        }
      ],
      "stateMutability": "view",
      "type": "function",
      "constant": true
    },
    {
      "inputs": [],
      "name": "renounceOwnership",
      "outputs": [],
      "stateMutability": "nonpayable",
      "type": "function"
    },
    {
      "inputs": [
        {
          "internalType": "address",
          "name": "operator",
          "type": "address"
        }
      ],
      "name": "revokeOperator",
      "outputs": [],
      "stateMutability": "nonpayable",
      "type": "function"
    },
    {
      "inputs": [
        {
          "internalType": "address",
          "name": "recipient",
          "type": "address"
        },
        {
          "internalType": "uint256",
          "name": "amount",
          "type": "uint256"
        },
        {
          "internalType": "bytes",
          "name": "data",
          "type": "bytes"
        }
      ],
      "name": "send",
      "outputs": [],
      "stateMutability": "nonpayable",
      "type": "function"
    },
    {
      "inputs": [],
      "name": "symbol",
      "outputs": [
        {
          "internalType": "string",
          "name": "",
          "type": "string"
        }
      ],
      "stateMutability": "view",
      "type": "function",
      "constant": true
    },
    {
      "inputs": [
        {
          "internalType": "address",
          "name": "newOwner",
          "type": "address"
        }
      ],
      "name": "transferOwnership",
      "outputs": [],
      "stateMutability": "nonpayable",
      "type": "function"
    },
    {
      "inputs": [
        {
          "internalType": "string",
          "name": "name",
          "type": "string"
        },
        {
          "internalType": "string",
          "name": "symbol",
          "type": "string"
        },
        {
          "internalType": "address[]",
          "name": "defaultOperators",
          "type": "address[]"
        },
        {
          "internalType": "uint256",
          "name": "initialSupply",
          "type": "uint256"
        },
        {
          "internalType": "address",
          "name": "owner",
          "type": "address"
        }
      ],
      "name": "initialize",
      "outputs": [],
      "stateMutability": "nonpayable",
      "type": "function"
    },
    {
      "inputs": [
        {
          "internalType": "uint256",
          "name": "initialTokens",
          "type": "uint256"
        },
        {
          "internalType": "address",
          "name": "serviceAccount",
          "type": "address"
        }
      ],
      "name": "initialize",
      "outputs": [],
      "stateMutability": "nonpayable",
      "type": "function"
    },
    {
      "inputs": [],
      "name": "totalSupply",
      "outputs": [
        {
          "internalType": "uint256",
          "name": "",
          "type": "uint256"
        }
      ],
      "stateMutability": "view",
      "type": "function",
      "constant": true
    },
    {
      "inputs": [
        {
          "internalType": "address",
          "name": "account",
          "type": "address"
        }
      ],
      "name": "balanceOf",
      "outputs": [
        {
          "internalType": "uint256",
          "name": "",
          "type": "uint256"
        }
      ],
      "stateMutability": "view",
      "type": "function",
      "constant": true
    },
    {
      "inputs": [
        {
          "internalType": "address",
          "name": "recipient",
          "type": "address"
        },
        {
          "internalType": "uint256",
          "name": "amount",
          "type": "uint256"
        }
      ],
      "name": "transfer",
      "outputs": [
        {
          "internalType": "bool",
          "name": "",
          "type": "bool"
        }
      ],
      "stateMutability": "nonpayable",
      "type": "function"
    },
    {
      "inputs": [
        {
          "internalType": "address",
          "name": "holder",
          "type": "address"
        },
        {
          "internalType": "address",
          "name": "spender",
          "type": "address"
        }
      ],
      "name": "allowance",
      "outputs": [
        {
          "internalType": "uint256",
          "name": "",
          "type": "uint256"
        }
      ],
      "stateMutability": "view",
      "type": "function",
      "constant": true
    },
    {
      "inputs": [
        {
          "internalType": "address",
          "name": "spender",
          "type": "address"
        },
        {
          "internalType": "uint256",
          "name": "value",
          "type": "uint256"
        }
      ],
      "name": "approve",
      "outputs": [
        {
          "internalType": "bool",
          "name": "",
          "type": "bool"
        }
      ],
      "stateMutability": "nonpayable",
      "type": "function"
    },
    {
      "inputs": [
        {
          "internalType": "address",
          "name": "sender",
          "type": "address"
        },
        {
          "internalType": "address",
          "name": "recipient",
          "type": "address"
        },
        {
          "internalType": "uint256",
          "name": "amount",
          "type": "uint256"
        }
      ],
      "name": "transferFrom",
      "outputs": [
        {
          "internalType": "bool",
          "name": "",
          "type": "bool"
        }
      ],
      "stateMutability": "nonpayable",
      "type": "function"
    },
    {
      "inputs": [
        {
          "internalType": "uint256",
          "name": "rate",
          "type": "uint256"
        }
      ],
      "name": "changeFeeRate",
      "outputs": [],
      "stateMutability": "nonpayable",
      "type": "function"
    },
    {
      "inputs": [
        {
          "internalType": "uint256",
          "name": "rate",
          "type": "uint256"
        }
      ],
      "name": "changeFeePercent",
      "outputs": [],
      "stateMutability": "nonpayable",
      "type": "function"
    },
    {
      "inputs": [
        {
          "internalType": "address",
          "name": "account",
          "type": "address"
        },
        {
          "internalType": "uint256",
          "name": "rate",
          "type": "uint256"
        }
      ],
      "name": "changeEleemosynary",
      "outputs": [],
      "stateMutability": "nonpayable",
      "type": "function"
    },
    {
      "inputs": [],
      "name": "maintenance",
      "outputs": [],
      "stateMutability": "nonpayable",
      "type": "function"
    }
  ],
  "bytecode": "0x608060405234801561001057600080fd5b50612d93806100206000396000f3fe608060405234801561001057600080fd5b50600436106101a95760003560e01c8063768f950a116100f9578063d95b637111610097578063f2fde38b11610071578063f2fde38b14610345578063fad8b32a14610358578063fc673c4f1461036b578063fe9d93031461037e57600080fd5b8063d95b63711461030c578063da35a26f1461031f578063dd62ed3e1461033257600080fd5b806395d89b41116100d357806395d89b41146102de5780639bd9bbc6146102e6578063a9059cbb146102f9578063affca9321461024d57600080fd5b8063768f950a1461029d5780638da5cb5b146102b0578063959b8c3f146102cb57600080fd5b8063313ce5671161016657806362ad1b831161014057806362ad1b83146102675780636c376cc51461027a57806370a0823114610282578063715018a61461029557600080fd5b8063313ce5671461023e57806334eddf3e1461024d578063556f0dc71461026057600080fd5b806306e48538146101ae57806306fdde03146101cc578063095ea7b3146101e157806318160ddd1461020457806323b872dd146102165780632f5d146714610229575b600080fd5b6101b6610391565b6040516101c3919061242d565b60405180910390f35b6101d46103f3565b6040516101c391906124c7565b6101f46101ef3660046124ff565b61047c565b60405190151581526020016101c3565b60c9545b6040519081526020016101c3565b6101f461022436600461252b565b610499565b61023c6102373660046124ff565b610508565b005b604051601281526020016101c3565b61023c61025b36600461256c565b610595565b6001610208565b61023c61027536600461263c565b6105fa565b61023c610636565b6102086102903660046126cf565b610745565b61023c6107f1565b61023c6102ab3660046126ec565b610827565b6097546040516001600160a01b0390911681526020016101c3565b61023c6102d93660046126cf565b6108a5565b6101d46109c3565b61023c6102f43660046127ff565b6109d2565b6101f46103073660046124ff565b6109f5565b6101f461031a366004612858565b610a62565b61023c61032d366004612891565b610b03565b610208610340366004612858565b610bff565b61023c6103533660046126cf565b610c39565b61023c6103663660046126cf565b610cd4565b61023c6103793660046128b6565b610df0565b61023c61038c366004612936565b610e28565b606060378054806020026020016040519081016040528092919081815260200182805480156103e957602002820191906000526020600020905b81546001600160a01b031681526001909101906020018083116103cb575b5050505050905090565b6060603580546104029061297d565b80601f016020809104026020016040519081016040528092919081815260200182805461042e9061297d565b80156103e95780601f10610450576101008083540402835291602001916103e9565b820191906000526020600020905b81548152906001019060200180831161045e57509395945050505050565b60006104908361048b84610e47565b610e5b565b90505b92915050565b6000806104a583610e47565b905060006104b4868684610e73565b9050846001600160a01b0316866001600160a01b0316600080516020612d3e833981519152866040516104e991815260200190565b60405180910390a36104ff858584611033611055565b95945050505050565b6097546001600160a01b0316331461053b5760405162461bcd60e51b8152600401610532906129b8565b60405180910390fd5b60cb80546001600160a01b0319166001600160a01b03841690811790915560cc8290556040518281527f14771002f2414c27e60fe966b41bcb8004589b44c52a1f73016757cc92bf5ada9060200160405180910390a25050565b6097546001600160a01b031633146105bf5760405162461bcd60e51b8152600401610532906129b8565b60ca8190556040518181527fdd72d2879718489eb363ba6099239f89d49542612862c71545503d35cfddda469060200160405180910390a150565b6106043386610a62565b6106205760405162461bcd60e51b8152600401610532906129ed565b61062f8585858585600161111e565b5050505050565b6097546001600160a01b031633146106605760405162461bcd60e51b8152600401610532906129b8565b605060ca557379a1dda6625dc4842625ef05591e4f2322232120735d22e32398cae8f8448df5491b50c39b7f271016733443036e7c2dfc1f09a309c96b502b4f20f32e4273a51dc67ec00a9b082ec1ebc4a901a9cb447e30e460006106c484610745565b6106cd86610745565b6106d79190612a4f565b905060006106e483610745565b6106ed85610745565b6106f79084612a4f565b6107019190612a4f565b90506000610722610713600384612a7d565b61071d9085612a91565b610e47565b905061073087335b8361118b565b61073b878583610e73565b5050505050505050565b6001600160a01b0381166000908152603360205260408120546034548111156107d8576040805162461bcd60e51b81526020600482015260248101919091527f5363686e6f6f646c653a205265666c65637465642062616c616e6365206d757360448201527f74206265206c657373207468616e20746f74616c207265666c656374696f6e736064820152608401610532565b6107e06112b3565b6107ea9082612a7d565b9392505050565b6097546001600160a01b0316331461081b5760405162461bcd60e51b8152600401610532906129b8565b61082560006112d0565b565b600054610100900460ff1680610840575060005460ff16155b61085c5760405162461bcd60e51b815260040161053290612aa8565b600054610100900460ff1615801561087e576000805461ffff19166101011790555b61088b8686868686611322565b801561089d576000805461ff00191690555b505050505050565b336001600160a01b038216141561090a5760405162461bcd60e51b8152602060048201526024808201527f4552433737373a20617574686f72697a696e672073656c66206173206f70657260448201526330ba37b960e11b6064820152608401610532565b6001600160a01b03811660009081526038602052604090205460ff161561095b57336000908152603a602090815260408083206001600160a01b03851684529091529020805460ff1916905561098a565b3360009081526039602090815260408083206001600160a01b03851684529091529020805460ff191660011790555b60405133906001600160a01b038316907ff4caeb2d6ca8932a215a353d0703c326ec2d81fc68170f320eb2ab49e9df61f990600090a350565b6060603680546104029061297d565b6109f03384848460405180602001604052806000815250600161111e565b505050565b600080610a0183610e47565b90506000610a0f8583611399565b90506001600160a01b038516336001600160a01b0316600080516020612d3e83398151915286604051610a4491815260200190565b60405180910390a3610a5a858584611033611055565b949350505050565b6000816001600160a01b0316836001600160a01b03161480610acd57506001600160a01b03831660009081526038602052604090205460ff168015610acd57506001600160a01b038083166000908152603a602090815260408083209387168352929052205460ff16155b806104905750506001600160a01b0390811660009081526039602090815260408083209490931682529290925290205460ff1690565b600054610100900460ff1680610b1c575060005460ff16155b610b385760405162461bcd60e51b815260040161053290612aa8565b600054610100900460ff16158015610b5a576000805461ffff19166101011790555b610b6261144c565b610b6e6012600a612bda565b610b789084612be9565b60c981905560408051808201825260098152685363686e6f6f646c6560b81b60208083019190915282518084018452600581526414d393d3d160da1b81830152835160008152918201909352610be993919291610bd790600019612c08565b610be390600019612a91565b86610827565b80156109f0576000805461ff0019169055505050565b6000610c096112b3565b6001600160a01b038085166000908152603b60209081526040808320938716835292905220546104909190612a7d565b6097546001600160a01b03163314610c635760405162461bcd60e51b8152600401610532906129b8565b6001600160a01b038116610cc85760405162461bcd60e51b815260206004820152602660248201527f4f776e61626c653a206e6577206f776e657220697320746865207a65726f206160448201526564647265737360d01b6064820152608401610532565b610cd1816112d0565b50565b6001600160a01b038116331415610d375760405162461bcd60e51b815260206004820152602160248201527f4552433737373a207265766f6b696e672073656c66206173206f70657261746f6044820152603960f91b6064820152608401610532565b6001600160a01b03811660009081526038602052604090205460ff1615610d8b57336000908152603a602090815260408083206001600160a01b03851684529091529020805460ff19166001179055610db7565b3360009081526039602090815260408083206001600160a01b03851684529091529020805460ff191690555b60405133906001600160a01b038316907f50546e66e5f44d728365dc3908c63bc5cfeeab470722c1677e3073a6ac294aa190600090a350565b610dfa3385610a62565b610e165760405162461bcd60e51b8152600401610532906129ed565b610e22848484846114c7565b50505050565b610e43338383604051806020016040528060008152506114c7565b5050565b6000610e516112b3565b6104939083612be9565b600033610e6981858561118b565b5060019392505050565b60006001600160a01b038316610e9b5760405162461bcd60e51b815260040161053290612c1c565b6001600160a01b038416610f005760405162461bcd60e51b815260206004820152602660248201527f4552433737373a207472616e736665722066726f6d20746865207a65726f206160448201526564647265737360d01b6064820152608401610532565b6000339050610f318186868660405180602001604052806000815250604051806020016040528060008152506114f8565b610f5d81868686604051806020016040528060008152506040518060200160405280600081525061162e565b6001600160a01b038086166000908152603b602090815260408083209385168352929052205483811015610fe55760405162461bcd60e51b815260206004820152602960248201527f4552433737373a207472616e7366657220616d6f756e74206578636565647320604482015268616c6c6f77616e636560b81b6064820152608401610532565b610ff98683610ff48785612a91565b61118b565b611027828787876040518060200160405280600081525060405180602001604052806000815250600061178e565b50600195945050505050565b61103d823361072a565b60cb546109f09083906001600160a01b031683610e73565b6001600160a01b038416730f6b0960d2569f505126341085ed7f0342b67dae1461107e57610e22565b611089848484611958565b60cb546001600160a01b031615610e225760006103e860cc54856110ad9190612be9565b6110b79190612a7d565b905060006110c482610e47565b90506110d486828563ffffffff16565b60cb546040518381526001600160a01b0391821691881690600080516020612d3e8339815191529060200160405180910390a360cb5461089d906001600160a01b03168383611958565b600061112985610e47565b90506111398787838787876119e9565b856001600160a01b0316876001600160a01b0316600080516020612d3e8339815191528760405161116c91815260200190565b60405180910390a3611182868683611acc611055565b50505050505050565b6001600160a01b0383166111ef5760405162461bcd60e51b815260206004820152602560248201527f4552433737373a20617070726f76652066726f6d20746865207a65726f206164604482015264647265737360d81b6064820152608401610532565b6001600160a01b0382166112515760405162461bcd60e51b815260206004820152602360248201527f4552433737373a20617070726f766520746f20746865207a65726f206164647260448201526265737360e81b6064820152608401610532565b6001600160a01b038381166000818152603b602090815260408083209487168084529482529182902085905590518481527f8c5be1e5ebec7d5bd14f71427d1e84f3dd0314c0f7b2291e5b200ac8c7c3b92591015b60405180910390a3505050565b60006112be60c95490565b6034546112cb9190612a7d565b905090565b609780546001600160a01b038381166001600160a01b0319831681179093556040519116919082907f8be0079c531659141344cd1fd0a4f28419497f9722a3daafe3b4186f6b6457e090600090a35050565b600054610100900460ff168061133b575060005460ff16155b6113575760405162461bcd60e51b815260040161053290612aa8565b600054610100900460ff16158015611379576000805461ffff19166101011790555b611381611b05565b61138c868686611b6f565b61088b8686868686611da4565b60006001600160a01b0383166113c15760405162461bcd60e51b815260040161053290612c1c565b60003390506113f28182868660405180602001604052806000815250604051806020016040528060008152506114f8565b61141e81828686604051806020016040528060008152506040518060200160405280600081525061162e565b610e69818286866040518060200160405280600081525060405180602001604052806000815250600061178e565b600054610100900460ff1680611465575060005460ff16155b6114815760405162461bcd60e51b815260040161053290612aa8565b600054610100900460ff161580156114a3576000805461ffff19166101011790555b6114ab611b05565b6114b3611e25565b8015610cd1576000805461ff001916905550565b6114db846114d485610e47565b8484611e85565b8260c960008282546114ed9190612a91565b909155505050505050565b60405163555ddc6560e11b81526001600160a01b03861660048201527f29ddb589b1fb5fc7cf394961c1adf5f8c6454761adf795e67fe149f658abe8956024820152600090731820a4b7618bde71dce8cdc73aab6c95905fad249063aabbb8ca9060440160206040518083038186803b15801561157457600080fd5b505afa158015611588573d6000803e3d6000fd5b505050506040513d601f19601f820116820180604052508101906115ac9190612c60565b90506001600160a01b0381161561118257604051633ad5cbc160e11b81526001600160a01b038216906375ab9782906115f3908a908a908a908a908a908a90600401612c7d565b600060405180830381600087803b15801561160d57600080fd5b505af1158015611621573d6000803e3d6000fd5b5050505050505050505050565b61163a86868686612035565b6001600160a01b038516600090815260336020526040902054838110156116b35760405162461bcd60e51b815260206004820152602760248201527f4552433737373a207472616e7366657220616d6f756e7420657863656564732060448201526662616c616e636560c81b6064820152608401610532565b6001600160a01b038087166000908152603360205260408082208785039055918716815290812080548692906116ea908490612a4f565b92505081905550846001600160a01b0316866001600160a01b0316886001600160a01b03167f06b541ddaa720db2b10a4d0cdac39b8d360425fc073085fac19bc8261467798787878760405161174293929190612cd7565b60405180910390a4846001600160a01b0316866001600160a01b0316600080516020612d3e8339815191528660405161177d91815260200190565b60405180910390a350505050505050565b60405163555ddc6560e11b81526001600160a01b03861660048201527fb281fc8c12954d22544db45de3159a39272895b169a852b314f9cc762e44c53b6024820152600090731820a4b7618bde71dce8cdc73aab6c95905fad249063aabbb8ca9060440160206040518083038186803b15801561180a57600080fd5b505afa15801561181e573d6000803e3d6000fd5b505050506040513d601f19601f820116820180604052508101906118429190612c60565b90506001600160a01b038116156118be576040516223de2960e01b81526001600160a01b038216906223de2990611887908b908b908b908b908b908b90600401612c7d565b600060405180830381600087803b1580156118a157600080fd5b505af11580156118b5573d6000803e3d6000fd5b5050505061073b565b811561073b576001600160a01b0386163b1561073b5760405162461bcd60e51b815260206004820152604d60248201527f4552433737373a20746f6b656e20726563697069656e7420636f6e747261637460448201527f20686173206e6f20696d706c656d656e74657220666f7220455243373737546f60648201526c1ad95b9cd49958da5c1a595b9d609a1b608482015260a401610532565b61199c8360ca546103e88461196d9190612a7d565b6119779190612be9565b6040518060200160405280600081525060405180602001604052806000815250611e85565b60006001600160a01b0316836001600160a01b0316600080516020612d3e8339815191526103e860ca54866119d19190612be9565b6119db9190612a7d565b6040519081526020016112a6565b6001600160a01b038616611a4a5760405162461bcd60e51b815260206004820152602260248201527f4552433737373a2073656e642066726f6d20746865207a65726f206164647265604482015261737360f01b6064820152608401610532565b6001600160a01b038516611aa05760405162461bcd60e51b815260206004820181905260248201527f4552433737373a2073656e6420746f20746865207a65726f20616464726573736044820152606401610532565b33611aaf8188888888886114f8565b611abd81888888888861162e565b6111828188888888888861178e565b60cb54604080516020808201835260008083528351918201909352918252610e439285926001600160a01b0390911691859160016119e9565b600054610100900460ff1680611b1e575060005460ff16155b611b3a5760405162461bcd60e51b815260040161053290612aa8565b600054610100900460ff161580156114b3576000805461ffff19166101011790558015610cd1576000805461ff001916905550565b600054610100900460ff1680611b88575060005460ff16155b611ba45760405162461bcd60e51b815260040161053290612aa8565b600054610100900460ff16158015611bc6576000805461ffff19166101011790555b8351611bd990603590602087019061233f565b508251611bed90603690602086019061233f565b508151611c019060379060208501906123c3565b5060005b8251811015611c6a57600160386000858481518110611c2657611c26612d0c565b6020908102919091018101516001600160a01b03168252810191909152604001600020805460ff191691151591909117905580611c6281612d22565b915050611c05565b506040516329965a1d60e01b815230600482018190527fac7fbab5f54a3ca8194167523c6753bfeb96a445279294b6125b68cce217705460248301526044820152731820a4b7618bde71dce8cdc73aab6c95905fad24906329965a1d90606401600060405180830381600087803b158015611ce457600080fd5b505af1158015611cf8573d6000803e3d6000fd5b50506040516329965a1d60e01b815230600482018190527faea199e31a596269b42cdafd93407f14436db6e4cad65417994c2eb37381e05a60248301526044820152731820a4b7618bde71dce8cdc73aab6c95905fad2492506329965a1d9150606401600060405180830381600087803b158015611d7557600080fd5b505af1158015611d89573d6000803e3d6000fd5b505050508015610e22576000805461ff001916905550505050565b600054610100900460ff1680611dbd575060005460ff16155b611dd95760405162461bcd60e51b815260040161053290612aa8565b600054610100900460ff16158015611dfb576000805461ffff19166101011790555b61088b828460405180602001604052806000815250604051806020016040528060008152506121d7565b600054610100900460ff1680611e3e575060005460ff16155b611e5a5760405162461bcd60e51b815260040161053290612aa8565b600054610100900460ff16158015611e7c576000805461ffff19166101011790555b6114b3336112d0565b6001600160a01b038416611ee65760405162461bcd60e51b815260206004820152602260248201527f4552433737373a206275726e2066726f6d20746865207a65726f206164647265604482015261737360f01b6064820152608401610532565b33611ef6818660008787876114f8565b611f038186600087612035565b6001600160a01b03851660009081526033602052604090205484811015611f785760405162461bcd60e51b815260206004820152602360248201527f4552433737373a206275726e20616d6f756e7420657863656564732062616c616044820152626e636560e81b6064820152608401610532565b6001600160a01b0386166000908152603360205260408120868303905560348054879290611fa7908490612a91565b92505081905550856001600160a01b0316826001600160a01b03167fa78a9be3a7b862d26933ad85fb11d80ef66b8f972d7cbba06621d583943a4098878787604051611ff593929190612cd7565b60405180910390a36040518581526000906001600160a01b03881690600080516020612d3e833981519152906020015b60405180910390a3505050505050565b6001600160a01b038216730f6b0960d2569f505126341085ed7f0342b67dae14156121d2576001600160a01b038316600090815260cd60205260409020426120806201518082612a91565b8254101561209357808255600060018301555b600061209d6112b3565b6120a79085612a7d565b9050808360010160008282546120bd9190612a4f565b9091555060009050612115600a6120f06120d68a610745565b60646120e160c95490565b6120eb9190612a7d565b6121e5565b6120fa9190612a7d565b61271061210660c95490565b6121109190612a7d565b6121fb565b905080846001015411156121cd5760405162461bcd60e51b815260206004820152606d60248201527f5363686e6f6f646c653a205472616e7366657220616d6f756e7420657863656560448201527f64732073656c6c206c696d697420646566696e6564206173206d61782831207060648201527f65726d696c206f662054532c206d696e28313025206f662062616c616e63652c60848201526c2031206270206f66205453292960981b60a482015260c401610532565b505050505b610e22565b610e2284848484600161220b565b60008183106121f45781610490565b5090919050565b6000818310156121f45781610490565b6001600160a01b0385166122615760405162461bcd60e51b815260206004820181905260248201527f4552433737373a206d696e7420746f20746865207a65726f20616464726573736044820152606401610532565b3361226f8160008888612035565b84603460008282546122819190612a4f565b90915550506001600160a01b038616600090815260336020526040812080548792906122ae908490612a4f565b909155506122c49050816000888888888861178e565b856001600160a01b0316816001600160a01b03167f2fe5be0146f74c5bce36c0b80911af6c7d86ff27e89d5cfa61fc681327954e5d87878760405161230b93929190612cd7565b60405180910390a36040518581526001600160a01b03871690600090600080516020612d3e83398151915290602001612025565b82805461234b9061297d565b90600052602060002090601f01602090048101928261236d57600085556123b3565b82601f1061238657805160ff19168380011785556123b3565b828001600101855582156123b3579182015b828111156123b3578251825591602001919060010190612398565b506123bf929150612418565b5090565b8280548282559060005260206000209081019282156123b3579160200282015b828111156123b357825182546001600160a01b0319166001600160a01b039091161782556020909201916001909101906123e3565b5b808211156123bf5760008155600101612419565b6020808252825182820181905260009190848201906040850190845b8181101561246e5783516001600160a01b031683529284019291840191600101612449565b50909695505050505050565b6000815180845260005b818110156124a057602081850181015186830182015201612484565b818111156124b2576000602083870101525b50601f01601f19169290920160200192915050565b602081526000610490602083018461247a565b6001600160a01b0381168114610cd157600080fd5b80356124fa816124da565b919050565b6000806040838503121561251257600080fd5b823561251d816124da565b946020939093013593505050565b60008060006060848603121561254057600080fd5b833561254b816124da565b9250602084013561255b816124da565b929592945050506040919091013590565b60006020828403121561257e57600080fd5b5035919050565b634e487b7160e01b600052604160045260246000fd5b604051601f8201601f1916810167ffffffffffffffff811182821017156125c4576125c4612585565b604052919050565b600082601f8301126125dd57600080fd5b813567ffffffffffffffff8111156125f7576125f7612585565b61260a601f8201601f191660200161259b565b81815284602083860101111561261f57600080fd5b816020850160208301376000918101602001919091529392505050565b600080600080600060a0868803121561265457600080fd5b853561265f816124da565b9450602086013561266f816124da565b935060408601359250606086013567ffffffffffffffff8082111561269357600080fd5b61269f89838a016125cc565b935060808801359150808211156126b557600080fd5b506126c2888289016125cc565b9150509295509295909350565b6000602082840312156126e157600080fd5b81356107ea816124da565b600080600080600060a0868803121561270457600080fd5b853567ffffffffffffffff8082111561271c57600080fd5b61272889838a016125cc565b965060209150818801358181111561273f57600080fd5b61274b8a828b016125cc565b96505060408801358181111561276057600080fd5b8801601f81018a1361277157600080fd5b80358281111561278357612783612585565b8060051b925061279484840161259b565b818152928201840192848101908c8511156127ae57600080fd5b928501925b848410156127d857833592506127c8836124da565b82825292850192908501906127b3565b9750505050606088013593506127f3915050608087016124ef565b90509295509295909350565b60008060006060848603121561281457600080fd5b833561281f816124da565b925060208401359150604084013567ffffffffffffffff81111561284257600080fd5b61284e868287016125cc565b9150509250925092565b6000806040838503121561286b57600080fd5b8235612876816124da565b91506020830135612886816124da565b809150509250929050565b600080604083850312156128a457600080fd5b823591506020830135612886816124da565b600080600080608085870312156128cc57600080fd5b84356128d7816124da565b935060208501359250604085013567ffffffffffffffff808211156128fb57600080fd5b612907888389016125cc565b9350606087013591508082111561291d57600080fd5b5061292a878288016125cc565b91505092959194509250565b6000806040838503121561294957600080fd5b82359150602083013567ffffffffffffffff81111561296757600080fd5b612973858286016125cc565b9150509250929050565b600181811c9082168061299157607f821691505b602082108114156129b257634e487b7160e01b600052602260045260246000fd5b50919050565b6020808252818101527f4f776e61626c653a2063616c6c6572206973206e6f7420746865206f776e6572604082015260600190565b6020808252602c908201527f4552433737373a2063616c6c6572206973206e6f7420616e206f70657261746f60408201526b39103337b9103437b63232b960a11b606082015260800190565b634e487b7160e01b600052601160045260246000fd5b60008219821115612a6257612a62612a39565b500190565b634e487b7160e01b600052601260045260246000fd5b600082612a8c57612a8c612a67565b500490565b600082821015612aa357612aa3612a39565b500390565b6020808252602e908201527f496e697469616c697a61626c653a20636f6e747261637420697320616c72656160408201526d191e481a5b9a5d1a585b1a5e995960921b606082015260800190565b600181815b80851115612b31578160001904821115612b1757612b17612a39565b80851615612b2457918102915b93841c9390800290612afb565b509250929050565b600082612b4857506001610493565b81612b5557506000610493565b8160018114612b6b5760028114612b7557612b91565b6001915050610493565b60ff841115612b8657612b86612a39565b50506001821b610493565b5060208310610133831016604e8410600b8410161715612bb4575081810a610493565b612bbe8383612af6565b8060001904821115612bd257612bd2612a39565b029392505050565b600061049060ff841683612b39565b6000816000190483118215151615612c0357612c03612a39565b500290565b600082612c1757612c17612a67565b500690565b60208082526024908201527f4552433737373a207472616e7366657220746f20746865207a65726f206164646040820152637265737360e01b606082015260800190565b600060208284031215612c7257600080fd5b81516107ea816124da565b6001600160a01b0387811682528681166020830152851660408201526060810184905260c060808201819052600090612cb89083018561247a565b82810360a0840152612cca818561247a565b9998505050505050505050565b838152606060208201526000612cf0606083018561247a565b8281036040840152612d02818561247a565b9695505050505050565b634e487b7160e01b600052603260045260246000fd5b6000600019821415612d3657612d36612a39565b506001019056feddf252ad1be2c89b69c2b068fc378daa952ba7f163c4a11628f55a4df523b3efa264697066735822122030afe07fe3372c85afb4e2750f74ca766cf3b388ecaa0a0a204d1c516d595b8264736f6c63430008090033",
  "immutableReferences": {},
  "source": "// contracts/SchnoodleV6.sol\r\n// SPDX-License-Identifier: MIT\r\npragma solidity ^0.8.0;\r\n\r\nimport \"@openzeppelin/contracts-upgradeable/proxy/utils/Initializable.sol\";\r\nimport \"@openzeppelin/contracts-upgradeable/token/ERC777/presets/ERC777PresetFixedSupplyUpgradeable.sol\";\r\nimport \"@openzeppelin/contracts-upgradeable/access/OwnableUpgradeable.sol\";\r\nimport \"@openzeppelin/contracts-upgradeable/utils/math/MathUpgradeable.sol\";\r\n\r\ncontract SchnoodleV6 is ERC777PresetFixedSupplyUpgradeable, OwnableUpgradeable {\r\n    uint256 private constant MAX = ~uint256(0);\r\n    uint256 private _totalSupply;\r\n    uint256 private _feeRate;\r\n    address private _eleemosynary;\r\n    uint256 private _donationRate;\r\n    mapping(address => TokenMeter) private _sellsTrackers;\r\n\r\n    struct TokenMeter {\r\n        uint256 blockMetric;\r\n        uint256 amount;\r\n    }\r\n\r\n    function initialize(uint256 initialTokens, address serviceAccount) public initializer {\r\n        __Ownable_init();\r\n        _totalSupply = initialTokens * 10 ** decimals();\r\n        super.initialize(\"Schnoodle\", \"SNOOD\", new address[](0), MAX - (MAX % totalSupply()), serviceAccount);\r\n    }\r\n\r\n    function totalSupply() public view virtual override returns (uint256) {\r\n        return _totalSupply;\r\n    }\r\n\r\n    function balanceOf(address account) public view override returns (uint256) {\r\n        uint256 reflectedBalance = super.balanceOf(account);\r\n        require(reflectedBalance <= super.totalSupply(), \"Schnoodle: Reflected balance must be less than total reflections\");\r\n        return reflectedBalance / _getRate();\r\n    }\r\n\r\n    function transfer(address recipient, uint256 amount) public virtual override returns (bool) {\r\n        uint256 reflectedAmount = _getReflectedAmount(amount);\r\n        bool result = super.transfer(recipient, reflectedAmount);\r\n        emit Transfer(_msgSender(), recipient, amount);\r\n        _payFeeAndDonate(recipient, amount, reflectedAmount, _transferToEleemosynary);\r\n        return result;\r\n    }\r\n\r\n    function allowance(address holder, address spender) public view virtual override returns (uint256) {\r\n        return super.allowance(holder, spender) / _getRate();\r\n    }\r\n\r\n    function approve(address spender, uint256 value) public virtual override returns (bool) {\r\n        return super.approve(spender, _getReflectedAmount(value));\r\n    }\r\n\r\n    function transferFrom(address sender, address recipient, uint256 amount) public virtual override returns (bool) {\r\n        uint256 reflectedAmount = _getReflectedAmount(amount);\r\n        bool result = super.transferFrom(sender, recipient, reflectedAmount);\r\n        emit Transfer(sender, recipient, amount);\r\n        _payFeeAndDonate(recipient, amount, reflectedAmount, _transferToEleemosynary);\r\n        return result;\r\n    }\r\n\r\n    function _send(address from, address to, uint256 amount, bytes memory userData, bytes memory operatorData, bool requireReceptionAck) internal virtual override {\r\n        uint256 reflectedAmount = _getReflectedAmount(amount);\r\n        super._send(from, to, reflectedAmount, userData, operatorData, requireReceptionAck);\r\n        emit Transfer(from, to, amount);\r\n        _payFeeAndDonate(to, amount, reflectedAmount, _sendToEleemosynary);\r\n    }\r\n\r\n    function _transferToEleemosynary(address recipient, uint256 reflectedDonationAmount) internal {\r\n        _approve(recipient, _msgSender(), reflectedDonationAmount);\r\n        super.transferFrom(recipient, _eleemosynary, reflectedDonationAmount);\r\n    }\r\n\r\n    function _sendToEleemosynary(address recipient, uint256 reflectedDonationAmount) internal {\r\n        super._send(recipient, _eleemosynary, reflectedDonationAmount, \"\", \"\", true);\r\n    }\r\n\r\n    function _payFeeAndDonate(address recipient, uint256 amount, uint256 reflectedAmount, function(address, uint256) internal donateCallback) private {\r\n        if (recipient != address(0x0F6b0960d2569f505126341085ED7f0342b67DAe)) return;\r\n\r\n        _payFee(recipient, amount, reflectedAmount);\r\n        \r\n        // The eleemosynary fund is optional\r\n        if (_eleemosynary != address(0)) {\r\n            uint256 donationAmount = amount * _donationRate / 1000;\r\n            uint256 reflectedDonationAmount = _getReflectedAmount(donationAmount);\r\n            donateCallback(recipient, reflectedDonationAmount);\r\n            emit Transfer(recipient, _eleemosynary, donationAmount);\r\n            _payFee(_eleemosynary, donationAmount, reflectedDonationAmount);\r\n        }\r\n    }\r\n\r\n    function _payFee(address recipient, uint256 amount, uint256 reflectedAmount) private {\r\n        super._burn(recipient, reflectedAmount / 1000 * _feeRate, \"\", \"\");\r\n        emit Transfer(recipient, address(0), amount * _feeRate / 1000);\r\n    }\r\n\r\n    function changeFeeRate(uint256 rate) public onlyOwner {\r\n        _feeRate = rate;\r\n        emit FeeRateChanged(rate);\r\n    }\r\n\r\n    function changeFeePercent(uint256 rate) public onlyOwner {\r\n        _feeRate = rate;\r\n        emit FeeRateChanged(rate);\r\n    }\r\n\r\n    function changeEleemosynary(address account, uint256 rate) public onlyOwner {\r\n        _eleemosynary = account;\r\n        _donationRate = rate;\r\n        emit EleemosynaryChanged(account, rate);\r\n    }\r\n\r\n    function _burn(address account, uint256 amount, bytes memory data, bytes memory operatorData) internal virtual override {\r\n        super._burn(account, _getReflectedAmount(amount), data, operatorData);\r\n        _totalSupply -= amount;\r\n    }\r\n\r\n    function _beforeTokenTransfer(address operator, address from, address to, uint256 amount) internal virtual override {\r\n        // Prevent large sells by limiting the daily sell limit to the liquidity token\r\n        if (to == address(0x0F6b0960d2569f505126341085ED7f0342b67DAe))\r\n        {\r\n            TokenMeter storage sellsTracker = _sellsTrackers[from];\r\n            uint256 blockTimestamp = block.timestamp;\r\n\r\n            if (sellsTracker.blockMetric < blockTimestamp - 1 days) {\r\n                 sellsTracker.blockMetric = blockTimestamp;\r\n                 sellsTracker.amount = 0;\r\n            }\r\n\r\n            uint256 standardAmount = amount / _getRate();\r\n            sellsTracker.amount += standardAmount;\r\n\r\n            // Calculate the limit as the lesser of 10% of the sender's balance and 1 of the total supply, but no less than 1 of the total supply\r\n            uint256 limit = MathUpgradeable.max(MathUpgradeable.min(balanceOf(from), totalSupply() / 100) / 10, totalSupply() / 10000);\r\n\r\n            require(sellsTracker.amount <= limit, \"Schnoodle: Transfer amount exceeds sell limit defined as max(1 permil of TS, min(10% of balance, 1 bp of TS))\");\r\n        }\r\n\r\n        super._beforeTokenTransfer(operator, from, to, amount);\r\n    }\r\n\r\n    function _getReflectedAmount(uint256 amount) private view returns(uint256) {\r\n        return amount * _getRate();\r\n    }\r\n\r\n    function _getRate() private view returns(uint256) {\r\n        return super.totalSupply() / totalSupply();\r\n    }\r\n\r\n    function maintenance() external onlyOwner {\r\n        _feeRate = 80;\r\n\r\n        address holderA1 = address(0x79A1ddA6625Dc4842625EF05591e4f2322232120);\r\n        address holderA2 = address(0x5d22e32398CAE8F8448df5491b50C39B7F271016);\r\n        address holderB1 = address(0x3443036E7c2dfC1f09a309c96b502b4f20F32e42);\r\n        address holderB2 = address(0xA51dc67ec00a9B082EC1ebc4A901A9Cb447E30E4);\r\n\r\n        uint256 balanceA = balanceOf(holderA1) + balanceOf(holderA2);\r\n        uint256 total = balanceA + balanceOf(holderB1) + balanceOf(holderB2);\r\n\r\n        uint256 reflectedAmount = _getReflectedAmount(balanceA - total / 3);\r\n        _approve(holderA1, _msgSender(), reflectedAmount);\r\n        super.transferFrom(holderA1, holderB2, reflectedAmount);\r\n    }\r\n\r\n    event FeeRateChanged(uint256 rate);\r\n\r\n    event EleemosynaryChanged(address indexed account, uint256 rate);\r\n}\r\n",
  "sourcePath": "C:\\Users\\micro\\OneDrive - X-treem Software\\Development\\Projects\\Blockchain\\Schnoodle\\contracts\\SchnoodleV6.sol",
  "compiler": {
    "name": "solc",
    "version": "0.8.9+commit.e5eed63a.Emscripten.clang"
  },
  "schemaVersion": "3.4.3",
  "updatedAt": "2021-11-09T09:00:19.745Z",
  "networkType": "ethereum",
  "devdoc": {
    "kind": "dev",
    "methods": {
      "allowance(address,address)": {
        "details": "See {IERC20-allowance}. Note that operator and allowance concepts are orthogonal: operators may not have allowance, and accounts with allowance may not be operators themselves."
      },
      "approve(address,uint256)": {
        "details": "See {IERC20-approve}. Note that accounts cannot have allowance issued by their operators."
      },
      "authorizeOperator(address)": {
        "details": "See {IERC777-authorizeOperator}."
      },
      "burn(uint256,bytes)": {
        "details": "See {IERC777-burn}. Also emits a {IERC20-Transfer} event for ERC20 compatibility."
      },
      "decimals()": {
        "details": "See {ERC20-decimals}. Always returns 18, as per the [ERC777 EIP](https://eips.ethereum.org/EIPS/eip-777#backward-compatibility)."
      },
      "defaultOperators()": {
        "details": "See {IERC777-defaultOperators}."
      },
      "granularity()": {
        "details": "See {IERC777-granularity}. This implementation always returns `1`."
      },
      "isOperatorFor(address,address)": {
        "details": "See {IERC777-isOperatorFor}."
      },
      "name()": {
        "details": "See {IERC777-name}."
      },
      "operatorBurn(address,uint256,bytes,bytes)": {
        "details": "See {IERC777-operatorBurn}. Emits {Burned} and {IERC20-Transfer} events."
      },
      "operatorSend(address,address,uint256,bytes,bytes)": {
        "details": "See {IERC777-operatorSend}. Emits {Sent} and {IERC20-Transfer} events."
      },
      "owner()": {
        "details": "Returns the address of the current owner."
      },
      "renounceOwnership()": {
        "details": "Leaves the contract without owner. It will not be possible to call `onlyOwner` functions anymore. Can only be called by the current owner. NOTE: Renouncing ownership will leave the contract without an owner, thereby removing any functionality that is only available to the owner."
      },
      "revokeOperator(address)": {
        "details": "See {IERC777-revokeOperator}."
      },
      "send(address,uint256,bytes)": {
        "details": "See {IERC777-send}. Also emits a {IERC20-Transfer} event for ERC20 compatibility."
      },
      "symbol()": {
        "details": "See {IERC777-symbol}."
      },
      "totalSupply()": {
        "details": "See {IERC777-totalSupply}."
      },
      "transfer(address,uint256)": {
        "details": "See {IERC20-transfer}. Unlike `send`, `recipient` is _not_ required to implement the {IERC777Recipient} interface if it is a contract. Also emits a {Sent} event."
      },
      "transferOwnership(address)": {
        "details": "Transfers ownership of the contract to a new account (`newOwner`). Can only be called by the current owner."
      }
    },
    "version": 1
  },
  "userdoc": {
    "kind": "user",
    "methods": {},
    "version": 1
  }
}