{
  "contractName": "SchnoodleV9",
  "abi": [
    {
      "anonymous": false,
      "inputs": [
        {
          "indexed": true,
          "internalType": "address",
          "name": "owner",
          "type": "address"
        },
        {
          "indexed": true,
          "internalType": "address",
          "name": "spender",
          "type": "address"
        },
        {
          "indexed": false,
          "internalType": "uint256",
          "name": "value",
          "type": "uint256"
        }
      ],
      "name": "Approval",
      "type": "event"
    },
    {
      "anonymous": false,
      "inputs": [
        {
          "indexed": true,
          "internalType": "address",
          "name": "operator",
          "type": "address"
        },
        {
          "indexed": true,
          "internalType": "address",
          "name": "tokenHolder",
          "type": "address"
        }
      ],
      "name": "AuthorizedOperator",
      "type": "event"
    },
    {
      "anonymous": false,
      "inputs": [
        {
          "indexed": true,
          "internalType": "address",
          "name": "operator",
          "type": "address"
        },
        {
          "indexed": true,
          "internalType": "address",
          "name": "from",
          "type": "address"
        },
        {
          "indexed": false,
          "internalType": "uint256",
          "name": "amount",
          "type": "uint256"
        },
        {
          "indexed": false,
          "internalType": "bytes",
          "name": "data",
          "type": "bytes"
        },
        {
          "indexed": false,
          "internalType": "bytes",
          "name": "operatorData",
          "type": "bytes"
        }
      ],
      "name": "Burned",
      "type": "event"
    },
    {
      "anonymous": false,
      "inputs": [
        {
          "indexed": true,
          "internalType": "address",
          "name": "eleemosynaryAccount",
          "type": "address"
        },
        {
          "indexed": false,
          "internalType": "uint256",
          "name": "donationRate",
          "type": "uint256"
        }
      ],
      "name": "EleemosynaryDetailsChanged",
      "type": "event"
    },
    {
      "anonymous": false,
      "inputs": [
        {
          "indexed": false,
          "internalType": "uint256",
          "name": "rate",
          "type": "uint256"
        }
      ],
      "name": "FeeRateChanged",
      "type": "event"
    },
    {
      "anonymous": false,
      "inputs": [
        {
          "indexed": true,
          "internalType": "address",
          "name": "operator",
          "type": "address"
        },
        {
          "indexed": true,
          "internalType": "address",
          "name": "to",
          "type": "address"
        },
        {
          "indexed": false,
          "internalType": "uint256",
          "name": "amount",
          "type": "uint256"
        },
        {
          "indexed": false,
          "internalType": "bytes",
          "name": "data",
          "type": "bytes"
        },
        {
          "indexed": false,
          "internalType": "bytes",
          "name": "operatorData",
          "type": "bytes"
        }
      ],
      "name": "Minted",
      "type": "event"
    },
    {
      "anonymous": false,
      "inputs": [
        {
          "indexed": true,
          "internalType": "address",
          "name": "previousOwner",
          "type": "address"
        },
        {
          "indexed": true,
          "internalType": "address",
          "name": "newOwner",
          "type": "address"
        }
      ],
      "name": "OwnershipTransferred",
      "type": "event"
    },
    {
      "anonymous": false,
      "inputs": [
        {
          "indexed": true,
          "internalType": "address",
          "name": "operator",
          "type": "address"
        },
        {
          "indexed": true,
          "internalType": "address",
          "name": "tokenHolder",
          "type": "address"
        }
      ],
      "name": "RevokedOperator",
      "type": "event"
    },
    {
      "anonymous": false,
      "inputs": [
        {
          "indexed": true,
          "internalType": "bytes32",
          "name": "role",
          "type": "bytes32"
        },
        {
          "indexed": true,
          "internalType": "bytes32",
          "name": "previousAdminRole",
          "type": "bytes32"
        },
        {
          "indexed": true,
          "internalType": "bytes32",
          "name": "newAdminRole",
          "type": "bytes32"
        }
      ],
      "name": "RoleAdminChanged",
      "type": "event"
    },
    {
      "anonymous": false,
      "inputs": [
        {
          "indexed": true,
          "internalType": "bytes32",
          "name": "role",
          "type": "bytes32"
        },
        {
          "indexed": true,
          "internalType": "address",
          "name": "account",
          "type": "address"
        },
        {
          "indexed": true,
          "internalType": "address",
          "name": "sender",
          "type": "address"
        }
      ],
      "name": "RoleGranted",
      "type": "event"
    },
    {
      "anonymous": false,
      "inputs": [
        {
          "indexed": true,
          "internalType": "bytes32",
          "name": "role",
          "type": "bytes32"
        },
        {
          "indexed": true,
          "internalType": "address",
          "name": "account",
          "type": "address"
        },
        {
          "indexed": true,
          "internalType": "address",
          "name": "sender",
          "type": "address"
        }
      ],
      "name": "RoleRevoked",
      "type": "event"
    },
    {
      "anonymous": false,
      "inputs": [
        {
          "indexed": false,
          "internalType": "uint256",
          "name": "blockTimestamp",
          "type": "uint256"
        },
        {
          "indexed": false,
          "internalType": "int256",
          "name": "amount",
          "type": "int256"
        }
      ],
      "name": "SellQuotaChanged",
      "type": "event"
    },
    {
      "anonymous": false,
      "inputs": [
        {
          "indexed": false,
          "internalType": "uint256",
          "name": "sellThreshold",
          "type": "uint256"
        },
        {
          "indexed": false,
          "internalType": "uint256",
          "name": "rateEscalator",
          "type": "uint256"
        }
      ],
      "name": "SellThresholdDetailsChanged",
      "type": "event"
    },
    {
      "anonymous": false,
      "inputs": [
        {
          "indexed": true,
          "internalType": "address",
          "name": "operator",
          "type": "address"
        },
        {
          "indexed": true,
          "internalType": "address",
          "name": "from",
          "type": "address"
        },
        {
          "indexed": true,
          "internalType": "address",
          "name": "to",
          "type": "address"
        },
        {
          "indexed": false,
          "internalType": "uint256",
          "name": "amount",
          "type": "uint256"
        },
        {
          "indexed": false,
          "internalType": "bytes",
          "name": "data",
          "type": "bytes"
        },
        {
          "indexed": false,
          "internalType": "bytes",
          "name": "operatorData",
          "type": "bytes"
        }
      ],
      "name": "Sent",
      "type": "event"
    },
    {
      "anonymous": false,
      "inputs": [
        {
          "indexed": false,
          "internalType": "uint256",
          "name": "rate",
          "type": "uint256"
        }
      ],
      "name": "SowRateChanged",
      "type": "event"
    },
    {
      "anonymous": false,
      "inputs": [
        {
          "indexed": true,
          "internalType": "address",
          "name": "from",
          "type": "address"
        },
        {
          "indexed": true,
          "internalType": "address",
          "name": "to",
          "type": "address"
        },
        {
          "indexed": false,
          "internalType": "uint256",
          "name": "value",
          "type": "uint256"
        }
      ],
      "name": "Transfer",
      "type": "event"
    },
    {
      "inputs": [],
      "name": "BRIDGE",
      "outputs": [
        {
          "internalType": "bytes32",
          "name": "",
          "type": "bytes32"
        }
      ],
      "stateMutability": "view",
      "type": "function"
    },
    {
      "inputs": [],
      "name": "DEFAULT_ADMIN_ROLE",
      "outputs": [
        {
          "internalType": "bytes32",
          "name": "",
          "type": "bytes32"
        }
      ],
      "stateMutability": "view",
      "type": "function"
    },
    {
      "inputs": [],
      "name": "FARMING_CONTRACT",
      "outputs": [
        {
          "internalType": "bytes32",
          "name": "",
          "type": "bytes32"
        }
      ],
      "stateMutability": "view",
      "type": "function"
    },
    {
      "inputs": [],
      "name": "LIQUIDITY",
      "outputs": [
        {
          "internalType": "bytes32",
          "name": "",
          "type": "bytes32"
        }
      ],
      "stateMutability": "view",
      "type": "function"
    },
    {
      "inputs": [],
      "name": "LOCKED",
      "outputs": [
        {
          "internalType": "bytes32",
          "name": "",
          "type": "bytes32"
        }
      ],
      "stateMutability": "view",
      "type": "function"
    },
    {
      "inputs": [
        {
          "internalType": "address",
          "name": "holder",
          "type": "address"
        },
        {
          "internalType": "address",
          "name": "spender",
          "type": "address"
        }
      ],
      "name": "allowance",
      "outputs": [
        {
          "internalType": "uint256",
          "name": "",
          "type": "uint256"
        }
      ],
      "stateMutability": "view",
      "type": "function"
    },
    {
      "inputs": [
        {
          "internalType": "address",
          "name": "spender",
          "type": "address"
        },
        {
          "internalType": "uint256",
          "name": "value",
          "type": "uint256"
        }
      ],
      "name": "approve",
      "outputs": [
        {
          "internalType": "bool",
          "name": "",
          "type": "bool"
        }
      ],
      "stateMutability": "nonpayable",
      "type": "function"
    },
    {
      "inputs": [
        {
          "internalType": "address",
          "name": "operator",
          "type": "address"
        }
      ],
      "name": "authorizeOperator",
      "outputs": [],
      "stateMutability": "nonpayable",
      "type": "function"
    },
    {
      "inputs": [
        {
          "internalType": "address",
          "name": "account",
          "type": "address"
        }
      ],
      "name": "balanceOf",
      "outputs": [
        {
          "internalType": "uint256",
          "name": "",
          "type": "uint256"
        }
      ],
      "stateMutability": "view",
      "type": "function"
    },
    {
      "inputs": [
        {
          "internalType": "uint256",
          "name": "amount",
          "type": "uint256"
        },
        {
          "internalType": "bytes",
          "name": "data",
          "type": "bytes"
        }
      ],
      "name": "burn",
      "outputs": [],
      "stateMutability": "nonpayable",
      "type": "function"
    },
    {
      "inputs": [
        {
          "internalType": "address",
          "name": "eleemosynaryAccount",
          "type": "address"
        },
        {
          "internalType": "uint256",
          "name": "donationRate",
          "type": "uint256"
        }
      ],
      "name": "changeEleemosynaryDetails",
      "outputs": [],
      "stateMutability": "nonpayable",
      "type": "function"
    },
    {
      "inputs": [
        {
          "internalType": "uint256",
          "name": "rate",
          "type": "uint256"
        }
      ],
      "name": "changeFeeRate",
      "outputs": [],
      "stateMutability": "nonpayable",
      "type": "function"
    },
    {
      "inputs": [
        {
          "internalType": "uint256",
          "name": "sellThreshold",
          "type": "uint256"
        },
        {
          "internalType": "uint256",
          "name": "rateEscalator",
          "type": "uint256"
        }
      ],
      "name": "changeSellThresholdDetails",
      "outputs": [],
      "stateMutability": "nonpayable",
      "type": "function"
    },
    {
      "inputs": [],
      "name": "decimals",
      "outputs": [
        {
          "internalType": "uint8",
          "name": "",
          "type": "uint8"
        }
      ],
      "stateMutability": "pure",
      "type": "function"
    },
    {
      "inputs": [],
      "name": "defaultOperators",
      "outputs": [
        {
          "internalType": "address[]",
          "name": "",
          "type": "address[]"
        }
      ],
      "stateMutability": "view",
      "type": "function"
    },
    {
      "inputs": [],
      "name": "getEleemosynaryDetails",
      "outputs": [
        {
          "internalType": "address",
          "name": "",
          "type": "address"
        },
        {
          "internalType": "uint256",
          "name": "",
          "type": "uint256"
        }
      ],
      "stateMutability": "view",
      "type": "function"
    },
    {
      "inputs": [],
      "name": "getFeeRate",
      "outputs": [
        {
          "internalType": "uint256",
          "name": "",
          "type": "uint256"
        }
      ],
      "stateMutability": "view",
      "type": "function"
    },
    {
      "inputs": [],
      "name": "getOperativeFeeRate",
      "outputs": [
        {
          "internalType": "uint256",
          "name": "",
          "type": "uint256"
        }
      ],
      "stateMutability": "view",
      "type": "function"
    },
    {
      "inputs": [
        {
          "internalType": "bytes32",
          "name": "role",
          "type": "bytes32"
        }
      ],
      "name": "getRoleAdmin",
      "outputs": [
        {
          "internalType": "bytes32",
          "name": "",
          "type": "bytes32"
        }
      ],
      "stateMutability": "view",
      "type": "function"
    },
    {
      "inputs": [],
      "name": "getSellQuota",
      "outputs": [
        {
          "components": [
            {
              "internalType": "uint256",
              "name": "blockMetric",
              "type": "uint256"
            },
            {
              "internalType": "int256",
              "name": "amount",
              "type": "int256"
            }
          ],
          "internalType": "struct SchnoodleV9Base.TokenMeter",
          "name": "",
          "type": "tuple"
        }
      ],
      "stateMutability": "view",
      "type": "function"
    },
    {
      "inputs": [],
      "name": "getSellThresholdDetails",
      "outputs": [
        {
          "internalType": "uint256",
          "name": "",
          "type": "uint256"
        },
        {
          "internalType": "uint256",
          "name": "",
          "type": "uint256"
        }
      ],
      "stateMutability": "view",
      "type": "function"
    },
    {
      "inputs": [
        {
          "internalType": "bytes32",
          "name": "role",
          "type": "bytes32"
        },
        {
          "internalType": "address",
          "name": "account",
          "type": "address"
        }
      ],
      "name": "grantRole",
      "outputs": [],
      "stateMutability": "nonpayable",
      "type": "function"
    },
    {
      "inputs": [],
      "name": "granularity",
      "outputs": [
        {
          "internalType": "uint256",
          "name": "",
          "type": "uint256"
        }
      ],
      "stateMutability": "view",
      "type": "function"
    },
    {
      "inputs": [
        {
          "internalType": "bytes32",
          "name": "role",
          "type": "bytes32"
        },
        {
          "internalType": "address",
          "name": "account",
          "type": "address"
        }
      ],
      "name": "hasRole",
      "outputs": [
        {
          "internalType": "bool",
          "name": "",
          "type": "bool"
        }
      ],
      "stateMutability": "view",
      "type": "function"
    },
    {
      "inputs": [
        {
          "internalType": "string",
          "name": "name",
          "type": "string"
        },
        {
          "internalType": "string",
          "name": "symbol",
          "type": "string"
        },
        {
          "internalType": "address[]",
          "name": "defaultOperators",
          "type": "address[]"
        },
        {
          "internalType": "uint256",
          "name": "initialSupply",
          "type": "uint256"
        },
        {
          "internalType": "address",
          "name": "owner",
          "type": "address"
        }
      ],
      "name": "initialize",
      "outputs": [],
      "stateMutability": "nonpayable",
      "type": "function"
    },
    {
      "inputs": [
        {
          "internalType": "uint256",
          "name": "initialTokens",
          "type": "uint256"
        },
        {
          "internalType": "address",
          "name": "serviceAccount",
          "type": "address"
        }
      ],
      "name": "initialize",
      "outputs": [],
      "stateMutability": "nonpayable",
      "type": "function"
    },
    {
      "inputs": [
        {
          "internalType": "address",
          "name": "operator",
          "type": "address"
        },
        {
          "internalType": "address",
          "name": "tokenHolder",
          "type": "address"
        }
      ],
      "name": "isOperatorFor",
      "outputs": [
        {
          "internalType": "bool",
          "name": "",
          "type": "bool"
        }
      ],
      "stateMutability": "view",
      "type": "function"
    },
    {
      "inputs": [],
      "name": "name",
      "outputs": [
        {
          "internalType": "string",
          "name": "",
          "type": "string"
        }
      ],
      "stateMutability": "view",
      "type": "function"
    },
    {
      "inputs": [
        {
          "internalType": "address",
          "name": "account",
          "type": "address"
        },
        {
          "internalType": "uint256",
          "name": "amount",
          "type": "uint256"
        },
        {
          "internalType": "bytes",
          "name": "data",
          "type": "bytes"
        },
        {
          "internalType": "bytes",
          "name": "operatorData",
          "type": "bytes"
        }
      ],
      "name": "operatorBurn",
      "outputs": [],
      "stateMutability": "nonpayable",
      "type": "function"
    },
    {
      "inputs": [
        {
          "internalType": "address",
          "name": "sender",
          "type": "address"
        },
        {
          "internalType": "address",
          "name": "recipient",
          "type": "address"
        },
        {
          "internalType": "uint256",
          "name": "amount",
          "type": "uint256"
        },
        {
          "internalType": "bytes",
          "name": "data",
          "type": "bytes"
        },
        {
          "internalType": "bytes",
          "name": "operatorData",
          "type": "bytes"
        }
      ],
      "name": "operatorSend",
      "outputs": [],
      "stateMutability": "nonpayable",
      "type": "function"
    },
    {
      "inputs": [],
      "name": "owner",
      "outputs": [
        {
          "internalType": "address",
          "name": "",
          "type": "address"
        }
      ],
      "stateMutability": "view",
      "type": "function"
    },
    {
      "inputs": [],
      "name": "renounceOwnership",
      "outputs": [],
      "stateMutability": "nonpayable",
      "type": "function"
    },
    {
      "inputs": [
        {
          "internalType": "bytes32",
          "name": "role",
          "type": "bytes32"
        },
        {
          "internalType": "address",
          "name": "account",
          "type": "address"
        }
      ],
      "name": "renounceRole",
      "outputs": [],
      "stateMutability": "nonpayable",
      "type": "function"
    },
    {
      "inputs": [
        {
          "internalType": "address",
          "name": "operator",
          "type": "address"
        }
      ],
      "name": "revokeOperator",
      "outputs": [],
      "stateMutability": "nonpayable",
      "type": "function"
    },
    {
      "inputs": [
        {
          "internalType": "bytes32",
          "name": "role",
          "type": "bytes32"
        },
        {
          "internalType": "address",
          "name": "account",
          "type": "address"
        }
      ],
      "name": "revokeRole",
      "outputs": [],
      "stateMutability": "nonpayable",
      "type": "function"
    },
    {
      "inputs": [
        {
          "internalType": "address",
          "name": "recipient",
          "type": "address"
        },
        {
          "internalType": "uint256",
          "name": "amount",
          "type": "uint256"
        },
        {
          "internalType": "bytes",
          "name": "data",
          "type": "bytes"
        }
      ],
      "name": "send",
      "outputs": [],
      "stateMutability": "nonpayable",
      "type": "function"
    },
    {
      "inputs": [
        {
          "internalType": "bytes4",
          "name": "interfaceId",
          "type": "bytes4"
        }
      ],
      "name": "supportsInterface",
      "outputs": [
        {
          "internalType": "bool",
          "name": "",
          "type": "bool"
        }
      ],
      "stateMutability": "view",
      "type": "function"
    },
    {
      "inputs": [],
      "name": "symbol",
      "outputs": [
        {
          "internalType": "string",
          "name": "",
          "type": "string"
        }
      ],
      "stateMutability": "view",
      "type": "function"
    },
    {
      "inputs": [],
      "name": "totalSupply",
      "outputs": [
        {
          "internalType": "uint256",
          "name": "",
          "type": "uint256"
        }
      ],
      "stateMutability": "view",
      "type": "function"
    },
    {
      "inputs": [
        {
          "internalType": "address",
          "name": "recipient",
          "type": "address"
        },
        {
          "internalType": "uint256",
          "name": "amount",
          "type": "uint256"
        }
      ],
      "name": "transfer",
      "outputs": [
        {
          "internalType": "bool",
          "name": "",
          "type": "bool"
        }
      ],
      "stateMutability": "nonpayable",
      "type": "function"
    },
    {
      "inputs": [
        {
          "internalType": "address",
          "name": "sender",
          "type": "address"
        },
        {
          "internalType": "address",
          "name": "recipient",
          "type": "address"
        },
        {
          "internalType": "uint256",
          "name": "amount",
          "type": "uint256"
        }
      ],
      "name": "transferFrom",
      "outputs": [
        {
          "internalType": "bool",
          "name": "",
          "type": "bool"
        }
      ],
      "stateMutability": "nonpayable",
      "type": "function"
    },
    {
      "inputs": [
        {
          "internalType": "address",
          "name": "newOwner",
          "type": "address"
        }
      ],
      "name": "transferOwnership",
      "outputs": [],
      "stateMutability": "nonpayable",
      "type": "function"
    },
    {
      "inputs": [
        {
          "internalType": "bool",
          "name": "testnet",
          "type": "bool"
        },
        {
          "internalType": "address",
          "name": "liquidityToken",
          "type": "address"
        },
        {
          "internalType": "address",
          "name": "schnoodleFarming",
          "type": "address"
        },
        {
          "internalType": "address",
          "name": "bridgeOwner",
          "type": "address"
        }
      ],
      "name": "configure",
      "outputs": [],
      "stateMutability": "nonpayable",
      "type": "function"
    },
    {
      "inputs": [],
      "name": "getFarmingFund",
      "outputs": [
        {
          "internalType": "address",
          "name": "",
          "type": "address"
        }
      ],
      "stateMutability": "view",
      "type": "function"
    },
    {
      "inputs": [
        {
          "internalType": "uint256",
          "name": "rate",
          "type": "uint256"
        }
      ],
      "name": "changeSowRate",
      "outputs": [],
      "stateMutability": "nonpayable",
      "type": "function"
    },
    {
      "inputs": [],
      "name": "getSowRate",
      "outputs": [
        {
          "internalType": "uint256",
          "name": "",
          "type": "uint256"
        }
      ],
      "stateMutability": "view",
      "type": "function"
    },
    {
      "inputs": [
        {
          "internalType": "address",
          "name": "account",
          "type": "address"
        },
        {
          "internalType": "uint256",
          "name": "netReward",
          "type": "uint256"
        },
        {
          "internalType": "uint256",
          "name": "grossReward",
          "type": "uint256"
        }
      ],
      "name": "farmingReward",
      "outputs": [],
      "stateMutability": "nonpayable",
      "type": "function"
    },
    {
      "inputs": [
        {
          "internalType": "uint256",
          "name": "networkId",
          "type": "uint256"
        },
        {
          "internalType": "uint256",
          "name": "amount",
          "type": "uint256"
        }
      ],
      "name": "sendTokens",
      "outputs": [],
      "stateMutability": "nonpayable",
      "type": "function"
    },
    {
      "inputs": [
        {
          "internalType": "uint256",
          "name": "networkId",
          "type": "uint256"
        }
      ],
      "name": "payFee",
      "outputs": [],
      "stateMutability": "payable",
      "type": "function"
    },
    {
      "inputs": [
        {
          "internalType": "address",
          "name": "account",
          "type": "address"
        },
        {
          "internalType": "uint256",
          "name": "networkId",
          "type": "uint256"
        },
        {
          "internalType": "uint256",
          "name": "amount",
          "type": "uint256"
        },
        {
          "internalType": "uint256",
          "name": "fee",
          "type": "uint256"
        }
      ],
      "name": "receiveTokens",
      "outputs": [],
      "stateMutability": "nonpayable",
      "type": "function"
    },
    {
      "inputs": [
        {
          "internalType": "address",
          "name": "account",
          "type": "address"
        },
        {
          "internalType": "uint256",
          "name": "networkId",
          "type": "uint256"
        }
      ],
      "name": "tokensSent",
      "outputs": [
        {
          "internalType": "uint256",
          "name": "",
          "type": "uint256"
        }
      ],
      "stateMutability": "view",
      "type": "function"
    },
    {
      "inputs": [
        {
          "internalType": "address",
          "name": "account",
          "type": "address"
        },
        {
          "internalType": "uint256",
          "name": "networkId",
          "type": "uint256"
        }
      ],
      "name": "tokensReceived",
      "outputs": [
        {
          "internalType": "uint256",
          "name": "",
          "type": "uint256"
        }
      ],
      "stateMutability": "view",
      "type": "function"
    },
    {
      "inputs": [
        {
          "internalType": "address",
          "name": "account",
          "type": "address"
        },
        {
          "internalType": "uint256",
          "name": "networkId",
          "type": "uint256"
        }
      ],
      "name": "feesPaid",
      "outputs": [
        {
          "internalType": "uint256",
          "name": "",
          "type": "uint256"
        }
      ],
      "stateMutability": "view",
      "type": "function"
    }
  ],
  "bytecode": "0x608060405234801561001057600080fd5b50614036806100206000396000f3fe60806040526004361061031a5760003560e01c80638da5cb5b116101ab578063b7a895fa116100f7578063ee9a31a211610095578063fad8b32a1161006f578063fad8b32a14610a2b578063fc673c4f14610a4b578063fdf5f4f814610a6b578063fe9d930314610a9357600080fd5b8063ee9a31a2146109b7578063f2fde38b146109eb578063f364109a14610a0b57600080fd5b8063d95b6371116100d1578063d95b637114610937578063da35a26f14610957578063dd62ed3e14610977578063e84839bd1461099757600080fd5b8063b7a895fa146108c1578063d289ade214610904578063d547741f1461091757600080fd5b80639bd9bbc611610164578063a9059cbb1161013e578063a9059cbb1461084c578063affca9321461086c578063b1e067b21461088c578063b393204b146108ac57600080fd5b80639bd9bbc6146107e3578063a1422f6914610803578063a217fddf1461083757600080fd5b80638da5cb5b1461071c5780639137ac721461073a57806391d148541461076e578063957872aa1461078e578063959b8c3f146107ae57806395d89b41146107ce57600080fd5b806331bcd2b71161026a5780636da1dd2611610223578063768f950a116101fd578063768f950a146106835780638184ba41146106a357806384e5eed0146106c3578063895b978e146106d857600080fd5b80636da1dd261461061b57806370a082311461064e578063715018a61461066e57600080fd5b806331bcd2b71461054657806336568abe14610566578063556f0dc71461058657806362ad1b831461059a5780636a6ccdf5146105ba5780636c05932a146105d057600080fd5b806322daa21d116102d757806324a756d1116102b157806324a756d1146104925780632861c7d1146104d65780632f2ff15d1461050a578063313ce5671461052a57600080fd5b806322daa21d1461041f57806323b872dd14610441578063248a9ca31461046157600080fd5b806301ffc9a71461031f57806306e485381461035457806306fdde0314610376578063095ea7b3146103985780630a831211146103b857806318160ddd1461040a575b600080fd5b34801561032b57600080fd5b5061033f61033a3660046133a7565b610ab3565b60405190151581526020015b60405180910390f35b34801561036057600080fd5b50610369610aea565b60405161034b91906133d1565b34801561038257600080fd5b5061038b610b4c565b60405161034b9190613476565b3480156103a457600080fd5b5061033f6103b33660046134ae565b610bd5565b3480156103c457600080fd5b506103fc6103d33660046134ae565b6001600160a01b0391909116600090815261013960209081526040808320938352929052205490565b60405190815260200161034b565b34801561041657600080fd5b5060c9546103fc565b34801561042b57600080fd5b5061043f61043a3660046134da565b610bed565b005b34801561044d57600080fd5b5061033f61045c3660046134f3565b610c5d565b34801561046d57600080fd5b506103fc61047c3660046134da565b6000908152610103602052604090206001015490565b34801561049e57600080fd5b506103fc6104ad3660046134ae565b6001600160a01b0391909116600090815261013a60209081526040808320938352929052205490565b3480156104e257600080fd5b506103fc7f86cf169ddb9f19bc57304a958748511e956d0b9255fb5895294f9c4ae5b00d5881565b34801561051657600080fd5b5061043f610525366004613534565b610ccd565b34801561053657600080fd5b506040516012815260200161034b565b34801561055257600080fd5b5061043f610561366004613564565b610cf9565b34801561057257600080fd5b5061043f610581366004613534565b610d46565b34801561059257600080fd5b5060016103fc565b3480156105a657600080fd5b5061043f6105b536600461363d565b610dc4565b3480156105c657600080fd5b50610137546103fc565b3480156105dc57600080fd5b5060408051808201825260008082526020918201528151808301835260ce5480825260cf5491830191825283519081529051918101919091520161034b565b34801561062757600080fd5b50610136546001600160a01b03165b6040516001600160a01b03909116815260200161034b565b34801561065a57600080fd5b506103fc6106693660046136d0565b610e00565b34801561067a57600080fd5b5061043f610e22565b34801561068f57600080fd5b5061043f61069e3660046136ed565b610e58565b3480156106af57600080fd5b5061043f6106be366004613564565b610edc565b3480156106cf57600080fd5b5060ca546103fc565b3480156106e457600080fd5b506103fc6106f33660046134ae565b6001600160a01b0391909116600090815261013b60209081526040808320938352929052205490565b34801561072857600080fd5b506097546001600160a01b0316610636565b34801561074657600080fd5b506103fc7f6426100d0053205ef4e6cbd754ca9b11acf0e907f8e2741bd95048bd4543de1a81565b34801561077a57600080fd5b5061033f610789366004613534565b610f4d565b34801561079a57600080fd5b5061043f6107a9366004613800565b610f79565b3480156107ba57600080fd5b5061043f6107c93660046136d0565b61100c565b3480156107da57600080fd5b5061038b611129565b3480156107ef57600080fd5b5061043f6107fe366004613835565b611138565b34801561080f57600080fd5b506103fc7feb4a01a12a4bbfa1bc780c16c5b2b6720cdf4f3c29cabd8c0f76fec3a575096b81565b34801561084357600080fd5b506103fc600081565b34801561085857600080fd5b5061033f6108673660046134ae565b611156565b34801561087857600080fd5b5061043f6108873660046134da565b6111c4565b34801561089857600080fd5b5061043f6108a736600461388e565b611223565b3480156108b857600080fd5b506103fc611377565b3480156108cd57600080fd5b506108e560cb5460cc546001600160a01b0390911691565b604080516001600160a01b03909316835260208301919091520161034b565b61043f6109123660046134da565b6113e9565b34801561092357600080fd5b5061043f610932366004613534565b61141c565b34801561094357600080fd5b5061033f6109523660046138c9565b611443565b34801561096357600080fd5b5061043f610972366004613534565b6114e5565b34801561098357600080fd5b506103fc6109923660046138c9565b6115e7565b3480156109a357600080fd5b5061043f6109b23660046134ae565b611618565b3480156109c357600080fd5b506103fc7f08fb31c3e81624356c3314088aa971b73bcc82d22bc3e3b184b4593077ae327881565b3480156109f757600080fd5b5061043f610a063660046136d0565b61169c565b348015610a1757600080fd5b5061043f610a263660046138f7565b611737565b348015610a3757600080fd5b5061043f610a463660046136d0565b611892565b348015610a5757600080fd5b5061043f610a66366004613958565b6119ad565b348015610a7757600080fd5b5060cd5460d0546040805192835260208301919091520161034b565b348015610a9f57600080fd5b5061043f610aae3660046139d8565b6119df565b60006001600160e01b03198216637965db0b60e01b1480610ae457506301ffc9a760e01b6001600160e01b03198316145b92915050565b60606037805480602002602001604051908101604052809291908181526020018280548015610b4257602002820191906000526020600020905b81546001600160a01b03168152600190910190602001808311610b24575b5050505050905090565b606060358054610b5b90613a1f565b80601f0160208091040260200160405190810160405280929190818152602001828054610b8790613a1f565b8015610b425780601f10610ba957610100808354040283529160200191610b42565b820191906000526020600020905b815481529060010190602001808311610bb757509395945050505050565b600033610be38185856119fa565b5060019392505050565b6097546001600160a01b03163314610c205760405162461bcd60e51b8152600401610c1790613a59565b60405180910390fd5b6101378190556040518181527f356b0da78b28f488d953ba76712b3bdd18f174ff2296108417b4c1d47669692d906020015b60405180910390a150565b600080610c6983611a0d565b90506000610c78868684611a21565b9050846001600160a01b0316866001600160a01b0316600080516020613fe183398151915286604051610cad91815260200190565b60405180910390a3610cc486868685611b4f611b65565b95945050505050565b60008281526101036020526040902060010154610cea8133611ca2565b610cf48383611d06565b505050565b610d1281604051806020016040528060008152506119df565b3360009081526101396020908152604080832085845290915281208054839290610d3d908490613aa4565b90915550505050565b6001600160a01b0381163314610db65760405162461bcd60e51b815260206004820152602f60248201527f416363657373436f6e74726f6c3a2063616e206f6e6c792072656e6f756e636560448201526e103937b632b9903337b91039b2b63360891b6064820152608401610c17565b610dc08282611d8d565b5050565b610dce3386611443565b610dea5760405162461bcd60e51b8152600401610c1790613abc565b610df985858585856001611df5565b5050505050565b6001600160a01b038116600090815260336020526040812054610ae490611e5a565b6097546001600160a01b03163314610e4c5760405162461bcd60e51b8152600401610c1790613a59565b610e566000611e81565b565b600054610100900460ff16610e735760005460ff1615610e77565b303b155b610e935760405162461bcd60e51b8152600401610c1790613b08565b600054610100900460ff16158015610eb5576000805461ffff19166101011790555b610ec28686868686611ed3565b8015610ed4576000805461ff00191690555b505050505050565b6097546001600160a01b03163314610f065760405162461bcd60e51b8152600401610c1790613a59565b60cd82905560d081905560408051838152602081018390527f72c1673617b0c2d62adda4739eab51cd7805a8ad541ae28ec66f46052c1dfa62910160405180910390a15050565b6000918252610103602090815260408084206001600160a01b0393909316845291905290205460ff1690565b610fa37f6426100d0053205ef4e6cbd754ca9b11acf0e907f8e2741bd95048bd4543de1a33610f4d565b610fac57600080fd5b61013654610fcc906001600160a01b031684610fc785611a0d565b611b4f565b61013654610cf4906001600160a01b0316610fe78484613b56565b6040518060200160405280600081525060405180602001604052806000815250611f12565b6001600160a01b03811633036110705760405162461bcd60e51b8152602060048201526024808201527f4552433737373a20617574686f72697a696e672073656c66206173206f70657260448201526330ba37b960e11b6064820152608401610c17565b6001600160a01b03811660009081526038602052604090205460ff16156110c157336000908152603a602090815260408083206001600160a01b03851684529091529020805460ff191690556110f0565b3360009081526039602090815260408083206001600160a01b03851684529091529020805460ff191660011790555b60405133906001600160a01b038316907ff4caeb2d6ca8932a215a353d0703c326ec2d81fc68170f320eb2ab49e9df61f990600090a350565b606060368054610b5b90613a1f565b610cf433848484604051806020016040528060008152506001611df5565b60008061116283611a0d565b905060006111708583611f72565b90506001600160a01b038516336001600160a01b0316600080516020613fe1833981519152866040516111a591815260200190565b60405180910390a36111bc33868685611b4f611b65565b949350505050565b6097546001600160a01b031633146111ee5760405162461bcd60e51b8152600401610c1790613a59565b60ca8190556040518181527fdd72d2879718489eb363ba6099239f89d49542612862c71545503d35cfddda4690602001610c52565b6101385460ff161561123457600080fd5b61125e7f08fb31c3e81624356c3314088aa971b73bcc82d22bc3e3b184b4593077ae327833610f4d565b61126757600080fd5b6001600160a01b038416600090815261013b602090815260408083208684529091529020548111156112db5760405162461bcd60e51b815260206004820181905260248201527f5363686e6f6f646c653a20496e73756666696369656e742066656520706169646044820152606401610c17565b610138805460ff191660011790556001600160a01b038416600090815261013b602090815260408083208684529091528120805483929061131d908490613b56565b9091555061132d90508483612025565b6001600160a01b038416600090815261013a6020908152604080832086845290915281208054849290611361908490613aa4565b9091555050610138805460ff1916905550505050565b60008060cd5411801561138c575060cf546000135b156113e25760cd5460cf546113ac906113a490613b6d565b60cd54612098565b60d05460ca546113bc9190613b89565b6113c69190613b89565b6113d09190613bbe565b60ca546113dd9190613aa4565b905090565b5060ca5490565b33600090815261013b6020908152604080832084845290915281208054349290611414908490613aa4565b909155505050565b600082815261010360205260409020600101546114398133611ca2565b610cf48383611d8d565b6000816001600160a01b0316836001600160a01b031614806114ae57506001600160a01b03831660009081526038602052604090205460ff1680156114ae57506001600160a01b038083166000908152603a602090815260408083209387168352929052205460ff16155b806114de57506001600160a01b0380831660009081526039602090815260408083209387168352929052205460ff165b9392505050565b600054610100900460ff166115005760005460ff1615611504565b303b155b6115205760405162461bcd60e51b8152600401610c1790613b08565b600054610100900460ff16158015611542576000805461ffff19166101011790555b61154a6120ae565b6115566012600a613cb6565b6115609084613b89565b60c981905560408051808201825260098152685363686e6f6f646c6560b81b60208083019190915282518084018452600581526414d393d3d160da1b818301528351600081529182019093526115d1939192916115bf90600019613cc5565b6115cb90600019613b56565b86611ed3565b8015610cf4576000805461ff0019169055505050565b6001600160a01b038083166000908152603b602090815260408083209385168352929052908120546114de90611e5a565b6097546001600160a01b031633146116425760405162461bcd60e51b8152600401610c1790613a59565b60cb80546001600160a01b0319166001600160a01b03841690811790915560cc8290556040518281527f3c9add9b205965c28e39a1f5fc6780a30ba0f001dc883ed462d795f97a2d94069060200160405180910390a25050565b6097546001600160a01b031633146116c65760405162461bcd60e51b8152600401610c1790613a59565b6001600160a01b03811661172b5760405162461bcd60e51b815260206004820152602660248201527f4f776e61626c653a206e6577206f776e657220697320746865207a65726f206160448201526564647265737360d01b6064820152608401610c17565b61173481611e81565b50565b6097546001600160a01b031633146117615760405162461bcd60e51b8152600401610c1790613a59565b831561188357611783600061177e6097546001600160a01b031690565b6120dd565b6117ad7f86cf169ddb9f19bc57304a958748511e956d0b9255fb5895294f9c4ae5b00d58846120dd565b6117d77f6426100d0053205ef4e6cbd754ca9b11acf0e907f8e2741bd95048bd4543de1a836120dd565b6118017f08fb31c3e81624356c3314088aa971b73bcc82d22bc3e3b184b4593077ae3278826120dd565b61013580546001600160a01b0319166001600160a01b03841617905542611829600143613b56565b40604051602001611844929190918252602082015260400190565b60408051808303601f19018152919052805160209091012061013680546001600160a01b0319166001600160a01b039092169190911790556028610137555b61188c846120e7565b50505050565b336001600160a01b038216036118f45760405162461bcd60e51b815260206004820152602160248201527f4552433737373a207265766f6b696e672073656c66206173206f70657261746f6044820152603960f91b6064820152608401610c17565b6001600160a01b03811660009081526038602052604090205460ff161561194857336000908152603a602090815260408083206001600160a01b03851684529091529020805460ff19166001179055611974565b3360009081526039602090815260408083206001600160a01b03851684529091529020805460ff191690555b60405133906001600160a01b038316907f50546e66e5f44d728365dc3908c63bc5cfeeab470722c1677e3073a6ac294aa190600090a350565b6119b73385611443565b6119d35760405162461bcd60e51b8152600401610c1790613abc565b61188c84848484611f12565b610dc033838360405180602001604052806000815250611f12565b610cf48383611a0884611a0d565b612141565b6000611a17612268565b610ae49083613b89565b60006001600160a01b038316611a495760405162461bcd60e51b8152600401610c1790613cd9565b6001600160a01b038416611aae5760405162461bcd60e51b815260206004820152602660248201527f4552433737373a207472616e736665722066726f6d20746865207a65726f206160448201526564647265737360d01b6064820152608401610c17565b6000339050611adf818686866040518060200160405280600081525060405180602001604052806000815250612297565b611aea8582856123be565b611b168186868660405180602001604052806000815250604051806020016040528060008152506123d1565b611b448186868660405180602001604052806000815250604051806020016040528060008152506000612531565b506001949350505050565b611b5a833383612141565b61188c838383611a21565b6000611b70866126f6565b9050600081158015611b865750611b86866126f6565b60cd5490915015611c815760ce5442901580611baf5750611baa6201518082613b56565b60ce54105b15611bfc5760ce81905560cd5460cf8190556040805183815260208101929092527f6326273a6785f513768f2d48c9379925280b1265fc536c9ba0d40d213994064b910160405180910390a15b8583611c165782611c0e576000611c19565b600019611c19565b60015b611c239190613d1d565b60cf8054600090611c35908490613da2565b909155505060ce5460cf546040517f6326273a6785f513768f2d48c9379925280b1265fc536c9ba0d40d213994064b92611c7792908252602082015260400190565b60405180910390a1505b80611c8d575050610df9565b611c9986868686612722565b50505050505050565b611cac8282610f4d565b610dc057611cc4816001600160a01b03166014612750565b611ccf836020612750565b604051602001611ce0929190613de3565b60408051601f198184030181529082905262461bcd60e51b8252610c1791600401613476565b611d108282610f4d565b610dc0576000828152610103602090815260408083206001600160a01b03851684529091529020805460ff19166001179055611d493390565b6001600160a01b0316816001600160a01b0316837f2f8788117e7eff1d82e926ec794901d17c78024a50270940304540a733656f0d60405160405180910390a45050565b611d978282610f4d565b15610dc0576000828152610103602090815260408083206001600160a01b0385168085529252808320805460ff1916905551339285917ff6391f5c32d9c69d2a47ea670b442974b53935d1edc7fd64eb21e047a839171b9190a45050565b6000611e0085611a0d565b9050611e108787838787876128ec565b856001600160a01b0316876001600160a01b0316600080516020613fe183398151915287604051611e4391815260200190565b60405180910390a3611c99878787846129cf611b65565b60008115611e7957611e6a612268565b611e749083613bbe565b610ae4565b600092915050565b609780546001600160a01b038381166001600160a01b0319831681179093556040519116919082907f8be0079c531659141344cd1fd0a4f28419497f9722a3daafe3b4186f6b6457e090600090a35050565b600054610100900460ff16611efa5760405162461bcd60e51b8152600401610c1790613e58565b611f058585856129fc565b610df98585858585612be6565b611f2684611f1f85611a0d565b8484612c37565b6040518381526000906001600160a01b03861690600080516020613fe18339815191529060200160405180910390a38260c96000828254611f679190613b56565b909155505050505050565b60006001600160a01b038316611f9a5760405162461bcd60e51b8152600401610c1790613cd9565b6000339050611fcb818286866040518060200160405280600081525060405180602001604052806000815250612297565b611ff78182868660405180602001604052806000815250604051806020016040528060008152506123d1565b610be38182868660405180602001604052806000815250604051806020016040528060008152506000612531565b6120578261203283611a0d565b6040518060200160405280600081525060405180602001604052806000815250612de7565b6040518181526001600160a01b03831690600090600080516020613fe18339815191529060200160405180910390a38060c96000828254610d3d9190613aa4565b60008183106120a757816114de565b5090919050565b600054610100900460ff166120d55760405162461bcd60e51b8152600401610c1790613e58565b610e56612df5565b610dc08282611d06565b6097546001600160a01b031633146121115760405162461bcd60e51b8152600401610c1790613a59565b801561173457602860ca55600660d05561212d6012600a613cb6565b61213b90633b9aca00613b89565b60cd5550565b6001600160a01b0383166121a55760405162461bcd60e51b815260206004820152602560248201527f4552433737373a20617070726f76652066726f6d20746865207a65726f206164604482015264647265737360d81b6064820152608401610c17565b6001600160a01b0382166122075760405162461bcd60e51b815260206004820152602360248201527f4552433737373a20617070726f766520746f20746865207a65726f206164647260448201526265737360e81b6064820152608401610c17565b6001600160a01b038381166000818152603b602090815260408083209487168084529482529182902085905590518481527f8c5be1e5ebec7d5bd14f71427d1e84f3dd0314c0f7b2291e5b200ac8c7c3b925910160405180910390a3505050565b60008061227460345490565b9050801561228e5760c9546122899082613bbe565b612291565b60005b91505090565b60405163555ddc6560e11b81526001600160a01b03861660048201527f29ddb589b1fb5fc7cf394961c1adf5f8c6454761adf795e67fe149f658abe8956024820152600090731820a4b7618bde71dce8cdc73aab6c95905fad249063aabbb8ca90604401602060405180830381865afa158015612318573d6000803e3d6000fd5b505050506040513d601f19601f8201168201806040525081019061233c9190613ea3565b90506001600160a01b03811615611c9957604051633ad5cbc160e11b81526001600160a01b038216906375ab978290612383908a908a908a908a908a908a90600401613ec0565b600060405180830381600087803b15801561239d57600080fd5b505af11580156123b1573d6000803e3d6000fd5b5050505050505050505050565b610cf483836123cc84611e5a565b612e25565b6123dd86868686612e99565b6001600160a01b038516600090815260336020526040902054838110156124565760405162461bcd60e51b815260206004820152602760248201527f4552433737373a207472616e7366657220616d6f756e7420657863656564732060448201526662616c616e636560c81b6064820152608401610c17565b6001600160a01b0380871660009081526033602052604080822087850390559187168152908120805486929061248d908490613aa4565b92505081905550846001600160a01b0316866001600160a01b0316886001600160a01b03167f06b541ddaa720db2b10a4d0cdac39b8d360425fc073085fac19bc826146779878787876040516124e593929190613f1a565b60405180910390a4846001600160a01b0316866001600160a01b0316600080516020613fe18339815191528660405161252091815260200190565b60405180910390a350505050505050565b60405163555ddc6560e11b81526001600160a01b03861660048201527fb281fc8c12954d22544db45de3159a39272895b169a852b314f9cc762e44c53b6024820152600090731820a4b7618bde71dce8cdc73aab6c95905fad249063aabbb8ca90604401602060405180830381865afa1580156125b2573d6000803e3d6000fd5b505050506040513d601f19601f820116820180604052508101906125d69190613ea3565b90506001600160a01b03811615612652576040516223de2960e01b81526001600160a01b038216906223de299061261b908b908b908b908b908b908b90600401613ec0565b600060405180830381600087803b15801561263557600080fd5b505af1158015612649573d6000803e3d6000fd5b505050506126ec565b81156126ec576001600160a01b0386163b156126ec5760405162461bcd60e51b815260206004820152604d60248201527f4552433737373a20746f6b656e20726563697069656e7420636f6e747261637460448201527f20686173206e6f20696d706c656d656e74657220666f7220455243373737546f60648201526c1ad95b9cd49958da5c1a595b9d609a1b608482015260a401610c17565b5050505050505050565b6000610ae47f86cf169ddb9f19bc57304a958748511e956d0b9255fb5895294f9c4ae5b00d5883610f4d565b61272e84848484612f86565b610136546101375461188c9186916001600160a01b0390911690869085613031565b6060600061275f836002613b89565b61276a906002613aa4565b67ffffffffffffffff81111561278257612782613586565b6040519080825280601f01601f1916602001820160405280156127ac576020820181803683370190505b509050600360fc1b816000815181106127c7576127c7613f4f565b60200101906001600160f81b031916908160001a905350600f60fb1b816001815181106127f6576127f6613f4f565b60200101906001600160f81b031916908160001a905350600061281a846002613b89565b612825906001613aa4565b90505b600181111561289d576f181899199a1a9b1b9c1cb0b131b232b360811b85600f166010811061285957612859613f4f565b1a60f81b82828151811061286f5761286f613f4f565b60200101906001600160f81b031916908160001a90535060049490941c9361289681613f65565b9050612828565b5083156114de5760405162461bcd60e51b815260206004820181905260248201527f537472696e67733a20686578206c656e67746820696e73756666696369656e746044820152606401610c17565b6001600160a01b03861661294d5760405162461bcd60e51b815260206004820152602260248201527f4552433737373a2073656e642066726f6d20746865207a65726f206164647265604482015261737360f01b6064820152608401610c17565b6001600160a01b0385166129a35760405162461bcd60e51b815260206004820181905260248201527f4552433737373a2073656e6420746f20746865207a65726f20616464726573736044820152606401610c17565b336129b2818888888888612297565b6129c08188888888886123d1565b611c9981888888888888612531565b610cf4838383604051806020016040528060008152506040518060200160405280600081525060016128ec565b600054610100900460ff16612a235760405162461bcd60e51b8152600401610c1790613e58565b8251612a369060359060208601906132b9565b508151612a4a9060369060208501906132b9565b508051612a5e90603790602084019061333d565b5060005b8151811015612ac757600160386000848481518110612a8357612a83613f4f565b6020908102919091018101516001600160a01b03168252810191909152604001600020805460ff191691151591909117905580612abf81613f7c565b915050612a62565b506040516329965a1d60e01b815230600482018190527fac7fbab5f54a3ca8194167523c6753bfeb96a445279294b6125b68cce217705460248301526044820152731820a4b7618bde71dce8cdc73aab6c95905fad24906329965a1d90606401600060405180830381600087803b158015612b4157600080fd5b505af1158015612b55573d6000803e3d6000fd5b50506040516329965a1d60e01b815230600482018190527faea199e31a596269b42cdafd93407f14436db6e4cad65417994c2eb37381e05a60248301526044820152731820a4b7618bde71dce8cdc73aab6c95905fad2492506329965a1d9150606401600060405180830381600087803b158015612bd257600080fd5b505af1158015611c99573d6000803e3d6000fd5b600054610100900460ff16612c0d5760405162461bcd60e51b8152600401610c1790613e58565b610df981836040518060200160405280600081525060405180602001604052806000815250612de7565b6001600160a01b038416612c985760405162461bcd60e51b815260206004820152602260248201527f4552433737373a206275726e2066726f6d20746865207a65726f206164647265604482015261737360f01b6064820152608401610c17565b33612ca881866000878787612297565b612cb58186600087612e99565b6001600160a01b03851660009081526033602052604090205484811015612d2a5760405162461bcd60e51b815260206004820152602360248201527f4552433737373a206275726e20616d6f756e7420657863656564732062616c616044820152626e636560e81b6064820152608401610c17565b6001600160a01b0386166000908152603360205260408120868303905560348054879290612d59908490613b56565b92505081905550856001600160a01b0316826001600160a01b03167fa78a9be3a7b862d26933ad85fb11d80ef66b8f972d7cbba06621d583943a4098878787604051612da793929190613f1a565b60405180910390a36040518581526000906001600160a01b03881690600080516020613fe1833981519152906020015b60405180910390a3505050505050565b61188c8484848460016130aa565b600054610100900460ff16612e1c5760405162461bcd60e51b8152600401610c1790613e58565b610e5633611e81565b6000612e3184846115e7565b9050600019811461188c5781811015612e8c5760405162461bcd60e51b815260206004820152601e60248201527f4552433737373a20696e73756666696369656e7420616c6c6f77616e636500006044820152606401610c17565b61188c84848484036119fa565b6001600160a01b03831615612f81576000612eb382611e5a565b90506000612ec085610e00565b905080821180612ee25750612ed4856131de565b612ede9082613b56565b8211155b612f4a5760405162461bcd60e51b815260206004820152603360248201527f5363686e6f6f646c653a207472616e7366657220616d6f756e74206578636565604482015272647320756e6c6f636b65642062616c616e636560681b6064820152608401610c17565b612f747feb4a01a12a4bbfa1bc780c16c5b2b6720cdf4f3c29cabd8c0f76fec3a575096b86610f4d565b15612f7e57600080fd5b50505b61188c565b6000612f90611377565b9050612fd28582612fa36103e887613bbe565b612fad9190613b89565b6040518060200160405280600081525060405180602001604052806000815250612c37565b60006001600160a01b038616600080516020613fe18339815191526103e8612ffa8589613b89565b6130049190613bbe565b60405190815260200160405180910390a360cb5460cc54610df99187916001600160a01b03909116908790865b6001600160a01b03841615610df95760006103e861304f8486613b89565b6130599190613bbe565b9050600061306682611a0d565b90506130778787838663ffffffff16565b856001600160a01b0316876001600160a01b0316600080516020613fe18339815191528460405161252091815260200190565b6001600160a01b0385166131005760405162461bcd60e51b815260206004820181905260248201527f4552433737373a206d696e7420746f20746865207a65726f20616464726573736044820152606401610c17565b3361310e8160008888612e99565b84603460008282546131209190613aa4565b90915550506001600160a01b0386166000908152603360205260408120805487929061314d908490613aa4565b9091555061316390508160008888888888612531565b856001600160a01b0316816001600160a01b03167f2fe5be0146f74c5bce36c0b80911af6c7d86ff27e89d5cfa61fc681327954e5d8787876040516131aa93929190613f1a565b60405180910390a36040518581526001600160a01b03871690600090600080516020613fe183398151915290602001612dd7565b610135546000906001600160a01b03166131fa57506000919050565b610135546040516001600160a01b038481166024830152600092839291169060440160408051601f198184030181529181526020820180516001600160e01b0316632c9aab9b60e11b179052516132519190613f95565b6000604051808303816000865af19150503d806000811461328e576040519150601f19603f3d011682016040523d82523d6000602084013e613293565b606091505b5091509150816132a5576132a5613fb1565b808060200190518101906111bc9190613fc7565b8280546132c590613a1f565b90600052602060002090601f0160209004810192826132e7576000855561332d565b82601f1061330057805160ff191683800117855561332d565b8280016001018555821561332d579182015b8281111561332d578251825591602001919060010190613312565b50613339929150613392565b5090565b82805482825590600052602060002090810192821561332d579160200282015b8281111561332d57825182546001600160a01b0319166001600160a01b0390911617825560209092019160019091019061335d565b5b808211156133395760008155600101613393565b6000602082840312156133b957600080fd5b81356001600160e01b0319811681146114de57600080fd5b6020808252825182820181905260009190848201906040850190845b818110156134125783516001600160a01b0316835292840192918401916001016133ed565b50909695505050505050565b60005b83811015613439578181015183820152602001613421565b8381111561188c5750506000910152565b6000815180845261346281602086016020860161341e565b601f01601f19169290920160200192915050565b6020815260006114de602083018461344a565b6001600160a01b038116811461173457600080fd5b80356134a981613489565b919050565b600080604083850312156134c157600080fd5b82356134cc81613489565b946020939093013593505050565b6000602082840312156134ec57600080fd5b5035919050565b60008060006060848603121561350857600080fd5b833561351381613489565b9250602084013561352381613489565b929592945050506040919091013590565b6000806040838503121561354757600080fd5b82359150602083013561355981613489565b809150509250929050565b6000806040838503121561357757600080fd5b50508035926020909101359150565b634e487b7160e01b600052604160045260246000fd5b604051601f8201601f1916810167ffffffffffffffff811182821017156135c5576135c5613586565b604052919050565b600082601f8301126135de57600080fd5b813567ffffffffffffffff8111156135f8576135f8613586565b61360b601f8201601f191660200161359c565b81815284602083860101111561362057600080fd5b816020850160208301376000918101602001919091529392505050565b600080600080600060a0868803121561365557600080fd5b853561366081613489565b9450602086013561367081613489565b935060408601359250606086013567ffffffffffffffff8082111561369457600080fd5b6136a089838a016135cd565b935060808801359150808211156136b657600080fd5b506136c3888289016135cd565b9150509295509295909350565b6000602082840312156136e257600080fd5b81356114de81613489565b600080600080600060a0868803121561370557600080fd5b853567ffffffffffffffff8082111561371d57600080fd5b61372989838a016135cd565b965060209150818801358181111561374057600080fd5b61374c8a828b016135cd565b96505060408801358181111561376157600080fd5b8801601f81018a1361377257600080fd5b80358281111561378457613784613586565b8060051b925061379584840161359c565b818152928201840192848101908c8511156137af57600080fd5b928501925b848410156137d957833592506137c983613489565b82825292850192908501906137b4565b9750505050606088013593506137f49150506080870161349e565b90509295509295909350565b60008060006060848603121561381557600080fd5b833561382081613489565b95602085013595506040909401359392505050565b60008060006060848603121561384a57600080fd5b833561385581613489565b925060208401359150604084013567ffffffffffffffff81111561387857600080fd5b613884868287016135cd565b9150509250925092565b600080600080608085870312156138a457600080fd5b84356138af81613489565b966020860135965060408601359560600135945092505050565b600080604083850312156138dc57600080fd5b82356138e781613489565b9150602083013561355981613489565b6000806000806080858703121561390d57600080fd5b8435801515811461391d57600080fd5b9350602085013561392d81613489565b9250604085013561393d81613489565b9150606085013561394d81613489565b939692955090935050565b6000806000806080858703121561396e57600080fd5b843561397981613489565b935060208501359250604085013567ffffffffffffffff8082111561399d57600080fd5b6139a9888389016135cd565b935060608701359150808211156139bf57600080fd5b506139cc878288016135cd565b91505092959194509250565b600080604083850312156139eb57600080fd5b82359150602083013567ffffffffffffffff811115613a0957600080fd5b613a15858286016135cd565b9150509250929050565b600181811c90821680613a3357607f821691505b602082108103613a5357634e487b7160e01b600052602260045260246000fd5b50919050565b6020808252818101527f4f776e61626c653a2063616c6c6572206973206e6f7420746865206f776e6572604082015260600190565b634e487b7160e01b600052601160045260246000fd5b60008219821115613ab757613ab7613a8e565b500190565b6020808252602c908201527f4552433737373a2063616c6c6572206973206e6f7420616e206f70657261746f60408201526b39103337b9103437b63232b960a11b606082015260800190565b6020808252602e908201527f496e697469616c697a61626c653a20636f6e747261637420697320616c72656160408201526d191e481a5b9a5d1a585b1a5e995960921b606082015260800190565b600082821015613b6857613b68613a8e565b500390565b6000600160ff1b8201613b8257613b82613a8e565b5060000390565b6000816000190483118215151615613ba357613ba3613a8e565b500290565b634e487b7160e01b600052601260045260246000fd5b600082613bcd57613bcd613ba8565b500490565b600181815b80851115613c0d578160001904821115613bf357613bf3613a8e565b80851615613c0057918102915b93841c9390800290613bd7565b509250929050565b600082613c2457506001610ae4565b81613c3157506000610ae4565b8160018114613c475760028114613c5157613c6d565b6001915050610ae4565b60ff841115613c6257613c62613a8e565b50506001821b610ae4565b5060208310610133831016604e8410600b8410161715613c90575081810a610ae4565b613c9a8383613bd2565b8060001904821115613cae57613cae613a8e565b029392505050565b60006114de60ff841683613c15565b600082613cd457613cd4613ba8565b500690565b60208082526024908201527f4552433737373a207472616e7366657220746f20746865207a65726f206164646040820152637265737360e01b606082015260800190565b60006001600160ff1b0381841382841380821686840486111615613d4357613d43613a8e565b600160ff1b6000871282811687830589121615613d6257613d62613a8e565b60008712925087820587128484161615613d7e57613d7e613a8e565b87850587128184161615613d9457613d94613a8e565b505050929093029392505050565b600080821280156001600160ff1b0384900385131615613dc457613dc4613a8e565b600160ff1b8390038412811615613ddd57613ddd613a8e565b50500190565b7f416363657373436f6e74726f6c3a206163636f756e7420000000000000000000815260008351613e1b81601785016020880161341e565b7001034b99036b4b9b9b4b733903937b6329607d1b6017918401918201528351613e4c81602884016020880161341e565b01602801949350505050565b6020808252602b908201527f496e697469616c697a61626c653a20636f6e7472616374206973206e6f74206960408201526a6e697469616c697a696e6760a81b606082015260800190565b600060208284031215613eb557600080fd5b81516114de81613489565b6001600160a01b0387811682528681166020830152851660408201526060810184905260c060808201819052600090613efb9083018561344a565b82810360a0840152613f0d818561344a565b9998505050505050505050565b838152606060208201526000613f33606083018561344a565b8281036040840152613f45818561344a565b9695505050505050565b634e487b7160e01b600052603260045260246000fd5b600081613f7457613f74613a8e565b506000190190565b600060018201613f8e57613f8e613a8e565b5060010190565b60008251613fa781846020870161341e565b9190910192915050565b634e487b7160e01b600052600160045260246000fd5b600060208284031215613fd957600080fd5b505191905056feddf252ad1be2c89b69c2b068fc378daa952ba7f163c4a11628f55a4df523b3efa2646970667358221220ae4f5e3dea29395dd3513cc9027631298a01f8015edd452331e0bdd9bee4297e64736f6c634300080d0033",
  "immutableReferences": {},
  "source": "// contracts/SchnoodleV9.sol\r\n// SPDX-License-Identifier: MIT\r\npragma solidity ^0.8.0;\r\n\r\nimport \"@openzeppelin/contracts-upgradeable/proxy/utils/Initializable.sol\";\r\nimport \"@openzeppelin/contracts-upgradeable/access/AccessControlUpgradeable.sol\";\r\nimport \"./imports/SchnoodleV9Base.sol\";\r\n\r\n/// @author Jason Payne (https://twitter.com/Neo42)\r\ncontract SchnoodleV9 is SchnoodleV9Base, AccessControlUpgradeable {\r\n    address private _schnoodleFarming;\r\n    address private _farmingFund;\r\n    uint256 private _sowRate;\r\n\r\n    bytes32 public constant LIQUIDITY = keccak256(\"LIQUIDITY\");\r\n    bytes32 public constant FARMING_CONTRACT = keccak256(\"FARMING_CONTRACT\");\r\n    bytes32 public constant LOCKED = keccak256(\"LOCKED\");\r\n    bytes32 public constant BRIDGE = keccak256(\"BRIDGE\");\r\n\r\n    bool private _avoidReentrancy;\r\n    mapping(address => mapping (uint256 => uint256)) private _tokensSent;\r\n    mapping(address => mapping (uint256 => uint256)) private _tokensReceived;\r\n    mapping(address => mapping (uint256 => uint256)) private _feesPaid;\r\n\r\n    function configure(bool testnet, address liquidityToken, address schnoodleFarming, address bridgeOwner) external onlyOwner {\r\n        if (testnet) {\r\n            _setupRole(DEFAULT_ADMIN_ROLE, owner());\r\n            _setupRole(LIQUIDITY, liquidityToken);\r\n            _setupRole(FARMING_CONTRACT, schnoodleFarming);\r\n            _setupRole(BRIDGE, bridgeOwner);\r\n            _schnoodleFarming = schnoodleFarming;\r\n            _farmingFund = address(uint160(uint256(keccak256(abi.encodePacked(block.timestamp, blockhash(block.number - 1))))));\r\n            _sowRate = 40;\r\n        }\r\n\r\n        configure(testnet);\r\n    }\r\n\r\n    // Transfer overrides\r\n\r\n    function _beforeTokenTransfer(address operator, address from, address to, uint256 amount) internal override {\r\n        // Ensure the sender has enough unlocked balance to perform the transfer\r\n        if (from != address(0)) {\r\n            uint256 standardAmount = _getStandardAmount(amount);\r\n            uint256 balance = balanceOf(from);\r\n            require(standardAmount > balance || standardAmount <= balance - lockedBalanceOf(from), \"Schnoodle: transfer amount exceeds unlocked balance\");\r\n            require(!hasRole(LOCKED, from));\r\n        }\r\n\r\n        super._beforeTokenTransfer(operator, from, to, amount);\r\n    }\r\n\r\n    function payFees(address to, uint256 amount, uint256 reflectedAmount, function(address, address, uint256) internal transferCallback) internal override {\r\n        super.payFees(to, amount, reflectedAmount, transferCallback);\r\n        payFund(to, _farmingFund, amount, _sowRate, transferCallback);\r\n    }\r\n\r\n    function isLiquidityToken(address account) internal view override returns(bool)\r\n    {\r\n        return hasRole(LIQUIDITY, account);\r\n    }\r\n\r\n    // Farming functions\r\n\r\n    function getFarmingFund() external view returns (address) {\r\n        return _farmingFund;\r\n    }\r\n\r\n    function changeSowRate(uint256 rate) external onlyOwner {\r\n        _sowRate = rate;\r\n        emit SowRateChanged(rate);\r\n    }\r\n\r\n    function getSowRate() external view returns (uint256) {\r\n        return _sowRate;\r\n    }\r\n\r\n    function farmingReward(address account, uint256 netReward, uint256 grossReward) external {\r\n        require(hasRole(FARMING_CONTRACT, _msgSender()));\r\n        _transferFromReflected(_farmingFund, account, _getReflectedAmount(netReward));\r\n\r\n        // Burn the unused part of the gross reward\r\n        _burn(_farmingFund, grossReward - netReward, \"\", \"\");\r\n    }\r\n\r\n    // Bridge functions\r\n\r\n    function sendTokens(uint256 networkId, uint256 amount) external {\r\n        burn(amount, \"\");\r\n        _tokensSent[_msgSender()][networkId] += amount;\r\n    }\r\n\r\n    function payFee(uint256 networkId) external payable {\r\n        _feesPaid[_msgSender()][networkId] += msg.value;\r\n    }\r\n\r\n    function receiveTokens(address account, uint256 networkId, uint256 amount, uint256 fee) external {\r\n        require(!_avoidReentrancy);\r\n        require(hasRole(BRIDGE, _msgSender()));\r\n        require(_feesPaid[account][networkId] >= fee, \"Schnoodle: Insufficient fee paid\");\r\n\r\n        _avoidReentrancy = true;\r\n        _feesPaid[account][networkId] -= fee;\r\n\r\n        _mint(account, amount);\r\n        _tokensReceived[account][networkId] += amount;\r\n\r\n        _avoidReentrancy = false;\r\n    }\r\n\r\n    function tokensSent(address account, uint256 networkId) external view returns (uint256) {\r\n        return _tokensSent[account][networkId];\r\n    }\r\n\r\n    function tokensReceived(address account, uint256 networkId) external view returns (uint256) {\r\n        return _tokensReceived[account][networkId];\r\n    }\r\n\r\n    function feesPaid(address account, uint256 networkId) external view returns (uint256) {\r\n        return _feesPaid[account][networkId];\r\n    }\r\n\r\n    // Calls to the SchnoodleFarming proxy contract\r\n\r\n    function lockedBalanceOf(address account) private returns(uint256) {\r\n        if (_schnoodleFarming == address(0)) return 0;\r\n        (bool success, bytes memory result) = _schnoodleFarming.call(abi.encodeWithSignature(\"lockedBalanceOf(address)\", account));\r\n        assert(success);\r\n        return abi.decode(result, (uint256));\r\n    }\r\n\r\n    event SowRateChanged(uint256 rate);\r\n}\r\n",
  "sourcePath": "C:\\Users\\micro\\OneDrive - X-treem Software\\Development\\Projects\\Blockchain\\Schnoodle\\contracts\\contracts\\SchnoodleV9.sol",
  "compiler": {
    "name": "solc",
    "version": "0.8.13+commit.abaa5c0e.Emscripten.clang"
  },
  "schemaVersion": "3.4.3",
  "updatedAt": "2022-04-28T21:55:27.657Z",
  "devdoc": {
    "author": "Jason Payne (https://twitter.com/Neo42)",
    "kind": "dev",
    "methods": {
      "allowance(address,address)": {
        "details": "See {IERC20-allowance}. Note that operator and allowance concepts are orthogonal: operators may not have allowance, and accounts with allowance may not be operators themselves."
      },
      "approve(address,uint256)": {
        "details": "See {IERC20-approve}. NOTE: If `value` is the maximum `uint256`, the allowance is not updated on `transferFrom`. This is semantically equivalent to an infinite approval. Note that accounts cannot have allowance issued by their operators."
      },
      "authorizeOperator(address)": {
        "details": "See {IERC777-authorizeOperator}."
      },
      "burn(uint256,bytes)": {
        "details": "See {IERC777-burn}. Also emits a {IERC20-Transfer} event for ERC20 compatibility."
      },
      "decimals()": {
        "details": "See {ERC20-decimals}. Always returns 18, as per the [ERC777 EIP](https://eips.ethereum.org/EIPS/eip-777#backward-compatibility)."
      },
      "defaultOperators()": {
        "details": "See {IERC777-defaultOperators}."
      },
      "getRoleAdmin(bytes32)": {
        "details": "Returns the admin role that controls `role`. See {grantRole} and {revokeRole}. To change a role's admin, use {_setRoleAdmin}."
      },
      "grantRole(bytes32,address)": {
        "details": "Grants `role` to `account`. If `account` had not been already granted `role`, emits a {RoleGranted} event. Requirements: - the caller must have ``role``'s admin role."
      },
      "granularity()": {
        "details": "See {IERC777-granularity}. This implementation always returns `1`."
      },
      "hasRole(bytes32,address)": {
        "details": "Returns `true` if `account` has been granted `role`."
      },
      "isOperatorFor(address,address)": {
        "details": "See {IERC777-isOperatorFor}."
      },
      "name()": {
        "details": "See {IERC777-name}."
      },
      "operatorBurn(address,uint256,bytes,bytes)": {
        "details": "See {IERC777-operatorBurn}. Emits {Burned} and {IERC20-Transfer} events."
      },
      "operatorSend(address,address,uint256,bytes,bytes)": {
        "details": "See {IERC777-operatorSend}. Emits {Sent} and {IERC20-Transfer} events."
      },
      "owner()": {
        "details": "Returns the address of the current owner."
      },
      "renounceOwnership()": {
        "details": "Leaves the contract without owner. It will not be possible to call `onlyOwner` functions anymore. Can only be called by the current owner. NOTE: Renouncing ownership will leave the contract without an owner, thereby removing any functionality that is only available to the owner."
      },
      "renounceRole(bytes32,address)": {
        "details": "Revokes `role` from the calling account. Roles are often managed via {grantRole} and {revokeRole}: this function's purpose is to provide a mechanism for accounts to lose their privileges if they are compromised (such as when a trusted device is misplaced). If the calling account had been revoked `role`, emits a {RoleRevoked} event. Requirements: - the caller must be `account`."
      },
      "revokeOperator(address)": {
        "details": "See {IERC777-revokeOperator}."
      },
      "revokeRole(bytes32,address)": {
        "details": "Revokes `role` from `account`. If `account` had been granted `role`, emits a {RoleRevoked} event. Requirements: - the caller must have ``role``'s admin role."
      },
      "send(address,uint256,bytes)": {
        "details": "See {IERC777-send}. Also emits a {IERC20-Transfer} event for ERC20 compatibility."
      },
      "supportsInterface(bytes4)": {
        "details": "See {IERC165-supportsInterface}."
      },
      "symbol()": {
        "details": "See {IERC777-symbol}."
      },
      "totalSupply()": {
        "details": "See {IERC777-totalSupply}."
      },
      "transfer(address,uint256)": {
        "details": "See {IERC20-transfer}. Unlike `send`, `recipient` is _not_ required to implement the {IERC777Recipient} interface if it is a contract. Also emits a {Sent} event."
      },
      "transferOwnership(address)": {
        "details": "Transfers ownership of the contract to a new account (`newOwner`). Can only be called by the current owner."
      }
    },
    "version": 1
  },
  "userdoc": {
    "kind": "user",
    "methods": {},
    "version": 1
  }
}