{
  "contractName": "SchnoodleV9",
  "abi": [
    {
      "anonymous": false,
      "inputs": [
        {
          "indexed": true,
          "internalType": "address",
          "name": "owner",
          "type": "address"
        },
        {
          "indexed": true,
          "internalType": "address",
          "name": "spender",
          "type": "address"
        },
        {
          "indexed": false,
          "internalType": "uint256",
          "name": "value",
          "type": "uint256"
        }
      ],
      "name": "Approval",
      "type": "event"
    },
    {
      "anonymous": false,
      "inputs": [
        {
          "indexed": true,
          "internalType": "address",
          "name": "operator",
          "type": "address"
        },
        {
          "indexed": true,
          "internalType": "address",
          "name": "tokenHolder",
          "type": "address"
        }
      ],
      "name": "AuthorizedOperator",
      "type": "event"
    },
    {
      "anonymous": false,
      "inputs": [
        {
          "indexed": true,
          "internalType": "address",
          "name": "operator",
          "type": "address"
        },
        {
          "indexed": true,
          "internalType": "address",
          "name": "from",
          "type": "address"
        },
        {
          "indexed": false,
          "internalType": "uint256",
          "name": "amount",
          "type": "uint256"
        },
        {
          "indexed": false,
          "internalType": "bytes",
          "name": "data",
          "type": "bytes"
        },
        {
          "indexed": false,
          "internalType": "bytes",
          "name": "operatorData",
          "type": "bytes"
        }
      ],
      "name": "Burned",
      "type": "event"
    },
    {
      "anonymous": false,
      "inputs": [
        {
          "indexed": true,
          "internalType": "address",
          "name": "eleemosynaryAccount",
          "type": "address"
        },
        {
          "indexed": false,
          "internalType": "uint256",
          "name": "donationRate",
          "type": "uint256"
        }
      ],
      "name": "EleemosynaryDetailsChanged",
      "type": "event"
    },
    {
      "anonymous": false,
      "inputs": [
        {
          "indexed": false,
          "internalType": "uint256",
          "name": "rate",
          "type": "uint256"
        }
      ],
      "name": "FeeRateChanged",
      "type": "event"
    },
    {
      "anonymous": false,
      "inputs": [
        {
          "indexed": false,
          "internalType": "uint8",
          "name": "version",
          "type": "uint8"
        }
      ],
      "name": "Initialized",
      "type": "event"
    },
    {
      "anonymous": false,
      "inputs": [
        {
          "indexed": true,
          "internalType": "address",
          "name": "operator",
          "type": "address"
        },
        {
          "indexed": true,
          "internalType": "address",
          "name": "to",
          "type": "address"
        },
        {
          "indexed": false,
          "internalType": "uint256",
          "name": "amount",
          "type": "uint256"
        },
        {
          "indexed": false,
          "internalType": "bytes",
          "name": "data",
          "type": "bytes"
        },
        {
          "indexed": false,
          "internalType": "bytes",
          "name": "operatorData",
          "type": "bytes"
        }
      ],
      "name": "Minted",
      "type": "event"
    },
    {
      "anonymous": false,
      "inputs": [
        {
          "indexed": true,
          "internalType": "address",
          "name": "previousOwner",
          "type": "address"
        },
        {
          "indexed": true,
          "internalType": "address",
          "name": "newOwner",
          "type": "address"
        }
      ],
      "name": "OwnershipTransferred",
      "type": "event"
    },
    {
      "anonymous": false,
      "inputs": [
        {
          "indexed": true,
          "internalType": "address",
          "name": "operator",
          "type": "address"
        },
        {
          "indexed": true,
          "internalType": "address",
          "name": "tokenHolder",
          "type": "address"
        }
      ],
      "name": "RevokedOperator",
      "type": "event"
    },
    {
      "anonymous": false,
      "inputs": [
        {
          "indexed": true,
          "internalType": "bytes32",
          "name": "role",
          "type": "bytes32"
        },
        {
          "indexed": true,
          "internalType": "bytes32",
          "name": "previousAdminRole",
          "type": "bytes32"
        },
        {
          "indexed": true,
          "internalType": "bytes32",
          "name": "newAdminRole",
          "type": "bytes32"
        }
      ],
      "name": "RoleAdminChanged",
      "type": "event"
    },
    {
      "anonymous": false,
      "inputs": [
        {
          "indexed": true,
          "internalType": "bytes32",
          "name": "role",
          "type": "bytes32"
        },
        {
          "indexed": true,
          "internalType": "address",
          "name": "account",
          "type": "address"
        },
        {
          "indexed": true,
          "internalType": "address",
          "name": "sender",
          "type": "address"
        }
      ],
      "name": "RoleGranted",
      "type": "event"
    },
    {
      "anonymous": false,
      "inputs": [
        {
          "indexed": true,
          "internalType": "bytes32",
          "name": "role",
          "type": "bytes32"
        },
        {
          "indexed": true,
          "internalType": "address",
          "name": "account",
          "type": "address"
        },
        {
          "indexed": true,
          "internalType": "address",
          "name": "sender",
          "type": "address"
        }
      ],
      "name": "RoleRevoked",
      "type": "event"
    },
    {
      "anonymous": false,
      "inputs": [
        {
          "indexed": false,
          "internalType": "uint256",
          "name": "blockTimestamp",
          "type": "uint256"
        },
        {
          "indexed": false,
          "internalType": "int256",
          "name": "amount",
          "type": "int256"
        }
      ],
      "name": "SellQuotaChanged",
      "type": "event"
    },
    {
      "anonymous": false,
      "inputs": [
        {
          "indexed": false,
          "internalType": "uint256",
          "name": "sellThreshold",
          "type": "uint256"
        },
        {
          "indexed": false,
          "internalType": "uint256",
          "name": "rateEscalator",
          "type": "uint256"
        }
      ],
      "name": "SellThresholdDetailsChanged",
      "type": "event"
    },
    {
      "anonymous": false,
      "inputs": [
        {
          "indexed": true,
          "internalType": "address",
          "name": "operator",
          "type": "address"
        },
        {
          "indexed": true,
          "internalType": "address",
          "name": "from",
          "type": "address"
        },
        {
          "indexed": true,
          "internalType": "address",
          "name": "to",
          "type": "address"
        },
        {
          "indexed": false,
          "internalType": "uint256",
          "name": "amount",
          "type": "uint256"
        },
        {
          "indexed": false,
          "internalType": "bytes",
          "name": "data",
          "type": "bytes"
        },
        {
          "indexed": false,
          "internalType": "bytes",
          "name": "operatorData",
          "type": "bytes"
        }
      ],
      "name": "Sent",
      "type": "event"
    },
    {
      "anonymous": false,
      "inputs": [
        {
          "indexed": false,
          "internalType": "uint256",
          "name": "rate",
          "type": "uint256"
        }
      ],
      "name": "SowRateChanged",
      "type": "event"
    },
    {
      "anonymous": false,
      "inputs": [
        {
          "indexed": true,
          "internalType": "address",
          "name": "from",
          "type": "address"
        },
        {
          "indexed": true,
          "internalType": "address",
          "name": "to",
          "type": "address"
        },
        {
          "indexed": false,
          "internalType": "uint256",
          "name": "value",
          "type": "uint256"
        }
      ],
      "name": "Transfer",
      "type": "event"
    },
    {
      "inputs": [],
      "name": "DEFAULT_ADMIN_ROLE",
      "outputs": [
        {
          "internalType": "bytes32",
          "name": "",
          "type": "bytes32"
        }
      ],
      "stateMutability": "view",
      "type": "function"
    },
    {
      "inputs": [],
      "name": "FARMING_CONTRACT",
      "outputs": [
        {
          "internalType": "bytes32",
          "name": "",
          "type": "bytes32"
        }
      ],
      "stateMutability": "view",
      "type": "function"
    },
    {
      "inputs": [],
      "name": "LIQUIDITY",
      "outputs": [
        {
          "internalType": "bytes32",
          "name": "",
          "type": "bytes32"
        }
      ],
      "stateMutability": "view",
      "type": "function"
    },
    {
      "inputs": [],
      "name": "LOCKED",
      "outputs": [
        {
          "internalType": "bytes32",
          "name": "",
          "type": "bytes32"
        }
      ],
      "stateMutability": "view",
      "type": "function"
    },
    {
      "inputs": [
        {
          "internalType": "address",
          "name": "holder",
          "type": "address"
        },
        {
          "internalType": "address",
          "name": "spender",
          "type": "address"
        }
      ],
      "name": "allowance",
      "outputs": [
        {
          "internalType": "uint256",
          "name": "",
          "type": "uint256"
        }
      ],
      "stateMutability": "view",
      "type": "function"
    },
    {
      "inputs": [
        {
          "internalType": "address",
          "name": "spender",
          "type": "address"
        },
        {
          "internalType": "uint256",
          "name": "value",
          "type": "uint256"
        }
      ],
      "name": "approve",
      "outputs": [
        {
          "internalType": "bool",
          "name": "",
          "type": "bool"
        }
      ],
      "stateMutability": "nonpayable",
      "type": "function"
    },
    {
      "inputs": [
        {
          "internalType": "address",
          "name": "operator",
          "type": "address"
        }
      ],
      "name": "authorizeOperator",
      "outputs": [],
      "stateMutability": "nonpayable",
      "type": "function"
    },
    {
      "inputs": [
        {
          "internalType": "address",
          "name": "account",
          "type": "address"
        }
      ],
      "name": "balanceOf",
      "outputs": [
        {
          "internalType": "uint256",
          "name": "",
          "type": "uint256"
        }
      ],
      "stateMutability": "view",
      "type": "function"
    },
    {
      "inputs": [
        {
          "internalType": "uint256",
          "name": "amount",
          "type": "uint256"
        },
        {
          "internalType": "bytes",
          "name": "data",
          "type": "bytes"
        }
      ],
      "name": "burn",
      "outputs": [],
      "stateMutability": "nonpayable",
      "type": "function"
    },
    {
      "inputs": [
        {
          "internalType": "address",
          "name": "eleemosynaryAccount",
          "type": "address"
        },
        {
          "internalType": "uint256",
          "name": "donationRate",
          "type": "uint256"
        }
      ],
      "name": "changeEleemosynaryDetails",
      "outputs": [],
      "stateMutability": "nonpayable",
      "type": "function"
    },
    {
      "inputs": [
        {
          "internalType": "uint256",
          "name": "rate",
          "type": "uint256"
        }
      ],
      "name": "changeFeeRate",
      "outputs": [],
      "stateMutability": "nonpayable",
      "type": "function"
    },
    {
      "inputs": [
        {
          "internalType": "uint256",
          "name": "sellThreshold",
          "type": "uint256"
        },
        {
          "internalType": "uint256",
          "name": "rateEscalator",
          "type": "uint256"
        }
      ],
      "name": "changeSellThresholdDetails",
      "outputs": [],
      "stateMutability": "nonpayable",
      "type": "function"
    },
    {
      "inputs": [],
      "name": "decimals",
      "outputs": [
        {
          "internalType": "uint8",
          "name": "",
          "type": "uint8"
        }
      ],
      "stateMutability": "pure",
      "type": "function"
    },
    {
      "inputs": [],
      "name": "defaultOperators",
      "outputs": [
        {
          "internalType": "address[]",
          "name": "",
          "type": "address[]"
        }
      ],
      "stateMutability": "view",
      "type": "function"
    },
    {
      "inputs": [],
      "name": "getEleemosynaryDetails",
      "outputs": [
        {
          "internalType": "address",
          "name": "",
          "type": "address"
        },
        {
          "internalType": "uint256",
          "name": "",
          "type": "uint256"
        }
      ],
      "stateMutability": "view",
      "type": "function"
    },
    {
      "inputs": [],
      "name": "getFeeRate",
      "outputs": [
        {
          "internalType": "uint256",
          "name": "",
          "type": "uint256"
        }
      ],
      "stateMutability": "view",
      "type": "function"
    },
    {
      "inputs": [],
      "name": "getOperativeFeeRate",
      "outputs": [
        {
          "internalType": "uint256",
          "name": "",
          "type": "uint256"
        }
      ],
      "stateMutability": "view",
      "type": "function"
    },
    {
      "inputs": [
        {
          "internalType": "bytes32",
          "name": "role",
          "type": "bytes32"
        }
      ],
      "name": "getRoleAdmin",
      "outputs": [
        {
          "internalType": "bytes32",
          "name": "",
          "type": "bytes32"
        }
      ],
      "stateMutability": "view",
      "type": "function"
    },
    {
      "inputs": [],
      "name": "getSellQuota",
      "outputs": [
        {
          "components": [
            {
              "internalType": "uint256",
              "name": "blockMetric",
              "type": "uint256"
            },
            {
              "internalType": "int256",
              "name": "amount",
              "type": "int256"
            }
          ],
          "internalType": "struct SchnoodleV9Base.TokenMeter",
          "name": "",
          "type": "tuple"
        }
      ],
      "stateMutability": "view",
      "type": "function"
    },
    {
      "inputs": [],
      "name": "getSellThresholdDetails",
      "outputs": [
        {
          "internalType": "uint256",
          "name": "",
          "type": "uint256"
        },
        {
          "internalType": "uint256",
          "name": "",
          "type": "uint256"
        }
      ],
      "stateMutability": "view",
      "type": "function"
    },
    {
      "inputs": [
        {
          "internalType": "bytes32",
          "name": "role",
          "type": "bytes32"
        },
        {
          "internalType": "address",
          "name": "account",
          "type": "address"
        }
      ],
      "name": "grantRole",
      "outputs": [],
      "stateMutability": "nonpayable",
      "type": "function"
    },
    {
      "inputs": [],
      "name": "granularity",
      "outputs": [
        {
          "internalType": "uint256",
          "name": "",
          "type": "uint256"
        }
      ],
      "stateMutability": "view",
      "type": "function"
    },
    {
      "inputs": [
        {
          "internalType": "bytes32",
          "name": "role",
          "type": "bytes32"
        },
        {
          "internalType": "address",
          "name": "account",
          "type": "address"
        }
      ],
      "name": "hasRole",
      "outputs": [
        {
          "internalType": "bool",
          "name": "",
          "type": "bool"
        }
      ],
      "stateMutability": "view",
      "type": "function"
    },
    {
      "inputs": [
        {
          "internalType": "string",
          "name": "name",
          "type": "string"
        },
        {
          "internalType": "string",
          "name": "symbol",
          "type": "string"
        },
        {
          "internalType": "address[]",
          "name": "defaultOperators",
          "type": "address[]"
        },
        {
          "internalType": "uint256",
          "name": "initialSupply",
          "type": "uint256"
        },
        {
          "internalType": "address",
          "name": "owner",
          "type": "address"
        }
      ],
      "name": "initialize",
      "outputs": [],
      "stateMutability": "nonpayable",
      "type": "function"
    },
    {
      "inputs": [
        {
          "internalType": "uint256",
          "name": "initialTokens",
          "type": "uint256"
        },
        {
          "internalType": "address",
          "name": "serviceAccount",
          "type": "address"
        }
      ],
      "name": "initialize",
      "outputs": [],
      "stateMutability": "nonpayable",
      "type": "function"
    },
    {
      "inputs": [
        {
          "internalType": "address",
          "name": "operator",
          "type": "address"
        },
        {
          "internalType": "address",
          "name": "tokenHolder",
          "type": "address"
        }
      ],
      "name": "isOperatorFor",
      "outputs": [
        {
          "internalType": "bool",
          "name": "",
          "type": "bool"
        }
      ],
      "stateMutability": "view",
      "type": "function"
    },
    {
      "inputs": [],
      "name": "maintenance",
      "outputs": [],
      "stateMutability": "nonpayable",
      "type": "function"
    },
    {
      "inputs": [],
      "name": "name",
      "outputs": [
        {
          "internalType": "string",
          "name": "",
          "type": "string"
        }
      ],
      "stateMutability": "view",
      "type": "function"
    },
    {
      "inputs": [
        {
          "internalType": "address",
          "name": "account",
          "type": "address"
        },
        {
          "internalType": "uint256",
          "name": "amount",
          "type": "uint256"
        },
        {
          "internalType": "bytes",
          "name": "data",
          "type": "bytes"
        },
        {
          "internalType": "bytes",
          "name": "operatorData",
          "type": "bytes"
        }
      ],
      "name": "operatorBurn",
      "outputs": [],
      "stateMutability": "nonpayable",
      "type": "function"
    },
    {
      "inputs": [
        {
          "internalType": "address",
          "name": "sender",
          "type": "address"
        },
        {
          "internalType": "address",
          "name": "recipient",
          "type": "address"
        },
        {
          "internalType": "uint256",
          "name": "amount",
          "type": "uint256"
        },
        {
          "internalType": "bytes",
          "name": "data",
          "type": "bytes"
        },
        {
          "internalType": "bytes",
          "name": "operatorData",
          "type": "bytes"
        }
      ],
      "name": "operatorSend",
      "outputs": [],
      "stateMutability": "nonpayable",
      "type": "function"
    },
    {
      "inputs": [],
      "name": "owner",
      "outputs": [
        {
          "internalType": "address",
          "name": "",
          "type": "address"
        }
      ],
      "stateMutability": "view",
      "type": "function"
    },
    {
      "inputs": [],
      "name": "renounceOwnership",
      "outputs": [],
      "stateMutability": "nonpayable",
      "type": "function"
    },
    {
      "inputs": [
        {
          "internalType": "bytes32",
          "name": "role",
          "type": "bytes32"
        },
        {
          "internalType": "address",
          "name": "account",
          "type": "address"
        }
      ],
      "name": "renounceRole",
      "outputs": [],
      "stateMutability": "nonpayable",
      "type": "function"
    },
    {
      "inputs": [
        {
          "internalType": "address",
          "name": "operator",
          "type": "address"
        }
      ],
      "name": "revokeOperator",
      "outputs": [],
      "stateMutability": "nonpayable",
      "type": "function"
    },
    {
      "inputs": [
        {
          "internalType": "bytes32",
          "name": "role",
          "type": "bytes32"
        },
        {
          "internalType": "address",
          "name": "account",
          "type": "address"
        }
      ],
      "name": "revokeRole",
      "outputs": [],
      "stateMutability": "nonpayable",
      "type": "function"
    },
    {
      "inputs": [
        {
          "internalType": "address",
          "name": "recipient",
          "type": "address"
        },
        {
          "internalType": "uint256",
          "name": "amount",
          "type": "uint256"
        },
        {
          "internalType": "bytes",
          "name": "data",
          "type": "bytes"
        }
      ],
      "name": "send",
      "outputs": [],
      "stateMutability": "nonpayable",
      "type": "function"
    },
    {
      "inputs": [
        {
          "internalType": "bytes4",
          "name": "interfaceId",
          "type": "bytes4"
        }
      ],
      "name": "supportsInterface",
      "outputs": [
        {
          "internalType": "bool",
          "name": "",
          "type": "bool"
        }
      ],
      "stateMutability": "view",
      "type": "function"
    },
    {
      "inputs": [],
      "name": "symbol",
      "outputs": [
        {
          "internalType": "string",
          "name": "",
          "type": "string"
        }
      ],
      "stateMutability": "view",
      "type": "function"
    },
    {
      "inputs": [],
      "name": "totalSupply",
      "outputs": [
        {
          "internalType": "uint256",
          "name": "",
          "type": "uint256"
        }
      ],
      "stateMutability": "view",
      "type": "function"
    },
    {
      "inputs": [
        {
          "internalType": "address",
          "name": "recipient",
          "type": "address"
        },
        {
          "internalType": "uint256",
          "name": "amount",
          "type": "uint256"
        }
      ],
      "name": "transfer",
      "outputs": [
        {
          "internalType": "bool",
          "name": "",
          "type": "bool"
        }
      ],
      "stateMutability": "nonpayable",
      "type": "function"
    },
    {
      "inputs": [
        {
          "internalType": "address",
          "name": "holder",
          "type": "address"
        },
        {
          "internalType": "address",
          "name": "recipient",
          "type": "address"
        },
        {
          "internalType": "uint256",
          "name": "amount",
          "type": "uint256"
        }
      ],
      "name": "transferFrom",
      "outputs": [
        {
          "internalType": "bool",
          "name": "",
          "type": "bool"
        }
      ],
      "stateMutability": "nonpayable",
      "type": "function"
    },
    {
      "inputs": [
        {
          "internalType": "address",
          "name": "newOwner",
          "type": "address"
        }
      ],
      "name": "transferOwnership",
      "outputs": [],
      "stateMutability": "nonpayable",
      "type": "function"
    },
    {
      "inputs": [
        {
          "internalType": "bool",
          "name": "testnet",
          "type": "bool"
        },
        {
          "internalType": "address",
          "name": "liquidityToken",
          "type": "address"
        },
        {
          "internalType": "address",
          "name": "schnoodleFarming",
          "type": "address"
        },
        {
          "internalType": "address",
          "name": "bridgeOwner",
          "type": "address"
        }
      ],
      "name": "configure",
      "outputs": [],
      "stateMutability": "nonpayable",
      "type": "function"
    },
    {
      "inputs": [],
      "name": "getFarmingFund",
      "outputs": [
        {
          "internalType": "address",
          "name": "",
          "type": "address"
        }
      ],
      "stateMutability": "view",
      "type": "function"
    },
    {
      "inputs": [
        {
          "internalType": "uint256",
          "name": "rate",
          "type": "uint256"
        }
      ],
      "name": "changeSowRate",
      "outputs": [],
      "stateMutability": "nonpayable",
      "type": "function"
    },
    {
      "inputs": [],
      "name": "getSowRate",
      "outputs": [
        {
          "internalType": "uint256",
          "name": "",
          "type": "uint256"
        }
      ],
      "stateMutability": "view",
      "type": "function"
    },
    {
      "inputs": [
        {
          "internalType": "address",
          "name": "account",
          "type": "address"
        },
        {
          "internalType": "uint256",
          "name": "netReward",
          "type": "uint256"
        },
        {
          "internalType": "uint256",
          "name": "grossReward",
          "type": "uint256"
        }
      ],
      "name": "farmingReward",
      "outputs": [],
      "stateMutability": "nonpayable",
      "type": "function"
    },
    {
      "inputs": [
        {
          "internalType": "address",
          "name": "account",
          "type": "address"
        }
      ],
      "name": "unlockedBalanceOf",
      "outputs": [
        {
          "internalType": "uint256",
          "name": "",
          "type": "uint256"
        }
      ],
      "stateMutability": "nonpayable",
      "type": "function"
    },
    {
      "inputs": [],
      "name": "getBridgeOwner",
      "outputs": [
        {
          "internalType": "address",
          "name": "",
          "type": "address"
        }
      ],
      "stateMutability": "view",
      "type": "function"
    },
    {
      "inputs": [
        {
          "internalType": "uint256",
          "name": "networkId",
          "type": "uint256"
        },
        {
          "internalType": "uint256",
          "name": "amount",
          "type": "uint256"
        }
      ],
      "name": "sendTokens",
      "outputs": [],
      "stateMutability": "nonpayable",
      "type": "function"
    },
    {
      "inputs": [
        {
          "internalType": "uint256",
          "name": "networkId",
          "type": "uint256"
        }
      ],
      "name": "payFee",
      "outputs": [],
      "stateMutability": "payable",
      "type": "function"
    },
    {
      "inputs": [
        {
          "internalType": "address",
          "name": "account",
          "type": "address"
        },
        {
          "internalType": "uint256",
          "name": "networkId",
          "type": "uint256"
        },
        {
          "internalType": "uint256",
          "name": "amount",
          "type": "uint256"
        },
        {
          "internalType": "uint256",
          "name": "fee",
          "type": "uint256"
        }
      ],
      "name": "receiveTokens",
      "outputs": [],
      "stateMutability": "nonpayable",
      "type": "function"
    },
    {
      "inputs": [
        {
          "internalType": "address",
          "name": "account",
          "type": "address"
        },
        {
          "internalType": "uint256",
          "name": "networkId",
          "type": "uint256"
        }
      ],
      "name": "tokensSent",
      "outputs": [
        {
          "internalType": "uint256",
          "name": "",
          "type": "uint256"
        }
      ],
      "stateMutability": "view",
      "type": "function"
    },
    {
      "inputs": [
        {
          "internalType": "address",
          "name": "account",
          "type": "address"
        },
        {
          "internalType": "uint256",
          "name": "networkId",
          "type": "uint256"
        }
      ],
      "name": "tokensReceived",
      "outputs": [
        {
          "internalType": "uint256",
          "name": "",
          "type": "uint256"
        }
      ],
      "stateMutability": "view",
      "type": "function"
    },
    {
      "inputs": [
        {
          "internalType": "address",
          "name": "account",
          "type": "address"
        },
        {
          "internalType": "uint256",
          "name": "networkId",
          "type": "uint256"
        }
      ],
      "name": "feesPaid",
      "outputs": [
        {
          "internalType": "uint256",
          "name": "",
          "type": "uint256"
        }
      ],
      "stateMutability": "view",
      "type": "function"
    }
  ],
  "bytecode": "0x608060405234801561001057600080fd5b50613e9e806100206000396000f3fe6080604052600436106103505760003560e01c806384e5eed0116101c6578063b393204b116100f7578063e84839bd11610095578063fad8b32a1161006f578063fad8b32a14610a81578063fc673c4f14610aa1578063fdf5f4f814610ac1578063fe9d930314610ae957600080fd5b8063e84839bd14610a21578063f2fde38b14610a41578063f364109a14610a6157600080fd5b8063d547741f116100d1578063d547741f146109a1578063d95b6371146109c1578063da35a26f146109e1578063dd62ed3e14610a0157600080fd5b8063b393204b14610936578063b7a895fa1461094b578063d289ade21461098e57600080fd5b806395d89b4111610164578063a217fddf1161013e578063a217fddf146108c1578063a9059cbb146108d6578063affca932146108f6578063b1e067b21461091657600080fd5b806395d89b41146108585780639bd9bbc61461086d578063a1422f691461088d57600080fd5b80639137ac72116101a05780639137ac72146107c457806391d14854146107f8578063957872aa14610818578063959b8c3f1461083857600080fd5b806384e5eed01461074d578063895b978e146107625780638da5cb5b146107a657600080fd5b806331bcd2b7116102a05780636c376cc51161023e578063715018a611610218578063715018a6146106d8578063768f950a146106ed5780638184ba411461070d57806384955c881461072d57600080fd5b80636c376cc5146106845780636da1dd261461069957806370a08231146106b857600080fd5b8063556f0dc71161027a578063556f0dc7146105ef57806362ad1b83146106035780636a6ccdf5146106235780636c05932a1461063957600080fd5b806331bcd2b71461057c57806336568abe1461059c5780634cbe3db5146105bc57600080fd5b806322daa21d1161030d57806324a756d1116102e757806324a756d1146104c85780632861c7d11461050c5780632f2ff15d14610540578063313ce5671461056057600080fd5b806322daa21d1461045557806323b872dd14610477578063248a9ca31461049757600080fd5b806301ffc9a71461035557806306e485381461038a57806306fdde03146103ac578063095ea7b3146103ce5780630a831211146103ee57806318160ddd14610440575b600080fd5b34801561036157600080fd5b50610375610370366004613278565b610b09565b60405190151581526020015b60405180910390f35b34801561039657600080fd5b5061039f610b40565b60405161038191906132a2565b3480156103b857600080fd5b506103c1610ba2565b6040516103819190613347565b3480156103da57600080fd5b506103756103e936600461337a565b610c2b565b3480156103fa57600080fd5b5061043261040936600461337a565b6001600160a01b0391909116600090815261013960209081526040808320938352929052205490565b604051908152602001610381565b34801561044c57600080fd5b5060c954610432565b34801561046157600080fd5b506104756104703660046133a6565b610c43565b005b34801561048357600080fd5b506103756104923660046133bf565b610cb3565b3480156104a357600080fd5b506104326104b23660046133a6565b6000908152610103602052604090206001015490565b3480156104d457600080fd5b506104326104e336600461337a565b6001600160a01b0391909116600090815261013a60209081526040808320938352929052205490565b34801561051857600080fd5b506104327f86cf169ddb9f19bc57304a958748511e956d0b9255fb5895294f9c4ae5b00d5881565b34801561054c57600080fd5b5061047561055b366004613400565b610cf9565b34801561056c57600080fd5b5060405160128152602001610381565b34801561058857600080fd5b50610475610597366004613430565b610d24565b3480156105a857600080fd5b506104756105b7366004613400565b610d71565b3480156105c857600080fd5b50610138546001600160a01b03165b6040516001600160a01b039091168152602001610381565b3480156105fb57600080fd5b506001610432565b34801561060f57600080fd5b5061047561061e366004613509565b610def565b34801561062f57600080fd5b5061013754610432565b34801561064557600080fd5b5060408051808201825260008082526020918201528151808301835260ce5480825260cf54918301918252835190815290519181019190915201610381565b34801561069057600080fd5b50610475610e2b565b3480156106a557600080fd5b50610136546001600160a01b03166105d7565b3480156106c457600080fd5b506104326106d336600461359c565b610eb1565b3480156106e457600080fd5b50610475610ed3565b3480156106f957600080fd5b506104756107083660046135b9565b610f09565b34801561071957600080fd5b50610475610728366004613430565b610f88565b34801561073957600080fd5b5061043261074836600461359c565b610ff9565b34801561075957600080fd5b5060ca54610432565b34801561076e57600080fd5b5061043261077d36600461337a565b6001600160a01b0391909116600090815261013b60209081526040808320938352929052205490565b3480156107b257600080fd5b506097546001600160a01b03166105d7565b3480156107d057600080fd5b506104327f6426100d0053205ef4e6cbd754ca9b11acf0e907f8e2741bd95048bd4543de1a81565b34801561080457600080fd5b50610375610813366004613400565b611017565b34801561082457600080fd5b506104756108333660046136cc565b611043565b34801561084457600080fd5b5061047561085336600461359c565b6110d6565b34801561086457600080fd5b506103c16111f3565b34801561087957600080fd5b50610475610888366004613701565b611202565b34801561089957600080fd5b506104327feb4a01a12a4bbfa1bc780c16c5b2b6720cdf4f3c29cabd8c0f76fec3a575096b81565b3480156108cd57600080fd5b50610432600081565b3480156108e257600080fd5b506103756108f136600461337a565b611220565b34801561090257600080fd5b506104756109113660046133a6565b611258565b34801561092257600080fd5b5061047561093136600461375a565b6112b7565b34801561094257600080fd5b50610432611425565b34801561095757600080fd5b5061096f60cb5460cc546001600160a01b0390911691565b604080516001600160a01b039093168352602083019190915201610381565b61047561099c3660046133a6565b611497565b3480156109ad57600080fd5b506104756109bc366004613400565b611501565b3480156109cd57600080fd5b506103756109dc366004613795565b611527565b3480156109ed57600080fd5b506104756109fc366004613400565b6115c9565b348015610a0d57600080fd5b50610432610a1c366004613795565b6116c6565b348015610a2d57600080fd5b50610475610a3c36600461337a565b6116f7565b348015610a4d57600080fd5b50610475610a5c36600461359c565b61177b565b348015610a6d57600080fd5b50610475610a7c3660046137c3565b611816565b348015610a8d57600080fd5b50610475610a9c36600461359c565b611963565b348015610aad57600080fd5b50610475610abc366004613824565b611a7e565b348015610acd57600080fd5b5060cd5460d05460408051928352602083019190915201610381565b348015610af557600080fd5b50610475610b043660046138a4565b611ab0565b60006001600160e01b03198216637965db0b60e01b1480610b3a57506301ffc9a760e01b6001600160e01b03198316145b92915050565b60606037805480602002602001604051908101604052809291908181526020018280548015610b9857602002820191906000526020600020905b81546001600160a01b03168152600190910190602001808311610b7a575b5050505050905090565b606060358054610bb1906138eb565b80601f0160208091040260200160405190810160405280929190818152602001828054610bdd906138eb565b8015610b985780601f10610bff57610100808354040283529160200191610b98565b820191906000526020600020905b815481529060010190602001808311610c0d57509395945050505050565b600033610c39818585611acb565b5060019392505050565b6097546001600160a01b03163314610c765760405162461bcd60e51b8152600401610c6d90613925565b60405180910390fd5b6101378190556040518181527f356b0da78b28f488d953ba76712b3bdd18f174ff2296108417b4c1d47669692d906020015b60405180910390a150565b600033610cc1858285611ade565b610cee85858560405180602001604052806000815250604051806020016040528060008152506000611af1565b506001949350505050565b60008281526101036020526040902060010154610d1581611b21565b610d1f8383611b2b565b505050565b610d3d8160405180602001604052806000815250611ab0565b3360009081526101396020908152604080832085845290915281208054839290610d68908490613970565b90915550505050565b6001600160a01b0381163314610de15760405162461bcd60e51b815260206004820152602f60248201527f416363657373436f6e74726f6c3a2063616e206f6e6c792072656e6f756e636560448201526e103937b632b9903337b91039b2b63360891b6064820152608401610c6d565b610deb8282611bb2565b5050565b610df93386611527565b610e155760405162461bcd60e51b8152600401610c6d90613988565b610e2485858585856001611af1565b5050505050565b737731a6785a01ea6b606eb8ffac7d7861c99dc6bb600081905260336020527f4c78c46f3cefaff5f8c39d2d891e07d9521f6015097e9200958a71d62d4b24bb547378fc40ca8a23cf02654d4a5638ba4d71bacaa96590610deb908390839060405180602001604052806000815250604051806020016040528060008152506001611c1a565b6001600160a01b038116600090815260336020526040812054610b3a90611d0d565b6097546001600160a01b03163314610efd5760405162461bcd60e51b8152600401610c6d90613925565b610f076000611d34565b565b6000610f156001611d86565b90508015610f2d576000805461ff0019166101001790555b610f3a8686868686611e0b565b8015610f80576000805461ff0019169055604051600181527f7f26b83ff96e1f2b6a682f133852f6798a09c465da95921460cefb38474024989060200160405180910390a15b505050505050565b6097546001600160a01b03163314610fb25760405162461bcd60e51b8152600401610c6d90613925565b60cd82905560d081905560408051838152602081018390527f72c1673617b0c2d62adda4739eab51cd7805a8ad541ae28ec66f46052c1dfa62910160405180910390a15050565b600061100482611e4a565b61100d83610eb1565b610b3a91906139d4565b6000918252610103602090815260408084206001600160a01b0393909316845291905290205460ff1690565b61106d7f6426100d0053205ef4e6cbd754ca9b11acf0e907f8e2741bd95048bd4543de1a33611017565b61107657600080fd5b61013654611096906001600160a01b03168461109185611f2d565b611f41565b61013654610d1f906001600160a01b03166110b184846139d4565b6040518060200160405280600081525060405180602001604052806000815250611f57565b6001600160a01b038116330361113a5760405162461bcd60e51b8152602060048201526024808201527f4552433737373a20617574686f72697a696e672073656c66206173206f70657260448201526330ba37b960e11b6064820152608401610c6d565b6001600160a01b03811660009081526038602052604090205460ff161561118b57336000908152603a602090815260408083206001600160a01b03851684529091529020805460ff191690556111ba565b3360009081526039602090815260408083206001600160a01b03851684529091529020805460ff191660011790555b60405133906001600160a01b038316907ff4caeb2d6ca8932a215a353d0703c326ec2d81fc68170f320eb2ab49e9df61f990600090a350565b606060368054610bb1906138eb565b610d1f33848484604051806020016040528060008152506001611af1565b600061124f33848460405180602001604052806000815250604051806020016040528060008152506000611af1565b50600192915050565b6097546001600160a01b031633146112825760405162461bcd60e51b8152600401610c6d90613925565b60ca8190556040518181527fdd72d2879718489eb363ba6099239f89d49542612862c71545503d35cfddda4690602001610ca8565b610138546001600160a01b0316336001600160a01b03161461132e5760405162461bcd60e51b815260206004820152602a60248201527f5363686e6f6f646c653a2053656e646572206d7573742062652074686520627260448201526934b233b29037bbb732b960b11b6064820152608401610c6d565b6001600160a01b038416600090815261013b602090815260408083208684529091529020548111156113a25760405162461bcd60e51b815260206004820181905260248201527f5363686e6f6f646c653a20496e73756666696369656e742066656520706169646044820152606401610c6d565b6001600160a01b038416600090815261013b60209081526040808320868452909152812080548392906113d69084906139d4565b909155506113e690508483611f7d565b6001600160a01b038416600090815261013a602090815260408083208684529091528120805484929061141a908490613970565b909155505050505050565b60008060cd5411801561143a575060cf546000135b156114905760cd5460cf5461145a90611452906139eb565b60cd54611fc1565b60d05460ca5461146a9190613a07565b6114749190613a07565b61147e9190613a3c565b60ca5461148b9190613970565b905090565b5060ca5490565b33600090815261013b60209081526040808320848452909152812080543492906114c2908490613970565b9091555050610138546040516001600160a01b03909116903480156108fc02916000818181858888f19350505050158015610deb573d6000803e3d6000fd5b6000828152610103602052604090206001015461151d81611b21565b610d1f8383611bb2565b6000816001600160a01b0316836001600160a01b0316148061159257506001600160a01b03831660009081526038602052604090205460ff16801561159257506001600160a01b038083166000908152603a602090815260408083209387168352929052205460ff16155b806115c257506001600160a01b0380831660009081526039602090815260408083209387168352929052205460ff165b9392505050565b60006115d56001611d86565b905080156115ed576000805461ff0019166101001790555b6115f5611fd7565b6116016012600a613b34565b61160b9084613a07565b60c981905560408051808201825260098152685363686e6f6f646c6560b81b60208083019190915282518084018452600581526414d393d3d160da1b8183015283516000815291820190935261167c9391929161166a90600019613b43565b611676906000196139d4565b86611e0b565b8015610d1f576000805461ff0019169055604051600181527f7f26b83ff96e1f2b6a682f133852f6798a09c465da95921460cefb38474024989060200160405180910390a1505050565b6001600160a01b038083166000908152603b602090815260408083209385168352929052908120546115c290611d0d565b6097546001600160a01b031633146117215760405162461bcd60e51b8152600401610c6d90613925565b60cb80546001600160a01b0319166001600160a01b03841690811790915560cc8290556040518281527f3c9add9b205965c28e39a1f5fc6780a30ba0f001dc883ed462d795f97a2d94069060200160405180910390a25050565b6097546001600160a01b031633146117a55760405162461bcd60e51b8152600401610c6d90613925565b6001600160a01b03811661180a5760405162461bcd60e51b815260206004820152602660248201527f4f776e61626c653a206e6577206f776e657220697320746865207a65726f206160448201526564647265737360d01b6064820152608401610c6d565b61181381611d34565b50565b6097546001600160a01b031633146118405760405162461bcd60e51b8152600401610c6d90613925565b831561193857611862600061185d6097546001600160a01b031690565b612006565b61188c7f86cf169ddb9f19bc57304a958748511e956d0b9255fb5895294f9c4ae5b00d5884612006565b6118b67f6426100d0053205ef4e6cbd754ca9b11acf0e907f8e2741bd95048bd4543de1a83612006565b61013580546001600160a01b0319166001600160a01b038416179055426118de6001436139d4565b406040516020016118f9929190918252602082015260400190565b60408051808303601f19018152919052805160209091012061013680546001600160a01b0319166001600160a01b039092169190911790556028610137555b61013880546001600160a01b0319166001600160a01b03831617905561195d84612010565b50505050565b336001600160a01b038216036119c55760405162461bcd60e51b815260206004820152602160248201527f4552433737373a207265766f6b696e672073656c66206173206f70657261746f6044820152603960f91b6064820152608401610c6d565b6001600160a01b03811660009081526038602052604090205460ff1615611a1957336000908152603a602090815260408083206001600160a01b03851684529091529020805460ff19166001179055611a45565b3360009081526039602090815260408083206001600160a01b03851684529091529020805460ff191690555b60405133906001600160a01b038316907f50546e66e5f44d728365dc3908c63bc5cfeeab470722c1677e3073a6ac294aa190600090a350565b611a883385611527565b611aa45760405162461bcd60e51b8152600401610c6d90613988565b61195d84848484611f57565b610deb33838360405180602001604052806000815250611f57565b610d1f8383611ad984611f2d565b61206a565b610d1f8383611aec84611d0d565b61219b565b6000611afc85611f2d565b9050611b0c878783878787611c1a565b611b188787878461220f565b50505050505050565b6118138133612342565b611b358282611017565b610deb576000828152610103602090815260408083206001600160a01b03851684529091529020805460ff19166001179055611b6e3390565b6001600160a01b0316816001600160a01b0316837f2f8788117e7eff1d82e926ec794901d17c78024a50270940304540a733656f0d60405160405180910390a45050565b611bbc8282611017565b15610deb576000828152610103602090815260408083206001600160a01b0385168085529252808320805460ff1916905551339285917ff6391f5c32d9c69d2a47ea670b442974b53935d1edc7fd64eb21e047a839171b9190a45050565b6001600160a01b038616611c7f5760405162461bcd60e51b815260206004820152602660248201527f4552433737373a207472616e736665722066726f6d20746865207a65726f206160448201526564647265737360d01b6064820152608401610c6d565b6001600160a01b038516611ce15760405162461bcd60e51b8152602060048201526024808201527f4552433737373a207472616e7366657220746f20746865207a65726f206164646044820152637265737360e01b6064820152608401610c6d565b33611cf08188888888886123a6565b611cfe8188888888886124cd565b611b1881888888888888612649565b60008115611d2c57611d1d61280e565b611d279083613a3c565b610b3a565b600092915050565b609780546001600160a01b038381166001600160a01b0319831681179093556040519116919082907f8be0079c531659141344cd1fd0a4f28419497f9722a3daafe3b4186f6b6457e090600090a35050565b60008054610100900460ff1615611dc5578160ff166001148015611da95750303b155b611d2c5760405162461bcd60e51b8152600401610c6d90613b57565b60005460ff808416911610611dec5760405162461bcd60e51b8152600401610c6d90613b57565b506000805460ff191660ff92909216919091179055600190565b919050565b600054610100900460ff16611e325760405162461bcd60e51b8152600401610c6d90613ba5565b611e3d85858561283d565b610e248585858585612a27565b610135546000906001600160a01b0316611e6657506000919050565b610135546040516001600160a01b038481166024830152600092839291169060440160408051601f198184030181529181526020820180516001600160e01b0316632c9aab9b60e11b17905251611ebd9190613bf0565b6000604051808303816000865af19150503d8060008114611efa576040519150601f19603f3d011682016040523d82523d6000602084013e611eff565b606091505b509150915081611f1157611f11613c0c565b80806020019051810190611f259190613c22565b949350505050565b6000611f3761280e565b610b3a9083613a07565b611f4c83338361206a565b61195d838383610cb3565b611f6b84611f6485611f2d565b8484612a78565b8260c9600082825461141a91906139d4565b611faf82611f8a83611f2d565b6040518060200160405280600081525060405180602001604052806000815250612c44565b8060c96000828254610d689190613970565b6000818310611fd057816115c2565b5090919050565b600054610100900460ff16611ffe5760405162461bcd60e51b8152600401610c6d90613ba5565b610f07612c52565b610deb8282611b2b565b6097546001600160a01b0316331461203a5760405162461bcd60e51b8152600401610c6d90613925565b801561181357602860ca55600660d0556120566012600a613b34565b61206490633b9aca00613a07565b60cd5550565b6001600160a01b0383166120ce5760405162461bcd60e51b815260206004820152602560248201527f4552433737373a20617070726f76652066726f6d20746865207a65726f206164604482015264647265737360d81b6064820152608401610c6d565b6001600160a01b0382166121305760405162461bcd60e51b815260206004820152602360248201527f4552433737373a20617070726f766520746f20746865207a65726f206164647260448201526265737360e81b6064820152608401610c6d565b6001600160a01b038084166000818152603b602090815260408083209487168084529490915290208390557f8c5be1e5ebec7d5bd14f71427d1e84f3dd0314c0f7b2291e5b200ac8c7c3b92561218584612c82565b60405190815260200160405180910390a3505050565b60006121a784846116c6565b9050600019811461195d57818110156122025760405162461bcd60e51b815260206004820152601e60248201527f4552433737373a20696e73756666696369656e7420616c6c6f77616e636500006044820152606401610c6d565b61195d8484848403611acb565b600061221a85612c8d565b9050600081158015612230575061223085612c8d565b60cd549091501561232b5760ce5442901580612259575061225462015180826139d4565b60ce54105b156122a65760ce81905560cd5460cf8190556040805183815260208101929092527f6326273a6785f513768f2d48c9379925280b1265fc536c9ba0d40d213994064b910160405180910390a15b84836122c057826122b85760006122c3565b6000196122c3565b60015b6122cd9190613c3b565b60cf80546000906122df908490613cc0565b909155505060ce5460cf546040517f6326273a6785f513768f2d48c9379925280b1265fc536c9ba0d40d213994064b9261232192908252602082015260400190565b60405180910390a1505b8061233757505061195d565b610f80858585612cb9565b61234c8282611017565b610deb57612364816001600160a01b03166014612ce5565b61236f836020612ce5565b604051602001612380929190613d01565b60408051601f198184030181529082905262461bcd60e51b8252610c6d91600401613347565b60405163555ddc6560e11b81526001600160a01b03861660048201527f29ddb589b1fb5fc7cf394961c1adf5f8c6454761adf795e67fe149f658abe8956024820152600090731820a4b7618bde71dce8cdc73aab6c95905fad249063aabbb8ca90604401602060405180830381865afa158015612427573d6000803e3d6000fd5b505050506040513d601f19601f8201168201806040525081019061244b9190613d76565b90506001600160a01b03811615611b1857604051633ad5cbc160e11b81526001600160a01b038216906375ab978290612492908a908a908a908a908a908a90600401613d93565b600060405180830381600087803b1580156124ac57600080fd5b505af11580156124c0573d6000803e3d6000fd5b5050505050505050505050565b6124d986868686612e81565b6001600160a01b038516600090815260336020526040902054838110156125525760405162461bcd60e51b815260206004820152602760248201527f4552433737373a207472616e7366657220616d6f756e7420657863656564732060448201526662616c616e636560c81b6064820152608401610c6d565b6001600160a01b03808716600090815260336020526040808220878503905591871681529081208054869290612589908490613970565b90915550612598905084612c82565b9350846001600160a01b0316866001600160a01b0316886001600160a01b03167f06b541ddaa720db2b10a4d0cdac39b8d360425fc073085fac19bc826146779878787876040516125eb93929190613ded565b60405180910390a4846001600160a01b0316866001600160a01b03167fddf252ad1be2c89b69c2b068fc378daa952ba7f163c4a11628f55a4df523b3ef8660405161263891815260200190565b60405180910390a350505050505050565b60405163555ddc6560e11b81526001600160a01b03861660048201527fb281fc8c12954d22544db45de3159a39272895b169a852b314f9cc762e44c53b6024820152600090731820a4b7618bde71dce8cdc73aab6c95905fad249063aabbb8ca90604401602060405180830381865afa1580156126ca573d6000803e3d6000fd5b505050506040513d601f19601f820116820180604052508101906126ee9190613d76565b90506001600160a01b0381161561276a576040516223de2960e01b81526001600160a01b038216906223de2990612733908b908b908b908b908b908b90600401613d93565b600060405180830381600087803b15801561274d57600080fd5b505af1158015612761573d6000803e3d6000fd5b50505050612804565b8115612804576001600160a01b0386163b156128045760405162461bcd60e51b815260206004820152604d60248201527f4552433737373a20746f6b656e20726563697069656e7420636f6e747261637460448201527f20686173206e6f20696d706c656d656e74657220666f7220455243373737546f60648201526c1ad95b9cd49958da5c1a595b9d609a1b608482015260a401610c6d565b5050505050505050565b60008061281a60345490565b905080156128345760c95461282f9082613a3c565b612837565b60005b91505090565b600054610100900460ff166128645760405162461bcd60e51b8152600401610c6d90613ba5565b825161287790603590602086019061318a565b50815161288b90603690602085019061318a565b50805161289f90603790602084019061320e565b5060005b8151811015612908576001603860008484815181106128c4576128c4613e22565b6020908102919091018101516001600160a01b03168252810191909152604001600020805460ff19169115159190911790558061290081613e38565b9150506128a3565b506040516329965a1d60e01b815230600482018190527fac7fbab5f54a3ca8194167523c6753bfeb96a445279294b6125b68cce217705460248301526044820152731820a4b7618bde71dce8cdc73aab6c95905fad24906329965a1d90606401600060405180830381600087803b15801561298257600080fd5b505af1158015612996573d6000803e3d6000fd5b50506040516329965a1d60e01b815230600482018190527faea199e31a596269b42cdafd93407f14436db6e4cad65417994c2eb37381e05a60248301526044820152731820a4b7618bde71dce8cdc73aab6c95905fad2492506329965a1d9150606401600060405180830381600087803b158015612a1357600080fd5b505af1158015611b18573d6000803e3d6000fd5b600054610100900460ff16612a4e5760405162461bcd60e51b8152600401610c6d90613ba5565b610e2481836040518060200160405280600081525060405180602001604052806000815250612c44565b6001600160a01b038416612ad95760405162461bcd60e51b815260206004820152602260248201527f4552433737373a206275726e2066726f6d20746865207a65726f206164647265604482015261737360f01b6064820152608401610c6d565b33612ae9818660008787876123a6565b612af68186600087612e81565b6001600160a01b03851660009081526033602052604090205484811015612b6b5760405162461bcd60e51b815260206004820152602360248201527f4552433737373a206275726e20616d6f756e7420657863656564732062616c616044820152626e636560e81b6064820152608401610c6d565b6001600160a01b0386166000908152603360205260408120868303905560348054879290612b9a9084906139d4565b90915550612ba9905085612c82565b9450856001600160a01b0316826001600160a01b03167fa78a9be3a7b862d26933ad85fb11d80ef66b8f972d7cbba06621d583943a4098878787604051612bf293929190613ded565b60405180910390a36040518581526000906001600160a01b038816907fddf252ad1be2c89b69c2b068fc378daa952ba7f163c4a11628f55a4df523b3ef906020015b60405180910390a3505050505050565b61195d848484846001612f6e565b600054610100900460ff16612c795760405162461bcd60e51b8152600401610c6d90613ba5565b610f0733611d34565b6000610b3a82611d0d565b6000610b3a7f86cf169ddb9f19bc57304a958748511e956d0b9255fb5895294f9c4ae5b00d5883611017565b612cc48383836130bf565b6101365461013754610d1f9185916001600160a01b03909116908590613126565b60606000612cf4836002613a07565b612cff906002613970565b67ffffffffffffffff811115612d1757612d17613452565b6040519080825280601f01601f191660200182016040528015612d41576020820181803683370190505b509050600360fc1b81600081518110612d5c57612d5c613e22565b60200101906001600160f81b031916908160001a905350600f60fb1b81600181518110612d8b57612d8b613e22565b60200101906001600160f81b031916908160001a9053506000612daf846002613a07565b612dba906001613970565b90505b6001811115612e32576f181899199a1a9b1b9c1cb0b131b232b360811b85600f1660108110612dee57612dee613e22565b1a60f81b828281518110612e0457612e04613e22565b60200101906001600160f81b031916908160001a90535060049490941c93612e2b81613e51565b9050612dbd565b5083156115c25760405162461bcd60e51b815260206004820181905260248201527f537472696e67733a20686578206c656e67746820696e73756666696369656e746044820152606401610c6d565b6001600160a01b03831615612f69576000612e9b82611d0d565b90506000612ea885610eb1565b905080821180612eca5750612ebc85611e4a565b612ec690826139d4565b8211155b612f325760405162461bcd60e51b815260206004820152603360248201527f5363686e6f6f646c653a207472616e7366657220616d6f756e74206578636565604482015272647320756e6c6f636b65642062616c616e636560681b6064820152608401610c6d565b612f5c7feb4a01a12a4bbfa1bc780c16c5b2b6720cdf4f3c29cabd8c0f76fec3a575096b86611017565b15612f6657600080fd5b50505b61195d565b6001600160a01b038516612fc45760405162461bcd60e51b815260206004820181905260248201527f4552433737373a206d696e7420746f20746865207a65726f20616464726573736044820152606401610c6d565b33612fd28160008888612e81565b8460346000828254612fe49190613970565b90915550506001600160a01b03861660009081526033602052604081208054879290613011908490613970565b9091555061302790508160008888888888612649565b61303085612c82565b9450856001600160a01b0316816001600160a01b03167f2fe5be0146f74c5bce36c0b80911af6c7d86ff27e89d5cfa61fc681327954e5d87878760405161307993929190613ded565b60405180910390a36040518581526001600160a01b038716906000907fddf252ad1be2c89b69c2b068fc378daa952ba7f163c4a11628f55a4df523b3ef90602001612c34565b60006130c9611425565b905061310b84826130dc6103e886613a3c565b6130e69190613a07565b6040518060200160405280600081525060405180602001604052806000815250612a78565b60cb5460cc5461195d9186916001600160a01b039091169086905b6001600160a01b0383161561195d5760006103e86131448385613a07565b61314e9190613a3c565b9050600061315b82611f2d565b9050610f8086868360405180602001604052806000815250604051806020016040528060008152506001611c1a565b828054613196906138eb565b90600052602060002090601f0160209004810192826131b857600085556131fe565b82601f106131d157805160ff19168380011785556131fe565b828001600101855582156131fe579182015b828111156131fe5782518255916020019190600101906131e3565b5061320a929150613263565b5090565b8280548282559060005260206000209081019282156131fe579160200282015b828111156131fe57825182546001600160a01b0319166001600160a01b0390911617825560209092019160019091019061322e565b5b8082111561320a5760008155600101613264565b60006020828403121561328a57600080fd5b81356001600160e01b0319811681146115c257600080fd5b6020808252825182820181905260009190848201906040850190845b818110156132e35783516001600160a01b0316835292840192918401916001016132be565b50909695505050505050565b60005b8381101561330a5781810151838201526020016132f2565b8381111561195d5750506000910152565b600081518084526133338160208601602086016132ef565b601f01601f19169290920160200192915050565b6020815260006115c2602083018461331b565b6001600160a01b038116811461181357600080fd5b8035611e068161335a565b6000806040838503121561338d57600080fd5b82356133988161335a565b946020939093013593505050565b6000602082840312156133b857600080fd5b5035919050565b6000806000606084860312156133d457600080fd5b83356133df8161335a565b925060208401356133ef8161335a565b929592945050506040919091013590565b6000806040838503121561341357600080fd5b8235915060208301356134258161335a565b809150509250929050565b6000806040838503121561344357600080fd5b50508035926020909101359150565b634e487b7160e01b600052604160045260246000fd5b604051601f8201601f1916810167ffffffffffffffff8111828210171561349157613491613452565b604052919050565b600082601f8301126134aa57600080fd5b813567ffffffffffffffff8111156134c4576134c4613452565b6134d7601f8201601f1916602001613468565b8181528460208386010111156134ec57600080fd5b816020850160208301376000918101602001919091529392505050565b600080600080600060a0868803121561352157600080fd5b853561352c8161335a565b9450602086013561353c8161335a565b935060408601359250606086013567ffffffffffffffff8082111561356057600080fd5b61356c89838a01613499565b9350608088013591508082111561358257600080fd5b5061358f88828901613499565b9150509295509295909350565b6000602082840312156135ae57600080fd5b81356115c28161335a565b600080600080600060a086880312156135d157600080fd5b853567ffffffffffffffff808211156135e957600080fd5b6135f589838a01613499565b965060209150818801358181111561360c57600080fd5b6136188a828b01613499565b96505060408801358181111561362d57600080fd5b8801601f81018a1361363e57600080fd5b80358281111561365057613650613452565b8060051b9250613661848401613468565b818152928201840192848101908c85111561367b57600080fd5b928501925b848410156136a557833592506136958361335a565b8282529285019290850190613680565b9750505050606088013593506136c09150506080870161336f565b90509295509295909350565b6000806000606084860312156136e157600080fd5b83356136ec8161335a565b95602085013595506040909401359392505050565b60008060006060848603121561371657600080fd5b83356137218161335a565b925060208401359150604084013567ffffffffffffffff81111561374457600080fd5b61375086828701613499565b9150509250925092565b6000806000806080858703121561377057600080fd5b843561377b8161335a565b966020860135965060408601359560600135945092505050565b600080604083850312156137a857600080fd5b82356137b38161335a565b915060208301356134258161335a565b600080600080608085870312156137d957600080fd5b843580151581146137e957600080fd5b935060208501356137f98161335a565b925060408501356138098161335a565b915060608501356138198161335a565b939692955090935050565b6000806000806080858703121561383a57600080fd5b84356138458161335a565b935060208501359250604085013567ffffffffffffffff8082111561386957600080fd5b61387588838901613499565b9350606087013591508082111561388b57600080fd5b5061389887828801613499565b91505092959194509250565b600080604083850312156138b757600080fd5b82359150602083013567ffffffffffffffff8111156138d557600080fd5b6138e185828601613499565b9150509250929050565b600181811c908216806138ff57607f821691505b60208210810361391f57634e487b7160e01b600052602260045260246000fd5b50919050565b6020808252818101527f4f776e61626c653a2063616c6c6572206973206e6f7420746865206f776e6572604082015260600190565b634e487b7160e01b600052601160045260246000fd5b600082198211156139835761398361395a565b500190565b6020808252602c908201527f4552433737373a2063616c6c6572206973206e6f7420616e206f70657261746f60408201526b39103337b9103437b63232b960a11b606082015260800190565b6000828210156139e6576139e661395a565b500390565b6000600160ff1b8201613a0057613a0061395a565b5060000390565b6000816000190483118215151615613a2157613a2161395a565b500290565b634e487b7160e01b600052601260045260246000fd5b600082613a4b57613a4b613a26565b500490565b600181815b80851115613a8b578160001904821115613a7157613a7161395a565b80851615613a7e57918102915b93841c9390800290613a55565b509250929050565b600082613aa257506001610b3a565b81613aaf57506000610b3a565b8160018114613ac55760028114613acf57613aeb565b6001915050610b3a565b60ff841115613ae057613ae061395a565b50506001821b610b3a565b5060208310610133831016604e8410600b8410161715613b0e575081810a610b3a565b613b188383613a50565b8060001904821115613b2c57613b2c61395a565b029392505050565b60006115c260ff841683613a93565b600082613b5257613b52613a26565b500690565b6020808252602e908201527f496e697469616c697a61626c653a20636f6e747261637420697320616c72656160408201526d191e481a5b9a5d1a585b1a5e995960921b606082015260800190565b6020808252602b908201527f496e697469616c697a61626c653a20636f6e7472616374206973206e6f74206960408201526a6e697469616c697a696e6760a81b606082015260800190565b60008251613c028184602087016132ef565b9190910192915050565b634e487b7160e01b600052600160045260246000fd5b600060208284031215613c3457600080fd5b5051919050565b60006001600160ff1b0381841382841380821686840486111615613c6157613c6161395a565b600160ff1b6000871282811687830589121615613c8057613c8061395a565b60008712925087820587128484161615613c9c57613c9c61395a565b87850587128184161615613cb257613cb261395a565b505050929093029392505050565b600080821280156001600160ff1b0384900385131615613ce257613ce261395a565b600160ff1b8390038412811615613cfb57613cfb61395a565b50500190565b7f416363657373436f6e74726f6c3a206163636f756e7420000000000000000000815260008351613d398160178501602088016132ef565b7001034b99036b4b9b9b4b733903937b6329607d1b6017918401918201528351613d6a8160288401602088016132ef565b01602801949350505050565b600060208284031215613d8857600080fd5b81516115c28161335a565b6001600160a01b0387811682528681166020830152851660408201526060810184905260c060808201819052600090613dce9083018561331b565b82810360a0840152613de0818561331b565b9998505050505050505050565b838152606060208201526000613e06606083018561331b565b8281036040840152613e18818561331b565b9695505050505050565b634e487b7160e01b600052603260045260246000fd5b600060018201613e4a57613e4a61395a565b5060010190565b600081613e6057613e6061395a565b50600019019056fea2646970667358221220ec0de93f9dafc3526dbeb389ec65eb557865c0d04c4c1eb73a92f27ae5f38e1a64736f6c634300080e0033",
  "immutableReferences": {},
  "source": "// contracts/SchnoodleV9.sol\r\n// SPDX-License-Identifier: MIT\r\npragma solidity ^0.8.0;\r\n\r\nimport \"./imports/SchnoodleV9Base.sol\";\r\nimport \"@schnoodle/contracts-upgradeable/access/AccessControlUpgradeable.sol\";\r\n\r\n/// @author Jason Payne (https://twitter.com/Neo42)\r\ncontract SchnoodleV9 is SchnoodleV9Base, AccessControlUpgradeable {\r\n    address private _schnoodleFarming;\r\n    address private _farmingFund;\r\n    uint256 private _sowRate;\r\n\r\n    bytes32 public constant LIQUIDITY = keccak256(\"LIQUIDITY\");\r\n    bytes32 public constant FARMING_CONTRACT = keccak256(\"FARMING_CONTRACT\");\r\n    bytes32 public constant LOCKED = keccak256(\"LOCKED\");\r\n\r\n    address private _bridgeOwner;\r\n    mapping(address => mapping (uint256 => uint256)) private _tokensSent;\r\n    mapping(address => mapping (uint256 => uint256)) private _tokensReceived;\r\n    mapping(address => mapping (uint256 => uint256)) private _feesPaid;\r\n\r\n    function configure(bool testnet, address liquidityToken, address schnoodleFarming, address bridgeOwner) external onlyOwner {\r\n        if (testnet) {\r\n            _setupRole(DEFAULT_ADMIN_ROLE, owner());\r\n            _setupRole(LIQUIDITY, liquidityToken);\r\n            _setupRole(FARMING_CONTRACT, schnoodleFarming);\r\n            _schnoodleFarming = schnoodleFarming;\r\n            _farmingFund = address(uint160(uint256(keccak256(abi.encodePacked(block.timestamp, blockhash(block.number - 1))))));\r\n            _sowRate = 40;\r\n        }\r\n\r\n        _bridgeOwner = bridgeOwner;\r\n        configure(testnet);\r\n    }\r\n\r\n    // Transfer overrides\r\n\r\n    function _beforeTokenTransfer(address operator, address from, address to, uint256 amount) internal override {\r\n        // Ensure the sender has enough unlocked balance to perform the transfer\r\n        if (from != address(0)) {\r\n            uint256 standardAmount = _getStandardAmount(amount);\r\n            uint256 balance = balanceOf(from);\r\n            require(standardAmount > balance || standardAmount <= balance - lockedBalanceOf(from), \"Schnoodle: transfer amount exceeds unlocked balance\");\r\n            require(!hasRole(LOCKED, from));\r\n        }\r\n\r\n        super._beforeTokenTransfer(operator, from, to, amount);\r\n    }\r\n\r\n    function payFees(address to, uint256 amount, uint256 reflectedAmount) internal override {\r\n        super.payFees(to, amount, reflectedAmount);\r\n        payFund(to, _farmingFund, amount, _sowRate);\r\n    }\r\n\r\n    function isLiquidityToken(address account) internal view override returns(bool)\r\n    {\r\n        return hasRole(LIQUIDITY, account);\r\n    }\r\n\r\n    // Farming functions\r\n\r\n    function getFarmingFund() external view returns (address) {\r\n        return _farmingFund;\r\n    }\r\n\r\n    function changeSowRate(uint256 rate) external onlyOwner {\r\n        _sowRate = rate;\r\n        emit SowRateChanged(rate);\r\n    }\r\n\r\n    function getSowRate() external view returns (uint256) {\r\n        return _sowRate;\r\n    }\r\n\r\n    function farmingReward(address account, uint256 netReward, uint256 grossReward) external {\r\n        require(hasRole(FARMING_CONTRACT, _msgSender()));\r\n        _transferFromReflected(_farmingFund, account, _getReflectedAmount(netReward));\r\n\r\n        // Burn the unused part of the gross reward\r\n        _burn(_farmingFund, grossReward - netReward, \"\", \"\");\r\n    }\r\n\r\n    function unlockedBalanceOf(address account) external returns (uint256) {\r\n        return balanceOf(account) - lockedBalanceOf(account);\r\n    }\r\n\r\n    // Bridge functions\r\n\r\n    function getBridgeOwner() external view returns (address) {\r\n        return _bridgeOwner;\r\n    }\r\n\r\n    function sendTokens(uint256 networkId, uint256 amount) external {\r\n        burn(amount, \"\");\r\n        _tokensSent[_msgSender()][networkId] += amount;\r\n    }\r\n\r\n    function payFee(uint256 networkId) external payable {\r\n        _feesPaid[_msgSender()][networkId] += msg.value;\r\n        payable(_bridgeOwner).transfer(msg.value);\r\n    }\r\n\r\n    function receiveTokens(address account, uint256 networkId, uint256 amount, uint256 fee) external {\r\n        require(_msgSender() == _bridgeOwner, \"Schnoodle: Sender must be the bridge owner\");\r\n        require(_feesPaid[account][networkId] >= fee, \"Schnoodle: Insufficient fee paid\");\r\n\r\n        _feesPaid[account][networkId] -= fee;\r\n        _mint(account, amount);\r\n        _tokensReceived[account][networkId] += amount;\r\n    }\r\n\r\n    function tokensSent(address account, uint256 networkId) external view returns (uint256) {\r\n        return _tokensSent[account][networkId];\r\n    }\r\n\r\n    function tokensReceived(address account, uint256 networkId) external view returns (uint256) {\r\n        return _tokensReceived[account][networkId];\r\n    }\r\n\r\n    function feesPaid(address account, uint256 networkId) external view returns (uint256) {\r\n        return _feesPaid[account][networkId];\r\n    }\r\n\r\n    // Calls to the SchnoodleFarming proxy contract\r\n\r\n    function lockedBalanceOf(address account) private returns(uint256) {\r\n        if (_schnoodleFarming == address(0)) return 0;\r\n        (bool success, bytes memory result) = _schnoodleFarming.call(abi.encodeWithSignature(\"lockedBalanceOf(address)\", account));\r\n        assert(success);\r\n        return abi.decode(result, (uint256));\r\n    }\r\n\r\n    event SowRateChanged(uint256 rate);\r\n}\r\n",
  "sourcePath": "C:\\Users\\micro\\OneDrive - X-treem Software\\Development\\Projects\\Blockchain\\Schnoodle\\contracts\\contracts\\SchnoodleV9.sol",
  "compiler": {
    "name": "solc",
    "version": "0.8.14+commit.80d49f37.Emscripten.clang"
  },
  "schemaVersion": "3.4.3",
  "updatedAt": "2022-06-12T23:01:02.693Z",
  "devdoc": {
    "author": "Jason Payne (https://twitter.com/Neo42)",
    "kind": "dev",
    "methods": {
      "allowance(address,address)": {
        "details": "See {IERC20-allowance}. Note that operator and allowance concepts are orthogonal: operators may not have allowance, and accounts with allowance may not be operators themselves."
      },
      "approve(address,uint256)": {
        "details": "See {IERC20-approve}. NOTE: If `value` is the maximum `uint256`, the allowance is not updated on `transferFrom`. This is semantically equivalent to an infinite approval. Note that accounts cannot have allowance issued by their operators."
      },
      "authorizeOperator(address)": {
        "details": "See {IERC777-authorizeOperator}."
      },
      "burn(uint256,bytes)": {
        "details": "See {IERC777-burn}. Also emits a {IERC20-Transfer} event for ERC20 compatibility."
      },
      "decimals()": {
        "details": "See {ERC20-decimals}. Always returns 18, as per the [ERC777 EIP](https://eips.ethereum.org/EIPS/eip-777#backward-compatibility)."
      },
      "defaultOperators()": {
        "details": "See {IERC777-defaultOperators}."
      },
      "getRoleAdmin(bytes32)": {
        "details": "Returns the admin role that controls `role`. See {grantRole} and {revokeRole}. To change a role's admin, use {_setRoleAdmin}."
      },
      "grantRole(bytes32,address)": {
        "details": "Grants `role` to `account`. If `account` had not been already granted `role`, emits a {RoleGranted} event. Requirements: - the caller must have ``role``'s admin role."
      },
      "granularity()": {
        "details": "See {IERC777-granularity}. This implementation always returns `1`."
      },
      "hasRole(bytes32,address)": {
        "details": "Returns `true` if `account` has been granted `role`."
      },
      "isOperatorFor(address,address)": {
        "details": "See {IERC777-isOperatorFor}."
      },
      "name()": {
        "details": "See {IERC777-name}."
      },
      "operatorBurn(address,uint256,bytes,bytes)": {
        "details": "See {IERC777-operatorBurn}. Emits {Burned} and {IERC20-Transfer} events."
      },
      "operatorSend(address,address,uint256,bytes,bytes)": {
        "details": "See {IERC777-operatorSend}. Emits {Sent} and {IERC20-Transfer} events."
      },
      "owner()": {
        "details": "Returns the address of the current owner."
      },
      "renounceOwnership()": {
        "details": "Leaves the contract without owner. It will not be possible to call `onlyOwner` functions anymore. Can only be called by the current owner. NOTE: Renouncing ownership will leave the contract without an owner, thereby removing any functionality that is only available to the owner."
      },
      "renounceRole(bytes32,address)": {
        "details": "Revokes `role` from the calling account. Roles are often managed via {grantRole} and {revokeRole}: this function's purpose is to provide a mechanism for accounts to lose their privileges if they are compromised (such as when a trusted device is misplaced). If the calling account had been revoked `role`, emits a {RoleRevoked} event. Requirements: - the caller must be `account`."
      },
      "revokeOperator(address)": {
        "details": "See {IERC777-revokeOperator}."
      },
      "revokeRole(bytes32,address)": {
        "details": "Revokes `role` from `account`. If `account` had been granted `role`, emits a {RoleRevoked} event. Requirements: - the caller must have ``role``'s admin role."
      },
      "send(address,uint256,bytes)": {
        "details": "See {IERC777-send}. Also emits a {IERC20-Transfer} event for ERC20 compatibility."
      },
      "supportsInterface(bytes4)": {
        "details": "See {IERC165-supportsInterface}."
      },
      "symbol()": {
        "details": "See {IERC777-symbol}."
      },
      "totalSupply()": {
        "details": "See {IERC777-totalSupply}."
      },
      "transfer(address,uint256)": {
        "details": "See {IERC20-transfer}. Unlike `send`, `recipient` is _not_ required to implement the {IERC777Recipient} interface if it is a contract. Also emits a {Sent} event."
      },
      "transferFrom(address,address,uint256)": {
        "details": "See {IERC20-transferFrom}. NOTE: Does not update the allowance if the current allowance is the maximum `uint256`. Note that operator and allowance concepts are orthogonal: operators cannot call `transferFrom` (unless they have allowance), and accounts with allowance cannot call `operatorSend` (unless they are operators). Emits {Sent}, {IERC20-Transfer} and {IERC20-Approval} events."
      },
      "transferOwnership(address)": {
        "details": "Transfers ownership of the contract to a new account (`newOwner`). Can only be called by the current owner."
      }
    },
    "version": 1
  },
  "userdoc": {
    "kind": "user",
    "methods": {},
    "version": 1
  }
}