{
  "contractName": "SchnoodleFarmingV2",
  "abi": [
    {
      "anonymous": false,
      "inputs": [
        {
          "indexed": true,
          "internalType": "address",
          "name": "account",
          "type": "address"
        },
        {
          "indexed": false,
          "internalType": "uint256",
          "name": "depositId",
          "type": "uint256"
        },
        {
          "indexed": false,
          "internalType": "uint256",
          "name": "amount",
          "type": "uint256"
        },
        {
          "indexed": false,
          "internalType": "uint256",
          "name": "vestingBlocks",
          "type": "uint256"
        },
        {
          "indexed": false,
          "internalType": "uint256",
          "name": "unbondingBlocks",
          "type": "uint256"
        },
        {
          "indexed": false,
          "internalType": "uint256",
          "name": "multiplier",
          "type": "uint256"
        },
        {
          "indexed": false,
          "internalType": "uint256",
          "name": "totalTokens",
          "type": "uint256"
        },
        {
          "indexed": false,
          "internalType": "uint256",
          "name": "totalDepositWeight",
          "type": "uint256"
        },
        {
          "indexed": false,
          "internalType": "uint256",
          "name": "cumulativeTotal",
          "type": "uint256"
        }
      ],
      "name": "Deposited",
      "type": "event"
    },
    {
      "anonymous": false,
      "inputs": [
        {
          "indexed": false,
          "internalType": "uint8",
          "name": "version",
          "type": "uint8"
        }
      ],
      "name": "Initialized",
      "type": "event"
    },
    {
      "anonymous": false,
      "inputs": [
        {
          "indexed": false,
          "internalType": "uint256",
          "name": "max",
          "type": "uint256"
        }
      ],
      "name": "MaxUnbondingBlocksChanged",
      "type": "event"
    },
    {
      "anonymous": false,
      "inputs": [
        {
          "indexed": true,
          "internalType": "address",
          "name": "previousOwner",
          "type": "address"
        },
        {
          "indexed": true,
          "internalType": "address",
          "name": "newOwner",
          "type": "address"
        }
      ],
      "name": "OwnershipTransferred",
      "type": "event"
    },
    {
      "anonymous": false,
      "inputs": [
        {
          "indexed": false,
          "internalType": "uint256",
          "name": "rate",
          "type": "uint256"
        }
      ],
      "name": "UnbondingBlocksFactorChanged",
      "type": "event"
    },
    {
      "anonymous": false,
      "inputs": [
        {
          "indexed": true,
          "internalType": "address",
          "name": "account",
          "type": "address"
        },
        {
          "indexed": false,
          "internalType": "uint256",
          "name": "depositId",
          "type": "uint256"
        },
        {
          "indexed": false,
          "internalType": "uint256",
          "name": "vestingBlocks",
          "type": "uint256"
        },
        {
          "indexed": false,
          "internalType": "uint256",
          "name": "unbondingBlocks",
          "type": "uint256"
        },
        {
          "indexed": false,
          "internalType": "uint256",
          "name": "multiplier",
          "type": "uint256"
        }
      ],
      "name": "UpdatedDeposit",
      "type": "event"
    },
    {
      "anonymous": false,
      "inputs": [
        {
          "indexed": false,
          "internalType": "uint256",
          "name": "rate",
          "type": "uint256"
        }
      ],
      "name": "VestingBlocksFactorChanged",
      "type": "event"
    },
    {
      "anonymous": false,
      "inputs": [
        {
          "indexed": true,
          "internalType": "address",
          "name": "account",
          "type": "address"
        },
        {
          "indexed": false,
          "internalType": "uint256",
          "name": "depositId",
          "type": "uint256"
        },
        {
          "indexed": false,
          "internalType": "uint256",
          "name": "amount",
          "type": "uint256"
        },
        {
          "indexed": false,
          "internalType": "uint256",
          "name": "netReward",
          "type": "uint256"
        },
        {
          "indexed": false,
          "internalType": "uint256",
          "name": "grossReward",
          "type": "uint256"
        },
        {
          "indexed": false,
          "internalType": "uint256",
          "name": "totalTokens",
          "type": "uint256"
        },
        {
          "indexed": false,
          "internalType": "uint256",
          "name": "totalDepositWeight",
          "type": "uint256"
        },
        {
          "indexed": false,
          "internalType": "uint256",
          "name": "cumulativeTotal",
          "type": "uint256"
        }
      ],
      "name": "Withdrawn",
      "type": "event"
    },
    {
      "inputs": [],
      "name": "owner",
      "outputs": [
        {
          "internalType": "address",
          "name": "",
          "type": "address"
        }
      ],
      "stateMutability": "view",
      "type": "function"
    },
    {
      "inputs": [],
      "name": "renounceOwnership",
      "outputs": [],
      "stateMutability": "nonpayable",
      "type": "function"
    },
    {
      "inputs": [
        {
          "internalType": "address",
          "name": "newOwner",
          "type": "address"
        }
      ],
      "name": "transferOwnership",
      "outputs": [],
      "stateMutability": "nonpayable",
      "type": "function"
    },
    {
      "inputs": [
        {
          "internalType": "address",
          "name": "schnoodle",
          "type": "address"
        }
      ],
      "name": "initialize",
      "outputs": [],
      "stateMutability": "nonpayable",
      "type": "function"
    },
    {
      "inputs": [],
      "name": "configure",
      "outputs": [],
      "stateMutability": "nonpayable",
      "type": "function"
    },
    {
      "inputs": [
        {
          "internalType": "uint256",
          "name": "amount",
          "type": "uint256"
        },
        {
          "internalType": "uint256",
          "name": "vestingBlocks",
          "type": "uint256"
        },
        {
          "internalType": "uint256",
          "name": "unbondingBlocks",
          "type": "uint256"
        }
      ],
      "name": "addDeposit",
      "outputs": [],
      "stateMutability": "nonpayable",
      "type": "function"
    },
    {
      "inputs": [
        {
          "internalType": "uint256",
          "name": "id",
          "type": "uint256"
        },
        {
          "internalType": "uint256",
          "name": "vestingBlocks",
          "type": "uint256"
        },
        {
          "internalType": "uint256",
          "name": "unbondingBlocks",
          "type": "uint256"
        }
      ],
      "name": "updateDeposit",
      "outputs": [],
      "stateMutability": "nonpayable",
      "type": "function"
    },
    {
      "inputs": [
        {
          "internalType": "uint256",
          "name": "id",
          "type": "uint256"
        },
        {
          "internalType": "uint256",
          "name": "amount",
          "type": "uint256"
        }
      ],
      "name": "withdraw",
      "outputs": [],
      "stateMutability": "nonpayable",
      "type": "function"
    },
    {
      "inputs": [
        {
          "internalType": "uint256",
          "name": "rate",
          "type": "uint256"
        }
      ],
      "name": "changeVestingBlocksFactor",
      "outputs": [],
      "stateMutability": "nonpayable",
      "type": "function"
    },
    {
      "inputs": [],
      "name": "getVestingBlocksFactor",
      "outputs": [
        {
          "internalType": "uint256",
          "name": "",
          "type": "uint256"
        }
      ],
      "stateMutability": "view",
      "type": "function"
    },
    {
      "inputs": [
        {
          "internalType": "uint256",
          "name": "rate",
          "type": "uint256"
        }
      ],
      "name": "changeUnbondingBlocksFactor",
      "outputs": [],
      "stateMutability": "nonpayable",
      "type": "function"
    },
    {
      "inputs": [],
      "name": "getUnbondingBlocksFactor",
      "outputs": [
        {
          "internalType": "uint256",
          "name": "",
          "type": "uint256"
        }
      ],
      "stateMutability": "view",
      "type": "function"
    },
    {
      "inputs": [
        {
          "internalType": "uint256",
          "name": "max",
          "type": "uint256"
        }
      ],
      "name": "changeMaxUnbondingBlocks",
      "outputs": [],
      "stateMutability": "nonpayable",
      "type": "function"
    },
    {
      "inputs": [],
      "name": "getMaxUnbondingBlocks",
      "outputs": [
        {
          "internalType": "uint256",
          "name": "",
          "type": "uint256"
        }
      ],
      "stateMutability": "view",
      "type": "function"
    },
    {
      "inputs": [
        {
          "internalType": "address",
          "name": "account",
          "type": "address"
        },
        {
          "internalType": "uint256",
          "name": "id",
          "type": "uint256"
        },
        {
          "internalType": "uint256",
          "name": "rewardBlock",
          "type": "uint256"
        }
      ],
      "name": "getReward",
      "outputs": [
        {
          "internalType": "uint256",
          "name": "",
          "type": "uint256"
        }
      ],
      "stateMutability": "view",
      "type": "function"
    },
    {
      "inputs": [
        {
          "internalType": "uint256",
          "name": "amount",
          "type": "uint256"
        },
        {
          "internalType": "uint256",
          "name": "vestingBlocks",
          "type": "uint256"
        },
        {
          "internalType": "uint256",
          "name": "unbondingBlocks",
          "type": "uint256"
        },
        {
          "internalType": "uint256",
          "name": "rewardBlock",
          "type": "uint256"
        }
      ],
      "name": "getReward",
      "outputs": [
        {
          "internalType": "uint256",
          "name": "",
          "type": "uint256"
        }
      ],
      "stateMutability": "view",
      "type": "function"
    },
    {
      "inputs": [
        {
          "internalType": "uint256",
          "name": "k",
          "type": "uint256"
        },
        {
          "internalType": "uint256",
          "name": "a",
          "type": "uint256"
        }
      ],
      "name": "changeSigmoidParams",
      "outputs": [],
      "stateMutability": "nonpayable",
      "type": "function"
    },
    {
      "inputs": [],
      "name": "sigmoidParams",
      "outputs": [
        {
          "components": [
            {
              "internalType": "uint256",
              "name": "k",
              "type": "uint256"
            },
            {
              "internalType": "uint256",
              "name": "a",
              "type": "uint256"
            }
          ],
          "internalType": "struct SchnoodleFarmingV2.SigmoidParams",
          "name": "",
          "type": "tuple"
        }
      ],
      "stateMutability": "view",
      "type": "function"
    },
    {
      "inputs": [
        {
          "internalType": "address",
          "name": "account",
          "type": "address"
        }
      ],
      "name": "depositedBalanceOf",
      "outputs": [
        {
          "internalType": "uint256",
          "name": "",
          "type": "uint256"
        }
      ],
      "stateMutability": "view",
      "type": "function"
    },
    {
      "inputs": [
        {
          "internalType": "address",
          "name": "account",
          "type": "address"
        }
      ],
      "name": "unbondingBalanceOf",
      "outputs": [
        {
          "internalType": "uint256",
          "name": "",
          "type": "uint256"
        }
      ],
      "stateMutability": "view",
      "type": "function"
    },
    {
      "inputs": [
        {
          "internalType": "address",
          "name": "account",
          "type": "address"
        }
      ],
      "name": "lockedBalanceOf",
      "outputs": [
        {
          "internalType": "uint256",
          "name": "",
          "type": "uint256"
        }
      ],
      "stateMutability": "view",
      "type": "function"
    },
    {
      "inputs": [
        {
          "internalType": "address",
          "name": "account",
          "type": "address"
        }
      ],
      "name": "getFarmingSummary",
      "outputs": [
        {
          "components": [
            {
              "components": [
                {
                  "internalType": "uint256",
                  "name": "id",
                  "type": "uint256"
                },
                {
                  "internalType": "uint256",
                  "name": "amount",
                  "type": "uint256"
                },
                {
                  "internalType": "uint256",
                  "name": "blockNumber",
                  "type": "uint256"
                },
                {
                  "internalType": "uint256",
                  "name": "vestingBlocks",
                  "type": "uint256"
                },
                {
                  "internalType": "uint256",
                  "name": "unbondingBlocks",
                  "type": "uint256"
                },
                {
                  "internalType": "uint256",
                  "name": "multiplier",
                  "type": "uint256"
                }
              ],
              "internalType": "struct SchnoodleFarmingV2.Deposit",
              "name": "deposit",
              "type": "tuple"
            },
            {
              "internalType": "uint256",
              "name": "reward",
              "type": "uint256"
            }
          ],
          "internalType": "struct SchnoodleFarmingV2.DepositReward[]",
          "name": "",
          "type": "tuple[]"
        }
      ],
      "stateMutability": "view",
      "type": "function"
    },
    {
      "inputs": [
        {
          "internalType": "address",
          "name": "account",
          "type": "address"
        }
      ],
      "name": "getUnbondingSummary",
      "outputs": [
        {
          "components": [
            {
              "internalType": "uint256",
              "name": "amount",
              "type": "uint256"
            },
            {
              "internalType": "uint256",
              "name": "expiryBlock",
              "type": "uint256"
            }
          ],
          "internalType": "struct SchnoodleFarmingV2.Unbond[]",
          "name": "",
          "type": "tuple[]"
        }
      ],
      "stateMutability": "view",
      "type": "function"
    }
  ],
  "bytecode": "0x608060405234801561001057600080fd5b50612f67806100206000396000f3fe608060405234801561001057600080fd5b506004361061014d5760003560e01c8063715018a6116100c3578063b7cb44f41161007c578063b7cb44f41461029a578063c4d66de8146102ba578063c5af253a146102cd578063cd573cc014610302578063dc0b0d2314610315578063f2fde38b1461032857600080fd5b8063715018a6146102365780638c4754751461023e5780638da5cb5b14610251578063926ea17b1461026c5780639c4e7bd31461027f578063b182a5061461029257600080fd5b8063441a3e7011610115578063441a3e70146101b9578063453a3758146101cc5780634f60b7d5146101df57806350f9b39e146101e757806359355736146101fa57806368b482541461020d57600080fd5b806302b5a71914610152578063039d5136146101695780630aee9e781461017e5780631eb5f392146101915780633e0b1a23146101b1575b600080fd5b6070545b6040519081526020015b60405180910390f35b61017c6101773660046129ca565b61033b565b005b61017c61018c3660046129f6565b610469565b6101a461019f366004612a24565b6104cf565b6040516101609190612a41565b61017c610672565b61017c6101c7366004612ac3565b6106b0565b61017c6101da366004612ac3565b610b75565b607154610156565b6101566101f5366004612ae5565b610bbd565b610156610208366004612a24565b610c24565b61015661021b366004612a24565b6001600160a01b031660009081526069602052604090205490565b61017c610c56565b61017c61024c3660046129f6565b610c8c565b6033546040516001600160a01b039091168152602001610160565b61015661027a366004612a24565b610ceb565b61017c61028d3660046129ca565b610d7a565b607254610156565b6102ad6102a8366004612a24565b610f62565b6040516101609190612b1a565b61017c6102c8366004612a24565b610feb565b60408051808201825260008082526020918201528151808301909252606e548252606f54908201526040516101609190612b64565b61017c6103103660046129f6565b61109b565b610156610323366004612b7b565b6110fa565b61017c610336366004612a24565b611134565b33600061034882866111cf565b50506003810185905560048101849055600181015490915060009061036e9086866112a0565b50509050816005015481116103fe5760405162461bcd60e51b8152602060048201526044602482018190527f5363686e6f6f646c654661726d696e673a206e6f2062656e6566697420746f20908201527f757064617465206465706f736974207769746820737570706c696564206368616064820152636e67657360e01b608482015260a4015b60405180910390fd5b6005820181905560038201546004830154604080518981526020810193909352820152606081018290526001600160a01b038416907fdae3f6c2fe51b95833ca9bb34f7719e1afd2419607258623370833ed686d0554906080015b60405180910390a2505050505050565b6033546001600160a01b031633146104935760405162461bcd60e51b81526004016103f590612bad565b60718190556040518181527f6989c1ed69edd5c31b88b5c8013d078e736f4fa0599ecd3cf9b2ea9f7256dd94906020015b60405180910390a150565b6001600160a01b038116600090815260676020526040812080546060929067ffffffffffffffff81111561050557610505612be2565b60405190808252806020026020018201604052801561053e57816020015b61052b612974565b8152602001906001900390816105235790505b5090504360005b835481101561066857604051806040016040528085838154811061056b5761056b612bf8565b90600052602060002090600602016040518060c0016040529081600082015481526020016001820154815260200160028201548152602001600382015481526020016004820154815260200160058201548152505081526020016106358684815481106105da576105da612bf8565b90600052602060002090600602016040518060c001604052908160008201548152602001600182015481526020016002820154815260200160038201548152602001600482015481526020016005820154815250508561155e565b81525083828151811061064a5761064a612bf8565b6020026020010181905250808061066090612c24565b915050610545565b5090949350505050565b6033546001600160a01b0316331461069c5760405162461bcd60e51b81526004016103f590612bad565b6103e86070556014607155622dc6c0607255565b33600081815260686020526040902080544391905b80156107ab5782826106d8600184612c3d565b815481106106e8576106e8612bf8565b90600052602060002090600202016001015411610799578154829061070f90600190612c3d565b8154811061071f5761071f612bf8565b90600052602060002090600202018260018361073b9190612c3d565b8154811061074b5761074b612bf8565b600091825260209091208254600290920201908155600191820154910155815482908061077a5761077a612c54565b6000828152602081206002600019909301928302018181556001015590555b806107a381612c6a565b9150506106c5565b5060008060006107bb86896111cf565b92509250925086836001015410156108335760405162461bcd60e51b815260206004820152603560248201527f5363686e6f6f646c654661726d696e673a2063616e6e6f7420776974686472616044820152741dc81b5bdc99481d1a185b8819195c1bdcda5d1959605a1b60648201526084016103f5565b846103e884600301546070546108499190612c81565b6108539190612cb6565b84600201546108629190612cd8565b106108d55760405162461bcd60e51b815260206004820152603760248201527f5363686e6f6f646c654661726d696e673a2063616e6e6f74207769746864726160448201527f7720647572696e672076657374696e6720626c6f636b7300000000000000000060648201526084016103f5565b600080600061092c866040518060c001604052908160008201548152602001600182015481526020016002820154815260200160038201548152602001600482015481526020016005820154815250508b8a61157d565b92509250925061094e8a61093f90612cf0565b876003015488600401546115a8565b606d55606a55606b819055606c8890556001600160a01b038916600090815260696020526040812080548c9290610986908490612c3d565b92505081905550898660010160008282546109a19190612c3d565b925050819055508660405180604001604052808c81526020016103e889600401546071546109cf9190612c81565b6109d99190612cb6565b6109e3908c612cd8565b905281546001818101845560009384526020808520845160029094020192835590920151908201558701549003610aec5784548590610a2490600190612c3d565b81548110610a3457610a34612bf8565b9060005260206000209060060201858581548110610a5457610a54612bf8565b906000526020600020906006020160008201548160000155600182015481600101556002820154816002015560038201548160030155600482015481600401556005820154816005015590505084805480610ab157610ab1612c54565b600082815260208120600660001990930192830201818155600181018290556002810182905560038101829055600481018290556005015590555b610af78984846115e7565b606a54606d54606b54604080518f8152602081018f905290810187905260608101869052608081019390935260a083019190915260c08201526001600160a01b038a16907f06c514d6b519b3f249f6f8b7fc10573de80de5388bfc514bfb432616ee930be79060e00160405180910390a25050505050505050505050565b6033546001600160a01b03163314610b9f5760405162461bcd60e51b81526004016103f590612bad565b60408051808201909152828152602001819052606e91909155606f55565b600080610bca85856111cf565b50506040805160c0810182528254815260018301546020820152600283015491810191909152600382015460608201526004820154608082015260059091015460a08201529050610c1b818461155e565b95945050505050565b6001600160a01b038116600090815260696020526040812054610c4683610ceb565b610c509190612cd8565b92915050565b6033546001600160a01b03163314610c805760405162461bcd60e51b81526004016103f590612bad565b610c8a60006116a1565b565b6033546001600160a01b03163314610cb65760405162461bcd60e51b81526004016103f590612bad565b60728190556040518181527ffbd4f597ef373f213926ede8b8dc88bad02da7b8771b1c2c69ffa16a31fc9ff4906020016104c4565b6001600160a01b038116600090815260686020526040812043908290815b8154811015610668576000828281548110610d2657610d26612bf8565b60009182526020918290206040805180820190915260029092020180548252600101549181018290529150851015610d67578051610d649085612cd8565b93505b5080610d7281612c24565b915050610d09565b33610d8481610c24565b610d8d826116f3565b610d979190612c3d565b841115610e0c5760405162461bcd60e51b815260206004820152603960248201527f5363686e6f6f646c654661726d696e673a206465706f73697420616d6f756e7460448201527f206578636565647320756e6c6f636b65642062616c616e63650000000000000060648201526084016103f5565b610e14612994565b6000610e218686866117ba565b606d55606a55606680549294509092506000610e3c83612c24565b90915550506001600160a01b0383166000818152606760209081526040808320805460018181018355918552838520885160069092020190815587840151918101919091558682015160028201819055606088015160038301556080880151600483015560a0880151600590920191909155606b869055606c55928252606990529081208054889290610ed0908490612cd8565b9091555050815160208084015160608086015160808088015160a0808a0151606a54606d54606b54604080519c8d529a8c0199909952988a019590955294880191909152908601929092529084015260c083019190915260e08201526001600160a01b038416907fb83850979ca63333b482bfe84d4d7cf15f9cc15c139b1e48bc44eb5446669cb39061010001610459565b6001600160a01b0381166000908152606860209081526040808320805482518185028101850190935280835260609492939192909184015b82821015610fe057838290600052602060002090600202016040518060400160405290816000820154815260200160018201548152505081526020019060010190610f9a565b505050509050919050565b6000610ff7600161182e565b9050801561100f576000805461ff0019166101001790555b6110176118b6565b606580546001600160a01b0319166001600160a01b03841617905560408051808201909152600580825260016020909201829052606e55606f558015611097576000805461ff0019169055604051600181527f7f26b83ff96e1f2b6a682f133852f6798a09c465da95921460cefb38474024989060200160405180910390a15b5050565b6033546001600160a01b031633146110c55760405162461bcd60e51b81526004016103f590612bad565b60708190556040518181527f67f42ff58c6e82efeb2f8bc3694324fb591d509bd8385a89d01df9381e61e2e1906020016104c4565b600080600080600061110d8989896117ba565b9350935093509350611127848786604001518685876118e5565b9998505050505050505050565b6033546001600160a01b0316331461115e5760405162461bcd60e51b81526004016103f590612bad565b6001600160a01b0381166111c35760405162461bcd60e51b815260206004820152602660248201527f4f776e61626c653a206e6577206f776e657220697320746865207a65726f206160448201526564647265737360d01b60648201526084016103f5565b6111cc816116a1565b50565b6001600160a01b038216600090815260676020526040812081908190815b815481101561124457600082828154811061120a5761120a612bf8565b90600052602060002090600602019050868160000154036112315794509092509050611299565b508061123c81612c24565b9150506111ed565b5060405162461bcd60e51b815260206004820152602360248201527f5363686e6f6f646c654661726d696e673a206465706f736974206e6f7420666f6044820152621d5b9960ea1b60648201526084016103f5565b9250925092565b600080600080861161131a5760405162461bcd60e51b815260206004820152603a60248201527f5363686e6f6f646c654661726d696e673a206465706f73697420616d6f756e7460448201527f206d7573742062652067726561746572207468616e207a65726f00000000000060648201526084016103f5565b600085116113905760405162461bcd60e51b815260206004820152603a60248201527f5363686e6f6f646c654661726d696e673a2076657374696e6720626c6f636b7360448201527f206d7573742062652067726561746572207468616e207a65726f00000000000060648201526084016103f5565b600084116114065760405162461bcd60e51b815260206004820152603c60248201527f5363686e6f6f646c654661726d696e673a20756e626f6e64696e6720626c6f6360448201527f6b73206d7573742062652067726561746572207468616e207a65726f0000000060648201526084016103f5565b60725484111561148d5760405162461bcd60e51b815260206004820152604660248201527f5363686e6f6f646c654661726d696e673a20756e626f6e64696e6720626c6f6360448201527f6b732069732067726561746572207468616e2074686520646566696e6564206d6064820152656178696d756d60d01b608482015260a4016103f5565b60008061149b8888886115a8565b909250905060006114ac8383612cb6565b905060006114f86114db6114cd606e600001546114c890612cf0565b61190a565b6114d68561193d565b611954565b6114f3846114e98c8e612c81565b6114c89190612d0c565b6119ac565b90506000611506600161193d565b9050600061154161153c61151b6103e861193d565b6114f3856114d66115348861152f8b6119e2565b611a37565b606f54611a6a565b611c9b565b67ffffffffffffffff169c959b5093995093975050505050505050565b60006115768383606c54606b54606d54606a546118e5565b9392505050565b6000806000611599868686606c54606b54606d54606a54611cb7565b92509250925093509350939050565b60008084606a546115b99190612d4b565b836115c48688612d8c565b6115ce9190612d8c565b606d546115db9190612d4b565b91509150935093915050565b6065546040516001600160a01b0385811660248301526044820185905260648201849052600092169060840160408051601f198184030181529181526020820180516001600160e01b0316634abc395560e11b179052516116489190612e11565b6000604051808303816000865af19150503d8060008114611685576040519150601f19603f3d011682016040523d82523d6000602084013e61168a565b606091505b505090508061169b5761169b612e4c565b50505050565b603380546001600160a01b038381166001600160a01b0319831681179093556040519116919082907f8be0079c531659141344cd1fd0a4f28419497f9722a3daafe3b4186f6b6457e090600090a35050565b6065546040516001600160a01b038381166024830152600092839283929091169060440160408051601f198184030181529181526020820180516001600160e01b03166370a0823160e01b1790525161174c9190612e11565b600060405180830381855afa9150503d8060008114611787576040519150601f19603f3d011682016040523d82523d6000602084013e61178c565b606091505b50915091508161179e5761179e612e4c565b808060200190518101906117b29190612e62565b949350505050565b6117c2612994565b6000806000806000806117d68a8a8a6112a0565b92509250925060004390506040518060c0016040528060665481526020018c81526020018281526020018b81526020018a81526020018581525061181982611d89565b90985096509194509250505093509350935093565b60008054610100900460ff1615611875578160ff1660011480156118515750303b155b61186d5760405162461bcd60e51b81526004016103f590612e7b565b506000919050565b60005460ff80841691161061189c5760405162461bcd60e51b81526004016103f590612e7b565b506000805460ff191660ff92909216919091179055600190565b600054610100900460ff166118dd5760405162461bcd60e51b81526004016103f590612ec9565b610c8a611d9d565b6000806118fb8889602001518989898989611cb7565b50909998505050505050505050565b6000677fffffffffffffff19821215801561192d5750677fffffffffffffff8213155b61193657600080fd5b5060401b90565b6000677fffffffffffffff82111561193657600080fd5b600081600f0b60000361196657600080fd5b600082600f0b604085600f0b901b8161198157611981612ca0565b05905060016001607f1b031981128015906119a3575060016001607f1b038113155b61157657600080fd5b6000600f83810b9083900b0260401d60016001607f1b031981128015906119a3575060016001607f1b0381131561157657600080fd5b6000600160461b82600f0b126119f757600080fd5b683fffffffffffffffff1982600f0b1215611a1457506000919050565b610c50608083600f0b700171547652b82fe1777d0ffda0d23a7d1202901d611dcd565b6000600f83810b9083900b0160016001607f1b031981128015906119a3575060016001607f1b0381131561157657600080fd5b600080600084600f0b128015611a835750826001166001145b905060008085600f0b12611a975784611a9c565b846000035b6fffffffffffffffffffffffffffffffff169050600160801b680100000000000000008211611b3f57603f82901b91505b8415611b37576001851615611ae2578102607f1c5b908002607f1c906002851615611af8578102607f1c5b908002607f1c906004851615611b0e578102607f1c5b908002607f1c906008851615611b24578102607f1c5b60049490941c93908002607f1c90611acd565b60401c611c55565b603f600160601b831015611b595760209290921b91601f19015b600160701b831015611b715760109290921b91600f19015b600160781b831015611b895760089290921b91600719015b6001607c1b831015611ba15760049290921b91600319015b6001607e1b831015611bb95760029290921b91600119015b6001607f1b831015611bd15760019290921b91600019015b60005b8615611c3e5760408210611be757600080fd5b6001871615611c0d57918302607f1c918101600160801b831115611c0d57600192831c92015b928002607f1c9260019190911b90600160801b8410611c3257600193841c9391909101905b600187901c9650611bd4565b60408110611c4b57600080fd5b6040039190911c90505b600083611c625781611c67565b816000035b905060016001607f1b03198112801590611c88575060016001607f1b038113155b611c9157600080fd5b9695505050505050565b60008082600f0b1215611cad57600080fd5b50600f0b60401d90565b6000806000808a60400151611cd08a8d60400151612886565b611cda9190612c3d565b611ce4908b612c81565b90506000611cf48a8a8a8961289d565b9050600082118015611d065750600087115b15611d715760008183611d1f611d1a6128bd565b6116f3565b611d299190612c81565b611d339190612cb6565b905060006103e8828f60a00151611d4a9190612c81565b611d549190612cb6565b90508082611d628686612c3d565b96509650965050505050611d7c565b600094508493509150505b9750975097945050505050565b6000610c5082606c54606b54606a5461289d565b600054610100900460ff16611dc45760405162461bcd60e51b81526004016103f590612ec9565b610c8a336116a1565b6000600160461b82600f0b12611de257600080fd5b683fffffffffffffffff1982600f0b1215611dff57506000919050565b6001607f1b60006780000000000000008416600f0b1315611e315770016a09e667f3bcc908b2fb1366ea957d3e0260801c5b60008367400000000000000016600f0b1315611e5e577001306fe0a31b7152de8d5a46305c85edec0260801c5b60008367200000000000000016600f0b1315611e8b577001172b83c7d517adcdf7c8c50eb14a791f0260801c5b60008367100000000000000016600f0b1315611eb85770010b5586cf9890f6298b92b71842a983630260801c5b60008367080000000000000016600f0b1315611ee5577001059b0d31585743ae7c548eb68ca417fd0260801c5b60008367040000000000000016600f0b1315611f1257700102c9a3e778060ee6f7caca4f7a29bde80260801c5b60008367020000000000000016600f0b1315611f3f5770010163da9fb33356d84a66ae336dcdfa3f0260801c5b60008367010000000000000016600f0b1315611f6c57700100b1afa5abcbed6129ab13ec11dc95430260801c5b600083668000000000000016600f0b1315611f985770010058c86da1c09ea1ff19d294cf2f679b0260801c5b600083664000000000000016600f0b1315611fc4577001002c605e2e8cec506d21bfc89a23a00f0260801c5b600083662000000000000016600f0b1315611ff057700100162f3904051fa128bca9c55c31e5df0260801c5b600083661000000000000016600f0b131561201c577001000b175effdc76ba38e31671ca9397250260801c5b600083660800000000000016600f0b131561204857700100058ba01fb9f96d6cacd4b180917c3d0260801c5b600083660400000000000016600f0b13156120745770010002c5cc37da9491d0985c348c68e7b30260801c5b600083660200000000000016600f0b13156120a0577001000162e525ee054754457d59952920260260801c5b600083660100000000000016600f0b13156120cc5770010000b17255775c040618bf4a4ade83fc0260801c5b6000836580000000000016600f0b13156120f7577001000058b91b5bc9ae2eed81e9b7d4cfab0260801c5b6000836540000000000016600f0b131561212257700100002c5c89d5ec6ca4d7c8acc017b7c90260801c5b6000836520000000000016600f0b131561214d5770010000162e43f4f831060e02d839a9d16d0260801c5b6000836510000000000016600f0b131561217857700100000b1721bcfc99d9f890ea069117630260801c5b6000836508000000000016600f0b13156121a35770010000058b90cf1e6d97f9ca14dbcc16280260801c5b6000836504000000000016600f0b13156121ce577001000002c5c863b73f016468f6bac5ca2b0260801c5b6000836502000000000016600f0b13156121f957700100000162e430e5a18f6119e3c02282a50260801c5b6000836501000000000016600f0b1315612224577001000000b1721835514b86e6d96efd1bfe0260801c5b60008364800000000016600f0b131561224e57700100000058b90c0b48c6be5df846c5b2ef0260801c5b60008364400000000016600f0b13156122785770010000002c5c8601cc6b9e94213c72737a0260801c5b60008364200000000016600f0b13156122a2577001000000162e42fff037df38aa2b219f060260801c5b60008364100000000016600f0b13156122cc5770010000000b17217fba9c739aa5819f44f90260801c5b60008364080000000016600f0b13156122f6577001000000058b90bfcdee5acd3c1cedc8230260801c5b60008364040000000016600f0b131561232057700100000002c5c85fe31f35a6a30da1be500260801c5b60008364020000000016600f0b131561234a5770010000000162e42ff0999ce3541b9fffcf0260801c5b60008364010000000016600f0b131561237457700100000000b17217f80f4ef5aadda455540260801c5b600083638000000016600f0b131561239d5770010000000058b90bfbf8479bd5a81b51ad0260801c5b600083634000000016600f0b13156123c6577001000000002c5c85fdf84bd62ae30a74cc0260801c5b600083632000000016600f0b13156123ef57700100000000162e42fefb2fed257559bdaa0260801c5b600083631000000016600f0b1315612418577001000000000b17217f7d5a7716bba4a9ae0260801c5b600083630800000016600f0b131561244157700100000000058b90bfbe9ddbac5e109cce0260801c5b600083630400000016600f0b131561246a5770010000000002c5c85fdf4b15de6f17eb0d0260801c5b600083630200000016600f0b1315612493577001000000000162e42fefa494f1478fde050260801c5b600083630100000016600f0b13156124bc5770010000000000b17217f7d20cf927c8e94c0260801c5b6000836280000016600f0b13156124e4577001000000000058b90bfbe8f71cb4e4b33d0260801c5b6000836240000016600f0b131561250c57700100000000002c5c85fdf477b662b269450260801c5b6000836220000016600f0b13156125345770010000000000162e42fefa3ae53369388c0260801c5b6000836210000016600f0b131561255c57700100000000000b17217f7d1d351a389d400260801c5b6000836208000016600f0b13156125845770010000000000058b90bfbe8e8b2d3d4ede0260801c5b6000836204000016600f0b13156125ac577001000000000002c5c85fdf4741bea6e77e0260801c5b6000836202000016600f0b13156125d457700100000000000162e42fefa39fe95583c20260801c5b6000836201000016600f0b13156125fc577001000000000000b17217f7d1cfb72b45e10260801c5b60008361800016600f0b131561262357700100000000000058b90bfbe8e7cc35c3f00260801c5b60008361400016600f0b131561264a5770010000000000002c5c85fdf473e242ea380260801c5b60008361200016600f0b1315612671577001000000000000162e42fefa39f02b772c0260801c5b60008361100016600f0b13156126985770010000000000000b17217f7d1cf7d83c1a0260801c5b60008361080016600f0b13156126bf577001000000000000058b90bfbe8e7bdcbe2e0260801c5b60008361040016600f0b13156126e657700100000000000002c5c85fdf473dea871f0260801c5b60008361020016600f0b131561270d5770010000000000000162e42fefa39ef44d910260801c5b60008361010016600f0b131561273457700100000000000000b17217f7d1cf79e9490260801c5b600083608016600f0b131561275a5770010000000000000058b90bfbe8e7bce5440260801c5b600083604016600f0b1315612780577001000000000000002c5c85fdf473de6eca0260801c5b600083602016600f0b13156127a657700100000000000000162e42fefa39ef366f0260801c5b600083601016600f0b13156127cc577001000000000000000b17217f7d1cf79afa0260801c5b600083600816600f0b13156127f257700100000000000000058b90bfbe8e7bcd6d0260801c5b600083600416600f0b13156128185770010000000000000002c5c85fdf473de6b20260801c5b600083600216600f0b131561283e577001000000000000000162e42fefa39ef3580260801c5b600083600116600f0b13156128645770010000000000000000b17217f7d1cf79ab0260801c5b600f83810b60401d603f03900b1c60016001607f1b03811115610c5057600080fd5b6000818310156128965781611576565b5090919050565b60006128a98486612c3d565b6128b39083612c81565b610c1b9084612cd8565b60655460408051600481526024810182526020810180516001600160e01b03166336d0ee9360e11b1790529051600092839283926001600160a01b03909216916129079190612e11565b600060405180830381855afa9150503d8060008114612942576040519150601f19603f3d011682016040523d82523d6000602084013e612947565b606091505b50915091508161295957612959612e4c565b8080602001905181019061296d9190612f14565b9250505090565b6040518060400160405280612987612994565b8152602001600081525090565b6040518060c001604052806000815260200160008152602001600081526020016000815260200160008152602001600081525090565b6000806000606084860312156129df57600080fd5b505081359360208301359350604090920135919050565b600060208284031215612a0857600080fd5b5035919050565b6001600160a01b03811681146111cc57600080fd5b600060208284031215612a3657600080fd5b813561157681612a0f565b602080825282518282018190526000919060409081850190868401855b82811015612ab657815180518051865287810151888701528681015187870152606080820151908701526080808201519087015260a0908101519086015286015160c085015260e09093019290850190600101612a5e565b5091979650505050505050565b60008060408385031215612ad657600080fd5b50508035926020909101359150565b600080600060608486031215612afa57600080fd5b8335612b0581612a0f565b95602085013595506040909401359392505050565b602080825282518282018190526000919060409081850190868401855b82811015612ab657612b5484835180518252602090810151910152565b9284019290850190600101612b37565b815181526020808301519082015260408101610c50565b60008060008060808587031215612b9157600080fd5b5050823594602084013594506040840135936060013592509050565b6020808252818101527f4f776e61626c653a2063616c6c6572206973206e6f7420746865206f776e6572604082015260600190565b634e487b7160e01b600052604160045260246000fd5b634e487b7160e01b600052603260045260246000fd5b634e487b7160e01b600052601160045260246000fd5b600060018201612c3657612c36612c0e565b5060010190565b600082821015612c4f57612c4f612c0e565b500390565b634e487b7160e01b600052603160045260246000fd5b600081612c7957612c79612c0e565b506000190190565b6000816000190483118215151615612c9b57612c9b612c0e565b500290565b634e487b7160e01b600052601260045260246000fd5b600082612cd357634e487b7160e01b600052601260045260246000fd5b500490565b60008219821115612ceb57612ceb612c0e565b500190565b6000600160ff1b8201612d0557612d05612c0e565b5060000390565b60008083128015600160ff1b850184121615612d2a57612d2a612c0e565b6001600160ff1b0384018313811615612d4557612d45612c0e565b50500390565b600080821280156001600160ff1b0384900385131615612d6d57612d6d612c0e565b600160ff1b8390038412811615612d8657612d86612c0e565b50500190565b60006001600160ff1b0381841382841380821686840486111615612db257612db2612c0e565b600160ff1b6000871282811687830589121615612dd157612dd1612c0e565b60008712925087820587128484161615612ded57612ded612c0e565b87850587128184161615612e0357612e03612c0e565b505050929093029392505050565b6000825160005b81811015612e325760208186018101518583015201612e18565b81811115612e41576000828501525b509190910192915050565b634e487b7160e01b600052600160045260246000fd5b600060208284031215612e7457600080fd5b5051919050565b6020808252602e908201527f496e697469616c697a61626c653a20636f6e747261637420697320616c72656160408201526d191e481a5b9a5d1a585b1a5e995960921b606082015260800190565b6020808252602b908201527f496e697469616c697a61626c653a20636f6e7472616374206973206e6f74206960408201526a6e697469616c697a696e6760a81b606082015260800190565b600060208284031215612f2657600080fd5b815161157681612a0f56fea26469706673582212209dd3edd3d0f7fb91c501d4204a88b73cd35e89850d08ba95ef7a8c3a7e97dc8964736f6c634300080e0033",
  "immutableReferences": {},
  "source": "// contracts/SchnoodleFarmingV2.sol\r\n// SPDX-License-Identifier: MIT\r\npragma solidity ^0.8.0;\r\n\r\nimport \"@schnoodle/contracts-upgradeable/proxy/utils/Initializable.sol\";\r\nimport \"@schnoodle/contracts-upgradeable/access/OwnableUpgradeable.sol\";\r\nimport \"@schnoodle/contracts-upgradeable/utils/math/MathUpgradeable.sol\";\r\nimport \"abdk-libraries-solidity/ABDKMath64x64.sol\";\r\n\r\n/// @author Jason Payne (https://twitter.com/Neo42)\r\ncontract SchnoodleFarmingV2 is Initializable, OwnableUpgradeable {\r\n    address private _schnoodle;\r\n    uint256 _depositId;\r\n    mapping(address => Deposit[]) private _accountDeposits;\r\n    mapping(address => Unbond[]) private _accountUnbonds;\r\n    mapping(address => uint256) private _balances;\r\n    uint256 private _totalTokens;\r\n    uint256 private _cumulativeTotal;\r\n    uint256 private _checkpointBlock;\r\n    uint256 private _totalDepositWeight;\r\n\r\n    // Adjust to change the sigmoid curve of the multiplier\r\n    SigmoidParams private _sigmoidParams;\r\n\r\n    uint256 private _vestingBlocksFactor;\r\n    uint256 private _unbondingBlocksFactor;\r\n    uint256 private _maxUnbondingBlocks;\r\n\r\n    struct Deposit {\r\n        uint256 id;\r\n        uint256 amount;\r\n        uint256 blockNumber;\r\n        uint256 vestingBlocks;\r\n        uint256 unbondingBlocks;\r\n        uint256 multiplier;\r\n    }\r\n\r\n    struct DepositReward {\r\n        Deposit deposit;\r\n        uint256 reward;\r\n    }\r\n\r\n    struct Unbond {\r\n        uint256 amount;\r\n        uint256 expiryBlock;\r\n    }\r\n\r\n    struct SigmoidParams {\r\n        uint256 k; // Higher value increases slope severity\r\n        uint256 a; // Higher value increases slope severity and shifts right\r\n    }\r\n\r\n    function initialize(address schnoodle) public initializer {\r\n        __Ownable_init();\r\n        _schnoodle = schnoodle;\r\n        _sigmoidParams = SigmoidParams(5, 1);\r\n    }\r\n\r\n    function configure() external onlyOwner {\r\n        _vestingBlocksFactor = 1000;\r\n        _unbondingBlocksFactor = 20;\r\n        _maxUnbondingBlocks = 3000000;\r\n    }\r\n\r\n    // Deposit functions\r\n\r\n    /// Deposits the specified amount of tokens for the sender, and adds the details to a stored deposit object\r\n    function addDeposit(uint256 amount, uint256 vestingBlocks, uint256 unbondingBlocks) external {\r\n        address msgSender = _msgSender();\r\n\r\n        require(amount <= balanceOf(msgSender) - lockedBalanceOf(msgSender), \"SchnoodleFarming: deposit amount exceeds unlocked balance\");\r\n\r\n        Deposit memory deposit;\r\n        uint256 cumulativeTotal;\r\n\r\n        // Build the new deposit, and update all tracking states to include the new deposit\r\n        (deposit, cumulativeTotal, _totalTokens, _totalDepositWeight) = _buildDeposit(amount, vestingBlocks, unbondingBlocks);\r\n        _depositId++;\r\n        _accountDeposits[msgSender].push(deposit);\r\n        _cumulativeTotal = cumulativeTotal;\r\n        _checkpointBlock = deposit.blockNumber;\r\n        _balances[msgSender] += amount;\r\n\r\n        emit Deposited(msgSender, deposit.id, deposit.amount, deposit.vestingBlocks, deposit.unbondingBlocks, deposit.multiplier, _totalTokens, _totalDepositWeight, _cumulativeTotal);\r\n    }\r\n\r\n    /// Updates the vesting blocks and unbonding blocks of the sender's deposit with the specified ID\r\n    function updateDeposit(uint256 id, uint256 vestingBlocks, uint256 unbondingBlocks) external {\r\n        address msgSender = _msgSender();\r\n        (Deposit storage deposit,,) = _getDeposit(msgSender, id);\r\n        deposit.vestingBlocks = vestingBlocks;\r\n        deposit.unbondingBlocks = unbondingBlocks;\r\n        (uint256 multiplier,,) = _getMultiplier(deposit.amount, vestingBlocks, unbondingBlocks);\r\n        require(multiplier > deposit.multiplier, \"SchnoodleFarming: no benefit to update deposit with supplied changes\");\r\n        deposit.multiplier = multiplier;\r\n\r\n        emit UpdatedDeposit(msgSender, id, deposit.vestingBlocks, deposit.unbondingBlocks, deposit.multiplier);\r\n    }\r\n\r\n    /// Withdraws the specified amount of tokens from the sender's deposit with the specified ID\r\n    function withdraw(uint256 id, uint256 amount) external {\r\n        address msgSender = _msgSender();\r\n        uint256 blockNumber = block.number;\r\n        Unbond[] storage unbonds = _accountUnbonds[msgSender];\r\n\r\n        // Take this opportunity to clean up any expired unbonds\r\n        for (uint256 i = unbonds.length; i > 0; i--) {\r\n            if (unbonds[i - 1].expiryBlock <= blockNumber) {\r\n                unbonds[i - 1] = unbonds[unbonds.length - 1];\r\n                unbonds.pop();\r\n            }\r\n        }\r\n\r\n        (Deposit storage deposit, Deposit[] storage deposits, uint256 index) = _getDeposit(msgSender, id);\r\n        require(deposit.amount >= amount, \"SchnoodleFarming: cannot withdraw more than deposited\");\r\n        require(deposit.blockNumber + _vestingBlocksFactor * deposit.vestingBlocks / 1000 < blockNumber, \"SchnoodleFarming: cannot withdraw during vesting blocks\");\r\n\r\n        (uint256 netReward, uint256 grossReward, uint256 newCumulativeTotal) = _getRewardInfo(deposit, amount, blockNumber);\r\n\r\n        // Update all tracking states to remove the withdrawn deposit\r\n        (_totalTokens, _totalDepositWeight) = _getAggregatedTotals(-int256(amount), deposit.vestingBlocks, deposit.unbondingBlocks);\r\n        _cumulativeTotal = newCumulativeTotal;\r\n        _checkpointBlock = blockNumber;\r\n        _balances[msgSender] -= amount;\r\n        deposit.amount -= amount;\r\n\r\n        // Start the unbonding procedure for the withdrawn amount\r\n        unbonds.push(Unbond(amount, blockNumber + _unbondingBlocksFactor * deposit.unbondingBlocks / 1000));\r\n\r\n        // Remove the deposit if it is fully withdrawn by replacing it with the last deposit in the array\r\n        if (deposit.amount == 0) {\r\n            deposits[index] = deposits[deposits.length - 1];\r\n            deposits.pop();\r\n        }\r\n\r\n        farmingReward(msgSender, netReward, grossReward);\r\n\r\n        emit Withdrawn(msgSender, id, amount, netReward, grossReward, _totalTokens, _totalDepositWeight, _cumulativeTotal);\r\n    }\r\n\r\n    function _buildDeposit(uint256 amount, uint256 vestingBlocks, uint256 unbondingBlocks) private view returns (Deposit memory, uint256, uint256, uint256) {\r\n        (uint256 multiplier, uint256 totalTokens, uint256 totalDepositWeight) = _getMultiplier(amount, vestingBlocks, unbondingBlocks);\r\n        uint256 blockNumber = block.number;\r\n        return (Deposit(_depositId, amount, blockNumber, vestingBlocks, unbondingBlocks, multiplier), _getCumulativeTotal(blockNumber), totalTokens, totalDepositWeight);\r\n    }\r\n\r\n    function _getDeposit(address account, uint256 id) private view returns(Deposit storage, Deposit[] storage, uint256) {\r\n        Deposit[] storage deposits = _accountDeposits[account];\r\n\r\n        for (uint256 i = 0; i < deposits.length; i++) {\r\n            Deposit storage deposit = deposits[i];\r\n            if (deposit.id == id) {\r\n                return (deposit, deposits, i);\r\n            }\r\n        }\r\n\r\n        revert(\"SchnoodleFarming: deposit not found\");\r\n    }\r\n\r\n    function changeVestingBlocksFactor(uint256 rate) external onlyOwner {\r\n        _vestingBlocksFactor = rate;\r\n        emit VestingBlocksFactorChanged(rate);\r\n    }\r\n\r\n    function getVestingBlocksFactor() external view returns(uint256) {\r\n        return _vestingBlocksFactor;\r\n    }\r\n\r\n    function changeUnbondingBlocksFactor(uint256 rate) external onlyOwner {\r\n        _unbondingBlocksFactor = rate;\r\n        emit UnbondingBlocksFactorChanged(rate);\r\n    }\r\n\r\n    function getUnbondingBlocksFactor() external view returns(uint256) {\r\n        return _unbondingBlocksFactor;\r\n    }\r\n\r\n    function changeMaxUnbondingBlocks(uint256 max) external onlyOwner {\r\n        _maxUnbondingBlocks = max;\r\n        emit MaxUnbondingBlocksChanged(max);\r\n    }\r\n\r\n    function getMaxUnbondingBlocks() external view returns(uint256) {\r\n        return _maxUnbondingBlocks;\r\n    }\r\n\r\n    // Reward calculation functions\r\n\r\n    function getReward(uint256 amount, uint256 vestingBlocks, uint256 unbondingBlocks, uint256 rewardBlock) external view returns(uint256) {\r\n        (Deposit memory deposit, uint256 cumulativeTotal, uint256 totalTokens, uint256 totalDepositWeight) = _buildDeposit(amount, vestingBlocks, unbondingBlocks);\r\n        return _getReward(deposit, rewardBlock, deposit.blockNumber, cumulativeTotal, totalDepositWeight, totalTokens);\r\n    }\r\n\r\n    function getReward(address account, uint256 id, uint256 rewardBlock) external view returns(uint256) {\r\n        (Deposit memory deposit,,) = _getDeposit(account, id);\r\n        return _getReward(deposit, rewardBlock);\r\n    }\r\n\r\n    function _getReward(Deposit memory deposit, uint256 rewardBlock) private view returns(uint256) {\r\n        return _getReward(deposit, rewardBlock, _checkpointBlock, _cumulativeTotal, _totalDepositWeight, _totalTokens);\r\n    }\r\n\r\n    function _getReward(Deposit memory deposit, uint256 rewardBlock, uint256 checkpointBlock, uint256 cumulativeTotal, uint256 totalDepositWeight, uint256 totalTokens) private view returns(uint256) {\r\n        (uint256 netReward,,) = _getRewardInfo(deposit, deposit.amount, rewardBlock, checkpointBlock, cumulativeTotal, totalDepositWeight, totalTokens);\r\n        return netReward;\r\n    }\r\n\r\n    function _getRewardInfo(Deposit memory deposit, uint256 amount, uint256 rewardBlock) private view returns(uint256, uint256, uint256) {\r\n        return _getRewardInfo(deposit, amount, rewardBlock, _checkpointBlock, _cumulativeTotal, _totalDepositWeight, _totalTokens);\r\n    }\r\n\r\n    function _getRewardInfo(Deposit memory deposit, uint256 amount, uint256 rewardBlock, uint256 checkpointBlock, uint256 cumulativeTotal, uint256 totalDepositWeight, uint256 totalTokens) private view returns(uint256, uint256, uint256) {\r\n        // Calculate the deposit amount multiplied across the number of blocks since the start of the deposit\r\n        uint256 cumulativeAmount = amount * (MathUpgradeable.max(rewardBlock, deposit.blockNumber) - deposit.blockNumber);\r\n\r\n        // Get the new cumulative total of all deposits as the current stored value is from the previous farming activity\r\n        uint256 newCumulativeTotal = _getCumulativeTotal(rewardBlock, checkpointBlock, cumulativeTotal, totalTokens);\r\n\r\n        if (cumulativeAmount > 0 && totalDepositWeight > 0) {\r\n            // Calculate the reward as a relative proportion of the cumulative total of all holders' deposits, adjusted by the multiplier\r\n            uint256 grossReward = balanceOf(getFarmingFund()) * cumulativeAmount / newCumulativeTotal;\r\n            uint256 netReward = deposit.multiplier * grossReward / 1000;\r\n\r\n            // The returned new cumulative total should not include the rewarded amount\r\n            return (netReward, grossReward, newCumulativeTotal - cumulativeAmount);\r\n        }\r\n\r\n        return (0, 0, newCumulativeTotal);\r\n    }\r\n\r\n    // Vestiplier functions\r\n\r\n    function _getMultiplier(uint256 amount, uint256 vestingBlocks, uint256 unbondingBlocks) private view returns(uint256, uint256, uint256) {\r\n        require(amount > 0, \"SchnoodleFarming: deposit amount must be greater than zero\");\r\n        require(vestingBlocks > 0, \"SchnoodleFarming: vesting blocks must be greater than zero\");\r\n        require(unbondingBlocks > 0, \"SchnoodleFarming: unbonding blocks must be greater than zero\");\r\n        require(unbondingBlocks <= _maxUnbondingBlocks, \"SchnoodleFarming: unbonding blocks is greater than the defined maximum\");\r\n\r\n        (uint256 totalTokens, uint256 totalDepositWeight) = _getAggregatedTotals(int256(amount), vestingBlocks, unbondingBlocks);\r\n        uint256 lockProductWeightedAverage = totalDepositWeight / totalTokens;\r\n\r\n        // Calculate a reward multiplier based on a sigmoid curve defined by logistic function 1  (1 + e) where z = -k(x - x)\r\n        int128 z = ABDKMath64x64.mul(\r\n            ABDKMath64x64.div(\r\n                ABDKMath64x64.fromInt(-int256(_sigmoidParams.k)),\r\n                ABDKMath64x64.fromUInt(lockProductWeightedAverage)\r\n            ),\r\n            ABDKMath64x64.fromInt(int256(vestingBlocks * unbondingBlocks) - int256(lockProductWeightedAverage))\r\n        );\r\n\r\n        int128 one = ABDKMath64x64.fromUInt(1);\r\n        uint256 multiplier = ABDKMath64x64.toUInt(\r\n            ABDKMath64x64.mul(\r\n                ABDKMath64x64.fromUInt(1000),\r\n                ABDKMath64x64.div(\r\n                    one,\r\n                    ABDKMath64x64.pow(\r\n                        ABDKMath64x64.add(\r\n                            one,\r\n                            ABDKMath64x64.exp(z)\r\n                        ),\r\n                        _sigmoidParams.a\r\n                    )\r\n                )\r\n            )\r\n        );\r\n\r\n        return (multiplier, totalTokens, totalDepositWeight);\r\n    }\r\n\r\n    function changeSigmoidParams(uint256 k, uint256 a) external onlyOwner {\r\n        _sigmoidParams = SigmoidParams(k, a);\r\n    }\r\n\r\n    function sigmoidParams() external view returns(SigmoidParams memory) {\r\n        return _sigmoidParams;\r\n    }\r\n\r\n    // Autoregulator functions\r\n\r\n    function _getCumulativeTotal(uint256 rewardBlock) private view returns(uint256) {\r\n        return _getCumulativeTotal(rewardBlock, _checkpointBlock, _cumulativeTotal, _totalTokens);\r\n    }\r\n\r\n    function _getCumulativeTotal(uint256 rewardBlock, uint256 checkpointBlock, uint256 cumulativeTotal, uint256 totalTokens) private pure returns(uint256) {\r\n        // Add the total of all deposits multiplied across all blocks since the previous checkpoint calculation to the cumulative total\r\n        return cumulativeTotal + totalTokens * (rewardBlock - checkpointBlock);\r\n    }\r\n\r\n    function _getAggregatedTotals(int256 amountDelta, uint256 vestingBlocks, uint256 unbondingBlocks) private view returns(uint256, uint256) {\r\n        return (\r\n            uint256(int256(_totalTokens) + amountDelta), // Aggregate total tokens\r\n            uint256(int256(_totalDepositWeight) + amountDelta * int256(vestingBlocks) * int256(unbondingBlocks)) // Aggregate total deposit weight\r\n        );\r\n    }\r\n\r\n    // Balance functions\r\n\r\n    function depositedBalanceOf(address account) public view returns(uint256) {\r\n        return _balances[account];\r\n    }\r\n\r\n    function unbondingBalanceOf(address account) public view returns(uint256) {\r\n        uint256 blockNumber = block.number;\r\n        uint256 total;\r\n        Unbond[] storage unbonds = _accountUnbonds[account];\r\n\r\n        for (uint256 i = 0; i < unbonds.length; i++) {\r\n            Unbond memory unbond = unbonds[i];\r\n            if (unbond.expiryBlock > blockNumber) {\r\n                total += unbond.amount;\r\n            }\r\n        }\r\n\r\n        return total;\r\n    }\r\n\r\n    function lockedBalanceOf(address account) public view returns (uint256) {\r\n        return unbondingBalanceOf(account) + depositedBalanceOf(account);\r\n    }\r\n\r\n    // Summary functions\r\n\r\n    function getFarmingSummary(address account) public view returns(DepositReward[] memory) {\r\n        Deposit[] storage deposits = _accountDeposits[account];\r\n        DepositReward[] memory depositRewards = new DepositReward[](deposits.length);\r\n        uint256 rewardBlock = block.number;\r\n\r\n        for (uint256 i = 0; i < deposits.length; i++) {\r\n            depositRewards[i] = DepositReward(deposits[i], _getReward(deposits[i], rewardBlock));\r\n        }\r\n\r\n        return depositRewards;\r\n    }\r\n\r\n    function getUnbondingSummary(address account) public view returns(Unbond[] memory) {\r\n        return _accountUnbonds[account];\r\n    }\r\n\r\n    // Calls to the Schnoodle proxy contract\r\n\r\n    function getFarmingFund() private view returns (address) {\r\n        (bool success, bytes memory result) = _schnoodle.staticcall(abi.encodeWithSignature(\"getFarmingFund()\"));\r\n        assert(success);\r\n        return abi.decode(result, (address));\r\n    }\r\n\r\n    function balanceOf(address account) private view returns(uint256) {\r\n        (bool success, bytes memory result) = _schnoodle.staticcall(abi.encodeWithSignature(\"balanceOf(address)\", account));\r\n        assert(success);\r\n        return abi.decode(result, (uint256));\r\n    }\r\n\r\n    function farmingReward(address account, uint256 netReward, uint256 grossReward) private {\r\n        (bool success,) = _schnoodle.call(abi.encodeWithSignature(\"farmingReward(address,uint256,uint256)\", account, netReward, grossReward));\r\n        assert(success);\r\n    }\r\n\r\n    // Events\r\n\r\n    event Deposited(address indexed account, uint256 depositId, uint256 amount, uint256 vestingBlocks, uint256 unbondingBlocks, uint256 multiplier, uint256 totalTokens, uint256 totalDepositWeight, uint256 cumulativeTotal);\r\n\r\n    event UpdatedDeposit(address indexed account, uint256 depositId, uint256 vestingBlocks, uint256 unbondingBlocks, uint256 multiplier);\r\n\r\n    event Withdrawn(address indexed account, uint256 depositId, uint256 amount, uint256 netReward, uint256 grossReward, uint256 totalTokens, uint256 totalDepositWeight, uint256 cumulativeTotal);\r\n\r\n    event VestingBlocksFactorChanged(uint256 rate);\r\n\r\n    event UnbondingBlocksFactorChanged(uint256 rate);\r\n\r\n    event MaxUnbondingBlocksChanged(uint256 max);\r\n}\r\n",
  "sourcePath": "C:\\Users\\micro\\OneDrive - X-treem Software\\Development\\Projects\\Blockchain\\Schnoodle\\contracts\\contracts\\SchnoodleFarmingV2.sol",
  "compiler": {
    "name": "solc",
    "version": "0.8.14+commit.80d49f37.Emscripten.clang"
  },
  "schemaVersion": "3.4.3",
  "updatedAt": "2022-06-12T23:01:02.451Z",
  "devdoc": {
    "author": "Jason Payne (https://twitter.com/Neo42)",
    "kind": "dev",
    "methods": {
      "owner()": {
        "details": "Returns the address of the current owner."
      },
      "renounceOwnership()": {
        "details": "Leaves the contract without owner. It will not be possible to call `onlyOwner` functions anymore. Can only be called by the current owner. NOTE: Renouncing ownership will leave the contract without an owner, thereby removing any functionality that is only available to the owner."
      },
      "transferOwnership(address)": {
        "details": "Transfers ownership of the contract to a new account (`newOwner`). Can only be called by the current owner."
      }
    },
    "version": 1
  },
  "userdoc": {
    "kind": "user",
    "methods": {
      "addDeposit(uint256,uint256,uint256)": {
        "notice": "Deposits the specified amount of tokens for the sender, and adds the details to a stored deposit object"
      },
      "updateDeposit(uint256,uint256,uint256)": {
        "notice": "Updates the vesting blocks and unbonding blocks of the sender's deposit with the specified ID"
      },
      "withdraw(uint256,uint256)": {
        "notice": "Withdraws the specified amount of tokens from the sender's deposit with the specified ID"
      }
    },
    "version": 1
  }
}