{
  "contractName": "SchnoodleV9",
  "abi": [
    {
      "anonymous": false,
      "inputs": [
        {
          "indexed": true,
          "internalType": "address",
          "name": "owner",
          "type": "address"
        },
        {
          "indexed": true,
          "internalType": "address",
          "name": "spender",
          "type": "address"
        },
        {
          "indexed": false,
          "internalType": "uint256",
          "name": "value",
          "type": "uint256"
        }
      ],
      "name": "Approval",
      "type": "event"
    },
    {
      "anonymous": false,
      "inputs": [
        {
          "indexed": true,
          "internalType": "address",
          "name": "operator",
          "type": "address"
        },
        {
          "indexed": true,
          "internalType": "address",
          "name": "tokenHolder",
          "type": "address"
        }
      ],
      "name": "AuthorizedOperator",
      "type": "event"
    },
    {
      "anonymous": false,
      "inputs": [
        {
          "indexed": true,
          "internalType": "address",
          "name": "operator",
          "type": "address"
        },
        {
          "indexed": true,
          "internalType": "address",
          "name": "from",
          "type": "address"
        },
        {
          "indexed": false,
          "internalType": "uint256",
          "name": "amount",
          "type": "uint256"
        },
        {
          "indexed": false,
          "internalType": "bytes",
          "name": "data",
          "type": "bytes"
        },
        {
          "indexed": false,
          "internalType": "bytes",
          "name": "operatorData",
          "type": "bytes"
        }
      ],
      "name": "Burned",
      "type": "event"
    },
    {
      "anonymous": false,
      "inputs": [
        {
          "indexed": true,
          "internalType": "address",
          "name": "eleemosynaryAccount",
          "type": "address"
        },
        {
          "indexed": false,
          "internalType": "uint256",
          "name": "donationRate",
          "type": "uint256"
        }
      ],
      "name": "EleemosynaryDetailsChanged",
      "type": "event"
    },
    {
      "anonymous": false,
      "inputs": [
        {
          "indexed": false,
          "internalType": "uint256",
          "name": "rate",
          "type": "uint256"
        }
      ],
      "name": "FeeRateChanged",
      "type": "event"
    },
    {
      "anonymous": false,
      "inputs": [
        {
          "indexed": false,
          "internalType": "uint8",
          "name": "version",
          "type": "uint8"
        }
      ],
      "name": "Initialized",
      "type": "event"
    },
    {
      "anonymous": false,
      "inputs": [
        {
          "indexed": true,
          "internalType": "address",
          "name": "operator",
          "type": "address"
        },
        {
          "indexed": true,
          "internalType": "address",
          "name": "to",
          "type": "address"
        },
        {
          "indexed": false,
          "internalType": "uint256",
          "name": "amount",
          "type": "uint256"
        },
        {
          "indexed": false,
          "internalType": "bytes",
          "name": "data",
          "type": "bytes"
        },
        {
          "indexed": false,
          "internalType": "bytes",
          "name": "operatorData",
          "type": "bytes"
        }
      ],
      "name": "Minted",
      "type": "event"
    },
    {
      "anonymous": false,
      "inputs": [
        {
          "indexed": true,
          "internalType": "address",
          "name": "previousOwner",
          "type": "address"
        },
        {
          "indexed": true,
          "internalType": "address",
          "name": "newOwner",
          "type": "address"
        }
      ],
      "name": "OwnershipTransferred",
      "type": "event"
    },
    {
      "anonymous": false,
      "inputs": [
        {
          "indexed": true,
          "internalType": "address",
          "name": "operator",
          "type": "address"
        },
        {
          "indexed": true,
          "internalType": "address",
          "name": "tokenHolder",
          "type": "address"
        }
      ],
      "name": "RevokedOperator",
      "type": "event"
    },
    {
      "anonymous": false,
      "inputs": [
        {
          "indexed": true,
          "internalType": "bytes32",
          "name": "role",
          "type": "bytes32"
        },
        {
          "indexed": true,
          "internalType": "bytes32",
          "name": "previousAdminRole",
          "type": "bytes32"
        },
        {
          "indexed": true,
          "internalType": "bytes32",
          "name": "newAdminRole",
          "type": "bytes32"
        }
      ],
      "name": "RoleAdminChanged",
      "type": "event"
    },
    {
      "anonymous": false,
      "inputs": [
        {
          "indexed": true,
          "internalType": "bytes32",
          "name": "role",
          "type": "bytes32"
        },
        {
          "indexed": true,
          "internalType": "address",
          "name": "account",
          "type": "address"
        },
        {
          "indexed": true,
          "internalType": "address",
          "name": "sender",
          "type": "address"
        }
      ],
      "name": "RoleGranted",
      "type": "event"
    },
    {
      "anonymous": false,
      "inputs": [
        {
          "indexed": true,
          "internalType": "bytes32",
          "name": "role",
          "type": "bytes32"
        },
        {
          "indexed": true,
          "internalType": "address",
          "name": "account",
          "type": "address"
        },
        {
          "indexed": true,
          "internalType": "address",
          "name": "sender",
          "type": "address"
        }
      ],
      "name": "RoleRevoked",
      "type": "event"
    },
    {
      "anonymous": false,
      "inputs": [
        {
          "indexed": false,
          "internalType": "uint256",
          "name": "blockTimestamp",
          "type": "uint256"
        },
        {
          "indexed": false,
          "internalType": "int256",
          "name": "amount",
          "type": "int256"
        }
      ],
      "name": "SellQuotaChanged",
      "type": "event"
    },
    {
      "anonymous": false,
      "inputs": [
        {
          "indexed": false,
          "internalType": "uint256",
          "name": "sellThreshold",
          "type": "uint256"
        },
        {
          "indexed": false,
          "internalType": "uint256",
          "name": "rateEscalator",
          "type": "uint256"
        }
      ],
      "name": "SellThresholdDetailsChanged",
      "type": "event"
    },
    {
      "anonymous": false,
      "inputs": [
        {
          "indexed": true,
          "internalType": "address",
          "name": "operator",
          "type": "address"
        },
        {
          "indexed": true,
          "internalType": "address",
          "name": "from",
          "type": "address"
        },
        {
          "indexed": true,
          "internalType": "address",
          "name": "to",
          "type": "address"
        },
        {
          "indexed": false,
          "internalType": "uint256",
          "name": "amount",
          "type": "uint256"
        },
        {
          "indexed": false,
          "internalType": "bytes",
          "name": "data",
          "type": "bytes"
        },
        {
          "indexed": false,
          "internalType": "bytes",
          "name": "operatorData",
          "type": "bytes"
        }
      ],
      "name": "Sent",
      "type": "event"
    },
    {
      "anonymous": false,
      "inputs": [
        {
          "indexed": false,
          "internalType": "uint256",
          "name": "rate",
          "type": "uint256"
        }
      ],
      "name": "SowRateChanged",
      "type": "event"
    },
    {
      "anonymous": false,
      "inputs": [
        {
          "indexed": true,
          "internalType": "address",
          "name": "from",
          "type": "address"
        },
        {
          "indexed": true,
          "internalType": "address",
          "name": "to",
          "type": "address"
        },
        {
          "indexed": false,
          "internalType": "uint256",
          "name": "value",
          "type": "uint256"
        }
      ],
      "name": "Transfer",
      "type": "event"
    },
    {
      "inputs": [],
      "name": "BRIDGE",
      "outputs": [
        {
          "internalType": "bytes32",
          "name": "",
          "type": "bytes32"
        }
      ],
      "stateMutability": "view",
      "type": "function"
    },
    {
      "inputs": [],
      "name": "DEFAULT_ADMIN_ROLE",
      "outputs": [
        {
          "internalType": "bytes32",
          "name": "",
          "type": "bytes32"
        }
      ],
      "stateMutability": "view",
      "type": "function"
    },
    {
      "inputs": [],
      "name": "FARMING_CONTRACT",
      "outputs": [
        {
          "internalType": "bytes32",
          "name": "",
          "type": "bytes32"
        }
      ],
      "stateMutability": "view",
      "type": "function"
    },
    {
      "inputs": [],
      "name": "LIQUIDITY",
      "outputs": [
        {
          "internalType": "bytes32",
          "name": "",
          "type": "bytes32"
        }
      ],
      "stateMutability": "view",
      "type": "function"
    },
    {
      "inputs": [],
      "name": "LOCKED",
      "outputs": [
        {
          "internalType": "bytes32",
          "name": "",
          "type": "bytes32"
        }
      ],
      "stateMutability": "view",
      "type": "function"
    },
    {
      "inputs": [
        {
          "internalType": "address",
          "name": "holder",
          "type": "address"
        },
        {
          "internalType": "address",
          "name": "spender",
          "type": "address"
        }
      ],
      "name": "allowance",
      "outputs": [
        {
          "internalType": "uint256",
          "name": "",
          "type": "uint256"
        }
      ],
      "stateMutability": "view",
      "type": "function"
    },
    {
      "inputs": [
        {
          "internalType": "address",
          "name": "spender",
          "type": "address"
        },
        {
          "internalType": "uint256",
          "name": "value",
          "type": "uint256"
        }
      ],
      "name": "approve",
      "outputs": [
        {
          "internalType": "bool",
          "name": "",
          "type": "bool"
        }
      ],
      "stateMutability": "nonpayable",
      "type": "function"
    },
    {
      "inputs": [
        {
          "internalType": "address",
          "name": "operator",
          "type": "address"
        }
      ],
      "name": "authorizeOperator",
      "outputs": [],
      "stateMutability": "nonpayable",
      "type": "function"
    },
    {
      "inputs": [
        {
          "internalType": "address",
          "name": "account",
          "type": "address"
        }
      ],
      "name": "balanceOf",
      "outputs": [
        {
          "internalType": "uint256",
          "name": "",
          "type": "uint256"
        }
      ],
      "stateMutability": "view",
      "type": "function"
    },
    {
      "inputs": [
        {
          "internalType": "uint256",
          "name": "amount",
          "type": "uint256"
        },
        {
          "internalType": "bytes",
          "name": "data",
          "type": "bytes"
        }
      ],
      "name": "burn",
      "outputs": [],
      "stateMutability": "nonpayable",
      "type": "function"
    },
    {
      "inputs": [
        {
          "internalType": "address",
          "name": "eleemosynaryAccount",
          "type": "address"
        },
        {
          "internalType": "uint256",
          "name": "donationRate",
          "type": "uint256"
        }
      ],
      "name": "changeEleemosynaryDetails",
      "outputs": [],
      "stateMutability": "nonpayable",
      "type": "function"
    },
    {
      "inputs": [
        {
          "internalType": "uint256",
          "name": "rate",
          "type": "uint256"
        }
      ],
      "name": "changeFeeRate",
      "outputs": [],
      "stateMutability": "nonpayable",
      "type": "function"
    },
    {
      "inputs": [
        {
          "internalType": "uint256",
          "name": "sellThreshold",
          "type": "uint256"
        },
        {
          "internalType": "uint256",
          "name": "rateEscalator",
          "type": "uint256"
        }
      ],
      "name": "changeSellThresholdDetails",
      "outputs": [],
      "stateMutability": "nonpayable",
      "type": "function"
    },
    {
      "inputs": [],
      "name": "decimals",
      "outputs": [
        {
          "internalType": "uint8",
          "name": "",
          "type": "uint8"
        }
      ],
      "stateMutability": "pure",
      "type": "function"
    },
    {
      "inputs": [],
      "name": "defaultOperators",
      "outputs": [
        {
          "internalType": "address[]",
          "name": "",
          "type": "address[]"
        }
      ],
      "stateMutability": "view",
      "type": "function"
    },
    {
      "inputs": [],
      "name": "getEleemosynaryDetails",
      "outputs": [
        {
          "internalType": "address",
          "name": "",
          "type": "address"
        },
        {
          "internalType": "uint256",
          "name": "",
          "type": "uint256"
        }
      ],
      "stateMutability": "view",
      "type": "function"
    },
    {
      "inputs": [],
      "name": "getFeeRate",
      "outputs": [
        {
          "internalType": "uint256",
          "name": "",
          "type": "uint256"
        }
      ],
      "stateMutability": "view",
      "type": "function"
    },
    {
      "inputs": [],
      "name": "getOperativeFeeRate",
      "outputs": [
        {
          "internalType": "uint256",
          "name": "",
          "type": "uint256"
        }
      ],
      "stateMutability": "view",
      "type": "function"
    },
    {
      "inputs": [
        {
          "internalType": "bytes32",
          "name": "role",
          "type": "bytes32"
        }
      ],
      "name": "getRoleAdmin",
      "outputs": [
        {
          "internalType": "bytes32",
          "name": "",
          "type": "bytes32"
        }
      ],
      "stateMutability": "view",
      "type": "function"
    },
    {
      "inputs": [],
      "name": "getSellQuota",
      "outputs": [
        {
          "components": [
            {
              "internalType": "uint256",
              "name": "blockMetric",
              "type": "uint256"
            },
            {
              "internalType": "int256",
              "name": "amount",
              "type": "int256"
            }
          ],
          "internalType": "struct SchnoodleV9Base.TokenMeter",
          "name": "",
          "type": "tuple"
        }
      ],
      "stateMutability": "view",
      "type": "function"
    },
    {
      "inputs": [],
      "name": "getSellThresholdDetails",
      "outputs": [
        {
          "internalType": "uint256",
          "name": "",
          "type": "uint256"
        },
        {
          "internalType": "uint256",
          "name": "",
          "type": "uint256"
        }
      ],
      "stateMutability": "view",
      "type": "function"
    },
    {
      "inputs": [
        {
          "internalType": "bytes32",
          "name": "role",
          "type": "bytes32"
        },
        {
          "internalType": "address",
          "name": "account",
          "type": "address"
        }
      ],
      "name": "grantRole",
      "outputs": [],
      "stateMutability": "nonpayable",
      "type": "function"
    },
    {
      "inputs": [],
      "name": "granularity",
      "outputs": [
        {
          "internalType": "uint256",
          "name": "",
          "type": "uint256"
        }
      ],
      "stateMutability": "view",
      "type": "function"
    },
    {
      "inputs": [
        {
          "internalType": "bytes32",
          "name": "role",
          "type": "bytes32"
        },
        {
          "internalType": "address",
          "name": "account",
          "type": "address"
        }
      ],
      "name": "hasRole",
      "outputs": [
        {
          "internalType": "bool",
          "name": "",
          "type": "bool"
        }
      ],
      "stateMutability": "view",
      "type": "function"
    },
    {
      "inputs": [
        {
          "internalType": "string",
          "name": "name",
          "type": "string"
        },
        {
          "internalType": "string",
          "name": "symbol",
          "type": "string"
        },
        {
          "internalType": "address[]",
          "name": "defaultOperators",
          "type": "address[]"
        },
        {
          "internalType": "uint256",
          "name": "initialSupply",
          "type": "uint256"
        },
        {
          "internalType": "address",
          "name": "owner",
          "type": "address"
        }
      ],
      "name": "initialize",
      "outputs": [],
      "stateMutability": "nonpayable",
      "type": "function"
    },
    {
      "inputs": [
        {
          "internalType": "uint256",
          "name": "initialTokens",
          "type": "uint256"
        },
        {
          "internalType": "address",
          "name": "serviceAccount",
          "type": "address"
        }
      ],
      "name": "initialize",
      "outputs": [],
      "stateMutability": "nonpayable",
      "type": "function"
    },
    {
      "inputs": [
        {
          "internalType": "address",
          "name": "operator",
          "type": "address"
        },
        {
          "internalType": "address",
          "name": "tokenHolder",
          "type": "address"
        }
      ],
      "name": "isOperatorFor",
      "outputs": [
        {
          "internalType": "bool",
          "name": "",
          "type": "bool"
        }
      ],
      "stateMutability": "view",
      "type": "function"
    },
    {
      "inputs": [],
      "name": "name",
      "outputs": [
        {
          "internalType": "string",
          "name": "",
          "type": "string"
        }
      ],
      "stateMutability": "view",
      "type": "function"
    },
    {
      "inputs": [
        {
          "internalType": "address",
          "name": "account",
          "type": "address"
        },
        {
          "internalType": "uint256",
          "name": "amount",
          "type": "uint256"
        },
        {
          "internalType": "bytes",
          "name": "data",
          "type": "bytes"
        },
        {
          "internalType": "bytes",
          "name": "operatorData",
          "type": "bytes"
        }
      ],
      "name": "operatorBurn",
      "outputs": [],
      "stateMutability": "nonpayable",
      "type": "function"
    },
    {
      "inputs": [
        {
          "internalType": "address",
          "name": "sender",
          "type": "address"
        },
        {
          "internalType": "address",
          "name": "recipient",
          "type": "address"
        },
        {
          "internalType": "uint256",
          "name": "amount",
          "type": "uint256"
        },
        {
          "internalType": "bytes",
          "name": "data",
          "type": "bytes"
        },
        {
          "internalType": "bytes",
          "name": "operatorData",
          "type": "bytes"
        }
      ],
      "name": "operatorSend",
      "outputs": [],
      "stateMutability": "nonpayable",
      "type": "function"
    },
    {
      "inputs": [],
      "name": "owner",
      "outputs": [
        {
          "internalType": "address",
          "name": "",
          "type": "address"
        }
      ],
      "stateMutability": "view",
      "type": "function"
    },
    {
      "inputs": [],
      "name": "renounceOwnership",
      "outputs": [],
      "stateMutability": "nonpayable",
      "type": "function"
    },
    {
      "inputs": [
        {
          "internalType": "bytes32",
          "name": "role",
          "type": "bytes32"
        },
        {
          "internalType": "address",
          "name": "account",
          "type": "address"
        }
      ],
      "name": "renounceRole",
      "outputs": [],
      "stateMutability": "nonpayable",
      "type": "function"
    },
    {
      "inputs": [
        {
          "internalType": "address",
          "name": "operator",
          "type": "address"
        }
      ],
      "name": "revokeOperator",
      "outputs": [],
      "stateMutability": "nonpayable",
      "type": "function"
    },
    {
      "inputs": [
        {
          "internalType": "bytes32",
          "name": "role",
          "type": "bytes32"
        },
        {
          "internalType": "address",
          "name": "account",
          "type": "address"
        }
      ],
      "name": "revokeRole",
      "outputs": [],
      "stateMutability": "nonpayable",
      "type": "function"
    },
    {
      "inputs": [
        {
          "internalType": "address",
          "name": "recipient",
          "type": "address"
        },
        {
          "internalType": "uint256",
          "name": "amount",
          "type": "uint256"
        },
        {
          "internalType": "bytes",
          "name": "data",
          "type": "bytes"
        }
      ],
      "name": "send",
      "outputs": [],
      "stateMutability": "nonpayable",
      "type": "function"
    },
    {
      "inputs": [
        {
          "internalType": "bytes4",
          "name": "interfaceId",
          "type": "bytes4"
        }
      ],
      "name": "supportsInterface",
      "outputs": [
        {
          "internalType": "bool",
          "name": "",
          "type": "bool"
        }
      ],
      "stateMutability": "view",
      "type": "function"
    },
    {
      "inputs": [],
      "name": "symbol",
      "outputs": [
        {
          "internalType": "string",
          "name": "",
          "type": "string"
        }
      ],
      "stateMutability": "view",
      "type": "function"
    },
    {
      "inputs": [],
      "name": "totalSupply",
      "outputs": [
        {
          "internalType": "uint256",
          "name": "",
          "type": "uint256"
        }
      ],
      "stateMutability": "view",
      "type": "function"
    },
    {
      "inputs": [
        {
          "internalType": "address",
          "name": "recipient",
          "type": "address"
        },
        {
          "internalType": "uint256",
          "name": "amount",
          "type": "uint256"
        }
      ],
      "name": "transfer",
      "outputs": [
        {
          "internalType": "bool",
          "name": "",
          "type": "bool"
        }
      ],
      "stateMutability": "nonpayable",
      "type": "function"
    },
    {
      "inputs": [
        {
          "internalType": "address",
          "name": "holder",
          "type": "address"
        },
        {
          "internalType": "address",
          "name": "recipient",
          "type": "address"
        },
        {
          "internalType": "uint256",
          "name": "amount",
          "type": "uint256"
        }
      ],
      "name": "transferFrom",
      "outputs": [
        {
          "internalType": "bool",
          "name": "",
          "type": "bool"
        }
      ],
      "stateMutability": "nonpayable",
      "type": "function"
    },
    {
      "inputs": [
        {
          "internalType": "address",
          "name": "newOwner",
          "type": "address"
        }
      ],
      "name": "transferOwnership",
      "outputs": [],
      "stateMutability": "nonpayable",
      "type": "function"
    },
    {
      "inputs": [
        {
          "internalType": "bool",
          "name": "testnet",
          "type": "bool"
        },
        {
          "internalType": "address",
          "name": "liquidityToken",
          "type": "address"
        },
        {
          "internalType": "address",
          "name": "schnoodleFarming",
          "type": "address"
        },
        {
          "internalType": "address",
          "name": "bridgeOwner",
          "type": "address"
        }
      ],
      "name": "configure",
      "outputs": [],
      "stateMutability": "nonpayable",
      "type": "function"
    },
    {
      "inputs": [],
      "name": "getFarmingFund",
      "outputs": [
        {
          "internalType": "address",
          "name": "",
          "type": "address"
        }
      ],
      "stateMutability": "view",
      "type": "function"
    },
    {
      "inputs": [
        {
          "internalType": "uint256",
          "name": "rate",
          "type": "uint256"
        }
      ],
      "name": "changeSowRate",
      "outputs": [],
      "stateMutability": "nonpayable",
      "type": "function"
    },
    {
      "inputs": [],
      "name": "getSowRate",
      "outputs": [
        {
          "internalType": "uint256",
          "name": "",
          "type": "uint256"
        }
      ],
      "stateMutability": "view",
      "type": "function"
    },
    {
      "inputs": [
        {
          "internalType": "address",
          "name": "account",
          "type": "address"
        },
        {
          "internalType": "uint256",
          "name": "netReward",
          "type": "uint256"
        },
        {
          "internalType": "uint256",
          "name": "grossReward",
          "type": "uint256"
        }
      ],
      "name": "farmingReward",
      "outputs": [],
      "stateMutability": "nonpayable",
      "type": "function"
    },
    {
      "inputs": [
        {
          "internalType": "address",
          "name": "account",
          "type": "address"
        }
      ],
      "name": "unlockedBalanceOf",
      "outputs": [
        {
          "internalType": "uint256",
          "name": "",
          "type": "uint256"
        }
      ],
      "stateMutability": "nonpayable",
      "type": "function"
    },
    {
      "inputs": [],
      "name": "getBridgeOwner",
      "outputs": [
        {
          "internalType": "address",
          "name": "",
          "type": "address"
        }
      ],
      "stateMutability": "view",
      "type": "function"
    },
    {
      "inputs": [
        {
          "internalType": "uint256",
          "name": "networkId",
          "type": "uint256"
        },
        {
          "internalType": "uint256",
          "name": "amount",
          "type": "uint256"
        }
      ],
      "name": "sendTokens",
      "outputs": [],
      "stateMutability": "nonpayable",
      "type": "function"
    },
    {
      "inputs": [
        {
          "internalType": "uint256",
          "name": "networkId",
          "type": "uint256"
        }
      ],
      "name": "payFee",
      "outputs": [],
      "stateMutability": "payable",
      "type": "function"
    },
    {
      "inputs": [
        {
          "internalType": "address",
          "name": "account",
          "type": "address"
        },
        {
          "internalType": "uint256",
          "name": "networkId",
          "type": "uint256"
        },
        {
          "internalType": "uint256",
          "name": "amount",
          "type": "uint256"
        },
        {
          "internalType": "uint256",
          "name": "fee",
          "type": "uint256"
        }
      ],
      "name": "receiveTokens",
      "outputs": [],
      "stateMutability": "nonpayable",
      "type": "function"
    },
    {
      "inputs": [
        {
          "internalType": "address",
          "name": "account",
          "type": "address"
        },
        {
          "internalType": "uint256",
          "name": "networkId",
          "type": "uint256"
        }
      ],
      "name": "tokensSent",
      "outputs": [
        {
          "internalType": "uint256",
          "name": "",
          "type": "uint256"
        }
      ],
      "stateMutability": "view",
      "type": "function"
    },
    {
      "inputs": [
        {
          "internalType": "address",
          "name": "account",
          "type": "address"
        },
        {
          "internalType": "uint256",
          "name": "networkId",
          "type": "uint256"
        }
      ],
      "name": "tokensReceived",
      "outputs": [
        {
          "internalType": "uint256",
          "name": "",
          "type": "uint256"
        }
      ],
      "stateMutability": "view",
      "type": "function"
    },
    {
      "inputs": [
        {
          "internalType": "address",
          "name": "account",
          "type": "address"
        },
        {
          "internalType": "uint256",
          "name": "networkId",
          "type": "uint256"
        }
      ],
      "name": "feesPaid",
      "outputs": [
        {
          "internalType": "uint256",
          "name": "",
          "type": "uint256"
        }
      ],
      "stateMutability": "view",
      "type": "function"
    }
  ],
  "bytecode": "0x608060405234801561001057600080fd5b50613f5d806100206000396000f3fe6080604052600436106103505760003560e01c8063895b978e116101c6578063b7a895fa116100f7578063ee9a31a211610095578063fad8b32a1161006f578063fad8b32a14610aa5578063fc673c4f14610ac5578063fdf5f4f814610ae5578063fe9d930314610b0d57600080fd5b8063ee9a31a214610a31578063f2fde38b14610a65578063f364109a14610a8557600080fd5b8063d95b6371116100d1578063d95b6371146109b1578063da35a26f146109d1578063dd62ed3e146109f1578063e84839bd14610a1157600080fd5b8063b7a895fa1461093b578063d289ade21461097e578063d547741f1461099157600080fd5b80639bd9bbc611610164578063a9059cbb1161013e578063a9059cbb146108c6578063affca932146108e6578063b1e067b214610906578063b393204b1461092657600080fd5b80639bd9bbc61461085d578063a1422f691461087d578063a217fddf146108b157600080fd5b806391d14854116101a057806391d14854146107e8578063957872aa14610808578063959b8c3f1461082857806395d89b411461084857600080fd5b8063895b978e146107525780638da5cb5b146107965780639137ac72146107b457600080fd5b806331bcd2b7116102a05780636da1dd261161023e578063768f950a11610218578063768f950a146106dd5780638184ba41146106fd57806384955c881461071d57806384e5eed01461073d57600080fd5b80636da1dd261461068957806370a08231146106a8578063715018a6146106c857600080fd5b8063556f0dc71161027a578063556f0dc7146105f457806362ad1b83146106085780636a6ccdf5146106285780636c05932a1461063e57600080fd5b806331bcd2b71461057c57806336568abe1461059c5780634cbe3db5146105bc57600080fd5b806322daa21d1161030d57806324a756d1116102e757806324a756d1146104c85780632861c7d11461050c5780632f2ff15d14610540578063313ce5671461056057600080fd5b806322daa21d1461045557806323b872dd14610477578063248a9ca31461049757600080fd5b806301ffc9a71461035557806306e485381461038a57806306fdde03146103ac578063095ea7b3146103ce5780630a831211146103ee57806318160ddd14610440575b600080fd5b34801561036157600080fd5b50610375610370366004613317565b610b2d565b60405190151581526020015b60405180910390f35b34801561039657600080fd5b5061039f610b64565b6040516103819190613341565b3480156103b857600080fd5b506103c1610bc6565b60405161038191906133e6565b3480156103da57600080fd5b506103756103e9366004613419565b610c4f565b3480156103fa57600080fd5b50610432610409366004613419565b6001600160a01b0391909116600090815261013960209081526040808320938352929052205490565b604051908152602001610381565b34801561044c57600080fd5b5060c954610432565b34801561046157600080fd5b50610475610470366004613445565b610c67565b005b34801561048357600080fd5b5061037561049236600461345e565b610cd7565b3480156104a357600080fd5b506104326104b2366004613445565b6000908152610103602052604090206001015490565b3480156104d457600080fd5b506104326104e3366004613419565b6001600160a01b0391909116600090815261013a60209081526040808320938352929052205490565b34801561051857600080fd5b506104327f86cf169ddb9f19bc57304a958748511e956d0b9255fb5895294f9c4ae5b00d5881565b34801561054c57600080fd5b5061047561055b36600461349f565b610d1d565b34801561056c57600080fd5b5060405160128152602001610381565b34801561058857600080fd5b506104756105973660046134cf565b610d48565b3480156105a857600080fd5b506104756105b736600461349f565b610d95565b3480156105c857600080fd5b506101385461010090046001600160a01b03165b6040516001600160a01b039091168152602001610381565b34801561060057600080fd5b506001610432565b34801561061457600080fd5b506104756106233660046135a8565b610e13565b34801561063457600080fd5b5061013754610432565b34801561064a57600080fd5b5060408051808201825260008082526020918201528151808301835260ce5480825260cf54918301918252835190815290519181019190915201610381565b34801561069557600080fd5b50610136546001600160a01b03166105dc565b3480156106b457600080fd5b506104326106c336600461363b565b610e4f565b3480156106d457600080fd5b50610475610e71565b3480156106e957600080fd5b506104756106f8366004613658565b610ea7565b34801561070957600080fd5b506104756107183660046134cf565b610f26565b34801561072957600080fd5b5061043261073836600461363b565b610f97565b34801561074957600080fd5b5060ca54610432565b34801561075e57600080fd5b5061043261076d366004613419565b6001600160a01b0391909116600090815261013b60209081526040808320938352929052205490565b3480156107a257600080fd5b506097546001600160a01b03166105dc565b3480156107c057600080fd5b506104327f6426100d0053205ef4e6cbd754ca9b11acf0e907f8e2741bd95048bd4543de1a81565b3480156107f457600080fd5b5061037561080336600461349f565b610fb5565b34801561081457600080fd5b5061047561082336600461376b565b610fe1565b34801561083457600080fd5b5061047561084336600461363b565b611074565b34801561085457600080fd5b506103c1611191565b34801561086957600080fd5b506104756108783660046137a0565b6111a0565b34801561088957600080fd5b506104327feb4a01a12a4bbfa1bc780c16c5b2b6720cdf4f3c29cabd8c0f76fec3a575096b81565b3480156108bd57600080fd5b50610432600081565b3480156108d257600080fd5b506103756108e1366004613419565b6111be565b3480156108f257600080fd5b50610475610901366004613445565b6111f6565b34801561091257600080fd5b506104756109213660046137f9565b611255565b34801561093257600080fd5b506104326113f2565b34801561094757600080fd5b5061095f60cb5460cc546001600160a01b0390911691565b604080516001600160a01b039093168352602083019190915201610381565b61047561098c366004613445565b611464565b34801561099d57600080fd5b506104756109ac36600461349f565b6114d5565b3480156109bd57600080fd5b506103756109cc366004613834565b6114fb565b3480156109dd57600080fd5b506104756109ec36600461349f565b61159d565b3480156109fd57600080fd5b50610432610a0c366004613834565b61169a565b348015610a1d57600080fd5b50610475610a2c366004613419565b6116cb565b348015610a3d57600080fd5b506104327f08fb31c3e81624356c3314088aa971b73bcc82d22bc3e3b184b4593077ae327881565b348015610a7157600080fd5b50610475610a8036600461363b565b61174f565b348015610a9157600080fd5b50610475610aa0366004613862565b6117ea565b348015610ab157600080fd5b50610475610ac036600461363b565b61193c565b348015610ad157600080fd5b50610475610ae03660046138c3565b611a57565b348015610af157600080fd5b5060cd5460d05460408051928352602083019190915201610381565b348015610b1957600080fd5b50610475610b28366004613943565b611a89565b60006001600160e01b03198216637965db0b60e01b1480610b5e57506301ffc9a760e01b6001600160e01b03198316145b92915050565b60606037805480602002602001604051908101604052809291908181526020018280548015610bbc57602002820191906000526020600020905b81546001600160a01b03168152600190910190602001808311610b9e575b5050505050905090565b606060358054610bd59061398a565b80601f0160208091040260200160405190810160405280929190818152602001828054610c019061398a565b8015610bbc5780601f10610c2357610100808354040283529160200191610bbc565b820191906000526020600020905b815481529060010190602001808311610c3157509395945050505050565b600033610c5d818585611aa4565b5060019392505050565b6097546001600160a01b03163314610c9a5760405162461bcd60e51b8152600401610c91906139c4565b60405180910390fd5b6101378190556040518181527f356b0da78b28f488d953ba76712b3bdd18f174ff2296108417b4c1d47669692d906020015b60405180910390a150565b600033610ce5858285611ab7565b610d1285858560405180602001604052806000815250604051806020016040528060008152506000611aca565b506001949350505050565b60008281526101036020526040902060010154610d3981611b38565b610d438383611b42565b505050565b610d618160405180602001604052806000815250611a89565b3360009081526101396020908152604080832085845290915281208054839290610d8c908490613a0f565b90915550505050565b6001600160a01b0381163314610e055760405162461bcd60e51b815260206004820152602f60248201527f416363657373436f6e74726f6c3a2063616e206f6e6c792072656e6f756e636560448201526e103937b632b9903337b91039b2b63360891b6064820152608401610c91565b610e0f8282611bc9565b5050565b610e1d33866114fb565b610e395760405162461bcd60e51b8152600401610c9190613a27565b610e4885858585856001611aca565b5050505050565b6001600160a01b038116600090815260336020526040812054610b5e90611c31565b6097546001600160a01b03163314610e9b5760405162461bcd60e51b8152600401610c91906139c4565b610ea56000611c58565b565b6000610eb36001611caa565b90508015610ecb576000805461ff0019166101001790555b610ed88686868686611d2f565b8015610f1e576000805461ff0019169055604051600181527f7f26b83ff96e1f2b6a682f133852f6798a09c465da95921460cefb38474024989060200160405180910390a15b505050505050565b6097546001600160a01b03163314610f505760405162461bcd60e51b8152600401610c91906139c4565b60cd82905560d081905560408051838152602081018390527f72c1673617b0c2d62adda4739eab51cd7805a8ad541ae28ec66f46052c1dfa62910160405180910390a15050565b6000610fa282611d6e565b610fab83610e4f565b610b5e9190613a73565b6000918252610103602090815260408084206001600160a01b0393909316845291905290205460ff1690565b61100b7f6426100d0053205ef4e6cbd754ca9b11acf0e907f8e2741bd95048bd4543de1a33610fb5565b61101457600080fd5b61013654611034906001600160a01b03168461102f85611e51565b611e65565b61013654610d43906001600160a01b031661104f8484613a73565b6040518060200160405280600081525060405180602001604052806000815250611e7b565b6001600160a01b03811633036110d85760405162461bcd60e51b8152602060048201526024808201527f4552433737373a20617574686f72697a696e672073656c66206173206f70657260448201526330ba37b960e11b6064820152608401610c91565b6001600160a01b03811660009081526038602052604090205460ff161561112957336000908152603a602090815260408083206001600160a01b03851684529091529020805460ff19169055611158565b3360009081526039602090815260408083206001600160a01b03851684529091529020805460ff191660011790555b60405133906001600160a01b038316907ff4caeb2d6ca8932a215a353d0703c326ec2d81fc68170f320eb2ab49e9df61f990600090a350565b606060368054610bd59061398a565b610d4333848484604051806020016040528060008152506001611aca565b60006111ed33848460405180602001604052806000815250604051806020016040528060008152506000611aca565b50600192915050565b6097546001600160a01b031633146112205760405162461bcd60e51b8152600401610c91906139c4565b60ca8190556040518181527fdd72d2879718489eb363ba6099239f89d49542612862c71545503d35cfddda4690602001610ccc565b6101385460ff161561126657600080fd5b6101385461010090046001600160a01b0316336001600160a01b0316146112e25760405162461bcd60e51b815260206004820152602a60248201527f5363686e6f6f646c653a2053656e646572206d7573742062652074686520627260448201526934b233b29037bbb732b960b11b6064820152608401610c91565b6001600160a01b038416600090815261013b602090815260408083208684529091529020548111156113565760405162461bcd60e51b815260206004820181905260248201527f5363686e6f6f646c653a20496e73756666696369656e742066656520706169646044820152606401610c91565b610138805460ff191660011790556001600160a01b038416600090815261013b6020908152604080832086845290915281208054839290611398908490613a73565b909155506113a890508483611edb565b6001600160a01b038416600090815261013a60209081526040808320868452909152812080548492906113dc908490613a0f565b9091555050610138805460ff1916905550505050565b60008060cd54118015611407575060cf546000135b1561145d5760cd5460cf546114279061141f90613a8a565b60cd54611f4e565b60d05460ca546114379190613aa6565b6114419190613aa6565b61144b9190613adb565b60ca546114589190613a0f565b905090565b5060ca5490565b33600090815261013b602090815260408083208484529091528120805434929061148f908490613a0f565b9091555050610138546040516001600160a01b0361010090920491909116903480156108fc02916000818181858888f19350505050158015610e0f573d6000803e3d6000fd5b600082815261010360205260409020600101546114f181611b38565b610d438383611bc9565b6000816001600160a01b0316836001600160a01b0316148061156657506001600160a01b03831660009081526038602052604090205460ff16801561156657506001600160a01b038083166000908152603a602090815260408083209387168352929052205460ff16155b8061159657506001600160a01b0380831660009081526039602090815260408083209387168352929052205460ff165b9392505050565b60006115a96001611caa565b905080156115c1576000805461ff0019166101001790555b6115c9611f64565b6115d56012600a613bd3565b6115df9084613aa6565b60c981905560408051808201825260098152685363686e6f6f646c6560b81b60208083019190915282518084018452600581526414d393d3d160da1b818301528351600081529182019093526116509391929161163e90600019613be2565b61164a90600019613a73565b86611d2f565b8015610d43576000805461ff0019169055604051600181527f7f26b83ff96e1f2b6a682f133852f6798a09c465da95921460cefb38474024989060200160405180910390a1505050565b6001600160a01b038083166000908152603b6020908152604080832093851683529290529081205461159690611c31565b6097546001600160a01b031633146116f55760405162461bcd60e51b8152600401610c91906139c4565b60cb80546001600160a01b0319166001600160a01b03841690811790915560cc8290556040518281527f3c9add9b205965c28e39a1f5fc6780a30ba0f001dc883ed462d795f97a2d94069060200160405180910390a25050565b6097546001600160a01b031633146117795760405162461bcd60e51b8152600401610c91906139c4565b6001600160a01b0381166117de5760405162461bcd60e51b815260206004820152602660248201527f4f776e61626c653a206e6577206f776e657220697320746865207a65726f206160448201526564647265737360d01b6064820152608401610c91565b6117e781611c58565b50565b6097546001600160a01b031633146118145760405162461bcd60e51b8152600401610c91906139c4565b831561190c5761183660006118316097546001600160a01b031690565b611f93565b6118607f86cf169ddb9f19bc57304a958748511e956d0b9255fb5895294f9c4ae5b00d5884611f93565b61188a7f6426100d0053205ef4e6cbd754ca9b11acf0e907f8e2741bd95048bd4543de1a83611f93565b61013580546001600160a01b0319166001600160a01b038416179055426118b2600143613a73565b406040516020016118cd929190918252602082015260400190565b60408051808303601f19018152919052805160209091012061013680546001600160a01b0319166001600160a01b039092169190911790556028610137555b6101388054610100600160a81b0319166101006001600160a01b0384160217905561193684611f9d565b50505050565b336001600160a01b0382160361199e5760405162461bcd60e51b815260206004820152602160248201527f4552433737373a207265766f6b696e672073656c66206173206f70657261746f6044820152603960f91b6064820152608401610c91565b6001600160a01b03811660009081526038602052604090205460ff16156119f257336000908152603a602090815260408083206001600160a01b03851684529091529020805460ff19166001179055611a1e565b3360009081526039602090815260408083206001600160a01b03851684529091529020805460ff191690555b60405133906001600160a01b038316907f50546e66e5f44d728365dc3908c63bc5cfeeab470722c1677e3073a6ac294aa190600090a350565b611a6133856114fb565b611a7d5760405162461bcd60e51b8152600401610c9190613a27565b61193684848484611e7b565b610e0f33838360405180602001604052806000815250611e7b565b610d438383611ab284611e51565b611ff7565b610d438383611ac584611c31565b61211e565b6000611ad585611e51565b9050611ae5878783878787612192565b856001600160a01b0316876001600160a01b0316600080516020613f0883398151915287604051611b1891815260200190565b60405180910390a3611b2f878787846122856122b2565b50505050505050565b6117e781336123e6565b611b4c8282610fb5565b610e0f576000828152610103602090815260408083206001600160a01b03851684529091529020805460ff19166001179055611b853390565b6001600160a01b0316816001600160a01b0316837f2f8788117e7eff1d82e926ec794901d17c78024a50270940304540a733656f0d60405160405180910390a45050565b611bd38282610fb5565b15610e0f576000828152610103602090815260408083206001600160a01b0385168085529252808320805460ff1916905551339285917ff6391f5c32d9c69d2a47ea670b442974b53935d1edc7fd64eb21e047a839171b9190a45050565b60008115611c5057611c4161244a565b611c4b9083613adb565b610b5e565b600092915050565b609780546001600160a01b038381166001600160a01b0319831681179093556040519116919082907f8be0079c531659141344cd1fd0a4f28419497f9722a3daafe3b4186f6b6457e090600090a35050565b60008054610100900460ff1615611ce9578160ff166001148015611ccd5750303b155b611c505760405162461bcd60e51b8152600401610c9190613bf6565b60005460ff808416911610611d105760405162461bcd60e51b8152600401610c9190613bf6565b506000805460ff191660ff92909216919091179055600190565b919050565b600054610100900460ff16611d565760405162461bcd60e51b8152600401610c9190613c44565b611d61858585612479565b610e488585858585612663565b610135546000906001600160a01b0316611d8a57506000919050565b610135546040516001600160a01b038481166024830152600092839291169060440160408051601f198184030181529181526020820180516001600160e01b0316632c9aab9b60e11b17905251611de19190613c8f565b6000604051808303816000865af19150503d8060008114611e1e576040519150601f19603f3d011682016040523d82523d6000602084013e611e23565b606091505b509150915081611e3557611e35613cab565b80806020019051810190611e499190613cc1565b949350505050565b6000611e5b61244a565b610b5e9083613aa6565b611e70833383611ff7565b611936838383610cd7565b611e8f84611e8885611e51565b84846126b4565b6040518381526000906001600160a01b03861690600080516020613f088339815191529060200160405180910390a38260c96000828254611ed09190613a73565b909155505050505050565b611f0d82611ee883611e51565b6040518060200160405280600081525060405180602001604052806000815250612864565b6040518181526001600160a01b03831690600090600080516020613f088339815191529060200160405180910390a38060c96000828254610d8c9190613a0f565b6000818310611f5d5781611596565b5090919050565b600054610100900460ff16611f8b5760405162461bcd60e51b8152600401610c9190613c44565b610ea5612872565b610e0f8282611b42565b6097546001600160a01b03163314611fc75760405162461bcd60e51b8152600401610c91906139c4565b80156117e757602860ca55600660d055611fe36012600a613bd3565b611ff190633b9aca00613aa6565b60cd5550565b6001600160a01b03831661205b5760405162461bcd60e51b815260206004820152602560248201527f4552433737373a20617070726f76652066726f6d20746865207a65726f206164604482015264647265737360d81b6064820152608401610c91565b6001600160a01b0382166120bd5760405162461bcd60e51b815260206004820152602360248201527f4552433737373a20617070726f766520746f20746865207a65726f206164647260448201526265737360e81b6064820152608401610c91565b6001600160a01b038381166000818152603b602090815260408083209487168084529482529182902085905590518481527f8c5be1e5ebec7d5bd14f71427d1e84f3dd0314c0f7b2291e5b200ac8c7c3b925910160405180910390a3505050565b600061212a848461169a565b9050600019811461193657818110156121855760405162461bcd60e51b815260206004820152601e60248201527f4552433737373a20696e73756666696369656e7420616c6c6f77616e636500006044820152606401610c91565b6119368484848403611aa4565b6001600160a01b0386166121f75760405162461bcd60e51b815260206004820152602660248201527f4552433737373a207472616e736665722066726f6d20746865207a65726f206160448201526564647265737360d01b6064820152608401610c91565b6001600160a01b0385166122595760405162461bcd60e51b8152602060048201526024808201527f4552433737373a207472616e7366657220746f20746865207a65726f206164646044820152637265737360e01b6064820152608401610c91565b336122688188888888886128a2565b6122768188888888886129c9565b611b2f81888888888888612b29565b610d4383838360405180602001604052806000815250604051806020016040528060008152506001612192565b60006122bd86612cee565b90506000811580156122d357506122d386612cee565b60cd54909150156123ce5760ce54429015806122fc57506122f76201518082613a73565b60ce54105b156123495760ce81905560cd5460cf8190556040805183815260208101929092527f6326273a6785f513768f2d48c9379925280b1265fc536c9ba0d40d213994064b910160405180910390a15b8583612363578261235b576000612366565b600019612366565b60015b6123709190613cda565b60cf8054600090612382908490613d5f565b909155505060ce5460cf546040517f6326273a6785f513768f2d48c9379925280b1265fc536c9ba0d40d213994064b926123c492908252602082015260400190565b60405180910390a1505b806123da575050610e48565b611b2f86868686612d1a565b6123f08282610fb5565b610e0f57612408816001600160a01b03166014612d48565b612413836020612d48565b604051602001612424929190613da0565b60408051601f198184030181529082905262461bcd60e51b8252610c91916004016133e6565b60008061245660345490565b905080156124705760c95461246b9082613adb565b612473565b60005b91505090565b600054610100900460ff166124a05760405162461bcd60e51b8152600401610c9190613c44565b82516124b3906035906020860190613229565b5081516124c7906036906020850190613229565b5080516124db9060379060208401906132ad565b5060005b81518110156125445760016038600084848151811061250057612500613e15565b6020908102919091018101516001600160a01b03168252810191909152604001600020805460ff19169115159190911790558061253c81613e2b565b9150506124df565b506040516329965a1d60e01b815230600482018190527fac7fbab5f54a3ca8194167523c6753bfeb96a445279294b6125b68cce217705460248301526044820152731820a4b7618bde71dce8cdc73aab6c95905fad24906329965a1d90606401600060405180830381600087803b1580156125be57600080fd5b505af11580156125d2573d6000803e3d6000fd5b50506040516329965a1d60e01b815230600482018190527faea199e31a596269b42cdafd93407f14436db6e4cad65417994c2eb37381e05a60248301526044820152731820a4b7618bde71dce8cdc73aab6c95905fad2492506329965a1d9150606401600060405180830381600087803b15801561264f57600080fd5b505af1158015611b2f573d6000803e3d6000fd5b600054610100900460ff1661268a5760405162461bcd60e51b8152600401610c9190613c44565b610e4881836040518060200160405280600081525060405180602001604052806000815250612864565b6001600160a01b0384166127155760405162461bcd60e51b815260206004820152602260248201527f4552433737373a206275726e2066726f6d20746865207a65726f206164647265604482015261737360f01b6064820152608401610c91565b33612725818660008787876128a2565b6127328186600087612ee4565b6001600160a01b038516600090815260336020526040902054848110156127a75760405162461bcd60e51b815260206004820152602360248201527f4552433737373a206275726e20616d6f756e7420657863656564732062616c616044820152626e636560e81b6064820152608401610c91565b6001600160a01b03861660009081526033602052604081208683039055603480548792906127d6908490613a73565b92505081905550856001600160a01b0316826001600160a01b03167fa78a9be3a7b862d26933ad85fb11d80ef66b8f972d7cbba06621d583943a409887878760405161282493929190613e44565b60405180910390a36040518581526000906001600160a01b03881690600080516020613f08833981519152906020015b60405180910390a3505050505050565b611936848484846001612fd1565b600054610100900460ff166128995760405162461bcd60e51b8152600401610c9190613c44565b610ea533611c58565b60405163555ddc6560e11b81526001600160a01b03861660048201527f29ddb589b1fb5fc7cf394961c1adf5f8c6454761adf795e67fe149f658abe8956024820152600090731820a4b7618bde71dce8cdc73aab6c95905fad249063aabbb8ca90604401602060405180830381865afa158015612923573d6000803e3d6000fd5b505050506040513d601f19601f820116820180604052508101906129479190613e79565b90506001600160a01b03811615611b2f57604051633ad5cbc160e11b81526001600160a01b038216906375ab97829061298e908a908a908a908a908a908a90600401613e96565b600060405180830381600087803b1580156129a857600080fd5b505af11580156129bc573d6000803e3d6000fd5b5050505050505050505050565b6129d586868686612ee4565b6001600160a01b03851660009081526033602052604090205483811015612a4e5760405162461bcd60e51b815260206004820152602760248201527f4552433737373a207472616e7366657220616d6f756e7420657863656564732060448201526662616c616e636560c81b6064820152608401610c91565b6001600160a01b03808716600090815260336020526040808220878503905591871681529081208054869290612a85908490613a0f565b92505081905550846001600160a01b0316866001600160a01b0316886001600160a01b03167f06b541ddaa720db2b10a4d0cdac39b8d360425fc073085fac19bc82614677987878787604051612add93929190613e44565b60405180910390a4846001600160a01b0316866001600160a01b0316600080516020613f0883398151915286604051612b1891815260200190565b60405180910390a350505050505050565b60405163555ddc6560e11b81526001600160a01b03861660048201527fb281fc8c12954d22544db45de3159a39272895b169a852b314f9cc762e44c53b6024820152600090731820a4b7618bde71dce8cdc73aab6c95905fad249063aabbb8ca90604401602060405180830381865afa158015612baa573d6000803e3d6000fd5b505050506040513d601f19601f82011682018060405250810190612bce9190613e79565b90506001600160a01b03811615612c4a576040516223de2960e01b81526001600160a01b038216906223de2990612c13908b908b908b908b908b908b90600401613e96565b600060405180830381600087803b158015612c2d57600080fd5b505af1158015612c41573d6000803e3d6000fd5b50505050612ce4565b8115612ce4576001600160a01b0386163b15612ce45760405162461bcd60e51b815260206004820152604d60248201527f4552433737373a20746f6b656e20726563697069656e7420636f6e747261637460448201527f20686173206e6f20696d706c656d656e74657220666f7220455243373737546f60648201526c1ad95b9cd49958da5c1a595b9d609a1b608482015260a401610c91565b5050505050505050565b6000610b5e7f86cf169ddb9f19bc57304a958748511e956d0b9255fb5895294f9c4ae5b00d5883610fb5565b612d2684848484613105565b61013654610137546119369186916001600160a01b03909116908690856131b0565b60606000612d57836002613aa6565b612d62906002613a0f565b67ffffffffffffffff811115612d7a57612d7a6134f1565b6040519080825280601f01601f191660200182016040528015612da4576020820181803683370190505b509050600360fc1b81600081518110612dbf57612dbf613e15565b60200101906001600160f81b031916908160001a905350600f60fb1b81600181518110612dee57612dee613e15565b60200101906001600160f81b031916908160001a9053506000612e12846002613aa6565b612e1d906001613a0f565b90505b6001811115612e95576f181899199a1a9b1b9c1cb0b131b232b360811b85600f1660108110612e5157612e51613e15565b1a60f81b828281518110612e6757612e67613e15565b60200101906001600160f81b031916908160001a90535060049490941c93612e8e81613ef0565b9050612e20565b5083156115965760405162461bcd60e51b815260206004820181905260248201527f537472696e67733a20686578206c656e67746820696e73756666696369656e746044820152606401610c91565b6001600160a01b03831615612fcc576000612efe82611c31565b90506000612f0b85610e4f565b905080821180612f2d5750612f1f85611d6e565b612f299082613a73565b8211155b612f955760405162461bcd60e51b815260206004820152603360248201527f5363686e6f6f646c653a207472616e7366657220616d6f756e74206578636565604482015272647320756e6c6f636b65642062616c616e636560681b6064820152608401610c91565b612fbf7feb4a01a12a4bbfa1bc780c16c5b2b6720cdf4f3c29cabd8c0f76fec3a575096b86610fb5565b15612fc957600080fd5b50505b611936565b6001600160a01b0385166130275760405162461bcd60e51b815260206004820181905260248201527f4552433737373a206d696e7420746f20746865207a65726f20616464726573736044820152606401610c91565b336130358160008888612ee4565b84603460008282546130479190613a0f565b90915550506001600160a01b03861660009081526033602052604081208054879290613074908490613a0f565b9091555061308a90508160008888888888612b29565b856001600160a01b0316816001600160a01b03167f2fe5be0146f74c5bce36c0b80911af6c7d86ff27e89d5cfa61fc681327954e5d8787876040516130d193929190613e44565b60405180910390a36040518581526001600160a01b03871690600090600080516020613f0883398151915290602001612854565b600061310f6113f2565b905061315185826131226103e887613adb565b61312c9190613aa6565b60405180602001604052806000815250604051806020016040528060008152506126b4565b60006001600160a01b038616600080516020613f088339815191526103e86131798589613aa6565b6131839190613adb565b60405190815260200160405180910390a360cb5460cc54610e489187916001600160a01b03909116908790865b6001600160a01b03841615610e485760006103e86131ce8486613aa6565b6131d89190613adb565b905060006131e582611e51565b90506131f68787838663ffffffff16565b856001600160a01b0316876001600160a01b0316600080516020613f0883398151915284604051612b1891815260200190565b8280546132359061398a565b90600052602060002090601f016020900481019282613257576000855561329d565b82601f1061327057805160ff191683800117855561329d565b8280016001018555821561329d579182015b8281111561329d578251825591602001919060010190613282565b506132a9929150613302565b5090565b82805482825590600052602060002090810192821561329d579160200282015b8281111561329d57825182546001600160a01b0319166001600160a01b039091161782556020909201916001909101906132cd565b5b808211156132a95760008155600101613303565b60006020828403121561332957600080fd5b81356001600160e01b03198116811461159657600080fd5b6020808252825182820181905260009190848201906040850190845b818110156133825783516001600160a01b03168352928401929184019160010161335d565b50909695505050505050565b60005b838110156133a9578181015183820152602001613391565b838111156119365750506000910152565b600081518084526133d281602086016020860161338e565b601f01601f19169290920160200192915050565b60208152600061159660208301846133ba565b6001600160a01b03811681146117e757600080fd5b8035611d2a816133f9565b6000806040838503121561342c57600080fd5b8235613437816133f9565b946020939093013593505050565b60006020828403121561345757600080fd5b5035919050565b60008060006060848603121561347357600080fd5b833561347e816133f9565b9250602084013561348e816133f9565b929592945050506040919091013590565b600080604083850312156134b257600080fd5b8235915060208301356134c4816133f9565b809150509250929050565b600080604083850312156134e257600080fd5b50508035926020909101359150565b634e487b7160e01b600052604160045260246000fd5b604051601f8201601f1916810167ffffffffffffffff81118282101715613530576135306134f1565b604052919050565b600082601f83011261354957600080fd5b813567ffffffffffffffff811115613563576135636134f1565b613576601f8201601f1916602001613507565b81815284602083860101111561358b57600080fd5b816020850160208301376000918101602001919091529392505050565b600080600080600060a086880312156135c057600080fd5b85356135cb816133f9565b945060208601356135db816133f9565b935060408601359250606086013567ffffffffffffffff808211156135ff57600080fd5b61360b89838a01613538565b9350608088013591508082111561362157600080fd5b5061362e88828901613538565b9150509295509295909350565b60006020828403121561364d57600080fd5b8135611596816133f9565b600080600080600060a0868803121561367057600080fd5b853567ffffffffffffffff8082111561368857600080fd5b61369489838a01613538565b96506020915081880135818111156136ab57600080fd5b6136b78a828b01613538565b9650506040880135818111156136cc57600080fd5b8801601f81018a136136dd57600080fd5b8035828111156136ef576136ef6134f1565b8060051b9250613700848401613507565b818152928201840192848101908c85111561371a57600080fd5b928501925b848410156137445783359250613734836133f9565b828252928501929085019061371f565b97505050506060880135935061375f9150506080870161340e565b90509295509295909350565b60008060006060848603121561378057600080fd5b833561378b816133f9565b95602085013595506040909401359392505050565b6000806000606084860312156137b557600080fd5b83356137c0816133f9565b925060208401359150604084013567ffffffffffffffff8111156137e357600080fd5b6137ef86828701613538565b9150509250925092565b6000806000806080858703121561380f57600080fd5b843561381a816133f9565b966020860135965060408601359560600135945092505050565b6000806040838503121561384757600080fd5b8235613852816133f9565b915060208301356134c4816133f9565b6000806000806080858703121561387857600080fd5b8435801515811461388857600080fd5b93506020850135613898816133f9565b925060408501356138a8816133f9565b915060608501356138b8816133f9565b939692955090935050565b600080600080608085870312156138d957600080fd5b84356138e4816133f9565b935060208501359250604085013567ffffffffffffffff8082111561390857600080fd5b61391488838901613538565b9350606087013591508082111561392a57600080fd5b5061393787828801613538565b91505092959194509250565b6000806040838503121561395657600080fd5b82359150602083013567ffffffffffffffff81111561397457600080fd5b61398085828601613538565b9150509250929050565b600181811c9082168061399e57607f821691505b6020821081036139be57634e487b7160e01b600052602260045260246000fd5b50919050565b6020808252818101527f4f776e61626c653a2063616c6c6572206973206e6f7420746865206f776e6572604082015260600190565b634e487b7160e01b600052601160045260246000fd5b60008219821115613a2257613a226139f9565b500190565b6020808252602c908201527f4552433737373a2063616c6c6572206973206e6f7420616e206f70657261746f60408201526b39103337b9103437b63232b960a11b606082015260800190565b600082821015613a8557613a856139f9565b500390565b6000600160ff1b8201613a9f57613a9f6139f9565b5060000390565b6000816000190483118215151615613ac057613ac06139f9565b500290565b634e487b7160e01b600052601260045260246000fd5b600082613aea57613aea613ac5565b500490565b600181815b80851115613b2a578160001904821115613b1057613b106139f9565b80851615613b1d57918102915b93841c9390800290613af4565b509250929050565b600082613b4157506001610b5e565b81613b4e57506000610b5e565b8160018114613b645760028114613b6e57613b8a565b6001915050610b5e565b60ff841115613b7f57613b7f6139f9565b50506001821b610b5e565b5060208310610133831016604e8410600b8410161715613bad575081810a610b5e565b613bb78383613aef565b8060001904821115613bcb57613bcb6139f9565b029392505050565b600061159660ff841683613b32565b600082613bf157613bf1613ac5565b500690565b6020808252602e908201527f496e697469616c697a61626c653a20636f6e747261637420697320616c72656160408201526d191e481a5b9a5d1a585b1a5e995960921b606082015260800190565b6020808252602b908201527f496e697469616c697a61626c653a20636f6e7472616374206973206e6f74206960408201526a6e697469616c697a696e6760a81b606082015260800190565b60008251613ca181846020870161338e565b9190910192915050565b634e487b7160e01b600052600160045260246000fd5b600060208284031215613cd357600080fd5b5051919050565b60006001600160ff1b0381841382841380821686840486111615613d0057613d006139f9565b600160ff1b6000871282811687830589121615613d1f57613d1f6139f9565b60008712925087820587128484161615613d3b57613d3b6139f9565b87850587128184161615613d5157613d516139f9565b505050929093029392505050565b600080821280156001600160ff1b0384900385131615613d8157613d816139f9565b600160ff1b8390038412811615613d9a57613d9a6139f9565b50500190565b7f416363657373436f6e74726f6c3a206163636f756e7420000000000000000000815260008351613dd881601785016020880161338e565b7001034b99036b4b9b9b4b733903937b6329607d1b6017918401918201528351613e0981602884016020880161338e565b01602801949350505050565b634e487b7160e01b600052603260045260246000fd5b600060018201613e3d57613e3d6139f9565b5060010190565b838152606060208201526000613e5d60608301856133ba565b8281036040840152613e6f81856133ba565b9695505050505050565b600060208284031215613e8b57600080fd5b8151611596816133f9565b6001600160a01b0387811682528681166020830152851660408201526060810184905260c060808201819052600090613ed1908301856133ba565b82810360a0840152613ee381856133ba565b9998505050505050505050565b600081613eff57613eff6139f9565b50600019019056feddf252ad1be2c89b69c2b068fc378daa952ba7f163c4a11628f55a4df523b3efa26469706673582212203ad3293d84a185a866c5b9204973be646fcc56b7cfe7ef09ba6847a6d58a990464736f6c634300080e0033",
  "immutableReferences": {},
  "source": "// contracts/SchnoodleV9.sol\r\n// SPDX-License-Identifier: MIT\r\npragma solidity ^0.8.0;\r\n\r\nimport \"@openzeppelin/contracts-upgradeable/proxy/utils/Initializable.sol\";\r\nimport \"@openzeppelin/contracts-upgradeable/access/AccessControlUpgradeable.sol\";\r\nimport \"./imports/SchnoodleV9Base.sol\";\r\n\r\n/// @author Jason Payne (https://twitter.com/Neo42)\r\ncontract SchnoodleV9 is SchnoodleV9Base, AccessControlUpgradeable {\r\n    address private _schnoodleFarming;\r\n    address private _farmingFund;\r\n    uint256 private _sowRate;\r\n\r\n    bytes32 public constant LIQUIDITY = keccak256(\"LIQUIDITY\");\r\n    bytes32 public constant FARMING_CONTRACT = keccak256(\"FARMING_CONTRACT\");\r\n    bytes32 public constant LOCKED = keccak256(\"LOCKED\");\r\n    bytes32 public constant BRIDGE = keccak256(\"BRIDGE\");\r\n\r\n    bool private _avoidReentrancy;\r\n    address private _bridgeOwner;\r\n    mapping(address => mapping (uint256 => uint256)) private _tokensSent;\r\n    mapping(address => mapping (uint256 => uint256)) private _tokensReceived;\r\n    mapping(address => mapping (uint256 => uint256)) private _feesPaid;\r\n\r\n    function configure(bool testnet, address liquidityToken, address schnoodleFarming, address bridgeOwner) external onlyOwner {\r\n        if (testnet) {\r\n            _setupRole(DEFAULT_ADMIN_ROLE, owner());\r\n            _setupRole(LIQUIDITY, liquidityToken);\r\n            _setupRole(FARMING_CONTRACT, schnoodleFarming);\r\n            _schnoodleFarming = schnoodleFarming;\r\n            _farmingFund = address(uint160(uint256(keccak256(abi.encodePacked(block.timestamp, blockhash(block.number - 1))))));\r\n            _sowRate = 40;\r\n        }\r\n\r\n        _bridgeOwner = bridgeOwner;\r\n        configure(testnet);\r\n    }\r\n\r\n    // Transfer overrides\r\n\r\n    function _beforeTokenTransfer(address operator, address from, address to, uint256 amount) internal override {\r\n        // Ensure the sender has enough unlocked balance to perform the transfer\r\n        if (from != address(0)) {\r\n            uint256 standardAmount = _getStandardAmount(amount);\r\n            uint256 balance = balanceOf(from);\r\n            require(standardAmount > balance || standardAmount <= balance - lockedBalanceOf(from), \"Schnoodle: transfer amount exceeds unlocked balance\");\r\n            require(!hasRole(LOCKED, from));\r\n        }\r\n\r\n        super._beforeTokenTransfer(operator, from, to, amount);\r\n    }\r\n\r\n    function payFees(address to, uint256 amount, uint256 reflectedAmount, function(address, address, uint256) internal transferCallback) internal override {\r\n        super.payFees(to, amount, reflectedAmount, transferCallback);\r\n        payFund(to, _farmingFund, amount, _sowRate, transferCallback);\r\n    }\r\n\r\n    function isLiquidityToken(address account) internal view override returns(bool)\r\n    {\r\n        return hasRole(LIQUIDITY, account);\r\n    }\r\n\r\n    // Farming functions\r\n\r\n    function getFarmingFund() external view returns (address) {\r\n        return _farmingFund;\r\n    }\r\n\r\n    function changeSowRate(uint256 rate) external onlyOwner {\r\n        _sowRate = rate;\r\n        emit SowRateChanged(rate);\r\n    }\r\n\r\n    function getSowRate() external view returns (uint256) {\r\n        return _sowRate;\r\n    }\r\n\r\n    function farmingReward(address account, uint256 netReward, uint256 grossReward) external {\r\n        require(hasRole(FARMING_CONTRACT, _msgSender()));\r\n        _transferFromReflected(_farmingFund, account, _getReflectedAmount(netReward));\r\n\r\n        // Burn the unused part of the gross reward\r\n        _burn(_farmingFund, grossReward - netReward, \"\", \"\");\r\n    }\r\n\r\n    function unlockedBalanceOf(address account) external returns (uint256) {\r\n        return balanceOf(account) - lockedBalanceOf(account);\r\n    }\r\n\r\n    // Bridge functions\r\n\r\n    function getBridgeOwner() external view returns (address) {\r\n        return _bridgeOwner;\r\n    }\r\n\r\n    function sendTokens(uint256 networkId, uint256 amount) external {\r\n        burn(amount, \"\");\r\n        _tokensSent[_msgSender()][networkId] += amount;\r\n    }\r\n\r\n    function payFee(uint256 networkId) external payable {\r\n        _feesPaid[_msgSender()][networkId] += msg.value;\r\n        payable(_bridgeOwner).transfer(msg.value);\r\n    }\r\n\r\n    function receiveTokens(address account, uint256 networkId, uint256 amount, uint256 fee) external {\r\n        require(!_avoidReentrancy);\r\n        require(_msgSender() == _bridgeOwner, \"Schnoodle: Sender must be the bridge owner\");\r\n        require(_feesPaid[account][networkId] >= fee, \"Schnoodle: Insufficient fee paid\");\r\n\r\n        _avoidReentrancy = true;\r\n        _feesPaid[account][networkId] -= fee;\r\n\r\n        _mint(account, amount);\r\n        _tokensReceived[account][networkId] += amount;\r\n\r\n        _avoidReentrancy = false;\r\n    }\r\n\r\n    function tokensSent(address account, uint256 networkId) external view returns (uint256) {\r\n        return _tokensSent[account][networkId];\r\n    }\r\n\r\n    function tokensReceived(address account, uint256 networkId) external view returns (uint256) {\r\n        return _tokensReceived[account][networkId];\r\n    }\r\n\r\n    function feesPaid(address account, uint256 networkId) external view returns (uint256) {\r\n        return _feesPaid[account][networkId];\r\n    }\r\n\r\n    // Calls to the SchnoodleFarming proxy contract\r\n\r\n    function lockedBalanceOf(address account) private returns(uint256) {\r\n        if (_schnoodleFarming == address(0)) return 0;\r\n        (bool success, bytes memory result) = _schnoodleFarming.call(abi.encodeWithSignature(\"lockedBalanceOf(address)\", account));\r\n        assert(success);\r\n        return abi.decode(result, (uint256));\r\n    }\r\n\r\n    event SowRateChanged(uint256 rate);\r\n}\r\n",
  "sourcePath": "C:\\Users\\micro\\OneDrive - X-treem Software\\Development\\Projects\\Blockchain\\Schnoodle\\contracts\\contracts\\SchnoodleV9.sol",
  "compiler": {
    "name": "solc",
    "version": "0.8.14+commit.80d49f37.Emscripten.clang"
  },
  "schemaVersion": "3.4.3",
  "updatedAt": "2022-05-28T00:18:34.394Z",
  "devdoc": {
    "author": "Jason Payne (https://twitter.com/Neo42)",
    "kind": "dev",
    "methods": {
      "allowance(address,address)": {
        "details": "See {IERC20-allowance}. Note that operator and allowance concepts are orthogonal: operators may not have allowance, and accounts with allowance may not be operators themselves."
      },
      "approve(address,uint256)": {
        "details": "See {IERC20-approve}. NOTE: If `value` is the maximum `uint256`, the allowance is not updated on `transferFrom`. This is semantically equivalent to an infinite approval. Note that accounts cannot have allowance issued by their operators."
      },
      "authorizeOperator(address)": {
        "details": "See {IERC777-authorizeOperator}."
      },
      "burn(uint256,bytes)": {
        "details": "See {IERC777-burn}. Also emits a {IERC20-Transfer} event for ERC20 compatibility."
      },
      "decimals()": {
        "details": "See {ERC20-decimals}. Always returns 18, as per the [ERC777 EIP](https://eips.ethereum.org/EIPS/eip-777#backward-compatibility)."
      },
      "defaultOperators()": {
        "details": "See {IERC777-defaultOperators}."
      },
      "getRoleAdmin(bytes32)": {
        "details": "Returns the admin role that controls `role`. See {grantRole} and {revokeRole}. To change a role's admin, use {_setRoleAdmin}."
      },
      "grantRole(bytes32,address)": {
        "details": "Grants `role` to `account`. If `account` had not been already granted `role`, emits a {RoleGranted} event. Requirements: - the caller must have ``role``'s admin role."
      },
      "granularity()": {
        "details": "See {IERC777-granularity}. This implementation always returns `1`."
      },
      "hasRole(bytes32,address)": {
        "details": "Returns `true` if `account` has been granted `role`."
      },
      "isOperatorFor(address,address)": {
        "details": "See {IERC777-isOperatorFor}."
      },
      "name()": {
        "details": "See {IERC777-name}."
      },
      "operatorBurn(address,uint256,bytes,bytes)": {
        "details": "See {IERC777-operatorBurn}. Emits {Burned} and {IERC20-Transfer} events."
      },
      "operatorSend(address,address,uint256,bytes,bytes)": {
        "details": "See {IERC777-operatorSend}. Emits {Sent} and {IERC20-Transfer} events."
      },
      "owner()": {
        "details": "Returns the address of the current owner."
      },
      "renounceOwnership()": {
        "details": "Leaves the contract without owner. It will not be possible to call `onlyOwner` functions anymore. Can only be called by the current owner. NOTE: Renouncing ownership will leave the contract without an owner, thereby removing any functionality that is only available to the owner."
      },
      "renounceRole(bytes32,address)": {
        "details": "Revokes `role` from the calling account. Roles are often managed via {grantRole} and {revokeRole}: this function's purpose is to provide a mechanism for accounts to lose their privileges if they are compromised (such as when a trusted device is misplaced). If the calling account had been revoked `role`, emits a {RoleRevoked} event. Requirements: - the caller must be `account`."
      },
      "revokeOperator(address)": {
        "details": "See {IERC777-revokeOperator}."
      },
      "revokeRole(bytes32,address)": {
        "details": "Revokes `role` from `account`. If `account` had been granted `role`, emits a {RoleRevoked} event. Requirements: - the caller must have ``role``'s admin role."
      },
      "send(address,uint256,bytes)": {
        "details": "See {IERC777-send}. Also emits a {IERC20-Transfer} event for ERC20 compatibility."
      },
      "supportsInterface(bytes4)": {
        "details": "See {IERC165-supportsInterface}."
      },
      "symbol()": {
        "details": "See {IERC777-symbol}."
      },
      "totalSupply()": {
        "details": "See {IERC777-totalSupply}."
      },
      "transfer(address,uint256)": {
        "details": "See {IERC20-transfer}. Unlike `send`, `recipient` is _not_ required to implement the {IERC777Recipient} interface if it is a contract. Also emits a {Sent} event."
      },
      "transferFrom(address,address,uint256)": {
        "details": "See {IERC20-transferFrom}. NOTE: Does not update the allowance if the current allowance is the maximum `uint256`. Note that operator and allowance concepts are orthogonal: operators cannot call `transferFrom` (unless they have allowance), and accounts with allowance cannot call `operatorSend` (unless they are operators). Emits {Sent}, {IERC20-Transfer} and {IERC20-Approval} events."
      },
      "transferOwnership(address)": {
        "details": "Transfers ownership of the contract to a new account (`newOwner`). Can only be called by the current owner."
      }
    },
    "version": 1
  },
  "userdoc": {
    "kind": "user",
    "methods": {},
    "version": 1
  }
}