{
  "contractName": "SchnoodleV9",
  "abi": [
    {
      "anonymous": false,
      "inputs": [
        {
          "indexed": true,
          "internalType": "address",
          "name": "owner",
          "type": "address"
        },
        {
          "indexed": true,
          "internalType": "address",
          "name": "spender",
          "type": "address"
        },
        {
          "indexed": false,
          "internalType": "uint256",
          "name": "value",
          "type": "uint256"
        }
      ],
      "name": "Approval",
      "type": "event"
    },
    {
      "anonymous": false,
      "inputs": [
        {
          "indexed": true,
          "internalType": "address",
          "name": "operator",
          "type": "address"
        },
        {
          "indexed": true,
          "internalType": "address",
          "name": "tokenHolder",
          "type": "address"
        }
      ],
      "name": "AuthorizedOperator",
      "type": "event"
    },
    {
      "anonymous": false,
      "inputs": [
        {
          "indexed": true,
          "internalType": "address",
          "name": "operator",
          "type": "address"
        },
        {
          "indexed": true,
          "internalType": "address",
          "name": "from",
          "type": "address"
        },
        {
          "indexed": false,
          "internalType": "uint256",
          "name": "amount",
          "type": "uint256"
        },
        {
          "indexed": false,
          "internalType": "bytes",
          "name": "data",
          "type": "bytes"
        },
        {
          "indexed": false,
          "internalType": "bytes",
          "name": "operatorData",
          "type": "bytes"
        }
      ],
      "name": "Burned",
      "type": "event"
    },
    {
      "anonymous": false,
      "inputs": [
        {
          "indexed": true,
          "internalType": "address",
          "name": "eleemosynaryAccount",
          "type": "address"
        },
        {
          "indexed": false,
          "internalType": "uint256",
          "name": "donationRate",
          "type": "uint256"
        }
      ],
      "name": "EleemosynaryDetailsChanged",
      "type": "event"
    },
    {
      "anonymous": false,
      "inputs": [
        {
          "indexed": false,
          "internalType": "uint256",
          "name": "rate",
          "type": "uint256"
        }
      ],
      "name": "FeeRateChanged",
      "type": "event"
    },
    {
      "anonymous": false,
      "inputs": [
        {
          "indexed": false,
          "internalType": "uint8",
          "name": "version",
          "type": "uint8"
        }
      ],
      "name": "Initialized",
      "type": "event"
    },
    {
      "anonymous": false,
      "inputs": [
        {
          "indexed": true,
          "internalType": "address",
          "name": "operator",
          "type": "address"
        },
        {
          "indexed": true,
          "internalType": "address",
          "name": "to",
          "type": "address"
        },
        {
          "indexed": false,
          "internalType": "uint256",
          "name": "amount",
          "type": "uint256"
        },
        {
          "indexed": false,
          "internalType": "bytes",
          "name": "data",
          "type": "bytes"
        },
        {
          "indexed": false,
          "internalType": "bytes",
          "name": "operatorData",
          "type": "bytes"
        }
      ],
      "name": "Minted",
      "type": "event"
    },
    {
      "anonymous": false,
      "inputs": [
        {
          "indexed": true,
          "internalType": "address",
          "name": "previousOwner",
          "type": "address"
        },
        {
          "indexed": true,
          "internalType": "address",
          "name": "newOwner",
          "type": "address"
        }
      ],
      "name": "OwnershipTransferred",
      "type": "event"
    },
    {
      "anonymous": false,
      "inputs": [
        {
          "indexed": true,
          "internalType": "address",
          "name": "operator",
          "type": "address"
        },
        {
          "indexed": true,
          "internalType": "address",
          "name": "tokenHolder",
          "type": "address"
        }
      ],
      "name": "RevokedOperator",
      "type": "event"
    },
    {
      "anonymous": false,
      "inputs": [
        {
          "indexed": true,
          "internalType": "bytes32",
          "name": "role",
          "type": "bytes32"
        },
        {
          "indexed": true,
          "internalType": "bytes32",
          "name": "previousAdminRole",
          "type": "bytes32"
        },
        {
          "indexed": true,
          "internalType": "bytes32",
          "name": "newAdminRole",
          "type": "bytes32"
        }
      ],
      "name": "RoleAdminChanged",
      "type": "event"
    },
    {
      "anonymous": false,
      "inputs": [
        {
          "indexed": true,
          "internalType": "bytes32",
          "name": "role",
          "type": "bytes32"
        },
        {
          "indexed": true,
          "internalType": "address",
          "name": "account",
          "type": "address"
        },
        {
          "indexed": true,
          "internalType": "address",
          "name": "sender",
          "type": "address"
        }
      ],
      "name": "RoleGranted",
      "type": "event"
    },
    {
      "anonymous": false,
      "inputs": [
        {
          "indexed": true,
          "internalType": "bytes32",
          "name": "role",
          "type": "bytes32"
        },
        {
          "indexed": true,
          "internalType": "address",
          "name": "account",
          "type": "address"
        },
        {
          "indexed": true,
          "internalType": "address",
          "name": "sender",
          "type": "address"
        }
      ],
      "name": "RoleRevoked",
      "type": "event"
    },
    {
      "anonymous": false,
      "inputs": [
        {
          "indexed": false,
          "internalType": "uint256",
          "name": "blockTimestamp",
          "type": "uint256"
        },
        {
          "indexed": false,
          "internalType": "int256",
          "name": "amount",
          "type": "int256"
        }
      ],
      "name": "SellQuotaChanged",
      "type": "event"
    },
    {
      "anonymous": false,
      "inputs": [
        {
          "indexed": false,
          "internalType": "uint256",
          "name": "sellThreshold",
          "type": "uint256"
        },
        {
          "indexed": false,
          "internalType": "uint256",
          "name": "rateEscalator",
          "type": "uint256"
        }
      ],
      "name": "SellThresholdDetailsChanged",
      "type": "event"
    },
    {
      "anonymous": false,
      "inputs": [
        {
          "indexed": true,
          "internalType": "address",
          "name": "operator",
          "type": "address"
        },
        {
          "indexed": true,
          "internalType": "address",
          "name": "from",
          "type": "address"
        },
        {
          "indexed": true,
          "internalType": "address",
          "name": "to",
          "type": "address"
        },
        {
          "indexed": false,
          "internalType": "uint256",
          "name": "amount",
          "type": "uint256"
        },
        {
          "indexed": false,
          "internalType": "bytes",
          "name": "data",
          "type": "bytes"
        },
        {
          "indexed": false,
          "internalType": "bytes",
          "name": "operatorData",
          "type": "bytes"
        }
      ],
      "name": "Sent",
      "type": "event"
    },
    {
      "anonymous": false,
      "inputs": [
        {
          "indexed": false,
          "internalType": "uint256",
          "name": "rate",
          "type": "uint256"
        }
      ],
      "name": "SowRateChanged",
      "type": "event"
    },
    {
      "anonymous": false,
      "inputs": [
        {
          "indexed": true,
          "internalType": "address",
          "name": "from",
          "type": "address"
        },
        {
          "indexed": true,
          "internalType": "address",
          "name": "to",
          "type": "address"
        },
        {
          "indexed": false,
          "internalType": "uint256",
          "name": "value",
          "type": "uint256"
        }
      ],
      "name": "Transfer",
      "type": "event"
    },
    {
      "inputs": [],
      "name": "BRIDGE",
      "outputs": [
        {
          "internalType": "bytes32",
          "name": "",
          "type": "bytes32"
        }
      ],
      "stateMutability": "view",
      "type": "function"
    },
    {
      "inputs": [],
      "name": "DEFAULT_ADMIN_ROLE",
      "outputs": [
        {
          "internalType": "bytes32",
          "name": "",
          "type": "bytes32"
        }
      ],
      "stateMutability": "view",
      "type": "function"
    },
    {
      "inputs": [],
      "name": "FARMING_CONTRACT",
      "outputs": [
        {
          "internalType": "bytes32",
          "name": "",
          "type": "bytes32"
        }
      ],
      "stateMutability": "view",
      "type": "function"
    },
    {
      "inputs": [],
      "name": "LIQUIDITY",
      "outputs": [
        {
          "internalType": "bytes32",
          "name": "",
          "type": "bytes32"
        }
      ],
      "stateMutability": "view",
      "type": "function"
    },
    {
      "inputs": [],
      "name": "LOCKED",
      "outputs": [
        {
          "internalType": "bytes32",
          "name": "",
          "type": "bytes32"
        }
      ],
      "stateMutability": "view",
      "type": "function"
    },
    {
      "inputs": [
        {
          "internalType": "address",
          "name": "holder",
          "type": "address"
        },
        {
          "internalType": "address",
          "name": "spender",
          "type": "address"
        }
      ],
      "name": "allowance",
      "outputs": [
        {
          "internalType": "uint256",
          "name": "",
          "type": "uint256"
        }
      ],
      "stateMutability": "view",
      "type": "function"
    },
    {
      "inputs": [
        {
          "internalType": "address",
          "name": "spender",
          "type": "address"
        },
        {
          "internalType": "uint256",
          "name": "value",
          "type": "uint256"
        }
      ],
      "name": "approve",
      "outputs": [
        {
          "internalType": "bool",
          "name": "",
          "type": "bool"
        }
      ],
      "stateMutability": "nonpayable",
      "type": "function"
    },
    {
      "inputs": [
        {
          "internalType": "address",
          "name": "operator",
          "type": "address"
        }
      ],
      "name": "authorizeOperator",
      "outputs": [],
      "stateMutability": "nonpayable",
      "type": "function"
    },
    {
      "inputs": [
        {
          "internalType": "address",
          "name": "account",
          "type": "address"
        }
      ],
      "name": "balanceOf",
      "outputs": [
        {
          "internalType": "uint256",
          "name": "",
          "type": "uint256"
        }
      ],
      "stateMutability": "view",
      "type": "function"
    },
    {
      "inputs": [
        {
          "internalType": "uint256",
          "name": "amount",
          "type": "uint256"
        },
        {
          "internalType": "bytes",
          "name": "data",
          "type": "bytes"
        }
      ],
      "name": "burn",
      "outputs": [],
      "stateMutability": "nonpayable",
      "type": "function"
    },
    {
      "inputs": [
        {
          "internalType": "address",
          "name": "eleemosynaryAccount",
          "type": "address"
        },
        {
          "internalType": "uint256",
          "name": "donationRate",
          "type": "uint256"
        }
      ],
      "name": "changeEleemosynaryDetails",
      "outputs": [],
      "stateMutability": "nonpayable",
      "type": "function"
    },
    {
      "inputs": [
        {
          "internalType": "uint256",
          "name": "rate",
          "type": "uint256"
        }
      ],
      "name": "changeFeeRate",
      "outputs": [],
      "stateMutability": "nonpayable",
      "type": "function"
    },
    {
      "inputs": [
        {
          "internalType": "uint256",
          "name": "sellThreshold",
          "type": "uint256"
        },
        {
          "internalType": "uint256",
          "name": "rateEscalator",
          "type": "uint256"
        }
      ],
      "name": "changeSellThresholdDetails",
      "outputs": [],
      "stateMutability": "nonpayable",
      "type": "function"
    },
    {
      "inputs": [],
      "name": "decimals",
      "outputs": [
        {
          "internalType": "uint8",
          "name": "",
          "type": "uint8"
        }
      ],
      "stateMutability": "pure",
      "type": "function"
    },
    {
      "inputs": [],
      "name": "defaultOperators",
      "outputs": [
        {
          "internalType": "address[]",
          "name": "",
          "type": "address[]"
        }
      ],
      "stateMutability": "view",
      "type": "function"
    },
    {
      "inputs": [],
      "name": "getEleemosynaryDetails",
      "outputs": [
        {
          "internalType": "address",
          "name": "",
          "type": "address"
        },
        {
          "internalType": "uint256",
          "name": "",
          "type": "uint256"
        }
      ],
      "stateMutability": "view",
      "type": "function"
    },
    {
      "inputs": [],
      "name": "getFeeRate",
      "outputs": [
        {
          "internalType": "uint256",
          "name": "",
          "type": "uint256"
        }
      ],
      "stateMutability": "view",
      "type": "function"
    },
    {
      "inputs": [],
      "name": "getOperativeFeeRate",
      "outputs": [
        {
          "internalType": "uint256",
          "name": "",
          "type": "uint256"
        }
      ],
      "stateMutability": "view",
      "type": "function"
    },
    {
      "inputs": [
        {
          "internalType": "bytes32",
          "name": "role",
          "type": "bytes32"
        }
      ],
      "name": "getRoleAdmin",
      "outputs": [
        {
          "internalType": "bytes32",
          "name": "",
          "type": "bytes32"
        }
      ],
      "stateMutability": "view",
      "type": "function"
    },
    {
      "inputs": [],
      "name": "getSellQuota",
      "outputs": [
        {
          "components": [
            {
              "internalType": "uint256",
              "name": "blockMetric",
              "type": "uint256"
            },
            {
              "internalType": "int256",
              "name": "amount",
              "type": "int256"
            }
          ],
          "internalType": "struct SchnoodleV9Base.TokenMeter",
          "name": "",
          "type": "tuple"
        }
      ],
      "stateMutability": "view",
      "type": "function"
    },
    {
      "inputs": [],
      "name": "getSellThresholdDetails",
      "outputs": [
        {
          "internalType": "uint256",
          "name": "",
          "type": "uint256"
        },
        {
          "internalType": "uint256",
          "name": "",
          "type": "uint256"
        }
      ],
      "stateMutability": "view",
      "type": "function"
    },
    {
      "inputs": [
        {
          "internalType": "bytes32",
          "name": "role",
          "type": "bytes32"
        },
        {
          "internalType": "address",
          "name": "account",
          "type": "address"
        }
      ],
      "name": "grantRole",
      "outputs": [],
      "stateMutability": "nonpayable",
      "type": "function"
    },
    {
      "inputs": [],
      "name": "granularity",
      "outputs": [
        {
          "internalType": "uint256",
          "name": "",
          "type": "uint256"
        }
      ],
      "stateMutability": "view",
      "type": "function"
    },
    {
      "inputs": [
        {
          "internalType": "bytes32",
          "name": "role",
          "type": "bytes32"
        },
        {
          "internalType": "address",
          "name": "account",
          "type": "address"
        }
      ],
      "name": "hasRole",
      "outputs": [
        {
          "internalType": "bool",
          "name": "",
          "type": "bool"
        }
      ],
      "stateMutability": "view",
      "type": "function"
    },
    {
      "inputs": [
        {
          "internalType": "string",
          "name": "name",
          "type": "string"
        },
        {
          "internalType": "string",
          "name": "symbol",
          "type": "string"
        },
        {
          "internalType": "address[]",
          "name": "defaultOperators",
          "type": "address[]"
        },
        {
          "internalType": "uint256",
          "name": "initialSupply",
          "type": "uint256"
        },
        {
          "internalType": "address",
          "name": "owner",
          "type": "address"
        }
      ],
      "name": "initialize",
      "outputs": [],
      "stateMutability": "nonpayable",
      "type": "function"
    },
    {
      "inputs": [
        {
          "internalType": "uint256",
          "name": "initialTokens",
          "type": "uint256"
        },
        {
          "internalType": "address",
          "name": "serviceAccount",
          "type": "address"
        }
      ],
      "name": "initialize",
      "outputs": [],
      "stateMutability": "nonpayable",
      "type": "function"
    },
    {
      "inputs": [
        {
          "internalType": "address",
          "name": "operator",
          "type": "address"
        },
        {
          "internalType": "address",
          "name": "tokenHolder",
          "type": "address"
        }
      ],
      "name": "isOperatorFor",
      "outputs": [
        {
          "internalType": "bool",
          "name": "",
          "type": "bool"
        }
      ],
      "stateMutability": "view",
      "type": "function"
    },
    {
      "inputs": [],
      "name": "maintenance",
      "outputs": [],
      "stateMutability": "nonpayable",
      "type": "function"
    },
    {
      "inputs": [],
      "name": "name",
      "outputs": [
        {
          "internalType": "string",
          "name": "",
          "type": "string"
        }
      ],
      "stateMutability": "view",
      "type": "function"
    },
    {
      "inputs": [
        {
          "internalType": "address",
          "name": "account",
          "type": "address"
        },
        {
          "internalType": "uint256",
          "name": "amount",
          "type": "uint256"
        },
        {
          "internalType": "bytes",
          "name": "data",
          "type": "bytes"
        },
        {
          "internalType": "bytes",
          "name": "operatorData",
          "type": "bytes"
        }
      ],
      "name": "operatorBurn",
      "outputs": [],
      "stateMutability": "nonpayable",
      "type": "function"
    },
    {
      "inputs": [
        {
          "internalType": "address",
          "name": "sender",
          "type": "address"
        },
        {
          "internalType": "address",
          "name": "recipient",
          "type": "address"
        },
        {
          "internalType": "uint256",
          "name": "amount",
          "type": "uint256"
        },
        {
          "internalType": "bytes",
          "name": "data",
          "type": "bytes"
        },
        {
          "internalType": "bytes",
          "name": "operatorData",
          "type": "bytes"
        }
      ],
      "name": "operatorSend",
      "outputs": [],
      "stateMutability": "nonpayable",
      "type": "function"
    },
    {
      "inputs": [],
      "name": "owner",
      "outputs": [
        {
          "internalType": "address",
          "name": "",
          "type": "address"
        }
      ],
      "stateMutability": "view",
      "type": "function"
    },
    {
      "inputs": [],
      "name": "renounceOwnership",
      "outputs": [],
      "stateMutability": "nonpayable",
      "type": "function"
    },
    {
      "inputs": [
        {
          "internalType": "bytes32",
          "name": "role",
          "type": "bytes32"
        },
        {
          "internalType": "address",
          "name": "account",
          "type": "address"
        }
      ],
      "name": "renounceRole",
      "outputs": [],
      "stateMutability": "nonpayable",
      "type": "function"
    },
    {
      "inputs": [
        {
          "internalType": "address",
          "name": "operator",
          "type": "address"
        }
      ],
      "name": "revokeOperator",
      "outputs": [],
      "stateMutability": "nonpayable",
      "type": "function"
    },
    {
      "inputs": [
        {
          "internalType": "bytes32",
          "name": "role",
          "type": "bytes32"
        },
        {
          "internalType": "address",
          "name": "account",
          "type": "address"
        }
      ],
      "name": "revokeRole",
      "outputs": [],
      "stateMutability": "nonpayable",
      "type": "function"
    },
    {
      "inputs": [
        {
          "internalType": "address",
          "name": "recipient",
          "type": "address"
        },
        {
          "internalType": "uint256",
          "name": "amount",
          "type": "uint256"
        },
        {
          "internalType": "bytes",
          "name": "data",
          "type": "bytes"
        }
      ],
      "name": "send",
      "outputs": [],
      "stateMutability": "nonpayable",
      "type": "function"
    },
    {
      "inputs": [
        {
          "internalType": "bytes4",
          "name": "interfaceId",
          "type": "bytes4"
        }
      ],
      "name": "supportsInterface",
      "outputs": [
        {
          "internalType": "bool",
          "name": "",
          "type": "bool"
        }
      ],
      "stateMutability": "view",
      "type": "function"
    },
    {
      "inputs": [],
      "name": "symbol",
      "outputs": [
        {
          "internalType": "string",
          "name": "",
          "type": "string"
        }
      ],
      "stateMutability": "view",
      "type": "function"
    },
    {
      "inputs": [],
      "name": "totalSupply",
      "outputs": [
        {
          "internalType": "uint256",
          "name": "",
          "type": "uint256"
        }
      ],
      "stateMutability": "view",
      "type": "function"
    },
    {
      "inputs": [
        {
          "internalType": "address",
          "name": "recipient",
          "type": "address"
        },
        {
          "internalType": "uint256",
          "name": "amount",
          "type": "uint256"
        }
      ],
      "name": "transfer",
      "outputs": [
        {
          "internalType": "bool",
          "name": "",
          "type": "bool"
        }
      ],
      "stateMutability": "nonpayable",
      "type": "function"
    },
    {
      "inputs": [
        {
          "internalType": "address",
          "name": "holder",
          "type": "address"
        },
        {
          "internalType": "address",
          "name": "recipient",
          "type": "address"
        },
        {
          "internalType": "uint256",
          "name": "amount",
          "type": "uint256"
        }
      ],
      "name": "transferFrom",
      "outputs": [
        {
          "internalType": "bool",
          "name": "",
          "type": "bool"
        }
      ],
      "stateMutability": "nonpayable",
      "type": "function"
    },
    {
      "inputs": [
        {
          "internalType": "address",
          "name": "newOwner",
          "type": "address"
        }
      ],
      "name": "transferOwnership",
      "outputs": [],
      "stateMutability": "nonpayable",
      "type": "function"
    },
    {
      "inputs": [
        {
          "internalType": "bool",
          "name": "testnet",
          "type": "bool"
        },
        {
          "internalType": "address",
          "name": "liquidityToken",
          "type": "address"
        },
        {
          "internalType": "address",
          "name": "schnoodleFarming",
          "type": "address"
        },
        {
          "internalType": "address",
          "name": "bridgeOwner",
          "type": "address"
        }
      ],
      "name": "configure",
      "outputs": [],
      "stateMutability": "nonpayable",
      "type": "function"
    },
    {
      "inputs": [],
      "name": "getFarmingFund",
      "outputs": [
        {
          "internalType": "address",
          "name": "",
          "type": "address"
        }
      ],
      "stateMutability": "view",
      "type": "function"
    },
    {
      "inputs": [
        {
          "internalType": "uint256",
          "name": "rate",
          "type": "uint256"
        }
      ],
      "name": "changeSowRate",
      "outputs": [],
      "stateMutability": "nonpayable",
      "type": "function"
    },
    {
      "inputs": [],
      "name": "getSowRate",
      "outputs": [
        {
          "internalType": "uint256",
          "name": "",
          "type": "uint256"
        }
      ],
      "stateMutability": "view",
      "type": "function"
    },
    {
      "inputs": [
        {
          "internalType": "address",
          "name": "account",
          "type": "address"
        },
        {
          "internalType": "uint256",
          "name": "netReward",
          "type": "uint256"
        },
        {
          "internalType": "uint256",
          "name": "grossReward",
          "type": "uint256"
        }
      ],
      "name": "farmingReward",
      "outputs": [],
      "stateMutability": "nonpayable",
      "type": "function"
    },
    {
      "inputs": [
        {
          "internalType": "address",
          "name": "account",
          "type": "address"
        }
      ],
      "name": "unlockedBalanceOf",
      "outputs": [
        {
          "internalType": "uint256",
          "name": "",
          "type": "uint256"
        }
      ],
      "stateMutability": "nonpayable",
      "type": "function"
    },
    {
      "inputs": [],
      "name": "getBridgeOwner",
      "outputs": [
        {
          "internalType": "address",
          "name": "",
          "type": "address"
        }
      ],
      "stateMutability": "view",
      "type": "function"
    },
    {
      "inputs": [
        {
          "internalType": "uint256",
          "name": "networkId",
          "type": "uint256"
        },
        {
          "internalType": "uint256",
          "name": "amount",
          "type": "uint256"
        }
      ],
      "name": "sendTokens",
      "outputs": [],
      "stateMutability": "nonpayable",
      "type": "function"
    },
    {
      "inputs": [
        {
          "internalType": "uint256",
          "name": "networkId",
          "type": "uint256"
        }
      ],
      "name": "payFee",
      "outputs": [],
      "stateMutability": "payable",
      "type": "function"
    },
    {
      "inputs": [
        {
          "internalType": "address",
          "name": "account",
          "type": "address"
        },
        {
          "internalType": "uint256",
          "name": "networkId",
          "type": "uint256"
        },
        {
          "internalType": "uint256",
          "name": "amount",
          "type": "uint256"
        },
        {
          "internalType": "uint256",
          "name": "fee",
          "type": "uint256"
        }
      ],
      "name": "receiveTokens",
      "outputs": [],
      "stateMutability": "nonpayable",
      "type": "function"
    },
    {
      "inputs": [
        {
          "internalType": "address",
          "name": "account",
          "type": "address"
        },
        {
          "internalType": "uint256",
          "name": "networkId",
          "type": "uint256"
        }
      ],
      "name": "tokensSent",
      "outputs": [
        {
          "internalType": "uint256",
          "name": "",
          "type": "uint256"
        }
      ],
      "stateMutability": "view",
      "type": "function"
    },
    {
      "inputs": [
        {
          "internalType": "address",
          "name": "account",
          "type": "address"
        },
        {
          "internalType": "uint256",
          "name": "networkId",
          "type": "uint256"
        }
      ],
      "name": "tokensReceived",
      "outputs": [
        {
          "internalType": "uint256",
          "name": "",
          "type": "uint256"
        }
      ],
      "stateMutability": "view",
      "type": "function"
    },
    {
      "inputs": [
        {
          "internalType": "address",
          "name": "account",
          "type": "address"
        },
        {
          "internalType": "uint256",
          "name": "networkId",
          "type": "uint256"
        }
      ],
      "name": "feesPaid",
      "outputs": [
        {
          "internalType": "uint256",
          "name": "",
          "type": "uint256"
        }
      ],
      "stateMutability": "view",
      "type": "function"
    }
  ],
  "bytecode": "0x608060405234801561001057600080fd5b50613ec7806100206000396000f3fe60806040526004361061036b5760003560e01c8063895b978e116101c6578063b7a895fa116100f7578063ee9a31a211610095578063fad8b32a1161006f578063fad8b32a14610ad0578063fc673c4f14610af0578063fdf5f4f814610b10578063fe9d930314610b3857600080fd5b8063ee9a31a214610a5c578063f2fde38b14610a90578063f364109a14610ab057600080fd5b8063d95b6371116100d1578063d95b6371146109dc578063da35a26f146109fc578063dd62ed3e14610a1c578063e84839bd14610a3c57600080fd5b8063b7a895fa14610966578063d289ade2146109a9578063d547741f146109bc57600080fd5b80639bd9bbc611610164578063a9059cbb1161013e578063a9059cbb146108f1578063affca93214610911578063b1e067b214610931578063b393204b1461095157600080fd5b80639bd9bbc614610888578063a1422f69146108a8578063a217fddf146108dc57600080fd5b806391d14854116101a057806391d1485414610813578063957872aa14610833578063959b8c3f1461085357806395d89b411461087357600080fd5b8063895b978e1461077d5780638da5cb5b146107c15780639137ac72146107df57600080fd5b806336568abe116102a05780636da1dd261161023e578063768f950a11610218578063768f950a146107085780638184ba411461072857806384955c881461074857806384e5eed01461076857600080fd5b80636da1dd26146106b457806370a08231146106d3578063715018a6146106f357600080fd5b806362ad1b831161027a57806362ad1b831461061e5780636a6ccdf51461063e5780636c05932a146106545780636c376cc51461069f57600080fd5b806336568abe146105b75780634cbe3db5146105d7578063556f0dc71461060a57600080fd5b806323b872dd1161030d5780632861c7d1116102e75780632861c7d1146105275780632f2ff15d1461055b578063313ce5671461057b57806331bcd2b71461059757600080fd5b806323b872dd14610492578063248a9ca3146104b257806324a756d1146104e357600080fd5b8063095ea7b311610349578063095ea7b3146103e95780630a8312111461040957806318160ddd1461045b57806322daa21d1461047057600080fd5b806301ffc9a71461037057806306e48538146103a557806306fdde03146103c7575b600080fd5b34801561037c57600080fd5b5061039061038b3660046132a1565b610b58565b60405190151581526020015b60405180910390f35b3480156103b157600080fd5b506103ba610b8f565b60405161039c91906132cb565b3480156103d357600080fd5b506103dc610bf1565b60405161039c9190613370565b3480156103f557600080fd5b506103906104043660046133a3565b610c7a565b34801561041557600080fd5b5061044d6104243660046133a3565b6001600160a01b0391909116600090815261013960209081526040808320938352929052205490565b60405190815260200161039c565b34801561046757600080fd5b5060c95461044d565b34801561047c57600080fd5b5061049061048b3660046133cf565b610c92565b005b34801561049e57600080fd5b506103906104ad3660046133e8565b610d02565b3480156104be57600080fd5b5061044d6104cd3660046133cf565b6000908152610103602052604090206001015490565b3480156104ef57600080fd5b5061044d6104fe3660046133a3565b6001600160a01b0391909116600090815261013a60209081526040808320938352929052205490565b34801561053357600080fd5b5061044d7f86cf169ddb9f19bc57304a958748511e956d0b9255fb5895294f9c4ae5b00d5881565b34801561056757600080fd5b50610490610576366004613429565b610d48565b34801561058757600080fd5b506040516012815260200161039c565b3480156105a357600080fd5b506104906105b2366004613459565b610d73565b3480156105c357600080fd5b506104906105d2366004613429565b610dc0565b3480156105e357600080fd5b50610138546001600160a01b03165b6040516001600160a01b03909116815260200161039c565b34801561061657600080fd5b50600161044d565b34801561062a57600080fd5b50610490610639366004613532565b610e3e565b34801561064a57600080fd5b506101375461044d565b34801561066057600080fd5b5060408051808201825260008082526020918201528151808301835260ce5480825260cf5491830191825283519081529051918101919091520161039c565b3480156106ab57600080fd5b50610490610e7a565b3480156106c057600080fd5b50610136546001600160a01b03166105f2565b3480156106df57600080fd5b5061044d6106ee3660046135c5565b610ed5565b3480156106ff57600080fd5b50610490610ef7565b34801561071457600080fd5b506104906107233660046135e2565b610f2d565b34801561073457600080fd5b50610490610743366004613459565b610fac565b34801561075457600080fd5b5061044d6107633660046135c5565b61101d565b34801561077457600080fd5b5060ca5461044d565b34801561078957600080fd5b5061044d6107983660046133a3565b6001600160a01b0391909116600090815261013b60209081526040808320938352929052205490565b3480156107cd57600080fd5b506097546001600160a01b03166105f2565b3480156107eb57600080fd5b5061044d7f6426100d0053205ef4e6cbd754ca9b11acf0e907f8e2741bd95048bd4543de1a81565b34801561081f57600080fd5b5061039061082e366004613429565b61103b565b34801561083f57600080fd5b5061049061084e3660046136f5565b611067565b34801561085f57600080fd5b5061049061086e3660046135c5565b6110fa565b34801561087f57600080fd5b506103dc611217565b34801561089457600080fd5b506104906108a336600461372a565b611226565b3480156108b457600080fd5b5061044d7feb4a01a12a4bbfa1bc780c16c5b2b6720cdf4f3c29cabd8c0f76fec3a575096b81565b3480156108e857600080fd5b5061044d600081565b3480156108fd57600080fd5b5061039061090c3660046133a3565b611244565b34801561091d57600080fd5b5061049061092c3660046133cf565b61127c565b34801561093d57600080fd5b5061049061094c366004613783565b6112db565b34801561095d57600080fd5b5061044d611449565b34801561097257600080fd5b5061098a60cb5460cc546001600160a01b0390911691565b604080516001600160a01b03909316835260208301919091520161039c565b6104906109b73660046133cf565b6114bb565b3480156109c857600080fd5b506104906109d7366004613429565b611525565b3480156109e857600080fd5b506103906109f73660046137be565b61154b565b348015610a0857600080fd5b50610490610a17366004613429565b6115ed565b348015610a2857600080fd5b5061044d610a373660046137be565b6116ea565b348015610a4857600080fd5b50610490610a573660046133a3565b61171b565b348015610a6857600080fd5b5061044d7f08fb31c3e81624356c3314088aa971b73bcc82d22bc3e3b184b4593077ae327881565b348015610a9c57600080fd5b50610490610aab3660046135c5565b61179f565b348015610abc57600080fd5b50610490610acb3660046137ec565b61183a565b348015610adc57600080fd5b50610490610aeb3660046135c5565b611981565b348015610afc57600080fd5b50610490610b0b36600461384d565b611a9c565b348015610b1c57600080fd5b5060cd5460d0546040805192835260208301919091520161039c565b348015610b4457600080fd5b50610490610b533660046138cd565b611ace565b60006001600160e01b03198216637965db0b60e01b1480610b8957506301ffc9a760e01b6001600160e01b03198316145b92915050565b60606037805480602002602001604051908101604052809291908181526020018280548015610be757602002820191906000526020600020905b81546001600160a01b03168152600190910190602001808311610bc9575b5050505050905090565b606060358054610c0090613914565b80601f0160208091040260200160405190810160405280929190818152602001828054610c2c90613914565b8015610be75780601f10610c4e57610100808354040283529160200191610be7565b820191906000526020600020905b815481529060010190602001808311610c5c57509395945050505050565b600033610c88818585611ae9565b5060019392505050565b6097546001600160a01b03163314610cc55760405162461bcd60e51b8152600401610cbc9061394e565b60405180910390fd5b6101378190556040518181527f356b0da78b28f488d953ba76712b3bdd18f174ff2296108417b4c1d47669692d906020015b60405180910390a150565b600033610d10858285611afc565b610d3d85858560405180602001604052806000815250604051806020016040528060008152506000611b0f565b506001949350505050565b60008281526101036020526040902060010154610d6481611b42565b610d6e8383611b4c565b505050565b610d8c8160405180602001604052806000815250611ace565b3360009081526101396020908152604080832085845290915281208054839290610db7908490613999565b90915550505050565b6001600160a01b0381163314610e305760405162461bcd60e51b815260206004820152602f60248201527f416363657373436f6e74726f6c3a2063616e206f6e6c792072656e6f756e636560448201526e103937b632b9903337b91039b2b63360891b6064820152608401610cbc565b610e3a8282611bd3565b5050565b610e48338661154b565b610e645760405162461bcd60e51b8152600401610cbc906139b1565b610e7385858585856001611b0f565b5050505050565b737731a6785a01ea6b606eb8ffac7d7861c99dc6bb7378fc40ca8a23cf02654d4a5638ba4d71bacaa9656000610eb7610eb284610ed5565b611c3b565b9050610ec4833383611ae9565b610ecf838383610d02565b50505050565b6001600160a01b038116600090815260336020526040812054610b8990611c4f565b6097546001600160a01b03163314610f215760405162461bcd60e51b8152600401610cbc9061394e565b610f2b6000611c76565b565b6000610f396001611cc8565b90508015610f51576000805461ff0019166101001790555b610f5e8686868686611d4d565b8015610fa4576000805461ff0019169055604051600181527f7f26b83ff96e1f2b6a682f133852f6798a09c465da95921460cefb38474024989060200160405180910390a15b505050505050565b6097546001600160a01b03163314610fd65760405162461bcd60e51b8152600401610cbc9061394e565b60cd82905560d081905560408051838152602081018390527f72c1673617b0c2d62adda4739eab51cd7805a8ad541ae28ec66f46052c1dfa62910160405180910390a15050565b600061102882611d8c565b61103183610ed5565b610b8991906139fd565b6000918252610103602090815260408084206001600160a01b0393909316845291905290205460ff1690565b6110917f6426100d0053205ef4e6cbd754ca9b11acf0e907f8e2741bd95048bd4543de1a3361103b565b61109a57600080fd5b610136546110ba906001600160a01b0316846110b585611c3b565b611e6f565b61013654610d6e906001600160a01b03166110d584846139fd565b6040518060200160405280600081525060405180602001604052806000815250611e7a565b6001600160a01b038116330361115e5760405162461bcd60e51b8152602060048201526024808201527f4552433737373a20617574686f72697a696e672073656c66206173206f70657260448201526330ba37b960e11b6064820152608401610cbc565b6001600160a01b03811660009081526038602052604090205460ff16156111af57336000908152603a602090815260408083206001600160a01b03851684529091529020805460ff191690556111de565b3360009081526039602090815260408083206001600160a01b03851684529091529020805460ff191660011790555b60405133906001600160a01b038316907ff4caeb2d6ca8932a215a353d0703c326ec2d81fc68170f320eb2ab49e9df61f990600090a350565b606060368054610c0090613914565b610d6e33848484604051806020016040528060008152506001611b0f565b600061127333848460405180602001604052806000815250604051806020016040528060008152506000611b0f565b50600192915050565b6097546001600160a01b031633146112a65760405162461bcd60e51b8152600401610cbc9061394e565b60ca8190556040518181527fdd72d2879718489eb363ba6099239f89d49542612862c71545503d35cfddda4690602001610cf7565b610138546001600160a01b0316336001600160a01b0316146113525760405162461bcd60e51b815260206004820152602a60248201527f5363686e6f6f646c653a2053656e646572206d7573742062652074686520627260448201526934b233b29037bbb732b960b11b6064820152608401610cbc565b6001600160a01b038416600090815261013b602090815260408083208684529091529020548111156113c65760405162461bcd60e51b815260206004820181905260248201527f5363686e6f6f646c653a20496e73756666696369656e742066656520706169646044820152606401610cbc565b6001600160a01b038416600090815261013b60209081526040808320868452909152812080548392906113fa9084906139fd565b9091555061140a90508483611ea0565b6001600160a01b038416600090815261013a602090815260408083208684529091528120805484929061143e908490613999565b909155505050505050565b60008060cd5411801561145e575060cf546000135b156114b45760cd5460cf5461147e9061147690613a14565b60cd54611ee4565b60d05460ca5461148e9190613a30565b6114989190613a30565b6114a29190613a65565b60ca546114af9190613999565b905090565b5060ca5490565b33600090815261013b60209081526040808320848452909152812080543492906114e6908490613999565b9091555050610138546040516001600160a01b03909116903480156108fc02916000818181858888f19350505050158015610e3a573d6000803e3d6000fd5b6000828152610103602052604090206001015461154181611b42565b610d6e8383611bd3565b6000816001600160a01b0316836001600160a01b031614806115b657506001600160a01b03831660009081526038602052604090205460ff1680156115b657506001600160a01b038083166000908152603a602090815260408083209387168352929052205460ff16155b806115e657506001600160a01b0380831660009081526039602090815260408083209387168352929052205460ff165b9392505050565b60006115f96001611cc8565b90508015611611576000805461ff0019166101001790555b611619611efa565b6116256012600a613b5d565b61162f9084613a30565b60c981905560408051808201825260098152685363686e6f6f646c6560b81b60208083019190915282518084018452600581526414d393d3d160da1b818301528351600081529182019093526116a09391929161168e90600019613b6c565b61169a906000196139fd565b86611d4d565b8015610d6e576000805461ff0019169055604051600181527f7f26b83ff96e1f2b6a682f133852f6798a09c465da95921460cefb38474024989060200160405180910390a1505050565b6001600160a01b038083166000908152603b602090815260408083209385168352929052908120546115e690611c4f565b6097546001600160a01b031633146117455760405162461bcd60e51b8152600401610cbc9061394e565b60cb80546001600160a01b0319166001600160a01b03841690811790915560cc8290556040518281527f3c9add9b205965c28e39a1f5fc6780a30ba0f001dc883ed462d795f97a2d94069060200160405180910390a25050565b6097546001600160a01b031633146117c95760405162461bcd60e51b8152600401610cbc9061394e565b6001600160a01b03811661182e5760405162461bcd60e51b815260206004820152602660248201527f4f776e61626c653a206e6577206f776e657220697320746865207a65726f206160448201526564647265737360d01b6064820152608401610cbc565b61183781611c76565b50565b6097546001600160a01b031633146118645760405162461bcd60e51b8152600401610cbc9061394e565b831561195c5761188660006118816097546001600160a01b031690565b611f29565b6118b07f86cf169ddb9f19bc57304a958748511e956d0b9255fb5895294f9c4ae5b00d5884611f29565b6118da7f6426100d0053205ef4e6cbd754ca9b11acf0e907f8e2741bd95048bd4543de1a83611f29565b61013580546001600160a01b0319166001600160a01b038416179055426119026001436139fd565b4060405160200161191d929190918252602082015260400190565b60408051808303601f19018152919052805160209091012061013680546001600160a01b0319166001600160a01b039092169190911790556028610137555b61013880546001600160a01b0319166001600160a01b038316179055610ecf84611f33565b336001600160a01b038216036119e35760405162461bcd60e51b815260206004820152602160248201527f4552433737373a207265766f6b696e672073656c66206173206f70657261746f6044820152603960f91b6064820152608401610cbc565b6001600160a01b03811660009081526038602052604090205460ff1615611a3757336000908152603a602090815260408083206001600160a01b03851684529091529020805460ff19166001179055611a63565b3360009081526039602090815260408083206001600160a01b03851684529091529020805460ff191690555b60405133906001600160a01b038316907f50546e66e5f44d728365dc3908c63bc5cfeeab470722c1677e3073a6ac294aa190600090a350565b611aa6338561154b565b611ac25760405162461bcd60e51b8152600401610cbc906139b1565b610ecf84848484611e7a565b610e3a33838360405180602001604052806000815250611e7a565b610d6e8383611af784611c3b565b611f8d565b610d6e8383611b0a84611c4f565b6120be565b6000611b1a85611c3b565b9050611b2a878783878787612132565b611b3987878784612225612252565b50505050505050565b6118378133612386565b611b56828261103b565b610e3a576000828152610103602090815260408083206001600160a01b03851684529091529020805460ff19166001179055611b8f3390565b6001600160a01b0316816001600160a01b0316837f2f8788117e7eff1d82e926ec794901d17c78024a50270940304540a733656f0d60405160405180910390a45050565b611bdd828261103b565b15610e3a576000828152610103602090815260408083206001600160a01b0385168085529252808320805460ff1916905551339285917ff6391f5c32d9c69d2a47ea670b442974b53935d1edc7fd64eb21e047a839171b9190a45050565b6000611c456123ea565b610b899083613a30565b60008115611c6e57611c5f6123ea565b611c699083613a65565b610b89565b600092915050565b609780546001600160a01b038381166001600160a01b0319831681179093556040519116919082907f8be0079c531659141344cd1fd0a4f28419497f9722a3daafe3b4186f6b6457e090600090a35050565b60008054610100900460ff1615611d07578160ff166001148015611ceb5750303b155b611c6e5760405162461bcd60e51b8152600401610cbc90613b80565b60005460ff808416911610611d2e5760405162461bcd60e51b8152600401610cbc90613b80565b506000805460ff191660ff92909216919091179055600190565b919050565b600054610100900460ff16611d745760405162461bcd60e51b8152600401610cbc90613bce565b611d7f858585612419565b610e738585858585612603565b610135546000906001600160a01b0316611da857506000919050565b610135546040516001600160a01b038481166024830152600092839291169060440160408051601f198184030181529181526020820180516001600160e01b0316632c9aab9b60e11b17905251611dff9190613c19565b6000604051808303816000865af19150503d8060008114611e3c576040519150601f19603f3d011682016040523d82523d6000602084013e611e41565b606091505b509150915081611e5357611e53613c35565b80806020019051810190611e679190613c4b565b949350505050565b610ec4833383611f8d565b611e8e84611e8785611c3b565b8484612654565b8260c9600082825461143e91906139fd565b611ed282611ead83611c3b565b6040518060200160405280600081525060405180602001604052806000815250612820565b8060c96000828254610db79190613999565b6000818310611ef357816115e6565b5090919050565b600054610100900460ff16611f215760405162461bcd60e51b8152600401610cbc90613bce565b610f2b61282e565b610e3a8282611b4c565b6097546001600160a01b03163314611f5d5760405162461bcd60e51b8152600401610cbc9061394e565b801561183757602860ca55600660d055611f796012600a613b5d565b611f8790633b9aca00613a30565b60cd5550565b6001600160a01b038316611ff15760405162461bcd60e51b815260206004820152602560248201527f4552433737373a20617070726f76652066726f6d20746865207a65726f206164604482015264647265737360d81b6064820152608401610cbc565b6001600160a01b0382166120535760405162461bcd60e51b815260206004820152602360248201527f4552433737373a20617070726f766520746f20746865207a65726f206164647260448201526265737360e81b6064820152608401610cbc565b6001600160a01b038084166000818152603b602090815260408083209487168084529490915290208390557f8c5be1e5ebec7d5bd14f71427d1e84f3dd0314c0f7b2291e5b200ac8c7c3b9256120a88461285e565b60405190815260200160405180910390a3505050565b60006120ca84846116ea565b90506000198114610ecf57818110156121255760405162461bcd60e51b815260206004820152601e60248201527f4552433737373a20696e73756666696369656e7420616c6c6f77616e636500006044820152606401610cbc565b610ecf8484848403611ae9565b6001600160a01b0386166121975760405162461bcd60e51b815260206004820152602660248201527f4552433737373a207472616e736665722066726f6d20746865207a65726f206160448201526564647265737360d01b6064820152608401610cbc565b6001600160a01b0385166121f95760405162461bcd60e51b8152602060048201526024808201527f4552433737373a207472616e7366657220746f20746865207a65726f206164646044820152637265737360e01b6064820152608401610cbc565b33612208818888888888612869565b612216818888888888612990565b611b3981888888888888612b0c565b610d6e83838360405180602001604052806000815250604051806020016040528060008152506001612132565b600061225d86612cd1565b9050600081158015612273575061227386612cd1565b60cd549091501561236e5760ce544290158061229c575061229762015180826139fd565b60ce54105b156122e95760ce81905560cd5460cf8190556040805183815260208101929092527f6326273a6785f513768f2d48c9379925280b1265fc536c9ba0d40d213994064b910160405180910390a15b858361230357826122fb576000612306565b600019612306565b60015b6123109190613c64565b60cf8054600090612322908490613ce9565b909155505060ce5460cf546040517f6326273a6785f513768f2d48c9379925280b1265fc536c9ba0d40d213994064b9261236492908252602082015260400190565b60405180910390a1505b8061237a575050610e73565b611b3986868686612cfd565b612390828261103b565b610e3a576123a8816001600160a01b03166014612d2b565b6123b3836020612d2b565b6040516020016123c4929190613d2a565b60408051601f198184030181529082905262461bcd60e51b8252610cbc91600401613370565b6000806123f660345490565b905080156124105760c95461240b9082613a65565b612413565b60005b91505090565b600054610100900460ff166124405760405162461bcd60e51b8152600401610cbc90613bce565b82516124539060359060208601906131b3565b5081516124679060369060208501906131b3565b50805161247b906037906020840190613237565b5060005b81518110156124e4576001603860008484815181106124a0576124a0613d9f565b6020908102919091018101516001600160a01b03168252810191909152604001600020805460ff1916911515919091179055806124dc81613db5565b91505061247f565b506040516329965a1d60e01b815230600482018190527fac7fbab5f54a3ca8194167523c6753bfeb96a445279294b6125b68cce217705460248301526044820152731820a4b7618bde71dce8cdc73aab6c95905fad24906329965a1d90606401600060405180830381600087803b15801561255e57600080fd5b505af1158015612572573d6000803e3d6000fd5b50506040516329965a1d60e01b815230600482018190527faea199e31a596269b42cdafd93407f14436db6e4cad65417994c2eb37381e05a60248301526044820152731820a4b7618bde71dce8cdc73aab6c95905fad2492506329965a1d9150606401600060405180830381600087803b1580156125ef57600080fd5b505af1158015611b39573d6000803e3d6000fd5b600054610100900460ff1661262a5760405162461bcd60e51b8152600401610cbc90613bce565b610e7381836040518060200160405280600081525060405180602001604052806000815250612820565b6001600160a01b0384166126b55760405162461bcd60e51b815260206004820152602260248201527f4552433737373a206275726e2066726f6d20746865207a65726f206164647265604482015261737360f01b6064820152608401610cbc565b336126c581866000878787612869565b6126d28186600087612ec7565b6001600160a01b038516600090815260336020526040902054848110156127475760405162461bcd60e51b815260206004820152602360248201527f4552433737373a206275726e20616d6f756e7420657863656564732062616c616044820152626e636560e81b6064820152608401610cbc565b6001600160a01b03861660009081526033602052604081208683039055603480548792906127769084906139fd565b9091555061278590508561285e565b9450856001600160a01b0316826001600160a01b03167fa78a9be3a7b862d26933ad85fb11d80ef66b8f972d7cbba06621d583943a40988787876040516127ce93929190613dce565b60405180910390a36040518581526000906001600160a01b038816907fddf252ad1be2c89b69c2b068fc378daa952ba7f163c4a11628f55a4df523b3ef906020015b60405180910390a3505050505050565b610ecf848484846001612fb4565b600054610100900460ff166128555760405162461bcd60e51b8152600401610cbc90613bce565b610f2b33611c76565b6000610b8982611c4f565b60405163555ddc6560e11b81526001600160a01b03861660048201527f29ddb589b1fb5fc7cf394961c1adf5f8c6454761adf795e67fe149f658abe8956024820152600090731820a4b7618bde71dce8cdc73aab6c95905fad249063aabbb8ca90604401602060405180830381865afa1580156128ea573d6000803e3d6000fd5b505050506040513d601f19601f8201168201806040525081019061290e9190613e03565b90506001600160a01b03811615611b3957604051633ad5cbc160e11b81526001600160a01b038216906375ab978290612955908a908a908a908a908a908a90600401613e20565b600060405180830381600087803b15801561296f57600080fd5b505af1158015612983573d6000803e3d6000fd5b5050505050505050505050565b61299c86868686612ec7565b6001600160a01b03851660009081526033602052604090205483811015612a155760405162461bcd60e51b815260206004820152602760248201527f4552433737373a207472616e7366657220616d6f756e7420657863656564732060448201526662616c616e636560c81b6064820152608401610cbc565b6001600160a01b03808716600090815260336020526040808220878503905591871681529081208054869290612a4c908490613999565b90915550612a5b90508461285e565b9350846001600160a01b0316866001600160a01b0316886001600160a01b03167f06b541ddaa720db2b10a4d0cdac39b8d360425fc073085fac19bc82614677987878787604051612aae93929190613dce565b60405180910390a4846001600160a01b0316866001600160a01b03167fddf252ad1be2c89b69c2b068fc378daa952ba7f163c4a11628f55a4df523b3ef86604051612afb91815260200190565b60405180910390a350505050505050565b60405163555ddc6560e11b81526001600160a01b03861660048201527fb281fc8c12954d22544db45de3159a39272895b169a852b314f9cc762e44c53b6024820152600090731820a4b7618bde71dce8cdc73aab6c95905fad249063aabbb8ca90604401602060405180830381865afa158015612b8d573d6000803e3d6000fd5b505050506040513d601f19601f82011682018060405250810190612bb19190613e03565b90506001600160a01b03811615612c2d576040516223de2960e01b81526001600160a01b038216906223de2990612bf6908b908b908b908b908b908b90600401613e20565b600060405180830381600087803b158015612c1057600080fd5b505af1158015612c24573d6000803e3d6000fd5b50505050612cc7565b8115612cc7576001600160a01b0386163b15612cc75760405162461bcd60e51b815260206004820152604d60248201527f4552433737373a20746f6b656e20726563697069656e7420636f6e747261637460448201527f20686173206e6f20696d706c656d656e74657220666f7220455243373737546f60648201526c1ad95b9cd49958da5c1a595b9d609a1b608482015260a401610cbc565b5050505050505050565b6000610b897f86cf169ddb9f19bc57304a958748511e956d0b9255fb5895294f9c4ae5b00d588361103b565b612d0984848484613105565b6101365461013754610ecf9186916001600160a01b039091169086908561316d565b60606000612d3a836002613a30565b612d45906002613999565b67ffffffffffffffff811115612d5d57612d5d61347b565b6040519080825280601f01601f191660200182016040528015612d87576020820181803683370190505b509050600360fc1b81600081518110612da257612da2613d9f565b60200101906001600160f81b031916908160001a905350600f60fb1b81600181518110612dd157612dd1613d9f565b60200101906001600160f81b031916908160001a9053506000612df5846002613a30565b612e00906001613999565b90505b6001811115612e78576f181899199a1a9b1b9c1cb0b131b232b360811b85600f1660108110612e3457612e34613d9f565b1a60f81b828281518110612e4a57612e4a613d9f565b60200101906001600160f81b031916908160001a90535060049490941c93612e7181613e7a565b9050612e03565b5083156115e65760405162461bcd60e51b815260206004820181905260248201527f537472696e67733a20686578206c656e67746820696e73756666696369656e746044820152606401610cbc565b6001600160a01b03831615612faf576000612ee182611c4f565b90506000612eee85610ed5565b905080821180612f105750612f0285611d8c565b612f0c90826139fd565b8211155b612f785760405162461bcd60e51b815260206004820152603360248201527f5363686e6f6f646c653a207472616e7366657220616d6f756e74206578636565604482015272647320756e6c6f636b65642062616c616e636560681b6064820152608401610cbc565b612fa27feb4a01a12a4bbfa1bc780c16c5b2b6720cdf4f3c29cabd8c0f76fec3a575096b8661103b565b15612fac57600080fd5b50505b610ecf565b6001600160a01b03851661300a5760405162461bcd60e51b815260206004820181905260248201527f4552433737373a206d696e7420746f20746865207a65726f20616464726573736044820152606401610cbc565b336130188160008888612ec7565b846034600082825461302a9190613999565b90915550506001600160a01b03861660009081526033602052604081208054879290613057908490613999565b9091555061306d90508160008888888888612b0c565b6130768561285e565b9450856001600160a01b0316816001600160a01b03167f2fe5be0146f74c5bce36c0b80911af6c7d86ff27e89d5cfa61fc681327954e5d8787876040516130bf93929190613dce565b60405180910390a36040518581526001600160a01b038716906000907fddf252ad1be2c89b69c2b068fc378daa952ba7f163c4a11628f55a4df523b3ef90602001612810565b600061310f611449565b905061315185826131226103e887613a65565b61312c9190613a30565b6040518060200160405280600081525060405180602001604052806000815250612654565b60cb5460cc54610e739187916001600160a01b03909116908790865b6001600160a01b03841615610e735760006103e861318b8486613a30565b6131959190613a65565b905060006131a282611c3b565b9050611b398787838663ffffffff16565b8280546131bf90613914565b90600052602060002090601f0160209004810192826131e15760008555613227565b82601f106131fa57805160ff1916838001178555613227565b82800160010185558215613227579182015b8281111561322757825182559160200191906001019061320c565b5061323392915061328c565b5090565b828054828255906000526020600020908101928215613227579160200282015b8281111561322757825182546001600160a01b0319166001600160a01b03909116178255602090920191600190910190613257565b5b80821115613233576000815560010161328d565b6000602082840312156132b357600080fd5b81356001600160e01b0319811681146115e657600080fd5b6020808252825182820181905260009190848201906040850190845b8181101561330c5783516001600160a01b0316835292840192918401916001016132e7565b50909695505050505050565b60005b8381101561333357818101518382015260200161331b565b83811115610ecf5750506000910152565b6000815180845261335c816020860160208601613318565b601f01601f19169290920160200192915050565b6020815260006115e66020830184613344565b6001600160a01b038116811461183757600080fd5b8035611d4881613383565b600080604083850312156133b657600080fd5b82356133c181613383565b946020939093013593505050565b6000602082840312156133e157600080fd5b5035919050565b6000806000606084860312156133fd57600080fd5b833561340881613383565b9250602084013561341881613383565b929592945050506040919091013590565b6000806040838503121561343c57600080fd5b82359150602083013561344e81613383565b809150509250929050565b6000806040838503121561346c57600080fd5b50508035926020909101359150565b634e487b7160e01b600052604160045260246000fd5b604051601f8201601f1916810167ffffffffffffffff811182821017156134ba576134ba61347b565b604052919050565b600082601f8301126134d357600080fd5b813567ffffffffffffffff8111156134ed576134ed61347b565b613500601f8201601f1916602001613491565b81815284602083860101111561351557600080fd5b816020850160208301376000918101602001919091529392505050565b600080600080600060a0868803121561354a57600080fd5b853561355581613383565b9450602086013561356581613383565b935060408601359250606086013567ffffffffffffffff8082111561358957600080fd5b61359589838a016134c2565b935060808801359150808211156135ab57600080fd5b506135b8888289016134c2565b9150509295509295909350565b6000602082840312156135d757600080fd5b81356115e681613383565b600080600080600060a086880312156135fa57600080fd5b853567ffffffffffffffff8082111561361257600080fd5b61361e89838a016134c2565b965060209150818801358181111561363557600080fd5b6136418a828b016134c2565b96505060408801358181111561365657600080fd5b8801601f81018a1361366757600080fd5b8035828111156136795761367961347b565b8060051b925061368a848401613491565b818152928201840192848101908c8511156136a457600080fd5b928501925b848410156136ce57833592506136be83613383565b82825292850192908501906136a9565b9750505050606088013593506136e991505060808701613398565b90509295509295909350565b60008060006060848603121561370a57600080fd5b833561371581613383565b95602085013595506040909401359392505050565b60008060006060848603121561373f57600080fd5b833561374a81613383565b925060208401359150604084013567ffffffffffffffff81111561376d57600080fd5b613779868287016134c2565b9150509250925092565b6000806000806080858703121561379957600080fd5b84356137a481613383565b966020860135965060408601359560600135945092505050565b600080604083850312156137d157600080fd5b82356137dc81613383565b9150602083013561344e81613383565b6000806000806080858703121561380257600080fd5b8435801515811461381257600080fd5b9350602085013561382281613383565b9250604085013561383281613383565b9150606085013561384281613383565b939692955090935050565b6000806000806080858703121561386357600080fd5b843561386e81613383565b935060208501359250604085013567ffffffffffffffff8082111561389257600080fd5b61389e888389016134c2565b935060608701359150808211156138b457600080fd5b506138c1878288016134c2565b91505092959194509250565b600080604083850312156138e057600080fd5b82359150602083013567ffffffffffffffff8111156138fe57600080fd5b61390a858286016134c2565b9150509250929050565b600181811c9082168061392857607f821691505b60208210810361394857634e487b7160e01b600052602260045260246000fd5b50919050565b6020808252818101527f4f776e61626c653a2063616c6c6572206973206e6f7420746865206f776e6572604082015260600190565b634e487b7160e01b600052601160045260246000fd5b600082198211156139ac576139ac613983565b500190565b6020808252602c908201527f4552433737373a2063616c6c6572206973206e6f7420616e206f70657261746f60408201526b39103337b9103437b63232b960a11b606082015260800190565b600082821015613a0f57613a0f613983565b500390565b6000600160ff1b8201613a2957613a29613983565b5060000390565b6000816000190483118215151615613a4a57613a4a613983565b500290565b634e487b7160e01b600052601260045260246000fd5b600082613a7457613a74613a4f565b500490565b600181815b80851115613ab4578160001904821115613a9a57613a9a613983565b80851615613aa757918102915b93841c9390800290613a7e565b509250929050565b600082613acb57506001610b89565b81613ad857506000610b89565b8160018114613aee5760028114613af857613b14565b6001915050610b89565b60ff841115613b0957613b09613983565b50506001821b610b89565b5060208310610133831016604e8410600b8410161715613b37575081810a610b89565b613b418383613a79565b8060001904821115613b5557613b55613983565b029392505050565b60006115e660ff841683613abc565b600082613b7b57613b7b613a4f565b500690565b6020808252602e908201527f496e697469616c697a61626c653a20636f6e747261637420697320616c72656160408201526d191e481a5b9a5d1a585b1a5e995960921b606082015260800190565b6020808252602b908201527f496e697469616c697a61626c653a20636f6e7472616374206973206e6f74206960408201526a6e697469616c697a696e6760a81b606082015260800190565b60008251613c2b818460208701613318565b9190910192915050565b634e487b7160e01b600052600160045260246000fd5b600060208284031215613c5d57600080fd5b5051919050565b60006001600160ff1b0381841382841380821686840486111615613c8a57613c8a613983565b600160ff1b6000871282811687830589121615613ca957613ca9613983565b60008712925087820587128484161615613cc557613cc5613983565b87850587128184161615613cdb57613cdb613983565b505050929093029392505050565b600080821280156001600160ff1b0384900385131615613d0b57613d0b613983565b600160ff1b8390038412811615613d2457613d24613983565b50500190565b7f416363657373436f6e74726f6c3a206163636f756e7420000000000000000000815260008351613d62816017850160208801613318565b7001034b99036b4b9b9b4b733903937b6329607d1b6017918401918201528351613d93816028840160208801613318565b01602801949350505050565b634e487b7160e01b600052603260045260246000fd5b600060018201613dc757613dc7613983565b5060010190565b838152606060208201526000613de76060830185613344565b8281036040840152613df98185613344565b9695505050505050565b600060208284031215613e1557600080fd5b81516115e681613383565b6001600160a01b0387811682528681166020830152851660408201526060810184905260c060808201819052600090613e5b90830185613344565b82810360a0840152613e6d8185613344565b9998505050505050505050565b600081613e8957613e89613983565b50600019019056fea2646970667358221220f2fd278da332c16d4d59f4849aeaf585cb9012aa4e6ba7f1d418fd0058921c5664736f6c634300080e0033",
  "immutableReferences": {},
  "source": "// contracts/SchnoodleV9.sol\r\n// SPDX-License-Identifier: MIT\r\npragma solidity ^0.8.0;\r\n\r\nimport \"./imports/SchnoodleV9Base.sol\";\r\nimport \"@schnoodle/contracts-upgradeable/access/AccessControlUpgradeable.sol\";\r\n\r\n/// @author Jason Payne (https://twitter.com/Neo42)\r\ncontract SchnoodleV9 is SchnoodleV9Base, AccessControlUpgradeable {\r\n    address private _schnoodleFarming;\r\n    address private _farmingFund;\r\n    uint256 private _sowRate;\r\n\r\n    bytes32 public constant LIQUIDITY = keccak256(\"LIQUIDITY\");\r\n    bytes32 public constant FARMING_CONTRACT = keccak256(\"FARMING_CONTRACT\");\r\n    bytes32 public constant LOCKED = keccak256(\"LOCKED\");\r\n    bytes32 public constant BRIDGE = keccak256(\"BRIDGE\");\r\n\r\n    address private _bridgeOwner;\r\n    mapping(address => mapping (uint256 => uint256)) private _tokensSent;\r\n    mapping(address => mapping (uint256 => uint256)) private _tokensReceived;\r\n    mapping(address => mapping (uint256 => uint256)) private _feesPaid;\r\n\r\n    function configure(bool testnet, address liquidityToken, address schnoodleFarming, address bridgeOwner) external onlyOwner {\r\n        if (testnet) {\r\n            _setupRole(DEFAULT_ADMIN_ROLE, owner());\r\n            _setupRole(LIQUIDITY, liquidityToken);\r\n            _setupRole(FARMING_CONTRACT, schnoodleFarming);\r\n            _schnoodleFarming = schnoodleFarming;\r\n            _farmingFund = address(uint160(uint256(keccak256(abi.encodePacked(block.timestamp, blockhash(block.number - 1))))));\r\n            _sowRate = 40;\r\n        }\r\n\r\n        _bridgeOwner = bridgeOwner;\r\n        configure(testnet);\r\n    }\r\n\r\n    // Transfer overrides\r\n\r\n    function _beforeTokenTransfer(address operator, address from, address to, uint256 amount) internal override {\r\n        // Ensure the sender has enough unlocked balance to perform the transfer\r\n        if (from != address(0)) {\r\n            uint256 standardAmount = _getStandardAmount(amount);\r\n            uint256 balance = balanceOf(from);\r\n            require(standardAmount > balance || standardAmount <= balance - lockedBalanceOf(from), \"Schnoodle: transfer amount exceeds unlocked balance\");\r\n            require(!hasRole(LOCKED, from));\r\n        }\r\n\r\n        super._beforeTokenTransfer(operator, from, to, amount);\r\n    }\r\n\r\n    function payFees(address to, uint256 amount, uint256 reflectedAmount, function(address, address, uint256) internal transferCallback) internal override {\r\n        super.payFees(to, amount, reflectedAmount, transferCallback);\r\n        payFund(to, _farmingFund, amount, _sowRate, transferCallback);\r\n    }\r\n\r\n    function isLiquidityToken(address account) internal view override returns(bool)\r\n    {\r\n        return hasRole(LIQUIDITY, account);\r\n    }\r\n\r\n    // Farming functions\r\n\r\n    function getFarmingFund() external view returns (address) {\r\n        return _farmingFund;\r\n    }\r\n\r\n    function changeSowRate(uint256 rate) external onlyOwner {\r\n        _sowRate = rate;\r\n        emit SowRateChanged(rate);\r\n    }\r\n\r\n    function getSowRate() external view returns (uint256) {\r\n        return _sowRate;\r\n    }\r\n\r\n    function farmingReward(address account, uint256 netReward, uint256 grossReward) external {\r\n        require(hasRole(FARMING_CONTRACT, _msgSender()));\r\n        _transferFromReflected(_farmingFund, account, _getReflectedAmount(netReward));\r\n\r\n        // Burn the unused part of the gross reward\r\n        _burn(_farmingFund, grossReward - netReward, \"\", \"\");\r\n    }\r\n\r\n    function unlockedBalanceOf(address account) external returns (uint256) {\r\n        return balanceOf(account) - lockedBalanceOf(account);\r\n    }\r\n\r\n    // Bridge functions\r\n\r\n    function getBridgeOwner() external view returns (address) {\r\n        return _bridgeOwner;\r\n    }\r\n\r\n    function sendTokens(uint256 networkId, uint256 amount) external {\r\n        burn(amount, \"\");\r\n        _tokensSent[_msgSender()][networkId] += amount;\r\n    }\r\n\r\n    function payFee(uint256 networkId) external payable {\r\n        _feesPaid[_msgSender()][networkId] += msg.value;\r\n        payable(_bridgeOwner).transfer(msg.value);\r\n    }\r\n\r\n    function receiveTokens(address account, uint256 networkId, uint256 amount, uint256 fee) external {\r\n        require(_msgSender() == _bridgeOwner, \"Schnoodle: Sender must be the bridge owner\");\r\n        require(_feesPaid[account][networkId] >= fee, \"Schnoodle: Insufficient fee paid\");\r\n\r\n        _feesPaid[account][networkId] -= fee;\r\n        _mint(account, amount);\r\n        _tokensReceived[account][networkId] += amount;\r\n    }\r\n\r\n    function tokensSent(address account, uint256 networkId) external view returns (uint256) {\r\n        return _tokensSent[account][networkId];\r\n    }\r\n\r\n    function tokensReceived(address account, uint256 networkId) external view returns (uint256) {\r\n        return _tokensReceived[account][networkId];\r\n    }\r\n\r\n    function feesPaid(address account, uint256 networkId) external view returns (uint256) {\r\n        return _feesPaid[account][networkId];\r\n    }\r\n\r\n    // Calls to the SchnoodleFarming proxy contract\r\n\r\n    function lockedBalanceOf(address account) private returns(uint256) {\r\n        if (_schnoodleFarming == address(0)) return 0;\r\n        (bool success, bytes memory result) = _schnoodleFarming.call(abi.encodeWithSignature(\"lockedBalanceOf(address)\", account));\r\n        assert(success);\r\n        return abi.decode(result, (uint256));\r\n    }\r\n\r\n    event SowRateChanged(uint256 rate);\r\n}\r\n",
  "sourcePath": "C:\\Users\\micro\\OneDrive - X-treem Software\\Development\\Projects\\Blockchain\\Schnoodle\\contracts\\contracts\\SchnoodleV9.sol",
  "compiler": {
    "name": "solc",
    "version": "0.8.14+commit.80d49f37.Emscripten.clang"
  },
  "schemaVersion": "3.4.3",
  "updatedAt": "2022-06-03T22:34:31.680Z",
  "devdoc": {
    "author": "Jason Payne (https://twitter.com/Neo42)",
    "kind": "dev",
    "methods": {
      "allowance(address,address)": {
        "details": "See {IERC20-allowance}. Note that operator and allowance concepts are orthogonal: operators may not have allowance, and accounts with allowance may not be operators themselves."
      },
      "approve(address,uint256)": {
        "details": "See {IERC20-approve}. NOTE: If `value` is the maximum `uint256`, the allowance is not updated on `transferFrom`. This is semantically equivalent to an infinite approval. Note that accounts cannot have allowance issued by their operators."
      },
      "authorizeOperator(address)": {
        "details": "See {IERC777-authorizeOperator}."
      },
      "burn(uint256,bytes)": {
        "details": "See {IERC777-burn}. Also emits a {IERC20-Transfer} event for ERC20 compatibility."
      },
      "decimals()": {
        "details": "See {ERC20-decimals}. Always returns 18, as per the [ERC777 EIP](https://eips.ethereum.org/EIPS/eip-777#backward-compatibility)."
      },
      "defaultOperators()": {
        "details": "See {IERC777-defaultOperators}."
      },
      "getRoleAdmin(bytes32)": {
        "details": "Returns the admin role that controls `role`. See {grantRole} and {revokeRole}. To change a role's admin, use {_setRoleAdmin}."
      },
      "grantRole(bytes32,address)": {
        "details": "Grants `role` to `account`. If `account` had not been already granted `role`, emits a {RoleGranted} event. Requirements: - the caller must have ``role``'s admin role."
      },
      "granularity()": {
        "details": "See {IERC777-granularity}. This implementation always returns `1`."
      },
      "hasRole(bytes32,address)": {
        "details": "Returns `true` if `account` has been granted `role`."
      },
      "isOperatorFor(address,address)": {
        "details": "See {IERC777-isOperatorFor}."
      },
      "name()": {
        "details": "See {IERC777-name}."
      },
      "operatorBurn(address,uint256,bytes,bytes)": {
        "details": "See {IERC777-operatorBurn}. Emits {Burned} and {IERC20-Transfer} events."
      },
      "operatorSend(address,address,uint256,bytes,bytes)": {
        "details": "See {IERC777-operatorSend}. Emits {Sent} and {IERC20-Transfer} events."
      },
      "owner()": {
        "details": "Returns the address of the current owner."
      },
      "renounceOwnership()": {
        "details": "Leaves the contract without owner. It will not be possible to call `onlyOwner` functions anymore. Can only be called by the current owner. NOTE: Renouncing ownership will leave the contract without an owner, thereby removing any functionality that is only available to the owner."
      },
      "renounceRole(bytes32,address)": {
        "details": "Revokes `role` from the calling account. Roles are often managed via {grantRole} and {revokeRole}: this function's purpose is to provide a mechanism for accounts to lose their privileges if they are compromised (such as when a trusted device is misplaced). If the calling account had been revoked `role`, emits a {RoleRevoked} event. Requirements: - the caller must be `account`."
      },
      "revokeOperator(address)": {
        "details": "See {IERC777-revokeOperator}."
      },
      "revokeRole(bytes32,address)": {
        "details": "Revokes `role` from `account`. If `account` had been granted `role`, emits a {RoleRevoked} event. Requirements: - the caller must have ``role``'s admin role."
      },
      "send(address,uint256,bytes)": {
        "details": "See {IERC777-send}. Also emits a {IERC20-Transfer} event for ERC20 compatibility."
      },
      "supportsInterface(bytes4)": {
        "details": "See {IERC165-supportsInterface}."
      },
      "symbol()": {
        "details": "See {IERC777-symbol}."
      },
      "totalSupply()": {
        "details": "See {IERC777-totalSupply}."
      },
      "transfer(address,uint256)": {
        "details": "See {IERC20-transfer}. Unlike `send`, `recipient` is _not_ required to implement the {IERC777Recipient} interface if it is a contract. Also emits a {Sent} event."
      },
      "transferFrom(address,address,uint256)": {
        "details": "See {IERC20-transferFrom}. NOTE: Does not update the allowance if the current allowance is the maximum `uint256`. Note that operator and allowance concepts are orthogonal: operators cannot call `transferFrom` (unless they have allowance), and accounts with allowance cannot call `operatorSend` (unless they are operators). Emits {Sent}, {IERC20-Transfer} and {IERC20-Approval} events."
      },
      "transferOwnership(address)": {
        "details": "Transfers ownership of the contract to a new account (`newOwner`). Can only be called by the current owner."
      }
    },
    "version": 1
  },
  "userdoc": {
    "kind": "user",
    "methods": {},
    "version": 1
  }
}