{
  "contractName": "SchnoodleTimelockFactory",
  "abi": [
    {
      "inputs": [],
      "stateMutability": "nonpayable",
      "type": "constructor"
    },
    {
      "inputs": [
        {
          "internalType": "contract IERC20Upgradeable",
          "name": "token",
          "type": "address"
        },
        {
          "internalType": "address",
          "name": "beneficiary",
          "type": "address"
        },
        {
          "internalType": "uint256",
          "name": "releaseTime",
          "type": "uint256"
        }
      ],
      "name": "create",
      "outputs": [
        {
          "internalType": "address",
          "name": "",
          "type": "address"
        }
      ],
      "stateMutability": "nonpayable",
      "type": "function"
    }
  ],
  "bytecode": "0x60a060405234801561001057600080fd5b5060405161001d9061004b565b604051809103906000f080158015610039573d6000803e3d6000fd5b506001600160a01b0316608052610058565b6108f7806102a483390190565b6080516102326100726000396000606701526102326000f3fe608060405234801561001057600080fd5b506004361061002b5760003560e01c8063ffe5725f14610030575b600080fd5b61004361003e3660046101bb565b61005f565b6040516001600160a01b03909116815260200160405180910390f35b60008061008b7f0000000000000000000000000000000000000000000000000000000000000000610102565b6040516305e52ecf60e21b81526001600160a01b03878116600483015286811660248301526044820186905291925090821690631794bb3c90606401600060405180830381600087803b1580156100e157600080fd5b505af11580156100f5573d6000803e3d6000fd5b5092979650505050505050565b6000604051733d602d80600a3d3981f3363d3d373d3d3d363d7360601b81528260601b60148201526e5af43d82803e903d91602b57fd5bf360881b60288201526037816000f09150506001600160a01b03811661019e5760405162461bcd60e51b8152602060048201526016602482015275115490cc4c4d8dce8818dc99585d194819985a5b195960521b604482015260640160405180910390fd5b919050565b6001600160a01b03811681146101b857600080fd5b50565b6000806000606084860312156101d057600080fd5b83356101db816101a3565b925060208401356101eb816101a3565b92959294505050604091909101359056fea2646970667358221220b488808777e036451adf2ab48b9623bc3c9dc3077d0cbaf4277835acdac423f964736f6c634300080f0033608060405234801561001057600080fd5b506108d7806100206000396000f3fe608060405234801561001057600080fd5b50600436106100575760003560e01c80631794bb3c1461005c57806338af3eed1461007157806386d1a69f1461009b578063b91d4001146100a3578063fc0c546a146100b4575b600080fd5b61006f61006a366004610711565b6100cb565b005b6001546001600160a01b03165b6040516001600160a01b0390911681526020015b60405180910390f35b61006f610146565b600254604051908152602001610092565b6000546201000090046001600160a01b031661007e565b60006100d760016102c4565b905080156100ef576000805461ff0019166101001790555b6100fa84848461034c565b8015610140576000805461ff0019169055604051600181527f7f26b83ff96e1f2b6a682f133852f6798a09c465da95921460cefb38474024989060200160405180910390a15b50505050565b6002544210156101b85760405162461bcd60e51b815260206004820152603260248201527f546f6b656e54696d656c6f636b3a2063757272656e742074696d65206973206260448201527165666f72652072656c656173652074696d6560701b60648201526084015b60405180910390fd5b600080546201000090046001600160a01b03166040516370a0823160e01b81523060048201526001600160a01b0391909116906370a0823190602401602060405180830381865afa158015610211573d6000803e3d6000fd5b505050506040513d601f19601f820116820180604052508101906102359190610752565b9050600081116102935760405162461bcd60e51b815260206004820152602360248201527f546f6b656e54696d656c6f636b3a206e6f20746f6b656e7320746f2072656c6560448201526261736560e81b60648201526084016101af565b6102c16102a86001546001600160a01b031690565b6000546201000090046001600160a01b03169083610383565b50565b60008054610100900460ff161561030b578160ff1660011480156102e75750303b155b6103035760405162461bcd60e51b81526004016101af9061076b565b506000919050565b60005460ff8084169116106103325760405162461bcd60e51b81526004016101af9061076b565b506000805460ff191660ff92909216919091179055600190565b600054610100900460ff166103735760405162461bcd60e51b81526004016101af906107b9565b61037e8383836103d5565b505050565b604080516001600160a01b038416602482015260448082018490528251808303909101815260649091019091526020810180516001600160e01b031663a9059cbb60e01b17905261037e9084906104a7565b600054610100900460ff166103fc5760405162461bcd60e51b81526004016101af906107b9565b4281116104665760405162461bcd60e51b815260206004820152603260248201527f546f6b656e54696d656c6f636b3a2072656c656173652074696d65206973206260448201527165666f72652063757272656e742074696d6560701b60648201526084016101af565b6000805462010000600160b01b031916620100006001600160a01b0395861602179055600180546001600160a01b0319169290931691909117909155600255565b60006104fc826040518060400160405280602081526020017f5361666545524332303a206c6f772d6c6576656c2063616c6c206661696c6564815250856001600160a01b03166105799092919063ffffffff16565b80519091501561037e578080602001905181019061051a9190610804565b61037e5760405162461bcd60e51b815260206004820152602a60248201527f5361666545524332303a204552433230206f7065726174696f6e20646964206e6044820152691bdd081cdd58d8d9595960b21b60648201526084016101af565b60606105888484600085610592565b90505b9392505050565b6060824710156105f35760405162461bcd60e51b815260206004820152602660248201527f416464726573733a20696e73756666696369656e742062616c616e636520666f6044820152651c8818d85b1b60d21b60648201526084016101af565b6001600160a01b0385163b61064a5760405162461bcd60e51b815260206004820152601d60248201527f416464726573733a2063616c6c20746f206e6f6e2d636f6e747261637400000060448201526064016101af565b600080866001600160a01b031685876040516106669190610852565b60006040518083038185875af1925050503d80600081146106a3576040519150601f19603f3d011682016040523d82523d6000602084013e6106a8565b606091505b50915091506106b88282866106c3565b979650505050505050565b606083156106d257508161058b565b8251156106e25782518084602001fd5b8160405162461bcd60e51b81526004016101af919061086e565b6001600160a01b03811681146102c157600080fd5b60008060006060848603121561072657600080fd5b8335610731816106fc565b92506020840135610741816106fc565b929592945050506040919091013590565b60006020828403121561076457600080fd5b5051919050565b6020808252602e908201527f496e697469616c697a61626c653a20636f6e747261637420697320616c72656160408201526d191e481a5b9a5d1a585b1a5e995960921b606082015260800190565b6020808252602b908201527f496e697469616c697a61626c653a20636f6e7472616374206973206e6f74206960408201526a6e697469616c697a696e6760a81b606082015260800190565b60006020828403121561081657600080fd5b8151801515811461058b57600080fd5b60005b83811015610841578181015183820152602001610829565b838111156101405750506000910152565b60008251610864818460208701610826565b9190910192915050565b602081526000825180602084015261088d816040850160208701610826565b601f01601f1916919091016040019291505056fea2646970667358221220d54bac8a4acc4f6179a3e178e9cf297d4cddd7d8ba9ea0d76399c785f926f09564736f6c634300080f0033",
  "immutableReferences": {
    "13265": [
      {
        "length": 32,
        "start": 103
      }
    ]
  },
  "source": "// contracts/SchnoodleTimelockFactory.sol\n// SPDX-License-Identifier: MIT\npragma solidity ^0.8.0;\n\nimport \"./imports/SchnoodleTimelock.sol\";\nimport \"@openzeppelin/contracts/proxy/Clones.sol\";\n\ncontract SchnoodleTimelockFactory {\n    address immutable schnoodleTimelock;\n\n    constructor() {\n        schnoodleTimelock = address(new SchnoodleTimelock());\n    }\n\n    function create(IERC20Upgradeable token, address beneficiary, uint256 releaseTime) external returns (address) {\n        address clone = Clones.clone(schnoodleTimelock);\n        SchnoodleTimelock(clone).initialize(token, beneficiary, releaseTime);\n        return clone;\n    }\n}\n",
  "sourcePath": "C:\\Users\\micro\\OneDrive - X-treem Software\\Development\\Projects\\Blockchain\\Schnoodle\\contracts\\contracts\\SchnoodleTimelockFactory.sol",
  "compiler": {
    "name": "solc",
    "version": "0.8.15+commit.e14f2714.Emscripten.clang"
  },
  "schemaVersion": "3.4.7",
  "updatedAt": "2022-07-18T23:30:59.113Z",
  "networkType": "ethereum",
  "devdoc": {
    "kind": "dev",
    "methods": {},
    "version": 1
  },
  "userdoc": {
    "kind": "user",
    "methods": {},
    "version": 1
  }
}