{
  "contractName": "SchnoodleV6",
  "abi": [
    {
      "anonymous": false,
      "inputs": [
        {
          "indexed": true,
          "internalType": "address",
          "name": "owner",
          "type": "address"
        },
        {
          "indexed": true,
          "internalType": "address",
          "name": "spender",
          "type": "address"
        },
        {
          "indexed": false,
          "internalType": "uint256",
          "name": "value",
          "type": "uint256"
        }
      ],
      "name": "Approval",
      "type": "event"
    },
    {
      "anonymous": false,
      "inputs": [
        {
          "indexed": true,
          "internalType": "address",
          "name": "operator",
          "type": "address"
        },
        {
          "indexed": true,
          "internalType": "address",
          "name": "tokenHolder",
          "type": "address"
        }
      ],
      "name": "AuthorizedOperator",
      "type": "event"
    },
    {
      "anonymous": false,
      "inputs": [
        {
          "indexed": true,
          "internalType": "address",
          "name": "operator",
          "type": "address"
        },
        {
          "indexed": true,
          "internalType": "address",
          "name": "from",
          "type": "address"
        },
        {
          "indexed": false,
          "internalType": "uint256",
          "name": "amount",
          "type": "uint256"
        },
        {
          "indexed": false,
          "internalType": "bytes",
          "name": "data",
          "type": "bytes"
        },
        {
          "indexed": false,
          "internalType": "bytes",
          "name": "operatorData",
          "type": "bytes"
        }
      ],
      "name": "Burned",
      "type": "event"
    },
    {
      "anonymous": false,
      "inputs": [
        {
          "indexed": true,
          "internalType": "address",
          "name": "account",
          "type": "address"
        },
        {
          "indexed": false,
          "internalType": "uint256",
          "name": "rate",
          "type": "uint256"
        }
      ],
      "name": "EleemosynaryChanged",
      "type": "event"
    },
    {
      "anonymous": false,
      "inputs": [
        {
          "indexed": false,
          "internalType": "uint256",
          "name": "rate",
          "type": "uint256"
        }
      ],
      "name": "FeeRateChanged",
      "type": "event"
    },
    {
      "anonymous": false,
      "inputs": [
        {
          "indexed": true,
          "internalType": "address",
          "name": "operator",
          "type": "address"
        },
        {
          "indexed": true,
          "internalType": "address",
          "name": "to",
          "type": "address"
        },
        {
          "indexed": false,
          "internalType": "uint256",
          "name": "amount",
          "type": "uint256"
        },
        {
          "indexed": false,
          "internalType": "bytes",
          "name": "data",
          "type": "bytes"
        },
        {
          "indexed": false,
          "internalType": "bytes",
          "name": "operatorData",
          "type": "bytes"
        }
      ],
      "name": "Minted",
      "type": "event"
    },
    {
      "anonymous": false,
      "inputs": [
        {
          "indexed": true,
          "internalType": "address",
          "name": "previousOwner",
          "type": "address"
        },
        {
          "indexed": true,
          "internalType": "address",
          "name": "newOwner",
          "type": "address"
        }
      ],
      "name": "OwnershipTransferred",
      "type": "event"
    },
    {
      "anonymous": false,
      "inputs": [
        {
          "indexed": true,
          "internalType": "address",
          "name": "operator",
          "type": "address"
        },
        {
          "indexed": true,
          "internalType": "address",
          "name": "tokenHolder",
          "type": "address"
        }
      ],
      "name": "RevokedOperator",
      "type": "event"
    },
    {
      "anonymous": false,
      "inputs": [
        {
          "indexed": false,
          "internalType": "uint256",
          "name": "limit",
          "type": "uint256"
        }
      ],
      "name": "SellLimitChanged",
      "type": "event"
    },
    {
      "anonymous": false,
      "inputs": [
        {
          "indexed": false,
          "internalType": "uint256",
          "name": "blockTimestamp",
          "type": "uint256"
        },
        {
          "indexed": false,
          "internalType": "int256",
          "name": "amount",
          "type": "int256"
        }
      ],
      "name": "SellQuotaChanged",
      "type": "event"
    },
    {
      "anonymous": false,
      "inputs": [
        {
          "indexed": true,
          "internalType": "address",
          "name": "operator",
          "type": "address"
        },
        {
          "indexed": true,
          "internalType": "address",
          "name": "from",
          "type": "address"
        },
        {
          "indexed": true,
          "internalType": "address",
          "name": "to",
          "type": "address"
        },
        {
          "indexed": false,
          "internalType": "uint256",
          "name": "amount",
          "type": "uint256"
        },
        {
          "indexed": false,
          "internalType": "bytes",
          "name": "data",
          "type": "bytes"
        },
        {
          "indexed": false,
          "internalType": "bytes",
          "name": "operatorData",
          "type": "bytes"
        }
      ],
      "name": "Sent",
      "type": "event"
    },
    {
      "anonymous": false,
      "inputs": [
        {
          "indexed": true,
          "internalType": "address",
          "name": "from",
          "type": "address"
        },
        {
          "indexed": true,
          "internalType": "address",
          "name": "to",
          "type": "address"
        },
        {
          "indexed": false,
          "internalType": "uint256",
          "name": "value",
          "type": "uint256"
        }
      ],
      "name": "Transfer",
      "type": "event"
    },
    {
      "inputs": [
        {
          "internalType": "address",
          "name": "operator",
          "type": "address"
        }
      ],
      "name": "authorizeOperator",
      "outputs": [],
      "stateMutability": "nonpayable",
      "type": "function"
    },
    {
      "inputs": [
        {
          "internalType": "uint256",
          "name": "amount",
          "type": "uint256"
        },
        {
          "internalType": "bytes",
          "name": "data",
          "type": "bytes"
        }
      ],
      "name": "burn",
      "outputs": [],
      "stateMutability": "nonpayable",
      "type": "function"
    },
    {
      "inputs": [],
      "name": "decimals",
      "outputs": [
        {
          "internalType": "uint8",
          "name": "",
          "type": "uint8"
        }
      ],
      "stateMutability": "pure",
      "type": "function"
    },
    {
      "inputs": [],
      "name": "defaultOperators",
      "outputs": [
        {
          "internalType": "address[]",
          "name": "",
          "type": "address[]"
        }
      ],
      "stateMutability": "view",
      "type": "function"
    },
    {
      "inputs": [],
      "name": "granularity",
      "outputs": [
        {
          "internalType": "uint256",
          "name": "",
          "type": "uint256"
        }
      ],
      "stateMutability": "view",
      "type": "function"
    },
    {
      "inputs": [
        {
          "internalType": "address",
          "name": "operator",
          "type": "address"
        },
        {
          "internalType": "address",
          "name": "tokenHolder",
          "type": "address"
        }
      ],
      "name": "isOperatorFor",
      "outputs": [
        {
          "internalType": "bool",
          "name": "",
          "type": "bool"
        }
      ],
      "stateMutability": "view",
      "type": "function"
    },
    {
      "inputs": [],
      "name": "name",
      "outputs": [
        {
          "internalType": "string",
          "name": "",
          "type": "string"
        }
      ],
      "stateMutability": "view",
      "type": "function"
    },
    {
      "inputs": [
        {
          "internalType": "address",
          "name": "account",
          "type": "address"
        },
        {
          "internalType": "uint256",
          "name": "amount",
          "type": "uint256"
        },
        {
          "internalType": "bytes",
          "name": "data",
          "type": "bytes"
        },
        {
          "internalType": "bytes",
          "name": "operatorData",
          "type": "bytes"
        }
      ],
      "name": "operatorBurn",
      "outputs": [],
      "stateMutability": "nonpayable",
      "type": "function"
    },
    {
      "inputs": [
        {
          "internalType": "address",
          "name": "sender",
          "type": "address"
        },
        {
          "internalType": "address",
          "name": "recipient",
          "type": "address"
        },
        {
          "internalType": "uint256",
          "name": "amount",
          "type": "uint256"
        },
        {
          "internalType": "bytes",
          "name": "data",
          "type": "bytes"
        },
        {
          "internalType": "bytes",
          "name": "operatorData",
          "type": "bytes"
        }
      ],
      "name": "operatorSend",
      "outputs": [],
      "stateMutability": "nonpayable",
      "type": "function"
    },
    {
      "inputs": [],
      "name": "owner",
      "outputs": [
        {
          "internalType": "address",
          "name": "",
          "type": "address"
        }
      ],
      "stateMutability": "view",
      "type": "function"
    },
    {
      "inputs": [],
      "name": "renounceOwnership",
      "outputs": [],
      "stateMutability": "nonpayable",
      "type": "function"
    },
    {
      "inputs": [
        {
          "internalType": "address",
          "name": "operator",
          "type": "address"
        }
      ],
      "name": "revokeOperator",
      "outputs": [],
      "stateMutability": "nonpayable",
      "type": "function"
    },
    {
      "inputs": [
        {
          "internalType": "address",
          "name": "recipient",
          "type": "address"
        },
        {
          "internalType": "uint256",
          "name": "amount",
          "type": "uint256"
        },
        {
          "internalType": "bytes",
          "name": "data",
          "type": "bytes"
        }
      ],
      "name": "send",
      "outputs": [],
      "stateMutability": "nonpayable",
      "type": "function"
    },
    {
      "inputs": [],
      "name": "symbol",
      "outputs": [
        {
          "internalType": "string",
          "name": "",
          "type": "string"
        }
      ],
      "stateMutability": "view",
      "type": "function"
    },
    {
      "inputs": [
        {
          "internalType": "address",
          "name": "newOwner",
          "type": "address"
        }
      ],
      "name": "transferOwnership",
      "outputs": [],
      "stateMutability": "nonpayable",
      "type": "function"
    },
    {
      "inputs": [
        {
          "internalType": "string",
          "name": "name",
          "type": "string"
        },
        {
          "internalType": "string",
          "name": "symbol",
          "type": "string"
        },
        {
          "internalType": "address[]",
          "name": "defaultOperators",
          "type": "address[]"
        },
        {
          "internalType": "uint256",
          "name": "initialSupply",
          "type": "uint256"
        },
        {
          "internalType": "address",
          "name": "owner",
          "type": "address"
        }
      ],
      "name": "initialize",
      "outputs": [],
      "stateMutability": "nonpayable",
      "type": "function"
    },
    {
      "inputs": [
        {
          "internalType": "uint256",
          "name": "initialTokens",
          "type": "uint256"
        },
        {
          "internalType": "address",
          "name": "serviceAccount",
          "type": "address"
        }
      ],
      "name": "initialize",
      "outputs": [],
      "stateMutability": "nonpayable",
      "type": "function"
    },
    {
      "inputs": [],
      "name": "totalSupply",
      "outputs": [
        {
          "internalType": "uint256",
          "name": "",
          "type": "uint256"
        }
      ],
      "stateMutability": "view",
      "type": "function"
    },
    {
      "inputs": [
        {
          "internalType": "address",
          "name": "account",
          "type": "address"
        }
      ],
      "name": "balanceOf",
      "outputs": [
        {
          "internalType": "uint256",
          "name": "",
          "type": "uint256"
        }
      ],
      "stateMutability": "view",
      "type": "function"
    },
    {
      "inputs": [
        {
          "internalType": "address",
          "name": "recipient",
          "type": "address"
        },
        {
          "internalType": "uint256",
          "name": "amount",
          "type": "uint256"
        }
      ],
      "name": "transfer",
      "outputs": [
        {
          "internalType": "bool",
          "name": "",
          "type": "bool"
        }
      ],
      "stateMutability": "nonpayable",
      "type": "function"
    },
    {
      "inputs": [
        {
          "internalType": "address",
          "name": "holder",
          "type": "address"
        },
        {
          "internalType": "address",
          "name": "spender",
          "type": "address"
        }
      ],
      "name": "allowance",
      "outputs": [
        {
          "internalType": "uint256",
          "name": "",
          "type": "uint256"
        }
      ],
      "stateMutability": "view",
      "type": "function"
    },
    {
      "inputs": [
        {
          "internalType": "address",
          "name": "spender",
          "type": "address"
        },
        {
          "internalType": "uint256",
          "name": "value",
          "type": "uint256"
        }
      ],
      "name": "approve",
      "outputs": [
        {
          "internalType": "bool",
          "name": "",
          "type": "bool"
        }
      ],
      "stateMutability": "nonpayable",
      "type": "function"
    },
    {
      "inputs": [
        {
          "internalType": "address",
          "name": "sender",
          "type": "address"
        },
        {
          "internalType": "address",
          "name": "recipient",
          "type": "address"
        },
        {
          "internalType": "uint256",
          "name": "amount",
          "type": "uint256"
        }
      ],
      "name": "transferFrom",
      "outputs": [
        {
          "internalType": "bool",
          "name": "",
          "type": "bool"
        }
      ],
      "stateMutability": "nonpayable",
      "type": "function"
    },
    {
      "inputs": [
        {
          "internalType": "uint256",
          "name": "rate",
          "type": "uint256"
        }
      ],
      "name": "changeFeeRate",
      "outputs": [],
      "stateMutability": "nonpayable",
      "type": "function"
    },
    {
      "inputs": [
        {
          "internalType": "address",
          "name": "account",
          "type": "address"
        },
        {
          "internalType": "uint256",
          "name": "rate",
          "type": "uint256"
        }
      ],
      "name": "changeEleemosynary",
      "outputs": [],
      "stateMutability": "nonpayable",
      "type": "function"
    },
    {
      "inputs": [
        {
          "internalType": "uint256",
          "name": "limit",
          "type": "uint256"
        }
      ],
      "name": "changeSellLimit",
      "outputs": [],
      "stateMutability": "nonpayable",
      "type": "function"
    },
    {
      "inputs": [],
      "name": "maintenance",
      "outputs": [],
      "stateMutability": "nonpayable",
      "type": "function"
    }
  ],
  "bytecode": "0x608060405234801561001057600080fd5b50612d14806100206000396000f3fe608060405234801561001057600080fd5b50600436106101a95760003560e01c8063768f950a116100f9578063d95b637111610097578063f2fde38b11610071578063f2fde38b14610358578063fad8b32a1461036b578063fc673c4f1461037e578063fe9d93031461039157600080fd5b8063d95b63711461031f578063da35a26f14610332578063dd62ed3e1461034557600080fd5b806395d89b41116100d357806395d89b41146102de5780639bd9bbc6146102e6578063a9059cbb146102f9578063affca9321461030c57600080fd5b8063768f950a1461029d5780638da5cb5b146102b0578063959b8c3f146102cb57600080fd5b80632f5d14671161016657806362ad1b831161014057806362ad1b83146102675780636c376cc51461027a57806370a0823114610282578063715018a61461029557600080fd5b80632f5d14671461023e578063313ce56714610251578063556f0dc71461026057600080fd5b806306e48538146101ae57806306fdde03146101cc578063095ea7b3146101e15780630eda72751461020457806318160ddd1461021957806323b872dd1461022b575b600080fd5b6101b66103a4565b6040516101c39190612284565b60405180910390f35b6101d4610406565b6040516101c3919061231e565b6101f46101ef366004612356565b61048f565b60405190151581526020016101c3565b610217610212366004612382565b6104ac565b005b60c9545b6040519081526020016101c3565b6101f461023936600461239b565b61051b565b61021761024c366004612356565b61058b565b604051601281526020016101c3565b600161021d565b610217610275366004612493565b61060f565b61021761064b565b61021d610290366004612526565b61075a565b610217610806565b6102176102ab366004612543565b61083c565b6097546040516001600160a01b0390911681526020016101c3565b6102176102d9366004612526565b6108c0565b6101d46109dd565b6102176102f4366004612656565b6109ec565b6101f4610307366004612356565b610a0f565b61021761031a366004612382565b610a7d565b6101f461032d3660046126af565b610adc565b6102176103403660046126e8565b610b7d565b61021d6103533660046126af565b610c7f565b610217610366366004612526565b610cb9565b610217610379366004612526565b610d54565b61021761038c36600461270d565b610e6f565b61021761039f36600461278d565b610ea7565b606060378054806020026020016040519081016040528092919081815260200182805480156103fc57602002820191906000526020600020905b81546001600160a01b031681526001909101906020018083116103de575b5050505050905090565b606060358054610415906127d4565b80601f0160208091040260200160405190810160405280929190818152602001828054610441906127d4565b80156103fc5780601f10610463576101008083540402835291602001916103fc565b820191906000526020600020905b81548152906001019060200180831161047157509395945050505050565b60006104a38361049e84610ec6565b610eda565b90505b92915050565b6097546001600160a01b031633146104df5760405162461bcd60e51b81526004016104d69061280e565b60405180910390fd5b60cd8190556040518181527f76fd934ecad57bdc4ba5c975ea11f9e511a77593415a6276b03877b9a2dbe801906020015b60405180910390a150565b60008061052783610ec6565b90506000610536868684610ef2565b9050846001600160a01b0316866001600160a01b0316600080516020612cbf8339815191528660405161056b91815260200190565b60405180910390a361058286868685611020611042565b95945050505050565b6097546001600160a01b031633146105b55760405162461bcd60e51b81526004016104d69061280e565b60cb80546001600160a01b0319166001600160a01b03841690811790915560cc8290556040518281527f14771002f2414c27e60fe966b41bcb8004589b44c52a1f73016757cc92bf5ada9060200160405180910390a25050565b6106193386610adc565b6106355760405162461bcd60e51b81526004016104d690612843565b61064485858585856001611237565b5050505050565b6097546001600160a01b031633146106755760405162461bcd60e51b81526004016104d69061280e565b605060ca557379a1dda6625dc4842625ef05591e4f2322232120735d22e32398cae8f8448df5491b50c39b7f271016733443036e7c2dfc1f09a309c96b502b4f20f32e4273a51dc67ec00a9b082ec1ebc4a901a9cb447e30e460006106d98461075a565b6106e28661075a565b6106ec91906128a5565b905060006106f98361075a565b6107028561075a565b61070c90846128a5565b61071691906128a5565b905060006107376107286003846128d3565b61073290856128e7565b610ec6565b905061074587335b836112a5565b610750878583610ef2565b5050505050505050565b6001600160a01b0381166000908152603360205260408120546034548111156107ed576040805162461bcd60e51b81526020600482015260248101919091527f5363686e6f6f646c653a205265666c65637465642062616c616e6365206d757360448201527f74206265206c657373207468616e20746f74616c207265666c656374696f6e7360648201526084016104d6565b6107f56113cc565b6107ff90826128d3565b9392505050565b6097546001600160a01b031633146108305760405162461bcd60e51b81526004016104d69061280e565b61083a60006113e9565b565b600054610100900460ff166108575760005460ff161561085b565b303b155b6108775760405162461bcd60e51b81526004016104d6906128fe565b600054610100900460ff16158015610899576000805461ffff19166101011790555b6108a6868686868661143b565b80156108b8576000805461ff00191690555b505050505050565b6001600160a01b03811633036109245760405162461bcd60e51b8152602060048201526024808201527f4552433737373a20617574686f72697a696e672073656c66206173206f70657260448201526330ba37b960e11b60648201526084016104d6565b6001600160a01b03811660009081526038602052604090205460ff161561097557336000908152603a602090815260408083206001600160a01b03851684529091529020805460ff191690556109a4565b3360009081526039602090815260408083206001600160a01b03851684529091529020805460ff191660011790555b60405133906001600160a01b038316907ff4caeb2d6ca8932a215a353d0703c326ec2d81fc68170f320eb2ab49e9df61f990600090a350565b606060368054610415906127d4565b610a0a33848484604051806020016040528060008152506001611237565b505050565b600080610a1b83610ec6565b90506000610a29858361147a565b90506001600160a01b038516336001600160a01b0316600080516020612cbf83398151915286604051610a5e91815260200190565b60405180910390a3610a7533868685611020611042565b949350505050565b6097546001600160a01b03163314610aa75760405162461bcd60e51b81526004016104d69061280e565b60ca8190556040518181527fdd72d2879718489eb363ba6099239f89d49542612862c71545503d35cfddda4690602001610510565b6000816001600160a01b0316836001600160a01b03161480610b4757506001600160a01b03831660009081526038602052604090205460ff168015610b4757506001600160a01b038083166000908152603a602090815260408083209387168352929052205460ff16155b806104a35750506001600160a01b0390811660009081526039602090815260408083209490931682529290925290205460ff1690565b600054610100900460ff16610b985760005460ff1615610b9c565b303b155b610bb85760405162461bcd60e51b81526004016104d6906128fe565b600054610100900460ff16158015610bda576000805461ffff19166101011790555b610be261152d565b610bee6012600a612a30565b610bf89084612a3f565b60c981905560408051808201825260098152685363686e6f6f646c6560b81b60208083019190915282518084018452600581526414d393d3d160da1b81830152835160008152918201909352610c6993919291610c5790600019612a5e565b610c63906000196128e7565b8661083c565b8015610a0a576000805461ff0019169055505050565b6000610c896113cc565b6001600160a01b038085166000908152603b60209081526040808320938716835292905220546104a391906128d3565b6097546001600160a01b03163314610ce35760405162461bcd60e51b81526004016104d69061280e565b6001600160a01b038116610d485760405162461bcd60e51b815260206004820152602660248201527f4f776e61626c653a206e6577206f776e657220697320746865207a65726f206160448201526564647265737360d01b60648201526084016104d6565b610d51816113e9565b50565b336001600160a01b03821603610db65760405162461bcd60e51b815260206004820152602160248201527f4552433737373a207265766f6b696e672073656c66206173206f70657261746f6044820152603960f91b60648201526084016104d6565b6001600160a01b03811660009081526038602052604090205460ff1615610e0a57336000908152603a602090815260408083206001600160a01b03851684529091529020805460ff19166001179055610e36565b3360009081526039602090815260408083206001600160a01b03851684529091529020805460ff191690555b60405133906001600160a01b038316907f50546e66e5f44d728365dc3908c63bc5cfeeab470722c1677e3073a6ac294aa190600090a350565b610e793385610adc565b610e955760405162461bcd60e51b81526004016104d690612843565b610ea18484848461155c565b50505050565b610ec23383836040518060200160405280600081525061155c565b5050565b6000610ed06113cc565b6104a69083612a3f565b600033610ee88185856112a5565b5060019392505050565b60006001600160a01b038316610f1a5760405162461bcd60e51b81526004016104d690612a72565b6001600160a01b038416610f7f5760405162461bcd60e51b815260206004820152602660248201527f4552433737373a207472616e736665722066726f6d20746865207a65726f206160448201526564647265737360d01b60648201526084016104d6565b6000339050610fb081868686604051806020016040528060008152506040518060200160405280600081525061158d565b610fbb8582856116b4565b610fe7818686866040518060200160405280600081525060405180602001604052806000815250611728565b611015818686866040518060200160405280600081525060405180602001604052806000815250600061187c565b506001949350505050565b61102a823361073f565b60cb54610a0a9083906001600160a01b031683610ef2565b730f6b0960d2569f505126341085ed7f0342b67dae6001600160a01b03861681148061107f5750806001600160a01b0316856001600160a01b0316145b156108b85760cd5415611178574261109a62015180826128e7565b60ce5410156110eb5760ce81905560cd5460cf8190556040805183815260208101929092527f6326273a6785f513768f2d48c9379925280b1265fc536c9ba0d40d213994064b910160405180910390a15b84826001600160a01b0316886001600160a01b03161461110d57600019611110565b60015b61111a9190612ab6565b60cf805460009061112c908490612b3b565b909155505060ce5460cf546040517f6326273a6785f513768f2d48c9379925280b1265fc536c9ba0d40d213994064b9261116e92908252602082015260400190565b60405180910390a1505b806001600160a01b0316856001600160a01b0316146111975750610644565b6111a2858585611a37565b60cb546001600160a01b0316156108b85760006103e860cc54866111c69190612a3f565b6111d091906128d3565b905060006111dd82610ec6565b90506111ed87828663ffffffff16565b60cb546040518381526001600160a01b0391821691891690600080516020612cbf8339815191529060200160405180910390a360cb54610750906001600160a01b03168383611a37565b600061124285610ec6565b9050611252878783878787611b22565b856001600160a01b0316876001600160a01b0316600080516020612cbf8339815191528760405161128591815260200190565b60405180910390a361129c87878784611c05611042565b50505050505050565b6001600160a01b0383166113095760405162461bcd60e51b815260206004820152602560248201527f4552433737373a20617070726f76652066726f6d20746865207a65726f206164604482015264647265737360d81b60648201526084016104d6565b6001600160a01b03821661136b5760405162461bcd60e51b815260206004820152602360248201527f4552433737373a20617070726f766520746f20746865207a65726f206164647260448201526265737360e81b60648201526084016104d6565b6001600160a01b038381166000818152603b602090815260408083209487168084529482529182902085905590518481527f8c5be1e5ebec7d5bd14f71427d1e84f3dd0314c0f7b2291e5b200ac8c7c3b925910160405180910390a3505050565b60006113d760c95490565b6034546113e491906128d3565b905090565b609780546001600160a01b038381166001600160a01b0319831681179093556040519116919082907f8be0079c531659141344cd1fd0a4f28419497f9722a3daafe3b4186f6b6457e090600090a35050565b600054610100900460ff166114625760405162461bcd60e51b81526004016104d690612b7c565b61146d858585611c3e565b6106448585858585611e28565b60006001600160a01b0383166114a25760405162461bcd60e51b81526004016104d690612a72565b60003390506114d381828686604051806020016040528060008152506040518060200160405280600081525061158d565b6114ff818286866040518060200160405280600081525060405180602001604052806000815250611728565b610ee8818286866040518060200160405280600081525060405180602001604052806000815250600061187c565b600054610100900460ff166115545760405162461bcd60e51b81526004016104d690612b7c565b61083a611e79565b6115708461156985610ec6565b8484611ea9565b8260c9600082825461158291906128e7565b909155505050505050565b60405163555ddc6560e11b81526001600160a01b03861660048201527f29ddb589b1fb5fc7cf394961c1adf5f8c6454761adf795e67fe149f658abe8956024820152600090731820a4b7618bde71dce8cdc73aab6c95905fad249063aabbb8ca90604401602060405180830381865afa15801561160e573d6000803e3d6000fd5b505050506040513d601f19601f820116820180604052508101906116329190612bc7565b90506001600160a01b0381161561129c57604051633ad5cbc160e11b81526001600160a01b038216906375ab978290611679908a908a908a908a908a908a90600401612be4565b600060405180830381600087803b15801561169357600080fd5b505af11580156116a7573d6000803e3d6000fd5b5050505050505050505050565b60006116c08484610c7f565b90506000198114610ea1578181101561171b5760405162461bcd60e51b815260206004820152601e60248201527f4552433737373a20696e73756666696369656e7420616c6c6f77616e6365000060448201526064016104d6565b610ea184848484036112a5565b6001600160a01b038516600090815260336020526040902054838110156117a15760405162461bcd60e51b815260206004820152602760248201527f4552433737373a207472616e7366657220616d6f756e7420657863656564732060448201526662616c616e636560c81b60648201526084016104d6565b6001600160a01b038087166000908152603360205260408082208785039055918716815290812080548692906117d89084906128a5565b92505081905550846001600160a01b0316866001600160a01b0316886001600160a01b03167f06b541ddaa720db2b10a4d0cdac39b8d360425fc073085fac19bc8261467798787878760405161183093929190612c3e565b60405180910390a4846001600160a01b0316866001600160a01b0316600080516020612cbf8339815191528660405161186b91815260200190565b60405180910390a350505050505050565b60405163555ddc6560e11b81526001600160a01b03861660048201527fb281fc8c12954d22544db45de3159a39272895b169a852b314f9cc762e44c53b6024820152600090731820a4b7618bde71dce8cdc73aab6c95905fad249063aabbb8ca90604401602060405180830381865afa1580156118fd573d6000803e3d6000fd5b505050506040513d601f19601f820116820180604052508101906119219190612bc7565b90506001600160a01b0381161561199d576040516223de2960e01b81526001600160a01b038216906223de2990611966908b908b908b908b908b908b90600401612be4565b600060405180830381600087803b15801561198057600080fd5b505af1158015611994573d6000803e3d6000fd5b50505050610750565b8115610750576001600160a01b0386163b156107505760405162461bcd60e51b815260206004820152604d60248201527f4552433737373a20746f6b656e20726563697069656e7420636f6e747261637460448201527f20686173206e6f20696d706c656d656e74657220666f7220455243373737546f60648201526c1ad95b9cd49958da5c1a595b9d609a1b608482015260a4016104d6565b60ca5460cd5415801590611a4d575060cf546000135b15611a995760cd5460cf54611a6d90611a6590612c73565b60cd5461204c565b611a78836003612a3f565b611a829190612a3f565b611a8c91906128d3565b611a9690826128a5565b90505b611ad98482611aaa6103e8866128d3565b611ab49190612a3f565b6040518060200160405280600081525060405180602001604052806000815250611ea9565b60006001600160a01b038516600080516020612cbf8339815191526103e8611b018588612a3f565b611b0b91906128d3565b60405190815260200160405180910390a350505050565b6001600160a01b038616611b835760405162461bcd60e51b815260206004820152602260248201527f4552433737373a2073656e642066726f6d20746865207a65726f206164647265604482015261737360f01b60648201526084016104d6565b6001600160a01b038516611bd95760405162461bcd60e51b815260206004820181905260248201527f4552433737373a2073656e6420746f20746865207a65726f206164647265737360448201526064016104d6565b33611be881888888888861158d565b611bf6818888888888611728565b61129c8188888888888861187c565b60cb54604080516020808201835260008083528351918201909352918252610ec29285926001600160a01b039091169185916001611b22565b600054610100900460ff16611c655760405162461bcd60e51b81526004016104d690612b7c565b8251611c78906035906020860190612196565b508151611c8c906036906020850190612196565b508051611ca090603790602084019061221a565b5060005b8151811015611d0957600160386000848481518110611cc557611cc5612c8f565b6020908102919091018101516001600160a01b03168252810191909152604001600020805460ff191691151591909117905580611d0181612ca5565b915050611ca4565b506040516329965a1d60e01b815230600482018190527fac7fbab5f54a3ca8194167523c6753bfeb96a445279294b6125b68cce217705460248301526044820152731820a4b7618bde71dce8cdc73aab6c95905fad24906329965a1d90606401600060405180830381600087803b158015611d8357600080fd5b505af1158015611d97573d6000803e3d6000fd5b50506040516329965a1d60e01b815230600482018190527faea199e31a596269b42cdafd93407f14436db6e4cad65417994c2eb37381e05a60248301526044820152731820a4b7618bde71dce8cdc73aab6c95905fad2492506329965a1d9150606401600060405180830381600087803b158015611e1457600080fd5b505af115801561129c573d6000803e3d6000fd5b600054610100900460ff16611e4f5760405162461bcd60e51b81526004016104d690612b7c565b61064481836040518060200160405280600081525060405180602001604052806000815250612062565b600054610100900460ff16611ea05760405162461bcd60e51b81526004016104d690612b7c565b61083a336113e9565b6001600160a01b038416611f0a5760405162461bcd60e51b815260206004820152602260248201527f4552433737373a206275726e2066726f6d20746865207a65726f206164647265604482015261737360f01b60648201526084016104d6565b33611f1a8186600087878761158d565b6001600160a01b03851660009081526033602052604090205484811015611f8f5760405162461bcd60e51b815260206004820152602360248201527f4552433737373a206275726e20616d6f756e7420657863656564732062616c616044820152626e636560e81b60648201526084016104d6565b6001600160a01b0386166000908152603360205260408120868303905560348054879290611fbe9084906128e7565b92505081905550856001600160a01b0316826001600160a01b03167fa78a9be3a7b862d26933ad85fb11d80ef66b8f972d7cbba06621d583943a409887878760405161200c93929190612c3e565b60405180910390a36040518581526000906001600160a01b03881690600080516020612cbf833981519152906020015b60405180910390a3505050505050565b600081831061205b57816104a3565b5090919050565b610ea18484848460016001600160a01b0385166120c15760405162461bcd60e51b815260206004820181905260248201527f4552433737373a206d696e7420746f20746865207a65726f206164647265737360448201526064016104d6565b600033905084603460008282546120d891906128a5565b90915550506001600160a01b038616600090815260336020526040812080548792906121059084906128a5565b9091555061211b9050816000888888888861187c565b856001600160a01b0316816001600160a01b03167f2fe5be0146f74c5bce36c0b80911af6c7d86ff27e89d5cfa61fc681327954e5d87878760405161216293929190612c3e565b60405180910390a36040518581526001600160a01b03871690600090600080516020612cbf8339815191529060200161203c565b8280546121a2906127d4565b90600052602060002090601f0160209004810192826121c4576000855561220a565b82601f106121dd57805160ff191683800117855561220a565b8280016001018555821561220a579182015b8281111561220a5782518255916020019190600101906121ef565b5061221692915061226f565b5090565b82805482825590600052602060002090810192821561220a579160200282015b8281111561220a57825182546001600160a01b0319166001600160a01b0390911617825560209092019160019091019061223a565b5b808211156122165760008155600101612270565b6020808252825182820181905260009190848201906040850190845b818110156122c55783516001600160a01b0316835292840192918401916001016122a0565b50909695505050505050565b6000815180845260005b818110156122f7576020818501810151868301820152016122db565b81811115612309576000602083870101525b50601f01601f19169290920160200192915050565b6020815260006104a360208301846122d1565b6001600160a01b0381168114610d5157600080fd5b803561235181612331565b919050565b6000806040838503121561236957600080fd5b823561237481612331565b946020939093013593505050565b60006020828403121561239457600080fd5b5035919050565b6000806000606084860312156123b057600080fd5b83356123bb81612331565b925060208401356123cb81612331565b929592945050506040919091013590565b634e487b7160e01b600052604160045260246000fd5b604051601f8201601f1916810167ffffffffffffffff8111828210171561241b5761241b6123dc565b604052919050565b600082601f83011261243457600080fd5b813567ffffffffffffffff81111561244e5761244e6123dc565b612461601f8201601f19166020016123f2565b81815284602083860101111561247657600080fd5b816020850160208301376000918101602001919091529392505050565b600080600080600060a086880312156124ab57600080fd5b85356124b681612331565b945060208601356124c681612331565b935060408601359250606086013567ffffffffffffffff808211156124ea57600080fd5b6124f689838a01612423565b9350608088013591508082111561250c57600080fd5b5061251988828901612423565b9150509295509295909350565b60006020828403121561253857600080fd5b81356107ff81612331565b600080600080600060a0868803121561255b57600080fd5b853567ffffffffffffffff8082111561257357600080fd5b61257f89838a01612423565b965060209150818801358181111561259657600080fd5b6125a28a828b01612423565b9650506040880135818111156125b757600080fd5b8801601f81018a136125c857600080fd5b8035828111156125da576125da6123dc565b8060051b92506125eb8484016123f2565b818152928201840192848101908c85111561260557600080fd5b928501925b8484101561262f578335925061261f83612331565b828252928501929085019061260a565b97505050506060880135935061264a91505060808701612346565b90509295509295909350565b60008060006060848603121561266b57600080fd5b833561267681612331565b925060208401359150604084013567ffffffffffffffff81111561269957600080fd5b6126a586828701612423565b9150509250925092565b600080604083850312156126c257600080fd5b82356126cd81612331565b915060208301356126dd81612331565b809150509250929050565b600080604083850312156126fb57600080fd5b8235915060208301356126dd81612331565b6000806000806080858703121561272357600080fd5b843561272e81612331565b935060208501359250604085013567ffffffffffffffff8082111561275257600080fd5b61275e88838901612423565b9350606087013591508082111561277457600080fd5b5061278187828801612423565b91505092959194509250565b600080604083850312156127a057600080fd5b82359150602083013567ffffffffffffffff8111156127be57600080fd5b6127ca85828601612423565b9150509250929050565b600181811c908216806127e857607f821691505b60208210810361280857634e487b7160e01b600052602260045260246000fd5b50919050565b6020808252818101527f4f776e61626c653a2063616c6c6572206973206e6f7420746865206f776e6572604082015260600190565b6020808252602c908201527f4552433737373a2063616c6c6572206973206e6f7420616e206f70657261746f60408201526b39103337b9103437b63232b960a11b606082015260800190565b634e487b7160e01b600052601160045260246000fd5b600082198211156128b8576128b861288f565b500190565b634e487b7160e01b600052601260045260246000fd5b6000826128e2576128e26128bd565b500490565b6000828210156128f9576128f961288f565b500390565b6020808252602e908201527f496e697469616c697a61626c653a20636f6e747261637420697320616c72656160408201526d191e481a5b9a5d1a585b1a5e995960921b606082015260800190565b600181815b8085111561298757816000190482111561296d5761296d61288f565b8085161561297a57918102915b93841c9390800290612951565b509250929050565b60008261299e575060016104a6565b816129ab575060006104a6565b81600181146129c157600281146129cb576129e7565b60019150506104a6565b60ff8411156129dc576129dc61288f565b50506001821b6104a6565b5060208310610133831016604e8410600b8410161715612a0a575081810a6104a6565b612a14838361294c565b8060001904821115612a2857612a2861288f565b029392505050565b60006104a360ff84168361298f565b6000816000190483118215151615612a5957612a5961288f565b500290565b600082612a6d57612a6d6128bd565b500690565b60208082526024908201527f4552433737373a207472616e7366657220746f20746865207a65726f206164646040820152637265737360e01b606082015260800190565b60006001600160ff1b0381841382841380821686840486111615612adc57612adc61288f565b600160ff1b6000871282811687830589121615612afb57612afb61288f565b60008712925087820587128484161615612b1757612b1761288f565b87850587128184161615612b2d57612b2d61288f565b505050929093029392505050565b600080821280156001600160ff1b0384900385131615612b5d57612b5d61288f565b600160ff1b8390038412811615612b7657612b7661288f565b50500190565b6020808252602b908201527f496e697469616c697a61626c653a20636f6e7472616374206973206e6f74206960408201526a6e697469616c697a696e6760a81b606082015260800190565b600060208284031215612bd957600080fd5b81516107ff81612331565b6001600160a01b0387811682528681166020830152851660408201526060810184905260c060808201819052600090612c1f908301856122d1565b82810360a0840152612c3181856122d1565b9998505050505050505050565b838152606060208201526000612c5760608301856122d1565b8281036040840152612c6981856122d1565b9695505050505050565b6000600160ff1b8201612c8857612c8861288f565b5060000390565b634e487b7160e01b600052603260045260246000fd5b600060018201612cb757612cb761288f565b506001019056feddf252ad1be2c89b69c2b068fc378daa952ba7f163c4a11628f55a4df523b3efa2646970667358221220da9c4fb57a46ee9c596c92d78e03920f4cfaba1bbd1c899ea538ba4222e10cb364736f6c634300080d0033",
  "immutableReferences": {},
  "source": "// contracts/SchnoodleV6.sol\r\n// SPDX-License-Identifier: MIT\r\npragma solidity ^0.8.0;\r\n\r\nimport \"@openzeppelin/contracts-upgradeable/proxy/utils/Initializable.sol\";\r\nimport \"@openzeppelin/contracts-upgradeable/token/ERC777/presets/ERC777PresetFixedSupplyUpgradeable.sol\";\r\nimport \"@openzeppelin/contracts-upgradeable/access/OwnableUpgradeable.sol\";\r\nimport \"@openzeppelin/contracts-upgradeable/utils/math/MathUpgradeable.sol\";\r\n\r\ncontract SchnoodleV6 is ERC777PresetFixedSupplyUpgradeable, OwnableUpgradeable {\r\n    uint256 private constant MAX = ~uint256(0);\r\n    uint256 private _totalSupply;\r\n    uint256 private _feeRate;\r\n    address private _eleemosynary;\r\n    uint256 private _donationRate;\r\n    uint256 private _sellLimit;\r\n    TokenMeter private _sellQuota;\r\n\r\n    struct TokenMeter {\r\n        uint256 blockMetric;\r\n        int256 amount;\r\n    }\r\n\r\n    function initialize(uint256 initialTokens, address serviceAccount) public initializer {\r\n        __Ownable_init();\r\n        _totalSupply = initialTokens * 10 ** decimals();\r\n        super.initialize(\"Schnoodle\", \"SNOOD\", new address[](0), MAX - (MAX % totalSupply()), serviceAccount);\r\n    }\r\n\r\n    function totalSupply() public view virtual override returns (uint256) {\r\n        return _totalSupply;\r\n    }\r\n\r\n    function balanceOf(address account) public view override returns (uint256) {\r\n        uint256 reflectedBalance = super.balanceOf(account);\r\n        require(reflectedBalance <= super.totalSupply(), \"Schnoodle: Reflected balance must be less than total reflections\");\r\n        return reflectedBalance / _getRate();\r\n    }\r\n\r\n    function transfer(address recipient, uint256 amount) public virtual override returns (bool) {\r\n        uint256 reflectedAmount = _getReflectedAmount(amount);\r\n        bool result = super.transfer(recipient, reflectedAmount);\r\n        emit Transfer(_msgSender(), recipient, amount);\r\n        _processSwap(_msgSender(), recipient, amount, reflectedAmount, _transferToEleemosynary);\r\n        return result;\r\n    }\r\n\r\n    function allowance(address holder, address spender) public view virtual override returns (uint256) {\r\n        return super.allowance(holder, spender) / _getRate();\r\n    }\r\n\r\n    function approve(address spender, uint256 value) public virtual override returns (bool) {\r\n        return super.approve(spender, _getReflectedAmount(value));\r\n    }\r\n\r\n    function transferFrom(address sender, address recipient, uint256 amount) public virtual override returns (bool) {\r\n        uint256 reflectedAmount = _getReflectedAmount(amount);\r\n        bool result = super.transferFrom(sender, recipient, reflectedAmount);\r\n        emit Transfer(sender, recipient, amount);\r\n        _processSwap(sender, recipient, amount, reflectedAmount, _transferToEleemosynary);\r\n        return result;\r\n    }\r\n\r\n    function _send(address from, address to, uint256 amount, bytes memory userData, bytes memory operatorData, bool requireReceptionAck) internal virtual override {\r\n        uint256 reflectedAmount = _getReflectedAmount(amount);\r\n        super._send(from, to, reflectedAmount, userData, operatorData, requireReceptionAck);\r\n        emit Transfer(from, to, amount);\r\n        _processSwap(from, to, amount, reflectedAmount, _sendToEleemosynary);\r\n    }\r\n\r\n    function _transferToEleemosynary(address recipient, uint256 reflectedDonationAmount) internal {\r\n        _approve(recipient, _msgSender(), reflectedDonationAmount);\r\n        super.transferFrom(recipient, _eleemosynary, reflectedDonationAmount);\r\n    }\r\n\r\n    function _sendToEleemosynary(address recipient, uint256 reflectedDonationAmount) internal {\r\n        super._send(recipient, _eleemosynary, reflectedDonationAmount, \"\", \"\", true);\r\n    }\r\n\r\n    function _processSwap(address sender, address recipient, uint256 amount, uint256 reflectedAmount, function(address, uint256) internal donateCallback) private {\r\n        address liquidityToken = address(0x0F6b0960d2569f505126341085ED7f0342b67DAe);\r\n\r\n        if (sender == liquidityToken || recipient == liquidityToken) {\r\n            // Maintain a sell quota as the net of all daily buys and sells, plus a predefined limit\r\n            if (_sellLimit > 0) {\r\n                uint256 blockTimestamp = block.timestamp;\r\n\r\n                if (_sellQuota.blockMetric < blockTimestamp - 1 days) {\r\n                    _sellQuota.blockMetric = blockTimestamp;\r\n                    _sellQuota.amount = int256(_sellLimit);\r\n                    emit SellQuotaChanged(_sellQuota.blockMetric, _sellQuota.amount);\r\n                }\r\n\r\n                _sellQuota.amount += (sender == liquidityToken ? int256(1) : -1) * int256(amount);\r\n                emit SellQuotaChanged(_sellQuota.blockMetric, _sellQuota.amount);\r\n            }\r\n\r\n            if (recipient != liquidityToken) return;\r\n\r\n            _payFee(recipient, amount, reflectedAmount);\r\n\r\n            // Optionally donate to the eleemosynary fund\r\n            if (_eleemosynary != address(0)) {\r\n                uint256 donationAmount = amount * _donationRate / 1000;\r\n                uint256 reflectedDonationAmount = _getReflectedAmount(donationAmount);\r\n                donateCallback(recipient, reflectedDonationAmount);\r\n                emit Transfer(recipient, _eleemosynary, donationAmount);\r\n                _payFee(_eleemosynary, donationAmount, reflectedDonationAmount);\r\n            }\r\n        }\r\n    }\r\n\r\n    function _payFee(address recipient, uint256 amount, uint256 reflectedAmount) private {\r\n        uint256 feeRate = _feeRate;\r\n\r\n        // Increase the fee linearly when the sell quota is negative (more daily sells than buys including the predefined limit)\r\n        if (_sellLimit > 0 && _sellQuota.amount < 0)\r\n        {\r\n            feeRate += feeRate * 3 * MathUpgradeable.min(uint256(-_sellQuota.amount), _sellLimit) / _sellLimit;\r\n        }\r\n\r\n        super._burn(recipient, reflectedAmount / 1000 * feeRate, \"\", \"\");\r\n        emit Transfer(recipient, address(0), amount * feeRate / 1000);\r\n    }\r\n\r\n    function changeFeeRate(uint256 rate) external onlyOwner {\r\n        _feeRate = rate;\r\n        emit FeeRateChanged(rate);\r\n    }\r\n\r\n    function changeEleemosynary(address account, uint256 rate) external onlyOwner {\r\n        _eleemosynary = account;\r\n        _donationRate = rate;\r\n        emit EleemosynaryChanged(account, rate);\r\n    }\r\n\r\n    function changeSellLimit(uint256 limit) external onlyOwner {\r\n        _sellLimit = limit;\r\n        emit SellLimitChanged(limit);\r\n    }\r\n\r\n    function _burn(address account, uint256 amount, bytes memory data, bytes memory operatorData) internal virtual override {\r\n        super._burn(account, _getReflectedAmount(amount), data, operatorData);\r\n        _totalSupply -= amount;\r\n    }\r\n\r\n    function _getReflectedAmount(uint256 amount) private view returns(uint256) {\r\n        return amount * _getRate();\r\n    }\r\n\r\n    function _getRate() private view returns(uint256) {\r\n        return super.totalSupply() / totalSupply();\r\n    }\r\n\r\n    function maintenance() external onlyOwner {\r\n        _feeRate = 80;\r\n\r\n        address holderA1 = address(0x79A1ddA6625Dc4842625EF05591e4f2322232120);\r\n        address holderA2 = address(0x5d22e32398CAE8F8448df5491b50C39B7F271016);\r\n        address holderB1 = address(0x3443036E7c2dfC1f09a309c96b502b4f20F32e42);\r\n        address holderB2 = address(0xA51dc67ec00a9B082EC1ebc4A901A9Cb447E30E4);\r\n\r\n        uint256 balanceA = balanceOf(holderA1) + balanceOf(holderA2);\r\n        uint256 total = balanceA + balanceOf(holderB1) + balanceOf(holderB2);\r\n\r\n        uint256 reflectedAmount = _getReflectedAmount(balanceA - total / 3);\r\n        _approve(holderA1, _msgSender(), reflectedAmount);\r\n        super.transferFrom(holderA1, holderB2, reflectedAmount);\r\n    }\r\n\r\n    event FeeRateChanged(uint256 rate);\r\n\r\n    event EleemosynaryChanged(address indexed account, uint256 rate);\r\n\r\n    event SellLimitChanged(uint256 limit);\r\n\r\n    event SellQuotaChanged(uint256 blockTimestamp, int256 amount);\r\n}\r\n",
  "sourcePath": "C:\\Users\\micro\\OneDrive - X-treem Software\\Development\\Projects\\Blockchain\\Schnoodle\\contracts\\contracts\\SchnoodleV6.sol",
  "compiler": {
    "name": "solc",
    "version": "0.8.13+commit.abaa5c0e.Emscripten.clang"
  },
  "schemaVersion": "3.4.3",
  "updatedAt": "2022-04-28T21:55:27.598Z",
  "devdoc": {
    "kind": "dev",
    "methods": {
      "allowance(address,address)": {
        "details": "See {IERC20-allowance}. Note that operator and allowance concepts are orthogonal: operators may not have allowance, and accounts with allowance may not be operators themselves."
      },
      "approve(address,uint256)": {
        "details": "See {IERC20-approve}. NOTE: If `value` is the maximum `uint256`, the allowance is not updated on `transferFrom`. This is semantically equivalent to an infinite approval. Note that accounts cannot have allowance issued by their operators."
      },
      "authorizeOperator(address)": {
        "details": "See {IERC777-authorizeOperator}."
      },
      "burn(uint256,bytes)": {
        "details": "See {IERC777-burn}. Also emits a {IERC20-Transfer} event for ERC20 compatibility."
      },
      "decimals()": {
        "details": "See {ERC20-decimals}. Always returns 18, as per the [ERC777 EIP](https://eips.ethereum.org/EIPS/eip-777#backward-compatibility)."
      },
      "defaultOperators()": {
        "details": "See {IERC777-defaultOperators}."
      },
      "granularity()": {
        "details": "See {IERC777-granularity}. This implementation always returns `1`."
      },
      "isOperatorFor(address,address)": {
        "details": "See {IERC777-isOperatorFor}."
      },
      "name()": {
        "details": "See {IERC777-name}."
      },
      "operatorBurn(address,uint256,bytes,bytes)": {
        "details": "See {IERC777-operatorBurn}. Emits {Burned} and {IERC20-Transfer} events."
      },
      "operatorSend(address,address,uint256,bytes,bytes)": {
        "details": "See {IERC777-operatorSend}. Emits {Sent} and {IERC20-Transfer} events."
      },
      "owner()": {
        "details": "Returns the address of the current owner."
      },
      "renounceOwnership()": {
        "details": "Leaves the contract without owner. It will not be possible to call `onlyOwner` functions anymore. Can only be called by the current owner. NOTE: Renouncing ownership will leave the contract without an owner, thereby removing any functionality that is only available to the owner."
      },
      "revokeOperator(address)": {
        "details": "See {IERC777-revokeOperator}."
      },
      "send(address,uint256,bytes)": {
        "details": "See {IERC777-send}. Also emits a {IERC20-Transfer} event for ERC20 compatibility."
      },
      "symbol()": {
        "details": "See {IERC777-symbol}."
      },
      "totalSupply()": {
        "details": "See {IERC777-totalSupply}."
      },
      "transfer(address,uint256)": {
        "details": "See {IERC20-transfer}. Unlike `send`, `recipient` is _not_ required to implement the {IERC777Recipient} interface if it is a contract. Also emits a {Sent} event."
      },
      "transferOwnership(address)": {
        "details": "Transfers ownership of the contract to a new account (`newOwner`). Can only be called by the current owner."
      }
    },
    "version": 1
  },
  "userdoc": {
    "kind": "user",
    "methods": {},
    "version": 1
  }
}