{
  "contractName": "SchnoodleTimelock",
  "abi": [
    {
      "inputs": [],
      "name": "beneficiary",
      "outputs": [
        {
          "internalType": "address",
          "name": "",
          "type": "address"
        }
      ],
      "stateMutability": "view",
      "type": "function"
    },
    {
      "inputs": [],
      "name": "release",
      "outputs": [],
      "stateMutability": "nonpayable",
      "type": "function"
    },
    {
      "inputs": [],
      "name": "releaseTime",
      "outputs": [
        {
          "internalType": "uint256",
          "name": "",
          "type": "uint256"
        }
      ],
      "stateMutability": "view",
      "type": "function"
    },
    {
      "inputs": [],
      "name": "token",
      "outputs": [
        {
          "internalType": "contract IERC20Upgradeable",
          "name": "",
          "type": "address"
        }
      ],
      "stateMutability": "view",
      "type": "function"
    },
    {
      "inputs": [
        {
          "internalType": "contract IERC20Upgradeable",
          "name": "token",
          "type": "address"
        },
        {
          "internalType": "address",
          "name": "beneficiary",
          "type": "address"
        },
        {
          "internalType": "uint256",
          "name": "releaseTime",
          "type": "uint256"
        }
      ],
      "name": "initialize",
      "outputs": [],
      "stateMutability": "nonpayable",
      "type": "function"
    }
  ],
  "bytecode": "0x608060405234801561001057600080fd5b5061084d806100206000396000f3fe608060405234801561001057600080fd5b50600436106100575760003560e01c80631794bb3c1461005c57806338af3eed1461007157806386d1a69f1461009b578063b91d4001146100a3578063fc0c546a146100b4575b600080fd5b61006f61006a3660046106d5565b6100cb565b005b6001546001600160a01b03165b6040516001600160a01b0390911681526020015b60405180910390f35b61006f610197565b600254604051908152602001610092565b6000546201000090046001600160a01b031661007e565b600054610100900460ff166100e65760005460ff16156100ea565b303b155b6101525760405162461bcd60e51b815260206004820152602e60248201527f496e697469616c697a61626c653a20636f6e747261637420697320616c72656160448201526d191e481a5b9a5d1a585b1a5e995960921b60648201526084015b60405180910390fd5b600054610100900460ff16158015610174576000805461ffff19166101011790555b61017f848484610310565b8015610191576000805461ff00191690555b50505050565b6002544210156102045760405162461bcd60e51b815260206004820152603260248201527f546f6b656e54696d656c6f636b3a2063757272656e742074696d65206973206260448201527165666f72652072656c656173652074696d6560701b6064820152608401610149565b600080546201000090046001600160a01b03166040516370a0823160e01b81523060048201526001600160a01b0391909116906370a0823190602401602060405180830381865afa15801561025d573d6000803e3d6000fd5b505050506040513d601f19601f820116820180604052508101906102819190610716565b9050600081116102df5760405162461bcd60e51b815260206004820152602360248201527f546f6b656e54696d656c6f636b3a206e6f20746f6b656e7320746f2072656c6560448201526261736560e81b6064820152608401610149565b61030d6102f46001546001600160a01b031690565b6000546201000090046001600160a01b03169083610347565b50565b600054610100900460ff166103375760405162461bcd60e51b81526004016101499061072f565b610342838383610399565b505050565b604080516001600160a01b038416602482015260448082018490528251808303909101815260649091019091526020810180516001600160e01b031663a9059cbb60e01b17905261034290849061046b565b600054610100900460ff166103c05760405162461bcd60e51b81526004016101499061072f565b42811161042a5760405162461bcd60e51b815260206004820152603260248201527f546f6b656e54696d656c6f636b3a2072656c656173652074696d65206973206260448201527165666f72652063757272656e742074696d6560701b6064820152608401610149565b6000805462010000600160b01b031916620100006001600160a01b0395861602179055600180546001600160a01b0319169290931691909117909155600255565b60006104c0826040518060400160405280602081526020017f5361666545524332303a206c6f772d6c6576656c2063616c6c206661696c6564815250856001600160a01b031661053d9092919063ffffffff16565b80519091501561034257808060200190518101906104de919061077a565b6103425760405162461bcd60e51b815260206004820152602a60248201527f5361666545524332303a204552433230206f7065726174696f6e20646964206e6044820152691bdd081cdd58d8d9595960b21b6064820152608401610149565b606061054c8484600085610556565b90505b9392505050565b6060824710156105b75760405162461bcd60e51b815260206004820152602660248201527f416464726573733a20696e73756666696369656e742062616c616e636520666f6044820152651c8818d85b1b60d21b6064820152608401610149565b6001600160a01b0385163b61060e5760405162461bcd60e51b815260206004820152601d60248201527f416464726573733a2063616c6c20746f206e6f6e2d636f6e74726163740000006044820152606401610149565b600080866001600160a01b0316858760405161062a91906107c8565b60006040518083038185875af1925050503d8060008114610667576040519150601f19603f3d011682016040523d82523d6000602084013e61066c565b606091505b509150915061067c828286610687565b979650505050505050565b6060831561069657508161054f565b8251156106a65782518084602001fd5b8160405162461bcd60e51b815260040161014991906107e4565b6001600160a01b038116811461030d57600080fd5b6000806000606084860312156106ea57600080fd5b83356106f5816106c0565b92506020840135610705816106c0565b929592945050506040919091013590565b60006020828403121561072857600080fd5b5051919050565b6020808252602b908201527f496e697469616c697a61626c653a20636f6e7472616374206973206e6f74206960408201526a6e697469616c697a696e6760a81b606082015260800190565b60006020828403121561078c57600080fd5b8151801515811461054f57600080fd5b60005b838110156107b757818101518382015260200161079f565b838111156101915750506000910152565b600082516107da81846020870161079c565b9190910192915050565b602081526000825180602084015261080381604085016020870161079c565b601f01601f1916919091016040019291505056fea2646970667358221220925c8cb56102b9be1944218c078430ec4a6105b2fcfcdcf053aafd3d23b7e44d64736f6c634300080d0033",
  "immutableReferences": {},
  "source": "// contracts/imports/SchnoodleTimelock.sol\r\n// SPDX-License-Identifier: MIT\r\npragma solidity ^0.8.0;\r\n\r\nimport \"@openzeppelin/contracts-upgradeable/proxy/utils/Initializable.sol\";\r\nimport \"@openzeppelin/contracts/token/ERC20/utils/TokenTimelock.sol\";\r\nimport \"@openzeppelin/contracts-upgradeable/token/ERC20/utils/TokenTimelockUpgradeable.sol\";\r\n\r\ncontract SchnoodleTimelock is TokenTimelockUpgradeable {\r\n    function initialize(IERC20Upgradeable token, address beneficiary, uint256 releaseTime) public initializer {\r\n        __TokenTimelock_init(token, beneficiary, releaseTime);\r\n    }\r\n}\r\n",
  "sourcePath": "C:\\Users\\micro\\OneDrive - X-treem Software\\Development\\Projects\\Blockchain\\Schnoodle\\contracts\\contracts\\imports\\SchnoodleTimelock.sol",
  "compiler": {
    "name": "solc",
    "version": "0.8.13+commit.abaa5c0e.Emscripten.clang"
  },
  "schemaVersion": "3.4.3",
  "updatedAt": "2022-04-28T21:55:27.689Z",
  "devdoc": {
    "kind": "dev",
    "methods": {
      "beneficiary()": {
        "details": "Returns the beneficiary that will receive the tokens."
      },
      "release()": {
        "details": "Transfers tokens held by the timelock to the beneficiary. Will only succeed if invoked after the release time."
      },
      "releaseTime()": {
        "details": "Returns the time when the tokens are released in seconds since Unix epoch (i.e. Unix timestamp)."
      },
      "token()": {
        "details": "Returns the token being held."
      }
    },
    "version": 1
  },
  "userdoc": {
    "kind": "user",
    "methods": {},
    "version": 1
  }
}