{
  "contractName": "SchnoodleGovernance",
  "abi": [
    {
      "inputs": [
        {
          "internalType": "uint256",
          "name": "minDelay",
          "type": "uint256"
        },
        {
          "internalType": "address[]",
          "name": "proposers",
          "type": "address[]"
        },
        {
          "internalType": "address[]",
          "name": "executors",
          "type": "address[]"
        }
      ],
      "stateMutability": "nonpayable",
      "type": "constructor"
    },
    {
      "anonymous": false,
      "inputs": [
        {
          "indexed": true,
          "internalType": "bytes32",
          "name": "id",
          "type": "bytes32"
        },
        {
          "indexed": true,
          "internalType": "uint256",
          "name": "index",
          "type": "uint256"
        },
        {
          "indexed": false,
          "internalType": "address",
          "name": "target",
          "type": "address"
        },
        {
          "indexed": false,
          "internalType": "uint256",
          "name": "value",
          "type": "uint256"
        },
        {
          "indexed": false,
          "internalType": "bytes",
          "name": "data",
          "type": "bytes"
        }
      ],
      "name": "CallExecuted",
      "type": "event"
    },
    {
      "anonymous": false,
      "inputs": [
        {
          "indexed": true,
          "internalType": "bytes32",
          "name": "id",
          "type": "bytes32"
        },
        {
          "indexed": true,
          "internalType": "uint256",
          "name": "index",
          "type": "uint256"
        },
        {
          "indexed": false,
          "internalType": "address",
          "name": "target",
          "type": "address"
        },
        {
          "indexed": false,
          "internalType": "uint256",
          "name": "value",
          "type": "uint256"
        },
        {
          "indexed": false,
          "internalType": "bytes",
          "name": "data",
          "type": "bytes"
        },
        {
          "indexed": false,
          "internalType": "bytes32",
          "name": "predecessor",
          "type": "bytes32"
        },
        {
          "indexed": false,
          "internalType": "uint256",
          "name": "delay",
          "type": "uint256"
        }
      ],
      "name": "CallScheduled",
      "type": "event"
    },
    {
      "anonymous": false,
      "inputs": [
        {
          "indexed": true,
          "internalType": "bytes32",
          "name": "id",
          "type": "bytes32"
        }
      ],
      "name": "Cancelled",
      "type": "event"
    },
    {
      "anonymous": false,
      "inputs": [
        {
          "indexed": false,
          "internalType": "uint256",
          "name": "oldDuration",
          "type": "uint256"
        },
        {
          "indexed": false,
          "internalType": "uint256",
          "name": "newDuration",
          "type": "uint256"
        }
      ],
      "name": "MinDelayChange",
      "type": "event"
    },
    {
      "anonymous": false,
      "inputs": [
        {
          "indexed": true,
          "internalType": "bytes32",
          "name": "role",
          "type": "bytes32"
        },
        {
          "indexed": true,
          "internalType": "bytes32",
          "name": "previousAdminRole",
          "type": "bytes32"
        },
        {
          "indexed": true,
          "internalType": "bytes32",
          "name": "newAdminRole",
          "type": "bytes32"
        }
      ],
      "name": "RoleAdminChanged",
      "type": "event"
    },
    {
      "anonymous": false,
      "inputs": [
        {
          "indexed": true,
          "internalType": "bytes32",
          "name": "role",
          "type": "bytes32"
        },
        {
          "indexed": true,
          "internalType": "address",
          "name": "account",
          "type": "address"
        },
        {
          "indexed": true,
          "internalType": "address",
          "name": "sender",
          "type": "address"
        }
      ],
      "name": "RoleGranted",
      "type": "event"
    },
    {
      "anonymous": false,
      "inputs": [
        {
          "indexed": true,
          "internalType": "bytes32",
          "name": "role",
          "type": "bytes32"
        },
        {
          "indexed": true,
          "internalType": "address",
          "name": "account",
          "type": "address"
        },
        {
          "indexed": true,
          "internalType": "address",
          "name": "sender",
          "type": "address"
        }
      ],
      "name": "RoleRevoked",
      "type": "event"
    },
    {
      "inputs": [],
      "name": "DEFAULT_ADMIN_ROLE",
      "outputs": [
        {
          "internalType": "bytes32",
          "name": "",
          "type": "bytes32"
        }
      ],
      "stateMutability": "view",
      "type": "function"
    },
    {
      "inputs": [],
      "name": "EXECUTOR_ROLE",
      "outputs": [
        {
          "internalType": "bytes32",
          "name": "",
          "type": "bytes32"
        }
      ],
      "stateMutability": "view",
      "type": "function"
    },
    {
      "inputs": [],
      "name": "PROPOSER_ROLE",
      "outputs": [
        {
          "internalType": "bytes32",
          "name": "",
          "type": "bytes32"
        }
      ],
      "stateMutability": "view",
      "type": "function"
    },
    {
      "inputs": [],
      "name": "TIMELOCK_ADMIN_ROLE",
      "outputs": [
        {
          "internalType": "bytes32",
          "name": "",
          "type": "bytes32"
        }
      ],
      "stateMutability": "view",
      "type": "function"
    },
    {
      "inputs": [
        {
          "internalType": "bytes32",
          "name": "id",
          "type": "bytes32"
        }
      ],
      "name": "cancel",
      "outputs": [],
      "stateMutability": "nonpayable",
      "type": "function"
    },
    {
      "inputs": [
        {
          "internalType": "address",
          "name": "target",
          "type": "address"
        },
        {
          "internalType": "uint256",
          "name": "value",
          "type": "uint256"
        },
        {
          "internalType": "bytes",
          "name": "data",
          "type": "bytes"
        },
        {
          "internalType": "bytes32",
          "name": "predecessor",
          "type": "bytes32"
        },
        {
          "internalType": "bytes32",
          "name": "salt",
          "type": "bytes32"
        }
      ],
      "name": "execute",
      "outputs": [],
      "stateMutability": "payable",
      "type": "function"
    },
    {
      "inputs": [
        {
          "internalType": "address[]",
          "name": "targets",
          "type": "address[]"
        },
        {
          "internalType": "uint256[]",
          "name": "values",
          "type": "uint256[]"
        },
        {
          "internalType": "bytes[]",
          "name": "datas",
          "type": "bytes[]"
        },
        {
          "internalType": "bytes32",
          "name": "predecessor",
          "type": "bytes32"
        },
        {
          "internalType": "bytes32",
          "name": "salt",
          "type": "bytes32"
        }
      ],
      "name": "executeBatch",
      "outputs": [],
      "stateMutability": "payable",
      "type": "function"
    },
    {
      "inputs": [],
      "name": "getMinDelay",
      "outputs": [
        {
          "internalType": "uint256",
          "name": "duration",
          "type": "uint256"
        }
      ],
      "stateMutability": "view",
      "type": "function"
    },
    {
      "inputs": [
        {
          "internalType": "bytes32",
          "name": "role",
          "type": "bytes32"
        }
      ],
      "name": "getRoleAdmin",
      "outputs": [
        {
          "internalType": "bytes32",
          "name": "",
          "type": "bytes32"
        }
      ],
      "stateMutability": "view",
      "type": "function"
    },
    {
      "inputs": [
        {
          "internalType": "bytes32",
          "name": "id",
          "type": "bytes32"
        }
      ],
      "name": "getTimestamp",
      "outputs": [
        {
          "internalType": "uint256",
          "name": "timestamp",
          "type": "uint256"
        }
      ],
      "stateMutability": "view",
      "type": "function"
    },
    {
      "inputs": [
        {
          "internalType": "bytes32",
          "name": "role",
          "type": "bytes32"
        },
        {
          "internalType": "address",
          "name": "account",
          "type": "address"
        }
      ],
      "name": "grantRole",
      "outputs": [],
      "stateMutability": "nonpayable",
      "type": "function"
    },
    {
      "inputs": [
        {
          "internalType": "bytes32",
          "name": "role",
          "type": "bytes32"
        },
        {
          "internalType": "address",
          "name": "account",
          "type": "address"
        }
      ],
      "name": "hasRole",
      "outputs": [
        {
          "internalType": "bool",
          "name": "",
          "type": "bool"
        }
      ],
      "stateMutability": "view",
      "type": "function"
    },
    {
      "inputs": [
        {
          "internalType": "address",
          "name": "target",
          "type": "address"
        },
        {
          "internalType": "uint256",
          "name": "value",
          "type": "uint256"
        },
        {
          "internalType": "bytes",
          "name": "data",
          "type": "bytes"
        },
        {
          "internalType": "bytes32",
          "name": "predecessor",
          "type": "bytes32"
        },
        {
          "internalType": "bytes32",
          "name": "salt",
          "type": "bytes32"
        }
      ],
      "name": "hashOperation",
      "outputs": [
        {
          "internalType": "bytes32",
          "name": "hash",
          "type": "bytes32"
        }
      ],
      "stateMutability": "pure",
      "type": "function"
    },
    {
      "inputs": [
        {
          "internalType": "address[]",
          "name": "targets",
          "type": "address[]"
        },
        {
          "internalType": "uint256[]",
          "name": "values",
          "type": "uint256[]"
        },
        {
          "internalType": "bytes[]",
          "name": "datas",
          "type": "bytes[]"
        },
        {
          "internalType": "bytes32",
          "name": "predecessor",
          "type": "bytes32"
        },
        {
          "internalType": "bytes32",
          "name": "salt",
          "type": "bytes32"
        }
      ],
      "name": "hashOperationBatch",
      "outputs": [
        {
          "internalType": "bytes32",
          "name": "hash",
          "type": "bytes32"
        }
      ],
      "stateMutability": "pure",
      "type": "function"
    },
    {
      "inputs": [
        {
          "internalType": "bytes32",
          "name": "id",
          "type": "bytes32"
        }
      ],
      "name": "isOperation",
      "outputs": [
        {
          "internalType": "bool",
          "name": "pending",
          "type": "bool"
        }
      ],
      "stateMutability": "view",
      "type": "function"
    },
    {
      "inputs": [
        {
          "internalType": "bytes32",
          "name": "id",
          "type": "bytes32"
        }
      ],
      "name": "isOperationDone",
      "outputs": [
        {
          "internalType": "bool",
          "name": "done",
          "type": "bool"
        }
      ],
      "stateMutability": "view",
      "type": "function"
    },
    {
      "inputs": [
        {
          "internalType": "bytes32",
          "name": "id",
          "type": "bytes32"
        }
      ],
      "name": "isOperationPending",
      "outputs": [
        {
          "internalType": "bool",
          "name": "pending",
          "type": "bool"
        }
      ],
      "stateMutability": "view",
      "type": "function"
    },
    {
      "inputs": [
        {
          "internalType": "bytes32",
          "name": "id",
          "type": "bytes32"
        }
      ],
      "name": "isOperationReady",
      "outputs": [
        {
          "internalType": "bool",
          "name": "ready",
          "type": "bool"
        }
      ],
      "stateMutability": "view",
      "type": "function"
    },
    {
      "inputs": [
        {
          "internalType": "bytes32",
          "name": "role",
          "type": "bytes32"
        },
        {
          "internalType": "address",
          "name": "account",
          "type": "address"
        }
      ],
      "name": "renounceRole",
      "outputs": [],
      "stateMutability": "nonpayable",
      "type": "function"
    },
    {
      "inputs": [
        {
          "internalType": "bytes32",
          "name": "role",
          "type": "bytes32"
        },
        {
          "internalType": "address",
          "name": "account",
          "type": "address"
        }
      ],
      "name": "revokeRole",
      "outputs": [],
      "stateMutability": "nonpayable",
      "type": "function"
    },
    {
      "inputs": [
        {
          "internalType": "address",
          "name": "target",
          "type": "address"
        },
        {
          "internalType": "uint256",
          "name": "value",
          "type": "uint256"
        },
        {
          "internalType": "bytes",
          "name": "data",
          "type": "bytes"
        },
        {
          "internalType": "bytes32",
          "name": "predecessor",
          "type": "bytes32"
        },
        {
          "internalType": "bytes32",
          "name": "salt",
          "type": "bytes32"
        },
        {
          "internalType": "uint256",
          "name": "delay",
          "type": "uint256"
        }
      ],
      "name": "schedule",
      "outputs": [],
      "stateMutability": "nonpayable",
      "type": "function"
    },
    {
      "inputs": [
        {
          "internalType": "address[]",
          "name": "targets",
          "type": "address[]"
        },
        {
          "internalType": "uint256[]",
          "name": "values",
          "type": "uint256[]"
        },
        {
          "internalType": "bytes[]",
          "name": "datas",
          "type": "bytes[]"
        },
        {
          "internalType": "bytes32",
          "name": "predecessor",
          "type": "bytes32"
        },
        {
          "internalType": "bytes32",
          "name": "salt",
          "type": "bytes32"
        },
        {
          "internalType": "uint256",
          "name": "delay",
          "type": "uint256"
        }
      ],
      "name": "scheduleBatch",
      "outputs": [],
      "stateMutability": "nonpayable",
      "type": "function"
    },
    {
      "inputs": [
        {
          "internalType": "bytes4",
          "name": "interfaceId",
          "type": "bytes4"
        }
      ],
      "name": "supportsInterface",
      "outputs": [
        {
          "internalType": "bool",
          "name": "",
          "type": "bool"
        }
      ],
      "stateMutability": "view",
      "type": "function"
    },
    {
      "inputs": [
        {
          "internalType": "uint256",
          "name": "newDelay",
          "type": "uint256"
        }
      ],
      "name": "updateDelay",
      "outputs": [],
      "stateMutability": "nonpayable",
      "type": "function"
    },
    {
      "stateMutability": "payable",
      "type": "receive"
    }
  ],
  "bytecode": "0x60806040523480156200001157600080fd5b5060405162001e0138038062001e018339810160408190526200003491620003b3565b8282826200005260008051602062001da183398151915280620001cf565b6200007c60008051602062001dc183398151915260008051602062001da1833981519152620001cf565b620000a660008051602062001de183398151915260008051602062001da1833981519152620001cf565b620000c160008051602062001da18339815191523362000223565b620000dc60008051602062001da18339815191523062000223565b60005b825181101562000139576200012660008051602062001dc183398151915284838151811062000112576200011262000427565b60200260200101516200022360201b60201c565b62000131816200043d565b9050620000df565b5060005b815181101562000183576200017060008051602062001de183398151915283838151811062000112576200011262000427565b6200017b816200043d565b90506200013d565b5060028390556040805160008152602081018590527f11c24f4ead16507c69ac467fbd5e4eed5fb5c699626d2cc6d66421df253886d5910160405180910390a150505050505062000467565b600082815260208190526040902060010154819060405184907fbd79b86ffe0ab8e8776151514217cd7cacd52c909f66475c3af44e129f0b00ff90600090a460009182526020829052604090912060010155565b6200022f828262000233565b5050565b6000828152602081815260408083206001600160a01b038516845290915290205460ff166200022f576000828152602081815260408083206001600160a01b03851684529091529020805460ff191660011790556200028f3390565b6001600160a01b0316816001600160a01b0316837f2f8788117e7eff1d82e926ec794901d17c78024a50270940304540a733656f0d60405160405180910390a45050565b634e487b7160e01b600052604160045260246000fd5b80516001600160a01b03811681146200030157600080fd5b919050565b600082601f8301126200031857600080fd5b815160206001600160401b0380831115620003375762000337620002d3565b8260051b604051601f19603f830116810181811084821117156200035f576200035f620002d3565b6040529384528581018301938381019250878511156200037e57600080fd5b83870191505b84821015620003a8576200039882620002e9565b8352918301919083019062000384565b979650505050505050565b600080600060608486031215620003c957600080fd5b835160208501519093506001600160401b0380821115620003e957600080fd5b620003f78783880162000306565b935060408601519150808211156200040e57600080fd5b506200041d8682870162000306565b9150509250925092565b634e487b7160e01b600052603260045260246000fd5b60006000198214156200046057634e487b7160e01b600052601160045260246000fd5b5060010190565b61192a80620004776000396000f3fe60806040526004361061014f5760003560e01c806364d62353116100b6578063b1c5f4271161006f578063b1c5f427146103f3578063c4d252f514610413578063d45c443514610433578063d547741f14610460578063e38335e514610480578063f27a0c921461049357600080fd5b806364d623531461033c5780638065657f1461035c5780638f2a0bb01461037c5780638f61f4f51461039c57806391d14854146103be578063a217fddf146103de57600080fd5b8063248a9ca311610108578063248a9ca31461025b5780632ab0f5291461028b5780632f2ff15d146102bc57806331d50750146102dc57806336568abe146102fc578063584b153e1461031c57600080fd5b806301d5062a1461015b57806301ffc9a71461017d57806307bd0265146101b25780630d3cf6fc146101f4578063134008d31461022857806313bc9f201461023b57600080fd5b3661015657005b600080fd5b34801561016757600080fd5b5061017b6101763660046111d4565b6104a8565b005b34801561018957600080fd5b5061019d610198366004611249565b61052c565b60405190151581526020015b60405180910390f35b3480156101be57600080fd5b506101e67fd8aa0f3194971a2a116679f7c2090f6939c8d4e01a2a8d7e41d55e5351469e6381565b6040519081526020016101a9565b34801561020057600080fd5b506101e67f5f58e3a2316349923ce3780f8d587db2d72378aed66a8261c916544fa6846ca581565b61017b610236366004611273565b610563565b34801561024757600080fd5b5061019d6102563660046112df565b6105da565b34801561026757600080fd5b506101e66102763660046112df565b60009081526020819052604090206001015490565b34801561029757600080fd5b5061019d6102a63660046112df565b6000908152600160208190526040909120541490565b3480156102c857600080fd5b5061017b6102d73660046112f8565b610600565b3480156102e857600080fd5b5061019d6102f73660046112df565b61062b565b34801561030857600080fd5b5061017b6103173660046112f8565b610644565b34801561032857600080fd5b5061019d6103373660046112df565b6106c7565b34801561034857600080fd5b5061017b6103573660046112df565b6106dd565b34801561036857600080fd5b506101e6610377366004611273565b610781565b34801561038857600080fd5b5061017b610397366004611369565b6107c0565b3480156103a857600080fd5b506101e66000805160206118d583398151915281565b3480156103ca57600080fd5b5061019d6103d93660046112f8565b610901565b3480156103ea57600080fd5b506101e6600081565b3480156103ff57600080fd5b506101e661040e36600461141b565b61092a565b34801561041f57600080fd5b5061017b61042e3660046112df565b61096f565b34801561043f57600080fd5b506101e661044e3660046112df565b60009081526001602052604090205490565b34801561046c57600080fd5b5061017b61047b3660046112f8565b610a33565b61017b61048e36600461141b565b610a59565b34801561049f57600080fd5b506002546101e6565b6000805160206118d58339815191526104c18133610b8d565b60006104d1898989898989610781565b90506104dd8184610bf1565b6000817f4cf4410cc57040e44862ef0f45f3dd5a5e02db8eb8add648d4b0e236f1d07dca8b8b8b8b8b8a604051610519969594939291906114ed565b60405180910390a3505050505050505050565b60006001600160e01b03198216637965db0b60e01b148061055d57506301ffc9a760e01b6001600160e01b03198316145b92915050565b7fd8aa0f3194971a2a116679f7c2090f6939c8d4e01a2a8d7e41d55e5351469e6361058f816000610901565b61059d5761059d8133610b8d565b60006105ad888888888888610781565b90506105b884610ce0565b6105c78160008a8a8a8a610d5a565b6105d081610e6e565b5050505050505050565b6000818152600160205260408120546001811180156105f95750428111155b9392505050565b60008281526020819052604090206001015461061c8133610b8d565b6106268383610eea565b505050565b60008181526001602052604081205481905b1192915050565b6001600160a01b03811633146106b95760405162461bcd60e51b815260206004820152602f60248201527f416363657373436f6e74726f6c3a2063616e206f6e6c792072656e6f756e636560448201526e103937b632b9903337b91039b2b63360891b60648201526084015b60405180910390fd5b6106c38282610f6e565b5050565b600081815260016020819052604082205461063d565b3330146107405760405162461bcd60e51b815260206004820152602b60248201527f54696d656c6f636b436f6e74726f6c6c65723a2063616c6c6572206d7573742060448201526a62652074696d656c6f636b60a81b60648201526084016106b0565b60025460408051918252602082018390527f11c24f4ead16507c69ac467fbd5e4eed5fb5c699626d2cc6d66421df253886d5910160405180910390a1600255565b600086868686868660405160200161079e969594939291906114ed565b6040516020818303038152906040528051906020012090509695505050505050565b6000805160206118d58339815191526107d98133610b8d565b8887146107f85760405162461bcd60e51b81526004016106b09061152a565b8885146108175760405162461bcd60e51b81526004016106b09061152a565b60006108298b8b8b8b8b8b8b8b61092a565b90506108358184610bf1565b60005b8a8110156108f35780827f4cf4410cc57040e44862ef0f45f3dd5a5e02db8eb8add648d4b0e236f1d07dca8e8e858181106108755761087561156d565b905060200201602081019061088a9190611583565b8d8d8681811061089c5761089c61156d565b905060200201358c8c878181106108b5576108b561156d565b90506020028101906108c7919061159e565b8c8b6040516108db969594939291906114ed565b60405180910390a36108ec816115fb565b9050610838565b505050505050505050505050565b6000918252602082815260408084206001600160a01b0393909316845291905290205460ff1690565b6000888888888888888860405160200161094b9897969594939291906116ab565b60405160208183030381529060405280519060200120905098975050505050505050565b6000805160206118d58339815191526109888133610b8d565b610991826106c7565b6109f75760405162461bcd60e51b815260206004820152603160248201527f54696d656c6f636b436f6e74726f6c6c65723a206f7065726174696f6e2063616044820152701b9b9bdd0818994818d85b98d95b1b1959607a1b60648201526084016106b0565b6000828152600160205260408082208290555183917fbaa1eb22f2a492ba1a5fea61b8df4d27c6c8b5f3971e63bb58fa14ff72eedb7091a25050565b600082815260208190526040902060010154610a4f8133610b8d565b6106268383610f6e565b7fd8aa0f3194971a2a116679f7c2090f6939c8d4e01a2a8d7e41d55e5351469e63610a85816000610901565b610a9357610a938133610b8d565b878614610ab25760405162461bcd60e51b81526004016106b09061152a565b878414610ad15760405162461bcd60e51b81526004016106b09061152a565b6000610ae38a8a8a8a8a8a8a8a61092a565b9050610aee84610ce0565b60005b89811015610b7757610b6782828d8d85818110610b1057610b1061156d565b9050602002016020810190610b259190611583565b8c8c86818110610b3757610b3761156d565b905060200201358b8b87818110610b5057610b5061156d565b9050602002810190610b62919061159e565b610d5a565b610b70816115fb565b9050610af1565b50610b8181610e6e565b50505050505050505050565b610b978282610901565b6106c357610baf816001600160a01b03166014610fd3565b610bba836020610fd3565b604051602001610bcb929190611786565b60408051601f198184030181529082905262461bcd60e51b82526106b0916004016117fb565b610bfa8261062b565b15610c5f5760405162461bcd60e51b815260206004820152602f60248201527f54696d656c6f636b436f6e74726f6c6c65723a206f7065726174696f6e20616c60448201526e1c9958591e481cd8da19591d5b1959608a1b60648201526084016106b0565b600254811015610cc05760405162461bcd60e51b815260206004820152602660248201527f54696d656c6f636b436f6e74726f6c6c65723a20696e73756666696369656e746044820152652064656c617960d01b60648201526084016106b0565b610cca814261182e565b6000928352600160205260409092209190915550565b801580610cfc5750600081815260016020819052604090912054145b610d575760405162461bcd60e51b815260206004820152602660248201527f54696d656c6f636b436f6e74726f6c6c65723a206d697373696e6720646570656044820152656e64656e637960d01b60648201526084016106b0565b50565b6000846001600160a01b0316848484604051610d77929190611846565b60006040518083038185875af1925050503d8060008114610db4576040519150601f19603f3d011682016040523d82523d6000602084013e610db9565b606091505b5050905080610e265760405162461bcd60e51b815260206004820152603360248201527f54696d656c6f636b436f6e74726f6c6c65723a20756e6465726c79696e6720746044820152721c985b9cd858dd1a5bdb881c995d995c9d1959606a1b60648201526084016106b0565b85877fc2617efa69bab66782fa219543714338489c4e9e178271560a91b82c3f612b5887878787604051610e5d9493929190611856565b60405180910390a350505050505050565b610e77816105da565b610ed65760405162461bcd60e51b815260206004820152602a60248201527f54696d656c6f636b436f6e74726f6c6c65723a206f7065726174696f6e206973604482015269206e6f7420726561647960b01b60648201526084016106b0565b600090815260016020819052604090912055565b610ef48282610901565b6106c3576000828152602081815260408083206001600160a01b03851684529091529020805460ff19166001179055610f2a3390565b6001600160a01b0316816001600160a01b0316837f2f8788117e7eff1d82e926ec794901d17c78024a50270940304540a733656f0d60405160405180910390a45050565b610f788282610901565b156106c3576000828152602081815260408083206001600160a01b0385168085529252808320805460ff1916905551339285917ff6391f5c32d9c69d2a47ea670b442974b53935d1edc7fd64eb21e047a839171b9190a45050565b60606000610fe2836002611888565b610fed90600261182e565b67ffffffffffffffff811115611005576110056118a7565b6040519080825280601f01601f19166020018201604052801561102f576020820181803683370190505b509050600360fc1b8160008151811061104a5761104a61156d565b60200101906001600160f81b031916908160001a905350600f60fb1b816001815181106110795761107961156d565b60200101906001600160f81b031916908160001a905350600061109d846002611888565b6110a890600161182e565b90505b6001811115611120576f181899199a1a9b1b9c1cb0b131b232b360811b85600f16601081106110dc576110dc61156d565b1a60f81b8282815181106110f2576110f261156d565b60200101906001600160f81b031916908160001a90535060049490941c93611119816118bd565b90506110ab565b5083156105f95760405162461bcd60e51b815260206004820181905260248201527f537472696e67733a20686578206c656e67746820696e73756666696369656e7460448201526064016106b0565b80356001600160a01b038116811461118657600080fd5b919050565b60008083601f84011261119d57600080fd5b50813567ffffffffffffffff8111156111b557600080fd5b6020830191508360208285010111156111cd57600080fd5b9250929050565b600080600080600080600060c0888a0312156111ef57600080fd5b6111f88861116f565b965060208801359550604088013567ffffffffffffffff81111561121b57600080fd5b6112278a828b0161118b565b989b979a50986060810135976080820135975060a09091013595509350505050565b60006020828403121561125b57600080fd5b81356001600160e01b0319811681146105f957600080fd5b60008060008060008060a0878903121561128c57600080fd5b6112958761116f565b955060208701359450604087013567ffffffffffffffff8111156112b857600080fd5b6112c489828a0161118b565b979a9699509760608101359660809091013595509350505050565b6000602082840312156112f157600080fd5b5035919050565b6000806040838503121561130b57600080fd5b8235915061131b6020840161116f565b90509250929050565b60008083601f84011261133657600080fd5b50813567ffffffffffffffff81111561134e57600080fd5b6020830191508360208260051b85010111156111cd57600080fd5b600080600080600080600080600060c08a8c03121561138757600080fd5b893567ffffffffffffffff8082111561139f57600080fd5b6113ab8d838e01611324565b909b50995060208c01359150808211156113c457600080fd5b6113d08d838e01611324565b909950975060408c01359150808211156113e957600080fd5b506113f68c828d01611324565b9a9d999c50979a969997986060880135976080810135975060a0013595509350505050565b60008060008060008060008060a0898b03121561143757600080fd5b883567ffffffffffffffff8082111561144f57600080fd5b61145b8c838d01611324565b909a50985060208b013591508082111561147457600080fd5b6114808c838d01611324565b909850965060408b013591508082111561149957600080fd5b506114a68b828c01611324565b999c989b509699959896976060870135966080013595509350505050565b81835281816020850137506000828201602090810191909152601f909101601f19169091010190565b60018060a01b038716815285602082015260a06040820152600061151560a0830186886114c4565b60608301949094525060800152949350505050565b60208082526023908201527f54696d656c6f636b436f6e74726f6c6c65723a206c656e677468206d69736d616040820152620e8c6d60eb1b606082015260800190565b634e487b7160e01b600052603260045260246000fd5b60006020828403121561159557600080fd5b6105f98261116f565b6000808335601e198436030181126115b557600080fd5b83018035915067ffffffffffffffff8211156115d057600080fd5b6020019150368190038213156111cd57600080fd5b634e487b7160e01b600052601160045260246000fd5b600060001982141561160f5761160f6115e5565b5060010190565b60008383855260208086019550808560051b8301018460005b8781101561169e57848303601f19018952813536889003601e1901811261165557600080fd5b8701803567ffffffffffffffff81111561166e57600080fd5b80360389131561167d57600080fd5b61168a85828885016114c4565b9a86019a945050509083019060010161162f565b5090979650505050505050565b60a0808252810188905260008960c08301825b8b8110156116ec576001600160a01b036116d78461116f565b168252602092830192909101906001016116be565b5083810360208501528881526001600160fb1b0389111561170c57600080fd5b8860051b9150818a60208301378181019150506020810160008152602084830301604085015261173d81888a611616565b6060850196909652505050608001529695505050505050565b60005b83811015611771578181015183820152602001611759565b83811115611780576000848401525b50505050565b7f416363657373436f6e74726f6c3a206163636f756e74200000000000000000008152600083516117be816017850160208801611756565b7001034b99036b4b9b9b4b733903937b6329607d1b60179184019182015283516117ef816028840160208801611756565b01602801949350505050565b602081526000825180602084015261181a816040850160208701611756565b601f01601f19169190910160400192915050565b60008219821115611841576118416115e5565b500190565b8183823760009101908152919050565b60018060a01b038516815283602082015260606040820152600061187e6060830184866114c4565b9695505050505050565b60008160001904831182151516156118a2576118a26115e5565b500290565b634e487b7160e01b600052604160045260246000fd5b6000816118cc576118cc6115e5565b50600019019056feb09aa5aeb3702cfd50b6b62bc4532604938f21248a27a1d5ca736082b6819cc1a264697066735822122013375b4277b125b521c6e901194437aca4203c9e0932dc9f3902723d4402f4f164736f6c634300080900335f58e3a2316349923ce3780f8d587db2d72378aed66a8261c916544fa6846ca5b09aa5aeb3702cfd50b6b62bc4532604938f21248a27a1d5ca736082b6819cc1d8aa0f3194971a2a116679f7c2090f6939c8d4e01a2a8d7e41d55e5351469e63",
  "immutableReferences": {},
  "source": "// contracts/SchnoodleGovernance.sol\r\n// SPDX-License-Identifier: MIT\r\npragma solidity ^0.8.0;\r\n\r\nimport \"@openzeppelin/contracts/governance/TimelockController.sol\";\r\n\r\ncontract SchnoodleGovernance is TimelockController {\r\n    constructor(uint256 minDelay, address[] memory proposers, address[] memory executors)\r\n        TimelockController(minDelay, proposers, executors)\r\n    {}\r\n}\r\n",
  "sourcePath": "C:\\Users\\micro\\OneDrive - X-treem Software\\Development\\Projects\\Blockchain\\Schnoodle\\contracts\\SchnoodleGovernance.sol",
  "compiler": {
    "name": "solc",
    "version": "0.8.9+commit.e5eed63a.Emscripten.clang"
  },
  "schemaVersion": "3.4.3",
  "updatedAt": "2021-11-11T07:43:08.695Z",
  "devdoc": {
    "kind": "dev",
    "methods": {
      "cancel(bytes32)": {
        "details": "Cancel an operation. Requirements: - the caller must have the 'proposer' role."
      },
      "execute(address,uint256,bytes,bytes32,bytes32)": {
        "details": "Execute an (ready) operation containing a single transaction. Emits a {CallExecuted} event. Requirements: - the caller must have the 'executor' role."
      },
      "executeBatch(address[],uint256[],bytes[],bytes32,bytes32)": {
        "details": "Execute an (ready) operation containing a batch of transactions. Emits one {CallExecuted} event per transaction in the batch. Requirements: - the caller must have the 'executor' role."
      },
      "getMinDelay()": {
        "details": "Returns the minimum delay for an operation to become valid. This value can be changed by executing an operation that calls `updateDelay`."
      },
      "getRoleAdmin(bytes32)": {
        "details": "Returns the admin role that controls `role`. See {grantRole} and {revokeRole}. To change a role's admin, use {_setRoleAdmin}."
      },
      "getTimestamp(bytes32)": {
        "details": "Returns the timestamp at with an operation becomes ready (0 for unset operations, 1 for done operations)."
      },
      "grantRole(bytes32,address)": {
        "details": "Grants `role` to `account`. If `account` had not been already granted `role`, emits a {RoleGranted} event. Requirements: - the caller must have ``role``'s admin role."
      },
      "hasRole(bytes32,address)": {
        "details": "Returns `true` if `account` has been granted `role`."
      },
      "hashOperation(address,uint256,bytes,bytes32,bytes32)": {
        "details": "Returns the identifier of an operation containing a single transaction."
      },
      "hashOperationBatch(address[],uint256[],bytes[],bytes32,bytes32)": {
        "details": "Returns the identifier of an operation containing a batch of transactions."
      },
      "isOperation(bytes32)": {
        "details": "Returns whether an id correspond to a registered operation. This includes both Pending, Ready and Done operations."
      },
      "isOperationDone(bytes32)": {
        "details": "Returns whether an operation is done or not."
      },
      "isOperationPending(bytes32)": {
        "details": "Returns whether an operation is pending or not."
      },
      "isOperationReady(bytes32)": {
        "details": "Returns whether an operation is ready or not."
      },
      "renounceRole(bytes32,address)": {
        "details": "Revokes `role` from the calling account. Roles are often managed via {grantRole} and {revokeRole}: this function's purpose is to provide a mechanism for accounts to lose their privileges if they are compromised (such as when a trusted device is misplaced). If the calling account had been granted `role`, emits a {RoleRevoked} event. Requirements: - the caller must be `account`."
      },
      "revokeRole(bytes32,address)": {
        "details": "Revokes `role` from `account`. If `account` had been granted `role`, emits a {RoleRevoked} event. Requirements: - the caller must have ``role``'s admin role."
      },
      "schedule(address,uint256,bytes,bytes32,bytes32,uint256)": {
        "details": "Schedule an operation containing a single transaction. Emits a {CallScheduled} event. Requirements: - the caller must have the 'proposer' role."
      },
      "scheduleBatch(address[],uint256[],bytes[],bytes32,bytes32,uint256)": {
        "details": "Schedule an operation containing a batch of transactions. Emits one {CallScheduled} event per transaction in the batch. Requirements: - the caller must have the 'proposer' role."
      },
      "supportsInterface(bytes4)": {
        "details": "See {IERC165-supportsInterface}."
      },
      "updateDelay(uint256)": {
        "details": "Changes the minimum timelock duration for future operations. Emits a {MinDelayChange} event. Requirements: - the caller must be the timelock itself. This can only be achieved by scheduling and later executing an operation where the timelock is the target and the data is the ABI-encoded call to this function."
      }
    },
    "version": 1
  },
  "userdoc": {
    "kind": "user",
    "methods": {},
    "version": 1
  }
}