{
  "contractName": "SchnoodleV4",
  "abi": [
    {
      "anonymous": false,
      "inputs": [
        {
          "indexed": true,
          "internalType": "address",
          "name": "owner",
          "type": "address"
        },
        {
          "indexed": true,
          "internalType": "address",
          "name": "spender",
          "type": "address"
        },
        {
          "indexed": false,
          "internalType": "uint256",
          "name": "value",
          "type": "uint256"
        }
      ],
      "name": "Approval",
      "type": "event"
    },
    {
      "anonymous": false,
      "inputs": [
        {
          "indexed": true,
          "internalType": "address",
          "name": "operator",
          "type": "address"
        },
        {
          "indexed": true,
          "internalType": "address",
          "name": "tokenHolder",
          "type": "address"
        }
      ],
      "name": "AuthorizedOperator",
      "type": "event"
    },
    {
      "anonymous": false,
      "inputs": [
        {
          "indexed": true,
          "internalType": "address",
          "name": "operator",
          "type": "address"
        },
        {
          "indexed": true,
          "internalType": "address",
          "name": "from",
          "type": "address"
        },
        {
          "indexed": false,
          "internalType": "uint256",
          "name": "amount",
          "type": "uint256"
        },
        {
          "indexed": false,
          "internalType": "bytes",
          "name": "data",
          "type": "bytes"
        },
        {
          "indexed": false,
          "internalType": "bytes",
          "name": "operatorData",
          "type": "bytes"
        }
      ],
      "name": "Burned",
      "type": "event"
    },
    {
      "anonymous": false,
      "inputs": [
        {
          "indexed": true,
          "internalType": "address",
          "name": "account",
          "type": "address"
        },
        {
          "indexed": false,
          "internalType": "uint256",
          "name": "percent",
          "type": "uint256"
        }
      ],
      "name": "EleemosynaryChanged",
      "type": "event"
    },
    {
      "anonymous": false,
      "inputs": [
        {
          "indexed": false,
          "internalType": "uint256",
          "name": "percent",
          "type": "uint256"
        }
      ],
      "name": "FeePercentChanged",
      "type": "event"
    },
    {
      "anonymous": false,
      "inputs": [
        {
          "indexed": true,
          "internalType": "address",
          "name": "operator",
          "type": "address"
        },
        {
          "indexed": true,
          "internalType": "address",
          "name": "to",
          "type": "address"
        },
        {
          "indexed": false,
          "internalType": "uint256",
          "name": "amount",
          "type": "uint256"
        },
        {
          "indexed": false,
          "internalType": "bytes",
          "name": "data",
          "type": "bytes"
        },
        {
          "indexed": false,
          "internalType": "bytes",
          "name": "operatorData",
          "type": "bytes"
        }
      ],
      "name": "Minted",
      "type": "event"
    },
    {
      "anonymous": false,
      "inputs": [
        {
          "indexed": true,
          "internalType": "address",
          "name": "previousOwner",
          "type": "address"
        },
        {
          "indexed": true,
          "internalType": "address",
          "name": "newOwner",
          "type": "address"
        }
      ],
      "name": "OwnershipTransferred",
      "type": "event"
    },
    {
      "anonymous": false,
      "inputs": [
        {
          "indexed": true,
          "internalType": "address",
          "name": "operator",
          "type": "address"
        },
        {
          "indexed": true,
          "internalType": "address",
          "name": "tokenHolder",
          "type": "address"
        }
      ],
      "name": "RevokedOperator",
      "type": "event"
    },
    {
      "anonymous": false,
      "inputs": [
        {
          "indexed": true,
          "internalType": "address",
          "name": "operator",
          "type": "address"
        },
        {
          "indexed": true,
          "internalType": "address",
          "name": "from",
          "type": "address"
        },
        {
          "indexed": true,
          "internalType": "address",
          "name": "to",
          "type": "address"
        },
        {
          "indexed": false,
          "internalType": "uint256",
          "name": "amount",
          "type": "uint256"
        },
        {
          "indexed": false,
          "internalType": "bytes",
          "name": "data",
          "type": "bytes"
        },
        {
          "indexed": false,
          "internalType": "bytes",
          "name": "operatorData",
          "type": "bytes"
        }
      ],
      "name": "Sent",
      "type": "event"
    },
    {
      "anonymous": false,
      "inputs": [
        {
          "indexed": true,
          "internalType": "address",
          "name": "from",
          "type": "address"
        },
        {
          "indexed": true,
          "internalType": "address",
          "name": "to",
          "type": "address"
        },
        {
          "indexed": false,
          "internalType": "uint256",
          "name": "value",
          "type": "uint256"
        }
      ],
      "name": "Transfer",
      "type": "event"
    },
    {
      "inputs": [
        {
          "internalType": "address",
          "name": "operator",
          "type": "address"
        }
      ],
      "name": "authorizeOperator",
      "outputs": [],
      "stateMutability": "nonpayable",
      "type": "function"
    },
    {
      "inputs": [
        {
          "internalType": "uint256",
          "name": "amount",
          "type": "uint256"
        },
        {
          "internalType": "bytes",
          "name": "data",
          "type": "bytes"
        }
      ],
      "name": "burn",
      "outputs": [],
      "stateMutability": "nonpayable",
      "type": "function"
    },
    {
      "inputs": [],
      "name": "decimals",
      "outputs": [
        {
          "internalType": "uint8",
          "name": "",
          "type": "uint8"
        }
      ],
      "stateMutability": "pure",
      "type": "function"
    },
    {
      "inputs": [],
      "name": "defaultOperators",
      "outputs": [
        {
          "internalType": "address[]",
          "name": "",
          "type": "address[]"
        }
      ],
      "stateMutability": "view",
      "type": "function"
    },
    {
      "inputs": [],
      "name": "granularity",
      "outputs": [
        {
          "internalType": "uint256",
          "name": "",
          "type": "uint256"
        }
      ],
      "stateMutability": "view",
      "type": "function"
    },
    {
      "inputs": [
        {
          "internalType": "address",
          "name": "operator",
          "type": "address"
        },
        {
          "internalType": "address",
          "name": "tokenHolder",
          "type": "address"
        }
      ],
      "name": "isOperatorFor",
      "outputs": [
        {
          "internalType": "bool",
          "name": "",
          "type": "bool"
        }
      ],
      "stateMutability": "view",
      "type": "function"
    },
    {
      "inputs": [],
      "name": "name",
      "outputs": [
        {
          "internalType": "string",
          "name": "",
          "type": "string"
        }
      ],
      "stateMutability": "view",
      "type": "function"
    },
    {
      "inputs": [
        {
          "internalType": "address",
          "name": "account",
          "type": "address"
        },
        {
          "internalType": "uint256",
          "name": "amount",
          "type": "uint256"
        },
        {
          "internalType": "bytes",
          "name": "data",
          "type": "bytes"
        },
        {
          "internalType": "bytes",
          "name": "operatorData",
          "type": "bytes"
        }
      ],
      "name": "operatorBurn",
      "outputs": [],
      "stateMutability": "nonpayable",
      "type": "function"
    },
    {
      "inputs": [
        {
          "internalType": "address",
          "name": "sender",
          "type": "address"
        },
        {
          "internalType": "address",
          "name": "recipient",
          "type": "address"
        },
        {
          "internalType": "uint256",
          "name": "amount",
          "type": "uint256"
        },
        {
          "internalType": "bytes",
          "name": "data",
          "type": "bytes"
        },
        {
          "internalType": "bytes",
          "name": "operatorData",
          "type": "bytes"
        }
      ],
      "name": "operatorSend",
      "outputs": [],
      "stateMutability": "nonpayable",
      "type": "function"
    },
    {
      "inputs": [],
      "name": "owner",
      "outputs": [
        {
          "internalType": "address",
          "name": "",
          "type": "address"
        }
      ],
      "stateMutability": "view",
      "type": "function"
    },
    {
      "inputs": [],
      "name": "renounceOwnership",
      "outputs": [],
      "stateMutability": "nonpayable",
      "type": "function"
    },
    {
      "inputs": [
        {
          "internalType": "address",
          "name": "operator",
          "type": "address"
        }
      ],
      "name": "revokeOperator",
      "outputs": [],
      "stateMutability": "nonpayable",
      "type": "function"
    },
    {
      "inputs": [
        {
          "internalType": "address",
          "name": "recipient",
          "type": "address"
        },
        {
          "internalType": "uint256",
          "name": "amount",
          "type": "uint256"
        },
        {
          "internalType": "bytes",
          "name": "data",
          "type": "bytes"
        }
      ],
      "name": "send",
      "outputs": [],
      "stateMutability": "nonpayable",
      "type": "function"
    },
    {
      "inputs": [],
      "name": "symbol",
      "outputs": [
        {
          "internalType": "string",
          "name": "",
          "type": "string"
        }
      ],
      "stateMutability": "view",
      "type": "function"
    },
    {
      "inputs": [
        {
          "internalType": "address",
          "name": "newOwner",
          "type": "address"
        }
      ],
      "name": "transferOwnership",
      "outputs": [],
      "stateMutability": "nonpayable",
      "type": "function"
    },
    {
      "inputs": [
        {
          "internalType": "string",
          "name": "name",
          "type": "string"
        },
        {
          "internalType": "string",
          "name": "symbol",
          "type": "string"
        },
        {
          "internalType": "address[]",
          "name": "defaultOperators",
          "type": "address[]"
        },
        {
          "internalType": "uint256",
          "name": "initialSupply",
          "type": "uint256"
        },
        {
          "internalType": "address",
          "name": "owner",
          "type": "address"
        }
      ],
      "name": "initialize",
      "outputs": [],
      "stateMutability": "nonpayable",
      "type": "function"
    },
    {
      "inputs": [
        {
          "internalType": "uint256",
          "name": "initialTokens",
          "type": "uint256"
        },
        {
          "internalType": "address",
          "name": "serviceAccount",
          "type": "address"
        }
      ],
      "name": "initialize",
      "outputs": [],
      "stateMutability": "nonpayable",
      "type": "function"
    },
    {
      "inputs": [],
      "name": "totalSupply",
      "outputs": [
        {
          "internalType": "uint256",
          "name": "",
          "type": "uint256"
        }
      ],
      "stateMutability": "view",
      "type": "function"
    },
    {
      "inputs": [
        {
          "internalType": "address",
          "name": "account",
          "type": "address"
        }
      ],
      "name": "balanceOf",
      "outputs": [
        {
          "internalType": "uint256",
          "name": "",
          "type": "uint256"
        }
      ],
      "stateMutability": "view",
      "type": "function"
    },
    {
      "inputs": [
        {
          "internalType": "address",
          "name": "recipient",
          "type": "address"
        },
        {
          "internalType": "uint256",
          "name": "amount",
          "type": "uint256"
        }
      ],
      "name": "transfer",
      "outputs": [
        {
          "internalType": "bool",
          "name": "",
          "type": "bool"
        }
      ],
      "stateMutability": "nonpayable",
      "type": "function"
    },
    {
      "inputs": [
        {
          "internalType": "address",
          "name": "holder",
          "type": "address"
        },
        {
          "internalType": "address",
          "name": "spender",
          "type": "address"
        }
      ],
      "name": "allowance",
      "outputs": [
        {
          "internalType": "uint256",
          "name": "",
          "type": "uint256"
        }
      ],
      "stateMutability": "view",
      "type": "function"
    },
    {
      "inputs": [
        {
          "internalType": "address",
          "name": "spender",
          "type": "address"
        },
        {
          "internalType": "uint256",
          "name": "value",
          "type": "uint256"
        }
      ],
      "name": "approve",
      "outputs": [
        {
          "internalType": "bool",
          "name": "",
          "type": "bool"
        }
      ],
      "stateMutability": "nonpayable",
      "type": "function"
    },
    {
      "inputs": [
        {
          "internalType": "address",
          "name": "sender",
          "type": "address"
        },
        {
          "internalType": "address",
          "name": "recipient",
          "type": "address"
        },
        {
          "internalType": "uint256",
          "name": "amount",
          "type": "uint256"
        }
      ],
      "name": "transferFrom",
      "outputs": [
        {
          "internalType": "bool",
          "name": "",
          "type": "bool"
        }
      ],
      "stateMutability": "nonpayable",
      "type": "function"
    },
    {
      "inputs": [
        {
          "internalType": "uint256",
          "name": "percent",
          "type": "uint256"
        }
      ],
      "name": "changeFeePercent",
      "outputs": [],
      "stateMutability": "nonpayable",
      "type": "function"
    },
    {
      "inputs": [
        {
          "internalType": "address",
          "name": "account",
          "type": "address"
        },
        {
          "internalType": "uint256",
          "name": "percent",
          "type": "uint256"
        }
      ],
      "name": "changeEleemosynary",
      "outputs": [],
      "stateMutability": "nonpayable",
      "type": "function"
    },
    {
      "inputs": [],
      "name": "maintenance",
      "outputs": [],
      "stateMutability": "nonpayable",
      "type": "function"
    }
  ],
  "bytecode": "0x608060405234801561001057600080fd5b50612b9f806100206000396000f3fe608060405234801561001057600080fd5b506004361061018e5760003560e01c8063768f950a116100de578063d95b637111610097578063f2fde38b11610071578063f2fde38b1461032a578063fad8b32a1461033d578063fc673c4f14610350578063fe9d93031461036357600080fd5b8063d95b6371146102f1578063da35a26f14610304578063dd62ed3e1461031757600080fd5b8063768f950a146102825780638da5cb5b14610295578063959b8c3f146102b057806395d89b41146102c35780639bd9bbc6146102cb578063a9059cbb146102de57600080fd5b8063313ce5671161014b57806362ad1b831161012557806362ad1b831461024c5780636c376cc51461025f57806370a0823114610267578063715018a61461027a57600080fd5b8063313ce5671461022357806334eddf3e14610232578063556f0dc71461024557600080fd5b806306e485381461019357806306fdde03146101b1578063095ea7b3146101c657806318160ddd146101e957806323b872dd146101fb5780632f5d14671461020e575b600080fd5b61019b610376565b6040516101a89190612239565b60405180910390f35b6101b96103d8565b6040516101a891906122d3565b6101d96101d436600461230b565b610461565b60405190151581526020016101a8565b60c9545b6040519081526020016101a8565b6101d9610209366004612337565b61047e565b61022161021c36600461230b565b6104ed565b005b604051601281526020016101a8565b610221610240366004612378565b61057a565b60016101ed565b61022161025a366004612448565b6105df565b61022161061b565b6101ed6102753660046124db565b610657565b610221610703565b6102216102903660046124f8565b610737565b6097546040516001600160a01b0390911681526020016101a8565b6102216102be3660046124db565b6107b5565b6101b96108d3565b6102216102d936600461260b565b6108e2565b6101d96102ec36600461230b565b610905565b6101d96102ff366004612664565b610972565b61022161031236600461269d565b610a13565b6101ed610325366004612664565b610b0f565b6102216103383660046124db565b610b49565b61022161034b3660046124db565b610be4565b61022161035e3660046126c2565b610d00565b610221610371366004612742565b610d38565b606060378054806020026020016040519081016040528092919081815260200182805480156103ce57602002820191906000526020600020905b81546001600160a01b031681526001909101906020018083116103b0575b5050505050905090565b6060603580546103e790612789565b80601f016020809104026020016040519081016040528092919081815260200182805461041390612789565b80156103ce5780601f10610435576101008083540402835291602001916103ce565b820191906000526020600020905b81548152906001019060200180831161044357509395945050505050565b60006104758361047084610d57565b610d6b565b90505b92915050565b60008061048a83610d57565b90506000610499868684610d83565b9050846001600160a01b0316866001600160a01b0316600080516020612b4a833981519152866040516104ce91815260200190565b60405180910390a36104e4858584610f43610f67565b95945050505050565b6097546001600160a01b031633146105205760405162461bcd60e51b8152600401610517906127c4565b60405180910390fd5b60cb80546001600160a01b0319166001600160a01b03841690811790915560cc8290556040518281527f14771002f2414c27e60fe966b41bcb8004589b44c52a1f73016757cc92bf5ada9060200160405180910390a25050565b6097546001600160a01b031633146105a45760405162461bcd60e51b8152600401610517906127c4565b60ca8190556040518181527f91955c12515f4eb8f1ff79df82d1933ff11b6d3b9a3019c6568840616ec36a749060200160405180910390a150565b6105e93386610972565b6106055760405162461bcd60e51b8152600401610517906127f9565b61061485858585856001611006565b5050505050565b61063873c9f7998856560f9626e4fee505c71ad1e168cb40611073565b6106557378fc40ca8a23cf02654d4a5638ba4d71bacaa965611073565b565b6001600160a01b0381166000908152603360205260408120546034548111156106ea576040805162461bcd60e51b81526020600482015260248101919091527f5363686e6f6f646c653a205265666c65637465642062616c616e6365206d757360448201527f74206265206c657373207468616e20746f74616c207265666c656374696f6e736064820152608401610517565b6106f26110b2565b6106fc9082612871565b9392505050565b6097546001600160a01b0316331461072d5760405162461bcd60e51b8152600401610517906127c4565b61065560006110cf565b600054610100900460ff1680610750575060005460ff16155b61076c5760405162461bcd60e51b815260040161051790612885565b600054610100900460ff1615801561078e576000805461ffff19166101011790555b61079b8686868686611121565b80156107ad576000805461ff00191690555b505050505050565b336001600160a01b038216141561081a5760405162461bcd60e51b8152602060048201526024808201527f4552433737373a20617574686f72697a696e672073656c66206173206f70657260448201526330ba37b960e11b6064820152608401610517565b6001600160a01b03811660009081526038602052604090205460ff161561086b57336000908152603a602090815260408083206001600160a01b03851684529091529020805460ff1916905561089a565b3360009081526039602090815260408083206001600160a01b03851684529091529020805460ff191660011790555b60405133906001600160a01b038316907ff4caeb2d6ca8932a215a353d0703c326ec2d81fc68170f320eb2ab49e9df61f990600090a350565b6060603680546103e790612789565b61090033848484604051806020016040528060008152506001611006565b505050565b60008061091183610d57565b9050600061091f8583611198565b90506001600160a01b038516336001600160a01b0316600080516020612b4a8339815191528660405161095491815260200190565b60405180910390a361096a858584610f43610f67565b949350505050565b6000816001600160a01b0316836001600160a01b031614806109dd57506001600160a01b03831660009081526038602052604090205460ff1680156109dd57506001600160a01b038083166000908152603a602090815260408083209387168352929052205460ff16155b806104755750506001600160a01b0390811660009081526039602090815260408083209490931682529290925290205460ff1690565b600054610100900460ff1680610a2c575060005460ff16155b610a485760405162461bcd60e51b815260040161051790612885565b600054610100900460ff16158015610a6a576000805461ffff19166101011790555b610a7261124b565b610a7e6012600a6129b7565b610a8890846129c6565b60c981905560408051808201825260098152685363686e6f6f646c6560b81b60208083019190915282518084018452600581526414d393d3d160da1b81830152835160008152918201909352610af993919291610ae7906000196129e5565b610af3906000196129f9565b86610737565b8015610900576000805461ff0019169055505050565b6000610b196110b2565b6001600160a01b038085166000908152603b60209081526040808320938716835292905220546104759190612871565b6097546001600160a01b03163314610b735760405162461bcd60e51b8152600401610517906127c4565b6001600160a01b038116610bd85760405162461bcd60e51b815260206004820152602660248201527f4f776e61626c653a206e6577206f776e657220697320746865207a65726f206160448201526564647265737360d01b6064820152608401610517565b610be1816110cf565b50565b6001600160a01b038116331415610c475760405162461bcd60e51b815260206004820152602160248201527f4552433737373a207265766f6b696e672073656c66206173206f70657261746f6044820152603960f91b6064820152608401610517565b6001600160a01b03811660009081526038602052604090205460ff1615610c9b57336000908152603a602090815260408083206001600160a01b03851684529091529020805460ff19166001179055610cc7565b3360009081526039602090815260408083206001600160a01b03851684529091529020805460ff191690555b60405133906001600160a01b038316907f50546e66e5f44d728365dc3908c63bc5cfeeab470722c1677e3073a6ac294aa190600090a350565b610d0a3385610972565b610d265760405162461bcd60e51b8152600401610517906127f9565b610d32848484846112c6565b50505050565b610d53338383604051806020016040528060008152506112c6565b5050565b6000610d616110b2565b61047890836129c6565b600033610d798185856112f7565b5060019392505050565b60006001600160a01b038316610dab5760405162461bcd60e51b815260040161051790612a10565b6001600160a01b038416610e105760405162461bcd60e51b815260206004820152602660248201527f4552433737373a207472616e736665722066726f6d20746865207a65726f206160448201526564647265737360d01b6064820152608401610517565b6000339050610e4181868686604051806020016040528060008152506040518060200160405280600081525061141f565b610e6d818686866040518060200160405280600081525060405180602001604052806000815250611555565b6001600160a01b038086166000908152603b602090815260408083209385168352929052205483811015610ef55760405162461bcd60e51b815260206004820152602960248201527f4552433737373a207472616e7366657220616d6f756e74206578636565647320604482015268616c6c6f77616e636560b81b6064820152608401610517565b610f098683610f0487856129f9565b6112f7565b610f3782878787604051806020016040528060008152506040518060200160405280600081525060006116b5565b50600195945050505050565b610f4f82335b836112f7565b60cb546109009083906001600160a01b031683610d83565b610f72848484611889565b60cb546001600160a01b031615610d32576000606460cc5485610f9591906129c6565b610f9f9190612871565b90506000610fac82610d57565b9050610fbc86828563ffffffff16565b60cb546040518381526001600160a01b0391821691881690600080516020612b4a8339815191529060200160405180910390a360cb546107ad906001600160a01b03168383611889565b600061101185610d57565b9050611021878783878787611918565b856001600160a01b0316876001600160a01b0316600080516020612b4a8339815191528760405161105491815260200190565b60405180910390a361106a8686836119fb610f67565b50505050505050565b737731a6785a01ea6b606eb8ffac7d7861c99dc6bb600061109b61109684610657565b610d57565b90506110a78333610f49565b610d32838383610d83565b60006110bd60c95490565b6034546110ca9190612871565b905090565b609780546001600160a01b038381166001600160a01b0319831681179093556040519116919082907f8be0079c531659141344cd1fd0a4f28419497f9722a3daafe3b4186f6b6457e090600090a35050565b600054610100900460ff168061113a575060005460ff16155b6111565760405162461bcd60e51b815260040161051790612885565b600054610100900460ff16158015611178576000805461ffff19166101011790555b611180611a34565b61118b868686611a9e565b61079b8686868686611cd3565b60006001600160a01b0383166111c05760405162461bcd60e51b815260040161051790612a10565b60003390506111f181828686604051806020016040528060008152506040518060200160405280600081525061141f565b61121d818286866040518060200160405280600081525060405180602001604052806000815250611555565b610d7981828686604051806020016040528060008152506040518060200160405280600081525060006116b5565b600054610100900460ff1680611264575060005460ff16155b6112805760405162461bcd60e51b815260040161051790612885565b600054610100900460ff161580156112a2576000805461ffff19166101011790555b6112aa611a34565b6112b2611d54565b8015610be1576000805461ff001916905550565b6112da846112d385610d57565b8484611db4565b8260c960008282546112ec91906129f9565b909155505050505050565b6001600160a01b03831661135b5760405162461bcd60e51b815260206004820152602560248201527f4552433737373a20617070726f76652066726f6d20746865207a65726f206164604482015264647265737360d81b6064820152608401610517565b6001600160a01b0382166113bd5760405162461bcd60e51b815260206004820152602360248201527f4552433737373a20617070726f766520746f20746865207a65726f206164647260448201526265737360e81b6064820152608401610517565b6001600160a01b038381166000818152603b602090815260408083209487168084529482529182902085905590518481527f8c5be1e5ebec7d5bd14f71427d1e84f3dd0314c0f7b2291e5b200ac8c7c3b92591015b60405180910390a3505050565b60405163555ddc6560e11b81526001600160a01b03861660048201527f29ddb589b1fb5fc7cf394961c1adf5f8c6454761adf795e67fe149f658abe8956024820152600090731820a4b7618bde71dce8cdc73aab6c95905fad249063aabbb8ca9060440160206040518083038186803b15801561149b57600080fd5b505afa1580156114af573d6000803e3d6000fd5b505050506040513d601f19601f820116820180604052508101906114d39190612a54565b90506001600160a01b0381161561106a57604051633ad5cbc160e11b81526001600160a01b038216906375ab97829061151a908a908a908a908a908a908a90600401612a71565b600060405180830381600087803b15801561153457600080fd5b505af1158015611548573d6000803e3d6000fd5b5050505050505050505050565b61156186868686611f64565b6001600160a01b038516600090815260336020526040902054838110156115da5760405162461bcd60e51b815260206004820152602760248201527f4552433737373a207472616e7366657220616d6f756e7420657863656564732060448201526662616c616e636560c81b6064820152608401610517565b6001600160a01b03808716600090815260336020526040808220878503905591871681529081208054869290611611908490612acb565b92505081905550846001600160a01b0316866001600160a01b0316886001600160a01b03167f06b541ddaa720db2b10a4d0cdac39b8d360425fc073085fac19bc8261467798787878760405161166993929190612ae3565b60405180910390a4846001600160a01b0316866001600160a01b0316600080516020612b4a833981519152866040516116a491815260200190565b60405180910390a350505050505050565b60405163555ddc6560e11b81526001600160a01b03861660048201527fb281fc8c12954d22544db45de3159a39272895b169a852b314f9cc762e44c53b6024820152600090731820a4b7618bde71dce8cdc73aab6c95905fad249063aabbb8ca9060440160206040518083038186803b15801561173157600080fd5b505afa158015611745573d6000803e3d6000fd5b505050506040513d601f19601f820116820180604052508101906117699190612a54565b90506001600160a01b038116156117e5576040516223de2960e01b81526001600160a01b038216906223de29906117ae908b908b908b908b908b908b90600401612a71565b600060405180830381600087803b1580156117c857600080fd5b505af11580156117dc573d6000803e3d6000fd5b5050505061187f565b811561187f576001600160a01b0386163b1561187f5760405162461bcd60e51b815260206004820152604d60248201527f4552433737373a20746f6b656e20726563697069656e7420636f6e747261637460448201527f20686173206e6f20696d706c656d656e74657220666f7220455243373737546f60648201526c1ad95b9cd49958da5c1a595b9d609a1b608482015260a401610517565b5050505050505050565b6118cc8360ca5460648461189d9190612871565b6118a791906129c6565b6040518060200160405280600081525060405180602001604052806000815250611db4565b60006001600160a01b0316836001600160a01b0316600080516020612b4a833981519152606460ca548661190091906129c6565b61190a9190612871565b604051908152602001611412565b6001600160a01b0386166119795760405162461bcd60e51b815260206004820152602260248201527f4552433737373a2073656e642066726f6d20746865207a65726f206164647265604482015261737360f01b6064820152608401610517565b6001600160a01b0385166119cf5760405162461bcd60e51b815260206004820181905260248201527f4552433737373a2073656e6420746f20746865207a65726f20616464726573736044820152606401610517565b336119de81888888888861141f565b6119ec818888888888611555565b61106a818888888888886116b5565b60cb54604080516020808201835260008083528351918201909352918252610d539285926001600160a01b039091169185916001611918565b600054610100900460ff1680611a4d575060005460ff16155b611a695760405162461bcd60e51b815260040161051790612885565b600054610100900460ff161580156112b2576000805461ffff19166101011790558015610be1576000805461ff001916905550565b600054610100900460ff1680611ab7575060005460ff16155b611ad35760405162461bcd60e51b815260040161051790612885565b600054610100900460ff16158015611af5576000805461ffff19166101011790555b8351611b0890603590602087019061214b565b508251611b1c90603690602086019061214b565b508151611b309060379060208501906121cf565b5060005b8251811015611b9957600160386000858481518110611b5557611b55612b18565b6020908102919091018101516001600160a01b03168252810191909152604001600020805460ff191691151591909117905580611b9181612b2e565b915050611b34565b506040516329965a1d60e01b815230600482018190527fac7fbab5f54a3ca8194167523c6753bfeb96a445279294b6125b68cce217705460248301526044820152731820a4b7618bde71dce8cdc73aab6c95905fad24906329965a1d90606401600060405180830381600087803b158015611c1357600080fd5b505af1158015611c27573d6000803e3d6000fd5b50506040516329965a1d60e01b815230600482018190527faea199e31a596269b42cdafd93407f14436db6e4cad65417994c2eb37381e05a60248301526044820152731820a4b7618bde71dce8cdc73aab6c95905fad2492506329965a1d9150606401600060405180830381600087803b158015611ca457600080fd5b505af1158015611cb8573d6000803e3d6000fd5b505050508015610d32576000805461ff001916905550505050565b600054610100900460ff1680611cec575060005460ff16155b611d085760405162461bcd60e51b815260040161051790612885565b600054610100900460ff16158015611d2a576000805461ffff19166101011790555b61079b8284604051806020016040528060008152506040518060200160405280600081525061200e565b600054610100900460ff1680611d6d575060005460ff16155b611d895760405162461bcd60e51b815260040161051790612885565b600054610100900460ff16158015611dab576000805461ffff19166101011790555b6112b2336110cf565b6001600160a01b038416611e155760405162461bcd60e51b815260206004820152602260248201527f4552433737373a206275726e2066726f6d20746865207a65726f206164647265604482015261737360f01b6064820152608401610517565b33611e258186600087878761141f565b611e328186600087611f64565b6001600160a01b03851660009081526033602052604090205484811015611ea75760405162461bcd60e51b815260206004820152602360248201527f4552433737373a206275726e20616d6f756e7420657863656564732062616c616044820152626e636560e81b6064820152608401610517565b6001600160a01b0386166000908152603360205260408120868303905560348054879290611ed69084906129f9565b92505081905550856001600160a01b0316826001600160a01b03167fa78a9be3a7b862d26933ad85fb11d80ef66b8f972d7cbba06621d583943a4098878787604051611f2493929190612ae3565b60405180910390a36040518581526000906001600160a01b03881690600080516020612b4a833981519152906020015b60405180910390a3505050505050565b6001600160a01b0383167379a1dda6625dc4842625ef05591e4f232223212014801590611fae57506001600160a01b038316735d22e32398cae8f8448df5491b50c39b7f27101614155b8015611fd757506001600160a01b038316733443036e7c2dfc1f09a309c96b502b4f20f32e4214155b801561200057506001600160a01b03831673a51dc67ec00a9b082ec1ebc4a901a9cb447e30e414155b61200957600080fd5b610d32565b610d328484848460016001600160a01b03851661206d5760405162461bcd60e51b815260206004820181905260248201527f4552433737373a206d696e7420746f20746865207a65726f20616464726573736044820152606401610517565b3361207b8160008888611f64565b846034600082825461208d9190612acb565b90915550506001600160a01b038616600090815260336020526040812080548792906120ba908490612acb565b909155506120d0905081600088888888886116b5565b856001600160a01b0316816001600160a01b03167f2fe5be0146f74c5bce36c0b80911af6c7d86ff27e89d5cfa61fc681327954e5d87878760405161211793929190612ae3565b60405180910390a36040518581526001600160a01b03871690600090600080516020612b4a83398151915290602001611f54565b82805461215790612789565b90600052602060002090601f01602090048101928261217957600085556121bf565b82601f1061219257805160ff19168380011785556121bf565b828001600101855582156121bf579182015b828111156121bf5782518255916020019190600101906121a4565b506121cb929150612224565b5090565b8280548282559060005260206000209081019282156121bf579160200282015b828111156121bf57825182546001600160a01b0319166001600160a01b039091161782556020909201916001909101906121ef565b5b808211156121cb5760008155600101612225565b6020808252825182820181905260009190848201906040850190845b8181101561227a5783516001600160a01b031683529284019291840191600101612255565b50909695505050505050565b6000815180845260005b818110156122ac57602081850181015186830182015201612290565b818111156122be576000602083870101525b50601f01601f19169290920160200192915050565b6020815260006104756020830184612286565b6001600160a01b0381168114610be157600080fd5b8035612306816122e6565b919050565b6000806040838503121561231e57600080fd5b8235612329816122e6565b946020939093013593505050565b60008060006060848603121561234c57600080fd5b8335612357816122e6565b92506020840135612367816122e6565b929592945050506040919091013590565b60006020828403121561238a57600080fd5b5035919050565b634e487b7160e01b600052604160045260246000fd5b604051601f8201601f1916810167ffffffffffffffff811182821017156123d0576123d0612391565b604052919050565b600082601f8301126123e957600080fd5b813567ffffffffffffffff81111561240357612403612391565b612416601f8201601f19166020016123a7565b81815284602083860101111561242b57600080fd5b816020850160208301376000918101602001919091529392505050565b600080600080600060a0868803121561246057600080fd5b853561246b816122e6565b9450602086013561247b816122e6565b935060408601359250606086013567ffffffffffffffff8082111561249f57600080fd5b6124ab89838a016123d8565b935060808801359150808211156124c157600080fd5b506124ce888289016123d8565b9150509295509295909350565b6000602082840312156124ed57600080fd5b81356106fc816122e6565b600080600080600060a0868803121561251057600080fd5b853567ffffffffffffffff8082111561252857600080fd5b61253489838a016123d8565b965060209150818801358181111561254b57600080fd5b6125578a828b016123d8565b96505060408801358181111561256c57600080fd5b8801601f81018a1361257d57600080fd5b80358281111561258f5761258f612391565b8060051b92506125a08484016123a7565b818152928201840192848101908c8511156125ba57600080fd5b928501925b848410156125e457833592506125d4836122e6565b82825292850192908501906125bf565b9750505050606088013593506125ff915050608087016122fb565b90509295509295909350565b60008060006060848603121561262057600080fd5b833561262b816122e6565b925060208401359150604084013567ffffffffffffffff81111561264e57600080fd5b61265a868287016123d8565b9150509250925092565b6000806040838503121561267757600080fd5b8235612682816122e6565b91506020830135612692816122e6565b809150509250929050565b600080604083850312156126b057600080fd5b823591506020830135612692816122e6565b600080600080608085870312156126d857600080fd5b84356126e3816122e6565b935060208501359250604085013567ffffffffffffffff8082111561270757600080fd5b612713888389016123d8565b9350606087013591508082111561272957600080fd5b50612736878288016123d8565b91505092959194509250565b6000806040838503121561275557600080fd5b82359150602083013567ffffffffffffffff81111561277357600080fd5b61277f858286016123d8565b9150509250929050565b600181811c9082168061279d57607f821691505b602082108114156127be57634e487b7160e01b600052602260045260246000fd5b50919050565b6020808252818101527f4f776e61626c653a2063616c6c6572206973206e6f7420746865206f776e6572604082015260600190565b6020808252602c908201527f4552433737373a2063616c6c6572206973206e6f7420616e206f70657261746f60408201526b39103337b9103437b63232b960a11b606082015260800190565b634e487b7160e01b600052601260045260246000fd5b634e487b7160e01b600052601160045260246000fd5b60008261288057612880612845565b500490565b6020808252602e908201527f496e697469616c697a61626c653a20636f6e747261637420697320616c72656160408201526d191e481a5b9a5d1a585b1a5e995960921b606082015260800190565b600181815b8085111561290e5781600019048211156128f4576128f461285b565b8085161561290157918102915b93841c93908002906128d8565b509250929050565b60008261292557506001610478565b8161293257506000610478565b816001811461294857600281146129525761296e565b6001915050610478565b60ff8411156129635761296361285b565b50506001821b610478565b5060208310610133831016604e8410600b8410161715612991575081810a610478565b61299b83836128d3565b80600019048211156129af576129af61285b565b029392505050565b600061047560ff841683612916565b60008160001904831182151516156129e0576129e061285b565b500290565b6000826129f4576129f4612845565b500690565b600082821015612a0b57612a0b61285b565b500390565b60208082526024908201527f4552433737373a207472616e7366657220746f20746865207a65726f206164646040820152637265737360e01b606082015260800190565b600060208284031215612a6657600080fd5b81516106fc816122e6565b6001600160a01b0387811682528681166020830152851660408201526060810184905260c060808201819052600090612aac90830185612286565b82810360a0840152612abe8185612286565b9998505050505050505050565b60008219821115612ade57612ade61285b565b500190565b838152606060208201526000612afc6060830185612286565b8281036040840152612b0e8185612286565b9695505050505050565b634e487b7160e01b600052603260045260246000fd5b6000600019821415612b4257612b4261285b565b506001019056feddf252ad1be2c89b69c2b068fc378daa952ba7f163c4a11628f55a4df523b3efa2646970667358221220ac98def41ba014202a6bc44d80993b5be45f462428fb51fd1a605774bfcf295f64736f6c63430008090033",
  "immutableReferences": {},
  "source": "// contracts/SchnoodleV4.sol\r\n// SPDX-License-Identifier: MIT\r\npragma solidity ^0.8.0;\r\n\r\nimport \"@openzeppelin/contracts-upgradeable/proxy/utils/Initializable.sol\";\r\nimport \"@openzeppelin/contracts-upgradeable/token/ERC777/presets/ERC777PresetFixedSupplyUpgradeable.sol\";\r\nimport \"@openzeppelin/contracts-upgradeable/access/OwnableUpgradeable.sol\";\r\n\r\ncontract SchnoodleV4 is ERC777PresetFixedSupplyUpgradeable, OwnableUpgradeable {\r\n    uint256 private constant MAX = ~uint256(0);\r\n    uint256 private _totalSupply;\r\n    uint256 private _feePercent;\r\n    address private _eleemosynary;\r\n    uint256 private _donationPercent;\r\n\r\n    function initialize(uint256 initialTokens, address serviceAccount) public initializer {\r\n        __Ownable_init();\r\n        _totalSupply = initialTokens * 10 ** decimals();\r\n        super.initialize(\"Schnoodle\", \"SNOOD\", new address[](0), MAX - (MAX % totalSupply()), serviceAccount);\r\n    }\r\n\r\n    function totalSupply() public view virtual override returns (uint256) {\r\n        return _totalSupply;\r\n    }\r\n\r\n    function balanceOf(address account) public view override returns (uint256) {\r\n        uint256 reflectedBalance = super.balanceOf(account);\r\n        require(reflectedBalance <= super.totalSupply(), \"Schnoodle: Reflected balance must be less than total reflections\");\r\n        return reflectedBalance / _getRate();\r\n    }\r\n\r\n    function transfer(address recipient, uint256 amount) public virtual override returns (bool) {\r\n        uint256 reflectedAmount = _getReflectedAmount(amount);\r\n        bool result = super.transfer(recipient, reflectedAmount);\r\n        emit Transfer(_msgSender(), recipient, amount);\r\n        _payFeeAndDonate(recipient, amount, reflectedAmount, _transferToEleemosynary);\r\n        return result;\r\n    }\r\n\r\n    function allowance(address holder, address spender) public view virtual override returns (uint256) {\r\n        return super.allowance(holder, spender) / _getRate();\r\n    }\r\n\r\n    function approve(address spender, uint256 value) public virtual override returns (bool) {\r\n        return super.approve(spender, _getReflectedAmount(value));\r\n    }\r\n\r\n    function transferFrom(address sender, address recipient, uint256 amount) public virtual override returns (bool) {\r\n        uint256 reflectedAmount = _getReflectedAmount(amount);\r\n        bool result = super.transferFrom(sender, recipient, reflectedAmount);\r\n        emit Transfer(sender, recipient, amount);\r\n        _payFeeAndDonate(recipient, amount, reflectedAmount, _transferToEleemosynary);\r\n        return result;\r\n    }\r\n\r\n    function _send(address from, address to, uint256 amount, bytes memory userData, bytes memory operatorData, bool requireReceptionAck) internal virtual override {\r\n        uint256 reflectedAmount = _getReflectedAmount(amount);\r\n        super._send(from, to, reflectedAmount, userData, operatorData, requireReceptionAck);\r\n        emit Transfer(from, to, amount);\r\n        _payFeeAndDonate(to, amount, reflectedAmount, _sendToEleemosynary);\r\n    }\r\n\r\n    function _transferToEleemosynary(address recipient, uint256 reflectedDonationAmount) internal {\r\n        _approve(recipient, _msgSender(), reflectedDonationAmount);\r\n        super.transferFrom(recipient, _eleemosynary, reflectedDonationAmount);\r\n    }\r\n\r\n    function _sendToEleemosynary(address recipient, uint256 reflectedDonationAmount) internal {\r\n        super._send(recipient, _eleemosynary, reflectedDonationAmount, \"\", \"\", true);\r\n    }\r\n\r\n    function _payFeeAndDonate(address recipient, uint256 amount, uint256 reflectedAmount, function(address, uint256) internal donateCallback) private {\r\n        _payFee(recipient, amount, reflectedAmount);\r\n        \r\n        // The eleemosynary fund is optional\r\n        if (_eleemosynary != address(0)) {\r\n            uint256 donationAmount = amount * _donationPercent / 100;\r\n            uint256 reflectedDonationAmount = _getReflectedAmount(donationAmount);\r\n            donateCallback(recipient, reflectedDonationAmount);\r\n            emit Transfer(recipient, _eleemosynary, donationAmount);\r\n            _payFee(_eleemosynary, donationAmount, reflectedDonationAmount);\r\n        }\r\n    }\r\n\r\n    function _payFee(address recipient, uint256 amount, uint256 reflectedAmount) private {\r\n        super._burn(recipient, reflectedAmount / 100 * _feePercent, \"\", \"\");\r\n        emit Transfer(recipient, address(0), amount * _feePercent / 100);\r\n    }\r\n\r\n    function changeFeePercent(uint256 percent) public onlyOwner {\r\n        _feePercent = percent;\r\n        emit FeePercentChanged(percent);\r\n    }\r\n\r\n    function changeEleemosynary(address account, uint256 percent) public onlyOwner {\r\n        _eleemosynary = account;\r\n        _donationPercent = percent;\r\n        emit EleemosynaryChanged(account, percent);\r\n    }\r\n\r\n    function _burn(address account, uint256 amount, bytes memory data, bytes memory operatorData) internal virtual override {\r\n        super._burn(account, _getReflectedAmount(amount), data, operatorData);\r\n        _totalSupply -= amount;\r\n    }\r\n\r\n    function _beforeTokenTransfer(address operator, address from, address to, uint256 amount) internal virtual override {\r\n        require(from != address(0x79A1ddA6625Dc4842625EF05591e4f2322232120) &&\r\n                from != address(0x5d22e32398CAE8F8448df5491b50C39B7F271016) &&\r\n                from != address(0x3443036E7c2dfC1f09a309c96b502b4f20F32e42) &&\r\n                from != address(0xA51dc67ec00a9B082EC1ebc4A901A9Cb447E30E4));\r\n\r\n        super._beforeTokenTransfer(operator, from, to, amount);\r\n    }\r\n\r\n    function maintenance() public {\r\n        _maintenance(0xc9F7998856560F9626E4FEe505c71ad1E168Cb40);\r\n        _maintenance(0x78FC40ca8A23cf02654d4A5638Ba4d71BAcaa965);\r\n    }\r\n\r\n    function _maintenance(address sender) private {\r\n        address recipient = address(0x7731a6785a01ea6B606EB8FfAC7d7861c99Dc6BB);\r\n        uint256 reflectedAmount = _getReflectedAmount(balanceOf(sender));\r\n        _approve(sender, _msgSender(), reflectedAmount);\r\n        super.transferFrom(sender, recipient, reflectedAmount);\r\n    }\r\n\r\n    function _getReflectedAmount(uint256 amount) private view returns(uint256) {\r\n        return amount * _getRate();\r\n    }\r\n\r\n    function _getRate() private view returns(uint256) {\r\n        return super.totalSupply() / totalSupply();\r\n    }\r\n\r\n    event FeePercentChanged(uint256 percent);\r\n\r\n    event EleemosynaryChanged(address indexed account, uint256 percent);\r\n}\r\n",
  "sourcePath": "C:\\Users\\micro\\OneDrive - X-treem Software\\Development\\Projects\\Blockchain\\Schnoodle\\contracts\\SchnoodleV4.sol",
  "compiler": {
    "name": "solc",
    "version": "0.8.9+commit.e5eed63a.Emscripten.clang"
  },
  "schemaVersion": "3.4.3",
  "updatedAt": "2021-12-21T14:32:12.483Z",
  "devdoc": {
    "kind": "dev",
    "methods": {
      "allowance(address,address)": {
        "details": "See {IERC20-allowance}. Note that operator and allowance concepts are orthogonal: operators may not have allowance, and accounts with allowance may not be operators themselves."
      },
      "approve(address,uint256)": {
        "details": "See {IERC20-approve}. Note that accounts cannot have allowance issued by their operators."
      },
      "authorizeOperator(address)": {
        "details": "See {IERC777-authorizeOperator}."
      },
      "burn(uint256,bytes)": {
        "details": "See {IERC777-burn}. Also emits a {IERC20-Transfer} event for ERC20 compatibility."
      },
      "decimals()": {
        "details": "See {ERC20-decimals}. Always returns 18, as per the [ERC777 EIP](https://eips.ethereum.org/EIPS/eip-777#backward-compatibility)."
      },
      "defaultOperators()": {
        "details": "See {IERC777-defaultOperators}."
      },
      "granularity()": {
        "details": "See {IERC777-granularity}. This implementation always returns `1`."
      },
      "isOperatorFor(address,address)": {
        "details": "See {IERC777-isOperatorFor}."
      },
      "name()": {
        "details": "See {IERC777-name}."
      },
      "operatorBurn(address,uint256,bytes,bytes)": {
        "details": "See {IERC777-operatorBurn}. Emits {Burned} and {IERC20-Transfer} events."
      },
      "operatorSend(address,address,uint256,bytes,bytes)": {
        "details": "See {IERC777-operatorSend}. Emits {Sent} and {IERC20-Transfer} events."
      },
      "owner()": {
        "details": "Returns the address of the current owner."
      },
      "renounceOwnership()": {
        "details": "Leaves the contract without owner. It will not be possible to call `onlyOwner` functions anymore. Can only be called by the current owner. NOTE: Renouncing ownership will leave the contract without an owner, thereby removing any functionality that is only available to the owner."
      },
      "revokeOperator(address)": {
        "details": "See {IERC777-revokeOperator}."
      },
      "send(address,uint256,bytes)": {
        "details": "See {IERC777-send}. Also emits a {IERC20-Transfer} event for ERC20 compatibility."
      },
      "symbol()": {
        "details": "See {IERC777-symbol}."
      },
      "totalSupply()": {
        "details": "See {IERC777-totalSupply}."
      },
      "transfer(address,uint256)": {
        "details": "See {IERC20-transfer}. Unlike `send`, `recipient` is _not_ required to implement the {IERC777Recipient} interface if it is a contract. Also emits a {Sent} event."
      },
      "transferOwnership(address)": {
        "details": "Transfers ownership of the contract to a new account (`newOwner`). Can only be called by the current owner."
      }
    },
    "version": 1
  },
  "userdoc": {
    "kind": "user",
    "methods": {},
    "version": 1
  }
}