{
  "contractName": "SchnoodleTimelock",
  "abi": [
    {
      "anonymous": false,
      "inputs": [
        {
          "indexed": false,
          "internalType": "uint8",
          "name": "version",
          "type": "uint8"
        }
      ],
      "name": "Initialized",
      "type": "event"
    },
    {
      "inputs": [],
      "name": "beneficiary",
      "outputs": [
        {
          "internalType": "address",
          "name": "",
          "type": "address"
        }
      ],
      "stateMutability": "view",
      "type": "function"
    },
    {
      "inputs": [],
      "name": "release",
      "outputs": [],
      "stateMutability": "nonpayable",
      "type": "function"
    },
    {
      "inputs": [],
      "name": "releaseTime",
      "outputs": [
        {
          "internalType": "uint256",
          "name": "",
          "type": "uint256"
        }
      ],
      "stateMutability": "view",
      "type": "function"
    },
    {
      "inputs": [],
      "name": "token",
      "outputs": [
        {
          "internalType": "contract IERC20Upgradeable",
          "name": "",
          "type": "address"
        }
      ],
      "stateMutability": "view",
      "type": "function"
    },
    {
      "inputs": [
        {
          "internalType": "contract IERC20Upgradeable",
          "name": "token",
          "type": "address"
        },
        {
          "internalType": "address",
          "name": "beneficiary",
          "type": "address"
        },
        {
          "internalType": "uint256",
          "name": "releaseTime",
          "type": "uint256"
        }
      ],
      "name": "initialize",
      "outputs": [],
      "stateMutability": "nonpayable",
      "type": "function"
    }
  ],
  "bytecode": "0x608060405234801561001057600080fd5b506108d7806100206000396000f3fe608060405234801561001057600080fd5b50600436106100575760003560e01c80631794bb3c1461005c57806338af3eed1461007157806386d1a69f1461009b578063b91d4001146100a3578063fc0c546a146100b4575b600080fd5b61006f61006a366004610711565b6100cb565b005b6001546001600160a01b03165b6040516001600160a01b0390911681526020015b60405180910390f35b61006f610146565b600254604051908152602001610092565b6000546201000090046001600160a01b031661007e565b60006100d760016102c4565b905080156100ef576000805461ff0019166101001790555b6100fa84848461034c565b8015610140576000805461ff0019169055604051600181527f7f26b83ff96e1f2b6a682f133852f6798a09c465da95921460cefb38474024989060200160405180910390a15b50505050565b6002544210156101b85760405162461bcd60e51b815260206004820152603260248201527f546f6b656e54696d656c6f636b3a2063757272656e742074696d65206973206260448201527165666f72652072656c656173652074696d6560701b60648201526084015b60405180910390fd5b600080546201000090046001600160a01b03166040516370a0823160e01b81523060048201526001600160a01b0391909116906370a0823190602401602060405180830381865afa158015610211573d6000803e3d6000fd5b505050506040513d601f19601f820116820180604052508101906102359190610752565b9050600081116102935760405162461bcd60e51b815260206004820152602360248201527f546f6b656e54696d656c6f636b3a206e6f20746f6b656e7320746f2072656c6560448201526261736560e81b60648201526084016101af565b6102c16102a86001546001600160a01b031690565b6000546201000090046001600160a01b03169083610383565b50565b60008054610100900460ff161561030b578160ff1660011480156102e75750303b155b6103035760405162461bcd60e51b81526004016101af9061076b565b506000919050565b60005460ff8084169116106103325760405162461bcd60e51b81526004016101af9061076b565b506000805460ff191660ff92909216919091179055600190565b600054610100900460ff166103735760405162461bcd60e51b81526004016101af906107b9565b61037e8383836103d5565b505050565b604080516001600160a01b038416602482015260448082018490528251808303909101815260649091019091526020810180516001600160e01b031663a9059cbb60e01b17905261037e9084906104a7565b600054610100900460ff166103fc5760405162461bcd60e51b81526004016101af906107b9565b4281116104665760405162461bcd60e51b815260206004820152603260248201527f546f6b656e54696d656c6f636b3a2072656c656173652074696d65206973206260448201527165666f72652063757272656e742074696d6560701b60648201526084016101af565b6000805462010000600160b01b031916620100006001600160a01b0395861602179055600180546001600160a01b0319169290931691909117909155600255565b60006104fc826040518060400160405280602081526020017f5361666545524332303a206c6f772d6c6576656c2063616c6c206661696c6564815250856001600160a01b03166105799092919063ffffffff16565b80519091501561037e578080602001905181019061051a9190610804565b61037e5760405162461bcd60e51b815260206004820152602a60248201527f5361666545524332303a204552433230206f7065726174696f6e20646964206e6044820152691bdd081cdd58d8d9595960b21b60648201526084016101af565b60606105888484600085610592565b90505b9392505050565b6060824710156105f35760405162461bcd60e51b815260206004820152602660248201527f416464726573733a20696e73756666696369656e742062616c616e636520666f6044820152651c8818d85b1b60d21b60648201526084016101af565b6001600160a01b0385163b61064a5760405162461bcd60e51b815260206004820152601d60248201527f416464726573733a2063616c6c20746f206e6f6e2d636f6e747261637400000060448201526064016101af565b600080866001600160a01b031685876040516106669190610852565b60006040518083038185875af1925050503d80600081146106a3576040519150601f19603f3d011682016040523d82523d6000602084013e6106a8565b606091505b50915091506106b88282866106c3565b979650505050505050565b606083156106d257508161058b565b8251156106e25782518084602001fd5b8160405162461bcd60e51b81526004016101af919061086e565b6001600160a01b03811681146102c157600080fd5b60008060006060848603121561072657600080fd5b8335610731816106fc565b92506020840135610741816106fc565b929592945050506040919091013590565b60006020828403121561076457600080fd5b5051919050565b6020808252602e908201527f496e697469616c697a61626c653a20636f6e747261637420697320616c72656160408201526d191e481a5b9a5d1a585b1a5e995960921b606082015260800190565b6020808252602b908201527f496e697469616c697a61626c653a20636f6e7472616374206973206e6f74206960408201526a6e697469616c697a696e6760a81b606082015260800190565b60006020828403121561081657600080fd5b8151801515811461058b57600080fd5b60005b83811015610841578181015183820152602001610829565b838111156101405750506000910152565b60008251610864818460208701610826565b9190910192915050565b602081526000825180602084015261088d816040850160208701610826565b601f01601f1916919091016040019291505056fea2646970667358221220fa148eb5181a103cabbb09e033dfd1ae83bb3dcaff22eb6fbb4b7af561873b1a64736f6c634300080e0033",
  "immutableReferences": {},
  "source": "// contracts/imports/SchnoodleTimelock.sol\r\n// SPDX-License-Identifier: MIT\r\npragma solidity ^0.8.0;\r\n\r\nimport \"@openzeppelin/contracts-upgradeable/proxy/utils/Initializable.sol\";\r\nimport \"@openzeppelin/contracts/token/ERC20/utils/TokenTimelock.sol\";\r\nimport \"@openzeppelin/contracts-upgradeable/token/ERC20/utils/TokenTimelockUpgradeable.sol\";\r\n\r\ncontract SchnoodleTimelock is TokenTimelockUpgradeable {\r\n    function initialize(IERC20Upgradeable token, address beneficiary, uint256 releaseTime) public initializer {\r\n        __TokenTimelock_init(token, beneficiary, releaseTime);\r\n    }\r\n}\r\n",
  "sourcePath": "C:\\Users\\micro\\OneDrive - X-treem Software\\Development\\Projects\\Blockchain\\Schnoodle\\contracts\\contracts\\imports\\SchnoodleTimelock.sol",
  "compiler": {
    "name": "solc",
    "version": "0.8.14+commit.80d49f37.Emscripten.clang"
  },
  "schemaVersion": "3.4.7",
  "updatedAt": "2022-05-22T21:58:16.227Z",
  "devdoc": {
    "kind": "dev",
    "methods": {
      "beneficiary()": {
        "details": "Returns the beneficiary that will receive the tokens."
      },
      "release()": {
        "details": "Transfers tokens held by the timelock to the beneficiary. Will only succeed if invoked after the release time."
      },
      "releaseTime()": {
        "details": "Returns the time when the tokens are released in seconds since Unix epoch (i.e. Unix timestamp)."
      },
      "token()": {
        "details": "Returns the token being held."
      }
    },
    "version": 1
  },
  "userdoc": {
    "kind": "user",
    "methods": {},
    "version": 1
  }
}