{
  "contractName": "SchnoodleV8",
  "abi": [
    {
      "anonymous": false,
      "inputs": [
        {
          "indexed": true,
          "internalType": "address",
          "name": "owner",
          "type": "address"
        },
        {
          "indexed": true,
          "internalType": "address",
          "name": "spender",
          "type": "address"
        },
        {
          "indexed": false,
          "internalType": "uint256",
          "name": "value",
          "type": "uint256"
        }
      ],
      "name": "Approval",
      "type": "event"
    },
    {
      "anonymous": false,
      "inputs": [
        {
          "indexed": true,
          "internalType": "address",
          "name": "operator",
          "type": "address"
        },
        {
          "indexed": true,
          "internalType": "address",
          "name": "tokenHolder",
          "type": "address"
        }
      ],
      "name": "AuthorizedOperator",
      "type": "event"
    },
    {
      "anonymous": false,
      "inputs": [
        {
          "indexed": true,
          "internalType": "address",
          "name": "operator",
          "type": "address"
        },
        {
          "indexed": true,
          "internalType": "address",
          "name": "from",
          "type": "address"
        },
        {
          "indexed": false,
          "internalType": "uint256",
          "name": "amount",
          "type": "uint256"
        },
        {
          "indexed": false,
          "internalType": "bytes",
          "name": "data",
          "type": "bytes"
        },
        {
          "indexed": false,
          "internalType": "bytes",
          "name": "operatorData",
          "type": "bytes"
        }
      ],
      "name": "Burned",
      "type": "event"
    },
    {
      "anonymous": false,
      "inputs": [
        {
          "indexed": true,
          "internalType": "address",
          "name": "eleemosynaryAccount",
          "type": "address"
        },
        {
          "indexed": false,
          "internalType": "uint256",
          "name": "donationRate",
          "type": "uint256"
        }
      ],
      "name": "EleemosynaryDetailsChanged",
      "type": "event"
    },
    {
      "anonymous": false,
      "inputs": [
        {
          "indexed": false,
          "internalType": "uint256",
          "name": "rate",
          "type": "uint256"
        }
      ],
      "name": "FeeRateChanged",
      "type": "event"
    },
    {
      "anonymous": false,
      "inputs": [
        {
          "indexed": true,
          "internalType": "address",
          "name": "operator",
          "type": "address"
        },
        {
          "indexed": true,
          "internalType": "address",
          "name": "to",
          "type": "address"
        },
        {
          "indexed": false,
          "internalType": "uint256",
          "name": "amount",
          "type": "uint256"
        },
        {
          "indexed": false,
          "internalType": "bytes",
          "name": "data",
          "type": "bytes"
        },
        {
          "indexed": false,
          "internalType": "bytes",
          "name": "operatorData",
          "type": "bytes"
        }
      ],
      "name": "Minted",
      "type": "event"
    },
    {
      "anonymous": false,
      "inputs": [
        {
          "indexed": true,
          "internalType": "address",
          "name": "previousOwner",
          "type": "address"
        },
        {
          "indexed": true,
          "internalType": "address",
          "name": "newOwner",
          "type": "address"
        }
      ],
      "name": "OwnershipTransferred",
      "type": "event"
    },
    {
      "anonymous": false,
      "inputs": [
        {
          "indexed": true,
          "internalType": "address",
          "name": "operator",
          "type": "address"
        },
        {
          "indexed": true,
          "internalType": "address",
          "name": "tokenHolder",
          "type": "address"
        }
      ],
      "name": "RevokedOperator",
      "type": "event"
    },
    {
      "anonymous": false,
      "inputs": [
        {
          "indexed": true,
          "internalType": "bytes32",
          "name": "role",
          "type": "bytes32"
        },
        {
          "indexed": true,
          "internalType": "bytes32",
          "name": "previousAdminRole",
          "type": "bytes32"
        },
        {
          "indexed": true,
          "internalType": "bytes32",
          "name": "newAdminRole",
          "type": "bytes32"
        }
      ],
      "name": "RoleAdminChanged",
      "type": "event"
    },
    {
      "anonymous": false,
      "inputs": [
        {
          "indexed": true,
          "internalType": "bytes32",
          "name": "role",
          "type": "bytes32"
        },
        {
          "indexed": true,
          "internalType": "address",
          "name": "account",
          "type": "address"
        },
        {
          "indexed": true,
          "internalType": "address",
          "name": "sender",
          "type": "address"
        }
      ],
      "name": "RoleGranted",
      "type": "event"
    },
    {
      "anonymous": false,
      "inputs": [
        {
          "indexed": true,
          "internalType": "bytes32",
          "name": "role",
          "type": "bytes32"
        },
        {
          "indexed": true,
          "internalType": "address",
          "name": "account",
          "type": "address"
        },
        {
          "indexed": true,
          "internalType": "address",
          "name": "sender",
          "type": "address"
        }
      ],
      "name": "RoleRevoked",
      "type": "event"
    },
    {
      "anonymous": false,
      "inputs": [
        {
          "indexed": false,
          "internalType": "uint256",
          "name": "blockTimestamp",
          "type": "uint256"
        },
        {
          "indexed": false,
          "internalType": "int256",
          "name": "amount",
          "type": "int256"
        }
      ],
      "name": "SellQuotaChanged",
      "type": "event"
    },
    {
      "anonymous": false,
      "inputs": [
        {
          "indexed": false,
          "internalType": "uint256",
          "name": "sellThreshold",
          "type": "uint256"
        },
        {
          "indexed": false,
          "internalType": "uint256",
          "name": "rateEscalator",
          "type": "uint256"
        }
      ],
      "name": "SellThresholdDetailsChanged",
      "type": "event"
    },
    {
      "anonymous": false,
      "inputs": [
        {
          "indexed": true,
          "internalType": "address",
          "name": "operator",
          "type": "address"
        },
        {
          "indexed": true,
          "internalType": "address",
          "name": "from",
          "type": "address"
        },
        {
          "indexed": true,
          "internalType": "address",
          "name": "to",
          "type": "address"
        },
        {
          "indexed": false,
          "internalType": "uint256",
          "name": "amount",
          "type": "uint256"
        },
        {
          "indexed": false,
          "internalType": "bytes",
          "name": "data",
          "type": "bytes"
        },
        {
          "indexed": false,
          "internalType": "bytes",
          "name": "operatorData",
          "type": "bytes"
        }
      ],
      "name": "Sent",
      "type": "event"
    },
    {
      "anonymous": false,
      "inputs": [
        {
          "indexed": false,
          "internalType": "uint256",
          "name": "rate",
          "type": "uint256"
        }
      ],
      "name": "SowRateChanged",
      "type": "event"
    },
    {
      "anonymous": false,
      "inputs": [
        {
          "indexed": true,
          "internalType": "address",
          "name": "from",
          "type": "address"
        },
        {
          "indexed": true,
          "internalType": "address",
          "name": "to",
          "type": "address"
        },
        {
          "indexed": false,
          "internalType": "uint256",
          "name": "value",
          "type": "uint256"
        }
      ],
      "name": "Transfer",
      "type": "event"
    },
    {
      "inputs": [],
      "name": "DEFAULT_ADMIN_ROLE",
      "outputs": [
        {
          "internalType": "bytes32",
          "name": "",
          "type": "bytes32"
        }
      ],
      "stateMutability": "view",
      "type": "function"
    },
    {
      "inputs": [],
      "name": "FARMING_CONTRACT",
      "outputs": [
        {
          "internalType": "bytes32",
          "name": "",
          "type": "bytes32"
        }
      ],
      "stateMutability": "view",
      "type": "function"
    },
    {
      "inputs": [],
      "name": "LIQUIDITY",
      "outputs": [
        {
          "internalType": "bytes32",
          "name": "",
          "type": "bytes32"
        }
      ],
      "stateMutability": "view",
      "type": "function"
    },
    {
      "inputs": [],
      "name": "LOCKED",
      "outputs": [
        {
          "internalType": "bytes32",
          "name": "",
          "type": "bytes32"
        }
      ],
      "stateMutability": "view",
      "type": "function"
    },
    {
      "inputs": [
        {
          "internalType": "address",
          "name": "holder",
          "type": "address"
        },
        {
          "internalType": "address",
          "name": "spender",
          "type": "address"
        }
      ],
      "name": "allowance",
      "outputs": [
        {
          "internalType": "uint256",
          "name": "",
          "type": "uint256"
        }
      ],
      "stateMutability": "view",
      "type": "function"
    },
    {
      "inputs": [
        {
          "internalType": "address",
          "name": "spender",
          "type": "address"
        },
        {
          "internalType": "uint256",
          "name": "value",
          "type": "uint256"
        }
      ],
      "name": "approve",
      "outputs": [
        {
          "internalType": "bool",
          "name": "",
          "type": "bool"
        }
      ],
      "stateMutability": "nonpayable",
      "type": "function"
    },
    {
      "inputs": [
        {
          "internalType": "address",
          "name": "operator",
          "type": "address"
        }
      ],
      "name": "authorizeOperator",
      "outputs": [],
      "stateMutability": "nonpayable",
      "type": "function"
    },
    {
      "inputs": [
        {
          "internalType": "address",
          "name": "account",
          "type": "address"
        }
      ],
      "name": "balanceOf",
      "outputs": [
        {
          "internalType": "uint256",
          "name": "",
          "type": "uint256"
        }
      ],
      "stateMutability": "view",
      "type": "function"
    },
    {
      "inputs": [
        {
          "internalType": "uint256",
          "name": "amount",
          "type": "uint256"
        },
        {
          "internalType": "bytes",
          "name": "data",
          "type": "bytes"
        }
      ],
      "name": "burn",
      "outputs": [],
      "stateMutability": "nonpayable",
      "type": "function"
    },
    {
      "inputs": [
        {
          "internalType": "address",
          "name": "eleemosynaryAccount",
          "type": "address"
        },
        {
          "internalType": "uint256",
          "name": "donationRate",
          "type": "uint256"
        }
      ],
      "name": "changeEleemosynaryDetails",
      "outputs": [],
      "stateMutability": "nonpayable",
      "type": "function"
    },
    {
      "inputs": [
        {
          "internalType": "uint256",
          "name": "rate",
          "type": "uint256"
        }
      ],
      "name": "changeFeeRate",
      "outputs": [],
      "stateMutability": "nonpayable",
      "type": "function"
    },
    {
      "inputs": [
        {
          "internalType": "uint256",
          "name": "sellThreshold",
          "type": "uint256"
        },
        {
          "internalType": "uint256",
          "name": "rateEscalator",
          "type": "uint256"
        }
      ],
      "name": "changeSellThresholdDetails",
      "outputs": [],
      "stateMutability": "nonpayable",
      "type": "function"
    },
    {
      "inputs": [],
      "name": "decimals",
      "outputs": [
        {
          "internalType": "uint8",
          "name": "",
          "type": "uint8"
        }
      ],
      "stateMutability": "pure",
      "type": "function"
    },
    {
      "inputs": [],
      "name": "defaultOperators",
      "outputs": [
        {
          "internalType": "address[]",
          "name": "",
          "type": "address[]"
        }
      ],
      "stateMutability": "view",
      "type": "function"
    },
    {
      "inputs": [],
      "name": "getEleemosynaryDetails",
      "outputs": [
        {
          "internalType": "address",
          "name": "",
          "type": "address"
        },
        {
          "internalType": "uint256",
          "name": "",
          "type": "uint256"
        }
      ],
      "stateMutability": "view",
      "type": "function"
    },
    {
      "inputs": [],
      "name": "getFeeRate",
      "outputs": [
        {
          "internalType": "uint256",
          "name": "",
          "type": "uint256"
        }
      ],
      "stateMutability": "view",
      "type": "function"
    },
    {
      "inputs": [],
      "name": "getOperativeFeeRate",
      "outputs": [
        {
          "internalType": "uint256",
          "name": "",
          "type": "uint256"
        }
      ],
      "stateMutability": "view",
      "type": "function"
    },
    {
      "inputs": [
        {
          "internalType": "bytes32",
          "name": "role",
          "type": "bytes32"
        }
      ],
      "name": "getRoleAdmin",
      "outputs": [
        {
          "internalType": "bytes32",
          "name": "",
          "type": "bytes32"
        }
      ],
      "stateMutability": "view",
      "type": "function"
    },
    {
      "inputs": [],
      "name": "getSellQuota",
      "outputs": [
        {
          "components": [
            {
              "internalType": "uint256",
              "name": "blockMetric",
              "type": "uint256"
            },
            {
              "internalType": "int256",
              "name": "amount",
              "type": "int256"
            }
          ],
          "internalType": "struct SchnoodleV8Base.TokenMeter",
          "name": "",
          "type": "tuple"
        }
      ],
      "stateMutability": "view",
      "type": "function"
    },
    {
      "inputs": [],
      "name": "getSellThresholdDetails",
      "outputs": [
        {
          "internalType": "uint256",
          "name": "",
          "type": "uint256"
        },
        {
          "internalType": "uint256",
          "name": "",
          "type": "uint256"
        }
      ],
      "stateMutability": "view",
      "type": "function"
    },
    {
      "inputs": [
        {
          "internalType": "bytes32",
          "name": "role",
          "type": "bytes32"
        },
        {
          "internalType": "address",
          "name": "account",
          "type": "address"
        }
      ],
      "name": "grantRole",
      "outputs": [],
      "stateMutability": "nonpayable",
      "type": "function"
    },
    {
      "inputs": [],
      "name": "granularity",
      "outputs": [
        {
          "internalType": "uint256",
          "name": "",
          "type": "uint256"
        }
      ],
      "stateMutability": "view",
      "type": "function"
    },
    {
      "inputs": [
        {
          "internalType": "bytes32",
          "name": "role",
          "type": "bytes32"
        },
        {
          "internalType": "address",
          "name": "account",
          "type": "address"
        }
      ],
      "name": "hasRole",
      "outputs": [
        {
          "internalType": "bool",
          "name": "",
          "type": "bool"
        }
      ],
      "stateMutability": "view",
      "type": "function"
    },
    {
      "inputs": [
        {
          "internalType": "string",
          "name": "name",
          "type": "string"
        },
        {
          "internalType": "string",
          "name": "symbol",
          "type": "string"
        },
        {
          "internalType": "address[]",
          "name": "defaultOperators",
          "type": "address[]"
        },
        {
          "internalType": "uint256",
          "name": "initialSupply",
          "type": "uint256"
        },
        {
          "internalType": "address",
          "name": "owner",
          "type": "address"
        }
      ],
      "name": "initialize",
      "outputs": [],
      "stateMutability": "nonpayable",
      "type": "function"
    },
    {
      "inputs": [
        {
          "internalType": "uint256",
          "name": "initialTokens",
          "type": "uint256"
        },
        {
          "internalType": "address",
          "name": "serviceAccount",
          "type": "address"
        }
      ],
      "name": "initialize",
      "outputs": [],
      "stateMutability": "nonpayable",
      "type": "function"
    },
    {
      "inputs": [
        {
          "internalType": "address",
          "name": "operator",
          "type": "address"
        },
        {
          "internalType": "address",
          "name": "tokenHolder",
          "type": "address"
        }
      ],
      "name": "isOperatorFor",
      "outputs": [
        {
          "internalType": "bool",
          "name": "",
          "type": "bool"
        }
      ],
      "stateMutability": "view",
      "type": "function"
    },
    {
      "inputs": [],
      "name": "name",
      "outputs": [
        {
          "internalType": "string",
          "name": "",
          "type": "string"
        }
      ],
      "stateMutability": "view",
      "type": "function"
    },
    {
      "inputs": [
        {
          "internalType": "address",
          "name": "account",
          "type": "address"
        },
        {
          "internalType": "uint256",
          "name": "amount",
          "type": "uint256"
        },
        {
          "internalType": "bytes",
          "name": "data",
          "type": "bytes"
        },
        {
          "internalType": "bytes",
          "name": "operatorData",
          "type": "bytes"
        }
      ],
      "name": "operatorBurn",
      "outputs": [],
      "stateMutability": "nonpayable",
      "type": "function"
    },
    {
      "inputs": [
        {
          "internalType": "address",
          "name": "sender",
          "type": "address"
        },
        {
          "internalType": "address",
          "name": "recipient",
          "type": "address"
        },
        {
          "internalType": "uint256",
          "name": "amount",
          "type": "uint256"
        },
        {
          "internalType": "bytes",
          "name": "data",
          "type": "bytes"
        },
        {
          "internalType": "bytes",
          "name": "operatorData",
          "type": "bytes"
        }
      ],
      "name": "operatorSend",
      "outputs": [],
      "stateMutability": "nonpayable",
      "type": "function"
    },
    {
      "inputs": [],
      "name": "owner",
      "outputs": [
        {
          "internalType": "address",
          "name": "",
          "type": "address"
        }
      ],
      "stateMutability": "view",
      "type": "function"
    },
    {
      "inputs": [],
      "name": "renounceOwnership",
      "outputs": [],
      "stateMutability": "nonpayable",
      "type": "function"
    },
    {
      "inputs": [
        {
          "internalType": "bytes32",
          "name": "role",
          "type": "bytes32"
        },
        {
          "internalType": "address",
          "name": "account",
          "type": "address"
        }
      ],
      "name": "renounceRole",
      "outputs": [],
      "stateMutability": "nonpayable",
      "type": "function"
    },
    {
      "inputs": [
        {
          "internalType": "address",
          "name": "operator",
          "type": "address"
        }
      ],
      "name": "revokeOperator",
      "outputs": [],
      "stateMutability": "nonpayable",
      "type": "function"
    },
    {
      "inputs": [
        {
          "internalType": "bytes32",
          "name": "role",
          "type": "bytes32"
        },
        {
          "internalType": "address",
          "name": "account",
          "type": "address"
        }
      ],
      "name": "revokeRole",
      "outputs": [],
      "stateMutability": "nonpayable",
      "type": "function"
    },
    {
      "inputs": [
        {
          "internalType": "address",
          "name": "recipient",
          "type": "address"
        },
        {
          "internalType": "uint256",
          "name": "amount",
          "type": "uint256"
        },
        {
          "internalType": "bytes",
          "name": "data",
          "type": "bytes"
        }
      ],
      "name": "send",
      "outputs": [],
      "stateMutability": "nonpayable",
      "type": "function"
    },
    {
      "inputs": [
        {
          "internalType": "bytes4",
          "name": "interfaceId",
          "type": "bytes4"
        }
      ],
      "name": "supportsInterface",
      "outputs": [
        {
          "internalType": "bool",
          "name": "",
          "type": "bool"
        }
      ],
      "stateMutability": "view",
      "type": "function"
    },
    {
      "inputs": [],
      "name": "symbol",
      "outputs": [
        {
          "internalType": "string",
          "name": "",
          "type": "string"
        }
      ],
      "stateMutability": "view",
      "type": "function"
    },
    {
      "inputs": [],
      "name": "totalSupply",
      "outputs": [
        {
          "internalType": "uint256",
          "name": "",
          "type": "uint256"
        }
      ],
      "stateMutability": "view",
      "type": "function"
    },
    {
      "inputs": [
        {
          "internalType": "address",
          "name": "recipient",
          "type": "address"
        },
        {
          "internalType": "uint256",
          "name": "amount",
          "type": "uint256"
        }
      ],
      "name": "transfer",
      "outputs": [
        {
          "internalType": "bool",
          "name": "",
          "type": "bool"
        }
      ],
      "stateMutability": "nonpayable",
      "type": "function"
    },
    {
      "inputs": [
        {
          "internalType": "address",
          "name": "sender",
          "type": "address"
        },
        {
          "internalType": "address",
          "name": "recipient",
          "type": "address"
        },
        {
          "internalType": "uint256",
          "name": "amount",
          "type": "uint256"
        }
      ],
      "name": "transferFrom",
      "outputs": [
        {
          "internalType": "bool",
          "name": "",
          "type": "bool"
        }
      ],
      "stateMutability": "nonpayable",
      "type": "function"
    },
    {
      "inputs": [
        {
          "internalType": "address",
          "name": "newOwner",
          "type": "address"
        }
      ],
      "name": "transferOwnership",
      "outputs": [],
      "stateMutability": "nonpayable",
      "type": "function"
    },
    {
      "inputs": [
        {
          "internalType": "bool",
          "name": "testnet",
          "type": "bool"
        },
        {
          "internalType": "address",
          "name": "liquidityToken",
          "type": "address"
        },
        {
          "internalType": "address",
          "name": "schnoodleFarming",
          "type": "address"
        }
      ],
      "name": "configure",
      "outputs": [],
      "stateMutability": "nonpayable",
      "type": "function"
    },
    {
      "inputs": [],
      "name": "getFarmingFund",
      "outputs": [
        {
          "internalType": "address",
          "name": "",
          "type": "address"
        }
      ],
      "stateMutability": "view",
      "type": "function"
    },
    {
      "inputs": [
        {
          "internalType": "uint256",
          "name": "rate",
          "type": "uint256"
        }
      ],
      "name": "changeSowRate",
      "outputs": [],
      "stateMutability": "nonpayable",
      "type": "function"
    },
    {
      "inputs": [],
      "name": "getSowRate",
      "outputs": [
        {
          "internalType": "uint256",
          "name": "",
          "type": "uint256"
        }
      ],
      "stateMutability": "view",
      "type": "function"
    },
    {
      "inputs": [
        {
          "internalType": "address",
          "name": "account",
          "type": "address"
        },
        {
          "internalType": "uint256",
          "name": "netReward",
          "type": "uint256"
        },
        {
          "internalType": "uint256",
          "name": "grossReward",
          "type": "uint256"
        }
      ],
      "name": "farmingReward",
      "outputs": [],
      "stateMutability": "nonpayable",
      "type": "function"
    }
  ],
  "bytecode": "0x608060405234801561001057600080fd5b5061390c806100206000396000f3fe608060405234801561001057600080fd5b506004361061028a5760003560e01c80638da5cb5b1161015c578063b393204b116100ce578063e84839bd11610087578063e84839bd146105fc578063f2fde38b1461060f578063fad8b32a14610622578063fc673c4f14610635578063fdf5f4f814610648578063fe9d93031461066357600080fd5b8063b393204b14610572578063b7a895fa1461057a578063d547741f146105b0578063d95b6371146105c3578063da35a26f146105d6578063dd62ed3e146105e957600080fd5b806395d89b411161012057806395d89b41146105025780639bd9bbc61461050a578063a1422f691461051d578063a217fddf14610544578063a9059cbb1461054c578063affca9321461055f57600080fd5b80638da5cb5b146104915780639137ac72146104a257806391d14854146104c9578063957872aa146104dc578063959b8c3f146104ef57600080fd5b806336568abe116102005780636da1dd26116101b95780636da1dd261461042257806370a0823114610448578063715018a61461045b578063768f950a146104635780638184ba411461047657806384e5eed01461048957600080fd5b806336568abe1461039b578063556f0dc7146103ae5780635d611fca146103b557806362ad1b83146103c85780636a6ccdf5146103db5780636c05932a146103e457600080fd5b806322daa21d1161025257806322daa21d1461030657806323b872dd1461031b578063248a9ca31461032e5780632861c7d1146103525780632f2ff15d14610379578063313ce5671461038c57600080fd5b806301ffc9a71461028f57806306e48538146102b757806306fdde03146102cc578063095ea7b3146102e157806318160ddd146102f4575b600080fd5b6102a261029d366004612cc9565b610676565b60405190151581526020015b60405180910390f35b6102bf6106ad565b6040516102ae9190612cf3565b6102d461070f565b6040516102ae9190612d98565b6102a26102ef366004612dd0565b610798565b60c9545b6040519081526020016102ae565b610319610314366004612dfc565b6107b3565b005b6102a2610329366004612e15565b610823565b6102f861033c366004612dfc565b6000908152610103602052604090206001015490565b6102f87f86cf169ddb9f19bc57304a958748511e956d0b9255fb5895294f9c4ae5b00d5881565b610319610387366004612e56565b610893565b604051601281526020016102ae565b6103196103a9366004612e56565b6108bf565b60016102f8565b6103196103c3366004612e86565b61093d565b6103196103d6366004612f8d565b610a68565b610137546102f8565b60408051808201825260008082526020918201528151808301835260ce5480825260cf549183019182528351908152905191810191909152016102ae565b610136546001600160a01b03165b6040516001600160a01b0390911681526020016102ae565b6102f8610456366004613020565b610aa4565b610319610ac6565b61031961047136600461303d565b610afc565b610319610484366004613150565b610b80565b60ca546102f8565b6097546001600160a01b0316610430565b6102f87f6426100d0053205ef4e6cbd754ca9b11acf0e907f8e2741bd95048bd4543de1a81565b6102a26104d7366004612e56565b610bf1565b6103196104ea366004613172565b610c1d565b6103196104fd366004613020565b610cb0565b6102d4610dcd565b6103196105183660046131a7565b610ddc565b6102f87feb4a01a12a4bbfa1bc780c16c5b2b6720cdf4f3c29cabd8c0f76fec3a575096b81565b6102f8600081565b6102a261055a366004612dd0565b610dfa565b61031961056d366004612dfc565b610e68565b6102f8610ec7565b61059160cb5460cc546001600160a01b0390911691565b604080516001600160a01b0390931683526020830191909152016102ae565b6103196105be366004612e56565b610f39565b6102a26105d1366004613200565b610f60565b6103196105e4366004612e56565b611001565b6102f86105f7366004613200565b611103565b61031961060a366004612dd0565b611134565b61031961061d366004613020565b6111b8565b610319610630366004613020565b611253565b61031961064336600461322e565b61136e565b60cd5460d054604080519283526020830191909152016102ae565b6103196106713660046132ae565b6113a6565b60006001600160e01b03198216637965db0b60e01b14806106a757506301ffc9a760e01b6001600160e01b03198316145b92915050565b6060603780548060200260200160405190810160405280929190818152602001828054801561070557602002820191906000526020600020905b81546001600160a01b031681526001909101906020018083116106e7575b5050505050905090565b60606035805461071e906132f5565b80601f016020809104026020016040519081016040528092919081815260200182805461074a906132f5565b80156107055780601f1061076c57610100808354040283529160200191610705565b820191906000526020600020905b81548152906001019060200180831161077a57509395945050505050565b60006107ac836107a7846113c1565b6113d5565b9392505050565b6097546001600160a01b031633146107e65760405162461bcd60e51b81526004016107dd9061332f565b60405180910390fd5b6101378190556040518181527f356b0da78b28f488d953ba76712b3bdd18f174ff2296108417b4c1d47669692d906020015b60405180910390a150565b60008061082f836113c1565b9050600061083e8686846113ed565b9050846001600160a01b0316866001600160a01b03166000805160206138b78339815191528660405161087391815260200190565b60405180910390a361088a8686868561151b611531565b95945050505050565b600082815261010360205260409020600101546108b0813361166e565b6108ba83836116d2565b505050565b6001600160a01b038116331461092f5760405162461bcd60e51b815260206004820152602f60248201527f416363657373436f6e74726f6c3a2063616e206f6e6c792072656e6f756e636560448201526e103937b632b9903337b91039b2b63360891b60648201526084016107dd565b6109398282611759565b5050565b6097546001600160a01b031633146109675760405162461bcd60e51b81526004016107dd9061332f565b8215610a5f5761098960006109846097546001600160a01b031690565b6117c1565b6109b37f86cf169ddb9f19bc57304a958748511e956d0b9255fb5895294f9c4ae5b00d58836117c1565b6109dd7f6426100d0053205ef4e6cbd754ca9b11acf0e907f8e2741bd95048bd4543de1a826117c1565b61013580546001600160a01b0319166001600160a01b03831617905542610a0560014361337a565b40604051602001610a20929190918252602082015260400190565b60408051808303601f19018152919052805160209091012061013680546001600160a01b0319166001600160a01b039092169190911790556028610137555b6108ba836117cb565b610a723386610f60565b610a8e5760405162461bcd60e51b81526004016107dd90613391565b610a9d85858585856001611825565b5050505050565b6001600160a01b0381166000908152603360205260408120546106a79061188a565b6097546001600160a01b03163314610af05760405162461bcd60e51b81526004016107dd9061332f565b610afa60006118b1565b565b600054610100900460ff16610b175760005460ff1615610b1b565b303b155b610b375760405162461bcd60e51b81526004016107dd906133dd565b600054610100900460ff16158015610b59576000805461ffff19166101011790555b610b668686868686611903565b8015610b78576000805461ff00191690555b505050505050565b6097546001600160a01b03163314610baa5760405162461bcd60e51b81526004016107dd9061332f565b60cd82905560d081905560408051838152602081018390527f72c1673617b0c2d62adda4739eab51cd7805a8ad541ae28ec66f46052c1dfa62910160405180910390a15050565b6000918252610103602090815260408084206001600160a01b0393909316845291905290205460ff1690565b610c477f6426100d0053205ef4e6cbd754ca9b11acf0e907f8e2741bd95048bd4543de1a33610bf1565b610c5057600080fd5b61013654610c70906001600160a01b031684610c6b856113c1565b61151b565b610136546108ba906001600160a01b0316610c8b848461337a565b6040518060200160405280600081525060405180602001604052806000815250611942565b6001600160a01b0381163303610d145760405162461bcd60e51b8152602060048201526024808201527f4552433737373a20617574686f72697a696e672073656c66206173206f70657260448201526330ba37b960e11b60648201526084016107dd565b6001600160a01b03811660009081526038602052604090205460ff1615610d6557336000908152603a602090815260408083206001600160a01b03851684529091529020805460ff19169055610d94565b3360009081526039602090815260408083206001600160a01b03851684529091529020805460ff191660011790555b60405133906001600160a01b038316907ff4caeb2d6ca8932a215a353d0703c326ec2d81fc68170f320eb2ab49e9df61f990600090a350565b60606036805461071e906132f5565b6108ba33848484604051806020016040528060008152506001611825565b600080610e06836113c1565b90506000610e148583611973565b90506001600160a01b038516336001600160a01b03166000805160206138b783398151915286604051610e4991815260200190565b60405180910390a3610e603386868561151b611531565b949350505050565b6097546001600160a01b03163314610e925760405162461bcd60e51b81526004016107dd9061332f565b60ca8190556040518181527fdd72d2879718489eb363ba6099239f89d49542612862c71545503d35cfddda4690602001610818565b60008060cd54118015610edc575060cf546000135b15610f325760cd5460cf54610efc90610ef49061342b565b60cd54611a26565b60d05460ca54610f0c9190613447565b610f169190613447565b610f20919061347c565b60ca54610f2d9190613490565b905090565b5060ca5490565b60008281526101036020526040902060010154610f56813361166e565b6108ba8383611759565b6000816001600160a01b0316836001600160a01b03161480610fcb57506001600160a01b03831660009081526038602052604090205460ff168015610fcb57506001600160a01b038083166000908152603a602090815260408083209387168352929052205460ff16155b806107ac5750506001600160a01b0390811660009081526039602090815260408083209490931682529290925290205460ff1690565b600054610100900460ff1661101c5760005460ff1615611020565b303b155b61103c5760405162461bcd60e51b81526004016107dd906133dd565b600054610100900460ff1615801561105e576000805461ffff19166101011790555b611066611a3c565b6110726012600a61358c565b61107c9084613447565b60c981905560408051808201825260098152685363686e6f6f646c6560b81b60208083019190915282518084018452600581526414d393d3d160da1b818301528351600081529182019093526110ed939192916110db9060001961359b565b6110e79060001961337a565b86611903565b80156108ba576000805461ff0019169055505050565b6001600160a01b038083166000908152603b602090815260408083209385168352929052908120546107ac9061188a565b6097546001600160a01b0316331461115e5760405162461bcd60e51b81526004016107dd9061332f565b60cb80546001600160a01b0319166001600160a01b03841690811790915560cc8290556040518281527f3c9add9b205965c28e39a1f5fc6780a30ba0f001dc883ed462d795f97a2d94069060200160405180910390a25050565b6097546001600160a01b031633146111e25760405162461bcd60e51b81526004016107dd9061332f565b6001600160a01b0381166112475760405162461bcd60e51b815260206004820152602660248201527f4f776e61626c653a206e6577206f776e657220697320746865207a65726f206160448201526564647265737360d01b60648201526084016107dd565b611250816118b1565b50565b336001600160a01b038216036112b55760405162461bcd60e51b815260206004820152602160248201527f4552433737373a207265766f6b696e672073656c66206173206f70657261746f6044820152603960f91b60648201526084016107dd565b6001600160a01b03811660009081526038602052604090205460ff161561130957336000908152603a602090815260408083206001600160a01b03851684529091529020805460ff19166001179055611335565b3360009081526039602090815260408083206001600160a01b03851684529091529020805460ff191690555b60405133906001600160a01b038316907f50546e66e5f44d728365dc3908c63bc5cfeeab470722c1677e3073a6ac294aa190600090a350565b6113783385610f60565b6113945760405162461bcd60e51b81526004016107dd90613391565b6113a084848484611942565b50505050565b61093933838360405180602001604052806000815250611942565b60006113cb611a6b565b6106a79083613447565b6000336113e3818585611a9d565b5060019392505050565b60006001600160a01b0383166114155760405162461bcd60e51b81526004016107dd906135af565b6001600160a01b03841661147a5760405162461bcd60e51b815260206004820152602660248201527f4552433737373a207472616e736665722066726f6d20746865207a65726f206160448201526564647265737360d01b60648201526084016107dd565b60003390506114ab818686866040518060200160405280600081525060405180602001604052806000815250611bc4565b6114b6858285611ceb565b6114e2818686866040518060200160405280600081525060405180602001604052806000815250611d5f565b6115108186868660405180602001604052806000815250604051806020016040528060008152506000611ebf565b506001949350505050565b611526833383611a9d565b6113a08383836113ed565b600061153c86612084565b9050600081158015611552575061155286612084565b60cd549091501561164d5760ce544290158061157b5750611576620151808261337a565b60ce54105b156115c85760ce81905560cd5460cf8190556040805183815260208101929092527f6326273a6785f513768f2d48c9379925280b1265fc536c9ba0d40d213994064b910160405180910390a15b85836115e257826115da5760006115e5565b6000196115e5565b60015b6115ef91906135f3565b60cf8054600090611601908490613678565b909155505060ce5460cf546040517f6326273a6785f513768f2d48c9379925280b1265fc536c9ba0d40d213994064b9261164392908252602082015260400190565b60405180910390a1505b80611659575050610a9d565b611665868686866120b0565b50505050505050565b6116788282610bf1565b61093957611690816001600160a01b031660146120de565b61169b8360206120de565b6040516020016116ac9291906136b9565b60408051601f198184030181529082905262461bcd60e51b82526107dd91600401612d98565b6116dc8282610bf1565b610939576000828152610103602090815260408083206001600160a01b03851684529091529020805460ff191660011790556117153390565b6001600160a01b0316816001600160a01b0316837f2f8788117e7eff1d82e926ec794901d17c78024a50270940304540a733656f0d60405160405180910390a45050565b6117638282610bf1565b15610939576000828152610103602090815260408083206001600160a01b0385168085529252808320805460ff1916905551339285917ff6391f5c32d9c69d2a47ea670b442974b53935d1edc7fd64eb21e047a839171b9190a45050565b61093982826116d2565b6097546001600160a01b031633146117f55760405162461bcd60e51b81526004016107dd9061332f565b801561125057602860ca55600660d0556118116012600a61358c565b61181f90633b9aca00613447565b60cd5550565b6000611830856113c1565b905061184087878387878761227a565b856001600160a01b0316876001600160a01b03166000805160206138b78339815191528760405161187391815260200190565b60405180910390a36116658787878461235d611531565b600081156118a95761189a611a6b565b6118a4908361347c565b6106a7565b600092915050565b609780546001600160a01b038381166001600160a01b0319831681179093556040519116919082907f8be0079c531659141344cd1fd0a4f28419497f9722a3daafe3b4186f6b6457e090600090a35050565b600054610100900460ff1661192a5760405162461bcd60e51b81526004016107dd9061372e565b61193585858561238a565b610a9d8585858585612574565b6119568461194f856113c1565b84846125c5565b8260c96000828254611968919061337a565b909155505050505050565b60006001600160a01b03831661199b5760405162461bcd60e51b81526004016107dd906135af565b60003390506119cc818286866040518060200160405280600081525060405180602001604052806000815250611bc4565b6119f8818286866040518060200160405280600081525060405180602001604052806000815250611d5f565b6113e38182868660405180602001604052806000815250604051806020016040528060008152506000611ebf565b6000818310611a3557816107ac565b5090919050565b600054610100900460ff16611a635760405162461bcd60e51b81526004016107dd9061372e565b610afa612775565b600080611a7760345490565b90508015611a945760c954603454611a8f919061347c565b611a97565b60005b91505090565b6001600160a01b038316611b015760405162461bcd60e51b815260206004820152602560248201527f4552433737373a20617070726f76652066726f6d20746865207a65726f206164604482015264647265737360d81b60648201526084016107dd565b6001600160a01b038216611b635760405162461bcd60e51b815260206004820152602360248201527f4552433737373a20617070726f766520746f20746865207a65726f206164647260448201526265737360e81b60648201526084016107dd565b6001600160a01b038381166000818152603b602090815260408083209487168084529482529182902085905590518481527f8c5be1e5ebec7d5bd14f71427d1e84f3dd0314c0f7b2291e5b200ac8c7c3b925910160405180910390a3505050565b60405163555ddc6560e11b81526001600160a01b03861660048201527f29ddb589b1fb5fc7cf394961c1adf5f8c6454761adf795e67fe149f658abe8956024820152600090731820a4b7618bde71dce8cdc73aab6c95905fad249063aabbb8ca90604401602060405180830381865afa158015611c45573d6000803e3d6000fd5b505050506040513d601f19601f82011682018060405250810190611c699190613779565b90506001600160a01b0381161561166557604051633ad5cbc160e11b81526001600160a01b038216906375ab978290611cb0908a908a908a908a908a908a90600401613796565b600060405180830381600087803b158015611cca57600080fd5b505af1158015611cde573d6000803e3d6000fd5b5050505050505050505050565b6000611cf78484611103565b905060001981146113a05781811015611d525760405162461bcd60e51b815260206004820152601e60248201527f4552433737373a20696e73756666696369656e7420616c6c6f77616e6365000060448201526064016107dd565b6113a08484848403611a9d565b611d6b868686866127a5565b6001600160a01b03851660009081526033602052604090205483811015611de45760405162461bcd60e51b815260206004820152602760248201527f4552433737373a207472616e7366657220616d6f756e7420657863656564732060448201526662616c616e636560c81b60648201526084016107dd565b6001600160a01b03808716600090815260336020526040808220878503905591871681529081208054869290611e1b908490613490565b92505081905550846001600160a01b0316866001600160a01b0316886001600160a01b03167f06b541ddaa720db2b10a4d0cdac39b8d360425fc073085fac19bc82614677987878787604051611e73939291906137f0565b60405180910390a4846001600160a01b0316866001600160a01b03166000805160206138b783398151915286604051611eae91815260200190565b60405180910390a350505050505050565b60405163555ddc6560e11b81526001600160a01b03861660048201527fb281fc8c12954d22544db45de3159a39272895b169a852b314f9cc762e44c53b6024820152600090731820a4b7618bde71dce8cdc73aab6c95905fad249063aabbb8ca90604401602060405180830381865afa158015611f40573d6000803e3d6000fd5b505050506040513d601f19601f82011682018060405250810190611f649190613779565b90506001600160a01b03811615611fe0576040516223de2960e01b81526001600160a01b038216906223de2990611fa9908b908b908b908b908b908b90600401613796565b600060405180830381600087803b158015611fc357600080fd5b505af1158015611fd7573d6000803e3d6000fd5b5050505061207a565b811561207a576001600160a01b0386163b1561207a5760405162461bcd60e51b815260206004820152604d60248201527f4552433737373a20746f6b656e20726563697069656e7420636f6e747261637460448201527f20686173206e6f20696d706c656d656e74657220666f7220455243373737546f60648201526c1ad95b9cd49958da5c1a595b9d609a1b608482015260a4016107dd565b5050505050505050565b60006106a77f86cf169ddb9f19bc57304a958748511e956d0b9255fb5895294f9c4ae5b00d5883610bf1565b6120bc84848484612892565b61013654610137546113a09186916001600160a01b039091169086908561293d565b606060006120ed836002613447565b6120f8906002613490565b67ffffffffffffffff81111561211057612110612ed6565b6040519080825280601f01601f19166020018201604052801561213a576020820181803683370190505b509050600360fc1b8160008151811061215557612155613825565b60200101906001600160f81b031916908160001a905350600f60fb1b8160018151811061218457612184613825565b60200101906001600160f81b031916908160001a90535060006121a8846002613447565b6121b3906001613490565b90505b600181111561222b576f181899199a1a9b1b9c1cb0b131b232b360811b85600f16601081106121e7576121e7613825565b1a60f81b8282815181106121fd576121fd613825565b60200101906001600160f81b031916908160001a90535060049490941c936122248161383b565b90506121b6565b5083156107ac5760405162461bcd60e51b815260206004820181905260248201527f537472696e67733a20686578206c656e67746820696e73756666696369656e7460448201526064016107dd565b6001600160a01b0386166122db5760405162461bcd60e51b815260206004820152602260248201527f4552433737373a2073656e642066726f6d20746865207a65726f206164647265604482015261737360f01b60648201526084016107dd565b6001600160a01b0385166123315760405162461bcd60e51b815260206004820181905260248201527f4552433737373a2073656e6420746f20746865207a65726f206164647265737360448201526064016107dd565b33612340818888888888611bc4565b61234e818888888888611d5f565b61166581888888888888611ebf565b6108ba8383836040518060200160405280600081525060405180602001604052806000815250600161227a565b600054610100900460ff166123b15760405162461bcd60e51b81526004016107dd9061372e565b82516123c4906035906020860190612bdb565b5081516123d8906036906020850190612bdb565b5080516123ec906037906020840190612c5f565b5060005b81518110156124555760016038600084848151811061241157612411613825565b6020908102919091018101516001600160a01b03168252810191909152604001600020805460ff19169115159190911790558061244d81613852565b9150506123f0565b506040516329965a1d60e01b815230600482018190527fac7fbab5f54a3ca8194167523c6753bfeb96a445279294b6125b68cce217705460248301526044820152731820a4b7618bde71dce8cdc73aab6c95905fad24906329965a1d90606401600060405180830381600087803b1580156124cf57600080fd5b505af11580156124e3573d6000803e3d6000fd5b50506040516329965a1d60e01b815230600482018190527faea199e31a596269b42cdafd93407f14436db6e4cad65417994c2eb37381e05a60248301526044820152731820a4b7618bde71dce8cdc73aab6c95905fad2492506329965a1d9150606401600060405180830381600087803b15801561256057600080fd5b505af1158015611665573d6000803e3d6000fd5b600054610100900460ff1661259b5760405162461bcd60e51b81526004016107dd9061372e565b610a9d818360405180602001604052806000815250604051806020016040528060008152506129b6565b6001600160a01b0384166126265760405162461bcd60e51b815260206004820152602260248201527f4552433737373a206275726e2066726f6d20746865207a65726f206164647265604482015261737360f01b60648201526084016107dd565b3361263681866000878787611bc4565b61264381866000876127a5565b6001600160a01b038516600090815260336020526040902054848110156126b85760405162461bcd60e51b815260206004820152602360248201527f4552433737373a206275726e20616d6f756e7420657863656564732062616c616044820152626e636560e81b60648201526084016107dd565b6001600160a01b03861660009081526033602052604081208683039055603480548792906126e790849061337a565b92505081905550856001600160a01b0316826001600160a01b03167fa78a9be3a7b862d26933ad85fb11d80ef66b8f972d7cbba06621d583943a4098878787604051612735939291906137f0565b60405180910390a36040518581526000906001600160a01b038816906000805160206138b7833981519152906020015b60405180910390a3505050505050565b600054610100900460ff1661279c5760405162461bcd60e51b81526004016107dd9061372e565b610afa336118b1565b6001600160a01b0383161561288d5760006127bf8261188a565b905060006127cc85610aa4565b9050808211806127ee57506127e0856129c4565b6127ea908261337a565b8211155b6128565760405162461bcd60e51b815260206004820152603360248201527f5363686e6f6f646c653a207472616e7366657220616d6f756e74206578636565604482015272647320756e6c6f636b65642062616c616e636560681b60648201526084016107dd565b6128807feb4a01a12a4bbfa1bc780c16c5b2b6720cdf4f3c29cabd8c0f76fec3a575096b86610bf1565b1561288a57600080fd5b50505b6113a0565b600061289c610ec7565b90506128de85826128af6103e88761347c565b6128b99190613447565b60405180602001604052806000815250604051806020016040528060008152506125c5565b60006001600160a01b0386166000805160206138b78339815191526103e86129068589613447565b612910919061347c565b60405190815260200160405180910390a360cb5460cc54610a9d9187916001600160a01b03909116908790865b6001600160a01b03841615610a9d5760006103e861295b8486613447565b612965919061347c565b90506000612972826113c1565b90506129838787838663ffffffff16565b856001600160a01b0316876001600160a01b03166000805160206138b783398151915284604051611eae91815260200190565b6113a0848484846001612a9f565b610135546000906001600160a01b03166129e057506000919050565b610135546040516001600160a01b038481166024830152600092839291169060440160408051601f198184030181529181526020820180516001600160e01b0316632c9aab9b60e11b17905251612a37919061386b565b6000604051808303816000865af19150503d8060008114612a74576040519150601f19603f3d011682016040523d82523d6000602084013e612a79565b606091505b509150915081612a8b57612a8b613887565b80806020019051810190610e60919061389d565b610a9d85858585856001600160a01b038516612afd5760405162461bcd60e51b815260206004820181905260248201527f4552433737373a206d696e7420746f20746865207a65726f206164647265737360448201526064016107dd565b33612b0b81600088886127a5565b8460346000828254612b1d9190613490565b90915550506001600160a01b03861660009081526033602052604081208054879290612b4a908490613490565b90915550612b6090508160008888888888611ebf565b856001600160a01b0316816001600160a01b03167f2fe5be0146f74c5bce36c0b80911af6c7d86ff27e89d5cfa61fc681327954e5d878787604051612ba7939291906137f0565b60405180910390a36040518581526001600160a01b038716906000906000805160206138b783398151915290602001612765565b828054612be7906132f5565b90600052602060002090601f016020900481019282612c095760008555612c4f565b82601f10612c2257805160ff1916838001178555612c4f565b82800160010185558215612c4f579182015b82811115612c4f578251825591602001919060010190612c34565b50612c5b929150612cb4565b5090565b828054828255906000526020600020908101928215612c4f579160200282015b82811115612c4f57825182546001600160a01b0319166001600160a01b03909116178255602090920191600190910190612c7f565b5b80821115612c5b5760008155600101612cb5565b600060208284031215612cdb57600080fd5b81356001600160e01b0319811681146107ac57600080fd5b6020808252825182820181905260009190848201906040850190845b81811015612d345783516001600160a01b031683529284019291840191600101612d0f565b50909695505050505050565b60005b83811015612d5b578181015183820152602001612d43565b838111156113a05750506000910152565b60008151808452612d84816020860160208601612d40565b601f01601f19169290920160200192915050565b6020815260006107ac6020830184612d6c565b6001600160a01b038116811461125057600080fd5b8035612dcb81612dab565b919050565b60008060408385031215612de357600080fd5b8235612dee81612dab565b946020939093013593505050565b600060208284031215612e0e57600080fd5b5035919050565b600080600060608486031215612e2a57600080fd5b8335612e3581612dab565b92506020840135612e4581612dab565b929592945050506040919091013590565b60008060408385031215612e6957600080fd5b823591506020830135612e7b81612dab565b809150509250929050565b600080600060608486031215612e9b57600080fd5b83358015158114612eab57600080fd5b92506020840135612ebb81612dab565b91506040840135612ecb81612dab565b809150509250925092565b634e487b7160e01b600052604160045260246000fd5b604051601f8201601f1916810167ffffffffffffffff81118282101715612f1557612f15612ed6565b604052919050565b600082601f830112612f2e57600080fd5b813567ffffffffffffffff811115612f4857612f48612ed6565b612f5b601f8201601f1916602001612eec565b818152846020838601011115612f7057600080fd5b816020850160208301376000918101602001919091529392505050565b600080600080600060a08688031215612fa557600080fd5b8535612fb081612dab565b94506020860135612fc081612dab565b935060408601359250606086013567ffffffffffffffff80821115612fe457600080fd5b612ff089838a01612f1d565b9350608088013591508082111561300657600080fd5b5061301388828901612f1d565b9150509295509295909350565b60006020828403121561303257600080fd5b81356107ac81612dab565b600080600080600060a0868803121561305557600080fd5b853567ffffffffffffffff8082111561306d57600080fd5b61307989838a01612f1d565b965060209150818801358181111561309057600080fd5b61309c8a828b01612f1d565b9650506040880135818111156130b157600080fd5b8801601f81018a136130c257600080fd5b8035828111156130d4576130d4612ed6565b8060051b92506130e5848401612eec565b818152928201840192848101908c8511156130ff57600080fd5b928501925b84841015613129578335925061311983612dab565b8282529285019290850190613104565b97505050506060880135935061314491505060808701612dc0565b90509295509295909350565b6000806040838503121561316357600080fd5b50508035926020909101359150565b60008060006060848603121561318757600080fd5b833561319281612dab565b95602085013595506040909401359392505050565b6000806000606084860312156131bc57600080fd5b83356131c781612dab565b925060208401359150604084013567ffffffffffffffff8111156131ea57600080fd5b6131f686828701612f1d565b9150509250925092565b6000806040838503121561321357600080fd5b823561321e81612dab565b91506020830135612e7b81612dab565b6000806000806080858703121561324457600080fd5b843561324f81612dab565b935060208501359250604085013567ffffffffffffffff8082111561327357600080fd5b61327f88838901612f1d565b9350606087013591508082111561329557600080fd5b506132a287828801612f1d565b91505092959194509250565b600080604083850312156132c157600080fd5b82359150602083013567ffffffffffffffff8111156132df57600080fd5b6132eb85828601612f1d565b9150509250929050565b600181811c9082168061330957607f821691505b60208210810361332957634e487b7160e01b600052602260045260246000fd5b50919050565b6020808252818101527f4f776e61626c653a2063616c6c6572206973206e6f7420746865206f776e6572604082015260600190565b634e487b7160e01b600052601160045260246000fd5b60008282101561338c5761338c613364565b500390565b6020808252602c908201527f4552433737373a2063616c6c6572206973206e6f7420616e206f70657261746f60408201526b39103337b9103437b63232b960a11b606082015260800190565b6020808252602e908201527f496e697469616c697a61626c653a20636f6e747261637420697320616c72656160408201526d191e481a5b9a5d1a585b1a5e995960921b606082015260800190565b6000600160ff1b820161344057613440613364565b5060000390565b600081600019048311821515161561346157613461613364565b500290565b634e487b7160e01b600052601260045260246000fd5b60008261348b5761348b613466565b500490565b600082198211156134a3576134a3613364565b500190565b600181815b808511156134e35781600019048211156134c9576134c9613364565b808516156134d657918102915b93841c93908002906134ad565b509250929050565b6000826134fa575060016106a7565b81613507575060006106a7565b816001811461351d576002811461352757613543565b60019150506106a7565b60ff84111561353857613538613364565b50506001821b6106a7565b5060208310610133831016604e8410600b8410161715613566575081810a6106a7565b61357083836134a8565b806000190482111561358457613584613364565b029392505050565b60006107ac60ff8416836134eb565b6000826135aa576135aa613466565b500690565b60208082526024908201527f4552433737373a207472616e7366657220746f20746865207a65726f206164646040820152637265737360e01b606082015260800190565b60006001600160ff1b038184138284138082168684048611161561361957613619613364565b600160ff1b600087128281168783058912161561363857613638613364565b6000871292508782058712848416161561365457613654613364565b8785058712818416161561366a5761366a613364565b505050929093029392505050565b600080821280156001600160ff1b038490038513161561369a5761369a613364565b600160ff1b83900384128116156136b3576136b3613364565b50500190565b7f416363657373436f6e74726f6c3a206163636f756e74200000000000000000008152600083516136f1816017850160208801612d40565b7001034b99036b4b9b9b4b733903937b6329607d1b6017918401918201528351613722816028840160208801612d40565b01602801949350505050565b6020808252602b908201527f496e697469616c697a61626c653a20636f6e7472616374206973206e6f74206960408201526a6e697469616c697a696e6760a81b606082015260800190565b60006020828403121561378b57600080fd5b81516107ac81612dab565b6001600160a01b0387811682528681166020830152851660408201526060810184905260c0608082018190526000906137d190830185612d6c565b82810360a08401526137e38185612d6c565b9998505050505050505050565b8381526060602082015260006138096060830185612d6c565b828103604084015261381b8185612d6c565b9695505050505050565b634e487b7160e01b600052603260045260246000fd5b60008161384a5761384a613364565b506000190190565b60006001820161386457613864613364565b5060010190565b6000825161387d818460208701612d40565b9190910192915050565b634e487b7160e01b600052600160045260246000fd5b6000602082840312156138af57600080fd5b505191905056feddf252ad1be2c89b69c2b068fc378daa952ba7f163c4a11628f55a4df523b3efa2646970667358221220a8411098ee065cec094d8de07b8a52466e1a1b32cb536e277b6bfb940291b21364736f6c634300080d0033",
  "immutableReferences": {},
  "source": "// contracts/SchnoodleV8.sol\r\n// SPDX-License-Identifier: MIT\r\npragma solidity ^0.8.0;\r\n\r\nimport \"@openzeppelin/contracts-upgradeable/proxy/utils/Initializable.sol\";\r\nimport \"@openzeppelin/contracts-upgradeable/access/AccessControlUpgradeable.sol\";\r\nimport \"./imports/SchnoodleV8Base.sol\";\r\n\r\n/// @author Jason Payne (https://twitter.com/Neo42)\r\ncontract SchnoodleV8 is SchnoodleV8Base, AccessControlUpgradeable {\r\n    address private _schnoodleFarming;\r\n    address private _farmingFund;\r\n    uint256 private _sowRate;\r\n\r\n    bytes32 public constant LIQUIDITY = keccak256(\"LIQUIDITY\");\r\n    bytes32 public constant FARMING_CONTRACT = keccak256(\"FARMING_CONTRACT\");\r\n    bytes32 public constant LOCKED = keccak256(\"LOCKED\");\r\n\r\n    function configure(bool testnet, address liquidityToken, address schnoodleFarming) external onlyOwner {\r\n        if (testnet) {\r\n            _setupRole(DEFAULT_ADMIN_ROLE, owner());\r\n            _setupRole(LIQUIDITY, liquidityToken);\r\n            _setupRole(FARMING_CONTRACT, schnoodleFarming);\r\n            _schnoodleFarming = schnoodleFarming;\r\n            _farmingFund = address(uint160(uint256(keccak256(abi.encodePacked(block.timestamp, blockhash(block.number - 1))))));\r\n            _sowRate = 40;\r\n        }\r\n\r\n        configure(testnet);\r\n    }\r\n\r\n    // Transfer overrides\r\n\r\n    function _beforeTokenTransfer(address operator, address from, address to, uint256 amount) internal virtual override {\r\n        // Ensure the sender has enough unlocked balance to perform the transfer\r\n        if (from != address(0)) {\r\n            uint256 standardAmount = _getStandardAmount(amount);\r\n            uint256 balance = balanceOf(from);\r\n            require(standardAmount > balance || standardAmount <= balance - lockedBalanceOf(from), \"Schnoodle: transfer amount exceeds unlocked balance\");\r\n            require(!hasRole(LOCKED, from));\r\n        }\r\n\r\n        super._beforeTokenTransfer(operator, from, to, amount);\r\n    }\r\n\r\n    function payFees(address to, uint256 amount, uint256 reflectedAmount, function(address, address, uint256) internal transferCallback) internal virtual override {\r\n        super.payFees(to, amount, reflectedAmount, transferCallback);\r\n        payFund(to, _farmingFund, amount, _sowRate, transferCallback);\r\n    }\r\n\r\n    function isLiquidityToken(address account) internal view virtual override returns(bool)\r\n    {\r\n        return hasRole(LIQUIDITY, account);\r\n    }\r\n\r\n    // Farming functions\r\n\r\n    function getFarmingFund() external view returns (address) {\r\n        return _farmingFund;\r\n    }\r\n\r\n    function changeSowRate(uint256 rate) external onlyOwner {\r\n        _sowRate = rate;\r\n        emit SowRateChanged(rate);\r\n    }\r\n\r\n    function getSowRate() external view returns (uint256) {\r\n        return _sowRate;\r\n    }\r\n\r\n    function farmingReward(address account, uint256 netReward, uint256 grossReward) external {\r\n        require(hasRole(FARMING_CONTRACT, _msgSender()));\r\n        _transferFromReflected(_farmingFund, account, _getReflectedAmount(netReward));\r\n\r\n        // Burn the unused part of the gross reward\r\n        _burn(_farmingFund, grossReward - netReward, \"\", \"\");\r\n    }\r\n\r\n    // Calls to the SchnoodleFarming proxy contract\r\n\r\n    function lockedBalanceOf(address account) private returns(uint256) {\r\n        if (_schnoodleFarming == address(0)) return 0;\r\n        (bool success, bytes memory result) = _schnoodleFarming.call(abi.encodeWithSignature(\"lockedBalanceOf(address)\", account));\r\n        assert(success);\r\n        return abi.decode(result, (uint256));\r\n    }\r\n\r\n    event SowRateChanged(uint256 rate);\r\n}\r\n",
  "sourcePath": "C:\\Users\\micro\\OneDrive - X-treem Software\\Development\\Projects\\Blockchain\\Schnoodle\\contracts\\contracts\\SchnoodleV8.sol",
  "compiler": {
    "name": "solc",
    "version": "0.8.13+commit.abaa5c0e.Emscripten.clang"
  },
  "schemaVersion": "3.4.3",
  "updatedAt": "2022-04-28T21:55:27.635Z",
  "devdoc": {
    "author": "Jason Payne (https://twitter.com/Neo42)",
    "kind": "dev",
    "methods": {
      "allowance(address,address)": {
        "details": "See {IERC20-allowance}. Note that operator and allowance concepts are orthogonal: operators may not have allowance, and accounts with allowance may not be operators themselves."
      },
      "approve(address,uint256)": {
        "details": "See {IERC20-approve}. NOTE: If `value` is the maximum `uint256`, the allowance is not updated on `transferFrom`. This is semantically equivalent to an infinite approval. Note that accounts cannot have allowance issued by their operators."
      },
      "authorizeOperator(address)": {
        "details": "See {IERC777-authorizeOperator}."
      },
      "burn(uint256,bytes)": {
        "details": "See {IERC777-burn}. Also emits a {IERC20-Transfer} event for ERC20 compatibility."
      },
      "decimals()": {
        "details": "See {ERC20-decimals}. Always returns 18, as per the [ERC777 EIP](https://eips.ethereum.org/EIPS/eip-777#backward-compatibility)."
      },
      "defaultOperators()": {
        "details": "See {IERC777-defaultOperators}."
      },
      "getRoleAdmin(bytes32)": {
        "details": "Returns the admin role that controls `role`. See {grantRole} and {revokeRole}. To change a role's admin, use {_setRoleAdmin}."
      },
      "grantRole(bytes32,address)": {
        "details": "Grants `role` to `account`. If `account` had not been already granted `role`, emits a {RoleGranted} event. Requirements: - the caller must have ``role``'s admin role."
      },
      "granularity()": {
        "details": "See {IERC777-granularity}. This implementation always returns `1`."
      },
      "hasRole(bytes32,address)": {
        "details": "Returns `true` if `account` has been granted `role`."
      },
      "isOperatorFor(address,address)": {
        "details": "See {IERC777-isOperatorFor}."
      },
      "name()": {
        "details": "See {IERC777-name}."
      },
      "operatorBurn(address,uint256,bytes,bytes)": {
        "details": "See {IERC777-operatorBurn}. Emits {Burned} and {IERC20-Transfer} events."
      },
      "operatorSend(address,address,uint256,bytes,bytes)": {
        "details": "See {IERC777-operatorSend}. Emits {Sent} and {IERC20-Transfer} events."
      },
      "owner()": {
        "details": "Returns the address of the current owner."
      },
      "renounceOwnership()": {
        "details": "Leaves the contract without owner. It will not be possible to call `onlyOwner` functions anymore. Can only be called by the current owner. NOTE: Renouncing ownership will leave the contract without an owner, thereby removing any functionality that is only available to the owner."
      },
      "renounceRole(bytes32,address)": {
        "details": "Revokes `role` from the calling account. Roles are often managed via {grantRole} and {revokeRole}: this function's purpose is to provide a mechanism for accounts to lose their privileges if they are compromised (such as when a trusted device is misplaced). If the calling account had been revoked `role`, emits a {RoleRevoked} event. Requirements: - the caller must be `account`."
      },
      "revokeOperator(address)": {
        "details": "See {IERC777-revokeOperator}."
      },
      "revokeRole(bytes32,address)": {
        "details": "Revokes `role` from `account`. If `account` had been granted `role`, emits a {RoleRevoked} event. Requirements: - the caller must have ``role``'s admin role."
      },
      "send(address,uint256,bytes)": {
        "details": "See {IERC777-send}. Also emits a {IERC20-Transfer} event for ERC20 compatibility."
      },
      "supportsInterface(bytes4)": {
        "details": "See {IERC165-supportsInterface}."
      },
      "symbol()": {
        "details": "See {IERC777-symbol}."
      },
      "totalSupply()": {
        "details": "See {IERC777-totalSupply}."
      },
      "transfer(address,uint256)": {
        "details": "See {IERC20-transfer}. Unlike `send`, `recipient` is _not_ required to implement the {IERC777Recipient} interface if it is a contract. Also emits a {Sent} event."
      },
      "transferOwnership(address)": {
        "details": "Transfers ownership of the contract to a new account (`newOwner`). Can only be called by the current owner."
      }
    },
    "version": 1
  },
  "userdoc": {
    "kind": "user",
    "methods": {},
    "version": 1
  }
}