{
  "contractName": "SchnoodleV9",
  "abi": [
    {
      "anonymous": false,
      "inputs": [
        {
          "indexed": true,
          "internalType": "address",
          "name": "owner",
          "type": "address"
        },
        {
          "indexed": true,
          "internalType": "address",
          "name": "spender",
          "type": "address"
        },
        {
          "indexed": false,
          "internalType": "uint256",
          "name": "value",
          "type": "uint256"
        }
      ],
      "name": "Approval",
      "type": "event"
    },
    {
      "anonymous": false,
      "inputs": [
        {
          "indexed": true,
          "internalType": "address",
          "name": "operator",
          "type": "address"
        },
        {
          "indexed": true,
          "internalType": "address",
          "name": "tokenHolder",
          "type": "address"
        }
      ],
      "name": "AuthorizedOperator",
      "type": "event"
    },
    {
      "anonymous": false,
      "inputs": [
        {
          "indexed": true,
          "internalType": "address",
          "name": "operator",
          "type": "address"
        },
        {
          "indexed": true,
          "internalType": "address",
          "name": "from",
          "type": "address"
        },
        {
          "indexed": false,
          "internalType": "uint256",
          "name": "amount",
          "type": "uint256"
        },
        {
          "indexed": false,
          "internalType": "bytes",
          "name": "data",
          "type": "bytes"
        },
        {
          "indexed": false,
          "internalType": "bytes",
          "name": "operatorData",
          "type": "bytes"
        }
      ],
      "name": "Burned",
      "type": "event"
    },
    {
      "anonymous": false,
      "inputs": [
        {
          "indexed": true,
          "internalType": "address",
          "name": "eleemosynaryAccount",
          "type": "address"
        },
        {
          "indexed": false,
          "internalType": "uint256",
          "name": "donationRate",
          "type": "uint256"
        }
      ],
      "name": "EleemosynaryDetailsChanged",
      "type": "event"
    },
    {
      "anonymous": false,
      "inputs": [
        {
          "indexed": false,
          "internalType": "uint256",
          "name": "rate",
          "type": "uint256"
        }
      ],
      "name": "FeeRateChanged",
      "type": "event"
    },
    {
      "anonymous": false,
      "inputs": [
        {
          "indexed": false,
          "internalType": "uint8",
          "name": "version",
          "type": "uint8"
        }
      ],
      "name": "Initialized",
      "type": "event"
    },
    {
      "anonymous": false,
      "inputs": [
        {
          "indexed": true,
          "internalType": "address",
          "name": "operator",
          "type": "address"
        },
        {
          "indexed": true,
          "internalType": "address",
          "name": "to",
          "type": "address"
        },
        {
          "indexed": false,
          "internalType": "uint256",
          "name": "amount",
          "type": "uint256"
        },
        {
          "indexed": false,
          "internalType": "bytes",
          "name": "data",
          "type": "bytes"
        },
        {
          "indexed": false,
          "internalType": "bytes",
          "name": "operatorData",
          "type": "bytes"
        }
      ],
      "name": "Minted",
      "type": "event"
    },
    {
      "anonymous": false,
      "inputs": [
        {
          "indexed": true,
          "internalType": "address",
          "name": "previousOwner",
          "type": "address"
        },
        {
          "indexed": true,
          "internalType": "address",
          "name": "newOwner",
          "type": "address"
        }
      ],
      "name": "OwnershipTransferred",
      "type": "event"
    },
    {
      "anonymous": false,
      "inputs": [
        {
          "indexed": true,
          "internalType": "address",
          "name": "operator",
          "type": "address"
        },
        {
          "indexed": true,
          "internalType": "address",
          "name": "tokenHolder",
          "type": "address"
        }
      ],
      "name": "RevokedOperator",
      "type": "event"
    },
    {
      "anonymous": false,
      "inputs": [
        {
          "indexed": true,
          "internalType": "bytes32",
          "name": "role",
          "type": "bytes32"
        },
        {
          "indexed": true,
          "internalType": "bytes32",
          "name": "previousAdminRole",
          "type": "bytes32"
        },
        {
          "indexed": true,
          "internalType": "bytes32",
          "name": "newAdminRole",
          "type": "bytes32"
        }
      ],
      "name": "RoleAdminChanged",
      "type": "event"
    },
    {
      "anonymous": false,
      "inputs": [
        {
          "indexed": true,
          "internalType": "bytes32",
          "name": "role",
          "type": "bytes32"
        },
        {
          "indexed": true,
          "internalType": "address",
          "name": "account",
          "type": "address"
        },
        {
          "indexed": true,
          "internalType": "address",
          "name": "sender",
          "type": "address"
        }
      ],
      "name": "RoleGranted",
      "type": "event"
    },
    {
      "anonymous": false,
      "inputs": [
        {
          "indexed": true,
          "internalType": "bytes32",
          "name": "role",
          "type": "bytes32"
        },
        {
          "indexed": true,
          "internalType": "address",
          "name": "account",
          "type": "address"
        },
        {
          "indexed": true,
          "internalType": "address",
          "name": "sender",
          "type": "address"
        }
      ],
      "name": "RoleRevoked",
      "type": "event"
    },
    {
      "anonymous": false,
      "inputs": [
        {
          "indexed": false,
          "internalType": "uint256",
          "name": "blockTimestamp",
          "type": "uint256"
        },
        {
          "indexed": false,
          "internalType": "int256",
          "name": "amount",
          "type": "int256"
        }
      ],
      "name": "SellQuotaChanged",
      "type": "event"
    },
    {
      "anonymous": false,
      "inputs": [
        {
          "indexed": false,
          "internalType": "uint256",
          "name": "sellThreshold",
          "type": "uint256"
        },
        {
          "indexed": false,
          "internalType": "uint256",
          "name": "rateEscalator",
          "type": "uint256"
        }
      ],
      "name": "SellThresholdDetailsChanged",
      "type": "event"
    },
    {
      "anonymous": false,
      "inputs": [
        {
          "indexed": true,
          "internalType": "address",
          "name": "operator",
          "type": "address"
        },
        {
          "indexed": true,
          "internalType": "address",
          "name": "from",
          "type": "address"
        },
        {
          "indexed": true,
          "internalType": "address",
          "name": "to",
          "type": "address"
        },
        {
          "indexed": false,
          "internalType": "uint256",
          "name": "amount",
          "type": "uint256"
        },
        {
          "indexed": false,
          "internalType": "bytes",
          "name": "data",
          "type": "bytes"
        },
        {
          "indexed": false,
          "internalType": "bytes",
          "name": "operatorData",
          "type": "bytes"
        }
      ],
      "name": "Sent",
      "type": "event"
    },
    {
      "anonymous": false,
      "inputs": [
        {
          "indexed": false,
          "internalType": "uint256",
          "name": "rate",
          "type": "uint256"
        }
      ],
      "name": "SowRateChanged",
      "type": "event"
    },
    {
      "anonymous": false,
      "inputs": [
        {
          "indexed": true,
          "internalType": "address",
          "name": "from",
          "type": "address"
        },
        {
          "indexed": true,
          "internalType": "address",
          "name": "to",
          "type": "address"
        },
        {
          "indexed": false,
          "internalType": "uint256",
          "name": "value",
          "type": "uint256"
        }
      ],
      "name": "Transfer",
      "type": "event"
    },
    {
      "inputs": [],
      "name": "BRIDGE",
      "outputs": [
        {
          "internalType": "bytes32",
          "name": "",
          "type": "bytes32"
        }
      ],
      "stateMutability": "view",
      "type": "function"
    },
    {
      "inputs": [],
      "name": "DEFAULT_ADMIN_ROLE",
      "outputs": [
        {
          "internalType": "bytes32",
          "name": "",
          "type": "bytes32"
        }
      ],
      "stateMutability": "view",
      "type": "function"
    },
    {
      "inputs": [],
      "name": "FARMING_CONTRACT",
      "outputs": [
        {
          "internalType": "bytes32",
          "name": "",
          "type": "bytes32"
        }
      ],
      "stateMutability": "view",
      "type": "function"
    },
    {
      "inputs": [],
      "name": "LIQUIDITY",
      "outputs": [
        {
          "internalType": "bytes32",
          "name": "",
          "type": "bytes32"
        }
      ],
      "stateMutability": "view",
      "type": "function"
    },
    {
      "inputs": [],
      "name": "LOCKED",
      "outputs": [
        {
          "internalType": "bytes32",
          "name": "",
          "type": "bytes32"
        }
      ],
      "stateMutability": "view",
      "type": "function"
    },
    {
      "inputs": [
        {
          "internalType": "address",
          "name": "holder",
          "type": "address"
        },
        {
          "internalType": "address",
          "name": "spender",
          "type": "address"
        }
      ],
      "name": "allowance",
      "outputs": [
        {
          "internalType": "uint256",
          "name": "",
          "type": "uint256"
        }
      ],
      "stateMutability": "view",
      "type": "function"
    },
    {
      "inputs": [
        {
          "internalType": "address",
          "name": "spender",
          "type": "address"
        },
        {
          "internalType": "uint256",
          "name": "value",
          "type": "uint256"
        }
      ],
      "name": "approve",
      "outputs": [
        {
          "internalType": "bool",
          "name": "",
          "type": "bool"
        }
      ],
      "stateMutability": "nonpayable",
      "type": "function"
    },
    {
      "inputs": [
        {
          "internalType": "address",
          "name": "operator",
          "type": "address"
        }
      ],
      "name": "authorizeOperator",
      "outputs": [],
      "stateMutability": "nonpayable",
      "type": "function"
    },
    {
      "inputs": [
        {
          "internalType": "address",
          "name": "account",
          "type": "address"
        }
      ],
      "name": "balanceOf",
      "outputs": [
        {
          "internalType": "uint256",
          "name": "",
          "type": "uint256"
        }
      ],
      "stateMutability": "view",
      "type": "function"
    },
    {
      "inputs": [
        {
          "internalType": "uint256",
          "name": "amount",
          "type": "uint256"
        },
        {
          "internalType": "bytes",
          "name": "data",
          "type": "bytes"
        }
      ],
      "name": "burn",
      "outputs": [],
      "stateMutability": "nonpayable",
      "type": "function"
    },
    {
      "inputs": [
        {
          "internalType": "address",
          "name": "eleemosynaryAccount",
          "type": "address"
        },
        {
          "internalType": "uint256",
          "name": "donationRate",
          "type": "uint256"
        }
      ],
      "name": "changeEleemosynaryDetails",
      "outputs": [],
      "stateMutability": "nonpayable",
      "type": "function"
    },
    {
      "inputs": [
        {
          "internalType": "uint256",
          "name": "rate",
          "type": "uint256"
        }
      ],
      "name": "changeFeeRate",
      "outputs": [],
      "stateMutability": "nonpayable",
      "type": "function"
    },
    {
      "inputs": [
        {
          "internalType": "uint256",
          "name": "sellThreshold",
          "type": "uint256"
        },
        {
          "internalType": "uint256",
          "name": "rateEscalator",
          "type": "uint256"
        }
      ],
      "name": "changeSellThresholdDetails",
      "outputs": [],
      "stateMutability": "nonpayable",
      "type": "function"
    },
    {
      "inputs": [],
      "name": "decimals",
      "outputs": [
        {
          "internalType": "uint8",
          "name": "",
          "type": "uint8"
        }
      ],
      "stateMutability": "pure",
      "type": "function"
    },
    {
      "inputs": [],
      "name": "defaultOperators",
      "outputs": [
        {
          "internalType": "address[]",
          "name": "",
          "type": "address[]"
        }
      ],
      "stateMutability": "view",
      "type": "function"
    },
    {
      "inputs": [],
      "name": "getEleemosynaryDetails",
      "outputs": [
        {
          "internalType": "address",
          "name": "",
          "type": "address"
        },
        {
          "internalType": "uint256",
          "name": "",
          "type": "uint256"
        }
      ],
      "stateMutability": "view",
      "type": "function"
    },
    {
      "inputs": [],
      "name": "getFeeRate",
      "outputs": [
        {
          "internalType": "uint256",
          "name": "",
          "type": "uint256"
        }
      ],
      "stateMutability": "view",
      "type": "function"
    },
    {
      "inputs": [],
      "name": "getOperativeFeeRate",
      "outputs": [
        {
          "internalType": "uint256",
          "name": "",
          "type": "uint256"
        }
      ],
      "stateMutability": "view",
      "type": "function"
    },
    {
      "inputs": [
        {
          "internalType": "bytes32",
          "name": "role",
          "type": "bytes32"
        }
      ],
      "name": "getRoleAdmin",
      "outputs": [
        {
          "internalType": "bytes32",
          "name": "",
          "type": "bytes32"
        }
      ],
      "stateMutability": "view",
      "type": "function"
    },
    {
      "inputs": [],
      "name": "getSellQuota",
      "outputs": [
        {
          "components": [
            {
              "internalType": "uint256",
              "name": "blockMetric",
              "type": "uint256"
            },
            {
              "internalType": "int256",
              "name": "amount",
              "type": "int256"
            }
          ],
          "internalType": "struct SchnoodleV9Base.TokenMeter",
          "name": "",
          "type": "tuple"
        }
      ],
      "stateMutability": "view",
      "type": "function"
    },
    {
      "inputs": [],
      "name": "getSellThresholdDetails",
      "outputs": [
        {
          "internalType": "uint256",
          "name": "",
          "type": "uint256"
        },
        {
          "internalType": "uint256",
          "name": "",
          "type": "uint256"
        }
      ],
      "stateMutability": "view",
      "type": "function"
    },
    {
      "inputs": [
        {
          "internalType": "bytes32",
          "name": "role",
          "type": "bytes32"
        },
        {
          "internalType": "address",
          "name": "account",
          "type": "address"
        }
      ],
      "name": "grantRole",
      "outputs": [],
      "stateMutability": "nonpayable",
      "type": "function"
    },
    {
      "inputs": [],
      "name": "granularity",
      "outputs": [
        {
          "internalType": "uint256",
          "name": "",
          "type": "uint256"
        }
      ],
      "stateMutability": "view",
      "type": "function"
    },
    {
      "inputs": [
        {
          "internalType": "bytes32",
          "name": "role",
          "type": "bytes32"
        },
        {
          "internalType": "address",
          "name": "account",
          "type": "address"
        }
      ],
      "name": "hasRole",
      "outputs": [
        {
          "internalType": "bool",
          "name": "",
          "type": "bool"
        }
      ],
      "stateMutability": "view",
      "type": "function"
    },
    {
      "inputs": [
        {
          "internalType": "string",
          "name": "name",
          "type": "string"
        },
        {
          "internalType": "string",
          "name": "symbol",
          "type": "string"
        },
        {
          "internalType": "address[]",
          "name": "defaultOperators",
          "type": "address[]"
        },
        {
          "internalType": "uint256",
          "name": "initialSupply",
          "type": "uint256"
        },
        {
          "internalType": "address",
          "name": "owner",
          "type": "address"
        }
      ],
      "name": "initialize",
      "outputs": [],
      "stateMutability": "nonpayable",
      "type": "function"
    },
    {
      "inputs": [
        {
          "internalType": "uint256",
          "name": "initialTokens",
          "type": "uint256"
        },
        {
          "internalType": "address",
          "name": "serviceAccount",
          "type": "address"
        }
      ],
      "name": "initialize",
      "outputs": [],
      "stateMutability": "nonpayable",
      "type": "function"
    },
    {
      "inputs": [
        {
          "internalType": "address",
          "name": "operator",
          "type": "address"
        },
        {
          "internalType": "address",
          "name": "tokenHolder",
          "type": "address"
        }
      ],
      "name": "isOperatorFor",
      "outputs": [
        {
          "internalType": "bool",
          "name": "",
          "type": "bool"
        }
      ],
      "stateMutability": "view",
      "type": "function"
    },
    {
      "inputs": [],
      "name": "name",
      "outputs": [
        {
          "internalType": "string",
          "name": "",
          "type": "string"
        }
      ],
      "stateMutability": "view",
      "type": "function"
    },
    {
      "inputs": [
        {
          "internalType": "address",
          "name": "account",
          "type": "address"
        },
        {
          "internalType": "uint256",
          "name": "amount",
          "type": "uint256"
        },
        {
          "internalType": "bytes",
          "name": "data",
          "type": "bytes"
        },
        {
          "internalType": "bytes",
          "name": "operatorData",
          "type": "bytes"
        }
      ],
      "name": "operatorBurn",
      "outputs": [],
      "stateMutability": "nonpayable",
      "type": "function"
    },
    {
      "inputs": [
        {
          "internalType": "address",
          "name": "sender",
          "type": "address"
        },
        {
          "internalType": "address",
          "name": "recipient",
          "type": "address"
        },
        {
          "internalType": "uint256",
          "name": "amount",
          "type": "uint256"
        },
        {
          "internalType": "bytes",
          "name": "data",
          "type": "bytes"
        },
        {
          "internalType": "bytes",
          "name": "operatorData",
          "type": "bytes"
        }
      ],
      "name": "operatorSend",
      "outputs": [],
      "stateMutability": "nonpayable",
      "type": "function"
    },
    {
      "inputs": [],
      "name": "owner",
      "outputs": [
        {
          "internalType": "address",
          "name": "",
          "type": "address"
        }
      ],
      "stateMutability": "view",
      "type": "function"
    },
    {
      "inputs": [],
      "name": "renounceOwnership",
      "outputs": [],
      "stateMutability": "nonpayable",
      "type": "function"
    },
    {
      "inputs": [
        {
          "internalType": "bytes32",
          "name": "role",
          "type": "bytes32"
        },
        {
          "internalType": "address",
          "name": "account",
          "type": "address"
        }
      ],
      "name": "renounceRole",
      "outputs": [],
      "stateMutability": "nonpayable",
      "type": "function"
    },
    {
      "inputs": [
        {
          "internalType": "address",
          "name": "operator",
          "type": "address"
        }
      ],
      "name": "revokeOperator",
      "outputs": [],
      "stateMutability": "nonpayable",
      "type": "function"
    },
    {
      "inputs": [
        {
          "internalType": "bytes32",
          "name": "role",
          "type": "bytes32"
        },
        {
          "internalType": "address",
          "name": "account",
          "type": "address"
        }
      ],
      "name": "revokeRole",
      "outputs": [],
      "stateMutability": "nonpayable",
      "type": "function"
    },
    {
      "inputs": [
        {
          "internalType": "address",
          "name": "recipient",
          "type": "address"
        },
        {
          "internalType": "uint256",
          "name": "amount",
          "type": "uint256"
        },
        {
          "internalType": "bytes",
          "name": "data",
          "type": "bytes"
        }
      ],
      "name": "send",
      "outputs": [],
      "stateMutability": "nonpayable",
      "type": "function"
    },
    {
      "inputs": [
        {
          "internalType": "bytes4",
          "name": "interfaceId",
          "type": "bytes4"
        }
      ],
      "name": "supportsInterface",
      "outputs": [
        {
          "internalType": "bool",
          "name": "",
          "type": "bool"
        }
      ],
      "stateMutability": "view",
      "type": "function"
    },
    {
      "inputs": [],
      "name": "symbol",
      "outputs": [
        {
          "internalType": "string",
          "name": "",
          "type": "string"
        }
      ],
      "stateMutability": "view",
      "type": "function"
    },
    {
      "inputs": [],
      "name": "totalSupply",
      "outputs": [
        {
          "internalType": "uint256",
          "name": "",
          "type": "uint256"
        }
      ],
      "stateMutability": "view",
      "type": "function"
    },
    {
      "inputs": [
        {
          "internalType": "address",
          "name": "recipient",
          "type": "address"
        },
        {
          "internalType": "uint256",
          "name": "amount",
          "type": "uint256"
        }
      ],
      "name": "transfer",
      "outputs": [
        {
          "internalType": "bool",
          "name": "",
          "type": "bool"
        }
      ],
      "stateMutability": "nonpayable",
      "type": "function"
    },
    {
      "inputs": [
        {
          "internalType": "address",
          "name": "sender",
          "type": "address"
        },
        {
          "internalType": "address",
          "name": "recipient",
          "type": "address"
        },
        {
          "internalType": "uint256",
          "name": "amount",
          "type": "uint256"
        }
      ],
      "name": "transferFrom",
      "outputs": [
        {
          "internalType": "bool",
          "name": "",
          "type": "bool"
        }
      ],
      "stateMutability": "nonpayable",
      "type": "function"
    },
    {
      "inputs": [
        {
          "internalType": "address",
          "name": "newOwner",
          "type": "address"
        }
      ],
      "name": "transferOwnership",
      "outputs": [],
      "stateMutability": "nonpayable",
      "type": "function"
    },
    {
      "inputs": [
        {
          "internalType": "bool",
          "name": "testnet",
          "type": "bool"
        },
        {
          "internalType": "address",
          "name": "liquidityToken",
          "type": "address"
        },
        {
          "internalType": "address",
          "name": "schnoodleFarming",
          "type": "address"
        },
        {
          "internalType": "address",
          "name": "bridgeOwner",
          "type": "address"
        }
      ],
      "name": "configure",
      "outputs": [],
      "stateMutability": "nonpayable",
      "type": "function"
    },
    {
      "inputs": [],
      "name": "getFarmingFund",
      "outputs": [
        {
          "internalType": "address",
          "name": "",
          "type": "address"
        }
      ],
      "stateMutability": "view",
      "type": "function"
    },
    {
      "inputs": [
        {
          "internalType": "uint256",
          "name": "rate",
          "type": "uint256"
        }
      ],
      "name": "changeSowRate",
      "outputs": [],
      "stateMutability": "nonpayable",
      "type": "function"
    },
    {
      "inputs": [],
      "name": "getSowRate",
      "outputs": [
        {
          "internalType": "uint256",
          "name": "",
          "type": "uint256"
        }
      ],
      "stateMutability": "view",
      "type": "function"
    },
    {
      "inputs": [
        {
          "internalType": "address",
          "name": "account",
          "type": "address"
        },
        {
          "internalType": "uint256",
          "name": "netReward",
          "type": "uint256"
        },
        {
          "internalType": "uint256",
          "name": "grossReward",
          "type": "uint256"
        }
      ],
      "name": "farmingReward",
      "outputs": [],
      "stateMutability": "nonpayable",
      "type": "function"
    },
    {
      "inputs": [
        {
          "internalType": "uint256",
          "name": "networkId",
          "type": "uint256"
        },
        {
          "internalType": "uint256",
          "name": "amount",
          "type": "uint256"
        }
      ],
      "name": "sendTokens",
      "outputs": [],
      "stateMutability": "nonpayable",
      "type": "function"
    },
    {
      "inputs": [
        {
          "internalType": "uint256",
          "name": "networkId",
          "type": "uint256"
        }
      ],
      "name": "payFee",
      "outputs": [],
      "stateMutability": "payable",
      "type": "function"
    },
    {
      "inputs": [
        {
          "internalType": "address",
          "name": "account",
          "type": "address"
        },
        {
          "internalType": "uint256",
          "name": "networkId",
          "type": "uint256"
        },
        {
          "internalType": "uint256",
          "name": "amount",
          "type": "uint256"
        },
        {
          "internalType": "uint256",
          "name": "fee",
          "type": "uint256"
        }
      ],
      "name": "receiveTokens",
      "outputs": [],
      "stateMutability": "nonpayable",
      "type": "function"
    },
    {
      "inputs": [
        {
          "internalType": "address",
          "name": "account",
          "type": "address"
        },
        {
          "internalType": "uint256",
          "name": "networkId",
          "type": "uint256"
        }
      ],
      "name": "tokensSent",
      "outputs": [
        {
          "internalType": "uint256",
          "name": "",
          "type": "uint256"
        }
      ],
      "stateMutability": "view",
      "type": "function"
    },
    {
      "inputs": [
        {
          "internalType": "address",
          "name": "account",
          "type": "address"
        },
        {
          "internalType": "uint256",
          "name": "networkId",
          "type": "uint256"
        }
      ],
      "name": "tokensReceived",
      "outputs": [
        {
          "internalType": "uint256",
          "name": "",
          "type": "uint256"
        }
      ],
      "stateMutability": "view",
      "type": "function"
    },
    {
      "inputs": [
        {
          "internalType": "address",
          "name": "account",
          "type": "address"
        },
        {
          "internalType": "uint256",
          "name": "networkId",
          "type": "uint256"
        }
      ],
      "name": "feesPaid",
      "outputs": [
        {
          "internalType": "uint256",
          "name": "",
          "type": "uint256"
        }
      ],
      "stateMutability": "view",
      "type": "function"
    }
  ],
  "bytecode": "0x608060405234801561001057600080fd5b50613f1d806100206000396000f3fe60806040526004361061031a5760003560e01c80638da5cb5b116101ab578063b7a895fa116100f7578063ee9a31a211610095578063fad8b32a1161006f578063fad8b32a14610a2b578063fc673c4f14610a4b578063fdf5f4f814610a6b578063fe9d930314610a9357600080fd5b8063ee9a31a2146109b7578063f2fde38b146109eb578063f364109a14610a0b57600080fd5b8063d95b6371116100d1578063d95b637114610937578063da35a26f14610957578063dd62ed3e14610977578063e84839bd1461099757600080fd5b8063b7a895fa146108c1578063d289ade214610904578063d547741f1461091757600080fd5b80639bd9bbc611610164578063a9059cbb1161013e578063a9059cbb1461084c578063affca9321461086c578063b1e067b21461088c578063b393204b146108ac57600080fd5b80639bd9bbc6146107e3578063a1422f6914610803578063a217fddf1461083757600080fd5b80638da5cb5b1461071c5780639137ac721461073a57806391d148541461076e578063957872aa1461078e578063959b8c3f146107ae57806395d89b41146107ce57600080fd5b806331bcd2b71161026a5780636da1dd2611610223578063768f950a116101fd578063768f950a146106835780638184ba41146106a357806384e5eed0146106c3578063895b978e146106d857600080fd5b80636da1dd261461061b57806370a082311461064e578063715018a61461066e57600080fd5b806331bcd2b71461054657806336568abe14610566578063556f0dc71461058657806362ad1b831461059a5780636a6ccdf5146105ba5780636c05932a146105d057600080fd5b806322daa21d116102d757806324a756d1116102b157806324a756d1146104925780632861c7d1146104d65780632f2ff15d1461050a578063313ce5671461052a57600080fd5b806322daa21d1461041f57806323b872dd14610441578063248a9ca31461046157600080fd5b806301ffc9a71461031f57806306e485381461035457806306fdde0314610376578063095ea7b3146103985780630a831211146103b857806318160ddd1461040a575b600080fd5b34801561032b57600080fd5b5061033f61033a3660046132d7565b610ab3565b60405190151581526020015b60405180910390f35b34801561036057600080fd5b50610369610aea565b60405161034b9190613301565b34801561038257600080fd5b5061038b610b4c565b60405161034b91906133a6565b3480156103a457600080fd5b5061033f6103b33660046133d9565b610bd5565b3480156103c457600080fd5b506103fc6103d33660046133d9565b6001600160a01b0391909116600090815261013960209081526040808320938352929052205490565b60405190815260200161034b565b34801561041657600080fd5b5060c9546103fc565b34801561042b57600080fd5b5061043f61043a366004613405565b610bed565b005b34801561044d57600080fd5b5061033f61045c36600461341e565b610c5d565b34801561046d57600080fd5b506103fc61047c366004613405565b6000908152610103602052604090206001015490565b34801561049e57600080fd5b506103fc6104ad3660046133d9565b6001600160a01b0391909116600090815261013a60209081526040808320938352929052205490565b3480156104e257600080fd5b506103fc7f86cf169ddb9f19bc57304a958748511e956d0b9255fb5895294f9c4ae5b00d5881565b34801561051657600080fd5b5061043f61052536600461345f565b610ccd565b34801561053657600080fd5b506040516012815260200161034b565b34801561055257600080fd5b5061043f61056136600461348f565b610cf8565b34801561057257600080fd5b5061043f61058136600461345f565b610d45565b34801561059257600080fd5b5060016103fc565b3480156105a657600080fd5b5061043f6105b5366004613568565b610dc3565b3480156105c657600080fd5b50610137546103fc565b3480156105dc57600080fd5b5060408051808201825260008082526020918201528151808301835260ce5480825260cf5491830191825283519081529051918101919091520161034b565b34801561062757600080fd5b50610136546001600160a01b03165b6040516001600160a01b03909116815260200161034b565b34801561065a57600080fd5b506103fc6106693660046135fb565b610dff565b34801561067a57600080fd5b5061043f610e21565b34801561068f57600080fd5b5061043f61069e366004613618565b610e57565b3480156106af57600080fd5b5061043f6106be36600461348f565b610ed6565b3480156106cf57600080fd5b5060ca546103fc565b3480156106e457600080fd5b506103fc6106f33660046133d9565b6001600160a01b0391909116600090815261013b60209081526040808320938352929052205490565b34801561072857600080fd5b506097546001600160a01b0316610636565b34801561074657600080fd5b506103fc7f6426100d0053205ef4e6cbd754ca9b11acf0e907f8e2741bd95048bd4543de1a81565b34801561077a57600080fd5b5061033f61078936600461345f565b610f47565b34801561079a57600080fd5b5061043f6107a936600461372b565b610f73565b3480156107ba57600080fd5b5061043f6107c93660046135fb565b611006565b3480156107da57600080fd5b5061038b611123565b3480156107ef57600080fd5b5061043f6107fe366004613760565b611132565b34801561080f57600080fd5b506103fc7feb4a01a12a4bbfa1bc780c16c5b2b6720cdf4f3c29cabd8c0f76fec3a575096b81565b34801561084357600080fd5b506103fc600081565b34801561085857600080fd5b5061033f6108673660046133d9565b611150565b34801561087857600080fd5b5061043f610887366004613405565b6111be565b34801561089857600080fd5b5061043f6108a73660046137b9565b61121d565b3480156108b857600080fd5b506103fc611371565b3480156108cd57600080fd5b506108e560cb5460cc546001600160a01b0390911691565b604080516001600160a01b03909316835260208301919091520161034b565b61043f610912366004613405565b6113e3565b34801561092357600080fd5b5061043f61093236600461345f565b611416565b34801561094357600080fd5b5061033f6109523660046137f4565b61143c565b34801561096357600080fd5b5061043f61097236600461345f565b6114de565b34801561098357600080fd5b506103fc6109923660046137f4565b6115db565b3480156109a357600080fd5b5061043f6109b23660046133d9565b61160c565b3480156109c357600080fd5b506103fc7f08fb31c3e81624356c3314088aa971b73bcc82d22bc3e3b184b4593077ae327881565b3480156109f757600080fd5b5061043f610a063660046135fb565b611690565b348015610a1757600080fd5b5061043f610a26366004613822565b61172b565b348015610a3757600080fd5b5061043f610a463660046135fb565b611886565b348015610a5757600080fd5b5061043f610a66366004613883565b6119a1565b348015610a7757600080fd5b5060cd5460d0546040805192835260208301919091520161034b565b348015610a9f57600080fd5b5061043f610aae366004613903565b6119d3565b60006001600160e01b03198216637965db0b60e01b1480610ae457506301ffc9a760e01b6001600160e01b03198316145b92915050565b60606037805480602002602001604051908101604052809291908181526020018280548015610b4257602002820191906000526020600020905b81546001600160a01b03168152600190910190602001808311610b24575b5050505050905090565b606060358054610b5b9061394a565b80601f0160208091040260200160405190810160405280929190818152602001828054610b879061394a565b8015610b425780601f10610ba957610100808354040283529160200191610b42565b820191906000526020600020905b815481529060010190602001808311610bb757509395945050505050565b600033610be38185856119ee565b5060019392505050565b6097546001600160a01b03163314610c205760405162461bcd60e51b8152600401610c1790613984565b60405180910390fd5b6101378190556040518181527f356b0da78b28f488d953ba76712b3bdd18f174ff2296108417b4c1d47669692d906020015b60405180910390a150565b600080610c6983611a01565b90506000610c78868684611a15565b9050846001600160a01b0316866001600160a01b0316600080516020613ec883398151915286604051610cad91815260200190565b60405180910390a3610cc486868685611a5b611a71565b95945050505050565b60008281526101036020526040902060010154610ce981611bae565b610cf38383611bb8565b505050565b610d1181604051806020016040528060008152506119d3565b3360009081526101396020908152604080832085845290915281208054839290610d3c9084906139cf565b90915550505050565b6001600160a01b0381163314610db55760405162461bcd60e51b815260206004820152602f60248201527f416363657373436f6e74726f6c3a2063616e206f6e6c792072656e6f756e636560448201526e103937b632b9903337b91039b2b63360891b6064820152608401610c17565b610dbf8282611c3f565b5050565b610dcd338661143c565b610de95760405162461bcd60e51b8152600401610c17906139e7565b610df885858585856001611ca7565b5050505050565b6001600160a01b038116600090815260336020526040812054610ae490611d0c565b6097546001600160a01b03163314610e4b5760405162461bcd60e51b8152600401610c1790613984565b610e556000611d33565b565b6000610e636001611d85565b90508015610e7b576000805461ff0019166101001790555b610e888686868686611e0a565b8015610ece576000805461ff0019169055604051600181527f7f26b83ff96e1f2b6a682f133852f6798a09c465da95921460cefb38474024989060200160405180910390a15b505050505050565b6097546001600160a01b03163314610f005760405162461bcd60e51b8152600401610c1790613984565b60cd82905560d081905560408051838152602081018390527f72c1673617b0c2d62adda4739eab51cd7805a8ad541ae28ec66f46052c1dfa62910160405180910390a15050565b6000918252610103602090815260408084206001600160a01b0393909316845291905290205460ff1690565b610f9d7f6426100d0053205ef4e6cbd754ca9b11acf0e907f8e2741bd95048bd4543de1a33610f47565b610fa657600080fd5b61013654610fc6906001600160a01b031684610fc185611a01565b611a5b565b61013654610cf3906001600160a01b0316610fe18484613a33565b6040518060200160405280600081525060405180602001604052806000815250611e49565b6001600160a01b038116330361106a5760405162461bcd60e51b8152602060048201526024808201527f4552433737373a20617574686f72697a696e672073656c66206173206f70657260448201526330ba37b960e11b6064820152608401610c17565b6001600160a01b03811660009081526038602052604090205460ff16156110bb57336000908152603a602090815260408083206001600160a01b03851684529091529020805460ff191690556110ea565b3360009081526039602090815260408083206001600160a01b03851684529091529020805460ff191660011790555b60405133906001600160a01b038316907ff4caeb2d6ca8932a215a353d0703c326ec2d81fc68170f320eb2ab49e9df61f990600090a350565b606060368054610b5b9061394a565b610cf333848484604051806020016040528060008152506001611ca7565b60008061115c83611a01565b9050600061116a8583611ea9565b90506001600160a01b038516336001600160a01b0316600080516020613ec88339815191528660405161119f91815260200190565b60405180910390a36111b633868685611a5b611a71565b949350505050565b6097546001600160a01b031633146111e85760405162461bcd60e51b8152600401610c1790613984565b60ca8190556040518181527fdd72d2879718489eb363ba6099239f89d49542612862c71545503d35cfddda4690602001610c52565b6101385460ff161561122e57600080fd5b6112587f08fb31c3e81624356c3314088aa971b73bcc82d22bc3e3b184b4593077ae327833610f47565b61126157600080fd5b6001600160a01b038416600090815261013b602090815260408083208684529091529020548111156112d55760405162461bcd60e51b815260206004820181905260248201527f5363686e6f6f646c653a20496e73756666696369656e742066656520706169646044820152606401610c17565b610138805460ff191660011790556001600160a01b038416600090815261013b6020908152604080832086845290915281208054839290611317908490613a33565b9091555061132790508483611ee1565b6001600160a01b038416600090815261013a602090815260408083208684529091528120805484929061135b9084906139cf565b9091555050610138805460ff1916905550505050565b60008060cd54118015611386575060cf546000135b156113dc5760cd5460cf546113a69061139e90613a4a565b60cd54611f54565b60d05460ca546113b69190613a66565b6113c09190613a66565b6113ca9190613a9b565b60ca546113d791906139cf565b905090565b5060ca5490565b33600090815261013b602090815260408083208484529091528120805434929061140e9084906139cf565b909155505050565b6000828152610103602052604090206001015461143281611bae565b610cf38383611c3f565b6000816001600160a01b0316836001600160a01b031614806114a757506001600160a01b03831660009081526038602052604090205460ff1680156114a757506001600160a01b038083166000908152603a602090815260408083209387168352929052205460ff16155b806114d757506001600160a01b0380831660009081526039602090815260408083209387168352929052205460ff165b9392505050565b60006114ea6001611d85565b90508015611502576000805461ff0019166101001790555b61150a611f6a565b6115166012600a613b93565b6115209084613a66565b60c981905560408051808201825260098152685363686e6f6f646c6560b81b60208083019190915282518084018452600581526414d393d3d160da1b818301528351600081529182019093526115919391929161157f90600019613ba2565b61158b90600019613a33565b86611e0a565b8015610cf3576000805461ff0019169055604051600181527f7f26b83ff96e1f2b6a682f133852f6798a09c465da95921460cefb38474024989060200160405180910390a1505050565b6001600160a01b038083166000908152603b602090815260408083209385168352929052908120546114d790611d0c565b6097546001600160a01b031633146116365760405162461bcd60e51b8152600401610c1790613984565b60cb80546001600160a01b0319166001600160a01b03841690811790915560cc8290556040518281527f3c9add9b205965c28e39a1f5fc6780a30ba0f001dc883ed462d795f97a2d94069060200160405180910390a25050565b6097546001600160a01b031633146116ba5760405162461bcd60e51b8152600401610c1790613984565b6001600160a01b03811661171f5760405162461bcd60e51b815260206004820152602660248201527f4f776e61626c653a206e6577206f776e657220697320746865207a65726f206160448201526564647265737360d01b6064820152608401610c17565b61172881611d33565b50565b6097546001600160a01b031633146117555760405162461bcd60e51b8152600401610c1790613984565b83156118775761177760006117726097546001600160a01b031690565b611f99565b6117a17f86cf169ddb9f19bc57304a958748511e956d0b9255fb5895294f9c4ae5b00d5884611f99565b6117cb7f6426100d0053205ef4e6cbd754ca9b11acf0e907f8e2741bd95048bd4543de1a83611f99565b6117f57f08fb31c3e81624356c3314088aa971b73bcc82d22bc3e3b184b4593077ae327882611f99565b61013580546001600160a01b0319166001600160a01b0384161790554261181d600143613a33565b40604051602001611838929190918252602082015260400190565b60408051808303601f19018152919052805160209091012061013680546001600160a01b0319166001600160a01b039092169190911790556028610137555b61188084611fa3565b50505050565b336001600160a01b038216036118e85760405162461bcd60e51b815260206004820152602160248201527f4552433737373a207265766f6b696e672073656c66206173206f70657261746f6044820152603960f91b6064820152608401610c17565b6001600160a01b03811660009081526038602052604090205460ff161561193c57336000908152603a602090815260408083206001600160a01b03851684529091529020805460ff19166001179055611968565b3360009081526039602090815260408083206001600160a01b03851684529091529020805460ff191690555b60405133906001600160a01b038316907f50546e66e5f44d728365dc3908c63bc5cfeeab470722c1677e3073a6ac294aa190600090a350565b6119ab338561143c565b6119c75760405162461bcd60e51b8152600401610c17906139e7565b61188084848484611e49565b610dbf33838360405180602001604052806000815250611e49565b610cf383836119fc84611a01565b611ffd565b6000611a0b612124565b610ae49083613a66565b600033611a23858285612153565b611a5085858560405180602001604052806000815250604051806020016040528060008152506000611ca7565b506001949350505050565b611a66833383611ffd565b611880838383611a15565b6000611a7c86612166565b9050600081158015611a925750611a9286612166565b60cd5490915015611b8d5760ce5442901580611abb5750611ab66201518082613a33565b60ce54105b15611b085760ce81905560cd5460cf8190556040805183815260208101929092527f6326273a6785f513768f2d48c9379925280b1265fc536c9ba0d40d213994064b910160405180910390a15b8583611b225782611b1a576000611b25565b600019611b25565b60015b611b2f9190613bb6565b60cf8054600090611b41908490613c3b565b909155505060ce5460cf546040517f6326273a6785f513768f2d48c9379925280b1265fc536c9ba0d40d213994064b92611b8392908252602082015260400190565b60405180910390a1505b80611b99575050610df8565b611ba586868686612192565b50505050505050565b61172881336121c0565b611bc28282610f47565b610dbf576000828152610103602090815260408083206001600160a01b03851684529091529020805460ff19166001179055611bfb3390565b6001600160a01b0316816001600160a01b0316837f2f8788117e7eff1d82e926ec794901d17c78024a50270940304540a733656f0d60405160405180910390a45050565b611c498282610f47565b15610dbf576000828152610103602090815260408083206001600160a01b0385168085529252808320805460ff1916905551339285917ff6391f5c32d9c69d2a47ea670b442974b53935d1edc7fd64eb21e047a839171b9190a45050565b6000611cb285611a01565b9050611cc2878783878787612224565b856001600160a01b0316876001600160a01b0316600080516020613ec883398151915287604051611cf591815260200190565b60405180910390a3611ba587878784612317611a71565b60008115611d2b57611d1c612124565b611d269083613a9b565b610ae4565b600092915050565b609780546001600160a01b038381166001600160a01b0319831681179093556040519116919082907f8be0079c531659141344cd1fd0a4f28419497f9722a3daafe3b4186f6b6457e090600090a35050565b60008054610100900460ff1615611dc4578160ff166001148015611da85750303b155b611d2b5760405162461bcd60e51b8152600401610c1790613c7c565b60005460ff808416911610611deb5760405162461bcd60e51b8152600401610c1790613c7c565b506000805460ff191660ff92909216919091179055600190565b919050565b600054610100900460ff16611e315760405162461bcd60e51b8152600401610c1790613cca565b611e3c858585612344565b610df8858585858561252e565b611e5d84611e5685611a01565b848461257f565b6040518381526000906001600160a01b03861690600080516020613ec88339815191529060200160405180910390a38260c96000828254611e9e9190613a33565b909155505050505050565b6000611ed833848460405180602001604052806000815250604051806020016040528060008152506000611ca7565b50600192915050565b611f1382611eee83611a01565b604051806020016040528060008152506040518060200160405280600081525061272f565b6040518181526001600160a01b03831690600090600080516020613ec88339815191529060200160405180910390a38060c96000828254610d3c91906139cf565b6000818310611f6357816114d7565b5090919050565b600054610100900460ff16611f915760405162461bcd60e51b8152600401610c1790613cca565b610e5561273d565b610dbf8282611bb8565b6097546001600160a01b03163314611fcd5760405162461bcd60e51b8152600401610c1790613984565b801561172857602860ca55600660d055611fe96012600a613b93565b611ff790633b9aca00613a66565b60cd5550565b6001600160a01b0383166120615760405162461bcd60e51b815260206004820152602560248201527f4552433737373a20617070726f76652066726f6d20746865207a65726f206164604482015264647265737360d81b6064820152608401610c17565b6001600160a01b0382166120c35760405162461bcd60e51b815260206004820152602360248201527f4552433737373a20617070726f766520746f20746865207a65726f206164647260448201526265737360e81b6064820152608401610c17565b6001600160a01b038381166000818152603b602090815260408083209487168084529482529182902085905590518481527f8c5be1e5ebec7d5bd14f71427d1e84f3dd0314c0f7b2291e5b200ac8c7c3b925910160405180910390a3505050565b60008061213060345490565b9050801561214a5760c9546121459082613a9b565b61214d565b60005b91505090565b610cf3838361216184611d0c565b61276d565b6000610ae47f86cf169ddb9f19bc57304a958748511e956d0b9255fb5895294f9c4ae5b00d5883610f47565b61219e848484846127e1565b61013654610137546118809186916001600160a01b039091169086908561288c565b6121ca8282610f47565b610dbf576121e2816001600160a01b03166014612916565b6121ed836020612916565b6040516020016121fe929190613d15565b60408051601f198184030181529082905262461bcd60e51b8252610c17916004016133a6565b6001600160a01b0386166122895760405162461bcd60e51b815260206004820152602660248201527f4552433737373a207472616e736665722066726f6d20746865207a65726f206160448201526564647265737360d01b6064820152608401610c17565b6001600160a01b0385166122eb5760405162461bcd60e51b8152602060048201526024808201527f4552433737373a207472616e7366657220746f20746865207a65726f206164646044820152637265737360e01b6064820152608401610c17565b336122fa818888888888612ab2565b612308818888888888612bd9565b611ba581888888888888612d28565b610cf383838360405180602001604052806000815250604051806020016040528060008152506001612224565b600054610100900460ff1661236b5760405162461bcd60e51b8152600401610c1790613cca565b825161237e9060359060208601906131e9565b5081516123929060369060208501906131e9565b5080516123a690603790602084019061326d565b5060005b815181101561240f576001603860008484815181106123cb576123cb613d8a565b6020908102919091018101516001600160a01b03168252810191909152604001600020805460ff19169115159190911790558061240781613da0565b9150506123aa565b506040516329965a1d60e01b815230600482018190527fac7fbab5f54a3ca8194167523c6753bfeb96a445279294b6125b68cce217705460248301526044820152731820a4b7618bde71dce8cdc73aab6c95905fad24906329965a1d90606401600060405180830381600087803b15801561248957600080fd5b505af115801561249d573d6000803e3d6000fd5b50506040516329965a1d60e01b815230600482018190527faea199e31a596269b42cdafd93407f14436db6e4cad65417994c2eb37381e05a60248301526044820152731820a4b7618bde71dce8cdc73aab6c95905fad2492506329965a1d9150606401600060405180830381600087803b15801561251a57600080fd5b505af1158015611ba5573d6000803e3d6000fd5b600054610100900460ff166125555760405162461bcd60e51b8152600401610c1790613cca565b610df88183604051806020016040528060008152506040518060200160405280600081525061272f565b6001600160a01b0384166125e05760405162461bcd60e51b815260206004820152602260248201527f4552433737373a206275726e2066726f6d20746865207a65726f206164647265604482015261737360f01b6064820152608401610c17565b336125f081866000878787612ab2565b6125fd8186600087612eed565b6001600160a01b038516600090815260336020526040902054848110156126725760405162461bcd60e51b815260206004820152602360248201527f4552433737373a206275726e20616d6f756e7420657863656564732062616c616044820152626e636560e81b6064820152608401610c17565b6001600160a01b03861660009081526033602052604081208683039055603480548792906126a1908490613a33565b92505081905550856001600160a01b0316826001600160a01b03167fa78a9be3a7b862d26933ad85fb11d80ef66b8f972d7cbba06621d583943a40988787876040516126ef93929190613db9565b60405180910390a36040518581526000906001600160a01b03881690600080516020613ec8833981519152906020015b60405180910390a3505050505050565b611880848484846001612fda565b600054610100900460ff166127645760405162461bcd60e51b8152600401610c1790613cca565b610e5533611d33565b600061277984846115db565b9050600019811461188057818110156127d45760405162461bcd60e51b815260206004820152601e60248201527f4552433737373a20696e73756666696369656e7420616c6c6f77616e636500006044820152606401610c17565b61188084848484036119ee565b60006127eb611371565b905061282d85826127fe6103e887613a9b565b6128089190613a66565b604051806020016040528060008152506040518060200160405280600081525061257f565b60006001600160a01b038616600080516020613ec88339815191526103e86128558589613a66565b61285f9190613a9b565b60405190815260200160405180910390a360cb5460cc54610df89187916001600160a01b03909116908790865b6001600160a01b03841615610df85760006103e86128aa8486613a66565b6128b49190613a9b565b905060006128c182611a01565b90506128d28787838663ffffffff16565b856001600160a01b0316876001600160a01b0316600080516020613ec88339815191528460405161290591815260200190565b60405180910390a350505050505050565b60606000612925836002613a66565b6129309060026139cf565b67ffffffffffffffff811115612948576129486134b1565b6040519080825280601f01601f191660200182016040528015612972576020820181803683370190505b509050600360fc1b8160008151811061298d5761298d613d8a565b60200101906001600160f81b031916908160001a905350600f60fb1b816001815181106129bc576129bc613d8a565b60200101906001600160f81b031916908160001a90535060006129e0846002613a66565b6129eb9060016139cf565b90505b6001811115612a63576f181899199a1a9b1b9c1cb0b131b232b360811b85600f1660108110612a1f57612a1f613d8a565b1a60f81b828281518110612a3557612a35613d8a565b60200101906001600160f81b031916908160001a90535060049490941c93612a5c81613dee565b90506129ee565b5083156114d75760405162461bcd60e51b815260206004820181905260248201527f537472696e67733a20686578206c656e67746820696e73756666696369656e746044820152606401610c17565b60405163555ddc6560e11b81526001600160a01b03861660048201527f29ddb589b1fb5fc7cf394961c1adf5f8c6454761adf795e67fe149f658abe8956024820152600090731820a4b7618bde71dce8cdc73aab6c95905fad249063aabbb8ca90604401602060405180830381865afa158015612b33573d6000803e3d6000fd5b505050506040513d601f19601f82011682018060405250810190612b579190613e05565b90506001600160a01b03811615611ba557604051633ad5cbc160e11b81526001600160a01b038216906375ab978290612b9e908a908a908a908a908a908a90600401613e22565b600060405180830381600087803b158015612bb857600080fd5b505af1158015612bcc573d6000803e3d6000fd5b5050505050505050505050565b612be586868686612eed565b6001600160a01b03851660009081526033602052604090205483811015612c5e5760405162461bcd60e51b815260206004820152602760248201527f4552433737373a207472616e7366657220616d6f756e7420657863656564732060448201526662616c616e636560c81b6064820152608401610c17565b6001600160a01b03808716600090815260336020526040808220878503905591871681529081208054869290612c959084906139cf565b92505081905550846001600160a01b0316866001600160a01b0316886001600160a01b03167f06b541ddaa720db2b10a4d0cdac39b8d360425fc073085fac19bc82614677987878787604051612ced93929190613db9565b60405180910390a4846001600160a01b0316866001600160a01b0316600080516020613ec88339815191528660405161290591815260200190565b60405163555ddc6560e11b81526001600160a01b03861660048201527fb281fc8c12954d22544db45de3159a39272895b169a852b314f9cc762e44c53b6024820152600090731820a4b7618bde71dce8cdc73aab6c95905fad249063aabbb8ca90604401602060405180830381865afa158015612da9573d6000803e3d6000fd5b505050506040513d601f19601f82011682018060405250810190612dcd9190613e05565b90506001600160a01b03811615612e49576040516223de2960e01b81526001600160a01b038216906223de2990612e12908b908b908b908b908b908b90600401613e22565b600060405180830381600087803b158015612e2c57600080fd5b505af1158015612e40573d6000803e3d6000fd5b50505050612ee3565b8115612ee3576001600160a01b0386163b15612ee35760405162461bcd60e51b815260206004820152604d60248201527f4552433737373a20746f6b656e20726563697069656e7420636f6e747261637460448201527f20686173206e6f20696d706c656d656e74657220666f7220455243373737546f60648201526c1ad95b9cd49958da5c1a595b9d609a1b608482015260a401610c17565b5050505050505050565b6001600160a01b03831615612fd5576000612f0782611d0c565b90506000612f1485610dff565b905080821180612f365750612f288561310e565b612f329082613a33565b8211155b612f9e5760405162461bcd60e51b815260206004820152603360248201527f5363686e6f6f646c653a207472616e7366657220616d6f756e74206578636565604482015272647320756e6c6f636b65642062616c616e636560681b6064820152608401610c17565b612fc87feb4a01a12a4bbfa1bc780c16c5b2b6720cdf4f3c29cabd8c0f76fec3a575096b86610f47565b15612fd257600080fd5b50505b611880565b6001600160a01b0385166130305760405162461bcd60e51b815260206004820181905260248201527f4552433737373a206d696e7420746f20746865207a65726f20616464726573736044820152606401610c17565b3361303e8160008888612eed565b846034600082825461305091906139cf565b90915550506001600160a01b0386166000908152603360205260408120805487929061307d9084906139cf565b9091555061309390508160008888888888612d28565b856001600160a01b0316816001600160a01b03167f2fe5be0146f74c5bce36c0b80911af6c7d86ff27e89d5cfa61fc681327954e5d8787876040516130da93929190613db9565b60405180910390a36040518581526001600160a01b03871690600090600080516020613ec88339815191529060200161271f565b610135546000906001600160a01b031661312a57506000919050565b610135546040516001600160a01b038481166024830152600092839291169060440160408051601f198184030181529181526020820180516001600160e01b0316632c9aab9b60e11b179052516131819190613e7c565b6000604051808303816000865af19150503d80600081146131be576040519150601f19603f3d011682016040523d82523d6000602084013e6131c3565b606091505b5091509150816131d5576131d5613e98565b808060200190518101906111b69190613eae565b8280546131f59061394a565b90600052602060002090601f016020900481019282613217576000855561325d565b82601f1061323057805160ff191683800117855561325d565b8280016001018555821561325d579182015b8281111561325d578251825591602001919060010190613242565b506132699291506132c2565b5090565b82805482825590600052602060002090810192821561325d579160200282015b8281111561325d57825182546001600160a01b0319166001600160a01b0390911617825560209092019160019091019061328d565b5b8082111561326957600081556001016132c3565b6000602082840312156132e957600080fd5b81356001600160e01b0319811681146114d757600080fd5b6020808252825182820181905260009190848201906040850190845b818110156133425783516001600160a01b03168352928401929184019160010161331d565b50909695505050505050565b60005b83811015613369578181015183820152602001613351565b838111156118805750506000910152565b6000815180845261339281602086016020860161334e565b601f01601f19169290920160200192915050565b6020815260006114d7602083018461337a565b6001600160a01b038116811461172857600080fd5b8035611e05816133b9565b600080604083850312156133ec57600080fd5b82356133f7816133b9565b946020939093013593505050565b60006020828403121561341757600080fd5b5035919050565b60008060006060848603121561343357600080fd5b833561343e816133b9565b9250602084013561344e816133b9565b929592945050506040919091013590565b6000806040838503121561347257600080fd5b823591506020830135613484816133b9565b809150509250929050565b600080604083850312156134a257600080fd5b50508035926020909101359150565b634e487b7160e01b600052604160045260246000fd5b604051601f8201601f1916810167ffffffffffffffff811182821017156134f0576134f06134b1565b604052919050565b600082601f83011261350957600080fd5b813567ffffffffffffffff811115613523576135236134b1565b613536601f8201601f19166020016134c7565b81815284602083860101111561354b57600080fd5b816020850160208301376000918101602001919091529392505050565b600080600080600060a0868803121561358057600080fd5b853561358b816133b9565b9450602086013561359b816133b9565b935060408601359250606086013567ffffffffffffffff808211156135bf57600080fd5b6135cb89838a016134f8565b935060808801359150808211156135e157600080fd5b506135ee888289016134f8565b9150509295509295909350565b60006020828403121561360d57600080fd5b81356114d7816133b9565b600080600080600060a0868803121561363057600080fd5b853567ffffffffffffffff8082111561364857600080fd5b61365489838a016134f8565b965060209150818801358181111561366b57600080fd5b6136778a828b016134f8565b96505060408801358181111561368c57600080fd5b8801601f81018a1361369d57600080fd5b8035828111156136af576136af6134b1565b8060051b92506136c08484016134c7565b818152928201840192848101908c8511156136da57600080fd5b928501925b8484101561370457833592506136f4836133b9565b82825292850192908501906136df565b97505050506060880135935061371f915050608087016133ce565b90509295509295909350565b60008060006060848603121561374057600080fd5b833561374b816133b9565b95602085013595506040909401359392505050565b60008060006060848603121561377557600080fd5b8335613780816133b9565b925060208401359150604084013567ffffffffffffffff8111156137a357600080fd5b6137af868287016134f8565b9150509250925092565b600080600080608085870312156137cf57600080fd5b84356137da816133b9565b966020860135965060408601359560600135945092505050565b6000806040838503121561380757600080fd5b8235613812816133b9565b91506020830135613484816133b9565b6000806000806080858703121561383857600080fd5b8435801515811461384857600080fd5b93506020850135613858816133b9565b92506040850135613868816133b9565b91506060850135613878816133b9565b939692955090935050565b6000806000806080858703121561389957600080fd5b84356138a4816133b9565b935060208501359250604085013567ffffffffffffffff808211156138c857600080fd5b6138d4888389016134f8565b935060608701359150808211156138ea57600080fd5b506138f7878288016134f8565b91505092959194509250565b6000806040838503121561391657600080fd5b82359150602083013567ffffffffffffffff81111561393457600080fd5b613940858286016134f8565b9150509250929050565b600181811c9082168061395e57607f821691505b60208210810361397e57634e487b7160e01b600052602260045260246000fd5b50919050565b6020808252818101527f4f776e61626c653a2063616c6c6572206973206e6f7420746865206f776e6572604082015260600190565b634e487b7160e01b600052601160045260246000fd5b600082198211156139e2576139e26139b9565b500190565b6020808252602c908201527f4552433737373a2063616c6c6572206973206e6f7420616e206f70657261746f60408201526b39103337b9103437b63232b960a11b606082015260800190565b600082821015613a4557613a456139b9565b500390565b6000600160ff1b8201613a5f57613a5f6139b9565b5060000390565b6000816000190483118215151615613a8057613a806139b9565b500290565b634e487b7160e01b600052601260045260246000fd5b600082613aaa57613aaa613a85565b500490565b600181815b80851115613aea578160001904821115613ad057613ad06139b9565b80851615613add57918102915b93841c9390800290613ab4565b509250929050565b600082613b0157506001610ae4565b81613b0e57506000610ae4565b8160018114613b245760028114613b2e57613b4a565b6001915050610ae4565b60ff841115613b3f57613b3f6139b9565b50506001821b610ae4565b5060208310610133831016604e8410600b8410161715613b6d575081810a610ae4565b613b778383613aaf565b8060001904821115613b8b57613b8b6139b9565b029392505050565b60006114d760ff841683613af2565b600082613bb157613bb1613a85565b500690565b60006001600160ff1b0381841382841380821686840486111615613bdc57613bdc6139b9565b600160ff1b6000871282811687830589121615613bfb57613bfb6139b9565b60008712925087820587128484161615613c1757613c176139b9565b87850587128184161615613c2d57613c2d6139b9565b505050929093029392505050565b600080821280156001600160ff1b0384900385131615613c5d57613c5d6139b9565b600160ff1b8390038412811615613c7657613c766139b9565b50500190565b6020808252602e908201527f496e697469616c697a61626c653a20636f6e747261637420697320616c72656160408201526d191e481a5b9a5d1a585b1a5e995960921b606082015260800190565b6020808252602b908201527f496e697469616c697a61626c653a20636f6e7472616374206973206e6f74206960408201526a6e697469616c697a696e6760a81b606082015260800190565b7f416363657373436f6e74726f6c3a206163636f756e7420000000000000000000815260008351613d4d81601785016020880161334e565b7001034b99036b4b9b9b4b733903937b6329607d1b6017918401918201528351613d7e81602884016020880161334e565b01602801949350505050565b634e487b7160e01b600052603260045260246000fd5b600060018201613db257613db26139b9565b5060010190565b838152606060208201526000613dd2606083018561337a565b8281036040840152613de4818561337a565b9695505050505050565b600081613dfd57613dfd6139b9565b506000190190565b600060208284031215613e1757600080fd5b81516114d7816133b9565b6001600160a01b0387811682528681166020830152851660408201526060810184905260c060808201819052600090613e5d9083018561337a565b82810360a0840152613e6f818561337a565b9998505050505050505050565b60008251613e8e81846020870161334e565b9190910192915050565b634e487b7160e01b600052600160045260246000fd5b600060208284031215613ec057600080fd5b505191905056feddf252ad1be2c89b69c2b068fc378daa952ba7f163c4a11628f55a4df523b3efa2646970667358221220d912b9fa620e423971ea31d3299204f733cf7fb7ee7499002eb1eec52893bb6164736f6c634300080d0033",
  "immutableReferences": {},
  "source": "// contracts/SchnoodleV9.sol\r\n// SPDX-License-Identifier: MIT\r\npragma solidity ^0.8.0;\r\n\r\nimport \"@openzeppelin/contracts-upgradeable/proxy/utils/Initializable.sol\";\r\nimport \"@openzeppelin/contracts-upgradeable/access/AccessControlUpgradeable.sol\";\r\nimport \"./imports/SchnoodleV9Base.sol\";\r\n\r\n/// @author Jason Payne (https://twitter.com/Neo42)\r\ncontract SchnoodleV9 is SchnoodleV9Base, AccessControlUpgradeable {\r\n    address private _schnoodleFarming;\r\n    address private _farmingFund;\r\n    uint256 private _sowRate;\r\n\r\n    bytes32 public constant LIQUIDITY = keccak256(\"LIQUIDITY\");\r\n    bytes32 public constant FARMING_CONTRACT = keccak256(\"FARMING_CONTRACT\");\r\n    bytes32 public constant LOCKED = keccak256(\"LOCKED\");\r\n    bytes32 public constant BRIDGE = keccak256(\"BRIDGE\");\r\n\r\n    bool private _avoidReentrancy;\r\n    mapping(address => mapping (uint256 => uint256)) private _tokensSent;\r\n    mapping(address => mapping (uint256 => uint256)) private _tokensReceived;\r\n    mapping(address => mapping (uint256 => uint256)) private _feesPaid;\r\n\r\n    function configure(bool testnet, address liquidityToken, address schnoodleFarming, address bridgeOwner) external onlyOwner {\r\n        if (testnet) {\r\n            _setupRole(DEFAULT_ADMIN_ROLE, owner());\r\n            _setupRole(LIQUIDITY, liquidityToken);\r\n            _setupRole(FARMING_CONTRACT, schnoodleFarming);\r\n            _setupRole(BRIDGE, bridgeOwner);\r\n            _schnoodleFarming = schnoodleFarming;\r\n            _farmingFund = address(uint160(uint256(keccak256(abi.encodePacked(block.timestamp, blockhash(block.number - 1))))));\r\n            _sowRate = 40;\r\n        }\r\n\r\n        configure(testnet);\r\n    }\r\n\r\n    // Transfer overrides\r\n\r\n    function _beforeTokenTransfer(address operator, address from, address to, uint256 amount) internal override {\r\n        // Ensure the sender has enough unlocked balance to perform the transfer\r\n        if (from != address(0)) {\r\n            uint256 standardAmount = _getStandardAmount(amount);\r\n            uint256 balance = balanceOf(from);\r\n            require(standardAmount > balance || standardAmount <= balance - lockedBalanceOf(from), \"Schnoodle: transfer amount exceeds unlocked balance\");\r\n            require(!hasRole(LOCKED, from));\r\n        }\r\n\r\n        super._beforeTokenTransfer(operator, from, to, amount);\r\n    }\r\n\r\n    function payFees(address to, uint256 amount, uint256 reflectedAmount, function(address, address, uint256) internal transferCallback) internal override {\r\n        super.payFees(to, amount, reflectedAmount, transferCallback);\r\n        payFund(to, _farmingFund, amount, _sowRate, transferCallback);\r\n    }\r\n\r\n    function isLiquidityToken(address account) internal view override returns(bool)\r\n    {\r\n        return hasRole(LIQUIDITY, account);\r\n    }\r\n\r\n    // Farming functions\r\n\r\n    function getFarmingFund() external view returns (address) {\r\n        return _farmingFund;\r\n    }\r\n\r\n    function changeSowRate(uint256 rate) external onlyOwner {\r\n        _sowRate = rate;\r\n        emit SowRateChanged(rate);\r\n    }\r\n\r\n    function getSowRate() external view returns (uint256) {\r\n        return _sowRate;\r\n    }\r\n\r\n    function farmingReward(address account, uint256 netReward, uint256 grossReward) external {\r\n        require(hasRole(FARMING_CONTRACT, _msgSender()));\r\n        _transferFromReflected(_farmingFund, account, _getReflectedAmount(netReward));\r\n\r\n        // Burn the unused part of the gross reward\r\n        _burn(_farmingFund, grossReward - netReward, \"\", \"\");\r\n    }\r\n\r\n    // Bridge functions\r\n\r\n    function sendTokens(uint256 networkId, uint256 amount) external {\r\n        burn(amount, \"\");\r\n        _tokensSent[_msgSender()][networkId] += amount;\r\n    }\r\n\r\n    function payFee(uint256 networkId) external payable {\r\n        _feesPaid[_msgSender()][networkId] += msg.value;\r\n    }\r\n\r\n    function receiveTokens(address account, uint256 networkId, uint256 amount, uint256 fee) external {\r\n        require(!_avoidReentrancy);\r\n        require(hasRole(BRIDGE, _msgSender()));\r\n        require(_feesPaid[account][networkId] >= fee, \"Schnoodle: Insufficient fee paid\");\r\n\r\n        _avoidReentrancy = true;\r\n        _feesPaid[account][networkId] -= fee;\r\n\r\n        _mint(account, amount);\r\n        _tokensReceived[account][networkId] += amount;\r\n\r\n        _avoidReentrancy = false;\r\n    }\r\n\r\n    function tokensSent(address account, uint256 networkId) external view returns (uint256) {\r\n        return _tokensSent[account][networkId];\r\n    }\r\n\r\n    function tokensReceived(address account, uint256 networkId) external view returns (uint256) {\r\n        return _tokensReceived[account][networkId];\r\n    }\r\n\r\n    function feesPaid(address account, uint256 networkId) external view returns (uint256) {\r\n        return _feesPaid[account][networkId];\r\n    }\r\n\r\n    // Calls to the SchnoodleFarming proxy contract\r\n\r\n    function lockedBalanceOf(address account) private returns(uint256) {\r\n        if (_schnoodleFarming == address(0)) return 0;\r\n        (bool success, bytes memory result) = _schnoodleFarming.call(abi.encodeWithSignature(\"lockedBalanceOf(address)\", account));\r\n        assert(success);\r\n        return abi.decode(result, (uint256));\r\n    }\r\n\r\n    event SowRateChanged(uint256 rate);\r\n}\r\n",
  "sourcePath": "C:\\Users\\micro\\OneDrive - X-treem Software\\Development\\Projects\\Blockchain\\Schnoodle\\contracts\\contracts\\SchnoodleV9.sol",
  "compiler": {
    "name": "solc",
    "version": "0.8.13+commit.abaa5c0e.Emscripten.clang"
  },
  "schemaVersion": "3.4.7",
  "updatedAt": "2022-05-03T21:19:57.519Z",
  "devdoc": {
    "author": "Jason Payne (https://twitter.com/Neo42)",
    "kind": "dev",
    "methods": {
      "allowance(address,address)": {
        "details": "See {IERC20-allowance}. Note that operator and allowance concepts are orthogonal: operators may not have allowance, and accounts with allowance may not be operators themselves."
      },
      "approve(address,uint256)": {
        "details": "See {IERC20-approve}. NOTE: If `value` is the maximum `uint256`, the allowance is not updated on `transferFrom`. This is semantically equivalent to an infinite approval. Note that accounts cannot have allowance issued by their operators."
      },
      "authorizeOperator(address)": {
        "details": "See {IERC777-authorizeOperator}."
      },
      "burn(uint256,bytes)": {
        "details": "See {IERC777-burn}. Also emits a {IERC20-Transfer} event for ERC20 compatibility."
      },
      "decimals()": {
        "details": "See {ERC20-decimals}. Always returns 18, as per the [ERC777 EIP](https://eips.ethereum.org/EIPS/eip-777#backward-compatibility)."
      },
      "defaultOperators()": {
        "details": "See {IERC777-defaultOperators}."
      },
      "getRoleAdmin(bytes32)": {
        "details": "Returns the admin role that controls `role`. See {grantRole} and {revokeRole}. To change a role's admin, use {_setRoleAdmin}."
      },
      "grantRole(bytes32,address)": {
        "details": "Grants `role` to `account`. If `account` had not been already granted `role`, emits a {RoleGranted} event. Requirements: - the caller must have ``role``'s admin role."
      },
      "granularity()": {
        "details": "See {IERC777-granularity}. This implementation always returns `1`."
      },
      "hasRole(bytes32,address)": {
        "details": "Returns `true` if `account` has been granted `role`."
      },
      "isOperatorFor(address,address)": {
        "details": "See {IERC777-isOperatorFor}."
      },
      "name()": {
        "details": "See {IERC777-name}."
      },
      "operatorBurn(address,uint256,bytes,bytes)": {
        "details": "See {IERC777-operatorBurn}. Emits {Burned} and {IERC20-Transfer} events."
      },
      "operatorSend(address,address,uint256,bytes,bytes)": {
        "details": "See {IERC777-operatorSend}. Emits {Sent} and {IERC20-Transfer} events."
      },
      "owner()": {
        "details": "Returns the address of the current owner."
      },
      "renounceOwnership()": {
        "details": "Leaves the contract without owner. It will not be possible to call `onlyOwner` functions anymore. Can only be called by the current owner. NOTE: Renouncing ownership will leave the contract without an owner, thereby removing any functionality that is only available to the owner."
      },
      "renounceRole(bytes32,address)": {
        "details": "Revokes `role` from the calling account. Roles are often managed via {grantRole} and {revokeRole}: this function's purpose is to provide a mechanism for accounts to lose their privileges if they are compromised (such as when a trusted device is misplaced). If the calling account had been revoked `role`, emits a {RoleRevoked} event. Requirements: - the caller must be `account`."
      },
      "revokeOperator(address)": {
        "details": "See {IERC777-revokeOperator}."
      },
      "revokeRole(bytes32,address)": {
        "details": "Revokes `role` from `account`. If `account` had been granted `role`, emits a {RoleRevoked} event. Requirements: - the caller must have ``role``'s admin role."
      },
      "send(address,uint256,bytes)": {
        "details": "See {IERC777-send}. Also emits a {IERC20-Transfer} event for ERC20 compatibility."
      },
      "supportsInterface(bytes4)": {
        "details": "See {IERC165-supportsInterface}."
      },
      "symbol()": {
        "details": "See {IERC777-symbol}."
      },
      "totalSupply()": {
        "details": "See {IERC777-totalSupply}."
      },
      "transfer(address,uint256)": {
        "details": "See {IERC20-transfer}. Unlike `send`, `recipient` is _not_ required to implement the {IERC777Recipient} interface if it is a contract. Also emits a {Sent} event."
      },
      "transferOwnership(address)": {
        "details": "Transfers ownership of the contract to a new account (`newOwner`). Can only be called by the current owner."
      }
    },
    "version": 1
  },
  "userdoc": {
    "kind": "user",
    "methods": {},
    "version": 1
  }
}