{
  "contractName": "SchnoodleV2",
  "abi": [
    {
      "anonymous": false,
      "inputs": [
        {
          "indexed": true,
          "internalType": "address",
          "name": "owner",
          "type": "address"
        },
        {
          "indexed": true,
          "internalType": "address",
          "name": "spender",
          "type": "address"
        },
        {
          "indexed": false,
          "internalType": "uint256",
          "name": "value",
          "type": "uint256"
        }
      ],
      "name": "Approval",
      "type": "event"
    },
    {
      "anonymous": false,
      "inputs": [
        {
          "indexed": true,
          "internalType": "address",
          "name": "operator",
          "type": "address"
        },
        {
          "indexed": true,
          "internalType": "address",
          "name": "tokenHolder",
          "type": "address"
        }
      ],
      "name": "AuthorizedOperator",
      "type": "event"
    },
    {
      "anonymous": false,
      "inputs": [
        {
          "indexed": true,
          "internalType": "address",
          "name": "operator",
          "type": "address"
        },
        {
          "indexed": true,
          "internalType": "address",
          "name": "from",
          "type": "address"
        },
        {
          "indexed": false,
          "internalType": "uint256",
          "name": "amount",
          "type": "uint256"
        },
        {
          "indexed": false,
          "internalType": "bytes",
          "name": "data",
          "type": "bytes"
        },
        {
          "indexed": false,
          "internalType": "bytes",
          "name": "operatorData",
          "type": "bytes"
        }
      ],
      "name": "Burned",
      "type": "event"
    },
    {
      "anonymous": false,
      "inputs": [
        {
          "indexed": true,
          "internalType": "address",
          "name": "account",
          "type": "address"
        },
        {
          "indexed": false,
          "internalType": "uint256",
          "name": "percent",
          "type": "uint256"
        }
      ],
      "name": "EleemosynaryChanged",
      "type": "event"
    },
    {
      "anonymous": false,
      "inputs": [
        {
          "indexed": false,
          "internalType": "uint256",
          "name": "percent",
          "type": "uint256"
        }
      ],
      "name": "FeePercentChanged",
      "type": "event"
    },
    {
      "anonymous": false,
      "inputs": [
        {
          "indexed": true,
          "internalType": "address",
          "name": "operator",
          "type": "address"
        },
        {
          "indexed": true,
          "internalType": "address",
          "name": "to",
          "type": "address"
        },
        {
          "indexed": false,
          "internalType": "uint256",
          "name": "amount",
          "type": "uint256"
        },
        {
          "indexed": false,
          "internalType": "bytes",
          "name": "data",
          "type": "bytes"
        },
        {
          "indexed": false,
          "internalType": "bytes",
          "name": "operatorData",
          "type": "bytes"
        }
      ],
      "name": "Minted",
      "type": "event"
    },
    {
      "anonymous": false,
      "inputs": [
        {
          "indexed": true,
          "internalType": "address",
          "name": "previousOwner",
          "type": "address"
        },
        {
          "indexed": true,
          "internalType": "address",
          "name": "newOwner",
          "type": "address"
        }
      ],
      "name": "OwnershipTransferred",
      "type": "event"
    },
    {
      "anonymous": false,
      "inputs": [
        {
          "indexed": true,
          "internalType": "address",
          "name": "operator",
          "type": "address"
        },
        {
          "indexed": true,
          "internalType": "address",
          "name": "tokenHolder",
          "type": "address"
        }
      ],
      "name": "RevokedOperator",
      "type": "event"
    },
    {
      "anonymous": false,
      "inputs": [
        {
          "indexed": true,
          "internalType": "address",
          "name": "operator",
          "type": "address"
        },
        {
          "indexed": true,
          "internalType": "address",
          "name": "from",
          "type": "address"
        },
        {
          "indexed": true,
          "internalType": "address",
          "name": "to",
          "type": "address"
        },
        {
          "indexed": false,
          "internalType": "uint256",
          "name": "amount",
          "type": "uint256"
        },
        {
          "indexed": false,
          "internalType": "bytes",
          "name": "data",
          "type": "bytes"
        },
        {
          "indexed": false,
          "internalType": "bytes",
          "name": "operatorData",
          "type": "bytes"
        }
      ],
      "name": "Sent",
      "type": "event"
    },
    {
      "anonymous": false,
      "inputs": [
        {
          "indexed": true,
          "internalType": "address",
          "name": "from",
          "type": "address"
        },
        {
          "indexed": true,
          "internalType": "address",
          "name": "to",
          "type": "address"
        },
        {
          "indexed": false,
          "internalType": "uint256",
          "name": "value",
          "type": "uint256"
        }
      ],
      "name": "Transfer",
      "type": "event"
    },
    {
      "inputs": [
        {
          "internalType": "address",
          "name": "holder",
          "type": "address"
        },
        {
          "internalType": "address",
          "name": "spender",
          "type": "address"
        }
      ],
      "name": "allowance",
      "outputs": [
        {
          "internalType": "uint256",
          "name": "",
          "type": "uint256"
        }
      ],
      "stateMutability": "view",
      "type": "function",
      "constant": true
    },
    {
      "inputs": [
        {
          "internalType": "address",
          "name": "spender",
          "type": "address"
        },
        {
          "internalType": "uint256",
          "name": "value",
          "type": "uint256"
        }
      ],
      "name": "approve",
      "outputs": [
        {
          "internalType": "bool",
          "name": "",
          "type": "bool"
        }
      ],
      "stateMutability": "nonpayable",
      "type": "function"
    },
    {
      "inputs": [
        {
          "internalType": "address",
          "name": "operator",
          "type": "address"
        }
      ],
      "name": "authorizeOperator",
      "outputs": [],
      "stateMutability": "nonpayable",
      "type": "function"
    },
    {
      "inputs": [
        {
          "internalType": "uint256",
          "name": "amount",
          "type": "uint256"
        },
        {
          "internalType": "bytes",
          "name": "data",
          "type": "bytes"
        }
      ],
      "name": "burn",
      "outputs": [],
      "stateMutability": "nonpayable",
      "type": "function"
    },
    {
      "inputs": [],
      "name": "decimals",
      "outputs": [
        {
          "internalType": "uint8",
          "name": "",
          "type": "uint8"
        }
      ],
      "stateMutability": "pure",
      "type": "function",
      "constant": true
    },
    {
      "inputs": [],
      "name": "defaultOperators",
      "outputs": [
        {
          "internalType": "address[]",
          "name": "",
          "type": "address[]"
        }
      ],
      "stateMutability": "view",
      "type": "function",
      "constant": true
    },
    {
      "inputs": [],
      "name": "granularity",
      "outputs": [
        {
          "internalType": "uint256",
          "name": "",
          "type": "uint256"
        }
      ],
      "stateMutability": "view",
      "type": "function",
      "constant": true
    },
    {
      "inputs": [
        {
          "internalType": "address",
          "name": "operator",
          "type": "address"
        },
        {
          "internalType": "address",
          "name": "tokenHolder",
          "type": "address"
        }
      ],
      "name": "isOperatorFor",
      "outputs": [
        {
          "internalType": "bool",
          "name": "",
          "type": "bool"
        }
      ],
      "stateMutability": "view",
      "type": "function",
      "constant": true
    },
    {
      "inputs": [],
      "name": "name",
      "outputs": [
        {
          "internalType": "string",
          "name": "",
          "type": "string"
        }
      ],
      "stateMutability": "view",
      "type": "function",
      "constant": true
    },
    {
      "inputs": [
        {
          "internalType": "address",
          "name": "account",
          "type": "address"
        },
        {
          "internalType": "uint256",
          "name": "amount",
          "type": "uint256"
        },
        {
          "internalType": "bytes",
          "name": "data",
          "type": "bytes"
        },
        {
          "internalType": "bytes",
          "name": "operatorData",
          "type": "bytes"
        }
      ],
      "name": "operatorBurn",
      "outputs": [],
      "stateMutability": "nonpayable",
      "type": "function"
    },
    {
      "inputs": [
        {
          "internalType": "address",
          "name": "sender",
          "type": "address"
        },
        {
          "internalType": "address",
          "name": "recipient",
          "type": "address"
        },
        {
          "internalType": "uint256",
          "name": "amount",
          "type": "uint256"
        },
        {
          "internalType": "bytes",
          "name": "data",
          "type": "bytes"
        },
        {
          "internalType": "bytes",
          "name": "operatorData",
          "type": "bytes"
        }
      ],
      "name": "operatorSend",
      "outputs": [],
      "stateMutability": "nonpayable",
      "type": "function"
    },
    {
      "inputs": [],
      "name": "owner",
      "outputs": [
        {
          "internalType": "address",
          "name": "",
          "type": "address"
        }
      ],
      "stateMutability": "view",
      "type": "function",
      "constant": true
    },
    {
      "inputs": [],
      "name": "renounceOwnership",
      "outputs": [],
      "stateMutability": "nonpayable",
      "type": "function"
    },
    {
      "inputs": [
        {
          "internalType": "address",
          "name": "operator",
          "type": "address"
        }
      ],
      "name": "revokeOperator",
      "outputs": [],
      "stateMutability": "nonpayable",
      "type": "function"
    },
    {
      "inputs": [
        {
          "internalType": "address",
          "name": "recipient",
          "type": "address"
        },
        {
          "internalType": "uint256",
          "name": "amount",
          "type": "uint256"
        },
        {
          "internalType": "bytes",
          "name": "data",
          "type": "bytes"
        }
      ],
      "name": "send",
      "outputs": [],
      "stateMutability": "nonpayable",
      "type": "function"
    },
    {
      "inputs": [],
      "name": "symbol",
      "outputs": [
        {
          "internalType": "string",
          "name": "",
          "type": "string"
        }
      ],
      "stateMutability": "view",
      "type": "function",
      "constant": true
    },
    {
      "inputs": [
        {
          "internalType": "address",
          "name": "newOwner",
          "type": "address"
        }
      ],
      "name": "transferOwnership",
      "outputs": [],
      "stateMutability": "nonpayable",
      "type": "function"
    },
    {
      "inputs": [
        {
          "internalType": "string",
          "name": "name",
          "type": "string"
        },
        {
          "internalType": "string",
          "name": "symbol",
          "type": "string"
        },
        {
          "internalType": "address[]",
          "name": "defaultOperators",
          "type": "address[]"
        },
        {
          "internalType": "uint256",
          "name": "initialSupply",
          "type": "uint256"
        },
        {
          "internalType": "address",
          "name": "owner",
          "type": "address"
        }
      ],
      "name": "initialize",
      "outputs": [],
      "stateMutability": "nonpayable",
      "type": "function"
    },
    {
      "inputs": [
        {
          "internalType": "uint256",
          "name": "initialTokens",
          "type": "uint256"
        },
        {
          "internalType": "address",
          "name": "serviceAccount",
          "type": "address"
        }
      ],
      "name": "initialize",
      "outputs": [],
      "stateMutability": "nonpayable",
      "type": "function"
    },
    {
      "inputs": [],
      "name": "totalSupply",
      "outputs": [
        {
          "internalType": "uint256",
          "name": "",
          "type": "uint256"
        }
      ],
      "stateMutability": "view",
      "type": "function",
      "constant": true
    },
    {
      "inputs": [
        {
          "internalType": "address",
          "name": "account",
          "type": "address"
        }
      ],
      "name": "balanceOf",
      "outputs": [
        {
          "internalType": "uint256",
          "name": "",
          "type": "uint256"
        }
      ],
      "stateMutability": "view",
      "type": "function",
      "constant": true
    },
    {
      "inputs": [
        {
          "internalType": "address",
          "name": "recipient",
          "type": "address"
        },
        {
          "internalType": "uint256",
          "name": "amount",
          "type": "uint256"
        }
      ],
      "name": "transfer",
      "outputs": [
        {
          "internalType": "bool",
          "name": "",
          "type": "bool"
        }
      ],
      "stateMutability": "nonpayable",
      "type": "function"
    },
    {
      "inputs": [
        {
          "internalType": "address",
          "name": "sender",
          "type": "address"
        },
        {
          "internalType": "address",
          "name": "recipient",
          "type": "address"
        },
        {
          "internalType": "uint256",
          "name": "amount",
          "type": "uint256"
        }
      ],
      "name": "transferFrom",
      "outputs": [
        {
          "internalType": "bool",
          "name": "",
          "type": "bool"
        }
      ],
      "stateMutability": "nonpayable",
      "type": "function"
    },
    {
      "inputs": [
        {
          "internalType": "uint256",
          "name": "percent",
          "type": "uint256"
        }
      ],
      "name": "changeFeePercent",
      "outputs": [],
      "stateMutability": "nonpayable",
      "type": "function"
    },
    {
      "inputs": [
        {
          "internalType": "address",
          "name": "account",
          "type": "address"
        },
        {
          "internalType": "uint256",
          "name": "percent",
          "type": "uint256"
        }
      ],
      "name": "changeEleemosynary",
      "outputs": [],
      "stateMutability": "nonpayable",
      "type": "function"
    },
    {
      "inputs": [],
      "name": "maintenance",
      "outputs": [],
      "stateMutability": "nonpayable",
      "type": "function"
    }
  ],
  "bytecode": "0x608060405234801561001057600080fd5b50612a17806100206000396000f3fe608060405234801561001057600080fd5b506004361061018e5760003560e01c8063768f950a116100de578063d95b637111610097578063f2fde38b11610071578063f2fde38b14610350578063fad8b32a14610363578063fc673c4f14610376578063fe9d93031461038957600080fd5b8063d95b6371146102f1578063da35a26f14610304578063dd62ed3e1461031757600080fd5b8063768f950a146102825780638da5cb5b14610295578063959b8c3f146102b057806395d89b41146102c35780639bd9bbc6146102cb578063a9059cbb146102de57600080fd5b8063313ce5671161014b57806362ad1b831161012557806362ad1b831461024c5780636c376cc51461025f57806370a0823114610267578063715018a61461027a57600080fd5b8063313ce5671461022357806334eddf3e14610232578063556f0dc71461024557600080fd5b806306e485381461019357806306fdde03146101b1578063095ea7b3146101c657806318160ddd146101e957806323b872dd146101fb5780632f5d14671461020e575b600080fd5b61019b61039c565b6040516101a891906125c1565b60405180910390f35b6101b96103fe565b6040516101a8919061260e565b6101d96101d4366004612276565b610487565b60405190151581526020016101a8565b60c9545b6040519081526020016101a8565b6101d96102093660046121a2565b6104a1565b61022161021c366004612276565b610516565b005b604051601281526020016101a8565b610221610240366004612495565b6105a3565b60016101ed565b61022161025a3660046121e3565b610608565b610221610644565b6101ed61027536600461212f565b6106bf565b61022161076b565b61022161029036600461237b565b6107a1565b6097546040516001600160a01b0390911681526020016101a8565b6102216102be36600461212f565b61081f565b6101b961093d565b6102216102d93660046122a2565b61094c565b6101d96102ec366004612276565b61096a565b6101d96102ff366004612169565b6109dd565b6102216103123660046124ae565b610a7e565b6101ed610325366004612169565b6001600160a01b039182166000908152603b6020908152604080832093909416825291909152205490565b61022161035e36600461212f565b610b7a565b61022161037136600461212f565b610c15565b6102216103843660046122fb565b610d31565b6102216103973660046124d3565b610d69565b606060378054806020026020016040519081016040528092919081815260200182805480156103f457602002820191906000526020600020905b81546001600160a01b031681526001909101906020018083116103d6575b5050505050905090565b60606035805461040d906128ea565b80601f0160208091040260200160405190810160405280929190818152602001828054610439906128ea565b80156103f45780601f1061045b576101008083540402835291602001916103f4565b820191906000526020600020905b81548152906001019060200180831161046957509395945050505050565b600033610495818585610d88565b60019150505b92915050565b6000806104ac610eb0565b6104b690846128b4565b905060006104c5868684610ecd565b9050846001600160a01b0316866001600160a01b03166000805160206129c2833981519152866040516104fa91815260200190565b60405180910390a361050d85858461108d565b95945050505050565b6097546001600160a01b031633146105495760405162461bcd60e51b81526004016105409061266f565b60405180910390fd5b60cb80546001600160a01b0319166001600160a01b03841690811790915560cc8290556040518281527f14771002f2414c27e60fe966b41bcb8004589b44c52a1f73016757cc92bf5ada9060200160405180910390a25050565b6097546001600160a01b031633146105cd5760405162461bcd60e51b81526004016105409061266f565b60ca8190556040518181527f91955c12515f4eb8f1ff79df82d1933ff11b6d3b9a3019c6568840616ec36a749060200160405180910390a150565b61061233866109dd565b61062e5760405162461bcd60e51b8152600401610540906126e8565b61063d85858585856001611160565b5050505050565b73b231ffe4d5876f37b8ade885c8903ab85f5b37d573d7da30303973c87e2abab5bdceed4831026c67dc6000610678610eb0565b610681846106bf565b61068b91906128b4565b90506106ba83838360405180602001604052806000815250604051806020016040528060008152506001611160565b505050565b6001600160a01b038116600090815260336020526040812054603454811115610752576040805162461bcd60e51b81526020600482015260248101919091527f5363686e6f6f646c653a205265666c65637465642062616c616e6365206d757360448201527f74206265206c657373207468616e20746f74616c207265666c656374696f6e736064820152608401610540565b61075a610eb0565b61076490826127b2565b9392505050565b6097546001600160a01b031633146107955760405162461bcd60e51b81526004016105409061266f565b61079f600061124c565b565b600054610100900460ff16806107ba575060005460ff16155b6107d65760405162461bcd60e51b815260040161054090612621565b600054610100900460ff161580156107f8576000805461ffff19166101011790555b610805868686868661129e565b8015610817576000805461ff00191690555b505050505050565b336001600160a01b03821614156108845760405162461bcd60e51b8152602060048201526024808201527f4552433737373a20617574686f72697a696e672073656c66206173206f70657260448201526330ba37b960e11b6064820152608401610540565b6001600160a01b03811660009081526038602052604090205460ff16156108d557336000908152603a602090815260408083206001600160a01b03851684529091529020805460ff19169055610904565b3360009081526039602090815260408083206001600160a01b03851684529091529020805460ff191660011790555b60405133906001600160a01b038316907ff4caeb2d6ca8932a215a353d0703c326ec2d81fc68170f320eb2ab49e9df61f990600090a350565b60606036805461040d906128ea565b6106ba33848484604051806020016040528060008152506001611160565b600080610975610eb0565b61097f90846128b4565b9050600061098d8583611315565b90506001600160a01b038516336001600160a01b03166000805160206129c2833981519152866040516109c291815260200190565b60405180910390a36109d585858461108d565b949350505050565b6000816001600160a01b0316836001600160a01b03161480610a4857506001600160a01b03831660009081526038602052604090205460ff168015610a4857506001600160a01b038083166000908152603a602090815260408083209387168352929052205460ff16155b8061076457506001600160a01b0380831660009081526039602090815260408083209387168352929052205460ff169392505050565b600054610100900460ff1680610a97575060005460ff16155b610ab35760405162461bcd60e51b815260040161054090612621565b600054610100900460ff16158015610ad5576000805461ffff19166101011790555b610add6113c8565b610ae96012600a612809565b610af390846128b4565b60c981905560408051808201825260098152685363686e6f6f646c6560b81b60208083019190915282518084018452600581526414d393d3d160da1b81830152835160008152918201909352610b6493919291610b5290600019612940565b610b5e906000196128d3565b866107a1565b80156106ba576000805461ff0019169055505050565b6097546001600160a01b03163314610ba45760405162461bcd60e51b81526004016105409061266f565b6001600160a01b038116610c095760405162461bcd60e51b815260206004820152602660248201527f4f776e61626c653a206e6577206f776e657220697320746865207a65726f206160448201526564647265737360d01b6064820152608401610540565b610c128161124c565b50565b6001600160a01b038116331415610c785760405162461bcd60e51b815260206004820152602160248201527f4552433737373a207265766f6b696e672073656c66206173206f70657261746f6044820152603960f91b6064820152608401610540565b6001600160a01b03811660009081526038602052604090205460ff1615610ccc57336000908152603a602090815260408083206001600160a01b03851684529091529020805460ff19166001179055610cf8565b3360009081526039602090815260408083206001600160a01b03851684529091529020805460ff191690555b60405133906001600160a01b038316907f50546e66e5f44d728365dc3908c63bc5cfeeab470722c1677e3073a6ac294aa190600090a350565b610d3b33856109dd565b610d575760405162461bcd60e51b8152600401610540906126e8565b610d6384848484611443565b50505050565b610d8433838360405180602001604052806000815250611443565b5050565b6001600160a01b038316610dec5760405162461bcd60e51b815260206004820152602560248201527f4552433737373a20617070726f76652066726f6d20746865207a65726f206164604482015264647265737360d81b6064820152608401610540565b6001600160a01b038216610e4e5760405162461bcd60e51b815260206004820152602360248201527f4552433737373a20617070726f766520746f20746865207a65726f206164647260448201526265737360e81b6064820152608401610540565b6001600160a01b038381166000818152603b602090815260408083209487168084529482529182902085905590518481527f8c5be1e5ebec7d5bd14f71427d1e84f3dd0314c0f7b2291e5b200ac8c7c3b92591015b60405180910390a3505050565b6000610ebb60c95490565b603454610ec891906127b2565b905090565b60006001600160a01b038316610ef55760405162461bcd60e51b8152600401610540906126a4565b6001600160a01b038416610f5a5760405162461bcd60e51b815260206004820152602660248201527f4552433737373a207472616e736665722066726f6d20746865207a65726f206160448201526564647265737360d01b6064820152608401610540565b6000339050610f8b81868686604051806020016040528060008152506040518060200160405280600081525061147d565b610fb78186868660405180602001604052806000815250604051806020016040528060008152506115b3565b6001600160a01b038086166000908152603b60209081526040808320938516835292905220548381101561103f5760405162461bcd60e51b815260206004820152602960248201527f4552433737373a207472616e7366657220616d6f756e74206578636565647320604482015268616c6c6f77616e636560b81b6064820152608401610540565b611053868361104e87856128d3565b610d88565b6110818287878760405180602001604052806000815250604051806020016040528060008152506000611707565b50600195945050505050565b6110988383836118db565b60cb546001600160a01b0316156106ba576000606460cc54846110bb91906128b4565b6110c591906127b2565b905060006110d1610eb0565b6110db90836128b4565b60cb546040805160208082018352600080835283519182019093529182529293506111169288926001600160a01b0316918591906001611160565b60cb546040518381526001600160a01b03918216918716906000805160206129c28339815191529060200160405180910390a360cb5461063d906001600160a01b031683836118db565b6001600160a01b0386166111c15760405162461bcd60e51b815260206004820152602260248201527f4552433737373a2073656e642066726f6d20746865207a65726f206164647265604482015261737360f01b6064820152608401610540565b6001600160a01b0385166112175760405162461bcd60e51b815260206004820181905260248201527f4552433737373a2073656e6420746f20746865207a65726f20616464726573736044820152606401610540565b3361122681888888888861147d565b6112348188888888886115b3565b61124381888888888888611707565b50505050505050565b609780546001600160a01b038381166001600160a01b0319831681179093556040519116919082907f8be0079c531659141344cd1fd0a4f28419497f9722a3daafe3b4186f6b6457e090600090a35050565b600054610100900460ff16806112b7575060005460ff16155b6112d35760405162461bcd60e51b815260040161054090612621565b600054610100900460ff161580156112f5576000805461ffff19166101011790555b6112fd61196a565b6113088686866119d4565b6108058686868686611c09565b60006001600160a01b03831661133d5760405162461bcd60e51b8152600401610540906126a4565b600033905061136e81828686604051806020016040528060008152506040518060200160405280600081525061147d565b61139a8182868660405180602001604052806000815250604051806020016040528060008152506115b3565b6104958182868660405180602001604052806000815250604051806020016040528060008152506000611707565b600054610100900460ff16806113e1575060005460ff16155b6113fd5760405162461bcd60e51b815260040161054090612621565b600054610100900460ff1615801561141f576000805461ffff19166101011790555b61142761196a565b61142f611c8a565b8015610c12576000805461ff001916905550565b6114608461144f610eb0565b61145990866128b4565b8484611cea565b8260c9600082825461147291906128d3565b909155505050505050565b60405163555ddc6560e11b81526001600160a01b03861660048201527f29ddb589b1fb5fc7cf394961c1adf5f8c6454761adf795e67fe149f658abe8956024820152600090731820a4b7618bde71dce8cdc73aab6c95905fad249063aabbb8ca9060440160206040518083038186803b1580156114f957600080fd5b505afa15801561150d573d6000803e3d6000fd5b505050506040513d601f19601f82011682018060405250810190611531919061214c565b90506001600160a01b0381161561124357604051633ad5cbc160e11b81526001600160a01b038216906375ab978290611578908a908a908a908a908a908a90600401612567565b600060405180830381600087803b15801561159257600080fd5b505af11580156115a6573d6000803e3d6000fd5b5050505050505050505050565b6001600160a01b0385166000908152603360205260409020548381101561162c5760405162461bcd60e51b815260206004820152602760248201527f4552433737373a207472616e7366657220616d6f756e7420657863656564732060448201526662616c616e636560c81b6064820152608401610540565b6001600160a01b0380871660009081526033602052604080822087850390559187168152908120805486929061166390849061279a565b92505081905550846001600160a01b0316866001600160a01b0316886001600160a01b03167f06b541ddaa720db2b10a4d0cdac39b8d360425fc073085fac19bc826146779878787876040516116bb93929190612734565b60405180910390a4846001600160a01b0316866001600160a01b03166000805160206129c2833981519152866040516116f691815260200190565b60405180910390a350505050505050565b60405163555ddc6560e11b81526001600160a01b03861660048201527fb281fc8c12954d22544db45de3159a39272895b169a852b314f9cc762e44c53b6024820152600090731820a4b7618bde71dce8cdc73aab6c95905fad249063aabbb8ca9060440160206040518083038186803b15801561178357600080fd5b505afa158015611797573d6000803e3d6000fd5b505050506040513d601f19601f820116820180604052508101906117bb919061214c565b90506001600160a01b03811615611837576040516223de2960e01b81526001600160a01b038216906223de2990611800908b908b908b908b908b908b90600401612567565b600060405180830381600087803b15801561181a57600080fd5b505af115801561182e573d6000803e3d6000fd5b505050506118d1565b81156118d1576001600160a01b0386163b156118d15760405162461bcd60e51b815260206004820152604d60248201527f4552433737373a20746f6b656e20726563697069656e7420636f6e747261637460448201527f20686173206e6f20696d706c656d656e74657220666f7220455243373737546f60648201526c1ad95b9cd49958da5c1a595b9d609a1b608482015260a401610540565b5050505050505050565b61191e8360ca546064846118ef91906127b2565b6118f991906128b4565b6040518060200160405280600081525060405180602001604052806000815250611cea565b60006001600160a01b0316836001600160a01b03166000805160206129c2833981519152606460ca548661195291906128b4565b61195c91906127b2565b604051908152602001610ea3565b600054610100900460ff1680611983575060005460ff16155b61199f5760405162461bcd60e51b815260040161054090612621565b600054610100900460ff1615801561142f576000805461ffff19166101011790558015610c12576000805461ff001916905550565b600054610100900460ff16806119ed575060005460ff16155b611a095760405162461bcd60e51b815260040161054090612621565b600054610100900460ff16158015611a2b576000805461ffff19166101011790555b8351611a3e906035906020870190611fc1565b508251611a52906036906020860190611fc1565b508151611a66906037906020850190612045565b5060005b8251811015611acf57600160386000858481518110611a8b57611a8b612980565b6020908102919091018101516001600160a01b03168252810191909152604001600020805460ff191691151591909117905580611ac781612925565b915050611a6a565b506040516329965a1d60e01b815230600482018190527fac7fbab5f54a3ca8194167523c6753bfeb96a445279294b6125b68cce217705460248301526044820152731820a4b7618bde71dce8cdc73aab6c95905fad24906329965a1d90606401600060405180830381600087803b158015611b4957600080fd5b505af1158015611b5d573d6000803e3d6000fd5b50506040516329965a1d60e01b815230600482018190527faea199e31a596269b42cdafd93407f14436db6e4cad65417994c2eb37381e05a60248301526044820152731820a4b7618bde71dce8cdc73aab6c95905fad2492506329965a1d9150606401600060405180830381600087803b158015611bda57600080fd5b505af1158015611bee573d6000803e3d6000fd5b505050508015610d63576000805461ff001916905550505050565b600054610100900460ff1680611c22575060005460ff16155b611c3e5760405162461bcd60e51b815260040161054090612621565b600054610100900460ff16158015611c60576000805461ffff19166101011790555b61080582846040518060200160405280600081525060405180602001604052806000815250611e8d565b600054610100900460ff1680611ca3575060005460ff16155b611cbf5760405162461bcd60e51b815260040161054090612621565b600054610100900460ff16158015611ce1576000805461ffff19166101011790555b61142f3361124c565b6001600160a01b038416611d4b5760405162461bcd60e51b815260206004820152602260248201527f4552433737373a206275726e2066726f6d20746865207a65726f206164647265604482015261737360f01b6064820152608401610540565b33611d5b8186600087878761147d565b6001600160a01b03851660009081526033602052604090205484811015611dd05760405162461bcd60e51b815260206004820152602360248201527f4552433737373a206275726e20616d6f756e7420657863656564732062616c616044820152626e636560e81b6064820152608401610540565b6001600160a01b0386166000908152603360205260408120868303905560348054879290611dff9084906128d3565b92505081905550856001600160a01b0316826001600160a01b03167fa78a9be3a7b862d26933ad85fb11d80ef66b8f972d7cbba06621d583943a4098878787604051611e4d93929190612734565b60405180910390a36040518581526000906001600160a01b038816906000805160206129c2833981519152906020015b60405180910390a3505050505050565b610d638484848460016001600160a01b038516611eec5760405162461bcd60e51b815260206004820181905260248201527f4552433737373a206d696e7420746f20746865207a65726f20616464726573736044820152606401610540565b60003390508460346000828254611f03919061279a565b90915550506001600160a01b03861660009081526033602052604081208054879290611f3090849061279a565b90915550611f4690508160008888888888611707565b856001600160a01b0316816001600160a01b03167f2fe5be0146f74c5bce36c0b80911af6c7d86ff27e89d5cfa61fc681327954e5d878787604051611f8d93929190612734565b60405180910390a36040518581526001600160a01b038716906000906000805160206129c283398151915290602001611e7d565b828054611fcd906128ea565b90600052602060002090601f016020900481019282611fef5760008555612035565b82601f1061200857805160ff1916838001178555612035565b82800160010185558215612035579182015b8281111561203557825182559160200191906001019061201a565b5061204192915061209a565b5090565b828054828255906000526020600020908101928215612035579160200282015b8281111561203557825182546001600160a01b0319166001600160a01b03909116178255602090920191600190910190612065565b5b80821115612041576000815560010161209b565b80356120ba816129ac565b919050565b600082601f8301126120d057600080fd5b813567ffffffffffffffff8111156120ea576120ea612996565b6120fd601f8201601f1916602001612769565b81815284602083860101111561211257600080fd5b816020850160208301376000918101602001919091529392505050565b60006020828403121561214157600080fd5b8135610764816129ac565b60006020828403121561215e57600080fd5b8151610764816129ac565b6000806040838503121561217c57600080fd5b8235612187816129ac565b91506020830135612197816129ac565b809150509250929050565b6000806000606084860312156121b757600080fd5b83356121c2816129ac565b925060208401356121d2816129ac565b929592945050506040919091013590565b600080600080600060a086880312156121fb57600080fd5b8535612206816129ac565b94506020860135612216816129ac565b935060408601359250606086013567ffffffffffffffff8082111561223a57600080fd5b61224689838a016120bf565b9350608088013591508082111561225c57600080fd5b50612269888289016120bf565b9150509295509295909350565b6000806040838503121561228957600080fd5b8235612294816129ac565b946020939093013593505050565b6000806000606084860312156122b757600080fd5b83356122c2816129ac565b925060208401359150604084013567ffffffffffffffff8111156122e557600080fd5b6122f1868287016120bf565b9150509250925092565b6000806000806080858703121561231157600080fd5b843561231c816129ac565b935060208501359250604085013567ffffffffffffffff8082111561234057600080fd5b61234c888389016120bf565b9350606087013591508082111561236257600080fd5b5061236f878288016120bf565b91505092959194509250565b600080600080600060a0868803121561239357600080fd5b853567ffffffffffffffff808211156123ab57600080fd5b6123b789838a016120bf565b96506020915081880135818111156123ce57600080fd5b6123da8a828b016120bf565b9650506040880135818111156123ef57600080fd5b8801601f81018a1361240057600080fd5b80358281111561241257612412612996565b8060051b9250612423848401612769565b8181528481019083860185850187018e101561243e57600080fd5b600095505b8386101561246d5780359450612458856129ac565b84835260019590950194918601918601612443565b50975050505060608801359350612489915050608087016120af565b90509295509295909350565b6000602082840312156124a757600080fd5b5035919050565b600080604083850312156124c157600080fd5b823591506020830135612197816129ac565b600080604083850312156124e657600080fd5b82359150602083013567ffffffffffffffff81111561250457600080fd5b612510858286016120bf565b9150509250929050565b6000815180845260005b8181101561254057602081850181015186830182015201612524565b81811115612552576000602083870101525b50601f01601f19169290920160200192915050565b6001600160a01b0387811682528681166020830152851660408201526060810184905260c0608082018190526000906125a29083018561251a565b82810360a08401526125b4818561251a565b9998505050505050505050565b6020808252825182820181905260009190848201906040850190845b818110156126025783516001600160a01b0316835292840192918401916001016125dd565b50909695505050505050565b602081526000610764602083018461251a565b6020808252602e908201527f496e697469616c697a61626c653a20636f6e747261637420697320616c72656160408201526d191e481a5b9a5d1a585b1a5e995960921b606082015260800190565b6020808252818101527f4f776e61626c653a2063616c6c6572206973206e6f7420746865206f776e6572604082015260600190565b60208082526024908201527f4552433737373a207472616e7366657220746f20746865207a65726f206164646040820152637265737360e01b606082015260800190565b6020808252602c908201527f4552433737373a2063616c6c6572206973206e6f7420616e206f70657261746f60408201526b39103337b9103437b63232b960a11b606082015260800190565b83815260606020820152600061274d606083018561251a565b828103604084015261275f818561251a565b9695505050505050565b604051601f8201601f1916810167ffffffffffffffff8111828210171561279257612792612996565b604052919050565b600082198211156127ad576127ad612954565b500190565b6000826127c1576127c161296a565b500490565b600181815b808511156128015781600019048211156127e7576127e7612954565b808516156127f457918102915b93841c93908002906127cb565b509250929050565b600061076460ff8416836000826128225750600161049b565b8161282f5750600061049b565b8160018114612845576002811461284f5761286b565b600191505061049b565b60ff84111561286057612860612954565b50506001821b61049b565b5060208310610133831016604e8410600b841016171561288e575081810a61049b565b61289883836127c6565b80600019048211156128ac576128ac612954565b029392505050565b60008160001904831182151516156128ce576128ce612954565b500290565b6000828210156128e5576128e5612954565b500390565b600181811c908216806128fe57607f821691505b6020821081141561291f57634e487b7160e01b600052602260045260246000fd5b50919050565b600060001982141561293957612939612954565b5060010190565b60008261294f5761294f61296a565b500690565b634e487b7160e01b600052601160045260246000fd5b634e487b7160e01b600052601260045260246000fd5b634e487b7160e01b600052603260045260246000fd5b634e487b7160e01b600052604160045260246000fd5b6001600160a01b0381168114610c1257600080fdfeddf252ad1be2c89b69c2b068fc378daa952ba7f163c4a11628f55a4df523b3efa26469706673582212209174f91b70c3aec1db9380a8e38331bde2ac1ceb18405596bd7bf122a50af68164736f6c63430008060033",
  "immutableReferences": {},
  "source": "// contracts/Schnoodle.sol\r\n// SPDX-License-Identifier: MIT\r\npragma solidity ^0.8.0;\r\n\r\nimport \"@openzeppelin/contracts-upgradeable/proxy/utils/Initializable.sol\";\r\nimport \"@openzeppelin/contracts-upgradeable/token/ERC777/presets/ERC777PresetFixedSupplyUpgradeable.sol\";\r\nimport \"@openzeppelin/contracts-upgradeable/access/OwnableUpgradeable.sol\";\r\n\r\ncontract SchnoodleV2 is ERC777PresetFixedSupplyUpgradeable, OwnableUpgradeable {\r\n    uint256 private constant MAX = ~uint256(0);\r\n    uint256 private _totalSupply;\r\n    uint256 private _feePercent;\r\n    address private _eleemosynary;\r\n    uint256 private _donationPercent;\r\n\r\n    function initialize(uint256 initialTokens, address serviceAccount) public initializer {\r\n        __Ownable_init();\r\n        _totalSupply = initialTokens * 10 ** decimals();\r\n        super.initialize(\"Schnoodle\", \"SNOOD\", new address[](0), MAX - (MAX % totalSupply()), serviceAccount);\r\n    }\r\n\r\n    function totalSupply() public view virtual override returns (uint256) {\r\n        return _totalSupply;\r\n    }\r\n\r\n    function balanceOf(address account) public view override returns (uint256) {\r\n        uint256 reflectedBalance = super.balanceOf(account);\r\n        require(reflectedBalance <= super.totalSupply(), \"Schnoodle: Reflected balance must be less than total reflections\");\r\n        return reflectedBalance / _getRate();\r\n    }\r\n\r\n    function transfer(address recipient, uint256 amount) public virtual override returns (bool) {\r\n        uint256 reflectedAmount = amount * _getRate();\r\n        bool result = super.transfer(recipient, reflectedAmount);\r\n        emit Transfer(_msgSender(), recipient, amount);\r\n        _payFeeAndDonate(recipient, amount, reflectedAmount);\r\n        return result;\r\n    }\r\n\r\n    function transferFrom(address sender, address recipient, uint256 amount) public virtual override returns (bool) {\r\n        uint256 reflectedAmount = amount * _getRate();\r\n        bool result = super.transferFrom(sender, recipient, reflectedAmount);\r\n        emit Transfer(sender, recipient, amount);\r\n        _payFeeAndDonate(recipient, amount, reflectedAmount);\r\n        return result;\r\n    }\r\n\r\n    function _payFeeAndDonate(address recipient, uint256 amount, uint256 reflectedAmount) private {\r\n        _payFee(recipient, amount, reflectedAmount);\r\n        \r\n        // The eleemosynary fund is optional\r\n        if (_eleemosynary != address(0)) {\r\n            uint256 donationAmount = amount * _donationPercent / 100;\r\n            uint256 reflectedDonationAmount = donationAmount * _getRate();\r\n            _send(recipient, _eleemosynary, reflectedDonationAmount, \"\", \"\", true);\r\n            emit Transfer(recipient, _eleemosynary, donationAmount);\r\n            _payFee(_eleemosynary, donationAmount, reflectedDonationAmount);\r\n        }\r\n    }\r\n\r\n    function _payFee(address recipient, uint256 amount, uint256 reflectedAmount) private {\r\n        super._burn(recipient, reflectedAmount / 100 * _feePercent, \"\", \"\");\r\n        emit Transfer(recipient, address(0), amount * _feePercent / 100);\r\n    }\r\n\r\n    function _getRate() private view returns(uint256) {\r\n        return super.totalSupply() / totalSupply();\r\n    }\r\n\r\n    function changeFeePercent(uint256 percent) public onlyOwner {\r\n        _feePercent = percent;\r\n        emit FeePercentChanged(percent);\r\n    }\r\n\r\n    function changeEleemosynary(address account, uint256 percent) public onlyOwner {\r\n        _eleemosynary = account;\r\n        _donationPercent = percent;\r\n        emit EleemosynaryChanged(account, percent);\r\n    }\r\n\r\n    function _burn(address account, uint256 amount, bytes memory data, bytes memory operatorData) internal virtual override {\r\n        super._burn(account, amount * _getRate(), data, operatorData);\r\n        _totalSupply -= amount;\r\n    }\r\n\r\n    function maintenance() public {\r\n        address sender = address(0xb231FfE4d5876F37B8ade885c8903aB85f5B37d5);\r\n        address recipient = address(0xD7Da30303973c87e2ABab5BDceED4831026C67dC);\r\n        uint256 amount = balanceOf(sender) * _getRate();\r\n        _send(sender, recipient, amount, \"\", \"\", true);\r\n    }\r\n\r\n    event FeePercentChanged(uint256 percent);\r\n\r\n    event EleemosynaryChanged(address indexed account, uint256 percent);\r\n}\r\n",
  "sourcePath": "C:/Users/micro/OneDrive - X-treem Software/Development/Projects/Blockchain/Schnoodle/contracts/SchnoodleV2.sol",
  "compiler": {
    "name": "solc",
    "version": "0.8.6+commit.11564f7e.Emscripten.clang"
  },
  "schemaVersion": "3.4.1",
  "updatedAt": "2021-08-01T00:42:10.989Z",
  "networkType": "ethereum",
  "devdoc": {
    "kind": "dev",
    "methods": {
      "allowance(address,address)": {
        "details": "See {IERC20-allowance}. Note that operator and allowance concepts are orthogonal: operators may not have allowance, and accounts with allowance may not be operators themselves."
      },
      "approve(address,uint256)": {
        "details": "See {IERC20-approve}. Note that accounts cannot have allowance issued by their operators."
      },
      "authorizeOperator(address)": {
        "details": "See {IERC777-authorizeOperator}."
      },
      "burn(uint256,bytes)": {
        "details": "See {IERC777-burn}. Also emits a {IERC20-Transfer} event for ERC20 compatibility."
      },
      "decimals()": {
        "details": "See {ERC20-decimals}. Always returns 18, as per the [ERC777 EIP](https://eips.ethereum.org/EIPS/eip-777#backward-compatibility)."
      },
      "defaultOperators()": {
        "details": "See {IERC777-defaultOperators}."
      },
      "granularity()": {
        "details": "See {IERC777-granularity}. This implementation always returns `1`."
      },
      "isOperatorFor(address,address)": {
        "details": "See {IERC777-isOperatorFor}."
      },
      "name()": {
        "details": "See {IERC777-name}."
      },
      "operatorBurn(address,uint256,bytes,bytes)": {
        "details": "See {IERC777-operatorBurn}. Emits {Burned} and {IERC20-Transfer} events."
      },
      "operatorSend(address,address,uint256,bytes,bytes)": {
        "details": "See {IERC777-operatorSend}. Emits {Sent} and {IERC20-Transfer} events."
      },
      "owner()": {
        "details": "Returns the address of the current owner."
      },
      "renounceOwnership()": {
        "details": "Leaves the contract without owner. It will not be possible to call `onlyOwner` functions anymore. Can only be called by the current owner. NOTE: Renouncing ownership will leave the contract without an owner, thereby removing any functionality that is only available to the owner."
      },
      "revokeOperator(address)": {
        "details": "See {IERC777-revokeOperator}."
      },
      "send(address,uint256,bytes)": {
        "details": "See {IERC777-send}. Also emits a {IERC20-Transfer} event for ERC20 compatibility."
      },
      "symbol()": {
        "details": "See {IERC777-symbol}."
      },
      "totalSupply()": {
        "details": "See {IERC777-totalSupply}."
      },
      "transfer(address,uint256)": {
        "details": "See {IERC20-transfer}. Unlike `send`, `recipient` is _not_ required to implement the {IERC777Recipient} interface if it is a contract. Also emits a {Sent} event."
      },
      "transferOwnership(address)": {
        "details": "Transfers ownership of the contract to a new account (`newOwner`). Can only be called by the current owner."
      }
    },
    "version": 1
  },
  "userdoc": {
    "kind": "user",
    "methods": {},
    "version": 1
  }
}