{
  "contractName": "SchnoodleFarmingV1",
  "abi": [
    {
      "anonymous": false,
      "inputs": [
        {
          "indexed": true,
          "internalType": "address",
          "name": "account",
          "type": "address"
        },
        {
          "indexed": false,
          "internalType": "uint256",
          "name": "amount",
          "type": "uint256"
        },
        {
          "indexed": false,
          "internalType": "uint256",
          "name": "blockNumber",
          "type": "uint256"
        }
      ],
      "name": "Deposited",
      "type": "event"
    },
    {
      "anonymous": false,
      "inputs": [
        {
          "indexed": false,
          "internalType": "uint8",
          "name": "version",
          "type": "uint8"
        }
      ],
      "name": "Initialized",
      "type": "event"
    },
    {
      "anonymous": false,
      "inputs": [
        {
          "indexed": true,
          "internalType": "address",
          "name": "previousOwner",
          "type": "address"
        },
        {
          "indexed": true,
          "internalType": "address",
          "name": "newOwner",
          "type": "address"
        }
      ],
      "name": "OwnershipTransferred",
      "type": "event"
    },
    {
      "anonymous": false,
      "inputs": [
        {
          "indexed": true,
          "internalType": "address",
          "name": "account",
          "type": "address"
        },
        {
          "indexed": false,
          "internalType": "uint256",
          "name": "id",
          "type": "uint256"
        },
        {
          "indexed": false,
          "internalType": "uint256",
          "name": "amount",
          "type": "uint256"
        },
        {
          "indexed": false,
          "internalType": "uint256",
          "name": "netReward",
          "type": "uint256"
        },
        {
          "indexed": false,
          "internalType": "uint256",
          "name": "grossReward",
          "type": "uint256"
        }
      ],
      "name": "Withdrawn",
      "type": "event"
    },
    {
      "inputs": [],
      "name": "owner",
      "outputs": [
        {
          "internalType": "address",
          "name": "",
          "type": "address"
        }
      ],
      "stateMutability": "view",
      "type": "function",
      "constant": true
    },
    {
      "inputs": [],
      "name": "renounceOwnership",
      "outputs": [],
      "stateMutability": "nonpayable",
      "type": "function"
    },
    {
      "inputs": [
        {
          "internalType": "address",
          "name": "newOwner",
          "type": "address"
        }
      ],
      "name": "transferOwnership",
      "outputs": [],
      "stateMutability": "nonpayable",
      "type": "function"
    },
    {
      "inputs": [
        {
          "internalType": "address",
          "name": "schnoodle",
          "type": "address"
        }
      ],
      "name": "initialize",
      "outputs": [],
      "stateMutability": "nonpayable",
      "type": "function"
    },
    {
      "inputs": [
        {
          "internalType": "uint256",
          "name": "amount",
          "type": "uint256"
        },
        {
          "internalType": "uint256",
          "name": "vestingBlocks",
          "type": "uint256"
        },
        {
          "internalType": "uint256",
          "name": "unbondingBlocks",
          "type": "uint256"
        }
      ],
      "name": "addDeposit",
      "outputs": [],
      "stateMutability": "nonpayable",
      "type": "function"
    },
    {
      "inputs": [
        {
          "internalType": "uint256",
          "name": "id",
          "type": "uint256"
        },
        {
          "internalType": "uint256",
          "name": "vestingBlocks",
          "type": "uint256"
        },
        {
          "internalType": "uint256",
          "name": "unbondingBlocks",
          "type": "uint256"
        }
      ],
      "name": "updateDeposit",
      "outputs": [],
      "stateMutability": "nonpayable",
      "type": "function"
    },
    {
      "inputs": [
        {
          "internalType": "uint256",
          "name": "id",
          "type": "uint256"
        },
        {
          "internalType": "uint256",
          "name": "amount",
          "type": "uint256"
        }
      ],
      "name": "withdraw",
      "outputs": [],
      "stateMutability": "nonpayable",
      "type": "function"
    },
    {
      "inputs": [
        {
          "internalType": "uint256",
          "name": "k",
          "type": "uint256"
        },
        {
          "internalType": "uint256",
          "name": "a",
          "type": "uint256"
        }
      ],
      "name": "changeSigmoidParams",
      "outputs": [],
      "stateMutability": "nonpayable",
      "type": "function"
    },
    {
      "inputs": [],
      "name": "sigmoidParams",
      "outputs": [
        {
          "components": [
            {
              "internalType": "uint256",
              "name": "k",
              "type": "uint256"
            },
            {
              "internalType": "uint256",
              "name": "a",
              "type": "uint256"
            }
          ],
          "internalType": "struct SchnoodleFarmingV1.SigmoidParams",
          "name": "",
          "type": "tuple"
        }
      ],
      "stateMutability": "view",
      "type": "function",
      "constant": true
    },
    {
      "inputs": [
        {
          "internalType": "address",
          "name": "account",
          "type": "address"
        },
        {
          "internalType": "uint256",
          "name": "id",
          "type": "uint256"
        },
        {
          "internalType": "uint256",
          "name": "rewardBlock",
          "type": "uint256"
        }
      ],
      "name": "getReward",
      "outputs": [
        {
          "internalType": "uint256",
          "name": "",
          "type": "uint256"
        }
      ],
      "stateMutability": "view",
      "type": "function",
      "constant": true
    },
    {
      "inputs": [
        {
          "internalType": "uint256",
          "name": "amount",
          "type": "uint256"
        },
        {
          "internalType": "uint256",
          "name": "vestingBlocks",
          "type": "uint256"
        },
        {
          "internalType": "uint256",
          "name": "unbondingBlocks",
          "type": "uint256"
        },
        {
          "internalType": "uint256",
          "name": "rewardBlock",
          "type": "uint256"
        }
      ],
      "name": "getReward",
      "outputs": [
        {
          "internalType": "uint256",
          "name": "",
          "type": "uint256"
        }
      ],
      "stateMutability": "view",
      "type": "function",
      "constant": true
    },
    {
      "inputs": [
        {
          "internalType": "address",
          "name": "account",
          "type": "address"
        }
      ],
      "name": "depositedBalanceOf",
      "outputs": [
        {
          "internalType": "uint256",
          "name": "",
          "type": "uint256"
        }
      ],
      "stateMutability": "view",
      "type": "function",
      "constant": true
    },
    {
      "inputs": [
        {
          "internalType": "address",
          "name": "account",
          "type": "address"
        }
      ],
      "name": "unbondingBalanceOf",
      "outputs": [
        {
          "internalType": "uint256",
          "name": "",
          "type": "uint256"
        }
      ],
      "stateMutability": "view",
      "type": "function",
      "constant": true
    },
    {
      "inputs": [
        {
          "internalType": "address",
          "name": "account",
          "type": "address"
        }
      ],
      "name": "lockedBalanceOf",
      "outputs": [
        {
          "internalType": "uint256",
          "name": "",
          "type": "uint256"
        }
      ],
      "stateMutability": "view",
      "type": "function",
      "constant": true
    },
    {
      "inputs": [
        {
          "internalType": "address",
          "name": "account",
          "type": "address"
        }
      ],
      "name": "getFarmingSummary",
      "outputs": [
        {
          "components": [
            {
              "components": [
                {
                  "internalType": "uint256",
                  "name": "id",
                  "type": "uint256"
                },
                {
                  "internalType": "uint256",
                  "name": "amount",
                  "type": "uint256"
                },
                {
                  "internalType": "uint256",
                  "name": "blockNumber",
                  "type": "uint256"
                },
                {
                  "internalType": "uint256",
                  "name": "vestingBlocks",
                  "type": "uint256"
                },
                {
                  "internalType": "uint256",
                  "name": "unbondingBlocks",
                  "type": "uint256"
                },
                {
                  "internalType": "uint256",
                  "name": "multiplier",
                  "type": "uint256"
                }
              ],
              "internalType": "struct SchnoodleFarmingV1.Deposit",
              "name": "deposit",
              "type": "tuple"
            },
            {
              "internalType": "uint256",
              "name": "reward",
              "type": "uint256"
            }
          ],
          "internalType": "struct SchnoodleFarmingV1.DepositReward[]",
          "name": "",
          "type": "tuple[]"
        }
      ],
      "stateMutability": "view",
      "type": "function",
      "constant": true
    },
    {
      "inputs": [
        {
          "internalType": "address",
          "name": "account",
          "type": "address"
        }
      ],
      "name": "getUnbondingSummary",
      "outputs": [
        {
          "components": [
            {
              "internalType": "uint256",
              "name": "amount",
              "type": "uint256"
            },
            {
              "internalType": "uint256",
              "name": "expiryBlock",
              "type": "uint256"
            }
          ],
          "internalType": "struct SchnoodleFarmingV1.Unbond[]",
          "name": "",
          "type": "tuple[]"
        }
      ],
      "stateMutability": "view",
      "type": "function",
      "constant": true
    }
  ],
  "bytecode": "0x608060405234801561001057600080fd5b50612bb5806100206000396000f3fe608060405234801561001057600080fd5b50600436106101005760003560e01c80638da5cb5b11610097578063c4d66de811610066578063c4d66de81461022f578063c5af253a14610242578063dc0b0d2314610277578063f2fde38b1461028a57600080fd5b80638da5cb5b146101ce578063926ea17b146101e95780639c4e7bd3146101fc578063b7cb44f41461020f57600080fd5b806350f9b39e116100d357806350f9b39e14610169578063593557361461018a57806368b482541461019d578063715018a6146101c657600080fd5b8063039d5136146101055780631eb5f3921461011a578063441a3e7014610143578063453a375814610156575b600080fd5b610118610113366004612631565b61029d565b005b61012d610128366004612672565b61036a565b60405161013a919061268f565b60405180910390f35b610118610151366004612711565b61050d565b610118610164366004612711565b610981565b61017c610177366004612733565b6109c9565b60405190815260200161013a565b61017c610198366004612672565b610a30565b61017c6101ab366004612672565b6001600160a01b031660009081526069602052604090205490565b610118610a62565b6033546040516001600160a01b03909116815260200161013a565b61017c6101f7366004612672565b610a98565b61011861020a366004612631565b610b27565b61022261021d366004612672565b610cd3565b60405161013a9190612768565b61011861023d366004612672565b610d5c565b60408051808201825260008082526020918201528151808301909252606e548252606f549082015260405161013a91906127b2565b61017c6102853660046127c9565b610e0c565b610118610298366004612672565b610e46565b60006102a93385610ee1565b5050600381018490556004810183905560018101549091506000906102cf908585610fb2565b505090508160050154811161035f5760405162461bcd60e51b8152602060048201526044602482018190527f5363686e6f6f646c654661726d696e673a206e6f2062656e6566697420746f20908201527f757064617465206465706f736974207769746820737570706c696564206368616064820152636e67657360e01b608482015260a4015b60405180910390fd5b600590910155505050565b6001600160a01b038116600090815260676020526040812080546060929067ffffffffffffffff8111156103a0576103a06127fb565b6040519080825280602002602001820160405280156103d957816020015b6103c66125db565b8152602001906001900390816103be5790505b5090504360005b835481101561050357604051806040016040528085838154811061040657610406612811565b90600052602060002090600602016040518060c0016040529081600082015481526020016001820154815260200160028201548152602001600382015481526020016004820154815260200160058201548152505081526020016104d086848154811061047557610475612811565b90600052602060002090600602016040518060c00160405290816000820154815260200160018201548152602001600282015481526020016003820154815260200160048201548152602001600582015481525050856111e9565b8152508382815181106104e5576104e5612811565b602002602001018190525080806104fb9061283d565b9150506103e0565b5090949350505050565b33600081815260686020526040902080544391905b8015610608578282610535600184612856565b8154811061054557610545612811565b906000526020600020906002020160010154116105f6578154829061056c90600190612856565b8154811061057c5761057c612811565b9060005260206000209060020201826001836105989190612856565b815481106105a8576105a8612811565b60009182526020909120825460029092020190815560019182015491015581548290806105d7576105d761286d565b6000828152602081206002600019909301928302018181556001015590555b8061060081612883565b915050610522565b5060008060006106188689610ee1565b92509250925086836001015410156106905760405162461bcd60e51b815260206004820152603560248201527f5363686e6f6f646c654661726d696e673a2063616e6e6f7420776974686472616044820152741dc81b5bdc99481d1a185b8819195c1bdcda5d1959605a1b6064820152608401610356565b84836003015484600201546106a5919061289a565b106107185760405162461bcd60e51b815260206004820152603760248201527f5363686e6f6f646c654661726d696e673a2063616e6e6f74207769746864726160448201527f7720647572696e672076657374696e6720626c6f636b730000000000000000006064820152608401610356565b600080600061076f866040518060c001604052908160008201548152602001600182015481526020016002820154815260200160038201548152602001600482015481526020016005820154815250508b8a611208565b9250925092506107918a610782906128b2565b87600301548860040154611233565b606d55606a55606b819055606c8890556001600160a01b038916600090815260696020526040812080548c92906107c9908490612856565b92505081905550898660010160008282546107e49190612856565b925050819055508660405180604001604052808c815260200188600401548b61080d919061289a565b905281546001818101845560009384526020808520845160029094020192835590920151908201558701549003610916578454859061084e90600190612856565b8154811061085e5761085e612811565b906000526020600020906006020185858154811061087e5761087e612811565b9060005260206000209060060201600082015481600001556001820154816001015560028201548160020155600382015481600301556004820154816004015560058201548160050155905050848054806108db576108db61286d565b600082815260208120600660001990930192830201818155600181018290556002810182905560038101829055600481018290556005015590555b610921898484611272565b604080518c8152602081018c9052908101849052606081018390526001600160a01b038a16907f94ffd6b85c71b847775c89ef6496b93cee961bdc6ff827fd117f174f06f745ae9060800160405180910390a25050505050505050505050565b6033546001600160a01b031633146109ab5760405162461bcd60e51b8152600401610356906128ce565b60408051808201909152828152602001819052606e91909155606f55565b6000806109d68585610ee1565b50506040805160c0810182528254815260018301546020820152600283015491810191909152600382015460608201526004820154608082015260059091015460a08201529050610a2781846111e9565b95945050505050565b6001600160a01b038116600090815260696020526040812054610a5283610a98565b610a5c919061289a565b92915050565b6033546001600160a01b03163314610a8c5760405162461bcd60e51b8152600401610356906128ce565b610a96600061132c565b565b6001600160a01b038116600090815260686020526040812043908290815b8154811015610503576000828281548110610ad357610ad3612811565b60009182526020918290206040805180820190915260029092020180548252600101549181018290529150851015610b14578051610b11908561289a565b93505b5080610b1f8161283d565b915050610ab6565b33610b3181610a30565b610b3a8261137e565b610b449190612856565b841115610bb95760405162461bcd60e51b815260206004820152603960248201527f5363686e6f6f646c654661726d696e673a206465706f73697420616d6f756e7460448201527f206578636565647320756e6c6f636b65642062616c616e6365000000000000006064820152608401610356565b610bc16125fb565b6000610bce868686611445565b606d55606a55606680549294509092506000610be98361283d565b90915550506001600160a01b0383166000818152606760209081526040808320805460018181018355918552838520885160069092020190815587840151918101919091558682015160028201819055606088015160038301556080880151600483015560a0880151600590920191909155606b869055606c55928252606990529081208054889290610c7d90849061289a565b9091555050604080830151815188815260208101919091526001600160a01b038516917f73a19dd210f1a7f902193214c0ee91dd35ee5b4d920cba8d519eca65a7b488ca910160405180910390a2505050505050565b6001600160a01b0381166000908152606860209081526040808320805482518185028101850190935280835260609492939192909184015b82821015610d5157838290600052602060002090600202016040518060400160405290816000820154815260200160018201548152505081526020019060010190610d0b565b505050509050919050565b6000610d6860016114b9565b90508015610d80576000805461ff0019166101001790555b610d88611541565b606580546001600160a01b0319166001600160a01b03841617905560408051808201909152600580825260016020909201829052606e55606f558015610e08576000805461ff0019169055604051600181527f7f26b83ff96e1f2b6a682f133852f6798a09c465da95921460cefb38474024989060200160405180910390a15b5050565b6000806000806000610e1f898989611445565b9350935093509350610e3984878660400151868587611570565b9998505050505050505050565b6033546001600160a01b03163314610e705760405162461bcd60e51b8152600401610356906128ce565b6001600160a01b038116610ed55760405162461bcd60e51b815260206004820152602660248201527f4f776e61626c653a206e6577206f776e657220697320746865207a65726f206160448201526564647265737360d01b6064820152608401610356565b610ede8161132c565b50565b6001600160a01b038216600090815260676020526040812081908190815b8154811015610f56576000828281548110610f1c57610f1c612811565b9060005260206000209060060201905086816000015403610f435794509092509050610fab565b5080610f4e8161283d565b915050610eff565b5060405162461bcd60e51b815260206004820152602360248201527f5363686e6f6f646c654661726d696e673a206465706f736974206e6f7420666f6044820152621d5b9960ea1b6064820152608401610356565b9250925092565b600080600080861161102c5760405162461bcd60e51b815260206004820152603a60248201527f5363686e6f6f646c654661726d696e673a206465706f73697420616d6f756e7460448201527f206d7573742062652067726561746572207468616e207a65726f0000000000006064820152608401610356565b600085116110a25760405162461bcd60e51b815260206004820152603a60248201527f5363686e6f6f646c654661726d696e673a2076657374696e6720626c6f636b7360448201527f206d7573742062652067726561746572207468616e207a65726f0000000000006064820152608401610356565b600084116111185760405162461bcd60e51b815260206004820152603c60248201527f5363686e6f6f646c654661726d696e673a20756e626f6e64696e6720626c6f6360448201527f6b73206d7573742062652067726561746572207468616e207a65726f000000006064820152608401610356565b600080611126888888611233565b909250905060006111378383612919565b90506000611183611166611158606e60000154611153906128b2565b611595565b611161856115c8565b6115df565b61117e846111748c8e61293b565b611153919061295a565b611637565b9050600061119160016115c8565b905060006111cc6111c76111a66103e86115c8565b61117e856111616111bf886111ba8b61166d565b6116c2565b606f546116f5565b611926565b67ffffffffffffffff169c959b5093995093975050505050505050565b60006112018383606c54606b54606d54606a54611570565b9392505050565b6000806000611224868686606c54606b54606d54606a54611942565b92509250925093509350939050565b60008084606a546112449190612999565b8361124f86886129da565b61125991906129da565b606d546112669190612999565b91509150935093915050565b6065546040516001600160a01b0385811660248301526044820185905260648201849052600092169060840160408051601f198184030181529181526020820180516001600160e01b0316634abc395560e11b179052516112d39190612a5f565b6000604051808303816000865af19150503d8060008114611310576040519150601f19603f3d011682016040523d82523d6000602084013e611315565b606091505b505090508061132657611326612a9a565b50505050565b603380546001600160a01b038381166001600160a01b0319831681179093556040519116919082907f8be0079c531659141344cd1fd0a4f28419497f9722a3daafe3b4186f6b6457e090600090a35050565b6065546040516001600160a01b038381166024830152600092839283929091169060440160408051601f198184030181529181526020820180516001600160e01b03166370a0823160e01b179052516113d79190612a5f565b600060405180830381855afa9150503d8060008114611412576040519150601f19603f3d011682016040523d82523d6000602084013e611417565b606091505b50915091508161142957611429612a9a565b8080602001905181019061143d9190612ab0565b949350505050565b61144d6125fb565b6000806000806000806114618a8a8a610fb2565b92509250925060004390506040518060c0016040528060665481526020018c81526020018281526020018b81526020018a8152602001858152506114a482611a07565b90985096509194509250505093509350935093565b60008054610100900460ff1615611500578160ff1660011480156114dc5750303b155b6114f85760405162461bcd60e51b815260040161035690612ac9565b506000919050565b60005460ff8084169116106115275760405162461bcd60e51b815260040161035690612ac9565b506000805460ff191660ff92909216919091179055600190565b600054610100900460ff166115685760405162461bcd60e51b815260040161035690612b17565b610a96611a1b565b6000806115868889602001518989898989611942565b50909998505050505050505050565b6000677fffffffffffffff1982121580156115b85750677fffffffffffffff8213155b6115c157600080fd5b5060401b90565b6000677fffffffffffffff8211156115c157600080fd5b600081600f0b6000036115f157600080fd5b600082600f0b604085600f0b901b8161160c5761160c612903565b05905060016001607f1b0319811280159061162e575060016001607f1b038113155b61120157600080fd5b6000600f83810b9083900b0260401d60016001607f1b0319811280159061162e575060016001607f1b0381131561120157600080fd5b6000600160461b82600f0b1261168257600080fd5b683fffffffffffffffff1982600f0b121561169f57506000919050565b610a5c608083600f0b700171547652b82fe1777d0ffda0d23a7d1202901d611a4b565b6000600f83810b9083900b0160016001607f1b0319811280159061162e575060016001607f1b0381131561120157600080fd5b600080600084600f0b12801561170e5750826001166001145b905060008085600f0b126117225784611727565b846000035b6fffffffffffffffffffffffffffffffff169050600160801b6801000000000000000082116117ca57603f82901b91505b84156117c257600185161561176d578102607f1c5b908002607f1c906002851615611783578102607f1c5b908002607f1c906004851615611799578102607f1c5b908002607f1c9060088516156117af578102607f1c5b60049490941c93908002607f1c90611758565b60401c6118e0565b603f600160601b8310156117e45760209290921b91601f19015b600160701b8310156117fc5760109290921b91600f19015b600160781b8310156118145760089290921b91600719015b6001607c1b83101561182c5760049290921b91600319015b6001607e1b8310156118445760029290921b91600119015b6001607f1b83101561185c5760019290921b91600019015b60005b86156118c9576040821061187257600080fd5b600187161561189857918302607f1c918101600160801b83111561189857600192831c92015b928002607f1c9260019190911b90600160801b84106118bd57600193841c9391909101905b600187901c965061185f565b604081106118d657600080fd5b6040039190911c90505b6000836118ed57816118f2565b816000035b905060016001607f1b03198112801590611913575060016001607f1b038113155b61191c57600080fd5b9695505050505050565b60008082600f0b121561193857600080fd5b50600f0b60401d90565b6000806000808a60400151896119589190612856565b611962908b61293b565b905060006119728a8a8a89612504565b90506000821180156119845750600087115b156119ef576000818361199d611998612524565b61137e565b6119a7919061293b565b6119b19190612919565b905060006103e8828f60a001516119c8919061293b565b6119d29190612919565b905080826119e08686612856565b965096509650505050506119fa565b600094508493509150505b9750975097945050505050565b6000610a5c82606c54606b54606a54612504565b600054610100900460ff16611a425760405162461bcd60e51b815260040161035690612b17565b610a963361132c565b6000600160461b82600f0b12611a6057600080fd5b683fffffffffffffffff1982600f0b1215611a7d57506000919050565b6001607f1b60006780000000000000008416600f0b1315611aaf5770016a09e667f3bcc908b2fb1366ea957d3e0260801c5b60008367400000000000000016600f0b1315611adc577001306fe0a31b7152de8d5a46305c85edec0260801c5b60008367200000000000000016600f0b1315611b09577001172b83c7d517adcdf7c8c50eb14a791f0260801c5b60008367100000000000000016600f0b1315611b365770010b5586cf9890f6298b92b71842a983630260801c5b60008367080000000000000016600f0b1315611b63577001059b0d31585743ae7c548eb68ca417fd0260801c5b60008367040000000000000016600f0b1315611b9057700102c9a3e778060ee6f7caca4f7a29bde80260801c5b60008367020000000000000016600f0b1315611bbd5770010163da9fb33356d84a66ae336dcdfa3f0260801c5b60008367010000000000000016600f0b1315611bea57700100b1afa5abcbed6129ab13ec11dc95430260801c5b600083668000000000000016600f0b1315611c165770010058c86da1c09ea1ff19d294cf2f679b0260801c5b600083664000000000000016600f0b1315611c42577001002c605e2e8cec506d21bfc89a23a00f0260801c5b600083662000000000000016600f0b1315611c6e57700100162f3904051fa128bca9c55c31e5df0260801c5b600083661000000000000016600f0b1315611c9a577001000b175effdc76ba38e31671ca9397250260801c5b600083660800000000000016600f0b1315611cc657700100058ba01fb9f96d6cacd4b180917c3d0260801c5b600083660400000000000016600f0b1315611cf25770010002c5cc37da9491d0985c348c68e7b30260801c5b600083660200000000000016600f0b1315611d1e577001000162e525ee054754457d59952920260260801c5b600083660100000000000016600f0b1315611d4a5770010000b17255775c040618bf4a4ade83fc0260801c5b6000836580000000000016600f0b1315611d75577001000058b91b5bc9ae2eed81e9b7d4cfab0260801c5b6000836540000000000016600f0b1315611da057700100002c5c89d5ec6ca4d7c8acc017b7c90260801c5b6000836520000000000016600f0b1315611dcb5770010000162e43f4f831060e02d839a9d16d0260801c5b6000836510000000000016600f0b1315611df657700100000b1721bcfc99d9f890ea069117630260801c5b6000836508000000000016600f0b1315611e215770010000058b90cf1e6d97f9ca14dbcc16280260801c5b6000836504000000000016600f0b1315611e4c577001000002c5c863b73f016468f6bac5ca2b0260801c5b6000836502000000000016600f0b1315611e7757700100000162e430e5a18f6119e3c02282a50260801c5b6000836501000000000016600f0b1315611ea2577001000000b1721835514b86e6d96efd1bfe0260801c5b60008364800000000016600f0b1315611ecc57700100000058b90c0b48c6be5df846c5b2ef0260801c5b60008364400000000016600f0b1315611ef65770010000002c5c8601cc6b9e94213c72737a0260801c5b60008364200000000016600f0b1315611f20577001000000162e42fff037df38aa2b219f060260801c5b60008364100000000016600f0b1315611f4a5770010000000b17217fba9c739aa5819f44f90260801c5b60008364080000000016600f0b1315611f74577001000000058b90bfcdee5acd3c1cedc8230260801c5b60008364040000000016600f0b1315611f9e57700100000002c5c85fe31f35a6a30da1be500260801c5b60008364020000000016600f0b1315611fc85770010000000162e42ff0999ce3541b9fffcf0260801c5b60008364010000000016600f0b1315611ff257700100000000b17217f80f4ef5aadda455540260801c5b600083638000000016600f0b131561201b5770010000000058b90bfbf8479bd5a81b51ad0260801c5b600083634000000016600f0b1315612044577001000000002c5c85fdf84bd62ae30a74cc0260801c5b600083632000000016600f0b131561206d57700100000000162e42fefb2fed257559bdaa0260801c5b600083631000000016600f0b1315612096577001000000000b17217f7d5a7716bba4a9ae0260801c5b600083630800000016600f0b13156120bf57700100000000058b90bfbe9ddbac5e109cce0260801c5b600083630400000016600f0b13156120e85770010000000002c5c85fdf4b15de6f17eb0d0260801c5b600083630200000016600f0b1315612111577001000000000162e42fefa494f1478fde050260801c5b600083630100000016600f0b131561213a5770010000000000b17217f7d20cf927c8e94c0260801c5b6000836280000016600f0b1315612162577001000000000058b90bfbe8f71cb4e4b33d0260801c5b6000836240000016600f0b131561218a57700100000000002c5c85fdf477b662b269450260801c5b6000836220000016600f0b13156121b25770010000000000162e42fefa3ae53369388c0260801c5b6000836210000016600f0b13156121da57700100000000000b17217f7d1d351a389d400260801c5b6000836208000016600f0b13156122025770010000000000058b90bfbe8e8b2d3d4ede0260801c5b6000836204000016600f0b131561222a577001000000000002c5c85fdf4741bea6e77e0260801c5b6000836202000016600f0b131561225257700100000000000162e42fefa39fe95583c20260801c5b6000836201000016600f0b131561227a577001000000000000b17217f7d1cfb72b45e10260801c5b60008361800016600f0b13156122a157700100000000000058b90bfbe8e7cc35c3f00260801c5b60008361400016600f0b13156122c85770010000000000002c5c85fdf473e242ea380260801c5b60008361200016600f0b13156122ef577001000000000000162e42fefa39f02b772c0260801c5b60008361100016600f0b13156123165770010000000000000b17217f7d1cf7d83c1a0260801c5b60008361080016600f0b131561233d577001000000000000058b90bfbe8e7bdcbe2e0260801c5b60008361040016600f0b131561236457700100000000000002c5c85fdf473dea871f0260801c5b60008361020016600f0b131561238b5770010000000000000162e42fefa39ef44d910260801c5b60008361010016600f0b13156123b257700100000000000000b17217f7d1cf79e9490260801c5b600083608016600f0b13156123d85770010000000000000058b90bfbe8e7bce5440260801c5b600083604016600f0b13156123fe577001000000000000002c5c85fdf473de6eca0260801c5b600083602016600f0b131561242457700100000000000000162e42fefa39ef366f0260801c5b600083601016600f0b131561244a577001000000000000000b17217f7d1cf79afa0260801c5b600083600816600f0b131561247057700100000000000000058b90bfbe8e7bcd6d0260801c5b600083600416600f0b13156124965770010000000000000002c5c85fdf473de6b20260801c5b600083600216600f0b13156124bc577001000000000000000162e42fefa39ef3580260801c5b600083600116600f0b13156124e25770010000000000000000b17217f7d1cf79ab0260801c5b600f83810b60401d603f03900b1c60016001607f1b03811115610a5c57600080fd5b60006125108486612856565b61251a908361293b565b610a27908461289a565b60655460408051600481526024810182526020810180516001600160e01b03166336d0ee9360e11b1790529051600092839283926001600160a01b039092169161256e9190612a5f565b600060405180830381855afa9150503d80600081146125a9576040519150601f19603f3d011682016040523d82523d6000602084013e6125ae565b606091505b5091509150816125c0576125c0612a9a565b808060200190518101906125d49190612b62565b9250505090565b60405180604001604052806125ee6125fb565b8152602001600081525090565b6040518060c001604052806000815260200160008152602001600081526020016000815260200160008152602001600081525090565b60008060006060848603121561264657600080fd5b505081359360208301359350604090920135919050565b6001600160a01b0381168114610ede57600080fd5b60006020828403121561268457600080fd5b81356112018161265d565b602080825282518282018190526000919060409081850190868401855b8281101561270457815180518051865287810151888701528681015187870152606080820151908701526080808201519087015260a0908101519086015286015160c085015260e090930192908501906001016126ac565b5091979650505050505050565b6000806040838503121561272457600080fd5b50508035926020909101359150565b60008060006060848603121561274857600080fd5b83356127538161265d565b95602085013595506040909401359392505050565b602080825282518282018190526000919060409081850190868401855b82811015612704576127a284835180518252602090810151910152565b9284019290850190600101612785565b815181526020808301519082015260408101610a5c565b600080600080608085870312156127df57600080fd5b5050823594602084013594506040840135936060013592509050565b634e487b7160e01b600052604160045260246000fd5b634e487b7160e01b600052603260045260246000fd5b634e487b7160e01b600052601160045260246000fd5b60006001820161284f5761284f612827565b5060010190565b60008282101561286857612868612827565b500390565b634e487b7160e01b600052603160045260246000fd5b60008161289257612892612827565b506000190190565b600082198211156128ad576128ad612827565b500190565b6000600160ff1b82016128c7576128c7612827565b5060000390565b6020808252818101527f4f776e61626c653a2063616c6c6572206973206e6f7420746865206f776e6572604082015260600190565b634e487b7160e01b600052601260045260246000fd5b60008261293657634e487b7160e01b600052601260045260246000fd5b500490565b600081600019048311821515161561295557612955612827565b500290565b60008083128015600160ff1b85018412161561297857612978612827565b6001600160ff1b038401831381161561299357612993612827565b50500390565b600080821280156001600160ff1b03849003851316156129bb576129bb612827565b600160ff1b83900384128116156129d4576129d4612827565b50500190565b60006001600160ff1b0381841382841380821686840486111615612a0057612a00612827565b600160ff1b6000871282811687830589121615612a1f57612a1f612827565b60008712925087820587128484161615612a3b57612a3b612827565b87850587128184161615612a5157612a51612827565b505050929093029392505050565b6000825160005b81811015612a805760208186018101518583015201612a66565b81811115612a8f576000828501525b509190910192915050565b634e487b7160e01b600052600160045260246000fd5b600060208284031215612ac257600080fd5b5051919050565b6020808252602e908201527f496e697469616c697a61626c653a20636f6e747261637420697320616c72656160408201526d191e481a5b9a5d1a585b1a5e995960921b606082015260800190565b6020808252602b908201527f496e697469616c697a61626c653a20636f6e7472616374206973206e6f74206960408201526a6e697469616c697a696e6760a81b606082015260800190565b600060208284031215612b7457600080fd5b81516112018161265d56fea264697066735822122033be4c86194a306e76ee3cec1400f730ee563e28691b54ea7672bbc848ee12a264736f6c634300080f0033",
  "immutableReferences": {},
  "source": "// contracts/SchnoodleFarmingV1.sol\r\n// SPDX-License-Identifier: MIT\r\npragma solidity ^0.8.0;\r\n\r\nimport \"@schnoodle/contracts-upgradeable/proxy/utils/Initializable.sol\";\r\nimport \"@schnoodle/contracts-upgradeable/access/OwnableUpgradeable.sol\";\r\nimport \"abdk-libraries-solidity/ABDKMath64x64.sol\";\r\n\r\n/// @author Jason Payne (https://twitter.com/Neo42)\r\n/// Delivers Lambo posthaste\r\ncontract SchnoodleFarmingV1 is Initializable, OwnableUpgradeable {\r\n    address private _schnoodle;\r\n    uint256 _depositId;\r\n    mapping(address => Deposit[]) private _accountDeposits;\r\n    mapping(address => Unbond[]) private _accountUnbonds;\r\n    mapping(address => uint256) private _balances;\r\n    uint256 private _totalTokens;\r\n    uint256 private _cumulativeTotal;\r\n    uint256 private _checkpointBlock;\r\n    uint256 private _totalDepositWeight;\r\n\r\n    // Adjust to change the sigmoid curve of the multiplier\r\n    SigmoidParams private _sigmoidParams;\r\n\r\n    struct Deposit {\r\n        uint256 id;\r\n        uint256 amount;\r\n        uint256 blockNumber;\r\n        uint256 vestingBlocks;\r\n        uint256 unbondingBlocks;\r\n        uint256 multiplier;\r\n    }\r\n\r\n    struct DepositReward {\r\n        Deposit deposit;\r\n        uint256 reward;\r\n    }\r\n\r\n    struct Unbond {\r\n        uint256 amount;\r\n        uint256 expiryBlock;\r\n    }\r\n\r\n    struct SigmoidParams {\r\n        uint256 k; // Higher value increases slope severity\r\n        uint256 a; // Higher value increases slope severity and shifts right\r\n    }\r\n\r\n    function initialize(address schnoodle) public initializer {\r\n        __Ownable_init();\r\n        _schnoodle = schnoodle;\r\n        _sigmoidParams = SigmoidParams(5, 1);\r\n    }\r\n\r\n    /// Deposits the specified amount of tokens for the sender, and adds the details to a stored deposit object\r\n    function addDeposit(uint256 amount, uint256 vestingBlocks, uint256 unbondingBlocks) external {\r\n        address msgSender = _msgSender();\r\n\r\n        require(amount <= balanceOf(msgSender) - lockedBalanceOf(msgSender), \"SchnoodleFarming: deposit amount exceeds unlocked balance\");\r\n\r\n        Deposit memory deposit;\r\n        uint256 cumulativeTotal;\r\n\r\n        // Build the new deposit, and update all tracking states to include the new deposit\r\n        (deposit, cumulativeTotal, _totalTokens, _totalDepositWeight) = _buildDeposit(amount, vestingBlocks, unbondingBlocks);\r\n        _depositId++;\r\n        _accountDeposits[msgSender].push(deposit);\r\n        _cumulativeTotal = cumulativeTotal;\r\n        _checkpointBlock = deposit.blockNumber;\r\n        _balances[msgSender] += amount;\r\n\r\n        emit Deposited(msgSender, amount, deposit.blockNumber);\r\n    }\r\n\r\n    /// Updates the vesting blocks and unbonding blocks of the sender's deposit with the specified ID\r\n    function updateDeposit(uint256 id, uint256 vestingBlocks, uint256 unbondingBlocks) external {\r\n        (Deposit storage deposit,,) = _getDeposit(_msgSender(), id);\r\n        deposit.vestingBlocks = vestingBlocks;\r\n        deposit.unbondingBlocks = unbondingBlocks;\r\n        (uint256 multiplier,,) = _getMultiplier(deposit.amount, vestingBlocks, unbondingBlocks);\r\n        require(multiplier > deposit.multiplier, \"SchnoodleFarming: no benefit to update deposit with supplied changes\");\r\n        deposit.multiplier = multiplier;\r\n    }\r\n\r\n    /// Withdraws the specified amount of tokens from the sender's deposit with the specified ID\r\n    function withdraw(uint256 id, uint256 amount) external {\r\n        address msgSender = _msgSender();\r\n        uint256 blockNumber = block.number;\r\n        Unbond[] storage unbonds = _accountUnbonds[msgSender];\r\n\r\n        // Take this opportunity to clean up any expired unbonds\r\n        for (uint256 i = unbonds.length; i > 0; i--) {\r\n            if (unbonds[i - 1].expiryBlock <= blockNumber) {\r\n                unbonds[i - 1] = unbonds[unbonds.length - 1];\r\n                unbonds.pop();\r\n            }\r\n        }\r\n\r\n        (Deposit storage deposit, Deposit[] storage deposits, uint256 index) = _getDeposit(msgSender, id);\r\n        require(deposit.amount >= amount, \"SchnoodleFarming: cannot withdraw more than deposited\");\r\n        require(deposit.blockNumber + deposit.vestingBlocks < blockNumber, \"SchnoodleFarming: cannot withdraw during vesting blocks\");\r\n\r\n        (uint256 netReward, uint256 grossReward, uint256 newCumulativeTotal) = _getRewardInfo(deposit, amount, blockNumber);\r\n\r\n        // Update all tracking states to remove the withdrawn deposit\r\n        (_totalTokens, _totalDepositWeight) = _updateTracking(-int256(amount), deposit.vestingBlocks, deposit.unbondingBlocks);\r\n        _cumulativeTotal = newCumulativeTotal;\r\n        _checkpointBlock = blockNumber;\r\n        _balances[msgSender] -= amount;\r\n        deposit.amount -= amount;\r\n\r\n        // Start the unbonding procedure for the withdrawn amount\r\n        unbonds.push(Unbond(amount, blockNumber + deposit.unbondingBlocks));\r\n\r\n        // Remove the deposit if it is fully withdrawn by replacing it with the last deposit in the array\r\n        if (deposit.amount == 0) {\r\n            deposits[index] = deposits[deposits.length - 1];\r\n            deposits.pop();\r\n        }\r\n\r\n        farmingReward(msgSender, netReward, grossReward);\r\n\r\n        emit Withdrawn(msgSender, id, amount, netReward, grossReward);\r\n    }\r\n\r\n    function changeSigmoidParams(uint256 k, uint256 a) external onlyOwner {\r\n        _sigmoidParams = SigmoidParams(k, a);\r\n    }\r\n\r\n    function sigmoidParams() external view returns(SigmoidParams memory) {\r\n        return _sigmoidParams;\r\n    }\r\n\r\n    function getReward(uint256 amount, uint256 vestingBlocks, uint256 unbondingBlocks, uint256 rewardBlock) external view returns(uint256) {\r\n        (Deposit memory deposit, uint256 cumulativeTotal, uint256 totalTokens, uint256 totalDepositWeight) = _buildDeposit(amount, vestingBlocks, unbondingBlocks);\r\n        return _getReward(deposit, rewardBlock, deposit.blockNumber, cumulativeTotal, totalDepositWeight, totalTokens);\r\n    }\r\n\r\n    function getReward(address account, uint256 id, uint256 rewardBlock) external view returns(uint256) {\r\n        (Deposit memory deposit,,) = _getDeposit(account, id);\r\n        return _getReward(deposit, rewardBlock);\r\n    }\r\n\r\n    function _getReward(Deposit memory deposit, uint256 rewardBlock) private view returns(uint256) {\r\n        return _getReward(deposit, rewardBlock, _checkpointBlock, _cumulativeTotal, _totalDepositWeight, _totalTokens);\r\n    }\r\n\r\n    function _getReward(Deposit memory deposit, uint256 rewardBlock, uint256 checkpointBlock, uint256 cumulativeTotal, uint256 totalDepositWeight, uint256 totalTokens) private view returns(uint256) {\r\n        (uint256 netReward,,) = _getRewardInfo(deposit, deposit.amount, rewardBlock, checkpointBlock, cumulativeTotal, totalDepositWeight, totalTokens);\r\n        return netReward;\r\n    }\r\n\r\n    function _getRewardInfo(Deposit memory deposit, uint256 amount, uint256 rewardBlock) private view returns(uint256, uint256, uint256) {\r\n        return _getRewardInfo(deposit, amount, rewardBlock, _checkpointBlock, _cumulativeTotal, _totalDepositWeight, _totalTokens);\r\n    }\r\n\r\n    function _getRewardInfo(Deposit memory deposit, uint256 amount, uint256 rewardBlock, uint256 checkpointBlock, uint256 cumulativeTotal, uint256 totalDepositWeight, uint256 totalTokens) private view returns(uint256, uint256, uint256) {\r\n        // Calculate the deposit amount multiplied across the number of blocks since the start of the deposit\r\n        uint256 cumulativeAmount = amount * (rewardBlock - deposit.blockNumber);\r\n\r\n        // Get the new cumulative total of all deposits as the current stored value is from the previous farming activity\r\n        uint256 newCumulativeTotal = _newCumulativeTotal(rewardBlock, checkpointBlock, cumulativeTotal, totalTokens);\r\n\r\n        if (cumulativeAmount > 0 && totalDepositWeight > 0) {\r\n            // Calculate the reward as a relative proportion of the cumulative total of all holders' deposits, adjusted by the multiplier\r\n            uint256 grossReward = balanceOf(getFarmingFund()) * cumulativeAmount / newCumulativeTotal;\r\n            uint256 netReward = deposit.multiplier * grossReward / 1000;\r\n\r\n            // The returned new cumulative total should not include the rewarded amount\r\n            return (netReward, grossReward, newCumulativeTotal - cumulativeAmount);\r\n        }\r\n\r\n        return (0, 0, newCumulativeTotal);\r\n    }\r\n\r\n    function _buildDeposit(uint256 amount, uint256 vestingBlocks, uint256 unbondingBlocks) private view returns (Deposit memory, uint256, uint256, uint256) {\r\n        (uint256 multiplier, uint256 totalTokens, uint256 totalDepositWeight) = _getMultiplier(amount, vestingBlocks, unbondingBlocks);\r\n        uint256 blockNumber = block.number;\r\n        return (Deposit(_depositId, amount, blockNumber, vestingBlocks, unbondingBlocks, multiplier), _newCumulativeTotal(blockNumber), totalTokens, totalDepositWeight);\r\n    }\r\n\r\n    function _getDeposit(address account, uint256 id) private view returns(Deposit storage, Deposit[] storage, uint256) {\r\n        Deposit[] storage deposits = _accountDeposits[account];\r\n\r\n        for (uint256 i = 0; i < deposits.length; i++) {\r\n            Deposit storage deposit = deposits[i];\r\n            if (deposit.id == id) {\r\n                return (deposit, deposits, i);\r\n            }\r\n        }\r\n\r\n        revert(\"SchnoodleFarming: deposit not found\");\r\n    }\r\n\r\n    function _getMultiplier(uint256 amount, uint256 vestingBlocks, uint256 unbondingBlocks) private view returns(uint256, uint256, uint256) {\r\n        require(amount > 0, \"SchnoodleFarming: deposit amount must be greater than zero\");\r\n        require(vestingBlocks > 0, \"SchnoodleFarming: vesting blocks must be greater than zero\");\r\n        require(unbondingBlocks > 0, \"SchnoodleFarming: unbonding blocks must be greater than zero\");\r\n\r\n        (uint256 totalTokens, uint256 totalDepositWeight) = _updateTracking(int256(amount), vestingBlocks, unbondingBlocks);\r\n        uint256 lockProductWeightedAverage = totalDepositWeight / totalTokens;\r\n\r\n        // Calculate a reward multiplier based on a sigmoid curve defined by logistic function 1  (1 + e) where z = -k(x - x)\r\n        int128 z = ABDKMath64x64.mul(\r\n            ABDKMath64x64.div(\r\n                ABDKMath64x64.fromInt(-int256(_sigmoidParams.k)),\r\n                ABDKMath64x64.fromUInt(lockProductWeightedAverage)\r\n            ),\r\n            ABDKMath64x64.fromInt(int256(vestingBlocks * unbondingBlocks) - int256(lockProductWeightedAverage))\r\n        );\r\n\r\n        int128 one = ABDKMath64x64.fromUInt(1);\r\n        uint256 multiplier = ABDKMath64x64.toUInt(\r\n            ABDKMath64x64.mul(\r\n                ABDKMath64x64.fromUInt(1000),\r\n                ABDKMath64x64.div(\r\n                    one,\r\n                    ABDKMath64x64.pow(\r\n                        ABDKMath64x64.add(\r\n                            one,\r\n                            ABDKMath64x64.exp(z)\r\n                        ),\r\n                        _sigmoidParams.a\r\n                    )\r\n                )\r\n            )\r\n        );\r\n\r\n        return (multiplier, totalTokens, totalDepositWeight);\r\n    }\r\n\r\n    function _newCumulativeTotal(uint256 rewardBlock) private view returns(uint256) {\r\n        return _newCumulativeTotal(rewardBlock, _checkpointBlock, _cumulativeTotal, _totalTokens);\r\n    }\r\n\r\n    function _newCumulativeTotal(uint256 rewardBlock, uint256 checkpointBlock, uint256 cumulativeTotal, uint256 totalTokens) private pure returns(uint256) {\r\n        // Add the total of all deposits multiplied across all blocks since the previous checkpoint calculation to the cumulative total\r\n        return cumulativeTotal + totalTokens * (rewardBlock - checkpointBlock);\r\n    }\r\n\r\n    function _updateTracking(int256 amountDelta, uint256 vestingBlocks, uint256 unbondingBlocks) private view returns(uint256, uint256) {\r\n        return (\r\n            uint256(int256(_totalTokens) + amountDelta), // Update total tokens\r\n            uint256(int256(_totalDepositWeight) + amountDelta * int256(vestingBlocks) * int256(unbondingBlocks)) // Update total deposit weight\r\n        );\r\n    }\r\n\r\n    function depositedBalanceOf(address account) public view returns(uint256) {\r\n        return _balances[account];\r\n    }\r\n\r\n    function unbondingBalanceOf(address account) public view returns(uint256) {\r\n        uint256 blockNumber = block.number;\r\n        uint256 total;\r\n        Unbond[] storage unbonds = _accountUnbonds[account];\r\n\r\n        for (uint256 i = 0; i < unbonds.length; i++) {\r\n            Unbond memory unbond = unbonds[i];\r\n            if (unbond.expiryBlock > blockNumber) {\r\n                total += unbond.amount;\r\n            }\r\n        }\r\n\r\n        return total;\r\n    }\r\n\r\n    function lockedBalanceOf(address account) public view returns (uint256) {\r\n        return unbondingBalanceOf(account) + depositedBalanceOf(account);\r\n    }\r\n\r\n    function getFarmingSummary(address account) public view returns(DepositReward[] memory) {\r\n        Deposit[] storage deposits = _accountDeposits[account];\r\n        DepositReward[] memory depositRewards = new DepositReward[](deposits.length);\r\n        uint256 rewardBlock = block.number;\r\n\r\n        for (uint256 i = 0; i < deposits.length; i++) {\r\n            depositRewards[i] = DepositReward(deposits[i], _getReward(deposits[i], rewardBlock));\r\n        }\r\n\r\n        return depositRewards;\r\n    }\r\n\r\n    function getUnbondingSummary(address account) public view returns(Unbond[] memory) {\r\n        return _accountUnbonds[account];\r\n    }\r\n\r\n    // Calls to the Schnoodle proxy contract\r\n\r\n    function getFarmingFund() private view returns (address) {\r\n        (bool success, bytes memory result) = _schnoodle.staticcall(abi.encodeWithSignature(\"getFarmingFund()\"));\r\n        assert(success);\r\n        return abi.decode(result, (address));\r\n    }\r\n\r\n    function balanceOf(address account) private view returns(uint256) {\r\n        (bool success, bytes memory result) = _schnoodle.staticcall(abi.encodeWithSignature(\"balanceOf(address)\", account));\r\n        assert(success);\r\n        return abi.decode(result, (uint256));\r\n    }\r\n\r\n    function farmingReward(address account, uint256 netReward, uint256 grossReward) private {\r\n        (bool success,) = _schnoodle.call(abi.encodeWithSignature(\"farmingReward(address,uint256,uint256)\", account, netReward, grossReward));\r\n        assert(success);\r\n    }\r\n\r\n    // Events\r\n\r\n    event Deposited(address indexed account, uint256 amount, uint256 blockNumber);\r\n\r\n    event Withdrawn(address indexed account, uint256 id, uint256 amount, uint256 netReward, uint256 grossReward);\r\n}\r\n",
  "sourcePath": "C:\\Users\\micro\\OneDrive - X-treem Software\\Development\\Projects\\Blockchain\\Schnoodle\\contracts\\contracts\\SchnoodleFarmingV1.sol",
  "compiler": {
    "name": "solc",
    "version": "0.8.15+commit.e14f2714.Emscripten.clang"
  },
  "schemaVersion": "3.4.7",
  "updatedAt": "2022-06-18T04:50:11.972Z",
  "networkType": "ethereum",
  "devdoc": {
    "author": "Jason Payne (https://twitter.com/Neo42) Delivers Lambo posthaste",
    "kind": "dev",
    "methods": {
      "owner()": {
        "details": "Returns the address of the current owner."
      },
      "renounceOwnership()": {
        "details": "Leaves the contract without owner. It will not be possible to call `onlyOwner` functions anymore. Can only be called by the current owner. NOTE: Renouncing ownership will leave the contract without an owner, thereby removing any functionality that is only available to the owner."
      },
      "transferOwnership(address)": {
        "details": "Transfers ownership of the contract to a new account (`newOwner`). Can only be called by the current owner."
      }
    },
    "version": 1
  },
  "userdoc": {
    "kind": "user",
    "methods": {
      "addDeposit(uint256,uint256,uint256)": {
        "notice": "Deposits the specified amount of tokens for the sender, and adds the details to a stored deposit object"
      },
      "updateDeposit(uint256,uint256,uint256)": {
        "notice": "Updates the vesting blocks and unbonding blocks of the sender's deposit with the specified ID"
      },
      "withdraw(uint256,uint256)": {
        "notice": "Withdraws the specified amount of tokens from the sender's deposit with the specified ID"
      }
    },
    "version": 1
  }
}