{
  "contractName": "SchnoodleV1",
  "abi": [
    {
      "anonymous": false,
      "inputs": [
        {
          "indexed": true,
          "internalType": "address",
          "name": "owner",
          "type": "address"
        },
        {
          "indexed": true,
          "internalType": "address",
          "name": "spender",
          "type": "address"
        },
        {
          "indexed": false,
          "internalType": "uint256",
          "name": "value",
          "type": "uint256"
        }
      ],
      "name": "Approval",
      "type": "event"
    },
    {
      "anonymous": false,
      "inputs": [
        {
          "indexed": true,
          "internalType": "address",
          "name": "operator",
          "type": "address"
        },
        {
          "indexed": true,
          "internalType": "address",
          "name": "tokenHolder",
          "type": "address"
        }
      ],
      "name": "AuthorizedOperator",
      "type": "event"
    },
    {
      "anonymous": false,
      "inputs": [
        {
          "indexed": true,
          "internalType": "address",
          "name": "operator",
          "type": "address"
        },
        {
          "indexed": true,
          "internalType": "address",
          "name": "from",
          "type": "address"
        },
        {
          "indexed": false,
          "internalType": "uint256",
          "name": "amount",
          "type": "uint256"
        },
        {
          "indexed": false,
          "internalType": "bytes",
          "name": "data",
          "type": "bytes"
        },
        {
          "indexed": false,
          "internalType": "bytes",
          "name": "operatorData",
          "type": "bytes"
        }
      ],
      "name": "Burned",
      "type": "event"
    },
    {
      "anonymous": false,
      "inputs": [
        {
          "indexed": true,
          "internalType": "address",
          "name": "account",
          "type": "address"
        },
        {
          "indexed": false,
          "internalType": "uint256",
          "name": "percent",
          "type": "uint256"
        }
      ],
      "name": "EleemosynaryChanged",
      "type": "event"
    },
    {
      "anonymous": false,
      "inputs": [
        {
          "indexed": false,
          "internalType": "uint256",
          "name": "percent",
          "type": "uint256"
        }
      ],
      "name": "FeePercentChanged",
      "type": "event"
    },
    {
      "anonymous": false,
      "inputs": [
        {
          "indexed": true,
          "internalType": "address",
          "name": "operator",
          "type": "address"
        },
        {
          "indexed": true,
          "internalType": "address",
          "name": "to",
          "type": "address"
        },
        {
          "indexed": false,
          "internalType": "uint256",
          "name": "amount",
          "type": "uint256"
        },
        {
          "indexed": false,
          "internalType": "bytes",
          "name": "data",
          "type": "bytes"
        },
        {
          "indexed": false,
          "internalType": "bytes",
          "name": "operatorData",
          "type": "bytes"
        }
      ],
      "name": "Minted",
      "type": "event"
    },
    {
      "anonymous": false,
      "inputs": [
        {
          "indexed": true,
          "internalType": "address",
          "name": "previousOwner",
          "type": "address"
        },
        {
          "indexed": true,
          "internalType": "address",
          "name": "newOwner",
          "type": "address"
        }
      ],
      "name": "OwnershipTransferred",
      "type": "event"
    },
    {
      "anonymous": false,
      "inputs": [
        {
          "indexed": true,
          "internalType": "address",
          "name": "operator",
          "type": "address"
        },
        {
          "indexed": true,
          "internalType": "address",
          "name": "tokenHolder",
          "type": "address"
        }
      ],
      "name": "RevokedOperator",
      "type": "event"
    },
    {
      "anonymous": false,
      "inputs": [
        {
          "indexed": true,
          "internalType": "address",
          "name": "operator",
          "type": "address"
        },
        {
          "indexed": true,
          "internalType": "address",
          "name": "from",
          "type": "address"
        },
        {
          "indexed": true,
          "internalType": "address",
          "name": "to",
          "type": "address"
        },
        {
          "indexed": false,
          "internalType": "uint256",
          "name": "amount",
          "type": "uint256"
        },
        {
          "indexed": false,
          "internalType": "bytes",
          "name": "data",
          "type": "bytes"
        },
        {
          "indexed": false,
          "internalType": "bytes",
          "name": "operatorData",
          "type": "bytes"
        }
      ],
      "name": "Sent",
      "type": "event"
    },
    {
      "anonymous": false,
      "inputs": [
        {
          "indexed": true,
          "internalType": "address",
          "name": "from",
          "type": "address"
        },
        {
          "indexed": true,
          "internalType": "address",
          "name": "to",
          "type": "address"
        },
        {
          "indexed": false,
          "internalType": "uint256",
          "name": "value",
          "type": "uint256"
        }
      ],
      "name": "Transfer",
      "type": "event"
    },
    {
      "inputs": [
        {
          "internalType": "address",
          "name": "holder",
          "type": "address"
        },
        {
          "internalType": "address",
          "name": "spender",
          "type": "address"
        }
      ],
      "name": "allowance",
      "outputs": [
        {
          "internalType": "uint256",
          "name": "",
          "type": "uint256"
        }
      ],
      "stateMutability": "view",
      "type": "function",
      "constant": true
    },
    {
      "inputs": [
        {
          "internalType": "address",
          "name": "spender",
          "type": "address"
        },
        {
          "internalType": "uint256",
          "name": "value",
          "type": "uint256"
        }
      ],
      "name": "approve",
      "outputs": [
        {
          "internalType": "bool",
          "name": "",
          "type": "bool"
        }
      ],
      "stateMutability": "nonpayable",
      "type": "function"
    },
    {
      "inputs": [
        {
          "internalType": "address",
          "name": "operator",
          "type": "address"
        }
      ],
      "name": "authorizeOperator",
      "outputs": [],
      "stateMutability": "nonpayable",
      "type": "function"
    },
    {
      "inputs": [
        {
          "internalType": "uint256",
          "name": "amount",
          "type": "uint256"
        },
        {
          "internalType": "bytes",
          "name": "data",
          "type": "bytes"
        }
      ],
      "name": "burn",
      "outputs": [],
      "stateMutability": "nonpayable",
      "type": "function"
    },
    {
      "inputs": [],
      "name": "decimals",
      "outputs": [
        {
          "internalType": "uint8",
          "name": "",
          "type": "uint8"
        }
      ],
      "stateMutability": "pure",
      "type": "function",
      "constant": true
    },
    {
      "inputs": [],
      "name": "defaultOperators",
      "outputs": [
        {
          "internalType": "address[]",
          "name": "",
          "type": "address[]"
        }
      ],
      "stateMutability": "view",
      "type": "function",
      "constant": true
    },
    {
      "inputs": [],
      "name": "granularity",
      "outputs": [
        {
          "internalType": "uint256",
          "name": "",
          "type": "uint256"
        }
      ],
      "stateMutability": "view",
      "type": "function",
      "constant": true
    },
    {
      "inputs": [
        {
          "internalType": "address",
          "name": "operator",
          "type": "address"
        },
        {
          "internalType": "address",
          "name": "tokenHolder",
          "type": "address"
        }
      ],
      "name": "isOperatorFor",
      "outputs": [
        {
          "internalType": "bool",
          "name": "",
          "type": "bool"
        }
      ],
      "stateMutability": "view",
      "type": "function",
      "constant": true
    },
    {
      "inputs": [],
      "name": "name",
      "outputs": [
        {
          "internalType": "string",
          "name": "",
          "type": "string"
        }
      ],
      "stateMutability": "view",
      "type": "function",
      "constant": true
    },
    {
      "inputs": [
        {
          "internalType": "address",
          "name": "account",
          "type": "address"
        },
        {
          "internalType": "uint256",
          "name": "amount",
          "type": "uint256"
        },
        {
          "internalType": "bytes",
          "name": "data",
          "type": "bytes"
        },
        {
          "internalType": "bytes",
          "name": "operatorData",
          "type": "bytes"
        }
      ],
      "name": "operatorBurn",
      "outputs": [],
      "stateMutability": "nonpayable",
      "type": "function"
    },
    {
      "inputs": [
        {
          "internalType": "address",
          "name": "sender",
          "type": "address"
        },
        {
          "internalType": "address",
          "name": "recipient",
          "type": "address"
        },
        {
          "internalType": "uint256",
          "name": "amount",
          "type": "uint256"
        },
        {
          "internalType": "bytes",
          "name": "data",
          "type": "bytes"
        },
        {
          "internalType": "bytes",
          "name": "operatorData",
          "type": "bytes"
        }
      ],
      "name": "operatorSend",
      "outputs": [],
      "stateMutability": "nonpayable",
      "type": "function"
    },
    {
      "inputs": [],
      "name": "owner",
      "outputs": [
        {
          "internalType": "address",
          "name": "",
          "type": "address"
        }
      ],
      "stateMutability": "view",
      "type": "function",
      "constant": true
    },
    {
      "inputs": [],
      "name": "renounceOwnership",
      "outputs": [],
      "stateMutability": "nonpayable",
      "type": "function"
    },
    {
      "inputs": [
        {
          "internalType": "address",
          "name": "operator",
          "type": "address"
        }
      ],
      "name": "revokeOperator",
      "outputs": [],
      "stateMutability": "nonpayable",
      "type": "function"
    },
    {
      "inputs": [
        {
          "internalType": "address",
          "name": "recipient",
          "type": "address"
        },
        {
          "internalType": "uint256",
          "name": "amount",
          "type": "uint256"
        },
        {
          "internalType": "bytes",
          "name": "data",
          "type": "bytes"
        }
      ],
      "name": "send",
      "outputs": [],
      "stateMutability": "nonpayable",
      "type": "function"
    },
    {
      "inputs": [],
      "name": "symbol",
      "outputs": [
        {
          "internalType": "string",
          "name": "",
          "type": "string"
        }
      ],
      "stateMutability": "view",
      "type": "function",
      "constant": true
    },
    {
      "inputs": [
        {
          "internalType": "address",
          "name": "newOwner",
          "type": "address"
        }
      ],
      "name": "transferOwnership",
      "outputs": [],
      "stateMutability": "nonpayable",
      "type": "function"
    },
    {
      "inputs": [
        {
          "internalType": "string",
          "name": "name",
          "type": "string"
        },
        {
          "internalType": "string",
          "name": "symbol",
          "type": "string"
        },
        {
          "internalType": "address[]",
          "name": "defaultOperators",
          "type": "address[]"
        },
        {
          "internalType": "uint256",
          "name": "initialSupply",
          "type": "uint256"
        },
        {
          "internalType": "address",
          "name": "owner",
          "type": "address"
        }
      ],
      "name": "initialize",
      "outputs": [],
      "stateMutability": "nonpayable",
      "type": "function"
    },
    {
      "inputs": [
        {
          "internalType": "uint256",
          "name": "initialTokens",
          "type": "uint256"
        },
        {
          "internalType": "address",
          "name": "serviceAccount",
          "type": "address"
        }
      ],
      "name": "initialize",
      "outputs": [],
      "stateMutability": "nonpayable",
      "type": "function"
    },
    {
      "inputs": [],
      "name": "totalSupply",
      "outputs": [
        {
          "internalType": "uint256",
          "name": "",
          "type": "uint256"
        }
      ],
      "stateMutability": "view",
      "type": "function",
      "constant": true
    },
    {
      "inputs": [
        {
          "internalType": "address",
          "name": "account",
          "type": "address"
        }
      ],
      "name": "balanceOf",
      "outputs": [
        {
          "internalType": "uint256",
          "name": "",
          "type": "uint256"
        }
      ],
      "stateMutability": "view",
      "type": "function",
      "constant": true
    },
    {
      "inputs": [
        {
          "internalType": "address",
          "name": "recipient",
          "type": "address"
        },
        {
          "internalType": "uint256",
          "name": "amount",
          "type": "uint256"
        }
      ],
      "name": "transfer",
      "outputs": [
        {
          "internalType": "bool",
          "name": "",
          "type": "bool"
        }
      ],
      "stateMutability": "nonpayable",
      "type": "function"
    },
    {
      "inputs": [
        {
          "internalType": "address",
          "name": "sender",
          "type": "address"
        },
        {
          "internalType": "address",
          "name": "recipient",
          "type": "address"
        },
        {
          "internalType": "uint256",
          "name": "amount",
          "type": "uint256"
        }
      ],
      "name": "transferFrom",
      "outputs": [
        {
          "internalType": "bool",
          "name": "",
          "type": "bool"
        }
      ],
      "stateMutability": "nonpayable",
      "type": "function"
    },
    {
      "inputs": [
        {
          "internalType": "uint256",
          "name": "percent",
          "type": "uint256"
        }
      ],
      "name": "changeFeePercent",
      "outputs": [],
      "stateMutability": "nonpayable",
      "type": "function"
    },
    {
      "inputs": [
        {
          "internalType": "address",
          "name": "account",
          "type": "address"
        },
        {
          "internalType": "uint256",
          "name": "percent",
          "type": "uint256"
        }
      ],
      "name": "changeEleemosynary",
      "outputs": [],
      "stateMutability": "nonpayable",
      "type": "function"
    }
  ],
  "bytecode": "0x608060405234801561001057600080fd5b50612895806100206000396000f3fe608060405234801561001057600080fd5b50600436106101735760003560e01c8063768f950a116100de578063d95b637111610097578063f2fde38b11610071578063f2fde38b1461032d578063fad8b32a14610340578063fc673c4f14610353578063fe9d93031461036657600080fd5b8063d95b6371146102ce578063da35a26f146102e1578063dd62ed3e146102f457600080fd5b8063768f950a1461025f5780638da5cb5b14610272578063959b8c3f1461028d57806395d89b41146102a05780639bd9bbc6146102a8578063a9059cbb146102bb57600080fd5b8063313ce56711610130578063313ce5671461020857806334eddf3e14610217578063556f0dc71461022a57806362ad1b831461023157806370a0823114610244578063715018a61461025757600080fd5b806306e485381461017857806306fdde0314610196578063095ea7b3146101ab57806318160ddd146101ce57806323b872dd146101e05780632f5d1467146101f3575b600080fd5b610180610379565b60405161018d9190611f4f565b60405180910390f35b61019e6103db565b60405161018d9190611fe9565b6101be6101b9366004612021565b610464565b604051901515815260200161018d565b60c9545b60405190815260200161018d565b6101be6101ee36600461204d565b61047e565b610206610201366004612021565b6104b8565b005b6040516012815260200161018d565b61020661022536600461208e565b610545565b60016101d2565b61020661023f36600461215e565b6105aa565b6101d26102523660046121f1565b6105e6565b610206610692565b61020661026d36600461220e565b6106c8565b6097546040516001600160a01b03909116815260200161018d565b61020661029b3660046121f1565b610746565b61019e610864565b6102066102b6366004612321565b610873565b6101be6102c9366004612021565b610896565b6101be6102dc36600461237a565b6108ce565b6102066102ef3660046123b3565b61096f565b6101d261030236600461237a565b6001600160a01b039182166000908152603b6020908152604080832093909416825291909152205490565b61020661033b3660046121f1565b610a6b565b61020661034e3660046121f1565b610b06565b6102066103613660046123d8565b610c22565b610206610374366004612458565b610c5a565b606060378054806020026020016040519081016040528092919081815260200182805480156103d157602002820191906000526020600020905b81546001600160a01b031681526001909101906020018083116103b3575b5050505050905090565b6060603580546103ea9061249f565b80601f01602080910402602001604051908101604052809291908181526020018280546104169061249f565b80156103d15780601f10610438576101008083540402835291602001916103d1565b820191906000526020600020905b81548152906001019060200180831161044657509395945050505050565b600033610472818585610c79565b60019150505b92915050565b600080610489610da0565b61049390846124f0565b905060006104a2868684610dbd565b90506104af858386610f7d565b95945050505050565b6097546001600160a01b031633146104eb5760405162461bcd60e51b81526004016104e29061250f565b60405180910390fd5b60cb80546001600160a01b0319166001600160a01b03841690811790915560cc8290556040518281527f14771002f2414c27e60fe966b41bcb8004589b44c52a1f73016757cc92bf5ada9060200160405180910390a25050565b6097546001600160a01b0316331461056f5760405162461bcd60e51b81526004016104e29061250f565b60ca8190556040518181527f91955c12515f4eb8f1ff79df82d1933ff11b6d3b9a3019c6568840616ec36a749060200160405180910390a150565b6105b433866108ce565b6105d05760405162461bcd60e51b81526004016104e290612544565b6105df85858585856001611016565b5050505050565b6001600160a01b038116600090815260336020526040812054603454811115610679576040805162461bcd60e51b81526020600482015260248101919091527f5363686e6f6f646c653a205265666c65637465642062616c616e6365206d757360448201527f74206265206c657373207468616e20746f74616c207265666c656374696f6e7360648201526084016104e2565b610681610da0565b61068b90826125a6565b9392505050565b6097546001600160a01b031633146106bc5760405162461bcd60e51b81526004016104e29061250f565b6106c66000611102565b565b600054610100900460ff16806106e1575060005460ff16155b6106fd5760405162461bcd60e51b81526004016104e2906125ba565b600054610100900460ff1615801561071f576000805461ffff19166101011790555b61072c8686868686611154565b801561073e576000805461ff00191690555b505050505050565b336001600160a01b03821614156107ab5760405162461bcd60e51b8152602060048201526024808201527f4552433737373a20617574686f72697a696e672073656c66206173206f70657260448201526330ba37b960e11b60648201526084016104e2565b6001600160a01b03811660009081526038602052604090205460ff16156107fc57336000908152603a602090815260408083206001600160a01b03851684529091529020805460ff1916905561082b565b3360009081526039602090815260408083206001600160a01b03851684529091529020805460ff191660011790555b60405133906001600160a01b038316907ff4caeb2d6ca8932a215a353d0703c326ec2d81fc68170f320eb2ab49e9df61f990600090a350565b6060603680546103ea9061249f565b61089133848484604051806020016040528060008152506001611016565b505050565b6000806108a1610da0565b6108ab90846124f0565b905060006108b985836111cb565b90506108c6858386610f7d565b949350505050565b6000816001600160a01b0316836001600160a01b0316148061093957506001600160a01b03831660009081526038602052604090205460ff16801561093957506001600160a01b038083166000908152603a602090815260408083209387168352929052205460ff16155b8061068b57506001600160a01b0380831660009081526039602090815260408083209387168352929052205460ff169392505050565b600054610100900460ff1680610988575060005460ff16155b6109a45760405162461bcd60e51b81526004016104e2906125ba565b600054610100900460ff161580156109c6576000805461ffff19166101011790555b6109ce61127e565b6109da6012600a6126ec565b6109e490846124f0565b60c981905560408051808201825260098152685363686e6f6f646c6560b81b60208083019190915282518084018452600581526414d393d3d160da1b81830152835160008152918201909352610a5593919291610a43906000196126fb565b610a4f9060001961270f565b866106c8565b8015610891576000805461ff0019169055505050565b6097546001600160a01b03163314610a955760405162461bcd60e51b81526004016104e29061250f565b6001600160a01b038116610afa5760405162461bcd60e51b815260206004820152602660248201527f4f776e61626c653a206e6577206f776e657220697320746865207a65726f206160448201526564647265737360d01b60648201526084016104e2565b610b0381611102565b50565b6001600160a01b038116331415610b695760405162461bcd60e51b815260206004820152602160248201527f4552433737373a207265766f6b696e672073656c66206173206f70657261746f6044820152603960f91b60648201526084016104e2565b6001600160a01b03811660009081526038602052604090205460ff1615610bbd57336000908152603a602090815260408083206001600160a01b03851684529091529020805460ff19166001179055610be9565b3360009081526039602090815260408083206001600160a01b03851684529091529020805460ff191690555b60405133906001600160a01b038316907f50546e66e5f44d728365dc3908c63bc5cfeeab470722c1677e3073a6ac294aa190600090a350565b610c2c33856108ce565b610c485760405162461bcd60e51b81526004016104e290612544565b610c54848484846112f9565b50505050565b610c75338383604051806020016040528060008152506112f9565b5050565b6001600160a01b038316610cdd5760405162461bcd60e51b815260206004820152602560248201527f4552433737373a20617070726f76652066726f6d20746865207a65726f206164604482015264647265737360d81b60648201526084016104e2565b6001600160a01b038216610d3f5760405162461bcd60e51b815260206004820152602360248201527f4552433737373a20617070726f766520746f20746865207a65726f206164647260448201526265737360e81b60648201526084016104e2565b6001600160a01b038381166000818152603b602090815260408083209487168084529482529182902085905590518481527f8c5be1e5ebec7d5bd14f71427d1e84f3dd0314c0f7b2291e5b200ac8c7c3b925910160405180910390a3505050565b6000610dab60c95490565b603454610db891906125a6565b905090565b60006001600160a01b038316610de55760405162461bcd60e51b81526004016104e290612726565b6001600160a01b038416610e4a5760405162461bcd60e51b815260206004820152602660248201527f4552433737373a207472616e736665722066726f6d20746865207a65726f206160448201526564647265737360d01b60648201526084016104e2565b6000339050610e7b818686866040518060200160405280600081525060405180602001604052806000815250611333565b610ea7818686866040518060200160405280600081525060405180602001604052806000815250611469565b6001600160a01b038086166000908152603b602090815260408083209385168352929052205483811015610f2f5760405162461bcd60e51b815260206004820152602960248201527f4552433737373a207472616e7366657220616d6f756e74206578636565647320604482015268616c6c6f77616e636560b81b60648201526084016104e2565b610f438683610f3e878561270f565b610c79565b610f7182878787604051806020016040528060008152506040518060200160405280600081525060006115cf565b50600195945050505050565b610f8783836117a3565b60cb546001600160a01b03161561089157600060cc546064610fa7610da0565b610fb190856124f0565b610fbb91906125a6565b610fc591906124f0565b60cb546040805160208082018352600080835283519182019093529182529293506110009287926001600160a01b0316918591906001611016565b60cb54610c54906001600160a01b0316826117a3565b6001600160a01b0386166110775760405162461bcd60e51b815260206004820152602260248201527f4552433737373a2073656e642066726f6d20746865207a65726f206164647265604482015261737360f01b60648201526084016104e2565b6001600160a01b0385166110cd5760405162461bcd60e51b815260206004820181905260248201527f4552433737373a2073656e6420746f20746865207a65726f206164647265737360448201526064016104e2565b336110dc818888888888611333565b6110ea818888888888611469565b6110f9818888888888886115cf565b50505050505050565b609780546001600160a01b038381166001600160a01b0319831681179093556040519116919082907f8be0079c531659141344cd1fd0a4f28419497f9722a3daafe3b4186f6b6457e090600090a35050565b600054610100900460ff168061116d575060005460ff16155b6111895760405162461bcd60e51b81526004016104e2906125ba565b600054610100900460ff161580156111ab576000805461ffff19166101011790555b6111b36117e6565b6111be868686611850565b61072c8686868686611a85565b60006001600160a01b0383166111f35760405162461bcd60e51b81526004016104e290612726565b6000339050611224818286866040518060200160405280600081525060405180602001604052806000815250611333565b611250818286866040518060200160405280600081525060405180602001604052806000815250611469565b61047281828686604051806020016040528060008152506040518060200160405280600081525060006115cf565b600054610100900460ff1680611297575060005460ff16155b6112b35760405162461bcd60e51b81526004016104e2906125ba565b600054610100900460ff161580156112d5576000805461ffff19166101011790555b6112dd6117e6565b6112e5611b06565b8015610b03576000805461ff001916905550565b61131684611305610da0565b61130f90866124f0565b8484611b66565b8260c96000828254611328919061270f565b909155505050505050565b60405163555ddc6560e11b81526001600160a01b03861660048201527f29ddb589b1fb5fc7cf394961c1adf5f8c6454761adf795e67fe149f658abe8956024820152600090731820a4b7618bde71dce8cdc73aab6c95905fad249063aabbb8ca9060440160206040518083038186803b1580156113af57600080fd5b505afa1580156113c3573d6000803e3d6000fd5b505050506040513d601f19601f820116820180604052508101906113e7919061276a565b90506001600160a01b038116156110f957604051633ad5cbc160e11b81526001600160a01b038216906375ab97829061142e908a908a908a908a908a908a90600401612787565b600060405180830381600087803b15801561144857600080fd5b505af115801561145c573d6000803e3d6000fd5b5050505050505050505050565b6001600160a01b038516600090815260336020526040902054838110156114e25760405162461bcd60e51b815260206004820152602760248201527f4552433737373a207472616e7366657220616d6f756e7420657863656564732060448201526662616c616e636560c81b60648201526084016104e2565b6001600160a01b038087166000908152603360205260408082208785039055918716815290812080548692906115199084906127e1565b92505081905550846001600160a01b0316866001600160a01b0316886001600160a01b03167f06b541ddaa720db2b10a4d0cdac39b8d360425fc073085fac19bc82614677987878787604051611571939291906127f9565b60405180910390a4846001600160a01b0316866001600160a01b03167fddf252ad1be2c89b69c2b068fc378daa952ba7f163c4a11628f55a4df523b3ef866040516115be91815260200190565b60405180910390a350505050505050565b60405163555ddc6560e11b81526001600160a01b03861660048201527fb281fc8c12954d22544db45de3159a39272895b169a852b314f9cc762e44c53b6024820152600090731820a4b7618bde71dce8cdc73aab6c95905fad249063aabbb8ca9060440160206040518083038186803b15801561164b57600080fd5b505afa15801561165f573d6000803e3d6000fd5b505050506040513d601f19601f82011682018060405250810190611683919061276a565b90506001600160a01b038116156116ff576040516223de2960e01b81526001600160a01b038216906223de29906116c8908b908b908b908b908b908b90600401612787565b600060405180830381600087803b1580156116e257600080fd5b505af11580156116f6573d6000803e3d6000fd5b50505050611799565b8115611799576001600160a01b0386163b156117995760405162461bcd60e51b815260206004820152604d60248201527f4552433737373a20746f6b656e20726563697069656e7420636f6e747261637460448201527f20686173206e6f20696d706c656d656e74657220666f7220455243373737546f60648201526c1ad95b9cd49958da5c1a595b9d609a1b608482015260a4016104e2565b5050505050505050565b610c758260ca546064846117b791906125a6565b6117c191906124f0565b6040518060200160405280600081525060405180602001604052806000815250611b66565b600054610100900460ff16806117ff575060005460ff16155b61181b5760405162461bcd60e51b81526004016104e2906125ba565b600054610100900460ff161580156112e5576000805461ffff19166101011790558015610b03576000805461ff001916905550565b600054610100900460ff1680611869575060005460ff16155b6118855760405162461bcd60e51b81526004016104e2906125ba565b600054610100900460ff161580156118a7576000805461ffff19166101011790555b83516118ba906035906020870190611e61565b5082516118ce906036906020860190611e61565b5081516118e2906037906020850190611ee5565b5060005b825181101561194b576001603860008584815181106119075761190761282e565b6020908102919091018101516001600160a01b03168252810191909152604001600020805460ff19169115159190911790558061194381612844565b9150506118e6565b506040516329965a1d60e01b815230600482018190527fac7fbab5f54a3ca8194167523c6753bfeb96a445279294b6125b68cce217705460248301526044820152731820a4b7618bde71dce8cdc73aab6c95905fad24906329965a1d90606401600060405180830381600087803b1580156119c557600080fd5b505af11580156119d9573d6000803e3d6000fd5b50506040516329965a1d60e01b815230600482018190527faea199e31a596269b42cdafd93407f14436db6e4cad65417994c2eb37381e05a60248301526044820152731820a4b7618bde71dce8cdc73aab6c95905fad2492506329965a1d9150606401600060405180830381600087803b158015611a5657600080fd5b505af1158015611a6a573d6000803e3d6000fd5b505050508015610c54576000805461ff001916905550505050565b600054610100900460ff1680611a9e575060005460ff16155b611aba5760405162461bcd60e51b81526004016104e2906125ba565b600054610100900460ff16158015611adc576000805461ffff19166101011790555b61072c82846040518060200160405280600081525060405180602001604052806000815250611d1b565b600054610100900460ff1680611b1f575060005460ff16155b611b3b5760405162461bcd60e51b81526004016104e2906125ba565b600054610100900460ff16158015611b5d576000805461ffff19166101011790555b6112e533611102565b6001600160a01b038416611bc75760405162461bcd60e51b815260206004820152602260248201527f4552433737373a206275726e2066726f6d20746865207a65726f206164647265604482015261737360f01b60648201526084016104e2565b33611bd781866000878787611333565b6001600160a01b03851660009081526033602052604090205484811015611c4c5760405162461bcd60e51b815260206004820152602360248201527f4552433737373a206275726e20616d6f756e7420657863656564732062616c616044820152626e636560e81b60648201526084016104e2565b6001600160a01b0386166000908152603360205260408120868303905560348054879290611c7b90849061270f565b92505081905550856001600160a01b0316826001600160a01b03167fa78a9be3a7b862d26933ad85fb11d80ef66b8f972d7cbba06621d583943a4098878787604051611cc9939291906127f9565b60405180910390a36040518581526000906001600160a01b038816907fddf252ad1be2c89b69c2b068fc378daa952ba7f163c4a11628f55a4df523b3ef906020015b60405180910390a3505050505050565b610c548484848460016001600160a01b038516611d7a5760405162461bcd60e51b815260206004820181905260248201527f4552433737373a206d696e7420746f20746865207a65726f206164647265737360448201526064016104e2565b60003390508460346000828254611d9191906127e1565b90915550506001600160a01b03861660009081526033602052604081208054879290611dbe9084906127e1565b90915550611dd4905081600088888888886115cf565b856001600160a01b0316816001600160a01b03167f2fe5be0146f74c5bce36c0b80911af6c7d86ff27e89d5cfa61fc681327954e5d878787604051611e1b939291906127f9565b60405180910390a36040518581526001600160a01b038716906000907fddf252ad1be2c89b69c2b068fc378daa952ba7f163c4a11628f55a4df523b3ef90602001611d0b565b828054611e6d9061249f565b90600052602060002090601f016020900481019282611e8f5760008555611ed5565b82601f10611ea857805160ff1916838001178555611ed5565b82800160010185558215611ed5579182015b82811115611ed5578251825591602001919060010190611eba565b50611ee1929150611f3a565b5090565b828054828255906000526020600020908101928215611ed5579160200282015b82811115611ed557825182546001600160a01b0319166001600160a01b03909116178255602090920191600190910190611f05565b5b80821115611ee15760008155600101611f3b565b6020808252825182820181905260009190848201906040850190845b81811015611f905783516001600160a01b031683529284019291840191600101611f6b565b50909695505050505050565b6000815180845260005b81811015611fc257602081850181015186830182015201611fa6565b81811115611fd4576000602083870101525b50601f01601f19169290920160200192915050565b60208152600061068b6020830184611f9c565b6001600160a01b0381168114610b0357600080fd5b803561201c81611ffc565b919050565b6000806040838503121561203457600080fd5b823561203f81611ffc565b946020939093013593505050565b60008060006060848603121561206257600080fd5b833561206d81611ffc565b9250602084013561207d81611ffc565b929592945050506040919091013590565b6000602082840312156120a057600080fd5b5035919050565b634e487b7160e01b600052604160045260246000fd5b604051601f8201601f1916810167ffffffffffffffff811182821017156120e6576120e66120a7565b604052919050565b600082601f8301126120ff57600080fd5b813567ffffffffffffffff811115612119576121196120a7565b61212c601f8201601f19166020016120bd565b81815284602083860101111561214157600080fd5b816020850160208301376000918101602001919091529392505050565b600080600080600060a0868803121561217657600080fd5b853561218181611ffc565b9450602086013561219181611ffc565b935060408601359250606086013567ffffffffffffffff808211156121b557600080fd5b6121c189838a016120ee565b935060808801359150808211156121d757600080fd5b506121e4888289016120ee565b9150509295509295909350565b60006020828403121561220357600080fd5b813561068b81611ffc565b600080600080600060a0868803121561222657600080fd5b853567ffffffffffffffff8082111561223e57600080fd5b61224a89838a016120ee565b965060209150818801358181111561226157600080fd5b61226d8a828b016120ee565b96505060408801358181111561228257600080fd5b8801601f81018a1361229357600080fd5b8035828111156122a5576122a56120a7565b8060051b92506122b68484016120bd565b818152928201840192848101908c8511156122d057600080fd5b928501925b848410156122fa57833592506122ea83611ffc565b82825292850192908501906122d5565b97505050506060880135935061231591505060808701612011565b90509295509295909350565b60008060006060848603121561233657600080fd5b833561234181611ffc565b925060208401359150604084013567ffffffffffffffff81111561236457600080fd5b612370868287016120ee565b9150509250925092565b6000806040838503121561238d57600080fd5b823561239881611ffc565b915060208301356123a881611ffc565b809150509250929050565b600080604083850312156123c657600080fd5b8235915060208301356123a881611ffc565b600080600080608085870312156123ee57600080fd5b84356123f981611ffc565b935060208501359250604085013567ffffffffffffffff8082111561241d57600080fd5b612429888389016120ee565b9350606087013591508082111561243f57600080fd5b5061244c878288016120ee565b91505092959194509250565b6000806040838503121561246b57600080fd5b82359150602083013567ffffffffffffffff81111561248957600080fd5b612495858286016120ee565b9150509250929050565b600181811c908216806124b357607f821691505b602082108114156124d457634e487b7160e01b600052602260045260246000fd5b50919050565b634e487b7160e01b600052601160045260246000fd5b600081600019048311821515161561250a5761250a6124da565b500290565b6020808252818101527f4f776e61626c653a2063616c6c6572206973206e6f7420746865206f776e6572604082015260600190565b6020808252602c908201527f4552433737373a2063616c6c6572206973206e6f7420616e206f70657261746f60408201526b39103337b9103437b63232b960a11b606082015260800190565b634e487b7160e01b600052601260045260246000fd5b6000826125b5576125b5612590565b500490565b6020808252602e908201527f496e697469616c697a61626c653a20636f6e747261637420697320616c72656160408201526d191e481a5b9a5d1a585b1a5e995960921b606082015260800190565b600181815b80851115612643578160001904821115612629576126296124da565b8085161561263657918102915b93841c939080029061260d565b509250929050565b60008261265a57506001610478565b8161266757506000610478565b816001811461267d5760028114612687576126a3565b6001915050610478565b60ff841115612698576126986124da565b50506001821b610478565b5060208310610133831016604e8410600b84101617156126c6575081810a610478565b6126d08383612608565b80600019048211156126e4576126e46124da565b029392505050565b600061068b60ff84168361264b565b60008261270a5761270a612590565b500690565b600082821015612721576127216124da565b500390565b60208082526024908201527f4552433737373a207472616e7366657220746f20746865207a65726f206164646040820152637265737360e01b606082015260800190565b60006020828403121561277c57600080fd5b815161068b81611ffc565b6001600160a01b0387811682528681166020830152851660408201526060810184905260c0608082018190526000906127c290830185611f9c565b82810360a08401526127d48185611f9c565b9998505050505050505050565b600082198211156127f4576127f46124da565b500190565b8381526060602082015260006128126060830185611f9c565b82810360408401526128248185611f9c565b9695505050505050565b634e487b7160e01b600052603260045260246000fd5b6000600019821415612858576128586124da565b506001019056fea26469706673582212206244d4d42db4a5d6d9b7461a66adb6961c6a0aeecedb0ab3f089e3a2b49760c564736f6c63430008090033",
  "immutableReferences": {},
  "source": "// contracts/Schnoodle.sol\r\n// SPDX-License-Identifier: MIT\r\npragma solidity ^0.8.0;\r\n\r\nimport \"@openzeppelin/contracts-upgradeable/proxy/utils/Initializable.sol\";\r\nimport \"@openzeppelin/contracts-upgradeable/token/ERC777/presets/ERC777PresetFixedSupplyUpgradeable.sol\";\r\nimport \"@openzeppelin/contracts-upgradeable/access/OwnableUpgradeable.sol\";\r\n\r\ncontract SchnoodleV1 is ERC777PresetFixedSupplyUpgradeable, OwnableUpgradeable {\r\n    uint256 private constant MAX = ~uint256(0);\r\n    uint256 private _totalSupply;\r\n    uint256 private _feePercent;\r\n    address private _eleemosynary;\r\n    uint256 private _donationPercent;\r\n\r\n    function initialize(uint256 initialTokens, address serviceAccount) public initializer {\r\n        __Ownable_init();\r\n        _totalSupply = initialTokens * 10 ** decimals();\r\n        super.initialize(\"Schnoodle\", \"SNOOD\", new address[](0), MAX - (MAX % totalSupply()), serviceAccount);\r\n    }\r\n\r\n    function totalSupply() public view virtual override returns (uint256) {\r\n        return _totalSupply;\r\n    }\r\n\r\n    function balanceOf(address account) public view override returns (uint256) {\r\n        uint256 reflectedBalance = super.balanceOf(account);\r\n        require(reflectedBalance <= super.totalSupply(), \"Schnoodle: Reflected balance must be less than total reflections\");\r\n        return reflectedBalance / _getRate();\r\n    }\r\n\r\n    function transfer(address recipient, uint256 amount) public virtual override returns (bool) {\r\n        uint256 reflectedAmount = amount * _getRate();\r\n        bool result = super.transfer(recipient, reflectedAmount);\r\n        _payFeeAndDonate(recipient, reflectedAmount, amount);\r\n        return result;\r\n    }\r\n\r\n    function transferFrom(address sender, address recipient, uint256 amount) public virtual override returns (bool) {\r\n        uint256 reflectedAmount = amount * _getRate();\r\n        bool result = super.transferFrom(sender, recipient, reflectedAmount);\r\n        _payFeeAndDonate(recipient, reflectedAmount, amount);\r\n        return result;\r\n    }\r\n\r\n    function _payFeeAndDonate(address recipient, uint256 reflectedAmount, uint256 amount) private {\r\n        _payFee(recipient, reflectedAmount);\r\n        \r\n        // The eleemosynary fund is optional\r\n        if (_eleemosynary != address(0)) {\r\n            uint256 donationAmount = amount * _getRate() / 100 * _donationPercent;\r\n            _send(recipient, _eleemosynary, donationAmount, \"\", \"\", true);\r\n            _payFee(_eleemosynary, donationAmount);\r\n        }\r\n    }\r\n\r\n    function _payFee(address recipient, uint256 reflectedAmount) private {\r\n        super._burn(recipient, reflectedAmount / 100 * _feePercent, \"\", \"\");\r\n    }\r\n\r\n    function _getRate() private view returns(uint256) {\r\n        return super.totalSupply() / totalSupply();\r\n    }\r\n\r\n    function changeFeePercent(uint256 percent) public onlyOwner {\r\n        _feePercent = percent;\r\n        emit FeePercentChanged(percent);\r\n    }\r\n\r\n    function changeEleemosynary(address account, uint256 percent) public onlyOwner {\r\n        _eleemosynary = account;\r\n        _donationPercent = percent;\r\n        emit EleemosynaryChanged(account, percent);\r\n    }\r\n\r\n    function _burn(address account, uint256 amount, bytes memory data, bytes memory operatorData) internal virtual override {\r\n        super._burn(account, amount * _getRate(), data, operatorData);\r\n        _totalSupply -= amount;\r\n    }\r\n\r\n    event FeePercentChanged(uint256 percent);\r\n\r\n    event EleemosynaryChanged(address indexed account, uint256 percent);\r\n}\r\n",
  "sourcePath": "C:\\Users\\micro\\OneDrive - X-treem Software\\Development\\Projects\\Blockchain\\Schnoodle\\contracts\\SchnoodleV1.sol",
  "compiler": {
    "name": "solc",
    "version": "0.8.9+commit.e5eed63a.Emscripten.clang"
  },
  "schemaVersion": "3.4.3",
  "updatedAt": "2021-11-08T02:51:20.780Z",
  "networkType": "ethereum",
  "devdoc": {
    "kind": "dev",
    "methods": {
      "allowance(address,address)": {
        "details": "See {IERC20-allowance}. Note that operator and allowance concepts are orthogonal: operators may not have allowance, and accounts with allowance may not be operators themselves."
      },
      "approve(address,uint256)": {
        "details": "See {IERC20-approve}. Note that accounts cannot have allowance issued by their operators."
      },
      "authorizeOperator(address)": {
        "details": "See {IERC777-authorizeOperator}."
      },
      "burn(uint256,bytes)": {
        "details": "See {IERC777-burn}. Also emits a {IERC20-Transfer} event for ERC20 compatibility."
      },
      "decimals()": {
        "details": "See {ERC20-decimals}. Always returns 18, as per the [ERC777 EIP](https://eips.ethereum.org/EIPS/eip-777#backward-compatibility)."
      },
      "defaultOperators()": {
        "details": "See {IERC777-defaultOperators}."
      },
      "granularity()": {
        "details": "See {IERC777-granularity}. This implementation always returns `1`."
      },
      "isOperatorFor(address,address)": {
        "details": "See {IERC777-isOperatorFor}."
      },
      "name()": {
        "details": "See {IERC777-name}."
      },
      "operatorBurn(address,uint256,bytes,bytes)": {
        "details": "See {IERC777-operatorBurn}. Emits {Burned} and {IERC20-Transfer} events."
      },
      "operatorSend(address,address,uint256,bytes,bytes)": {
        "details": "See {IERC777-operatorSend}. Emits {Sent} and {IERC20-Transfer} events."
      },
      "owner()": {
        "details": "Returns the address of the current owner."
      },
      "renounceOwnership()": {
        "details": "Leaves the contract without owner. It will not be possible to call `onlyOwner` functions anymore. Can only be called by the current owner. NOTE: Renouncing ownership will leave the contract without an owner, thereby removing any functionality that is only available to the owner."
      },
      "revokeOperator(address)": {
        "details": "See {IERC777-revokeOperator}."
      },
      "send(address,uint256,bytes)": {
        "details": "See {IERC777-send}. Also emits a {IERC20-Transfer} event for ERC20 compatibility."
      },
      "symbol()": {
        "details": "See {IERC777-symbol}."
      },
      "totalSupply()": {
        "details": "See {IERC777-totalSupply}."
      },
      "transfer(address,uint256)": {
        "details": "See {IERC20-transfer}. Unlike `send`, `recipient` is _not_ required to implement the {IERC777Recipient} interface if it is a contract. Also emits a {Sent} event."
      },
      "transferOwnership(address)": {
        "details": "Transfers ownership of the contract to a new account (`newOwner`). Can only be called by the current owner."
      }
    },
    "version": 1
  },
  "userdoc": {
    "kind": "user",
    "methods": {},
    "version": 1
  }
}