{
  "contractName": "SchnoodleV5",
  "abi": [
    {
      "anonymous": false,
      "inputs": [
        {
          "indexed": true,
          "internalType": "address",
          "name": "owner",
          "type": "address"
        },
        {
          "indexed": true,
          "internalType": "address",
          "name": "spender",
          "type": "address"
        },
        {
          "indexed": false,
          "internalType": "uint256",
          "name": "value",
          "type": "uint256"
        }
      ],
      "name": "Approval",
      "type": "event"
    },
    {
      "anonymous": false,
      "inputs": [
        {
          "indexed": true,
          "internalType": "address",
          "name": "operator",
          "type": "address"
        },
        {
          "indexed": true,
          "internalType": "address",
          "name": "tokenHolder",
          "type": "address"
        }
      ],
      "name": "AuthorizedOperator",
      "type": "event"
    },
    {
      "anonymous": false,
      "inputs": [
        {
          "indexed": true,
          "internalType": "address",
          "name": "operator",
          "type": "address"
        },
        {
          "indexed": true,
          "internalType": "address",
          "name": "from",
          "type": "address"
        },
        {
          "indexed": false,
          "internalType": "uint256",
          "name": "amount",
          "type": "uint256"
        },
        {
          "indexed": false,
          "internalType": "bytes",
          "name": "data",
          "type": "bytes"
        },
        {
          "indexed": false,
          "internalType": "bytes",
          "name": "operatorData",
          "type": "bytes"
        }
      ],
      "name": "Burned",
      "type": "event"
    },
    {
      "anonymous": false,
      "inputs": [
        {
          "indexed": true,
          "internalType": "address",
          "name": "account",
          "type": "address"
        },
        {
          "indexed": false,
          "internalType": "uint256",
          "name": "percent",
          "type": "uint256"
        }
      ],
      "name": "EleemosynaryChanged",
      "type": "event"
    },
    {
      "anonymous": false,
      "inputs": [
        {
          "indexed": false,
          "internalType": "uint256",
          "name": "percent",
          "type": "uint256"
        }
      ],
      "name": "FeePercentChanged",
      "type": "event"
    },
    {
      "anonymous": false,
      "inputs": [
        {
          "indexed": true,
          "internalType": "address",
          "name": "operator",
          "type": "address"
        },
        {
          "indexed": true,
          "internalType": "address",
          "name": "to",
          "type": "address"
        },
        {
          "indexed": false,
          "internalType": "uint256",
          "name": "amount",
          "type": "uint256"
        },
        {
          "indexed": false,
          "internalType": "bytes",
          "name": "data",
          "type": "bytes"
        },
        {
          "indexed": false,
          "internalType": "bytes",
          "name": "operatorData",
          "type": "bytes"
        }
      ],
      "name": "Minted",
      "type": "event"
    },
    {
      "anonymous": false,
      "inputs": [
        {
          "indexed": true,
          "internalType": "address",
          "name": "previousOwner",
          "type": "address"
        },
        {
          "indexed": true,
          "internalType": "address",
          "name": "newOwner",
          "type": "address"
        }
      ],
      "name": "OwnershipTransferred",
      "type": "event"
    },
    {
      "anonymous": false,
      "inputs": [
        {
          "indexed": true,
          "internalType": "address",
          "name": "operator",
          "type": "address"
        },
        {
          "indexed": true,
          "internalType": "address",
          "name": "tokenHolder",
          "type": "address"
        }
      ],
      "name": "RevokedOperator",
      "type": "event"
    },
    {
      "anonymous": false,
      "inputs": [
        {
          "indexed": true,
          "internalType": "address",
          "name": "operator",
          "type": "address"
        },
        {
          "indexed": true,
          "internalType": "address",
          "name": "from",
          "type": "address"
        },
        {
          "indexed": true,
          "internalType": "address",
          "name": "to",
          "type": "address"
        },
        {
          "indexed": false,
          "internalType": "uint256",
          "name": "amount",
          "type": "uint256"
        },
        {
          "indexed": false,
          "internalType": "bytes",
          "name": "data",
          "type": "bytes"
        },
        {
          "indexed": false,
          "internalType": "bytes",
          "name": "operatorData",
          "type": "bytes"
        }
      ],
      "name": "Sent",
      "type": "event"
    },
    {
      "anonymous": false,
      "inputs": [
        {
          "indexed": true,
          "internalType": "address",
          "name": "from",
          "type": "address"
        },
        {
          "indexed": true,
          "internalType": "address",
          "name": "to",
          "type": "address"
        },
        {
          "indexed": false,
          "internalType": "uint256",
          "name": "value",
          "type": "uint256"
        }
      ],
      "name": "Transfer",
      "type": "event"
    },
    {
      "inputs": [
        {
          "internalType": "address",
          "name": "operator",
          "type": "address"
        }
      ],
      "name": "authorizeOperator",
      "outputs": [],
      "stateMutability": "nonpayable",
      "type": "function"
    },
    {
      "inputs": [
        {
          "internalType": "uint256",
          "name": "amount",
          "type": "uint256"
        },
        {
          "internalType": "bytes",
          "name": "data",
          "type": "bytes"
        }
      ],
      "name": "burn",
      "outputs": [],
      "stateMutability": "nonpayable",
      "type": "function"
    },
    {
      "inputs": [],
      "name": "decimals",
      "outputs": [
        {
          "internalType": "uint8",
          "name": "",
          "type": "uint8"
        }
      ],
      "stateMutability": "pure",
      "type": "function"
    },
    {
      "inputs": [],
      "name": "defaultOperators",
      "outputs": [
        {
          "internalType": "address[]",
          "name": "",
          "type": "address[]"
        }
      ],
      "stateMutability": "view",
      "type": "function"
    },
    {
      "inputs": [],
      "name": "granularity",
      "outputs": [
        {
          "internalType": "uint256",
          "name": "",
          "type": "uint256"
        }
      ],
      "stateMutability": "view",
      "type": "function"
    },
    {
      "inputs": [
        {
          "internalType": "address",
          "name": "operator",
          "type": "address"
        },
        {
          "internalType": "address",
          "name": "tokenHolder",
          "type": "address"
        }
      ],
      "name": "isOperatorFor",
      "outputs": [
        {
          "internalType": "bool",
          "name": "",
          "type": "bool"
        }
      ],
      "stateMutability": "view",
      "type": "function"
    },
    {
      "inputs": [],
      "name": "name",
      "outputs": [
        {
          "internalType": "string",
          "name": "",
          "type": "string"
        }
      ],
      "stateMutability": "view",
      "type": "function"
    },
    {
      "inputs": [
        {
          "internalType": "address",
          "name": "account",
          "type": "address"
        },
        {
          "internalType": "uint256",
          "name": "amount",
          "type": "uint256"
        },
        {
          "internalType": "bytes",
          "name": "data",
          "type": "bytes"
        },
        {
          "internalType": "bytes",
          "name": "operatorData",
          "type": "bytes"
        }
      ],
      "name": "operatorBurn",
      "outputs": [],
      "stateMutability": "nonpayable",
      "type": "function"
    },
    {
      "inputs": [
        {
          "internalType": "address",
          "name": "sender",
          "type": "address"
        },
        {
          "internalType": "address",
          "name": "recipient",
          "type": "address"
        },
        {
          "internalType": "uint256",
          "name": "amount",
          "type": "uint256"
        },
        {
          "internalType": "bytes",
          "name": "data",
          "type": "bytes"
        },
        {
          "internalType": "bytes",
          "name": "operatorData",
          "type": "bytes"
        }
      ],
      "name": "operatorSend",
      "outputs": [],
      "stateMutability": "nonpayable",
      "type": "function"
    },
    {
      "inputs": [],
      "name": "owner",
      "outputs": [
        {
          "internalType": "address",
          "name": "",
          "type": "address"
        }
      ],
      "stateMutability": "view",
      "type": "function"
    },
    {
      "inputs": [],
      "name": "renounceOwnership",
      "outputs": [],
      "stateMutability": "nonpayable",
      "type": "function"
    },
    {
      "inputs": [
        {
          "internalType": "address",
          "name": "operator",
          "type": "address"
        }
      ],
      "name": "revokeOperator",
      "outputs": [],
      "stateMutability": "nonpayable",
      "type": "function"
    },
    {
      "inputs": [
        {
          "internalType": "address",
          "name": "recipient",
          "type": "address"
        },
        {
          "internalType": "uint256",
          "name": "amount",
          "type": "uint256"
        },
        {
          "internalType": "bytes",
          "name": "data",
          "type": "bytes"
        }
      ],
      "name": "send",
      "outputs": [],
      "stateMutability": "nonpayable",
      "type": "function"
    },
    {
      "inputs": [],
      "name": "symbol",
      "outputs": [
        {
          "internalType": "string",
          "name": "",
          "type": "string"
        }
      ],
      "stateMutability": "view",
      "type": "function"
    },
    {
      "inputs": [
        {
          "internalType": "address",
          "name": "newOwner",
          "type": "address"
        }
      ],
      "name": "transferOwnership",
      "outputs": [],
      "stateMutability": "nonpayable",
      "type": "function"
    },
    {
      "inputs": [
        {
          "internalType": "string",
          "name": "name",
          "type": "string"
        },
        {
          "internalType": "string",
          "name": "symbol",
          "type": "string"
        },
        {
          "internalType": "address[]",
          "name": "defaultOperators",
          "type": "address[]"
        },
        {
          "internalType": "uint256",
          "name": "initialSupply",
          "type": "uint256"
        },
        {
          "internalType": "address",
          "name": "owner",
          "type": "address"
        }
      ],
      "name": "initialize",
      "outputs": [],
      "stateMutability": "nonpayable",
      "type": "function"
    },
    {
      "inputs": [
        {
          "internalType": "uint256",
          "name": "initialTokens",
          "type": "uint256"
        },
        {
          "internalType": "address",
          "name": "serviceAccount",
          "type": "address"
        }
      ],
      "name": "initialize",
      "outputs": [],
      "stateMutability": "nonpayable",
      "type": "function"
    },
    {
      "inputs": [],
      "name": "totalSupply",
      "outputs": [
        {
          "internalType": "uint256",
          "name": "",
          "type": "uint256"
        }
      ],
      "stateMutability": "view",
      "type": "function"
    },
    {
      "inputs": [
        {
          "internalType": "address",
          "name": "account",
          "type": "address"
        }
      ],
      "name": "balanceOf",
      "outputs": [
        {
          "internalType": "uint256",
          "name": "",
          "type": "uint256"
        }
      ],
      "stateMutability": "view",
      "type": "function"
    },
    {
      "inputs": [
        {
          "internalType": "address",
          "name": "recipient",
          "type": "address"
        },
        {
          "internalType": "uint256",
          "name": "amount",
          "type": "uint256"
        }
      ],
      "name": "transfer",
      "outputs": [
        {
          "internalType": "bool",
          "name": "",
          "type": "bool"
        }
      ],
      "stateMutability": "nonpayable",
      "type": "function"
    },
    {
      "inputs": [
        {
          "internalType": "address",
          "name": "holder",
          "type": "address"
        },
        {
          "internalType": "address",
          "name": "spender",
          "type": "address"
        }
      ],
      "name": "allowance",
      "outputs": [
        {
          "internalType": "uint256",
          "name": "",
          "type": "uint256"
        }
      ],
      "stateMutability": "view",
      "type": "function"
    },
    {
      "inputs": [
        {
          "internalType": "address",
          "name": "spender",
          "type": "address"
        },
        {
          "internalType": "uint256",
          "name": "value",
          "type": "uint256"
        }
      ],
      "name": "approve",
      "outputs": [
        {
          "internalType": "bool",
          "name": "",
          "type": "bool"
        }
      ],
      "stateMutability": "nonpayable",
      "type": "function"
    },
    {
      "inputs": [
        {
          "internalType": "address",
          "name": "sender",
          "type": "address"
        },
        {
          "internalType": "address",
          "name": "recipient",
          "type": "address"
        },
        {
          "internalType": "uint256",
          "name": "amount",
          "type": "uint256"
        }
      ],
      "name": "transferFrom",
      "outputs": [
        {
          "internalType": "bool",
          "name": "",
          "type": "bool"
        }
      ],
      "stateMutability": "nonpayable",
      "type": "function"
    },
    {
      "inputs": [
        {
          "internalType": "uint256",
          "name": "percent",
          "type": "uint256"
        }
      ],
      "name": "changeFeePercent",
      "outputs": [],
      "stateMutability": "nonpayable",
      "type": "function"
    },
    {
      "inputs": [
        {
          "internalType": "address",
          "name": "account",
          "type": "address"
        },
        {
          "internalType": "uint256",
          "name": "percent",
          "type": "uint256"
        }
      ],
      "name": "changeEleemosynary",
      "outputs": [],
      "stateMutability": "nonpayable",
      "type": "function"
    }
  ],
  "bytecode": "0x608060405234801561001057600080fd5b506128b3806100206000396000f3fe608060405234801561001057600080fd5b50600436106101735760003560e01c8063768f950a116100de578063d95b637111610097578063f2fde38b11610071578063f2fde38b14610307578063fad8b32a1461031a578063fc673c4f1461032d578063fe9d93031461034057600080fd5b8063d95b6371146102ce578063da35a26f146102e1578063dd62ed3e146102f457600080fd5b8063768f950a1461025f5780638da5cb5b14610272578063959b8c3f1461028d57806395d89b41146102a05780639bd9bbc6146102a8578063a9059cbb146102bb57600080fd5b8063313ce56711610130578063313ce5671461020857806334eddf3e14610217578063556f0dc71461022a57806362ad1b831461023157806370a0823114610244578063715018a61461025757600080fd5b806306e485381461017857806306fdde0314610196578063095ea7b3146101ab57806318160ddd146101ce57806323b872dd146101e05780632f5d1467146101f3575b600080fd5b610180610353565b60405161018d9190611f05565b60405180910390f35b61019e6103b5565b60405161018d9190611f9f565b6101be6101b9366004611fd7565b61043e565b604051901515815260200161018d565b60c9545b60405190815260200161018d565b6101be6101ee366004612003565b61045b565b610206610201366004611fd7565b6104ca565b005b6040516012815260200161018d565b610206610225366004612044565b610557565b60016101d2565b61020661023f366004612114565b6105bc565b6101d26102523660046121a7565b6105f8565b6102066106a4565b61020661026d3660046121c4565b6106da565b6097546040516001600160a01b03909116815260200161018d565b61020661029b3660046121a7565b61075e565b61019e61087b565b6102066102b63660046122d7565b61088a565b6101be6102c9366004611fd7565b6108ad565b6101be6102dc366004612330565b61091a565b6102066102ef366004612369565b6109bb565b6101d2610302366004612330565b610abd565b6102066103153660046121a7565b610af7565b6102066103283660046121a7565b610b92565b61020661033b36600461238e565b610cad565b61020661034e36600461240e565b610ce5565b606060378054806020026020016040519081016040528092919081815260200182805480156103ab57602002820191906000526020600020905b81546001600160a01b0316815260019091019060200180831161038d575b5050505050905090565b6060603580546103c490612455565b80601f01602080910402602001604051908101604052809291908181526020018280546103f090612455565b80156103ab5780601f10610412576101008083540402835291602001916103ab565b820191906000526020600020905b81548152906001019060200180831161042057509395945050505050565b60006104528361044d84610d04565b610d18565b90505b92915050565b60008061046783610d04565b90506000610476868684610d30565b9050846001600160a01b0316866001600160a01b031660008051602061285e833981519152866040516104ab91815260200190565b60405180910390a36104c1858584610e5e610e81565b95945050505050565b6097546001600160a01b031633146104fd5760405162461bcd60e51b81526004016104f49061248f565b60405180910390fd5b60cb80546001600160a01b0319166001600160a01b03841690811790915560cc8290556040518281527f14771002f2414c27e60fe966b41bcb8004589b44c52a1f73016757cc92bf5ada9060200160405180910390a25050565b6097546001600160a01b031633146105815760405162461bcd60e51b81526004016104f49061248f565b60ca8190556040518181527f91955c12515f4eb8f1ff79df82d1933ff11b6d3b9a3019c6568840616ec36a749060200160405180910390a150565b6105c6338661091a565b6105e25760405162461bcd60e51b81526004016104f4906124c4565b6105f185858585856001610f20565b5050505050565b6001600160a01b03811660009081526033602052604081205460345481111561068b576040805162461bcd60e51b81526020600482015260248101919091527f5363686e6f6f646c653a205265666c65637465642062616c616e6365206d757360448201527f74206265206c657373207468616e20746f74616c207265666c656374696f6e7360648201526084016104f4565b610693610f8d565b61069d908261253c565b9392505050565b6097546001600160a01b031633146106ce5760405162461bcd60e51b81526004016104f49061248f565b6106d86000610faa565b565b600054610100900460ff166106f55760005460ff16156106f9565b303b155b6107155760405162461bcd60e51b81526004016104f490612550565b600054610100900460ff16158015610737576000805461ffff19166101011790555b6107448686868686610ffc565b8015610756576000805461ff00191690555b505050505050565b6001600160a01b03811633036107c25760405162461bcd60e51b8152602060048201526024808201527f4552433737373a20617574686f72697a696e672073656c66206173206f70657260448201526330ba37b960e11b60648201526084016104f4565b6001600160a01b03811660009081526038602052604090205460ff161561081357336000908152603a602090815260408083206001600160a01b03851684529091529020805460ff19169055610842565b3360009081526039602090815260408083206001600160a01b03851684529091529020805460ff191660011790555b60405133906001600160a01b038316907ff4caeb2d6ca8932a215a353d0703c326ec2d81fc68170f320eb2ab49e9df61f990600090a350565b6060603680546103c490612455565b6108a833848484604051806020016040528060008152506001610f20565b505050565b6000806108b983610d04565b905060006108c7858361103b565b90506001600160a01b038516336001600160a01b031660008051602061285e833981519152866040516108fc91815260200190565b60405180910390a3610912858584610e5e610e81565b949350505050565b6000816001600160a01b0316836001600160a01b0316148061098557506001600160a01b03831660009081526038602052604090205460ff16801561098557506001600160a01b038083166000908152603a602090815260408083209387168352929052205460ff16155b806104525750506001600160a01b0390811660009081526039602090815260408083209490931682529290925290205460ff1690565b600054610100900460ff166109d65760005460ff16156109da565b303b155b6109f65760405162461bcd60e51b81526004016104f490612550565b600054610100900460ff16158015610a18576000805461ffff19166101011790555b610a206110ee565b610a2c6012600a612682565b610a369084612691565b60c981905560408051808201825260098152685363686e6f6f646c6560b81b60208083019190915282518084018452600581526414d393d3d160da1b81830152835160008152918201909352610aa793919291610a95906000196126b0565b610aa1906000196126c4565b866106da565b80156108a8576000805461ff0019169055505050565b6000610ac7610f8d565b6001600160a01b038085166000908152603b6020908152604080832093871683529290522054610452919061253c565b6097546001600160a01b03163314610b215760405162461bcd60e51b81526004016104f49061248f565b6001600160a01b038116610b865760405162461bcd60e51b815260206004820152602660248201527f4f776e61626c653a206e6577206f776e657220697320746865207a65726f206160448201526564647265737360d01b60648201526084016104f4565b610b8f81610faa565b50565b336001600160a01b03821603610bf45760405162461bcd60e51b815260206004820152602160248201527f4552433737373a207265766f6b696e672073656c66206173206f70657261746f6044820152603960f91b60648201526084016104f4565b6001600160a01b03811660009081526038602052604090205460ff1615610c4857336000908152603a602090815260408083206001600160a01b03851684529091529020805460ff19166001179055610c74565b3360009081526039602090815260408083206001600160a01b03851684529091529020805460ff191690555b60405133906001600160a01b038316907f50546e66e5f44d728365dc3908c63bc5cfeeab470722c1677e3073a6ac294aa190600090a350565b610cb7338561091a565b610cd35760405162461bcd60e51b81526004016104f4906124c4565b610cdf8484848461111d565b50505050565b610d003383836040518060200160405280600081525061111d565b5050565b6000610d0e610f8d565b6104559083612691565b600033610d2681858561114e565b5060019392505050565b60006001600160a01b038316610d585760405162461bcd60e51b81526004016104f4906126db565b6001600160a01b038416610dbd5760405162461bcd60e51b815260206004820152602660248201527f4552433737373a207472616e736665722066726f6d20746865207a65726f206160448201526564647265737360d01b60648201526084016104f4565b6000339050610dee818686866040518060200160405280600081525060405180602001604052806000815250611276565b610df985828561139d565b610e25818686866040518060200160405280600081525060405180602001604052806000815250611411565b610e538186868660405180602001604052806000815250604051806020016040528060008152506000611565565b506001949350505050565b610e6982338361114e565b60cb546108a89083906001600160a01b031683610d30565b610e8c84848461172a565b60cb546001600160a01b031615610cdf576000606460cc5485610eaf9190612691565b610eb9919061253c565b90506000610ec682610d04565b9050610ed686828563ffffffff16565b60cb546040518381526001600160a01b039182169188169060008051602061285e8339815191529060200160405180910390a360cb54610756906001600160a01b0316838361172a565b6000610f2b85610d04565b9050610f3b8787838787876117b9565b856001600160a01b0316876001600160a01b031660008051602061285e83398151915287604051610f6e91815260200190565b60405180910390a3610f8486868361189c610e81565b50505050505050565b6000610f9860c95490565b603454610fa5919061253c565b905090565b609780546001600160a01b038381166001600160a01b0319831681179093556040519116919082907f8be0079c531659141344cd1fd0a4f28419497f9722a3daafe3b4186f6b6457e090600090a35050565b600054610100900460ff166110235760405162461bcd60e51b81526004016104f49061271f565b61102e8585856118d5565b6105f18585858585611abf565b60006001600160a01b0383166110635760405162461bcd60e51b81526004016104f4906126db565b6000339050611094818286866040518060200160405280600081525060405180602001604052806000815250611276565b6110c0818286866040518060200160405280600081525060405180602001604052806000815250611411565b610d268182868660405180602001604052806000815250604051806020016040528060008152506000611565565b600054610100900460ff166111155760405162461bcd60e51b81526004016104f49061271f565b6106d8611b10565b6111318461112a85610d04565b8484611b40565b8260c9600082825461114391906126c4565b909155505050505050565b6001600160a01b0383166111b25760405162461bcd60e51b815260206004820152602560248201527f4552433737373a20617070726f76652066726f6d20746865207a65726f206164604482015264647265737360d81b60648201526084016104f4565b6001600160a01b0382166112145760405162461bcd60e51b815260206004820152602360248201527f4552433737373a20617070726f766520746f20746865207a65726f206164647260448201526265737360e81b60648201526084016104f4565b6001600160a01b038381166000818152603b602090815260408083209487168084529482529182902085905590518481527f8c5be1e5ebec7d5bd14f71427d1e84f3dd0314c0f7b2291e5b200ac8c7c3b92591015b60405180910390a3505050565b60405163555ddc6560e11b81526001600160a01b03861660048201527f29ddb589b1fb5fc7cf394961c1adf5f8c6454761adf795e67fe149f658abe8956024820152600090731820a4b7618bde71dce8cdc73aab6c95905fad249063aabbb8ca90604401602060405180830381865afa1580156112f7573d6000803e3d6000fd5b505050506040513d601f19601f8201168201806040525081019061131b919061276a565b90506001600160a01b03811615610f8457604051633ad5cbc160e11b81526001600160a01b038216906375ab978290611362908a908a908a908a908a908a90600401612787565b600060405180830381600087803b15801561137c57600080fd5b505af1158015611390573d6000803e3d6000fd5b5050505050505050505050565b60006113a98484610abd565b90506000198114610cdf57818110156114045760405162461bcd60e51b815260206004820152601e60248201527f4552433737373a20696e73756666696369656e7420616c6c6f77616e6365000060448201526064016104f4565b610cdf848484840361114e565b6001600160a01b0385166000908152603360205260409020548381101561148a5760405162461bcd60e51b815260206004820152602760248201527f4552433737373a207472616e7366657220616d6f756e7420657863656564732060448201526662616c616e636560c81b60648201526084016104f4565b6001600160a01b038087166000908152603360205260408082208785039055918716815290812080548692906114c19084906127e1565b92505081905550846001600160a01b0316866001600160a01b0316886001600160a01b03167f06b541ddaa720db2b10a4d0cdac39b8d360425fc073085fac19bc82614677987878787604051611519939291906127f9565b60405180910390a4846001600160a01b0316866001600160a01b031660008051602061285e8339815191528660405161155491815260200190565b60405180910390a350505050505050565b60405163555ddc6560e11b81526001600160a01b03861660048201527fb281fc8c12954d22544db45de3159a39272895b169a852b314f9cc762e44c53b6024820152600090731820a4b7618bde71dce8cdc73aab6c95905fad249063aabbb8ca90604401602060405180830381865afa1580156115e6573d6000803e3d6000fd5b505050506040513d601f19601f8201168201806040525081019061160a919061276a565b90506001600160a01b03811615611686576040516223de2960e01b81526001600160a01b038216906223de299061164f908b908b908b908b908b908b90600401612787565b600060405180830381600087803b15801561166957600080fd5b505af115801561167d573d6000803e3d6000fd5b50505050611720565b8115611720576001600160a01b0386163b156117205760405162461bcd60e51b815260206004820152604d60248201527f4552433737373a20746f6b656e20726563697069656e7420636f6e747261637460448201527f20686173206e6f20696d706c656d656e74657220666f7220455243373737546f60648201526c1ad95b9cd49958da5c1a595b9d609a1b608482015260a4016104f4565b5050505050505050565b61176d8360ca5460648461173e919061253c565b6117489190612691565b6040518060200160405280600081525060405180602001604052806000815250611b40565b60006001600160a01b0316836001600160a01b031660008051602061285e833981519152606460ca54866117a19190612691565b6117ab919061253c565b604051908152602001611269565b6001600160a01b03861661181a5760405162461bcd60e51b815260206004820152602260248201527f4552433737373a2073656e642066726f6d20746865207a65726f206164647265604482015261737360f01b60648201526084016104f4565b6001600160a01b0385166118705760405162461bcd60e51b815260206004820181905260248201527f4552433737373a2073656e6420746f20746865207a65726f206164647265737360448201526064016104f4565b3361187f818888888888611276565b61188d818888888888611411565b610f8481888888888888611565565b60cb54604080516020808201835260008083528351918201909352918252610d009285926001600160a01b0390911691859160016117b9565b600054610100900460ff166118fc5760405162461bcd60e51b81526004016104f49061271f565b825161190f906035906020860190611e17565b508151611923906036906020850190611e17565b508051611937906037906020840190611e9b565b5060005b81518110156119a05760016038600084848151811061195c5761195c61282e565b6020908102919091018101516001600160a01b03168252810191909152604001600020805460ff19169115159190911790558061199881612844565b91505061193b565b506040516329965a1d60e01b815230600482018190527fac7fbab5f54a3ca8194167523c6753bfeb96a445279294b6125b68cce217705460248301526044820152731820a4b7618bde71dce8cdc73aab6c95905fad24906329965a1d90606401600060405180830381600087803b158015611a1a57600080fd5b505af1158015611a2e573d6000803e3d6000fd5b50506040516329965a1d60e01b815230600482018190527faea199e31a596269b42cdafd93407f14436db6e4cad65417994c2eb37381e05a60248301526044820152731820a4b7618bde71dce8cdc73aab6c95905fad2492506329965a1d9150606401600060405180830381600087803b158015611aab57600080fd5b505af1158015610f84573d6000803e3d6000fd5b600054610100900460ff16611ae65760405162461bcd60e51b81526004016104f49061271f565b6105f181836040518060200160405280600081525060405180602001604052806000815250611ce3565b600054610100900460ff16611b375760405162461bcd60e51b81526004016104f49061271f565b6106d833610faa565b6001600160a01b038416611ba15760405162461bcd60e51b815260206004820152602260248201527f4552433737373a206275726e2066726f6d20746865207a65726f206164647265604482015261737360f01b60648201526084016104f4565b33611bb181866000878787611276565b6001600160a01b03851660009081526033602052604090205484811015611c265760405162461bcd60e51b815260206004820152602360248201527f4552433737373a206275726e20616d6f756e7420657863656564732062616c616044820152626e636560e81b60648201526084016104f4565b6001600160a01b0386166000908152603360205260408120868303905560348054879290611c559084906126c4565b92505081905550856001600160a01b0316826001600160a01b03167fa78a9be3a7b862d26933ad85fb11d80ef66b8f972d7cbba06621d583943a4098878787604051611ca3939291906127f9565b60405180910390a36040518581526000906001600160a01b0388169060008051602061285e833981519152906020015b60405180910390a3505050505050565b610cdf8484848460016001600160a01b038516611d425760405162461bcd60e51b815260206004820181905260248201527f4552433737373a206d696e7420746f20746865207a65726f206164647265737360448201526064016104f4565b60003390508460346000828254611d5991906127e1565b90915550506001600160a01b03861660009081526033602052604081208054879290611d869084906127e1565b90915550611d9c90508160008888888888611565565b856001600160a01b0316816001600160a01b03167f2fe5be0146f74c5bce36c0b80911af6c7d86ff27e89d5cfa61fc681327954e5d878787604051611de3939291906127f9565b60405180910390a36040518581526001600160a01b0387169060009060008051602061285e83398151915290602001611cd3565b828054611e2390612455565b90600052602060002090601f016020900481019282611e455760008555611e8b565b82601f10611e5e57805160ff1916838001178555611e8b565b82800160010185558215611e8b579182015b82811115611e8b578251825591602001919060010190611e70565b50611e97929150611ef0565b5090565b828054828255906000526020600020908101928215611e8b579160200282015b82811115611e8b57825182546001600160a01b0319166001600160a01b03909116178255602090920191600190910190611ebb565b5b80821115611e975760008155600101611ef1565b6020808252825182820181905260009190848201906040850190845b81811015611f465783516001600160a01b031683529284019291840191600101611f21565b50909695505050505050565b6000815180845260005b81811015611f7857602081850181015186830182015201611f5c565b81811115611f8a576000602083870101525b50601f01601f19169290920160200192915050565b6020815260006104526020830184611f52565b6001600160a01b0381168114610b8f57600080fd5b8035611fd281611fb2565b919050565b60008060408385031215611fea57600080fd5b8235611ff581611fb2565b946020939093013593505050565b60008060006060848603121561201857600080fd5b833561202381611fb2565b9250602084013561203381611fb2565b929592945050506040919091013590565b60006020828403121561205657600080fd5b5035919050565b634e487b7160e01b600052604160045260246000fd5b604051601f8201601f1916810167ffffffffffffffff8111828210171561209c5761209c61205d565b604052919050565b600082601f8301126120b557600080fd5b813567ffffffffffffffff8111156120cf576120cf61205d565b6120e2601f8201601f1916602001612073565b8181528460208386010111156120f757600080fd5b816020850160208301376000918101602001919091529392505050565b600080600080600060a0868803121561212c57600080fd5b853561213781611fb2565b9450602086013561214781611fb2565b935060408601359250606086013567ffffffffffffffff8082111561216b57600080fd5b61217789838a016120a4565b9350608088013591508082111561218d57600080fd5b5061219a888289016120a4565b9150509295509295909350565b6000602082840312156121b957600080fd5b813561069d81611fb2565b600080600080600060a086880312156121dc57600080fd5b853567ffffffffffffffff808211156121f457600080fd5b61220089838a016120a4565b965060209150818801358181111561221757600080fd5b6122238a828b016120a4565b96505060408801358181111561223857600080fd5b8801601f81018a1361224957600080fd5b80358281111561225b5761225b61205d565b8060051b925061226c848401612073565b818152928201840192848101908c85111561228657600080fd5b928501925b848410156122b057833592506122a083611fb2565b828252928501929085019061228b565b9750505050606088013593506122cb91505060808701611fc7565b90509295509295909350565b6000806000606084860312156122ec57600080fd5b83356122f781611fb2565b925060208401359150604084013567ffffffffffffffff81111561231a57600080fd5b612326868287016120a4565b9150509250925092565b6000806040838503121561234357600080fd5b823561234e81611fb2565b9150602083013561235e81611fb2565b809150509250929050565b6000806040838503121561237c57600080fd5b82359150602083013561235e81611fb2565b600080600080608085870312156123a457600080fd5b84356123af81611fb2565b935060208501359250604085013567ffffffffffffffff808211156123d357600080fd5b6123df888389016120a4565b935060608701359150808211156123f557600080fd5b50612402878288016120a4565b91505092959194509250565b6000806040838503121561242157600080fd5b82359150602083013567ffffffffffffffff81111561243f57600080fd5b61244b858286016120a4565b9150509250929050565b600181811c9082168061246957607f821691505b60208210810361248957634e487b7160e01b600052602260045260246000fd5b50919050565b6020808252818101527f4f776e61626c653a2063616c6c6572206973206e6f7420746865206f776e6572604082015260600190565b6020808252602c908201527f4552433737373a2063616c6c6572206973206e6f7420616e206f70657261746f60408201526b39103337b9103437b63232b960a11b606082015260800190565b634e487b7160e01b600052601260045260246000fd5b634e487b7160e01b600052601160045260246000fd5b60008261254b5761254b612510565b500490565b6020808252602e908201527f496e697469616c697a61626c653a20636f6e747261637420697320616c72656160408201526d191e481a5b9a5d1a585b1a5e995960921b606082015260800190565b600181815b808511156125d95781600019048211156125bf576125bf612526565b808516156125cc57918102915b93841c93908002906125a3565b509250929050565b6000826125f057506001610455565b816125fd57506000610455565b8160018114612613576002811461261d57612639565b6001915050610455565b60ff84111561262e5761262e612526565b50506001821b610455565b5060208310610133831016604e8410600b841016171561265c575081810a610455565b612666838361259e565b806000190482111561267a5761267a612526565b029392505050565b600061045260ff8416836125e1565b60008160001904831182151516156126ab576126ab612526565b500290565b6000826126bf576126bf612510565b500690565b6000828210156126d6576126d6612526565b500390565b60208082526024908201527f4552433737373a207472616e7366657220746f20746865207a65726f206164646040820152637265737360e01b606082015260800190565b6020808252602b908201527f496e697469616c697a61626c653a20636f6e7472616374206973206e6f74206960408201526a6e697469616c697a696e6760a81b606082015260800190565b60006020828403121561277c57600080fd5b815161069d81611fb2565b6001600160a01b0387811682528681166020830152851660408201526060810184905260c0608082018190526000906127c290830185611f52565b82810360a08401526127d48185611f52565b9998505050505050505050565b600082198211156127f4576127f4612526565b500190565b8381526060602082015260006128126060830185611f52565b82810360408401526128248185611f52565b9695505050505050565b634e487b7160e01b600052603260045260246000fd5b60006001820161285657612856612526565b506001019056feddf252ad1be2c89b69c2b068fc378daa952ba7f163c4a11628f55a4df523b3efa26469706673582212208857d5e0e39b80565e2980833947fa140f55b55dfdffb36dcc6ea39aabf39ab264736f6c634300080d0033",
  "immutableReferences": {},
  "source": "// contracts/SchnoodleV5.sol\r\n// SPDX-License-Identifier: MIT\r\npragma solidity ^0.8.0;\r\n\r\nimport \"@openzeppelin/contracts-upgradeable/proxy/utils/Initializable.sol\";\r\nimport \"@openzeppelin/contracts-upgradeable/token/ERC777/presets/ERC777PresetFixedSupplyUpgradeable.sol\";\r\nimport \"@openzeppelin/contracts-upgradeable/access/OwnableUpgradeable.sol\";\r\n\r\ncontract SchnoodleV5 is ERC777PresetFixedSupplyUpgradeable, OwnableUpgradeable {\r\n    uint256 private constant MAX = ~uint256(0);\r\n    uint256 private _totalSupply;\r\n    uint256 private _feePercent;\r\n    address private _eleemosynary;\r\n    uint256 private _donationPercent;\r\n\r\n    function initialize(uint256 initialTokens, address serviceAccount) public initializer {\r\n        __Ownable_init();\r\n        _totalSupply = initialTokens * 10 ** decimals();\r\n        super.initialize(\"Schnoodle\", \"SNOOD\", new address[](0), MAX - (MAX % totalSupply()), serviceAccount);\r\n    }\r\n\r\n    function totalSupply() public view virtual override returns (uint256) {\r\n        return _totalSupply;\r\n    }\r\n\r\n    function balanceOf(address account) public view override returns (uint256) {\r\n        uint256 reflectedBalance = super.balanceOf(account);\r\n        require(reflectedBalance <= super.totalSupply(), \"Schnoodle: Reflected balance must be less than total reflections\");\r\n        return reflectedBalance / _getRate();\r\n    }\r\n\r\n    function transfer(address recipient, uint256 amount) public virtual override returns (bool) {\r\n        uint256 reflectedAmount = _getReflectedAmount(amount);\r\n        bool result = super.transfer(recipient, reflectedAmount);\r\n        emit Transfer(_msgSender(), recipient, amount);\r\n        _payFeeAndDonate(recipient, amount, reflectedAmount, _transferToEleemosynary);\r\n        return result;\r\n    }\r\n\r\n    function allowance(address holder, address spender) public view virtual override returns (uint256) {\r\n        return super.allowance(holder, spender) / _getRate();\r\n    }\r\n\r\n    function approve(address spender, uint256 value) public virtual override returns (bool) {\r\n        return super.approve(spender, _getReflectedAmount(value));\r\n    }\r\n\r\n    function transferFrom(address sender, address recipient, uint256 amount) public virtual override returns (bool) {\r\n        uint256 reflectedAmount = _getReflectedAmount(amount);\r\n        bool result = super.transferFrom(sender, recipient, reflectedAmount);\r\n        emit Transfer(sender, recipient, amount);\r\n        _payFeeAndDonate(recipient, amount, reflectedAmount, _transferToEleemosynary);\r\n        return result;\r\n    }\r\n\r\n    function _send(address from, address to, uint256 amount, bytes memory userData, bytes memory operatorData, bool requireReceptionAck) internal virtual override {\r\n        uint256 reflectedAmount = _getReflectedAmount(amount);\r\n        super._send(from, to, reflectedAmount, userData, operatorData, requireReceptionAck);\r\n        emit Transfer(from, to, amount);\r\n        _payFeeAndDonate(to, amount, reflectedAmount, _sendToEleemosynary);\r\n    }\r\n\r\n    function _transferToEleemosynary(address recipient, uint256 reflectedDonationAmount) internal {\r\n        _approve(recipient, _msgSender(), reflectedDonationAmount);\r\n        super.transferFrom(recipient, _eleemosynary, reflectedDonationAmount);\r\n    }\r\n\r\n    function _sendToEleemosynary(address recipient, uint256 reflectedDonationAmount) internal {\r\n        super._send(recipient, _eleemosynary, reflectedDonationAmount, \"\", \"\", true);\r\n    }\r\n\r\n    function _payFeeAndDonate(address recipient, uint256 amount, uint256 reflectedAmount, function(address, uint256) internal donateCallback) private {\r\n        _payFee(recipient, amount, reflectedAmount);\r\n        \r\n        // The eleemosynary fund is optional\r\n        if (_eleemosynary != address(0)) {\r\n            uint256 donationAmount = amount * _donationPercent / 100;\r\n            uint256 reflectedDonationAmount = _getReflectedAmount(donationAmount);\r\n            donateCallback(recipient, reflectedDonationAmount);\r\n            emit Transfer(recipient, _eleemosynary, donationAmount);\r\n            _payFee(_eleemosynary, donationAmount, reflectedDonationAmount);\r\n        }\r\n    }\r\n\r\n    function _payFee(address recipient, uint256 amount, uint256 reflectedAmount) private {\r\n        super._burn(recipient, reflectedAmount / 100 * _feePercent, \"\", \"\");\r\n        emit Transfer(recipient, address(0), amount * _feePercent / 100);\r\n    }\r\n\r\n    function changeFeePercent(uint256 percent) public onlyOwner {\r\n        _feePercent = percent;\r\n        emit FeePercentChanged(percent);\r\n    }\r\n\r\n    function changeEleemosynary(address account, uint256 percent) public onlyOwner {\r\n        _eleemosynary = account;\r\n        _donationPercent = percent;\r\n        emit EleemosynaryChanged(account, percent);\r\n    }\r\n\r\n    function _burn(address account, uint256 amount, bytes memory data, bytes memory operatorData) internal virtual override {\r\n        super._burn(account, _getReflectedAmount(amount), data, operatorData);\r\n        _totalSupply -= amount;\r\n    }\r\n\r\n    function _getReflectedAmount(uint256 amount) private view returns(uint256) {\r\n        return amount * _getRate();\r\n    }\r\n\r\n    function _getRate() private view returns(uint256) {\r\n        return super.totalSupply() / totalSupply();\r\n    }\r\n\r\n    event FeePercentChanged(uint256 percent);\r\n\r\n    event EleemosynaryChanged(address indexed account, uint256 percent);\r\n}\r\n",
  "sourcePath": "C:\\Users\\micro\\OneDrive - X-treem Software\\Development\\Projects\\Blockchain\\Schnoodle\\contracts\\contracts\\SchnoodleV5.sol",
  "compiler": {
    "name": "solc",
    "version": "0.8.13+commit.abaa5c0e.Emscripten.clang"
  },
  "schemaVersion": "3.4.3",
  "updatedAt": "2022-04-28T21:55:27.579Z",
  "devdoc": {
    "kind": "dev",
    "methods": {
      "allowance(address,address)": {
        "details": "See {IERC20-allowance}. Note that operator and allowance concepts are orthogonal: operators may not have allowance, and accounts with allowance may not be operators themselves."
      },
      "approve(address,uint256)": {
        "details": "See {IERC20-approve}. NOTE: If `value` is the maximum `uint256`, the allowance is not updated on `transferFrom`. This is semantically equivalent to an infinite approval. Note that accounts cannot have allowance issued by their operators."
      },
      "authorizeOperator(address)": {
        "details": "See {IERC777-authorizeOperator}."
      },
      "burn(uint256,bytes)": {
        "details": "See {IERC777-burn}. Also emits a {IERC20-Transfer} event for ERC20 compatibility."
      },
      "decimals()": {
        "details": "See {ERC20-decimals}. Always returns 18, as per the [ERC777 EIP](https://eips.ethereum.org/EIPS/eip-777#backward-compatibility)."
      },
      "defaultOperators()": {
        "details": "See {IERC777-defaultOperators}."
      },
      "granularity()": {
        "details": "See {IERC777-granularity}. This implementation always returns `1`."
      },
      "isOperatorFor(address,address)": {
        "details": "See {IERC777-isOperatorFor}."
      },
      "name()": {
        "details": "See {IERC777-name}."
      },
      "operatorBurn(address,uint256,bytes,bytes)": {
        "details": "See {IERC777-operatorBurn}. Emits {Burned} and {IERC20-Transfer} events."
      },
      "operatorSend(address,address,uint256,bytes,bytes)": {
        "details": "See {IERC777-operatorSend}. Emits {Sent} and {IERC20-Transfer} events."
      },
      "owner()": {
        "details": "Returns the address of the current owner."
      },
      "renounceOwnership()": {
        "details": "Leaves the contract without owner. It will not be possible to call `onlyOwner` functions anymore. Can only be called by the current owner. NOTE: Renouncing ownership will leave the contract without an owner, thereby removing any functionality that is only available to the owner."
      },
      "revokeOperator(address)": {
        "details": "See {IERC777-revokeOperator}."
      },
      "send(address,uint256,bytes)": {
        "details": "See {IERC777-send}. Also emits a {IERC20-Transfer} event for ERC20 compatibility."
      },
      "symbol()": {
        "details": "See {IERC777-symbol}."
      },
      "totalSupply()": {
        "details": "See {IERC777-totalSupply}."
      },
      "transfer(address,uint256)": {
        "details": "See {IERC20-transfer}. Unlike `send`, `recipient` is _not_ required to implement the {IERC777Recipient} interface if it is a contract. Also emits a {Sent} event."
      },
      "transferOwnership(address)": {
        "details": "Transfers ownership of the contract to a new account (`newOwner`). Can only be called by the current owner."
      }
    },
    "version": 1
  },
  "userdoc": {
    "kind": "user",
    "methods": {},
    "version": 1
  }
}