{
  "contractName": "TokenTimelockUpgradeable",
  "abi": [
    {
      "anonymous": false,
      "inputs": [
        {
          "indexed": false,
          "internalType": "uint8",
          "name": "version",
          "type": "uint8"
        }
      ],
      "name": "Initialized",
      "type": "event"
    },
    {
      "inputs": [],
      "name": "token",
      "outputs": [
        {
          "internalType": "contract IERC20Upgradeable",
          "name": "",
          "type": "address"
        }
      ],
      "stateMutability": "view",
      "type": "function"
    },
    {
      "inputs": [],
      "name": "beneficiary",
      "outputs": [
        {
          "internalType": "address",
          "name": "",
          "type": "address"
        }
      ],
      "stateMutability": "view",
      "type": "function"
    },
    {
      "inputs": [],
      "name": "releaseTime",
      "outputs": [
        {
          "internalType": "uint256",
          "name": "",
          "type": "uint256"
        }
      ],
      "stateMutability": "view",
      "type": "function"
    },
    {
      "inputs": [],
      "name": "release",
      "outputs": [],
      "stateMutability": "nonpayable",
      "type": "function"
    }
  ],
  "bytecode": "0x608060405234801561001057600080fd5b506105c7806100206000396000f3fe608060405234801561001057600080fd5b506004361061004c5760003560e01c806338af3eed1461005157806386d1a69f1461007b578063b91d400114610085578063fc0c546a14610096575b600080fd5b6001546001600160a01b03165b6040516001600160a01b0390911681526020015b60405180910390f35b6100836100ad565b005b600254604051908152602001610072565b6000546201000090046001600160a01b031661005e565b60025442101561011f5760405162461bcd60e51b815260206004820152603260248201527f546f6b656e54696d656c6f636b3a2063757272656e742074696d65206973206260448201527165666f72652072656c656173652074696d6560701b60648201526084015b60405180910390fd5b600080546201000090046001600160a01b03166040516370a0823160e01b81523060048201526001600160a01b0391909116906370a0823190602401602060405180830381865afa158015610178573d6000803e3d6000fd5b505050506040513d601f19601f8201168201806040525081019061019c91906104d7565b9050600081116101fa5760405162461bcd60e51b815260206004820152602360248201527f546f6b656e54696d656c6f636b3a206e6f20746f6b656e7320746f2072656c6560448201526261736560e81b6064820152608401610116565b61022861020f6001546001600160a01b031690565b6000546201000090046001600160a01b0316908361022b565b50565b604080516001600160a01b038416602482015260448082018490528251808303909101815260649091019091526020810180516001600160e01b031663a9059cbb60e01b17905261027d908490610282565b505050565b60006102d7826040518060400160405280602081526020017f5361666545524332303a206c6f772d6c6576656c2063616c6c206661696c6564815250856001600160a01b03166103549092919063ffffffff16565b80519091501561027d57808060200190518101906102f591906104f0565b61027d5760405162461bcd60e51b815260206004820152602a60248201527f5361666545524332303a204552433230206f7065726174696f6e20646964206e6044820152691bdd081cdd58d8d9595960b21b6064820152608401610116565b6060610363848460008561036d565b90505b9392505050565b6060824710156103ce5760405162461bcd60e51b815260206004820152602660248201527f416464726573733a20696e73756666696369656e742062616c616e636520666f6044820152651c8818d85b1b60d21b6064820152608401610116565b6001600160a01b0385163b6104255760405162461bcd60e51b815260206004820152601d60248201527f416464726573733a2063616c6c20746f206e6f6e2d636f6e74726163740000006044820152606401610116565b600080866001600160a01b031685876040516104419190610542565b60006040518083038185875af1925050503d806000811461047e576040519150601f19603f3d011682016040523d82523d6000602084013e610483565b606091505b509150915061049382828661049e565b979650505050505050565b606083156104ad575081610366565b8251156104bd5782518084602001fd5b8160405162461bcd60e51b8152600401610116919061055e565b6000602082840312156104e957600080fd5b5051919050565b60006020828403121561050257600080fd5b8151801515811461036657600080fd5b60005b8381101561052d578181015183820152602001610515565b8381111561053c576000848401525b50505050565b60008251610554818460208701610512565b9190910192915050565b602081526000825180602084015261057d816040850160208701610512565b601f01601f1916919091016040019291505056fea26469706673582212208e7996aa9b0e65c4e4c0fbb3afe360522377eeea4dd4099d323c373a9131a62264736f6c634300080d0033",
  "immutableReferences": {},
  "source": "// SPDX-License-Identifier: MIT\n// OpenZeppelin Contracts (last updated v4.5.0) (token/ERC20/utils/TokenTimelock.sol)\n\npragma solidity ^0.8.0;\n\nimport \"./SafeERC20Upgradeable.sol\";\nimport \"../../../proxy/utils/Initializable.sol\";\n\n/**\n * @dev A token holder contract that will allow a beneficiary to extract the\n * tokens after a given release time.\n *\n * Useful for simple vesting schedules like \"advisors get all of their tokens\n * after 1 year\".\n *\n * @custom:storage-size 53\n */\ncontract TokenTimelockUpgradeable is Initializable {\n    using SafeERC20Upgradeable for IERC20Upgradeable;\n\n    // ERC20 basic token contract being held\n    IERC20Upgradeable private _token;\n\n    // beneficiary of tokens after they are released\n    address private _beneficiary;\n\n    // timestamp when token release is enabled\n    uint256 private _releaseTime;\n\n    /**\n     * @dev Deploys a timelock instance that is able to hold the token specified, and will only release it to\n     * `beneficiary_` when {release} is invoked after `releaseTime_`. The release time is specified as a Unix timestamp\n     * (in seconds).\n     */\n    function __TokenTimelock_init(\n        IERC20Upgradeable token_,\n        address beneficiary_,\n        uint256 releaseTime_\n    ) internal onlyInitializing {\n        __TokenTimelock_init_unchained(token_, beneficiary_, releaseTime_);\n    }\n\n    function __TokenTimelock_init_unchained(\n        IERC20Upgradeable token_,\n        address beneficiary_,\n        uint256 releaseTime_\n    ) internal onlyInitializing {\n        require(releaseTime_ > block.timestamp, \"TokenTimelock: release time is before current time\");\n        _token = token_;\n        _beneficiary = beneficiary_;\n        _releaseTime = releaseTime_;\n    }\n\n    /**\n     * @dev Returns the token being held.\n     */\n    function token() public view virtual returns (IERC20Upgradeable) {\n        return _token;\n    }\n\n    /**\n     * @dev Returns the beneficiary that will receive the tokens.\n     */\n    function beneficiary() public view virtual returns (address) {\n        return _beneficiary;\n    }\n\n    /**\n     * @dev Returns the time when the tokens are released in seconds since Unix epoch (i.e. Unix timestamp).\n     */\n    function releaseTime() public view virtual returns (uint256) {\n        return _releaseTime;\n    }\n\n    /**\n     * @dev Transfers tokens held by the timelock to the beneficiary. Will only succeed if invoked after the release\n     * time.\n     */\n    function release() public virtual {\n        require(block.timestamp >= releaseTime(), \"TokenTimelock: current time is before release time\");\n\n        uint256 amount = token().balanceOf(address(this));\n        require(amount > 0, \"TokenTimelock: no tokens to release\");\n\n        token().safeTransfer(beneficiary(), amount);\n    }\n\n    /**\n     * @dev This empty reserved space is put in place to allow future versions to add new\n     * variables without shifting down storage in the inheritance chain.\n     * See https://docs.openzeppelin.com/contracts/4.x/upgradeable#storage_gaps\n     */\n    uint256[50] private __gap;\n}\n",
  "sourcePath": "@openzeppelin\\contracts-upgradeable\\token\\ERC20\\utils\\TokenTimelockUpgradeable.sol",
  "compiler": {
    "name": "solc",
    "version": "0.8.13+commit.abaa5c0e.Emscripten.clang"
  },
  "schemaVersion": "3.4.7",
  "updatedAt": "2022-05-03T21:19:57.297Z",
  "devdoc": {
    "custom:storage-size": "53",
    "details": "A token holder contract that will allow a beneficiary to extract the tokens after a given release time. Useful for simple vesting schedules like \"advisors get all of their tokens after 1 year\".",
    "kind": "dev",
    "methods": {
      "beneficiary()": {
        "details": "Returns the beneficiary that will receive the tokens."
      },
      "release()": {
        "details": "Transfers tokens held by the timelock to the beneficiary. Will only succeed if invoked after the release time."
      },
      "releaseTime()": {
        "details": "Returns the time when the tokens are released in seconds since Unix epoch (i.e. Unix timestamp)."
      },
      "token()": {
        "details": "Returns the token being held."
      }
    },
    "stateVariables": {
      "__gap": {
        "details": "This empty reserved space is put in place to allow future versions to add new variables without shifting down storage in the inheritance chain. See https://docs.openzeppelin.com/contracts/4.x/upgradeable#storage_gaps"
      }
    },
    "version": 1
  },
  "userdoc": {
    "kind": "user",
    "methods": {},
    "version": 1
  }
}